:02000004706822
:100000006AAC86BDFA2C3A2E6773DB3D73C306BE1D
:100010002AACE4315D3B8D3D6964A5BEECFA4F37F7
:10002000E3D7283E255330B0EFBA77BE7EE9DA3CFD
:100030007F3AD0BB6D3A38BBE8BA2BADEACB13BEE2
:10004000277282BCC7BE063C00EBAF3E362A8ABE92
:1000500000E3B9BD7DECECB01B76D13D6E5F5BB1CA
:10006000D886283EF29CAD3DCD2BCB927BD72EBEC1
:10007000F85011BEA4BDC11FE587573DBE8BB2B578
:1000800056A4C6BD168B223DDC7B3235B1E4AEAF43
:10009000A7EB443EC012C1BDA71572BCF551B88094
:1000A0009F09C62850F590BC9B52E6A501B4973E27
:1000B0001FA645BDBB5E593E3E9491BBB104B02521
:1000C0009604C3BE2833C8BD822208BE5FF785BE32
:1000D000CDAE313DB881923E1C8223B26361D9BD61
:1000E000102507BECE2F74A422A40DBC887CC63C6C
:1000F000562DA8BDEE9F4E29E6CDD5B539A7C63CF5
:10010000CF6FD8A77625FE3C7BF54D3977B2763E8A
:10011000A7E917BE601A47BC0CAB3C3E191DB836A8
:10012000A84CA63C1FCF423CE33B9FBD61C0A43E10
:10013000F78AB03ED31AE73DF7AD2EBEDF63CCA001
:10014000D5CF22AD0E82D23D10AC113E1FBB03BEF7
:100150008FD6D53DDD8ABD3C8BA1AE35FAE1A8BD79
:10016000A0A641BE154C28A91D4AFFB8912117AC85
:100170009944D83D0E3E3B3EF45A3E3D4A318BBE3B
:1001800055F3573E03CD76BE0547343E2093A23D3E
:1001900023D4ACBDFEA232BDF437EFBD8F9A383EFA
:1001A0001A6DA43E8A08B83D8A3E813EFD8DB13D60
:1001B000839C2F3E3223DF3E86E332BD040186213D
:1001C0003C193FB77F48113E7C5D4A3EDE5882BEF7
:1001D0007A6CE83D0FCAFEBDD3F0663E91EC0D2C63
:1001E000F2398CBD670A2AA2F4648B1F86517127ED
:1001F000238BAB3D3BD73B924D0CF4BD74610EBDE0
:10020000569BE43C8FD1D3BAB03721BD661238BEBD
:10021000E76DB33A5F3697BD1D9E73BE2E017FBB5F
:100220007CBBC4BDB0EAD2A819D297BE9C27E6BB5E
:10023000D557A2B602A2793BBD15EE39995E24BD11
:100240009C0F96BD1FDE4F3CD0D0163E788534BE45
:1002500091C668BD7E14918BED3C01BDE72D57A979
:10026000FAF5AE3D36FCE53D7CBCF5B46DC99CBDF0
:10027000E40619BE3D66FEA7E1C5B7BD30EE00BA83
:100280003295AFBD8C6E82BD3BB96A2DFBC840363E
:10029000B0C6EE3D4953EBBD1A481EBE850FA79967
:1002A0000A6D0238E8A9D02F58EF73A4051A1A3E38
:1002B000038D673D804CF33DEA2B01A57F870B3A08
:1002C0001CE3BABE804153BCA08A863C2200F1BD2B
:1002D000D60254AD8BE7133EB486FA194C3AB8BD3A
:1002E0003DFA4ABE75955A24D77FAD9492CC27BD6E
:1002F000FAF7E6BDA34CD192BE668B31A2B64C3D57
:1003000091F7BD2D85B348BD1BF7833B4448273C7F
:100310005925603DDA74503DD0BF4B3E7891208E18
:1003200022EB4D27E203B5B9B5D2ACBD00073C3E88
:10033000CAD00F3DBE0F283E146F23BE7D420A9FD8
:100340001DA2FBBC868D783DFE23683DC7869D3D82
:10035000FB38423DD6742F3B4F03523C4A8D41BE81
:100360007DEAFABC1611C0B5694B9DBA1AF8EC12B9
:1003700019325B3CD6A60D3E5DAF55BC58A111BEEF
:10038000DF17D33D03F73FBE6B7C423EBB14163EE6
:1003900093CAA1BCA9D331BDC44CCFBD4B7FDEBA3B
:1003A00094C16E3E337AB43DAE46863D6811D4BCEE
:1003B000E717A43C3DE5853E9CB191BD9F76722830
:1003C000AF1E062614EFAFBB26D8163E79F318BE33
:1003D0001866B83DC85B06BD2F5B0E3EDD35D83CC8
:1003E000293142BE8ED4A21DC48B81B63C18D709D8
:1003F000A68D353D7D9585B7E532B4BEB3A51BBD51
:1004000070B1DEBDF562CFB9627EDA3DF55F7DBECB
:10041000FCA6E33B596A36BD1F226EBE7FECC7B611
:10042000C993003E7DD63EB5E339E6BD980098BC41
:10043000EBC647B8EA34831D2168953C0263083C4B
:10044000B25A50BDAB917C3E4D67B93E7B25AABEEA
:10045000AFBEED3CB8DE73B9E9332CBD01C6CEB4F6
:10046000A5AE193E7AABB6BD77D11637F2C498BDAA
:10047000653B92BED4D60C3170F00E3D7316E4B3DA
:100480006E70363DB4B6D4BDD83C12331087A68901
:10049000667BC6BDF10B62BEAB31CBBD6FA2568889
:1004A000F9659FB6F358313A5E5CCFB40AE2063E76
:1004B0000D86C83D73C5363EAC6D69AE9BE7F5B998
:1004C000E8BCABBEDD0FE5BD34EB72BDE1B297BE5B
:1004D000B94444BC56662F3E6C414324A99C1DBEC2
:1004E000184599BEFF03EFB37A450AAC473C033D7C
:1004F0001F83D7BEEB1DACBA1A5F4CB528F3C13DC4
:1005000012958B36918374BBA17F0F1DFC32873D02
:10051000FF05D6BDD28E52BD71F75A3EDA261EA90E
:100520008682D7350D3FA03B7174B3BECAAA103E78
:10053000743ACD3D6F570DBDEDCBF6BD51E1903610
:10054000F82D42363A268A3DF893293E3B95ACBEBB
:10055000D39E103D6C144A384C44F7345971FABD9F
:10056000C3EDD5BD17D907A80E03273D6380F11D44
:100570008074B43D344C1B3EDAEA5DBDD7CC70BE0E
:10058000BD91713EE31D0CBDE5ECB23EF621B23DDE
:10059000F9279F3D7638FEBC0C7385BE1DC92B3EE6
:1005A0006B333F3EEE82323E93E60B3E2C57053DC9
:1005B000B631903D7579A63EB5CA9BBDDE64C9963D
:1005C0000DBD933C12BF913D2AC9CA3DBB4E80BEB2
:1005D000D86F503E7A612CBEC37C7BBC672E609B7B
:1005E000637A78BED517ECB5BBA271334E16D9B37A
:1005F000C2D420BBBA3B56AF1AA78DBE57A39F3EAD
:1006000084FE4C3EC27FF6AD76E5053E4312DE3DEC
:100610001987ADBBD3EBFB3DD81691BD018920BA3C
:100620008B906F3D6F83D53B836E2BBC0067A23DE3
:10063000B78780BA0724621F0D534A3A6D5739BCF9
:10064000AB75903DE5CF96BE966CB8BCEF8DA33DE3
:1006500022CE433ED4F81EB27837893DFB7513B4E1
:10066000DA2EF43CBB49C2BB7FD98ABC409C143E05
:100670003158223EEC8F78BCA227933D4F5463291A
:10068000DC08893D53DD813D3D5A21B9FD8A943B0B
:10069000D32A28BE11C19A3CE95B6FBCD90CED2965
:1006A0000EBD7A3471FE7B1E45779A334A1C44BED8
:1006B000433C37BECEF382BB302D5896904D00267A
:1006C0001E315FBDEF0143BEBEB3C43D0DB5B73CA7
:1006D00039F88EB3113E36BEE3B5492E5148233C5E
:1006E000E61C02BEC64035BCDEC58CB45E3F293E6A
:1006F000B54E2FBD4E463733DC07B7BA80E346BE52
:100700002433CC196B56DD3D095A92ADE25FC33DEF
:100710005A8F00BE4984DF3D72BD903D07A58C3BDA
:10072000C24EAA14874A13A2E8DECDBDDCDC82BE2D
:10073000BBEFB8BC0DB9E4BD5D9DB93DEFBA9A2DD4
:10074000219207B56B83353D49C2E4BD8675E1BC96
:1007500018C9A43DE265B9BB01911121707F9ABC13
:10076000D7516D3D9B165BB2864F493C93DC00A38D
:10077000A75F86BDEDA7AFBDD7FEEEBB498F0DBD10
:10078000E97C36BEF45694BE09E2C0BC0F6554BD88
:10079000019B0ABDA8D2723BD6D5D63DE4F843BE34
:1007A000D02FD93DFD73D5BC597B68BE725C273E06
:1007B000BE906CBDF28B9CBE22FE6F3CE17BF33B96
:1007C000BED40BB73FC44E3E7ACE53BE02BBCBBBAA
:1007D000C684B6BD256AA6BEB88257BEF1AA52AA83
:1007E0003E416C3DC95CA3A4BF4223BBC7FB76B8A6
:1007F00066D43E3E20732535302A613DD2037D3ECE
:100800003FDA0F3E2A8F99AFF72324BB70F9723C71
:10081000913C243CFA3FCE3C79E9263D470D67A345
:10082000542B993DAB50163CE6D7633C0E506F3CC1
:100830001B0030BBB7EA6634EA9F31324B9B1E3B4C
:10084000C9A4B63D7EBB4CBEC4E71C3D36FB30BDE3
:10085000B2243F3EDDF24FB938C81B3C2D057FAEB8
:1008600007E86D3D875C753D511E73AECB3ACF3DB9
:100870002F6D75BA1C3A8F2EC4389D3DF8665EA95F
:1008800042CADD3D9E74223E28198EA4CCB7153A8B
:10089000A49EF53C2E3C0EBB1588C9BC025D54BC21
:1008A000ABC4DD1BA39788BAB3B6AB22225230BECD
:1008B000E0396EBEBBE4BFBC67AB6FB777379CBA9D
:1008C000CEE7FDBC3CDAA6BC2118253D1D60083CE6
:1008D000582FB93C4367F0BDE5A2C63B8D0E053DE0
:1008E000ECFA74BDBB286312936211A3832A033E02
:1008F000D8DBDABD2635CFB27EF12B3C1494CBBDCC
:1009000081F6CC3BD1C66A3D6623869C44640C3D8F
:100910001FFC06BC5A29AB3DA7622D3D2A5075BA73
:10092000721485A04F28C3BB1256B93A875E8BBE9E
:100930001F108B3DF1CE2CBD00883E3E024E432B56
:100940006D5FE9B7541C363AAC28C7BC8570E23BF2
:100950009B74E83D24016A3C2A68EE251520943DED
:10096000A2F17E3D101154BA855E1E2B50699A3952
:1009700046E0D9BCA947A0BD0A419FBCF65F0CBEAA
:1009800035E861BDA49739BE85D70B3DAA36A4BC16
:100990003D4E133D0860173D5ABE6B3DF648F7BD0E
:1009A000D434F43CBAEC6EBD88ACE5BD0A02063E18
:1009B000AE2DBEBD7D0378BEDCBA583D161B78B99E
:1009C000E354B1BA022F6A3E4E4DFEBD6D01F03CBC
:1009D0009CF04CBCB334F7BDFA9A1FBE2039FFAB74
:1009E0000869DA3D5ECC72B44A4238BB8633E42DE6
:1009F0001DC2233D13E649386B00C43D8BFBEC3D23
:100A000041D07D3DBE200D3C84AA83BDCCD5C73DE1
:100A10001EF2823CEB5883BC3AAA8A3AF67F01B4B4
:100A2000E910EB38665F33BA298310BDB172E33D3C
:100A3000B5DEA9383EF3D93CE6B8803AB20D833B27
:100A40000BFFC3BD6549CEBD7EACCDBDD73D01BE5C
:100A50002F0BB23D7F1841B98E7E2E3EEEB87BB98A
:100A60001C7C203D1B9826BD4AA166391ADF0CBEAE
:100A7000F8703C3E6568DAB0C210DD3CCAE21ABCD0
:100A8000F905F23D4FA92DBDB3AD56BC2287412ECD
:100A90002E78433D9E3B283DFFF7F8BD7393043D00
:100AA00078A916BC7CA77A3B3667433B98FDB7BC58
:100AB000946B03BDC38CE83CF66B8425802B872B9D
:100AC000FB8D763D6EF4D13D100C753DE41A5F3D13
:100AD000EA92A433C41826BEBB4FDF3C22432ABE91
:100AE000C088A53C5BFDBA1C3EF0AA270BDD0EBEFC
:100AF000406EBEBC27D5CE26E92DCBB5F35F8DBDAC
:100B0000850DB12E4586E43C47CD7E3BD96E013C38
:100B1000E2BC343D9A2A313E5587A2BDC6B906AB28
:100B2000A0C1B7262C63DF3B42D5903D3A04B3BE4B
:100B3000E455B63C9081FB3BD0BE6A3D844F5D3BA3
:100B4000BBF1162C1A68423D1692063D615D7E3D52
:100B5000E25F833D1FA08C3B7D3CCB30806465BB56
:100B60006455623A64F1C13CBF41ACBB8843113D5E
:100B7000D81A053EFCCFF53DBAB0C9BC4F47953DEC
:100B8000C5210F3E3EF002BD2D8FF43CF030293DD3
:100B90007AEE80BD532A0F3EB5E5AB3B43B167BE4D
:100BA000A7C5683DB60F22BC2DA233BDC992E23D58
:100BB0009CD243BEE8E211BED03DF53C79D64D3A19
:100BC0006E9BFD25519CE33DCE334CBB6DD7813DE3
:100BD000A5BE123E1DA0B93CC731C53D8A1F653573
:100BE000B3E289BD29D4F8374029CDBC78437020C1
:100BF000C9A0D83AAA9AB82D1957CD3D6E47B9BCAD
:100C000053C4863D24A10192FD8A853E242771BAF2
:100C1000A0EABBB832E8C13D4EF0CDBD329B23AF58
:100C200038D2713EA01EE3B1E7C2BA3C4256E63C60
:100C3000C57C350E6CBE9DB8AA340F0A8B7AF7BD01
:100C40004186843D3DF2F0BD596E423E83C3ACBD4A
:100C5000DE4DDF3D1B095A07C30E44BE783CEE391A
:100C6000DF4A06BD4C281CBE966A8E8837486B3D0D
:100C7000CB4043BE0295AF2228A03B3EF4B1511AAF
:100C8000602E16BDD6498E3E771FB3196BA411177F
:100C9000BA6B47BE100BA9BD00D66ABEDFDE9FA3AC
:100CA000CC738C8485071580572838B9A14F233E13
:100CB000D6C790BD5543313ED68432200A82032FD9
:100CC00015295EBCE3A423BE07182E3E45A5B9BD79
:100CD0005C857A32A51D69BB01636C1BFE3AFDBCC5
:100CE0007E95CB3D265A4108EDCCC2310A9E9E3DF1
:100CF00051DA9C3C929695B19539BBBA3CEC413C9B
:100D000094D6E43AE6E9103E4E3D69B9B4AA4D3EA8
:100D1000505965BE8677DC3C66B430BD576994AAED
:100D20000759148D12A08C19E5C07DBD532DF5BD5A
:100D3000CEFC8A3D043A3E3E930CB8BD2B782CB5D0
:100D40002A4B5631AF5D9D3E8F89DC3D0D1F17BE8E
:100D5000DA88633D6ECD12BBF1EEF5284E6061BEC0
:100D6000B5A1E3BD8F6C2E1476CB4D8BB12390963D
:100D7000E40E0D3E70CACFBD2A3B503C1765D7BD6F
:100D80005D6CFB3DB38E18BEFB6E3A3C7DB2AEBDD2
:100D9000166EB4BD0321B73DA3C91CBE3F71423ED0
:100DA00099EC893E7FEF5EBD460FE3BDCE13A83EB2
:100DB000463D283E778C9A3CD7A13EBED8D670B926
:100DC0000A22ACA80B4A523EF3F4203D2DC5B1BA1D
:100DD0006F98673E559118BD86B8E7BD0AA196B1D8
:100DE000922F37BC1805F12E128A610F508076B60B
:100DF000F1AC713D69B961A23661343E60F0A83D45
:100E000009D2463CC9EAE62FAAF1C23DE2FAB6BDD4
:100E1000E8BA0F3733C6323DC24E05BE60FABA3962
:100E2000179B8B3DADF17697EA24A23CF5636A3BB4
:100E300095B0DFB85CAA5DB64ADDE536457BDABD24
:100E4000DF63E33CD7EE70BD7362B43D24347ABEF9
:100E5000A467FE3DE30626AE936B12BE9A37309927
:100E60003E7A80BDD7B2E0BC59141013EB78FCBCBD
:100E70004C6F35BE77B2BFBABF7FAA3DAFCB573BF1
:100E800094108CBD0AD2C53D2CDE24AD5C6CD128FB
:100E900066ACA7BD827456BD19AE2ABE45C40A34DD
:100EA000D12E35088017339C10BC4396170B79BCA4
:100EB000A49C44BDFCB33B3E3731290CDFB70C0B7F
:100EC0000CC6F2BDB20902BEF455BC3D9E17C5BCAE
:100ED0004E98F82D8C40003DB8E8BEB5C0AF04BEBA
:100EE0001457583DC6324AB9681259323C0D42BEB9
:100EF000B12EF7BD8A56621D2205C1B3B03DA2BC1A
:100F00008FE854123A19B63D399A9436A0714FBC05
:100F1000BED08DBDB376453C360231BDB071873B46
:100F200024A1723221C4A7B2D5550DBC437871BD3E
:100F300000E6013D71705D3D60389BBDED9BA638BC
:100F4000F7892A355A6B633EB5339F3D56B2CCBD07
:100F5000D7683DBCD1EF5D97C3DF2C2E472B85BEF4
:100F600085A546BA5F460E14D030609E633E46B1FA
:100F70008A00243DE2AC643D3728053C87EEDBBDAA
:100F80003F996A3D7F5DF5BCC204963D7FC027BD99
:100F9000EC7073BE7B1D913CC2A5ADBDED535C3DB5
:100FA000EB974E3EF7DAE9BD91B39EBD0206853E52
:100FB000EC65223D13D0C93D6CD52BBE5C93171A4E
:100FC0009145832C58F9193E708C54BB700BFABCB8
:100FD000CFAC353E81AD51BDA11EAEBD4A8206A942
:100FE00069A80ABE08A32ABA7F665B8C74C4D42C95
:100FF000257D713DE5DDE0B7E758D83DEBFFCE3DFF
:101000004742223DC1115C9746F129BC81963FBE03
:101010006AD23FBC3F5692BD55FA9DBCDC1F102ED4
:10102000ED192DBD6936108EE104FABD358603BD7C
:101030000A314F3AF190E51865F433183624D6BAE0
:101040006D42F0BC52C0EDBB6B47723D075245BECE
:101050008482B83D23338A2D9C4C44BED82863B982
:10106000EEE3FCBC808545BD4C3A232983FA5ABD8A
:101070009DE940BE3905E7063E6B0A3DDDC3002F02
:10108000ED5B42BDD5AC74BB9FBB0CA54612EAB369
:10109000C03C063D9FF1F63D712AE6BC9ADDFC227C
:1010A000A77CCDBA3E20249B473BDC0831F4B13D00
:1010B000FD46CC3DB1511A3E5C7928A92E065B2F26
:1010C000424C3ABE06E707BE6D8D63BDED779A3D93
:1010D0000EAF8AB25D4744BD9623C11C22740DBE7B
:1010E000180FDDBC45B0CD2C0C2BA49002029BBE8A
:1010F000FDECCDBD28DCBCA106CA48B8BA909F3C27
:10110000AF4A133271C5CE3D28D169A46D303DBDC3
:10111000DADBCF3DA7711BBDC8EB97BD80CB190EA5
:101120005B6B24A2DDC5A8B1AC8726BE9AB190BC8A
:101130002446E9BBC11ACDBC0F0318BECDB8BCA470
:10114000F27081985AFB133E1ED4A73C187094BDD0
:10115000412900BD5F8EE197E39DAF247B1DFBBD60
:10116000312BF23D560A389994B7F1A69C60142BA6
:10117000BD18843C5FEB5F3D7E6C88BC660D67BD2F
:10118000CFB4CA3D90DEC63D4F59073E4A3BE83CCE
:10119000FD5084BDAC524FBB5A541CBE194E033E89
:1011A000D565D53D49E93CBDACB2993D8D421B3E6C
:1011B00051C4693D95BA4F3E1A96ABBD061AC7B3E6
:1011C0009810363681ABC13DDEB81A3D727919BD33
:1011D00023667D3E06A9293CA75899BDAB83C12A49
:1011E000EB76E9BD22D091AAEE17092007A69D381B
:1011F0001704E23D7615CF8C8DBF12BDA748B23DD6
:101200004FC809BD5BBE7AB0FF6E5D3E61FCF93D23
:10121000C6E75F3CBB3643BDE9A505BE144AEA9468
:101220007FF6213DCC9A1B39FC67BDBD5C0FB43DF8
:1012300007E8AC9FAA58328E5B2369BB7CC246BDCF
:10124000427DCF3C05A6BFBDC4284C3DC73090BCF5
:101250006B7818BC91B9EB13003F7F3D7D39DDB54C
:10126000180F7F3A42B09E3D278ACDA93B3C0A3DEC
:101270005B38C4BDA675BE375597B0BDF8BE85387E
:10128000D3FE0A3EE2C0883D8B4FCEB20CFA49B580
:101290001A11CBBC3BCB6A3D16D4783D765F341D2A
:1012A00006A22CAD42A219A0F3F2CE36649F953D62
:1012B0000DA460BE7ADA0E3E716624A53C41BD27BE
:1012C00001C91ABD4E9995BCE03D543DDE0EC7BC28
:1012D0006768A5834E3C20BD38F2EF9A0125CDBD4D
:1012E0005087BBBD9CF13687DE9909B2742D1ABDBB
:1012F00092D48B3C1EC0DDBA170EE4ACFBCEF2BB21
:1013000079FE2B8EC7D9AD3D645C868F598ADA3C55
:10131000A180A3BBE222993D794D1E3D50F0800F84
:10132000B91D953B5B6BBFB3CFEDC83CEC32CE3CF7
:10133000C3E41EBB80CC6B3BC89F943D85186C32C8
:10134000C4CE1509A40DD63C255208BC09F1A8BC91
:10135000623F893BE4747091EA7624A482B9A4BD0B
:10136000048B29BDF6BEA787C4191934DDF2C5B8B0
:10137000F233953D9AAFC1BCC529013DC660DFBCC3
:101380009530AA3C836C713D35BE423D5D468A3D39
:101390001F46C6BDCF2C203EEE2C6DBD56E8A0BD2D
:1013A0002BE9023E439E493D89C10C3D8286953C16
:1013B00081C51A3E01818C3D33567BBC7F90591A02
:1013C0009AB736389FA1B03D9EF84A3D427A263DF5
:1013D00060C6403DABC7D2BDF718F73DF133050FEE
:1013E000D7B9933D0DFF3FB7EDAE300FDCBF3721CE
:1013F0009359973D2CBFFA2F37AFBFBD815EBCBC60
:10140000E61B48BDD84285339B7C263E2A2A30BC49
:101410003F9568B9DFB7C4BDD4262FBE257D02B97C
:101420002EA16DBD71FA7027566031BA9039263DF4
:1014300094F7143B183F9D34821581AC84EAE7BCD5
:1014400079C03FBDC8C78F3DBF72AC3CD1BF9EBB0A
:10145000B28720BD9E43A6B0130A8E3DF158A5A5C4
:10146000994C3EBD24A6BA3B8B0CE91DE2FE913D92
:10147000B26EAFBD031A8E38B5FA77BD8FBA1D3B79
:101480000844FB3DB72AB7BC95FB10B573ED2C3370
:10149000EED44C3C7BA10FBDB62B0E3C5D22858B60
:1014A000FE8827A7EA5692BB0427A5904FED013E80
:1014B000726256BE9B55843D4178C7343324A5A142
:1014C0007ED572BDAABD44BCA6357CBC3C63C1BD03
:1014D00000381E9A5572F43C56B7BF209E9BB0BD93
:1014E000178037BE8D1BE723432B8A0350355CBD25
:1014F000DB35CDBD4387E18A4FE4393355EB4F3DB2
:101500007C7E7DB71E9A8E3DC890FF867683B3BCE5
:101510008AD7703B7FD5A83D8F55803DF13744A8D1
:1015200066450E3B103FAA80F81E193D0C252B3C4A
:10153000587B4B3DD4A32E3DBB4EB0BBF49C9A15BB
:10154000ABF8953B0BAA8FBD675773BD3888F3BCCA
:10155000BF68343C16AF29BAB0F4AF8F07512C3BAB
:10156000F410A7BDA3E5113B7F52042695171E8DED
:1015700090B7EA3DE5B0223DDC221B3D7EDABABCE5
:101580009B5AE4BC7415323E513AA03D0D6E733C3B
:10159000F2E51DBEA7BAA63DD2030EBECB0AC7BB5D
:1015A00069387E3DB85A1C3D4986763D1331D8BD19
:1015B000F5CDCF3D4820013D5C86933DFA2EB52305
:1015C000D98A49A085DE7B3DC27F4FBC06D3FA3C59
:1015D00095B2AF3B60E733BE92DA973CD6688D9AFE
:1015E0005148AABDE44EC30A927F0EBBD53B800D85
:1015F00008A8CC3D5728883782CAB6BD4406FF3CB0
:10160000D27C2FBD0BF5E5279C3F043E64C078BD1E
:101610002568FABA2E75B8BD1DE81EBE8109483886
:10162000240799BDFD1D2F31F6CD323D55DAF73C2B
:101630007ACDFD2183E9FC3AE1BEC71FDEB132BDA0
:10164000343039BDD067093E91B350BC9269C93C72
:10165000949D543D3E5A1C308FE8C73DDF0441A4A1
:101660003F110BBD4B69BF3B8909CC1D9FAB0C3EA5
:10167000138384BD5C1515B6069D64BC4D0ADA2340
:10168000D098163DF9A023BD8A84128D8F43CE8851
:10169000938DA53C27A07DBD131146BDEF1BFE9287
:1016A00026A981BB75DFBABB91B49E966FED163E3D
:1016B000816171BD273FB93CF466DCBB243BE51674
:1016C0001A5532BE51B9A3BD4CB4B43CB2A6C5BD87
:1016D00015E683B5E82FF23CD83000B5E2690BBEC1
:1016E000D4D32FBEBC3FD9975FF69B1F61FCEEBCE5
:1016F00004AE1BBE4FBD3C3299ADD3349538C03AD1
:1017000004FB0492055F1E3D044DA2BA578AA2BC99
:10171000ED17743DB83EC0BCD629283D9083003BF0
:10172000A1CA05BCC15CE3931FB65DBD3FF9BA3DDC
:10173000B911303D5E29AB3DFFDA423D589F17118C
:10174000B31F38A1CD6AA7BD691706BD8F33B2BDDF
:1017500023E85FBC5535D9B4D67E4E258873013C4D
:10176000366786BDBB4D77A7368E88A9B9DF26B10F
:101770001E1CA23D8A99CD3DDCFAC33C3CB6A7BCF9
:101780000147F63C62F6253ECD0A0C3E91E4523C00
:101790002FE12BBE6073B53D6DDD1BBE981E8F3CE7
:1017A000CEFE643C55759B3DF43BBC3D1EF2D9BC5E
:1017B000EF67B63D305A7BBDEAA58C3D4BF484B74C
:1017C00090DCF83060C578BD30139FBCB2B75BBD0C
:1017D00029BE123C224153BE723E4A3D438739B96D
:1017E000934381BDA226AC9E3F14A420E5ADCC0E50
:1017F0007390A03D654AC23A9845DDBDBD1B763D5C
:10180000EC9300BD9478C43C2C87D2BC2634FFBC3A
:101810006C84A23CC558CBBCA315A0BCAD4FECBC9E
:101820006855DDBC6852D7BC9287FEBC0E37D63CEB
:1018300065C4F1BC794B063D8EFAE23C58C3E6BC68
:10184000F08BBCBCA8AE29BD038699BCCDF6B1BC5B
:10185000FE51843C4D21E4BCC0D67DBC6DEE05BD7F
:10186000D4E6813C07ED8FBC9E8AD23CCD270ABBD3
:10187000417ED1BC58DFD23CD85F5DBCD025ED3C69
:10188000B3D10F3D3CA20DBD5F21FABC4D2EA0BCD3
:101890008080813B90B2C5BC4779F0BC20E6F53C26
:1018A0001687B7BC16E701BDE8DCC2BCF836AE3C13
:1018B000B18597BCDCA5BB3C84FE72BC69D8BD3C3D
:1018C000374A97BCC05BF53C38FDA4BCA540F0BCD2
:1018D000EBA0F5BCFAEBD8BC4CB9CC3C3C2204BD27
:1018E0008939323C4012CBBCDFE3F3BC50572B3C70
:1018F000CD3C653CB07A2FBCD2B0F9BC84A69ABC72
:1019000071ABAC3CFDB5FBBC051709BDC709C3BC39
:10191000C52F243C100814BC4EC5F0BC15EA01BD0F
:10192000C55DEBBCD62FEEBC610FB2BC76248CBC7F
:1019300093C443BC350DBBBC965B6EBC1FF307BDA7
:1019400020988FBC23E0F3BCB10CCCBC9A06723C4F
:10195000066DC73CD176FABC2243BF3C1AF92BBDB9
:101960002BB7A1BC40085ABC98C2C33C1FB2D13CA3
:10197000EC9D4E3BC40AD0BC8819973C1DBEBEBC32
:101980001B78E53CCD898CBC351ABFBC1A4546BCDA
:1019900001B4C7BC773B603B0FB7F8BCB01B80BC41
:1019A0009475EBBC3933B4BCFF37EFBCC0F176BCE7
:1019B000CE2A4D3C1CE99CBCB6CBD8BC11D0E43C33
:1019C000AAA09D3CC9EDC5BC6A69FEBC2BD2363CC1
:1019D0002FB5483C4045BE3C48C988BC32A35E3C5C
:1019E0005D5997BCB449D93CDE0BDD3C627CBA3C06
:1019F0008B797EBC500341BC0E4103BD2AC403BD9C
:101A00006D6DC0BCDD07BE3C23A9DDBC1F8C05BDD0
:101A10003569E2BC2F7D603C803DF2BCB692DA3C79
:101A2000068857BC5A9ED53C7D63F3BC18B8E6BC0B
:101A30006D1578BC80B4E93C514DD1BCDB5FFFBC77
:101A4000ACC81CBDBEC42BBD2BC08B3B3FE4EDBC62
:101A5000007944B90E01EEBCFF5D00BCB82200BDA8
:101A600057CBE23C93CEBDBCB2078C3CEDE2A6BCAA
:101A70007597ADBCE47AFBBCA151A8BCD9A4AD3C20
:101A800087DAA5BCE292973BF8E8033D373BF23C8E
:101A9000DA3D12BD407803BD3490FE3C848AE83CB8
:101AA000B72ED53C1BE6023D35A7BB3C3431DF3AAF
:101AB000A9E541BC4BE810BCFA56A0BCC3C3D7BCD7
:101AC0000F8BDCBCB60801BD6ECFAFBC33CAB1BC56
:101AD0002B2C0CBDDD3773BCD50E073DD6AA70BCD0
:101AE0000DA510BD1AB4A0BCA286EB3CF2AF643CBD
:101AF00058BBAEBA0466F43C004ED93C1E97D3BC2A
:101B0000DA4EFA3C8FA3CDBC6D40AA3C33270A3C89
:101B10002F5BEBBC10DDA4BCD0BEF03C7DF8D83C04
:101B2000ACFCE9BC3DC2933CE9F314BD80EAD4BCF3
:101B3000F8F612BDFAB198BCE269CCBCCBDD4DBC65
:101B40006CE5D6BCA4DDD6BC3E3DAF3B09EF06BD7F
:101B50007A4F24BCB24C03BD64EAD43C17E608BDFE
:101B60002D2400BDA77E533CC2AAC8BC88BCC93C7A
:101B7000C2A1E9BB2C23A33B6260843CE81E9D3CD0
:101B80009868E43CDFE5FBBBE6A008BDEDD4EDBB07
:101B9000F1E1803C84DEABBCD8583DBCDEADE83C16
:101BA0008FD7DFBC69E3913CC4DA953C357215BC34
:101BB0007A6FB53B35691C3B4D7AD4BC02ECAABCAC
:101BC0001C4FD43C05C3B83CE846973C5444743A97
:101BD000C00B8ABCFB479FBB99C9C13CCA48E5BC46
:101BE000849BFABCA827883C23A9F1BC0818D7BC61
:101BF000339DEABC676ED3BC25E9C2BC176AE43BDF
:101C00000B57EE3C0E8D06BD042778BC2FC73CBC9D
:101C1000F1A40BBD6B10F83A45F1E0BCFF19F73C9D
:101C2000825B42BCFA98013D6B1207BDC1E8D5BC8E
:101C3000FB8CE0BC7A44033D93A7CD3C3ED8DDBC91
:101C40004F5241BCE07DB9BC1C4204BDF18DFABCD1
:101C5000BBCF5F3C93C9CDBCD51158BCC94ACEBCE3
:101C60002F883FBCAC4BFDBC2C05ACBCB00F0B3B74
:101C70007AC4C9BCC14A04BD9144803CD160A63C31
:101C8000BCB2013DC51353BC6D68C63C461803BDCC
:101C9000FE2706BD1AFAA5BC0D8406BDC495C93C35
:101CA000B137033D7329F03C98FB023D6C42DEBC2A
:101CB00046B389BC4098CBBB5BD4A0BCD5BEF53C39
:101CC0007194F1BC4E57483C333CCCBC829A343CB6
:101CD0004683BBBC6E9DC03BB320D5BCE9CC60BC89
:101CE0007BA0B3BC61AB9EBC8D9BDABC1DB012BDAA
:101CF0001D093BB9E9CF00BD470FF73CF7F419BA0E
:101D0000276CFCBC1768CABC67ABEABCEE0853BCC6
:101D10006603D3BCF84BCABCEDA96BBC40E4BCBCA9
:101D20004C6E763C6C38DC3C64EDD9BC9B06863C42
:101D30006BAC2ABC891F89BC67C3DABC2A02C43CCD
:101D4000576BFBBC9D2CECBC412885BCCED3F5BCAD
:101D5000A4E0D5BCCBA1E7BCC0C0063D10A7D9BC50
:101D6000C177D5BC80CF9C3C6C99B43C71F7D63C14
:101D7000CAB4963CD5A4BC3B5C32923CA5720ABD69
:101D80008624E1BCD1D309BD548809BC9E695BBCE3
:101D90003408363C7E63D8BCADBC12BDB7E0873C8E
:101DA0000C6872BCB39FF23C6BC107BD447AEA3C3D
:101DB000FBCFB4BCEC89263C68A604BDF4ED03BDA2
:101DC00068BFF73CE711B73C381501BD714B9F3C2C
:101DD000C9C90CBC27E54B3C9B63E1BCB07AC5BCD0
:101DE00042D007BD4D4B70BC49BD6BBC993FEDBCAB
:101DF0003052C2BC10EEC13CD5877BBC3FDACFBCB1
:101E0000D365683EB49B1F2D0ABF82BE8B82C23D44
:101E10002DAD0D3C398690BDE2FC9CBCC556DDBCA9
:101E2000511F9DBD367E53BCE0B1293E614A9CBD29
:101E300004895B3C2D408AB954DE083980D6EEBD5A
:101E4000AC4CD9BD9274313D00D398BDAA24543D09
:101E5000939E2B3D92A305BA40125ABE0A40AEA5EE
:101E600017AEA6BD3234D5BD303E5CBC08075ABDA6
:101E7000FD9D463EBF493737C4DA69BE833D88BC05
:101E80005D542ABACDC713BE7E1C0325DE72A02581
:101E90006CAA393BA8320C3DE8FBDE3C3E1A6BAD28
:101EA000F5219FAAA872AE35D8F93E3BC74779BD48
:101EB00084980F3D0B99C6BC428D23B7BA3D92BBA7
:101EC0009B265E3E1687E4BDCCCC8C3BCD1170BC0E
:101ED00087E6E3BB2E1153BE80B11DB35F2C743D6A
:101EE0009B15853DBC06C320EE07EE36872128BE34
:101EF000C13C2F3E6FEB2E2E2386EFBA03DB05BECF
:101F0000472D20B48C7F3FBEB4A83D329EAACABCE8
:101F1000E3E209BEF44AD43C0E3CA1BDBDD373BC80
:101F2000AEFAB9897AE0E9BB1006CB3D893EA0BE86
:101F30007CC5323D4FAA30BE55F87F3D88B776AD9F
:101F400041AE88168306013D91C7D5BD0355003EBD
:101F500062F961BDC8E67234A8BB671C3DBB79BDA0
:101F6000602991BD0081D5B48911CEBCE5FE143B3A
:101F7000A01A38BC97503A3D12FA88BCC50A063EF2
:101F800004049CBE093BC9BEA1EDCABCC5DE803DB0
:101F90008DC33B3C5E980A3EF2FC373E858ABA3DD3
:101FA000F10425BED0D43DBE9823F0BDEB6F18BE22
:101FB000DD040A3E539D6CBE64ABA03C3DAC5AB6FA
:101FC000D815C43A28D2AC3CEC030EBE2351093ECE
:101FD000FC32263D171D80BE538A2ABCAF0EF1BAD3
:101FE000D35B3F3ECEDD8C2967C9A533E6E9CC390A
:101FF000F0AEF7BCFED55B38B6E6453ECFB1163E37
:10200000CD00893E52D064BB231B4EBED8AAC03D32
:10201000E2290D3CD729C7BD9E7B6CBB94DA8D3B72
:10202000E23211BDD9AE202AA37B143ED1C80D3DAA
:10203000A0A019BBA1B1BF2C18B9153C0FB52EBE7D
:102040006B6228BE24CAF13A14E93DBE0958323EFB
:102050003196E73D443F5DA2DABB63BE9A166BA999
:10206000C1F4A6BDA14C89BD602FF3389466A53D8F
:1020700041B9A23DA88EE0BC0975AEBD3F0FAD28A9
:102080009206543D9B9C0FBE2A7E592FEE14492880
:10209000C314843DBCE2B0BD1609BFBC99313625DE
:1020A000BF62AEBCA85565B60A862722C70191BD9E
:1020B00055ABA93D00F8CCBCF813BFB95023A61C02
:1020C000B0F98F3D2879AABD89993E3D2A248A3BE3
:1020D0006CEF9236B02875BE52F6C7BCFB9F573ED8
:1020E0002EE1DF3DF9C5A232B0E4F7AB722EC53C5C
:1020F000C465C13D304A8196BF6399BA1A7960BD03
:102100006943F9AE7FC220BE373815BC9948DEBDA1
:10211000C325DEBD81B608BE63770BBCD56F7114D5
:10212000DC24D5397475AB3C0E7FCA3CD6AB93BE6C
:10213000D007CC3C8109D5BD8A34ABBC427EE0BC23
:102140007EF04AACF3CDADBD2EB0BABDAABEDF3D28
:10215000DFE8BD3C0D53583A26C497BCDDA7D03DFF
:102160002C0ED73DF4F879260CCB31BB5CA67D2C28
:10217000879BC3BC3EAB193D936997BA3EA9553DB9
:10218000F6B7A5BE05CB7CBE64E5ACBD1DDCAEBD1F
:102190001CE64BBBF2658ABDBB3DAB3DA4F6093CDA
:1021A00013DC36BE6FB829BE85CB46BD1343D7BD01
:1021B00054D9B03D7DFB9CBD318C093D36CB14BC60
:1021C0002128213BC775CABC94D6CABDE5328C3DD7
:1021D0006A3D213DD41A7CBEFE5189BD5399E2A7C8
:1021E0002F9EE73D3A3A0AB76BE02FB37C6482BC7E
:1021F000423EEB3C869E1FA79D99313ED50A0B3E81
:10220000E73D123EDBC009A650882BBEAF3FBD3D67
:10221000EB233ABAA34B34BCA143F2BD219B78B661
:10222000F9D495BB7DFC9DB715ED533B233F053E8F
:1022300062C2BC3B865F9BBB38AC4FA4B0B6E6BD68
:10224000535632BEAA72813D5CEE35BEF64CBE3DA1
:102250003B28593CEDED431C2EE473BE3D2C5AB592
:1022600026DD8DBDAC69113D0C3C8F32ECF30CBD0D
:102270008462323E69CFF6BB181AC8BC21AC35293E
:10228000E0082C3D9B7866BD4490033315C435A807
:10229000CBCC5A3DDDA708BD9C82373E30D3CE1053
:1022A000B03BCF3A6CAC640AFE48D0A5AEB685BA56
:1022B0005695E63DA771633D83EE8B2E833BB708B1
:1022C00046329CBD50D84CBD1B561FBE134282BD2A
:1022D000BC999DAA439002BD6D5444344428993D55
:1022E0001B1DD73D66DEE11D87E67FBCC85E8E3DC7
:1022F000F77B4A3ECE239A3797485A9F6F8D2EBE62
:10230000DD8A4EBCA207C8BDE2BDBE27FAE8DCBD2F
:102310006661373D2E5ACBBDD649D8BB8C153CAD36
:1023200009F4832FCAAA6AB6C003183E2E2531BE0F
:10233000F9E6133D821702BE4C05E1BCC36D73ACD8
:10234000C76F3EA4171BACBC0880C3BDAD66143E6E
:10235000F289373CC8D4D7B3E9C4FB9D1F32E03DB6
:10236000668F3F3C62C22EA5C6D3D737AAF130AEE6
:10237000A51F403D15832F3E5CE5413C8168423EF0
:1023800000644CBEAC08EABD898F0ABEC87045BD6A
:102390000DF9983AD8A932BD6F3F023C96D8483E15
:1023A000D8B53BBE8FC208BE8B6C00BE8A090EBE7C
:1023B000F2CE0ABCDF5D65BD6AB4E73B3E23A9BB34
:1023C000824482BBD614C7BC1C73C6BDE0D9D83DBD
:1023D000390803BB4147863C7DBE143DC0947E272F
:1023E0002C47783C3760D7A0CF77973B2102C62F88
:1023F0004A5D06BD05CF9CB65B49443E53980DBD72
:10240000911DD3BCFF255C9FBFAF033E0547D1BDE7
:10241000E3EAA3BB3A7ABC3DEB92A93C544924952C
:10242000EC9F1FBDAD110D93AA41233D1E5E22BD41
:10243000255BA397ED006C16DBEB179BEBDA84BDF5
:10244000801DDD3D5765F73D63D7773BC8E28CBD06
:102450008CC5203D0F347396B02CF5BD7FEDDCA606
:102460008CFC25BC7210DEBD9B109630F6471EBD5D
:102470006388A3BDB0C3C739F4D60C3D80ED832378
:10248000CF9E933D58E8A13D8A39F1BA745692B86F
:10249000444961BEB633FFBD7AEBECBDE32143296D
:1024A000C0948488481B1D3365E1ECA05682413DF1
:1024B000933BBB3DB63D533EDF3A778107E3321A8B
:1024C0008D90F6BCB864D6BD56353ABC848981BDC2
:1024D0000ECE06A76272BEBC703E3B2B261466BEB3
:1024E000A13C223CE97DBDA50672AFA2491D0CBEF0
:1024F0000A76FBBAD933000082CAE2ABE063DCB9EA
:1025000058176D2388151D3ED2C9D725D4170C3E08
:102510008426BCBDE1FF26BD37AB9BBDF59C51B801
:1025200055F8AE3697EB4C00D8BC9A3C8732BD3D8F
:10253000E9963D3E1FFBA73D5D6238BE81077A35B7
:10254000D5A6022F75D38B3E99362F3E36073DBD5B
:1025500089CD47BCBB425C066C6E76004C7B87BE67
:10256000BC3E06BEFA1EADA6238684B5D0AAC38B98
:102570007E3A653EA04B3A3DEF31B03B21EC8A3CC0
:1025800027ABAA3DE29521BDA369083DF1C500BE78
:102590003C5E6BBDBC32D1BD36FF0DBEBC3A0FBD3B
:1025A000EF212F3EE055973D00CBEBBD6794723E87
:1025B00053F711BE0561053EA12697BE82000D2589
:1025C0001133BFA78A14023E593B213DE5CC893D1A
:1025D0007324A23D97420CBCBA1512BE27F2493AA9
:1025E00073B70BBDC233108E09254C13A3594EA9E6
:1025F0003A673EBC0F9621974E06043CA6C327BD02
:1026000047B896BB4528E096249A2E3D4232443A7C
:1026100008C366BAC732E13DE423223CD524A48F27
:10262000056492BC9498BCB7BCBABA3DCD21EF3BCF
:10263000BBBE8D3086CF0100C0D21600B5E155BCBF
:10264000FABA903D4A0B043E3588E0BD647907BE76
:102650006544BDBCAE06B01DD479C8BDDEFAD82F26
:10266000E40F1FBD1197433A97360E0B599B1FBDC0
:102670002CDA59BDCCBF590AD20B8E3DE7847924A0
:1026800084CCC23D422F2F3ED535000043AD24A35C
:10269000C6F70DBEB78C0EBD127BCCBD8AB98013B8
:1026A000A30201109CFD0F8B6B6122ABC15DAC3CA2
:1026B000678C1D3DF10DA23EF6FF82AFF00862155A
:1026C000AD9766BD26F135BE54A568BDDBCEECBC2A
:1026D000E517EB1846DFCE3C96898397502482BEDF
:1026E000FB32073EF4CF810DEE83561F3E4344BEBE
:1026F000E79E81BC7CD991381B56811E1345903DC5
:1027000078B100275F15153E61C4132B92CFCD3DE4
:10271000249D4ABDBAD0A7BD461ABABD78DBAF37F3
:10272000DC3D2036A1C80F80A82D913D693C833D3A
:1027300062A44D3EAF9F83BB620F87BD2B3E371215
:10274000773E7C36D1303E3EA77D613E628E8EBDA7
:10275000E7A5CE3CD45A05148AD224A7AB7D3EBE51
:10276000247CB93C4E602E38A3D99625A9DDC12220
:102770004670443EF0DEFB3D3A4E9ABA849F62BCFE
:102780004E5ABC3DFB6ADFBB1294E33D9928BDBDA8
:102790002F852EBEF73407BD9C87C2BDF91DABBD8A
:1027A000EEDD243E2CE7063D19DA3BBD319FA03E0D
:1027B00007CC34BE2DD7303EB12687BEB4F6210BF0
:1027C000F3E6AA89284A2D3E49704EBB27119ABDCF
:1027D0001F48F23DACCC0A3DF138CEBD658511B93C
:1027E000E3B8C6BDEBB131291A0C451963F4248056
:1027F00002961A3C5308DE1F52BEDF3DE15DE23C0B
:10280000626802BDE6F9DEA869F3E0BC55995ABCDE
:10281000B80089BBBC93693D9071823D70274D2003
:10282000677F1BBE194C142A12CDBF3CECFE48BD7D
:1028300033F10080320103A520C2072D18C40B3EDE
:10284000C811313DD188113E0928CD3CCCF4903DD2
:102850007F8EC1BC9F280580D60576BCC49D000034
:102860008CBF43BDE4D49F3DFF14E3B66D360EBD6F
:102870001A478B3C04DD8892B576613C9F5BA98545
:10288000AC47983D8E753FBDB46F893046B37EB975
:10289000BFAE21BC3BA9B43DFD40243D76E4659824
:1028A0002FF8002915C13D151132E38ED4F58EBCE9
:1028B000247DC53C969A2E3E63C4D42C9BCA6529C0
:1028C000BF17B93C5FD20ABEA702FCBD3AC23B3D6E
:1028D0009A5504B853C5EB3BD0016C9EC86A1CBE28
:1028E00077E1C63D95001D20E1DB4900EAC38DBDBF
:1028F0006DAD2E3DE113E8B3727B79A4685A133DA8
:10290000A303A5390F5EF63D67AD0480853E8A3C82
:10291000ADABA83D3993F3BDD5ABE2BCA507D895C7
:102920006EFB169DC16FC7B019AC8CBAC0180B3EB8
:10293000F9A10B3E11819CBC018B49BC20988C9065
:102940001AC4D63A9C630B3E476FD93D12674F3D80
:1029500001B9B43AFCBC12333803E9111B49583DA4
:10296000F53AF63D0FF66519C1123297ED25BF9F76
:102970007751F93D3BBC8E3DB57EB43C9AFC443E5C
:10298000D341BC3D13FC173D2B51D83D7D6C01BD9F
:10299000047CB9BD5B750DBEC16DDABB709345BDDE
:1029A000EAB4D83C018B3E3D9611D5BC26D45D3EA1
:1029B0006FEEEFBDD871D53DC6E15BBE6918B59F1E
:1029C0008F8DD72992E0203DEF3D003D55407CBDE5
:1029D00045C0A03D00595C3D591A05BD277C48A65D
:1029E000CA552BBDFF0073913F64D58D0740B926B2
:1029F000D3D6743C18BD73178A670F3CA16FC13DD5
:102A0000DA55043C5FA255BCA69EFF3CFB6FFA3C26
:102A10001ECC55BC8299013D2D93873A280C683C09
:102A20005492483DF01C833C6B0FFBBB1E869F3CC1
:102A3000BE0F79BCC4396CBCDD94733C847D8EBC04
:102A400099FB3B3DFD60803C3018ECBBC409BFBC2A
:102A50000B775F3CDB5030BC1335873B940A77BC67
:102A600063E2C83CBF698E3BF5FC383C31BE083D93
:102A7000044FB33C18C466BCDD648C3C154682BC74
:102A8000FC172A3D07B41A3DAED9533CBB1D653C2B
:102A9000542C883C086E9ABB7A37AA3CC61D80BC71
:102AA000A5675CBCB6766EBC463565BC0D59033D6A
:102AB0009F349F3B3BFAC63C51876ABCEEA060BC8A
:102AC000BBA7913B9C834F3CBF760B3D1AB945BCDD
:102AD000E3AC1D3CDED6053DDB8CD13B5C5CCF3BE3
:102AE000A24446BB438205003624643CC0082CBC8B
:102AF00033ED023D03DA793CC18205806DE83EBCCE
:102B0000350175BC3884FD3B60E3833CF1EFC43C88
:102B100072AB24BBECA09E3C67706C3CB4BE773CAF
:102B2000E2C5463CA3AF65BC06D8143B6990AC3CFB
:102B30005382A03BCF8A403D028AAEBB4A4B82BC47
:102B4000AC5F933C106C403DD10C223DC72E9ABB2C
:102B50001EBA1DBCEDE28A3C36E66BBC5FC14EBCC2
:102B6000A945CA3C13A878BC438205004D6F533C6D
:102B7000C0C789BCC890F93CF050FE3B8595E63B48
:102B8000EB27163DCBC4C43A105B48BC91BBC2BC1A
:102B900038AC143BE83E9C3C30C47C3C5E5CDC3C86
:102BA000860B223D2AF6D93C017393BBFBD1B43C82
:102BB000F3F0273D5493C43A9E0143BCEBFB4D3CDC
:102BC000C22A7ABC2AC0493DAF48B1BC2DE071BCD5
:102BD000A3ED913B16EA773C1F9BD53B47890580C7
:102BE0003552C7BC79CC603C99427A3C6BB347BC48
:102BF00014C41DBC09B27BBCCED440BBFBF6303C38
:102C000063AB8ABA9526423C69FF043D34CC273D2C
:102C1000B39347217A77A73C864328BC438205803B
:102C20007616963CB5DA523C3628173C3A4500BC3D
:102C3000350F3ABC123F6CBC0C987FBC1249DEBB0E
:102C40004244A93C721FD63CD13AF6BBD46DBEBB00
:102C5000850DCB3C33C40500BA92FF3CC42877BC39
:102C6000B93D393CA6EAA0BA0DAE433C2586323DBB
:102C70005C33343D15747BBCEEB2273C83B57C3CA1
:102C80009539053D7E62D03CDF4265BCF97A4ABC8D
:102C90008656D7BBCF050D3B67C9513D7F725CBCE3
:102CA000B97663BC27D0673CFC72773C0314563C72
:102CB000CFFF203CF5832BBC22025ABC8C7E050042
:102CC00094A703BC50EE8B3C2DFF50BBB657DE3BA8
:102CD000B73B76BC52030D3D07B1453C3B15503C1C
:102CE000E19809BDFBC72DBC4D7465BCE5C20ABCAB
:102CF000458BD63C240765BCC60C84BC71E78F3B72
:102D0000F4E87DBC3DF8A33C438205806D6FF73B42
:102D10003EF4A83B94257D3C3259353CECA66E3CF4
:102D20005C9B2D3C10016ABCA377AE3C52B97ABCC7
:102D3000339420BCD8111E3DA7A2D33B11A3753CF0
:102D4000B7EDA13C57AB0F3D891D123D8662F0BC2B
:102D50005D15253B761E2D3CAB5F58BC16771ABB24
:102D60004543DA3CBAEB773C708905004382058025
:102D70007D1262BCDCC1863B471260BC35C4A93BF6
:102D80003B3D98BB6093833CA01233BC7D05FD396D
:102D9000DB6404B95737B33C93D0E1BC3210473CF5
:102DA0000F91C73C0EC4193D363D8E391054053D78
:102DB00017B7FB3C7DC58E3A9E90E1BB625A473CFB
:102DC00071E17BBC48F95C3C03934A3C63AB8EBC2D
:102DD000EF3999BC601742BCE8F019BC5824068052
:102DE0005C93BDBBC2EC353C4914583CE55633BC42
:102DF000A6599ABCDA15863C6ACA82BB5BF18FBBC6
:102E0000297F20BC217E0580815BB93C1278B6BB4E
:102E10008A7215BC98BBE93C4927E63BCE0C7ABCCC
:102E2000847D1F3DC9BF653CB003823CEC29D83C82
:102E3000DD2681BBB6C96D3C8F9180BCC5190A3DAA
:102E40001308F03C97F3833C690644BB9620A93CE9
:102E50007C29873C6B0F4FBCA55A193DC9C6743CF1
:102E60004760903C92145CBCACC63F3C9E2A663BDB
:102E70006611453CB0214E3CBD33B43C92B97FBC99
:102E80000DC9303D76C0183CB0076EBCE95B6B3CA9
:102E90001C0DF1BBCD4CAE3C05ACBF3C85715B3C21
:102EA00063F377BC65E076BCB90B80BCD491413A42
:102EB00007278A3B40786BBBBBA6813CD5346B3C73
:102EC000F4453EBC4119323C4933C93CF48F073CC0
:102ED00098B4513C3840ED3C73925D3CB71E9F3C2A
:102EE0002D7A8BBCABD64B3C6087833C119E12BBCA
:102EF000D1EF1F3AA1AD253C8C7E5E3CBBCA5BBBCB
:102F0000B31A5FBCC1078B3CE91B57BC2FE43BBC29
:102F10002E94493C4B0E3ABBAE739C3C1A455DBCAB
:102F200064183C3C1A9144BC6DB79C3C624D19BC82
:102F3000F9CCB03C8587433D8F8144BBBA996D3C49
:102F4000E8FC983CCC73C53CD9CC313DD07E1FBC4D
:102F50000330F13A508381BC1F735FBC6BB8AABBCE
:102F6000E1D2BE3C5404623CD3236B3C2D51333C34
:102F7000530710BC9359043DFF879CBC21091EBC1C
:102F8000A6DC35BC72880D3C928F4D3C955F90BBA2
:102F9000F349953AC247E73B4256D1BC6048303CC2
:102FA0001FEF373D95110E3D2EF7FB3B365F2B3C57
:102FB000F2A9013DEC21D73A95914A3B06536E3C6C
:102FC0009BFB67BC49C32E3DA5C89B3C06CF79BB84
:102FD0001DF407BC8076803CEAAE913C33C405808A
:102FE000419AD6BB5599463C369D753CBDEC39BCE3
:102FF0005401D639CAF1703CFBE626BBF3068C3C83
:103000001F7B093E88CB903B0E65833E94FF563B69
:10301000FC2F90BABA4F963EA226053DAD17B337A6
:103020000A8AA33EB3098E3157FCA4BD83589EBDC6
:1030300079180AA3891DDB19BA87001D19CD0EBEA8
:103040002B01F03E0A3CDA3D08982E3DA62A0ABE26
:10305000546FDC3C69FFE42996C74D3C75688BBB17
:10306000BD2863BD66D419BC3A9EF0A4C5EE32BD3E
:10307000E758E53C68E85DBB6356EA391B2AF3165E
:1030800070DD973DCB3F8B3EAF6F5CB4FD318C97CD
:10309000758C94BEAB6C21BCC7D649BED38E2AA713
:1030A0009A07121605A53D1AA4A1F894316F073EA0
:1030B000D1B32FBE7817203EF2C0891881BAC01A4A
:1030C000A105C7BC07C4BABD14BA1F3E21148C3C6D
:1030D0005E981EBBA9E55DBDE05A4D8620B120BEBD
:1030E000B2D193BD6F8C2934ACD20C2EA1CC14BEBE
:1030F0004EDFF2BD417AB1337AFAF498A41E7B3DDB
:103100006CA80F1F18B5033E9778BDA60E35C23EBA
:10311000B268C5BE574B463E7AB489BD4F4906AA30
:103120008D8E9DB407B4373BAE141A3D73F48B3DBE
:10313000895B3E3E9B831D3E462972BE9BDF8C27EA
:103140007058BF943198523DF51E61BD869A18BEE5
:103150003CD1A6BC2EF92521104A0A24891D49BE5E
:103160003B878ABEA9735F068EC68B881409CA9AEC
:10317000F8D2223E127D42BDD6D38FBCE7FD8CBE75
:103180006F1E553D7ED81ABE0655AD3D7B73CFBD33
:1031900024B1A7BD1543663EE014523E3AF5703C9B
:1031A000D6AC713E389A5B3D091636BE1F1E773E7F
:1031B00044367D3EE7103BBE2AC46DBE4215A037A3
:1031C0004E01453B98D81B3EE656693DD12D0FBDBB
:1031D000510288BDAACE83BE0FED1E3ED9840E17C4
:1031E000D111A4BD04F3B62E767B08BCF8E4BC185C
:1031F000F1824D3E54A79AB0ECC32CBC58A3B43B0B
:10320000365EEB3D258868AD7DCBA83CAA39BF3D35
:10321000D795B53B6E2ECB3DA97DE03CFCD2F22B81
:10322000DBE1413E8714F02CC6BCA03D85F30FBE08
:103230009B8CB3A9B23CC119421F96BB0FD62D3C43
:10324000EBF5773E69E438BD05C6B7BDB12B023D4D
:10325000E6DAC93D6DA5FBA665BAC23DBC67B6A45A
:10326000515160BDA77FC6BD97B102B9502C3ABD80
:1032700040BF32BD059B2A24307B2ABD545DA898EF
:103280000E007BBDB008353DBBFE28960EBEA523C3
:10329000EEE661BE7F470D3D9C346CBDC2F8E23066
:1032A00020DC5CA8FFDCBB1FD5E3DBA9314588BD72
:1032B000B32BAEBD26E4243E384320175AEC433CE2
:1032C000FD87FE3D8CE315BEEAC7373E18051B3E61
:1032D000CB3F091DC141FCBC7A3596ADF9B407BEA0
:1032E0007D633F3C14C11B3B8D26809455FC7CBE06
:1032F00029DA7BBDE2C6B123B4FF049401F8783D1E
:10330000EDBDE9A9425AF93D3BD70A29099F273E5D
:1033100073494EBE45C938BD1A250FBEC844E69D47
:10332000E071E38A38E26CBB78DC963D18ECF1BCC6
:10333000782A043D73DADA3D5E8027BE403571227B
:1033400053D6CE0603CED3BCB42C8CBD354F483DEE
:10335000AED40FBDD71FC1ADECAC3EB1A86BC6BD9E
:1033600035ED00BED6A5462DA5E38729BB70958314
:103370004C8FA23D039BE4BA9550CDBBDDF1CABC96
:1033800052868C3D11CA3B3D2F4AD13D2E75C7BC9C
:103390005C56A0BDAAB1653D4077913D1E1DBCBDE8
:1033A0002A59333EC302F9BD378D3CBDFCE482BDD2
:1033B00036BD123E471B37BEB9416BBEB0A7D6A77C
:1033C0006AA1F5B45AAEC93D1BEBAA3CEADF1E3D2B
:1033D000157AE6BBF43228BD96B5F83D594EC13595
:1033E000B652A73DCB79B20A81AFC8A0CD669AA0EC
:1033F0000C8C443E7BBEDC9BCC3419BD4A25043D7D
:10340000FDD4D73DB1BC032869AF2D3C8387883CF0
:103410005C028DBC6484F73CAD0FDD3D1D509B39D3
:10342000422C153D219E8D3CF3FA8DBCB0448DBDE0
:10343000C63CBC299CA882B669BA892221FCEBBB98
:10344000D9B9D63DD628EDBCD90B43BDA7524C3BCC
:10345000823A223EED4D102D3409A5BB073841A517
:1034600031B72DBDDF74413BFF45CFBA2D13B4BC3E
:10347000B24D9CBDBA56A9BAEE61D8BBC1CA0025EF
:10348000576FB9BDB3C26EBDAE5C3727D4F3352ECE
:10349000442B30BE0995FD3DFC5C1EBDC7BB803B87
:1034A000A775BC8A44C60F162E9DBFB09E11A4BD41
:1034B0004AA91CBD6062093E15A003A83749F0A5C2
:1034C0002C0A893BCC4729BE6DD30BBC16F7273E8F
:1034D00075BF03B07BD07A3DF5936CA9003C9E3D4F
:1034E000F836983D40E07A3A06A1992CBD16803C0A
:1034F00032245EBD5765901B486FEA3B3B99EF3C19
:10350000A933E53ADC85BD3D5E754CB20FF2EF3C68
:10351000F66142BDFB1BE9BD1AE728BE23E7071C85
:10352000F9F06C1D67DC13212496ED3DE2A9DE3D28
:103530009E2E30BDA4C151BD297598BDF7A1321191
:10354000E3DC842B4FBF663D80625FBDC5A8BF3DF5
:1035500063B4BDBC0FFCFBA8B2E984BAE821643DAA
:10356000B9E3B03DC6776523B0C764A220EDAF2AAA
:103570006688143E40722ABB839213BD90DB8EBDD9
:10358000D6B6363EAA23B03D25D8AC3D6109403DB4
:1035900007B00EBEB9E661BED0C93BBD199D373D2F
:1035A00027E1D7BC3220D2BDF98E04394E94E6BB58
:1035B000A7832F3DDAE79FBD44D060BE22F167228A
:1035C000DECB468A09B9573CAD3A9C3CB77C843D7A
:1035D000FC19B83D5E10963D99C155BD76B1A8B9AC
:1035E000D4C3A33D7ACA40B94A322190A47C062BA9
:1035F000931F053E2E228C2224FE9B3C947C5A3C39
:10360000DE339E3C403016BC11E09E3D7DAE41BE97
:10361000CEDBBD3C19A0763DC46729BE471961B910
:10362000E6E5673BF25CAF0A3A5262BE6FFA1C3EB7
:103630008C9431B915D1CB0A5337F29894072EBE2A
:10364000273002BE485AE53D4907D03DA02A0F3E2B
:103650006AA32ABCDAF2459ABF0B5EBD4D4A6237B7
:103660004B79B63D791D973CA069D0BB158B55BEF3
:103670000A8F3ABCA6CAF9BB1588D5BCF15C908705
:103680005ECB2E3EF555943DDE7C4595D40EB4B10F
:10369000C881CF3DA5BDF3BC6E96B43D699C023593
:1036A000850CB60F98B8213CDE2BEDB299ED123E99
:1036B00076A9CD3D2EC5563E56E89DBBDB7EDE97F6
:1036C00048A722BE639E873CBDA022BE22D5EBBD8B
:1036D000F283BDBA7072ED3D4B20D7A57E4FFCBD85
:1036E000B37F37BE39623795F0FF293CAE29BDBDA7
:1036F000B0A37CBEC961170E96F8853605FB203E47
:10370000CA3F15B476D4963CB4EEC0A3B1B0CE395E
:103710008F54B6BCCB4D5D3D456CD9BC72833B8D9F
:1037200096277E396C7B3027FAE1ED3D2766923D86
:103730007D08FA3C51D01A3E8C1619BE7ABD5CA5A4
:1037400083D39B20EC19973D6941DC3D813AD0BD84
:1037500057B61C3D4B722EA7F73A9E3C34A1FD3D57
:1037600090F548BB8CECB53BAD2EEB97A14BCE3B17
:103770002C01693E2DBD503E57DC88BB5F1096BDC5
:103780007436BD3DFEB3CABDEC2A973EC781573D96
:10379000864F08BD2708233D0B7FD5BD9AFCAF3C63
:1037A00081E2E33DBD5BDA3D60C2D93D2EBF963D6F
:1037B000899FBA3D7C91973E7E3C1B3C8D7D0CB928
:1037C000CDB601838050923C8569333E956774BEC7
:1037D000167D8C3DE7B443BD8310323E3FBABC98A2
:1037E000DF1652BD07C6418C061C72BBA2667A1258
:1037F000BD3FD5BDADF00C164BA721BED164493EEF
:103800003BC1E7BCD407563C16CA203EC763D8BDAF
:103810003CF4262DB653DABDB45034BE030CC5B605
:10382000B76DABBD48488D9BBBBAAABD587B7B3DED
:1038300078F03F3B7E0862A7A7F3893B48A04EBAC9
:103840003F6050BD5D26303EAB54B33D99691C3E90
:1038500024F6973D8B7858234054FDBC428622BB0A
:1038600059A7DB3B1ADDB33DA167B4BB39D80CBD0A
:10387000526A043DCC6CE7B869F3B7BD4783B42FF7
:10388000176FD83D32EF033D3769EAA88EDF0EBCD3
:10389000E8F2413CBE70863D8ED1FA3D348E013C4B
:1038A000E87EBFBB2EC0CF2D7C03B621CC41903D1E
:1038B0009C6DE63DDB78A23DCE9AF6A32E199BA126
:1038C000C8709DBDF4628A3C13E4EEBD9F11BEBB7F
:1038D0001A63E0382E93BF3DD641B6993BA03F3DD9
:1038E000555024BEC18F59BC562CC6AB94C576BE6C
:1038F000347063BE4A2D0D3CD3F9432F77DD0C3E67
:103900004562A019D98488BC19F3A32B7A6592BCAF
:10391000C39624BD59412E3D110484BCB9421A3BC3
:103920008D07912C59E97E85C26FD63D570E1B3C01
:10393000B5B463BA1587FC3D0B31EFBD1585B19366
:10394000A42701BBBD39973D3E9499BB8435EE3C1D
:10395000BE2C313D8197A6B14CDE47BBB0C0F73DD0
:1039600051EB233D9D91239CE869ACADA8CD1C8B08
:103970008509C23DC2DDD33D7F1D203DBE630CBD28
:10398000512304BDD01882BD3C7D4C3EEA440C3E20
:10399000FCD0BE3C9FA2A0BBF3302CBD60903A3D52
:1039A0008C54423DC6BC003D4D5B853D459E7BBD74
:1039B0005B01CF3C54D3A83ED81282BC2A2C8F3B4B
:1039C000CC43A6BA510B79BD84031E3EBB4E35BE17
:1039D00096D6303D805A88BDB1A8BB3D417339A70A
:1039E0002C20EFBC60A38D262B3914A971BFF11BCD
:1039F00090CCE2BD28FC4190489329BE4DF9353E5C
:103A00005F66CEBD9E40A1998B0EAD3D34F509BEDB
:103A100016591C393C36F4BD25152FBDA27ECBB0FE
:103A2000917C23BEDDAF9CB112DA5ABD5388D0BB66
:103A30004259AE249265271A3238549C0A0EB83B7C
:103A40001CA207BEA13AB33DFE6B3F3D7766F73D32
:103A50007B8EA7BABD9D5690394D80BD9AA479B38F
:103A600023B0F13DCB118DBD44CD6C1D63CD7EBD2A
:103A7000F1A8A93D1885E617C4540CBE3EAB0B3C1B
:103A80006714B33D2DA8CDBCBB37473CA6E29B9C39
:103A9000E1F323BDF6C246BD4A359B3D3CBE2DBC7D
:103AA000E7D5DF1CD09AA23BB7C6ABB90148143E9C
:103AB0000D01CB3D64A6D33C803B873AA740D3B3EE
:103AC0001B12F1BCB1DB39BDB05426BE00A6E7BD68
:103AD000D45274395EB9BA3C832D76B90EAE073C28
:103AE000F9BC0EBE8C0B8B25154D8DB0118000BE20
:103AF00056CD2BBEB219B49F018BB7A15C53FA3DD2
:103B00000436759BA3825E3D48C181B34F6117BDEA
:103B1000AF19A13CF7A88D3DDFDF62BCDBF71BBC12
:103B20007866DCB86D42912D96281A3D9F859EB926
:103B30001F226BBC571EE43DEFA431BD930FC41C84
:103B40001F5E4D34B469FC3C4E67553B78D319BDBC
:103B5000C7D2DC3D0D526CA5AF641E123FF49A3DF6
:103B60003C61833DF7CE3932FB41C5BB16105F2E59
:103B70004B1F823D72C0723EF4E240BB105608BD3E
:103B800095CBB1BC796D093C64F8123EA6809C3D92
:103B9000C8AFBCBD0703383D2FF6753D4B41113E04
:103BA0000FDFC83DC1EE1FBD6578D13D105086BD09
:103BB000C02DE8BCE4028B3E1ADD24BD17B2CFB69F
:103BC000F74A92BC7A0344BDCD19943DBD36ACBDD5
:103BD000E327193E03D14EBEC0EE763DF18712B603
:103BE000A42266BD9D5E6820E8E5833C0E762BB37B
:103BF000187201BE8984BC3560CF6DBE38DF293EA6
:103C0000B0339B3DD4BDD9169CA20F3E0416573E3F
:103C10004BCF15B07B5F4E3EF8E6133B1F5B239006
:103C20002CF73C3ECC3093BAD17B303D8E792F3D82
:103C30001D5A8A26DABBDBB46D04BE0F01DBDD3C06
:103C4000E87D3F3E38E389BD056824BDC589FF3C5A
:103C5000472C893D16191EA7ADF6A23C303AF1A6B5
:103C6000AFC114BD315B42BD3CD853BC795DEABDE8
:103C7000DF548D3E0D7195A9FAAD923DFFE44F9E44
:103C8000A6B716BDF6C9493EBAD7C29832FDD8BB11
:103C9000C7AEF5BDC222B93DA314923DE266A88E1F
:103CA000A180963864B79C04B997F70BF3E0D93B31
:103CB0006D5720BE46A2BBBB6DEAA1AFB20A1FADD5
:103CC000420EC43D09649FBC9FC1A33B3D4DBB3D1B
:103CD000664209A63E4A8BBEDDA8ACB32C1C1EBCB6
:103CE0003E64403D66ECB63AABA4642FEB4A29BE75
:103CF000E2E8CA3D19F40BAFF395EC93E7B784BD46
:103D0000763F0DA66B9C5FBD4277BB2E5DC7643EC0
:103D1000EDAF8B3DEFF09F3D89F7413DED32EBB2CA
:103D20001363D1A1AB06C5A58B730F3E753643BE99
:103D3000DFA175BD73C796BB4862A43D7F42DEAE6E
:103D4000184E86B8599F95BD9861A6BD6C094A3E2C
:103D5000E905E8BC774C4C9F60A785A2275831BE87
:103D6000B13708BCFE74570E71DECD99598F4B9553
:103D7000EE1B66BD154671BD4D81C3BCFEA6573D09
:103D8000CA91A93CE1CAB3BDB232A7BCC35988BD30
:103D90006F1991BD10BA203E8EDC0A3E2DB81CBEB4
:103DA000F7C344BEA56F3BBCC63229BC9EDDAEBD89
:103DB000F874833D9EBD4ABECCDCA13B54DDCE9F52
:103DC0009DD9BE2B992AC2BD5CE307BCF8C0DC3C80
:103DD000469B7BBD1FC7EBBD44F79A3ED6C8E32484
:103DE0003528A23D06221913A7BBE3A3A291219374
:103DF0003963843D542BCDBB77C642BC196EA7BB3B
:103E000087AE133E4A9DA1B74363613DC172013E37
:103E10007C44F2ABFB98073DE795A0BC461FC31757
:103E20005AD7273E6FB4D5AB20DA513DD1C8013EF9
:103E3000CBF68C24BBF0EA9F299AAE2751816FBD47
:103E40008FE0283E0F55B3BD3B41B4BD10DD9D3D15
:103E5000BA01773C76ABDCB9519B1DBC4699D3A522
:103E6000EDF32FBD0F7FF0BCADF5511BFD1A8F3D5B
:103E7000418C7A3E26489A99B9EC713D6F471DAD49
:103E800065D3EFBB7717F93DD94E939AA4B9523A4F
:103E90005D04E2BDCF41CA3DE4C9093BF4590A388B
:103EA0004009ABAC2CC2F324EB4E0EA98DDC74BCE4
:103EB000DCBF39BEA4AD7EBC2BD9250D084447BB61
:103EC000BAC91F3E9E94A1B833DAFC3C81C6AA3D14
:103ED00071C5ABA6936972BED85E1029CDCF563E90
:103EE000EB64C53D98852E17D3372AA49E211C3E2E
:103EF000091E5F3DD1980D963E2D8B30D3FAB1BD92
:103F0000D1B0F32B8786A5BDCD5F3DAB7336F03DB9
:103F10000E0298BC2F7B27BD737636BD5BE6C422AC
:103F200072441A2D90B30795468F813E31376EBE8D
:103F3000504712BE24CBA4BDB540A03D0EE8DCB670
:103F40002CC71C2A67A5E1BD0D9786BD003E8A3EA1
:103F50006884CC3B49E0141C3D009EA6F540D3BCD0
:103F6000DA19C93C5C5FBF840834D59150121A2518
:103F70008A4B40BD36B33DBD851EEDBBE9D87F3DC4
:103F80004F54363BEC8224BEB5C1A2BD746F20BE37
:103F90001C0D3A3D8A2165BCDF35DA3DE4730DBE68
:103FA0002C6F19BED2529ABC827CBBBAD6685CBE5A
:103FB00003B349BD8F4418BE43D6B2BD0EFADA91A1
:103FC000024DBF143EA9F1BCE7CFFDBC06EF4BBCD0
:103FD0002BD32FBDDF2CC6BD6F6A513E3BB156B40B
:103FE00050A99E3E64EFF037DD0225115871363638
:103FF00024F984BD516E1A9175C3A33C051B1CBCEA
:104000003F9CA13DD00CCD25B78B793C1EF7FB3DE5
:10401000E28B1F2CAF04803DEF8394BD698F1EB7E8
:10402000E947BF3DD1D046A9528DA53D81B2263D7D
:10403000234E7BA8720B6C9F990602A580E506BEF5
:104040000AE06A3DFA4AA9BDF4DAB2BD9FF3043D25
:104050002E22033D1D55073B43DAF73BEC294C92DA
:10406000673F3ABDCA2D55BC85C94D2A9083193D7D
:104070004FAA213ED19CED31229DF73CA0E75B3554
:10408000B5FFC7BC44742F3D2BC03A18CD3601B0E4
:104090007411513D67EA1D3D3AA0AB3D8E0E2B9742
:1040A00013E785BA2577121558863A29523C4EBD3A
:1040B000A3603ABE985A1F3C3663FE1C3D8730A56C
:1040C000ED87D43C5DC3EDBC3B7AC8BB07EEB1BC09
:1040D0006BCA383B3E0140BECF65CAB499D0283E7A
:1040E000C3AB083D01C313387F9ADF34B4345D3E5F
:1040F0004A73EB3CDA185C9E7D4D89AA7AB5B1BD56
:1041000035EED5AE71B836BD4EB2012F238E903D3F
:104110002A67FD3C0F9B583D7E80B3BD84A0F9B655
:10412000F5B34C9757DAB92FEE4CCB3C970D2ABE1E
:1041300078B2F8BC48B29EBD0825AD3D416202325E
:104140004F722A195974D5BDE85583BDD20EC43DAE
:1041500010F91FBCCE9A1C288D99D234021A203E29
:10416000FAB59C3D90AAF8A30E1F553AB37565B5F4
:10417000AD868ABD526506BE18271FBC77465BBD5B
:104180000F8502BDD1CB40BECBC1CBBD9A28E7BDC8
:104190002576BD3D5D5F4EBD1B2A843DC4B1CCBDBF
:1041A000B37DC3BD86E80D3CA234223CC67212BE6C
:1041B000A62D18BEEE1BBFBD743877BD8541071410
:1041C000CDFC5012620AEABDCA5D23BDCD552E3E1C
:1041D00092F058BD47F01B3DB679143D9CA5A52B28
:1041E00000FFC13D5A77FB264EB14A8DD46C0C0EB0
:1041F0001DE561BDDF32C229D0AF31BD0191AE3ABC
:10420000114C97BC22289C125F3E0EBDEB9AF73CE6
:1042100084D015B82504A73DAD31963C3F669B1D63
:1042200034353F3C5058CD097125BE3D654FA13C0A
:1042300085E02F345F19CFB6512C529B088FDE3D9D
:10424000FB75E33C42ADB43CFAFB3C3D7068213D5C
:1042500026AE483C5F5F0EBC36DCC73AD5119320D2
:1042600003414E3D254FD7BC9914C49E7FF0E63BD9
:1042700073EB553DD97121A3F823923DBE944D2E89
:104280002DD65ABD36BFD73CE483B0A26425D8B939
:10429000ACC08B3D11C9F83C9100F3BCC7174BB0C3
:1042A00037565F11B033688FD4312B331526923DCA
:1042B000541B9B3A40A4183DA00260A5D54110298B
:1042C000EFC4873DDBE3D0BC17DEFD3C5E0E033C54
:1042D00070B87935EF0C3E3DA645FD9A2B71BB3B7E
:1042E0007980743DE0E34B3A3C6FD01EA156A43C6C
:1042F000739FBA3B4D742F3892DFABBAC5794A3DF4
:104300007A4B01BB6A608E3CC8C88E380CA82FBDA2
:1043100044116D3D37D421BDA796503D24D56D1372
:10432000CDF9743901E292294A3383BD323CCE3D46
:1043300049B7163DC934663C552F9EBC70EEEB2B39
:104340003DE899B6A5FB813D1E0D8B3D26E269BC7B
:104350000AE7823C772819BC5867C6097DA7353C17
:10436000DF3F6C3D5A3CB2A570A1E4B8F2BD44B544
:1043700095560F3EA7EAC83DE5908F3B293CEC3BA4
:10438000DD1B0C3D025C6F3DAEB784BDB023BE3B70
:10439000B38A763C9F25A6BDF2DD573DEB4E283E05
:1043A00069B816BD33CF903D1137D03C1859FC3D4C
:1043B000153480BC678EF13DC9C0063DDDAE96392F
:1043C0008956FD0F4B2C6A3D9B64F63C3BD2D73D92
:1043D0007E91013EE34163BC2BFB96BCC3F961A017
:1043E0002855DA3CDF24431AC6D201395797519633
:1043F00062B78CBDC8F78D8AF98E1C3ED9D065B9DD
:104400008EDAC43CDA1392BAD96B3C3DAFC78BBC91
:10441000A3B17E28ABAF903DA1D6153C29DDBDAD43
:104420007668A43BE9A7009F6BE0583DFCB06EBBEB
:10443000674B9AB691BFA238CE57A234CA326B3DB1
:10444000DDD48E3D550CC13D0C88933C9DD1CF3CB5
:10445000CEDD3FBDA78CE2AB9BE18FBDA7FE91B641
:104460009008433D35DCEEBDF8428AA6102A31BDE6
:10447000E116AE3ABF5C4D1F39CA213D1AE36EB357
:104480008E538ABC73B26B3DAB7F080634DDD28994
:10449000745529BC61FB4B3D6D38D6BDF2B94A223B
:1044A00032DA7A18167A2FA8EBC472B72C27E13DBE
:1044B0004ECE71BD0E356F3D0AC4D51B0A020439BC
:1044C000F83A64BDD2418DBB1D0379BCB9AC053D42
:1044D0008B079787A0D8A73D2E6193361EFCAEBAF6
:1044E000B6E7F13C44F6AEBB380A030B86FA563CFD
:1044F000EE15EF3C1106B092BFC0D82EE7534E3DEB
:104500005891F93938C9F73C0667309F28FDD03BF0
:10451000EFCB5A3D680498BC250D953DEF9D32BA0E
:10452000A9539FA31134BFB43250ACBD41097B3DA8
:104530003DEDE33C2DA5883D49B3C8BD3E8815300F
:104540003517062D7D24433DBC328C3DAC0A1BBD86
:1045500061CB00BC5A6C6B1A7164CBB65DE381BC55
:104560002987C63CC459473841D6CC1E5F115C230D
:10457000E705903D98DC8C3D45C03A3C679B30BDDB
:10458000BA3E223D2049D8BC344B51BD2F99E3BCE3
:104590003378303D3A3C51BDD551DB3DBC739D3D38
:1045A0008FCE023DDF31673DA59A4A3D25E05E3C56
:1045B000BFE3083D9D90BC3D1194C3BA666F6D3555
:1045C00058A5C03BEE095A3D3DB2B83C071E1BBB87
:1045D00076012B3D583B333BADA167BDC5DCE9A956
:1045E00002BD17BDBE5A7BB458EC10BCA620FE33EA
:1045F000237CA6BD7D2891A3942F3A3DFC58139EA1
:1046000037DE04BDC2B89DB1F896FC3CF5F9E13C3B
:10461000803C6CABBF6A953C4769973DD31251A271
:10462000C158623DC49CF4ADA5CDE93C3E28C6BC52
:10463000EED283B6CE8D8AB2956B3A9A17D87C3D6E
:10464000C7A9673DF229D53CBF8865BCB365FDBCF1
:10465000B602DFBCABF1348B8F53A4BDCF1990B33E
:104660000C015B3DB172D6BA30A092347CB734BD38
:10467000F0ADBD3C14B078A1C7E2FE3C02954C22DF
:104680004FC34BBD30C70E3DD4DB38B90A6C1F2C6D
:10469000FF5445BD71AC703CA73C5DBD88F25C9A8F
:1046A00056BC178BE86859A9E197B2989BB8F03CC3
:1046B000CEB80ABD1AD43F3DF27A15B2E380033A70
:1046C000383E053C2EC3C3B9451DC8BD8F985F3B1E
:1046D00011E687AF8F297E3DFAD6C731829EC63D4F
:1046E000779B913D2424202AD65803B8E850483DB2
:1046F000705AD43DBBE94EABC1DE75B5B044213D27
:10470000A30D87B58FA3123D29D2E605F1921EBDF8
:104710000896CF3DBE9671BD613E853DBE8B14A609
:10472000C329811A239898A30129D4BA793F323C2E
:1047300016960D3A9AB388BC6D7E36BDC14A6F0D90
:1047400064E9958A5696D83CBED8983D1591033CAD
:1047500061B05539F6C4A737FB2956BAC3204DBD01
:1047600029600C3C09A90186B930F6ACC9E4CD3802
:104770002FDBBB3D5B7BFA3BA24F0F3C87B4E6BC13
:104780002A32FD3C28120E3D15FB10BD09F5FA3CFE
:104790006E6AEA3C35A8EBBD38EA843C6106793D97
:1047A0009E2A9A3DFC7CC73C210F2F3C2654323D6B
:1047B0001B8FB93D23E3DB3D2F712A3D18230323D3
:1047C000717BD1B491EF9B3DE222DE3C66C6533C47
:1047D000E67C423D0E7B18BC6FEEAC3BAA01999D76
:1047E000A83A89BC809DE23635FB7A953D9EFFB4A0
:1047F000702703BD570C9DB048A2153D0ED21B304B
:104800001E4E6ABDEB20B32C2435A6BD6AB0CA3D4E
:104810001A836F3BD0568EBE3A0FC7BDC417A13C5A
:10482000DD6004BE0CF9FB32B28BAF3DE1C511BEB9
:104830003711DBB75BF3BF283899B73917CFFEBA0A
:1048400033F592BE917D9ABDBA8FE13CA707CF3C6C
:10485000F63F823DBBE79E2034F5CCBDC8E425354C
:104860003CAD1D3D87674A3E160F179D966D7F3DF7
:104870006A884B3E9DD24EBC065657BE9083CBAC49
:10488000A55266BD265518BE3C4CE33B59EA219E15
:1048900084FFA6BC3F44B93DEA0C063EFABD82390E
:1048A00073B8A8A7715E96B016EEB734FAAFB0BD74
:1048B0008270833DF09F10BE60D974A76BC856A864
:1048C00022D6833DEA338D3E9CD40EBDFF1B883D2E
:1048D000FA4F1027DB7612BE309EDBB7D2A4973D8D
:1048E0007125A1BB6F7A282FD19603AA14101F3E01
:1048F00005716BBD231FFC374DC7409E9C4F66BDA5
:10490000B4C6C7B78F3EE9BDF44DC1A61C5B02BE5D
:1049100066595EBD10CB453E1E47773EB1103CB296
:10492000988D163C226AB2A91405493E100F11BE9B
:1049300013EA4EBE822895BDA600DB3D88076FA90D
:1049400058909734622FA83D22263CBD168B11BC8F
:104950006FDC543DC6EA70A7840790BA817372BDBC
:10496000C05D4E3D0A9E9BA91147E53A50FDF734C4
:104970008E934DBD1C94C2BD2DB4D5BB57595B3D24
:104980001CC102BBFB4A1DBE600E64BA6E5EE53DF3
:1049900035373EBD80CF8D3E82691C3E7D8EA4BAE8
:1049A000110C023D9E090E3DE58338BD60891ABD9C
:1049B0008753E93D1034D0BDB875BF3D946623B52B
:1049C000676704AF2B95A03D938FA63BB2507EBD89
:1049D0004148D9BDF2A054BD30534E3E57B279394B
:1049E000591971BD583106AB936410B697DCDC27BA
:1049F000DDEDB23D9A1F17B1DD16083D5A3DFF3D72
:104A00008C51D53CF2021BA6790C88BD2470AE3DBA
:104A1000583507B9116E35BE104078BB316D9B3BE0
:104A20003092C83BAE899BB428FDD13C0B71E7BDE9
:104A30001BB14322336A88AEDA469723D512903DE4
:104A40001D6A32BE9CAE58BD6E6943BDE7F95E3E3D
:104A50007E25CBBC6DD9982CAFD929BD58F4333BFA
:104A6000F2A9693D43125F3E66E9673557864A3DC4
:104A70009416E43D180D013A94B829BE4A9532BA0D
:104A80006E9A83BD1A6B59BD4996CBA4D3FEB8313B
:104A9000188E4DBD8DE2563EDF67433D073DC62E65
:104AA000FE47B4B22FB76134528E3F974CBE343DAF
:104AB00004E0D23D3DC111BE1C8A8B2A68A97EA7A5
:104AC0004A4BD83D5214753E52B1E73C03C45C3E9C
:104AD0000DD50ABBF03B48BED1FA132A0B18CC3DCA
:104AE0004A1829BDE11A84A41F4DB4BB9A486C3DF5
:104AF0000112AB3CA5E3BB25A1F917272F40EEBC63
:104B000039EC932A8D8400BEB79D86A6742A99BD80
:104B10004C5A593C66BD5C3E8F61433E40C929AB4F
:104B2000E1175322BA9437B5DF8C253E8B940EBE25
:104B3000696B76BE6F43A9BD02B02A3EB138D62953
:104B4000708BC8324B14403D066A87BC144703BDC6
:104B5000470F8F3DC9FBBBA7A9C09AA05CAFD0BDD2
:104B6000A7FAAC3D380A51AB7FDEBE3C7368062E17
:104B70009401013C1A0955BDED43BEBCEE73253EC0
:104B800001A1A1BC0DD094BC718F98BDFEFF423E27
:104B9000B162D8BCE5DA783ED730903D0C2A823D30
:104BA000123F31BDFEDFF83C1DD821BB6F75E6BD5D
:104BB000B4BE8B3DB358A7BDDEE53E3D4C025BB0B5
:104BC000BC728E24AFAE103DF2626E3CA2BB513D72
:104BD0009A80A3BDF774F5BB2CC0303E9A8A7FA3A0
:104BE00015B926BDD05CDBBB2D5D9CBBA6D4942043
:104BF0003A528ABDE13F2630E64CA4BD3531003E35
:104C0000498EF3BB90059DBCE5D30BBEDAFC0E3E8E
:104C1000F275C13932066ABD893615BB8FDDE1BB3D
:104C20001D01A5BBC8F01FA953CFF93D4533813DF8
:104C3000C631C8A187EBA8388E271A2D156A42BD48
:104C4000134898BD3ABA203C450FA9BD6BDFDA3D49
:104C5000E75AB6BD76D13D3CB35F95BD86ECB5B69F
:104C60000C8A3F3CDD14E13D2338AEB0DCD7893CF3
:104C70002A01923D2353B6198D8E8CBD0D87E82DE8
:104C80007B089EBD794895BC0F80E0B674168C34C5
:104C9000C60090BD2373A93D2A49093CD0D9C7B8A5
:104CA00052E567BB0FFC27291B3DA5BA0ED8B9BB3F
:104CB0009CDBC63DB44F38BD4442222427C49CB778
:104CC000390FA53D8A41E53D3838A43C84ECA53D2B
:104CD00032F4E6B2275E51BEFC5C75AB00E3F83DF2
:104CE0006AB1CA3B9FF321212712C2241B844B3D8A
:104CF000DC205B3D95CCC0282C205F21C2751B3C7D
:104D00001324BA378216CDBD7D81DBAB0A82A0BDEC
:104D100009B9C1BCEF82373ED425253EC72C18AF58
:104D2000BFC26BB5F9FBAAAB81121F3EF823C13D90
:104D3000F51F1ABEE4D8D0BD32F8053E2CC817AD19
:104D4000C34088B17C4836BD42C7AA3C346BC1BC65
:104D50000EB7533DA7831533D8E9142D4D85763C06
:104D6000A3CB78BBBD3E542F84CF14A9EAA0C1BA0F
:104D7000081C81BD1C1F303D1EA2A7BC36E9153E94
:104D80009BDD3ABD1E4612BD48DD19BDACF6543E52
:104D900068DAC7BC56F35D3E11C1BD3D44BC093E57
:104DA000D3FC4CBD588B5C3D3982093D0B17353D1A
:104DB0006706173A69BACFBC68068EBB78DAF01D71
:104DC000149FAF2B41324A3DFFDAA03CCD551C3D2C
:104DD000310C5B3BB637E3BC37029F3D5EE734BC2A
:104DE000FF5B6CBD910958A88B79A6B05B2381301D
:104DF00021C36BBD41A4A0A3EBCFE9BD2FF53DBC02
:104E00002E61CF3DD8274FBB976B323E32D8D33C73
:104E1000482A873B288B8CBB609F0DBE3E35161DF4
:104E200014DB893D5E107734BE2677BE1AF3B83D99
:104E30009A9602B178F263BC3D3BB1A7BC8587BDB1
:104E40003A0B64BD7B5F993DD59EAA3C7956923D55
:104E50005C83C33C45D5F8B566D1E83D9DC69F3B14
:104E600018A25F3EF86A2A3E9FB58E276E35153C24
:104E700010D43D3D63CD833BC27F0D3D63624DA1A8
:104E8000B7D3773E57F4C23DFBBDE72C548270ACDC
:104E9000D54CF8BD0C30413B9F72BB3D8925B2BA61
:104EA00034549A2C47EC842E30E19031D9C68C3D95
:104EB00091775A3CF0A56C3DDCB25CA84FA7BD3C95
:104EC0007D1D06BD3797993DD06F91BEA8C20FBE1C
:104ED00026DC35B40675B9BB37E5BA39A63D3CBE0C
:104EE000D091B2BDC9CBD819C0BB7BA7E599D53D40
:104EF00077FEA7BD99C2ABB07D5A3BB58745F03D63
:104F00000C543BACE064A9BC761DBB9E156F533EB0
:104F100087BC4A3ECB33563E84C31F3EE542869F44
:104F20006D321F313B9CC9358FF73F3D874548BDEA
:104F3000426C333EFCA488BD7C550FBED456173B53
:104F40003B13C3103D5D34BCE4B292BA5F7A933C2C
:104F50004296633D2ED96937295AAA1BC4F4283DCD
:104F6000214D2EBD1F0D5938AB442F15CB3B01BC35
:104F70000E38A6BCCC8798BCBBD2A93BAA8FF4BB89
:104F8000F3A6E43D32810FBE574415BE6BC6373DD4
:104F90008C71333C9E0B0F3EB3F516BE8574D23D2B
:104FA000436CB5BC504E9D3D7025423E28C1333DFB
:104FB00007FF103EC0BB493E13D541BE8D96B7B129
:104FC000B8B349315DF419BDA00C4C3E231624BE84
:104FD000B73AA83CE21EDE3B5948503E8493869681
:104FE0008957ABBD29D02D3C93E11CA17D48ADA5CF
:104FF00043A587BD07D8DBAC4FDD4DBE47EDA43DD3
:10500000063D163D4059CBB07BDE1E3EF8B689BD4D
:105010009471C93CDA92EEBDB59925BE653087A87A
:10502000D1D1A23D0A3272118C5408BE060DF33D57
:10503000B62CCEB3E2022B8E0FA1F7233461CB3D09
:10504000EAA4D2BD44747B3C1C4E203DAA6811BE2C
:10505000ACA144BCD17020A0EA36D33D9B2B5AA80A
:1050600030500C3E0D0B213E1B99403B786ADBBB58
:10507000FFBF58BD306DC0BCE1D542BCD8E9B534E6
:10508000EDB8213EBA96213D05EA2E92AE57CDB33A
:105090000975D5BDA935E1BDC8F71DBDA204E03530
:1050A00036EA1B2805DE90198B3D6D3B8AAF3D3DEE
:1050B000E47BA2BC1717843D14494734BA0E46A2BC
:1050C000154823BD6044913DE282A7BDFE4607BE60
:1050D000132106B1F7C7123D9DB336B35CA8D3BD0B
:1050E0000B7D13BE18638A19213F48B54A3C143E14
:1050F000E17193BEAB146BB67C4E242347AE863D64
:105100007ABF3CB8E670F1BB638939AE9095C13D7A
:1051100013BF363E0AC28C3D48570D3E55C5063179
:105120008836892DB89EBC3BA8C0323E94B6473D18
:1051300055477A3D05130E3D4C69F5BDA5A236AB2A
:1051400095E7501E63B59FBD85B78B3C067CC63C7A
:105150003238893D62DEF2B648E3333B13814D3D80
:105160002D0CE83C8D72942DC85BB291DE59C02D98
:10517000AD2FB2BDB9E98B3CDF33D23B1A95B4BD3C
:105180008CBBB53D633DDEBC40230F3D50635B3EB1
:105190003868E03D507CE63DA3540EBEBB154E3E44
:1051A0009792DF3CF725F33D2245103E4F85073EA1
:1051B0001D4E233E50860E3E634133BEE668EABC78
:1051C0001BE512A87C2A9BBD743F0B3E29D106BE6D
:1051D000B34478BC967F2DBD8DDF323EBCFBD72F0C
:1051E00093695ABD2AAFB71407DB2B155553F5AF9A
:1051F000B47305BD3C6A7FB12E0743BE07DAF63DA6
:105200002867BEBD0DCE492222731C3EB3F33CBEBF
:10521000D20F9A3C0BFB9EBD7D60E6BD64A6BF3CF1
:10522000B8A7F83DD1AE79B37928CDBD95159F3D8E
:105230001733861C6DFE97B14F44A8BC866032BC04
:105240008B5338BE0443B33D48D6483E91E88EBEEA
:105250003CEF033EF0B29B198D63F83DBCDD4F92ED
:105260007CA78A3DCDA0753D7E2F57BCE7E0943CDE
:105270000BBA63BD7489473CF40C463D1312003CE5
:1052800087EDED3DDC6705BDA5DCF4ABD51404ADC1
:10529000522E06BE29A358BE8D3F29BDE03817BC4B
:1052A0005AC3C827228E94334756B7ABA20E393E55
:1052B00058D579BCA1CD013E488E2FAE44AEA4375F
:1052C000380791BE44D5F33C048143BE1ECF31BEA6
:1052D0008F4490B76AA8973D7D97F63B77C51CBE73
:1052E000C1AA7DBEFE1F3E31E3862EA32C5A043E8A
:1052F00029B325BE9F100C9514719CA03C0B483C13
:105300009A9955344B49113D9523532C50F4A53DA2
:10531000FB8CC03D5E4E66BDAA67F03D003B573C2E
:10532000D3C88D1666CA75A5BA348DBDDC297B3EFF
:105330006D8ED33DD7A1363D23BBD8BD0859A4B748
:10534000988AA634A8E568BD49E7F83DFA3A80BED8
:10535000F4C6A639C7CD00B3425E07BA5846043E2C
:10536000043BA7BD2B2BCEB21FF5FABB7364D7BC91
:1053700087DAA8BD4DA3803B616DAB3C76D94EBEAC
:105380008696223EABBE25BC725BBEBCAF164B3EC2
:105390007B0042BD21A53EBD7A7D07BEAC7D953E1A
:1053A0009DBA293E4532303E8313103E8D3AB73DBB
:1053B000A48D2F3E141E033E844C8BBD3CCD21A3F7
:1053C000FB48030F2D502CBD3D9D8B3D35AF8BBE53
:1053D000E957AC3DFB7B1DBE1B36043DD7009587CE
:1053E000B45086BE873B84B040964234482F4AB7BB
:1053F00057E134BDF420C7BC6B4B55BE4FBC0A3ED1
:10540000AB778D3C1FF93AAEBFB9B1BC112C3FBB95
:1054100068842A3CB6C447BCA52CC3BB5F8E02BDC2
:10542000B46451BCD4199A3C545BFE3B3E9492BB8D
:10543000394B1FBB58050D3DAED504BDAED58D38DB
:1054400085CB9EBBEDA17CBC3AFCE63AF01DFA3A56
:105450000D97CC3CB10F1BAE4A79383C6654FC3CEE
:10546000D7251B3C68086FBBE54CBFBCE7C69CBC9E
:1054700063DB43BC4FDFA2BC872E6F3C3166E83C48
:105480000A4EE13C8B7A44BC7824F8BC0A3C09BD46
:10549000E63D70BC5846FDBC0078063BEB4FE83C4F
:1054A000F8A50A3DA8890D3DAB8AFBBCB317313C7A
:1054B0009B37273C76A031BCAD89B13CE78706BD60
:1054C000C4FC47BBB0BE44BC4A24BB3BA76BE33A19
:1054D000D7DFA7BC911D51BCFA1CAC3C2BFDA13CF5
:1054E0000867103C449DB0AB0384083DCAE117BC7B
:1054F000C0E785BA2922C7BC74C3FCBC5BAF103CB3
:10550000281C0EBD35E9D53C65397D3C0B8BF4BBC1
:105510006D8EC3BB2C1F723C4CE313BDBF2FE2BC8E
:10552000CF67E4BC2615B0BCBCE9153C64DE06BB05
:1055300069CE1FBB9BEB66BC7F4D82BC9BEEA82B4C
:1055400073AEB8B1CBE193BB4AD4A73C6639A4BAD9
:105550001198C4BC9F37F1BC68B1FF3C035EE5BC49
:1055600025DC9B3A0950DEBC61CBF2B6F584F03CF9
:10557000C544E6BBEBD383BC25AAD4BA5F69483CDB
:1055800010E643BCA55235BCDDD37ABA6B3D73BC83
:105590002C6743BCC6424B3C9E89DE3B50CF84BC4B
:1055A0008A538EBC7F8E2CBC73B9363C9D87D1BC90
:1055B000C1AF6ABB4E3E79BB6807083BC8CDC1BCD2
:1055C000A7AA9BBC65935B3C31A5173D5B1C223CA5
:1055D00018738C3BC98C923953176D3CA536703CBF
:1055E000C2A3B13A67E3E2BCDA3B0C3D0EBD943C8A
:1055F0004235E7BA0403CDBC2B02DCBBFEC9283C14
:10560000A07D3CBCF956382E7A47BDBCF1B378BCBE
:105610006ACAA3BC7D8BCFBC13AF38BC337A933C32
:10562000EE8D95BC6B240DBD7A2894BCC7CF9F3CF2
:10563000450F9BAADC690BBD6ABA053DD5451FBC69
:105640009A688EB986177EBCB8BE9F3A0248B2BC33
:105650005A46983CBA76BA3CE964E2BCFB0C0BBDF6
:105660008A22B03C98F8D6BB53BDAABCB898C7BC38
:10567000D034A7BB6993AC2BE80A813B6967903CA7
:105680009447063C272891BC4D690CBDEC93023D24
:105690005459A43ACF2F9FBC4FAD893BE87BF7BC50
:1056A0001AC3FABC36A08B3C9BA6083D3E80143B37
:1056B00083CFB73C5D21F03CAAADBD3C405808BD4E
:1056C0009EEA973A2E208BBCE54504BBA636ED3A00
:1056D0004DAB643C245B90BC7C89003DDA8F073C79
:1056E00085913DBCB1D786BC5B58F8BC3FF1263CE8
:1056F000842F463CF8CB013D024BCF3CEE2285BBCC
:105700003717033D2B02ADBCE815B0BC6724B53B91
:105710001B495E3B5B65033B2FF3883CD33829BCB8
:10572000D518AEAAF08301BD281235BCA46DA9BC62
:10573000A28B81BC4187EFBB0FDE74BC0B80C33CE6
:10574000056DEABC285F38BC45FA8FBC94A19DBCAE
:105750000C1B51BCFFB7E6BCB429B93CE08EFC3A47
:10576000E19690BCDF55C9BCFB1BBE3CA5D5F53C02
:10577000CAD2083C1D568ABB5355633C2D99C8BC00
:10578000DBEF1B3D8E5D0BBC9F22A53C7A1B80BCD2
:10579000B750643AE8C399BBF16C19BB8724EFBCDE
:1057A00096B4423C4770A6BC8F20B3BC852D99BCF3
:1057B0008C3997BC87DFC3BB90AF86BCC83185BC32
:1057C000B33CCB3CC060DC3C0B890B3DEB6679BB4A
:1057D0005FA8903C6860C9BBBB81F13881B2C3BC93
:1057E000F33791BC754CEA3CE688A93C65B503BB30
:1057F00024F80F3C158AD83CD5B542BC40CB983C28
:10580000291415BDB077A43C36E217BC8201F3B968
:1058100002E1243CE1F268BCA0AECDBB277E873C10
:10582000F80E53BC1D3D00BDA39CC8BCCA9BDBBC8D
:10583000CA1E8BAB3861EDBC055CF03CD0772E39CD
:10584000E930CBBC7A6E3E3C156CDDBCEBC5BCBC14
:105850001E00D73C6915CFBCA5523139B3340A3D7F
:10586000F0D19D3B6950F1BCA796893C9A24E0BBDE
:10587000AB4C373C580FAF3C829DE8BA47DE282B33
:10588000479ECCBC00BE38BC073B043D82EDF8BC53
:10589000453950BB3AFDD6BC4715EA3B7A070CBDEB
:1058A0002C8B0CBD86560E3D4DA01DAE3C6B303C86
:1058B0009623983AB9B4903C5AEB033D9822F73CB2
:1058C00027E880BC7A56FCBCB3EFA7BC84E503BDD7
:1058D0009647B83C57A12E3C12CC013DE192993B32
:1058E000AE91B0BC951A7B2F36B0F0BCC70489BB13
:1058F0005FDE15BB2526D7BC9E1E16BD0603A83C41
:105900004C94F83C3EF6D6BCC316D33CB13A86BAAA
:10591000C76E93BC73B2B43CDE70933C549FD9BC49
:105920005843BA3CCAD1163C91AC10BCCDF35DBC17
:1059300014FAD0BC88452DBB4A0051B948A5AFBC6C
:1059400062C8682E689212BC6675F93C2D9380BCC3
:10595000556CC73CD773DABC5A07FCBC7BD62CBB52
:10596000CE734CBC254F87ACC2A82DAA258ED6BCC1
:1059700023C6EF3A0EC80A3D3CD9DDBA5D6B9D3CAB
:105980006C6BAEBC6A3435BCF057353D1AFC13BBAA
:10599000FD15B83C9C1CF7BB2EABDCBC3F56CCBC09
:1059A000DD952D3C2D021D3B2E214ABC10BDABBC0C
:1059B00023AE82BC3CFC373D3EB79BBC5924853CA2
:1059C00087E8E53C8555C63CF99AAFBB768B0DBDA3
:1059D000DC2673BBB249C3BB77479ABB4E8E923C61
:1059E000471042BA29C7B626D1E8FB3CB7732A3C18
:1059F0006DEF033CE4F4B5BC356CA03B12CF4E3CDC
:105A0000F0A8D2BD9940F92616F378BD1D54223E68
:105A10003037D03BEA3331BED44BD7BDA75091BB12
:105A20000A715CBDF08971A4A9FAF33DF79AF2BD41
:105A3000CDEC0B21760B29BC9BF9D02BC3386FBD65
:105A400023D877BE4B3FBFBD894DB2BD0F9F353EBA
:105A50007E80E9BC203B6A36CCA756BDE8A19FB644
:105A6000BBF951BD57FB783DAA6822A5D84440BA7E
:105A70003AE7CF3DC2CA8D18B9F3C4BD5DE690B513
:105A8000FB7818BD5EC703BE9974ABB80D0EAB2C86
:105A9000203A9EBCE2AF293D0379243EBA7F633CA5
:105AA000F5B9B8382BEF2B23773D889A763B98BD14
:105AB000DE37E3BC346F12BE1DF0F038CFC9BE39FB
:105AC000FD87003E05DAF2BD8D7163BC43B48A3DAB
:105AD000795711AF5EF57ABDBC150599B8625A3E8B
