:0200000470107A
:1000000053544D32000000000000000000000000CA
:1000100000000000000000000000000000000000E0
:1000200000000000000000000000000000000000D0
:1000300000000000000000000000000000000000C0
:1000400000000000000000000000000000000000B0
:1000500000000000000000000000000000000000A0
:10006000000000003DB70A0300030200E011080091
:100070005516023400000000FFFFFFFF00000000E3
:100080000000000000000080A0010000000000004F
:100090000000000000000000000000000000000060
:1000A0005354FFFFA00100003CA890CE5800B59E1D
:1000B0001DF0F2731ACCF8F8E23A835322383487F1
:1000C00099D51079CE0CD362F98F96903C7BB365AD
:1000D000781A6C1638C27C12DE48285B4B0EAA8256
:1000E000EE2250B6A62DCA2E26D2DAC9AE6ADFE7B6
:1000F00012C3D72E194BB1432EAC2646C12943C19A
:100100003BADED5E60E035120E56F630824C2E4F60
:1001100002F3895E8ED8617955387ABF35FDDD11DD
:1001200096D48F9A934C5A2ED8ABA533737F1FA3C6
:10013000DA784861FE206FEF0A3CA82E661BFC901F
:100140002F8ADDDFF5D4C9B72CA4732B608D7CB367
:10015000712F9A79778B4473117E33175D231AE1DF
:10016000F409A58BC81DBBD05D6A62543700746169
:1001700062A2DEE68F73C35ECAF4EBBB9820B46C58
:100180004F958FA056599C74CE7F0BF5B071837D2F
:10019000A6EC7198F0798C4D20F97DDD01767C1309
:1001A000F04C2A68C1222C29037EB89213DFB6CF07
:1001B0008791A16D1E8E7566E85C3A7E2AFE28AF97
:1001C000293B162E7DC4F445B1F18488073696ADDF
:1001D000D490BD0F8D47F4587CF3D6C1AD15BC4DFE
:1001E0009F16C4A508B5DC7DEE4DC7990D58754F17
:1001F00056AB9A508C2CFF205A677A47B1D81327F8
:10020000D6308D81415A39ADA2DE273CC7B7496F40
:10021000631718BCFE5E2DFAE8BDA98A984163CC2D
:100220001E26F3E29F90C6C39BF600B62D55577667
:10023000D759010D0E622F6EC2D38B566FAA05845B
:1002400000000000000000000000000000000000AE
:10025000000000000000000000000000000000009E
:10026000000000000000000000000000000000008E
:10027000000000000000000000000000000000007E
:10028000000000000000000000000000000000006E
:10029000000000000000000000000000000000005E
:1002A000000000000000000000000000000000004E
:1002B000000000000000000000000000000000003E
:1002C000000000000000000000000000000000002E
:1002D000000000000000000000000000000000001E
:1002E000000000000000000000000000000000000E
:1002F00000000000000000000000000000000000FE
:1003000000000000000000000000000000000000ED
:1003100000000000000000000000000000000000DD
:1003200000000000000000000000000000000000CD
:1003300000000000000000000000000000000000BD
:1003400000000000000000000000000000000000AD
:10035000000000000000000000000000000000009D
:10036000000000000000000000000000000000008D
:10037000000000000000000000000000000000007D
:10038000000000000000000000000000000000006D
:10039000000000000000000000000000000000005D
:1003A000000000000000000000000000000000004D
:1003B000000000000000000000000000000000003D
:1003C000000000000000000000000000000000002D
:1003D000000000000000000000000000000000001D
:1003E000000000000000000000000000000000000D
:1003F00000000000000000000000000000000000FD
:100400000000103455160234F5270034F927003463
:1004100009280034192800342928003439280034E8
:100420000000000000000000000000004928003427
:100430004B280034000000004D2800344F280034C1
:10044000B116023400000000B1160234B1160234B5
:10045000B1160234B1160234B1160234B1160234A8
:10046000B116023400000000B1160234B116023495
:10047000B1160234ED210034B11602340000000040
:10048000B116023400000000B1160234B116023475
:10049000B1160234B1160234B1160234B116023468
:1004A000B1160234B1160234B1160234B116023458
:1004B000B1160234B1160234B1160234B116023448
:1004C000B1160234B1160234B1160234B116023438
:1004D000B1160234B1160234B1160234B116023428
:1004E000B116023400000000B1160234B116023415
:1004F000B1160234B1160234B11602345328003456
:10050000612800340000000000000000000000002E
:10051000B1160234ED090234B1160234B1160234B8
:10052000B1160234B1160234B1160234B1160234D7
:10053000B1160234B1160234B1160234B1160234C7
:10054000B1160234B1160234B1160234B1160234B7
:10055000B1160234B1160234B1160234B1160234A7
:1007400000000000B1160234B116023400000000AF
:1007500010B5054C237833B9044B13B10448AFF3FB
:1007600000800123237010BD201408340000000015
:100770009499023408B5034B1BB103490348AFF306
:10078000008008BD0000000024140834949902344D
:10079000034613F8012B002AFBD1181A01387047C1
:1007A00081F0004102E000BF83F0004330B54FEA22
:1007B00041044FEA430594EA050F08BF90EA020F8F
:1007C0001FBF54EA000C55EA020C7FEA645C7FEA22
:1007D000655C00F0E2804FEA5454D4EB5555B8BF45
:1007E0006D420CDD2C4480EA020281EA030382EAB6
:1007F000000083EA010180EA020281EA0303362D48
:1008000088BF30BD11F0004F4FEA01314FF4801C1A
:100810004CEA113102D0404261EB410113F0004F2C
:100820004FEA03334CEA133302D0524263EB4303E3
:1008300094EA050F00F0A780A4F10104D5F1200E81
:100840000DDB02FA0EFC22FA05F2801841F10001DC
:1008500003FA0EF2801843FA05F359410EE0A5F1B0
:1008600020050EF1200E012A03FA0EFC28BF4CF0E1
:10087000020C43FA05F3C01851EBE37101F0004597
:1008800007D54FF0000EDCF1000C7EEB00006EEBA4
:100890000101B1F5801F1BD3B1F5001F0CD349082E
:1008A0005FEA30004FEA3C0C04F101044FEA445285
:1008B00012F5800F80F09A80BCF1004F08BF5FEA0C
:1008C000500C50F1000041EB045141EA050130BDEC
:1008D0005FEA4C0C404141EB0101013C28BFB1F5FE
:1008E000801FE9D291F0000F04BF01460020B1FA49
:1008F00081F308BF2033A3F10B03B3F120020CDA1C
:100900000C3208DD02F1140CC2F10C0201FA0CF0F9
:1009100021FA02F10CE002F11402D8BFC2F1200C5E
:1009200001FA02F120FA0CFCDCBF41EA0C01904014
:10093000E41AA2BF01EB0451294330BD6FEA04045D
:100940001F3C1CDA0C340EDC04F11404C4F1200248
:1009500020FA04F001FA02F340EA030021FA04F35A
:1009600045EA030130BDC4F10C04C4F1200220FAB1
:1009700002F001FA04F340EA0300294630BD21FAEF
:1009800004F0294630BD94F0000F83F4801306BFB5
:1009900081F480110134013D4EE77FEA645C18BFA9
:1009A0007FEA655C29D094EA050F08BF90EA020F40
:1009B00005D054EA000C04BF1946104630BD91EA38
:1009C000030F1EBF0021002030BD5FEA545C05D13B
:1009D0004000494128BF41F0004130BD14F580047A
:1009E0003CBF01F5801130BD01F0004545F0FE41EE
:1009F00041F470014FF0000030BD7FEA645C1ABF23
:100A0000194610467FEA655C1CBF0B46024650EA59
:100A1000013406BF52EA033591EA030F41F4002185
:100A200030BD00BF90F0000F04BF0021704730B50B
:100A30004FF4806404F132044FF000054FF00001E0
:100A400050E700BF90F0000F04BF0021704730B5A1
:100A50004FF4806404F1320410F0004548BF404276
:100A60004FF000013EE700BF42004FEAE2014FEACB
:100A700031014FEA02701FBF12F07F4393F07F4FA6
:100A800081F06051704732F07F4208BF704793F0A9
:100A90007F4F04BF41F40021704730B54FF46074BC
:100AA00001F0004521F000411CE700BF50EA0102BF
:100AB00008BF704730B54FF000050AE050EA010268
:100AC00008BF704730B511F0004502D5404261EBD8
:100AD00041014FF4806404F132045FEA915C3FF419
:100AE000D8AE4FF003025FEADC0C18BF03325FEAB6
:100AF000DC0C18BF033202EBDC02C2F1200300FA67
:100B000003FC20FA02F001FA03FE40EA0E0021FA8B
:100B100002F11444BDE600BF7BB972B90029BEBF23
:100B200000204FF0004106E008BF00281CBF6FF016
:100B300000414FF0FF3000F035BAADF1080C6DE91F
:100B400004CE002909DB002B1ADB00F085F8DDF864
:100B500004E0DDE9022304B07047404261EB41014B
:100B6000002B1BDB00F078F8DDF804E0DDE9022360
:100B700004B0404261EB4101524263EB43037047D2
:100B8000524263EB430300F067F8DDF804E0DDE96F
:100B9000022304B0404261EB41017047524263EBD3
:100BA000430300F059F8DDF804E0DDE9022304B066
:100BB000524263EB4303704753B94AB9002908BF57
:100BC00000281CBF4FF0FF314FF0FF3000F0EAB9B2
:100BD000ADF1080C6DE904CE00F03EF8DDF804E05C
:100BE000DDE9022304B07047024608B50B4643EC2A
:100BF000172BB5EEC07BF1EE10FA03D4BDE8084028
:100C000000F00AB8B1EE477B51EC170B00F004F886
:100C1000404261EB410108BD9FED0B6B41EC170BAE
:100C20009FED0B5B27EE066BBCEEC66BB8EE464B3A
:100C300016EE101AA4EE457BFCEEC77B17EE900A69
:100C4000704700BFAFF30080000000000000F03DDF
:100C5000000000000000F0412DE9F04F8C46099E95
:100C600004460F46002B48D18A4215465ED9B2FA97
:100C700082F33BB1C3F120029F409D409C4020FA8B
:100C800002F217434FEA154E1FFA85FC220CB7FB00
:100C9000FEF10EFB117701FB0CF042EA0742904295
:100CA00007D9AA1801F1FF3702D2904200F2588109
:100CB0003946121AA4B2B2FBFEF00EFB102200FB62
:100CC0000CFC44EA0244A4450BD92C1900F1FF3274
:100CD0002CBF01270027A44502D9002F00F0438133
:100CE000104640EA0140A4EB0C0400211EB1DC4098
:100CF0000023C6E90043BDE8F08F8B4206D90EB150
:100D0000C6E9000100210846BDE8F08FB3FA83F17F
:100D1000002951D16345C0F01681824240F213810F
:100D20000846002EE7D0C6E90047E4E7002A00F0B5
:100D3000AF80B2FA82F3002B40F0C2808A1A4FEAE9
:100D4000154EAFB20121200CB2FBFEFC0EFB1C22A3
:100D500040EA024207FB0CF090420ED9AA180CF1AF
:100D6000FF382CBF4FF001094FF00009904203D922
:100D7000B9F1000F00F0F080C446121AA4B2B2FB21
:100D8000FEF00EFB102200FB07F744EA0244A742E4
:100D90000ED92C1900F1FF322CBF4FF0010E4FF08D
:100DA000000EA74203D9BEF1000F00F0D28010461A
:100DB000E41B40EA0C4099E7C1F120058B400CFA96
:100DC00001F400FA01F922FA05F72CFA05FC8A4031
:100DD0001F4320FA05F3380C23431FFA87FE1C0C2F
:100DE000BCFBF0F800FB18CC44EA0C4408FB0EFCFA
:100DF000A4450ED93C1908F1FF3A2CBF4FF0010B66
:100E00004FF0000BA44503D9BBF1000F00F0B880F0
:100E1000D046A4EB0C041FFA83FCB4FBF0F300FBF8
:100E2000134403FB0EFE4CEA0444A6450ED93C19BC
:100E300003F1FF302CBF4FF0010C4FF0000CA64522
:100E400003D9BCF1000F00F09F80034643EA08403D
:100E5000A4EB0E04A0FB02EC64457346E04602D30B
:100E600007D1F14505D2BEEB02036CEB070C01384C
:100E7000E0465EB1B9EB030264EB080404FA05F541
:100E800022FA01F3CC401D43C6E90054002132E7A9
:100E900042082F464B08AC4642EAC172AE46C40730
:100EA000110C92B241EA034142EA0142B1FBF5F171
:100EB000B3FBF5F01F23A2EB0C0241EA004142E72D
:100EC0009D40C3F1200299409C402CFA02FC4FEA5D
:100ED000154E20FA02F2AFB2BCFBFEF80A430EFB3D
:100EE00018CC110C41EA0C4108FB07FC8C4550D989
:100EF000691808F1FF302CBF4FF001094FF00009CD
:100F00008C4502D9B9F1000F30D0A1EB0C01B1FB37
:100F1000FEF808FB07FC0EFB181192B242EA0142F0
:100F2000624534D2AA1808F1FF312CBF4FF00109F5
:100F30004FF000096245BED2B9F1000FBBD1A8F154
:100F400002012A44B7E7841A6CEB0302012017461A
:100F5000E7E62C4402382BE7ACF1020C2A440CE7FC
:100F600002392A44A5E62C440238BAE6A5EB0C0C5B
:100F7000A8F102006144B1FBFEF808FB07FCCAE7D8
:100F8000A8F102083C4444E7023B3C445EE741468A
:100F900091E7A1EB0C014046B1FBFEF808FB07FC12
:100FA000B9E700BF704700BF044B82B0C3F84C0ADA
:100FB000D3F84C320193019B02B070470080025677
:100FC000044B82B0C3F88C0AD3F88C320193019B96
:100FD00002B0704700800256044B82B0C3F8A00AEA
:100FE000D3F8A0320193019B02B0704700800256F3
:100FF000F0B5134C056822680E68AA42C8BF0260AB
:1010000063680F689F42A768B8BF0B603A440768DF
:10101000974224BF02F1FF320260E26813440A687B
:101020009A4224BF03F1FF330B600368AB4204D143
:101030000868801B18BF0120F0BD0120FCE700BF3D
:1010400030E207340A4BD3ED027AF8EE677A67EEA6
:10105000807AFDEEE77AC0ED007AD3ED037AF8EE00
:10106000677A67EEA07AFDEEE77AC1ED007A704705
:1010700030E207340E4BD3ED027AB8EE677AD3ED47
:10108000007AF8EE677AE7EE007AFDEEE77AC0EDD7
:10109000007AD3ED037AB8EE677AD3ED017AF8EEF1
:1010A000677AE7EE207AFDEEE77AC1ED007A7047C5
:1010B00030E2073470B5ADF51A7D40220021684654
:1010C00021F0B0F99822002110A821F0ABF94FF4DB
:1010D000C872002136A821F0A5F9012012F076FE91
:1010E0000125002319227D210226CDE91D32CDE9FB
:1010F00025150822E121CDE91A63CDE92163CDE967
:101100002323CDE92932CDE92B31CDE92F63CDE978
:1011100031231093062310A8CDE91F55CDE927569A
:10112000CDE92D56CDE934331C9633910CF0C2FA3B
:1011300000B1FEE74FF440337F22CDE900234FF0AA
:10114000407302934FF08053CDE90C354FF00053BC
:10115000CDE90E354FF48013CDE90805CDE90A0637
:10116000CDE90330CDE90500079068460CF09CFE00
:1011700000B1FEE7084B002261934FF44003CDE934
:101180003623064B36A862930DF008FA00B1FEE74D
:101190000DF51A7D70BD00BF140000031404000398
:1011A0007FB5CDE9041004A905A8CDE90232FFF707
:1011B0001FFF02A903A8FFF71BFFDDE90410089B2E
:1011C0000093DDE902321DF0B3FB07B000BD000063
:1011D0002DE9F04F2DED048B474AE5B0136843F439
:1011E00000531360454B1A6A22F440321A621A6A9D
:1011F00022F040721A6206F053FE414B5A6912F413
:10120000003211D1BFF34F8FBFF36F8FC3F850225D
:10121000BFF34F8FBFF36F8F5A6942F400325A61A8
:10122000BFF34F8FBFF36F8F334A136843F480537C
:101230001360A2F57342536913F4803328D1C2F8C6
:101240008430BFF34F8F43F6E074D2F88030C3F39D
:10125000C900C3F34E335B0100F1010E01464EF0AD
:1012600001E003EA040646EA8175C2F860520139DA
:101270000FF007C8203B13F1200FEDD1BFF34F8FC4
:10128000536943F480335361BFF34F8FBFF36F8FC4
:10129000FFF710FF1023194C0227C4F86C3AD4F85A
:1012A0006C124FF001081091109AC4F85C3AD4F80F
:1012B0005C2214480F920F9B60232C9307232CA9C8
:1012C0003093CDE92D782F9709F0ACFC0E4A0F4BE7
:1012D0000C2513604FF4E13353600023C2E9043559
:1012E000C2E9023393614FF400431046D3610AF020
:1012F000A7FB054660B1FEE700E001E00080025672
:1013000000ED00E000100256C457083400100052EF
:101310004FF000494FF4805BC4F8609AD4F8602223
:1013200040461292B64A129BC4F8209AC2F8209204
:10133000FFF73AFE3846FFF737FE0420FFF734FE8A
:101340000820FFF731FEC4F854BAD4F854122CA880
:101350001191119BAB4BCDE92D552C930BF08EFECB
:10136000A94B2CA82C930BF089FEA84B2CA82C93EE
:101370000BF084FEA64B2CA82C930BF07FFE00F004
:10138000BFFF01F0C9FA284614F030FC284614F0DB
:1013900051FD40F201134FF4007A032618A92846A4
:1013A000ADF8603014F0DEFA284614F04BFAC4F8B9
:1013B00058AAD4F85812404613912CA9139B2C9785
:1013C0002D960BF081FD08202CA90BF07DFD092046
:1013D0002CA90BF079FD0A202CA90BF075FD0B2030
:1013E0002CA90BF071FD31468A480BF0C3FD314644
:1013F00089480BF0BFFD314688480BF0BBFD3146F4
:1014000087480BF0B7FD314686480BF0B3FD3146F7
:1014100085480BF0AFFD314684480BF0ABFD4FF42F
:101420008063C4F8583AD4F85802754A1490149955
:101430002020C4F8183AC2F81832FFF7CDFD5846FC
:10144000FFF7CAFD4846FFF7C7FD4FF08040FFF7A2
:10145000C3FDC4F8BC7AD4F8BC22384617920422E3
:10146000179BFFF7B9FDC4F8BC2AD4F8BC1250464C
:101470001691169B4023C4F8BC3AD4F8BC120AACAF
:101480001591159BFFF79CFD8020FFF799FD4FF408
:101490008070FFF795FD4046FFF792FD3846FFF755
:1014A0008FFD1046FFF78CFD0820FFF789FD60488F
:1014B00020F09EFE5F4A6049604820F031FE604A9D
:1014C0006049614820F02CFE434632460E215F48B9
:1014D00020F026FE41462B4632465D4820F020FE95
:1014E0002B462A4631465B4820F01AFE5A495B4893
:1014F00020F016FE5A495B4820F012FE0BAF4C4814
:101500000DF1300820F074FE25603D60C8F80050F1
:101510000D951FF01EFB30B140F2E711524B534ABC
:10152000534820F0C7F8534804F066FF20B14FF449
:10153000F5714D4B4D4AF3E74E482CA904F09EFF40
:1015400020B140F2ED11484B484AE9E7BDF8E030E0
:10155000012B04D04FF4F771474B444AE0E73B605E
:101560003B9B4649434838AA1E6804F081FF20B1DE
:101570004FF4FA713C4B3D4AD2E73A4641463D486A
:1015800004F079FFB0B93D68282105F1010E4EF055
:1015900001E03C9A0DABBEF1010E10D10323384897
:1015A0000E93189304F0E4FF80B14FF402712E4BB8
:1015B000344AB5E74FF4FC712B4B2C4AB0E701FBE2
:1015C00000F55559013043F8045BE4E72E4B012246
:1015D0002B482CA92C9306F03BFA20B140F20E21A7
:1015E000214B284A9CE7294925480EAA06F0DCF938
:1015F00000284DD040F211211B4B224A90E700BF3A
:1016000000900256003102528031025200320252E2
:10161000803202520A000030050000301C00002019
:101620001D000020060000300700003008000030D8
:10163000209C0234499C02344D9C0234599C023453
:10164000889C0234919C02349D9C0234B79C0234E5
:10165000CF9C0234E19C0234FB9C0234309D023466
:101660003E9D0234549D0234649D0234A6CE023461
:10167000789D023460570834839D0234BC57083487
:101680002057083497CE023448140834EC2008342C
:101690009F49A04818AA06F0B1F9054620B14FF4B9
:1016A00005719D4B9D4A3BE701464FF480729C4873
:1016B00020F0B8FE294680229A4820F0B3FE294641
:1016C0002422994820F0AEFE984818A904F0D6FECE
:1016D000054620B140F207118F4B954A20E718A923
:1016E000944800F0EBFE94481AF038F906F0F6FB47
:1016F000924F934B224618603946381F1AF074FAFD
:101700000121284613F0BCFFA7F10C0357F8081C71
:10171000DB688C4C0B44E360022357F80C0C57F841
:10172000042C894F02442060A16062602946224651
:1017300028462361676113F0AFFF844B186859682E
:101740009A68DB6802440B44E36004232361804B06
:101750002060A1606260012122462846636113F087
:101760009BFF7C481CF0A4FE01201CF0D5FE2846FF
:101770001DF018FA78481CF005FF4FF0FF301CF000
:10178000F1FE76497648774B774A00F04FFF2946BD
:1017900038461AF089FA0AAC1AF0AEFA2368B3F5A3
:1017A000407F63D00421714B18681AF091FA704B96
:1017B0001A68002AFCD000221A602368B3F5407F23
:1017C00079D06A4B1A6802F01F03BFF34F8F03F101
:1017D000030E1C3B4FEA5E1E20330EF1010ED8BFF4
:1017E0004FF0010E4EF001E06249C1F85C22203258
:1017F0000FF005C8BFF34F8FBFF36F8F4FF48073A7
:101800000322CDE900325C4D5848226829680068FF
:101810001AF010F8002E1EDD2B6803F01F02324470
:10182000BFF34F8F6FEA030E98188644203A4FEAB1
:101830005E1E20320EF1010ED8BF4FF0010E4EF0A9
:1018400001E04C49C1F8703220330FF005C8BFF3F6
:101850004F8FBFF36F8F06F041FB08900221334892
:1018600004F0E2FD112845D120BFF7E7002E4248E1
:101870001EDD036803F01F023244BFF34F8F6FEA8F
:10188000030E9D18AE44203A4FEA5E1E20320EF140
:10189000010ED8BF4FF0010E4EF001E03549C1F8FE
:1018A0005C3220330FF005C8BFF34F8FBFF36F8F4B
:1018B0000421006879E7002ECDDD2F4B1B6803F073
:1018C0001F023244BFF34F8F6FEA030E981886440D
:1018D000203A4FEA5E1E20320EF1010ED8BF4FF0C3
:1018E000010E4EF001E02349C1F85C3220330FF0C5
:1018F00005C8ACE710380128B0D90C4804F00EFE3A
:10190000054600283CD04FF4E671034B1B4A07E61E
:10191000E020083420570834649D023497CE023406
:10192000E01F0834601F0834C0560834605708347C
:10193000B9CE02345C580834FC2008343CE2073449
:10194000F8200834A45708340070179120E20734B7
:1019500000000091CCB40634441208344510003421
:10196000F10F0034A111003475100034A057083471
:10197000C057083400ED00E0BC57083489CE02346B
:1019800006F0ACFA099028460DAC0BAF39688142DD
:1019900076D8B34BB34A404600F0A6FD0022B24CC5
:1019A0000346C4E90422228084F8202084F82320FE
:1019B00084F8242040226063C4E90A220020112216
:1019C0003F68D8F800106060A060E06022635FB3F9
:1019D00051B30D9F002F27DD084610F9012B01EBB5
:1019E000070EAEEB000E0EF1010E11464EF001E0B7
:1019F000BEF1010E6CD19A48227090ED037A90F9F5
:101A000010006170121A07EE902AF8EEE77A67EE7E
:101A1000877A0A1AC4ED017A07EE902AF8EEE77A7F
:101A200067EE877AC4ED027A8E4A1068002800F0CB
:101A3000AB8000222CA9844689469646934692465E
:101A40009FED8A7ADFED8A6A9FED8A6A1127DCEDC5
:101A5000027AF4EEC77AF1EE10FAF4EEE67AC4BF39
:101A6000B0EE677A4FF0010AF1EE10FAE9EC017A74
:101A700037DB4FF0010B01354FF0010E013235E03D
:101A800054F8041B002921DD0CAB53F8203003F07F
:101A90001F020A44BFF34F8F6FEA030E03EB020CE1
:101AA000E644203A4FEA5E1E20320EF1010ED8BF06
:101AB0004FF0010E4EF001E06F49C1F85C32203367
:101AC0000FF005C8BFF34F8FBFF36F8F01305DE795
:101AD00010F9017BBA42A8BF3A46B942B8BF3946AD
:101AE00086E7F4EEC67AF1EE10FAC5DA013F0CF1A2
:101AF0000C0CACD1BEF1000F01D05B4F7A61BBF191
:101B0000000F01D0584A1561BAF1000F02D0564AB1
:101B100082ED037A00228C4604310F460132C2F175
:101B20001105B7EC017ADCED007AB4EEE77AF1EE5C
:101B300010FAC4BF8CED007A47ED017A013DF0D177
:101B4000052AE8D19DED2D7ADDED2C7A77EE877AA6
:101B50009DED2E7A77EE877A9DED2F7A77EE877A54
:101B60009DED307AF1EE046A77EE877A87EEA67AF9
:101B7000DFED427AB4EEE77AF1EE10FAACBF012164
:101B80000021394A82F820103D49374D0A68013258
:101B90000A60002B47D1002845D0012095F820701D
:101BA00095F8211085F8230077B3AB6141B9E96955
:101BB00001440229E96133D985F8210085F82230F2
:101BC0002B69003B18BF012385F82430D3076DD55E
:101BD000DDE90823DFF8D090A3EB020B214B294F5E
:101BE000D3F800A02849D9F80030012201FB037185
:101BF00026480BF035F90346002800F079814FF4B0
:101C00005A71234B234A8BE4EB6131B1A96901314D
:101C10002C29A961D4D985F82130012385F82230F7
:101C2000002385F8243000271B4B4FF4807239467F
:101C30001A48C3F8C075C3F8BC7520F0F3FB8022C6
:101C40003946174820F0EEFB0022164BC3E9017716
:101C5000C3E907771F80DA601A615A619A61B7E7B2
:101C60005C58083458580834E45608340000000022
:101C7000CDCCCC3D0AD7A33D00ED00E0CDCC4C3E11
:101C8000441408340000009100B80B005C6708346D
:101C9000069E023461CE0234FC500834E01F083442
:101CA000601F0834C05608341C57083406F016F973
:101CB0007B4ADFED7C7A1368C31A00EE103AB8EE67
:101CC000400A20EE270AB5EEC00AF1EE10FA38D924
:101CD000F7EE007AB4EEE70AF1EE10FA31DC724B5F
:101CE0001060196871482CAA19F03EFE704B714FB4
:101CF000D3F8C0350E2B7B6026D901233B70DFF86B
:101D0000E4914FF480726C49D9F8000020F011FE84
:101D100080226A49D9F8040020F00BFED9F8081097
:101D2000624819F04DFF06F0D9F801218146644858
:101D300005F05AFB90B140F2DD11624B624AFFF7A9
:101D4000EFBB9FED620ACAE700223A70002BD6D1A2
:101D500000227B70BA617A61BB6039E706F0BEF899
:101D6000A0EB0900DFF880914FF48072D9F80010E1
:101D7000B860514820F0DDFDD9F8081080224F48A6
:101D800020F0D7FDD9F804301A68FA60D3ED018A43
:101D9000C7ED048A93ED000AB4EEE80AF1EE10FAFA
:101DA00030FE289A30EE490A23F076F8B0EE408AE9
:101DB00038EEC90A23F070F878EE006AF5EEC06AD2
:101DC000F1EE10FAD3BFF6EE007AC8EE267A80EE76
:101DD000267AB0EE677A3B78C7ED057A87ED067A0A
:101DE000002B32D0B4EEE77AF1EE10FAACBF01234B
:101DF00000237B7048DA06F071F8DFF8F0A0814626
:101E0000DAF800301BB1C31AB3F57A7F1ED37B78A2
:101E1000BA68002B3FD02E4B61692E4806911121E4
:101E200005912169049197ED057AB7EEC77A8DED9A
:101E3000027B97ED067AB7EEC77A27498DED007BD6
:101E400020F06EF9CAF8009000E07B707B7823B335
:101E5000F96901310129F9617FF6BAAE1F4820F016
:101E60005FF94FF480720021134820F0DBFA8022E2
:101E70000021124820F0D6FA0C4819F06FFD00231B
:101E8000FB617B603B70A3E606F028F83B78386284
:101E9000002BDBD0AFE7124BBEE7FB6198E600BF3B
:101EA000F82008346F12833A58580834FC2008345C
:101EB000FC500834C0560834E01F0834601F083452
:101EC00020570834649D023477CE02348988883DD7
:101ED000149C02349A9D0234969D0234D09D0234A3
:101EE000199C0234EC200834E020083440140834F3
:101EF000A4480093D0E90223D0E900011CF016FEAB
:101F0000BAF1000F02D0504600F09EFB4FF0804027
:101F10001CF030FB95F823A0BAF1000F40F0C78009
:101F200099481CF01FFB1CF035FB6B6BC18801222C
:101F300000935046954B00F033FC4FF0FF301CF0FF
:101F400011FB1CF027FB94ED037AB7EEC77AC1882A
:101F50008DED047BA3690122039363699140029391
:101F600011230193236900200093894B00F018FC92
:101F70001CF010FB94ED027AB7EEC77AC1888DEDA4
:101F8000047B94ED017AB7EEC77A8DED027B94F96C
:101F900001300122019394F9003001EB410100204E
:101FA00000937C4B00F0FCFB1CF0F4FA636BC188DF
:101FB0000393236B01220293E36A89000193A36ACE
:101FC00000200093744B00F0EBFB1CF0E3FAC18897
:101FD0001420724B414301220020CDF800B000F0E4
:101FE000DFFB4FF0FF301CF0BDFA6D4C6D481CF06C
:101FF000C9FA00201CF0BEFA236813B905F06EFF81
:10200000206005F06BFF2368C01AB0F57A6F2CD200
:102010006B236421644A4FF496700093C8231CF02C
:10202000C1FA4FF080401CF0A5FA1CF0B3FAC18849
:1020300001225E4B0901002000F0B2FB1CF0AAFA5D
:10204000C18801225A4B01EB0111002000F0A8FBCE
:102050001CF0A0FAC188122001224143554B0020F8
:1020600000F09EFB00201CF085FAD9F80030524A9F
:1020700002FB0377BFF34F8F45F6C05E4EF001E0E1
:102080004E4BC3F8687220370FF005C8BFF34F8F6F
:10209000BFF36F8F0122022149480AF0B9FE0028E0
:1020A00067D040F2B731474B474AFFF739BA95F846
:1020B00022305BB134481CF055FA1CF06BFA012257
:1020C000C188424B002000F06BFB36E7DFF818A117
:1020D000DAF820301D4653B105F000FFDAF8203061
:1020E000C51A40F6B7339D428CBF002501259AF8EA
:1020F000003003B95DB39AF801301BBB15BB4FF03C
:10210000FF2008931CF02EFA1CF044FA089BC188AB
:10211000DBB12F4BDAF80820002007922D4A0692F7
:102120009AED057AB7EEC77A8DED047B9AED067AC3
:10213000B7EEC77A00938DED027B0122264B00F0AB
:102140002FFBFAE601232548DBE7254BE2E76FF09A
:10215000FF001CF007FA1CF01DFA0F23C188019341
:10216000DAF804300122009328461E4B00F018FBD9
:10217000E3E6D9F80030C3F10103C9F80030FFF7F6
:102180000ABB00BF20E20734808080FF149E023427
:10219000769E0234939E0234AD9E0234C49E023475
:1021A0003C1408344412083498CF0234D49E0234CC
:1021B000E49E0234179F023400B80B0000ED00E0EB
:1021C0005C670834069E023461CE02342D9E0234D0
:1021D000149C0234969D0234379E02340000FFFFA7
:1021E000199C0234599E0234C056083408B502487E
:1021F0001FF0FEFFFEE700BF429F023410B5E4B0BF
:102200004FF4C8720021684620F00CF90023102218
:10221000CDE900234FF400134FF080513293032394
:102220006846CDE922130CF0B9F948B90023082219
:10223000CDE9002328232490684625930CF0AEF9BD
:1022400064B010BD0138012810B5144607D920F03C
:102250002DFB09234FF0FF340360204610BD4FF0E3
:10226000FF33044892B209F033FB002818BF002462
:10227000F3E700BFC457083407B54FF080424FF46E
:102280008060FEF791FE074BC3F8602AD3F8601216
:1022900001910199C3F8202A03F58053C3F8202245
:1022A00003B000BD0080025600BEFEE7012070476B
:1022B00008B520F0FBFA162303604FF0FF3008BD8D
:1022C00008B520F0F3FA16230360FEE770B50D465B
:1022D00014460E46731B9C4201DC204670BDAFF3D2
:1022E000008006F8010BF5E74FF0FF3070474FF420
:1022F000005300204B60704701207047002070475A
:102300001FB5144B7C2101AA02A8029311F0D6FC40
:102310000346E0B9019A02F4C031B1F5C03F17D0CD
:1023200042F4C0327C2102A8019211F0E3FC68B9AA
:102330007C2101AA02A811F0C1FC30B9019B03F471
:10234000C033B3F5C03F03D0FEE7FEE7FEE7FEE78C
:1023500005B000BD0090005692ED017A2DE9F74FCF
:102360000026019017EE100A3546F6EE006A9846F0
:102370001368D2F808A000FB03FE554502D103B054
:10238000BDE8F08FB8F1000F0CBF30462846019C25
:10239000012720560024A64514BFF146B94605EB97
:1023A0000A0B0094B9F101092FD1009C06EE103AF6
:1023B000B4FBF3F703FB174407EE904AF8EE677A95
:1023C000F8EE465A77EEA67A87EEA56A07EE907A7F
:1023D000F8EE677AF8EE475A77EEA67A81ED006A52
:1023E00087EEA56A81ED016A92F9104092ED036AC9
:1023F000001B07EE900AF8EEE77A67EE867A013561
:10240000C1ED027A76440C31B7E7B8F1000F07EB63
:10241000060C18BFDC46019CD34414F90CC060457F
:10242000ACBF8446009760460137BBE70C23F0B58C
:102430008E680446024603FB06060020B24200D125
:10244000F0BDD1ED007A91ED017AB8EE676AF8EE51
:10245000475AD2ED007A92ED017A66EE277A25EEA0
:10246000877AFCEEE77ABCEEC77A2546124F131B3B
:102470009B087B4323F040430133013B01D10C32E5
:10248000DCE7D5ED006A66EE266AFCEEE66A17EE3A
:10249000907A16EE90CA67450BD1D5ED016A65EECC
:1024A000A66AFCEEE66A17EE107A16EE90CA674549
:1024B00000D001300C35E0E7ABAAAA2A88B181B17F
:1024C0004A8E012A0DD10A6C9169126A0968128834
:1024D000C16002744022C0E900221122826000F033
:1024E00067B84FF0FF30704730B51C46E7B00AB10F
:1024F0002D4B1360012904D118B105680DB102B14B
:1025000044B9CC22002128481FF08CFF4FF0FF3047
:1025100067B030BD22460B4628466946FFF71CFFD0
:102520000023284633A9FFF717FF21466846FFF727
:102530007DFF044633A8FFF779FF89686B4601F1F8
:10254000010E0022DFED197A4EF001E00C33BEF1EE
:10255000010E1AD102F1010E9FED147A4EF001E046
:1025600033AB0C33BEF1010E15D1844205D317D124
:10257000B4EEE77AF1EE10FA12DDCC220DEB020197
:10258000094820F0D6F90020C2E713ED017A0132A4
:1025900077EE877ADAE753ED016A37EE267AE0E7DD
:1025A000CC226946ECE700BF7058083400000000F8
:1025B0000020704790ED027ADFED197AB4EEE77AE9
:1025C000F1EE10FA7FB502460D4626D4154BD2ED3A
:1025D000010A92ED000A1B6803A902A89847029B12
:1025E000114E023B0093039B01A9023B01936846F5
:1025F00033689847029B044602330093039B684666
:102600000233019301A933689847044305D1DDE9FA
:1026100002012B4605221CF0D5FA04B070BD00BFA4
:10262000CDCCCC3D405908344459083403490860A6
:1026300003490A60034A1360704700BF44590834D5
:10264000405908343C5908342DE9F04F2DED028BE8
:10265000044689B0029000F1CC0620464A490C3469
:10266000FFF7A8FFA642F8D100239FED488ADFF8C4
:102670002081DFF820A1DFF820B103930C23D8F8E4
:102680000070029A03FB0727D7ED027AF4EEC87AAE
:10269000F1EE10FA5ED4D8F8046003FB0626D6EDFE
:1026A000027AF4EEC87AF1EE10FA53D4DAF8003078
:1026B00005A904A8D7ED010A97ED000AD8F808404B
:1026C0009847DBF8003005A904A89847002841D1B5
:1026D000DAF8003007A906A8D6ED010A96ED000A3F
:1026E0009847DBF8003007A906A8984790BBDDE9BA
:1026F0000401DDE9062300941CF01AF904A80FC8B0
:10270000A3EB010EA2EB000CBEF1000FB8BFCEF19F
:10271000000EBCF1000FDFF88490B8BFCCF1000CC4
:10272000E645D9F80050009420DD01320130A84779
:10273000DDE90623DDE904010094D9F80090013AAF
:102740000138C84721463846FFF734FF2146304656
:10275000FFF730FF039B08F10C080133122B0393A2
:102760008CD109B0BDEC028BBDE8F08F0133013193
:10277000A847DDE90512079B0094D9F8009004985A
:10278000013B0139DDE700BFDCA939FFCDCCCC3DF1
:10279000C0CE023440590834445908343C590834F6
:1027A00008B477B504460D46164607AB53F8042B1C
:1027B0003021074801931FF095FD334629462046F6
:1027C000034A1CF06FF803B0BDE8704001B07047D9
:1027D0004859083410B50446FDF7DAFF2146BDE834
:1027E000104082B241F28833014809F071B800BF4D
:1027F000C45708347047000008B50248FFF7EAFFE5
:10280000FEE700BF5E9F023408B50248FFF7E2FF13
:10281000FEE700BF759F023408B50248FFF7DAFFF4
:10282000FEE700BF8C9F023408B50248FFF7D2FFD5
:10283000FEE700BFA29F023408B50248FFF7CAFFB7
:10284000FEE700BFBA9F02347047FEE7FEE705F0DF
:1028500039BB08B511F0F8FFBDE8084006F0E6B84E
:1028600008B511F0F1FFBDE8084005F0A8BF000071
:1028700010B5134C6369DB0321D50A1A002A1EDD4B
:1028800000F01F031A44BFF34F8F6FEA000E1B1AAC
:1028900002440B449644203B4FEA5E1E20330EF167
:1028A000010ED8BF4FF0010E4EF001E0C4F85C02FB
:1028B00020300FF005C8BFF34F8FBFF36F8F10BDEF
:1028C00000ED00E010B5134C6369DB0321D50A1A53
:1028D000002A1EDD00F01F031A44BFF34F8F6FEA7A
:1028E000000E1B1A02440B449644203B4FEA5E1E26
:1028F00020330EF1010ED8BF4FF0010E4EF001E073
:10290000C4F8680220300FF005C8BFF34F8FBFF343
:102910006F8F10BD00ED00E0074808B50268074B57
:102920009A4202D003600AF01BFC03480AF0E4FB61
:102930000228FAD008BD00BF7859083400FC0D58B1
:1029400008B5FFF799FC08BD10B5AEB0B422002160
:1029500001A81FF067FD4FF488544FF488314022DE
:10296000282311204FF0440CCDE90614CDE90222B2
:10297000CDE90D2204244FF488624FF4882E8DF89F
:1029800004300123CDE908C4CDE91220114C124ACC
:10299000CDE90403CDE90AE4CDE90F0304F5E02411
:1029A000219201A802F54472CDE9143111918DF8FC
:1029B0005C301C938DF8883027932C928DF8B430BE
:1029C00016941EF0DBFB20460449FFF77BFF2EB078
:1029D00010BD00BF000027343035627000102F3466
:1029E000F0B5BBB0E422002101A81FF01BFD1023AD
:1029F000112104244FF488258DF80430442340200D
:102A000001224FF488374FF48856DFF864C0CDE9CF
:102A10001C13CDE90A5CCDE90834CDE91334CDE9C6
:102A20001E34159520930F4D0F4BCDE90200CDE9D3
:102A30000D000DEB0400CDE90412CDE90F12CDE934
:102A40001A12CDE918222193CDE90676CDE9117647
:102A500016951EF037F928460449FFF733FF3BB0BF
:102A6000F0BD00BF000027340040323400402B345A
:102A700000002E3410B5AEB0B422002101A81FF022
:102A8000D1FC4FF488644FF4883140222A2311206E
:102A9000CDE90614CDE90222CDE90D228DF80430EE
:102AA0000A910123119144224FF48851CDE9040386
:102AB000CDE90803CDE90F03CDE9121204204FF44C
:102AC0008822CDE9140202F1E2420E4CA2F5220264
:102AD000A2F526620B942192A4F5342402F54472E7
:102AE00001A88DF830301C9327932C928DF8B430C8
:102AF00016941EF0DFFB20460349FFF7E3FE2EB0DD
:102B000010BD00BF0040323400402B3430B5AFB0B0
:102B1000B422002101A81FF085FC4FF48830402228
:102B20004FF48861CDE90222CDE90601CDE90D22FD
:102B30004FF4885144222A23CDE912120A901190B1
:102B40004FF48822042011248DF804300123CDE9AC
:102B5000140202F1E242A2F52202CDE90443CDE9DA
:102B60000843CDE90F430D4D0D4CA2F52E62219285
:102B700001A802F544728DF830301C938DF888302E
:102B800027932C928DF8B4300B9516941EF092FB7F
:102B900029462046FFF796FE2FB030BD0040323464
:102BA00000002E3410B51F49AEB01F48FFF760FE7D
:102BB000B422002101A81FF035FC2A2311228DF830
:102BC000043001231949CDE90423CDE90823CDE9D7
:102BD0000F23CDE906220A920B911192042144227F
:102BE000CDE91412CDE91222114A124C0DEB01006D
:102BF000219202F54472CDE90233CDE90D338DF80F
:102C000030301C938DF8883027932C928DF8B43097
:102C100016941EF04FFB20460249FFF753FE2EB0DC
:102C200010BD00BF60403234404032345040323436
:102C3000103562700040323400B52049AFB02048F2
:102C4000FFF716FEB422002101A81FF0EBFB28239A
:102C500011228DF80430012344210420CDE90423FE
:102C6000CDE90F23CDE91323CDE911220692159268
:102C7000144ACDE90901169202F17452A2F55002EC
:102C8000CDE90711A2F52A620F492192684402F5A5
:102C90004472CDE90233CDE90D330B918DF85C30F0
:102CA0001C9327932C928DF8B4301EF067FA0349D9
:102CB0000348FFF707FE2FB000BD00BF804032344D
:102CC00040403234504032340040323410B51C4958
:102CD00098B01C48FFF7CCFD6022002168461FF029
:102CE000A1FB3F238DF8003040234FF48830CDE91D
:102CF00001334FF488534FF4882CCDE90503442366
:102D0000042001221121104CCDE90730CDE909C47E
:102D1000CDE9123004F534246846CDE90312CDE93B
:102D20000E12CDE91013CDE90C22149315941EF068
:102D300073F920460249FFF7C5FD18B010BD00BF6A
:102D400060403234404032340000273408B504215A
:102D500004481CF0D5FABDE80840052102481DF0E2
:102D6000A5B900BFE8980434D498043408B502210A
:102D700004481CF0C5FABDE80840032102481DF0D4
:102D800095B900BF209704341497043408B50D2179
:102D900004481CF0B5FABDE808400B2102481DF0BC
:102DA00085B900BF5C9504343095043408B505211D
:102DB00004481CF0A5FABDE80840062102481DF0B1
:102DC00075B900BF0C910434F490043408B50421A3
:102DD00004481CF095FABDE80840052102481DF0A2
:102DE00065B900BFC88E0434B48E043408B505211B
:102DF00004481CF085FABDE80840062102481DF091
:102E000055B900BFC48C0434AC8C043408B504211B
:102E100004481CF075FABDE80840052102481DF081
:102E200045B900BF808A04346C8A043408B5032194
:102E300004481CF065FABDE80840042102481DF072
:102E400035B900BF9C8804348C88043408B5072148
:102E500004481CF055FABDE80840072102481DF05F
:102E600025B900BFCC860434B086043408B50421EB
:102E700004481CF045FABDE80840052102481DF051
:102E800015B900BF148404340084043408B5032148
:102E900004481CF035FABDE80840042102481DF042
:102EA00005B900BF308204342082043408B50D21F6
:102EB00004481CF025FABDE808400B2102481DF02B
:102EC000F5B800BF00800434D47F043408B5042171
:102ED00004481CF015FABDE80840052102481DF021
:102EE000E5B800BFC07B0434AC7B043408B50321D3
:102EF00004481CF005FABDE80840042102481DF012
:102F0000D5B800BFDC790434CC79043408B50F217E
:102F100004481CF0F5F9BDE808400D2102481DF0F9
:102F2000C5B800BF8C7704345877043408B5132132
:102F300004481CF0E5F9BDE80840112102481DF0E5
:102F4000B5B800BF9C7104345871043408B50F2122
:102F500004481CF0D5F9BDE808400D2102481DF0D9
:102F6000A5B800BF8C6A0434586A043408B5082137
:102F700004481CF0C5F9BDE80840092102481DF0CD
:102F800095B800BF4C6504342865043408B5132196
:102F900004481CF0B5F9BDE80840112102481DF0B5
:102FA00085B800BF08610434C460043408B5112139
:102FB00004481CF0A5F9BDE808400F2102481DF0A7
:102FC00075B800BFD85904349C59043408B5082199
:102FD00004481CF095F9BDE80840092102481DF09D
:102FE00065B800BFE8530434C453043408B5132152
:102FF00004481CF085F9BDE80840112102481DF085
:1030000055B800BFA44F0434604F043408B51121F3
:1030100004481CF075F9BDE808400F2102481DF076
:1030200045B800BF744804343848043408B5082152
:1030300004481CF065F9BDE80840092102481DF06C
:1030400035B800BF844204346042043408B513210B
:1030500004481CF055F9BDE80840112102481DF054
:1030600025B800BF403E0434FC3D043408B50C21B3
:1030700004481CF045F9BDE808400B2102481DF04A
:1030800015B800BF603704343437043408B508215C
:1030900004481CF035F9BDE80840092102481DF03C
:1030A00005B800BFE4320434C032043408B511213D
:1030B00004481CF025F9BDE808400F2102481CF027
:1030C000F5BF00BFC02E0434842E043408B50E2191
:1030D00004481CF015F9BDE808400D2102481CF019
:1030E000E5BF00BF802804344C28043408B508210B
:1030F00004481CF005F9BDE80840092102481CF00D
:10310000D5BF00BF542304343023043408B5112143
:1031100004481CF0F5F8BDE808400F2102481CF0F7
:10312000C5BF00BF301F0434F41E043408B50E219F
:1031300004481CF0E5F8BDE808400D2102481CF0E9
:10314000B5BF00BFF0180434BC18043408B508211A
:1031500004481CF0D5F8BDE80840092102481CF0DD
:10316000A5BF00BFC4130434A013043408B5112153
:1031700004481CF0C5F8BDE808400F2102481CF0C7
:1031800095BF00BFA00F0434640F043408B50A21B2
:1031900004481CF0B5F8BDE80840092102481CF0BD
:1031A00085BF00BFA00904347C09043408B505219B
:1031B00004481CF0A5F8BDE80840062102481CF0B0
:1031C00075BF00BF14060434FC05043408B5102193
:1031D00004481CF095F8BDE808400F2102481CF097
:1031E00065BF00BF10030434D402043408B50C21B9
:1031F00004481CF085F8BDE808400A2102481CF08C
:1032000055BF00BF00FD0334D8FC033408B50C21C2
:1032100004481CF075F8BDE808400B2102481CF07A
:1032200045BF00BF90F8033464F8033408B50521A6
:1032300004481CF065F8BDE80840062102481CF06F
:1032400035BF00BF54F403343CF4033408B50E21F9
:1032500004481CF055F8BDE808400C2102481CF059
:1032600025BF00BF70F1033440F1033408B50C21D1
:1032700004481CF045F8BDE808400B2102481CF04A
:1032800015BF00BF60EC033434EC033408B50521EE
:1032900004481CF035F8BDE80840062102481CF03F
:1032A00005BF00BF24E803340CE8033408B50E2141
:1032B00004481CF025F8BDE808400C2102481CF029
:1032C000F5BE00BF40E5033410E5033408B50C211A
:1032D00004481CF015F8BDE808400B2102481CF01A
:1032E000E5BE00BF30E0033404E0033408B5052137
:1032F00004481CF005F8BDE80840062102481CF00F
:10330000D5BE00BFF4DB0334DCDB033408B50E218B
:1033100004481BF0F5FFBDE808400C2102481CF0F2
:10332000C5BE00BF10D90334E0D8033408B5072167
:1033300004481BF0E5FFBDE80840072102481CF0E7
:10334000B5BE00BF50D4033434D4033408B50521CE
:1033500004481BF0D5FFBDE80840062102481CF0D8
:10336000A5BE00BF88D1033470D1033408B50F2146
:1033700004481BF0C5FFBDE808400F2102481CF0BF
:1033800095BE00BF94CE033458CE033408B509214E
:1033900004481BF0B5FFBDE80840092102481CF0B5
:1033A00085BE00BFC4C80334A0C8033408B50521D6
:1033B00004481BF0A5FFBDE80840062102481CF0A8
:1033C00075BE00BF4CC5033434C5033408B50821AD
:1033D00004481BF095FFBDE80840082102481CF096
:1033E00065BE00BFC8C20334A8C2033408B50921B2
:1033F00004481BF085FFBDE80840092102481CF085
:1034000055BE00BF70BF03344CBF033408B505215F
:1034100004481BF075FFBDE80840062102481CF077
:1034200045BE00BFF8BB0334E0BB033408B5082138
:1034300004481BF065FFBDE80840082102481CF065
:1034400035BE00BF74B9033454B9033408B507213D
:1034500004481BF055FFBDE80840072102481CF056
:1034600025BE00BF3CB6033420B6033408B50521A1
:1034700004481BF045FFBDE80840062102481CF047
:1034800015BE00BF74B303345CB3033408B5052123
:1034900004481BF035FFBDE80840062102481CF037
:1034A00005BE00BF20B1033408B1033408B50D21B7
:1034B00004481BF025FFBDE808400D2102481CF020
:1034C000F5BD00BF4CAE033418AE033408B505217A
:1034D00004481BF015FFBDE80840062102481CF017
:1034E000E5BD00BF70A9033458A9033408B5052110
:1034F00004481BF005FFBDE80840062102481CF007
:10350000D5BD00BF1CA7033404A7033408B50D21A3
:1035100004481BF0F5FEBDE808400B2102481CF0F2
:10352000C5BD00BF48A403341CA4033408B505215D
:1035300004481BF0E5FEBDE80840062102481CF0E7
:10354000B5BD00BFF89F0334E09F033408B50521E3
:1035500004481BF0D5FEBDE80840062102481CF0D7
:10356000A5BD00BFA49D03348C9D033408B507217D
:1035700004481BF0C5FEBDE80840072102481CF0C6
:1035800095BD00BF309B0334149B033408B505215F
:1035900004481BF0B5FEBDE80840062102481CF0B7
:1035A00085BD00BF689803345098033408B50521E1
:1035B00004481BF0A5FEBDE80840062102481CF0A7
:1035C00075BD00BF14960334FC95033408B5022181
:1035D00004481BF095FEBDE80840032102481CF09A
:1035E00065BD00BFF0930334E493033408B512497A
:1035F00003201CF083FA114900201CF0B9F90122C4
:103600000F4900201BF0C4FE01220E4907201BF0C9
:10361000BFFE01220C4908201BF0BAFE04210B4812
:103620001BF05AFE0A490B48FFF722F9BDE8084093
:10363000052109481BF0CABD9C9804346C980434D9
:1036400024980434DC970434949704345497043455
:1036500000503334004032344097043408B50E49EA
:1036600003201CF04BFA01220C4906201BF090FEAF
:1036700001220B4910461BF08BFE01220949022052
:103680001BF086FE032108481BF026FEBDE808401B
:10369000042106481BF09ABD548804340C88043475
:1036A000C48704347C8704344C8704343C87043456
:1036B00008B50E4902201CF021FA01220C4906200F
:1036C0001BF066FE01220B4910461BF061FE012231
:1036D000094903201BF05CFE032108481BF0FCFD98
:1036E000BDE80840042106481BF070BDE8810434A1
:1036F000A08104345881043410810434E0800434FF
:10370000D080043408B50E4900201CF0F7F90122DE
:103710000C4904201BF03CFE01220B4902201BF047
:1037200037FE0122094906201BF032FE032108481A
:103730001BF0D2FDBDE80840042106481BF046BD41
:10374000947904344C79043404790434BC78043416
:103750008C7804347C78043408B50C4900201CF0C3
:10376000CDF901220A4903201BF012FE012209496A
:1037700009201BF00DFE022107481BF0ADFDBDE83E
:103780000840032105481BF021BD00BFAC93033462
:10379000649303341C930334FC920334F092033497
:1037A00008B50C4900201CF093FB01220A490020B7
:1037B0001BF0EEFD0122094908201BF0E9FD022162
:1037C00007481BF089FDBDE80840032105481BF0B0
:1037D000FDBC00BFE8960434A09604345896043427
:1037E000389604342C96043408B51E4903201BF087
:1037F00035FF1D4900201BF031FF1C4901201BF043
:103800002DFF1B4902201BF029FF1A4901201CF043
:1038100075F90122184900201BF0BAFD0122174951
:1038200008201BF0B5FD0122154906201BF0B0FD54
:103830000122144905201BF0ABFD0122124910465C
:103840001BF0A6FD0122114903201BF0A1FD0D2153
:103850000F481BF041FDBDE808400B210D481BF04F
:10386000B5BC00BFF4940434B89404347C9404349C
:103870004094043408940434C0930434789304349A
:1038800030930434E8920434A092043458920434FF
:10389000889104345C91043408B5124902201BF06D
:1038A000DDFE114902201CF029F9104900201CF00E
:1038B00025F901220E4903201BF06AFD01220D4962
:1038C00000201BF065FD01220B4909201BF060FD63
:1038D00005210A481BF000FDBDE808400621084804
:1038E0001BF074BCB89004348090043448900434C5
:1038F00000900434B88F0434708F0434208F043463
:10390000088F043408B5104901201BF0A7FE0F49A9
:1039100003201CF0F3F801220D4900201BF038FDB4
:1039200001220C4903201BF033FD01220A49082023
:103930001BF02EFD042109481BF0CEFCBDE8084019
:10394000052107481BF042BC788E0434408E0434B5
:10395000F88D0434B08D0434688D0434288D04341B
:10396000148D043408B5124900201BF077FE11496C
:1039700000201CF0C3F8104901201CF0BFF8012200
:103980000E4905201BF004FD01220D4904201BF007
:10399000FFFC01220B4910461BF0FAFC05210A48E6
:1039A0001BF09AFCBDE80840062108481BF00EBC3D
:1039B000708C0434388C0434008C0434B88B043498
:1039C000708B0434288B0434D88A0434C08A0434BD
:1039D00008B5104903201BF041FE0F4902201CF0DE
:1039E0008DF801220D4905201BF0D2FC01220C4963
:1039F00006201BF0CDFC01220A4904201BF0C8FC64
:103A0000042109481BF068FCBDE80840052107486F
:103A10001BF0DCBB308A0434F8890434B0890434E8
:103A20006889043420890434E0880434CC88043460
:103A300008B5174901201BF011FE164902201BF0A2
:103A40000DFE154901201CF059F8012213491046BA
:103A50001BF09EFC0122124905201BF099FC01225B
:103A6000104900201BF094FC01220F4909201BF093
:103A70008FFC07210D481BF02FFC0D490D48FEF768
:103A8000F7FEBDE8084007210B481BF09FBB00BFB5
:103A9000748604343886043400860434B8850434CB
:103AA0007085043428850434E0840434708404343C
:103AB00000602E3400002E345484043408B51049BC
:103AC00000201BF0CBFD0F4900201CF017F801224D
:103AD0000D4905201BF05CFC01220C4906201BF05F
:103AE00057FC01220A4903201BF052FC042109481B
:103AF0001BF0F2FBBDE80840052107481BF066BB40
:103B0000C48304348C83043444830434FC8204343A
:103B1000B4820434748204346082043408B52049C9
:103B200001201BF09BFD1F4902201BF097FD1E4941
:103B300003201BF093FD1D4900201BF08FFD1C4945
:103B400003201BF0DBFF01221A4904201BF020FC9C
:103B50000122194907201BF01BFC012217490220F2
:103B60001BF016FC0122164909201BF011FC012252
:103B7000144903201BF00CFC0122134905201BF003
:103B800007FC0D2111481BF0A7FB11491148FEF756
:103B90006FFEBDE808400B210F481BF017BB00BFAC
:103BA000987F04345C7F0434207F0434E47E043442
:103BB000AC7E0434647E04341C7E0434D47D04342E
:103BC0008C7D0434447D0434FC7C04342C7C04342B
:103BD00000A0343400803434007C043408B510492B
:103BE00000201BF03BFD0F4901201BF087FF012245
:103BF0000D4905201BF0CCFB01220C4909201BF0CC
:103C0000C7FB01220A4903201BF0C2FB042109481B
:103C10001BF062FBBDE80840052107481BF0D6BA3F
:103C2000707B0434387B0434F07A0434A87A04348A
:103C3000607A0434207A04340C7A043408B52549B7
:103C400000201BF00BFD244901201BF007FD234938
:103C500002201BF003FD224903201BF0FFFC214939
:103C600002201BF04BFF01221F4900201BF090FB9C
:103C700001221E4908201BF08BFB01221C49104623
:103C80001BF086FB01221B4904201BF081FB012253
:103C9000194906201BF07CFB0122184905201BF066
:103CA00077FB0122164902201BF072FB0122154905
:103CB00003201BF06DFB0F2113481BF00DFB134974
:103CC0001348FEF7D5FDBDE808400D2111481BF053
:103CD0007DBA00BF1C770434E0760434A476043443
:103CE0006876043430760434E8750434A0750434FE
:103CF0005875043410750434C87404348074043462
:103D000038740434F07304340073043400503434D1
:103D100000403434CC72043408B52C4900201BF028
:103D20009DFC2B4901201BF099FC2A4902201BF025
:103D300095FC294903201BF091FC284900201BF029
:103D4000DDFE274901201BF0D9FE264903201BF088
:103D5000D5FE0122244902201BF01AFB012223492F
:103D600005201BF015FB0122214903201BF010FB4D
:103D70000122204904201BF00BFB01221E491046A2
:103D80001BF006FB01221D4900201BF001FB012254
:103D90001B4906201BF0FCFA01221A4909201BF0DE
:103DA000F7FA0122184907201BF0F2FA01221749FD
:103DB00008201BF0EDFA132115481BF08DFABDE821
:103DC0000840112113481BF001BA00BF1C710434D4
:103DD000E0700434A4700434687004343070043427
:103DE000F86F0434C06F0434786F0434306F0434D7
:103DF000E86E0434A06E0434586E0434106E04343B
:103E0000C86D0434806D0434386D0434F06C0434AF
:103E1000C06B04347C6B043408B5234901201BF0CB
:103E20001DFC224902201BF019FC214903201BF034
:103E300015FC204900201BF011FC1F4902201BF03B
:103E40005DFE01221D4904201BF0A2FA01221C493B
:103E500010461BF09DFA01221A4909201BF098FA1E
:103E60000122194900201BF093FA0122174906206C
:103E70001BF08EFA0122164907201BF089FA012255
:103E8000144908201BF084FA0122134905201BF075
:103E90007FFA0F2111481BF01FFABDE808400D21E1
:103EA0000F481BF093B900BF1C6A0434E069043466
:103EB000A46904346869043430690434E86804345B
:103EC000A06804345868043410680434C8670434A3
:103ED0008067043438670434F066043400660434C0
:103EE000CC65043408B5194900201BF0B7FB18490C
:103EF00003201BF003FE174900201BF0FFFD1649AD
:103F000001201BF0FBFD0122144906201BF040FAA2
:103F10000122134905201BF03BFA0122114903201D
:103F20001BF036FA0122104902201BF031FA01225F
:103F30000E4907201BF02CFA08210D481BF0CCF984
:103F4000BDE8084009210B481BF040B9EC6404347B
:103F5000B46404347C64043444640434FC63043482
:103F6000B46304346C63043424630434DC620434C6
:103F70005C6204343862043408B52C4900201BF01C
:103F80006DFB2B4901201BF069FB2A4902201BF025
:103F900065FB294903201BF061FB284901201BF028
:103FA000ADFD274902201BF0A9FD264900201BF08A
:103FB000A5FD0122244908201BF0EAF9012223492A
:103FC00010461BF0E5F90122214909201BF0E0F918
:103FD0000122204905201BF0DBF901221E490620A1
:103FE0001BF0D6F901221D4900201BF0D1F9012256
:103FF0001B4902201BF0CCF901221A4903201BF0B7
:10400000C7F90122184904201BF0C2F901221749FF
:1040100007201BF0BDF9132115481BF05DF9BDE821
:104020000840112113481BF0D1B800BF8860043448
:104030004C60043410600434D45F04349C5F043456
:10404000645F04342C5F0434E45E04349C5E043406
:10405000545E04340C5E0434C45D04347C5D04346A
:10406000345D0434EC5C0434A45C04345C5C0434DF
:104070002C5B0434E85A043408B5274901201BF0AE
:10408000EDFA264902201BF0E9FA254903201BF02E
:10409000E5FA244900201BF0E1FA234903201BF034
:1040A0002DFD224900201BF029FD01222049062078
:1040B0001BF06EF901221F4907201BF069F901224C
:1040C0001D4910461BF064F901221C4903201BF016
:1040D0005FF901221A4904201BF05AF901221949FB
:1040E00008201BF055F90122174909201BF050F94F
:1040F0000122164900201BF04BF90122144902202D
:104100001BF046F9112113481BF0E6F8BDE8084002
:104110000F2111481BF05AB8605904342459043453
:10412000E8580434AC580434745804343C5804340B
:10413000F4570434AC570434645704341C57043423
:10414000D45604348C56043444560434FC55043498
:10415000B4550434A45404346854043408B51949DB
:1041600000201BF07BFA184902201BF0C7FC1749FE
:1041700000201BF0C3FC164901201BF0BFFC0122EC
:10418000144907201BF004F90122134908201BF0F1
:10419000FFF80122114903201BF0FAF8012210490F
:1041A00000201BF0F5F801220E4905201BF0F0F865
:1041B00008210D481BF090F8BDE8084009210B4884
:1041C0001BF004B888530434505304341853043497
:1041D000E0520434985204345052043408520434E7
:1041E000C051043478510434F8500434D4500434A9
:1041F00008B52C4900201BF031FA2B4901201BF097
:104200002DFA2A4902201BF029FA294903201BF024
:1042100025FA284901201BF071FC274903201BF0D7
:104220006DFC264900201BF069FC01222449002076
:104230001BF0AEF80122234910461BF0A9F8012219
:10424000214905201BF0A4F80122204906201BF07B
:104250009FF801221E4908201BF09AF801221D49EF
:1042600007201BF095F801221B4902201BF090F853
:1042700001221A4904201BF08BF801221849092059
:104280001BF086F80122174903201BF081F8132147
:1042900015481BF021F8BDE80840112113481AF019
:1042A00095BF00BF244F0434E84E0434AC4E0434B0
:1042B000704E0434384E0434004E0434C84D043477
:1042C000804D0434384D0434F04C0434A84C04348C
:1042D000604C0434184C0434D04B0434884B043400
:1042E000404B0434F84A0434C84904348449043443
:1042F00008B5274901201BF0B1F9264902201BF01F
:10430000ADF9254903201BF0A9F9244900201BF031
:10431000A5F9234902201BF0F1FB224900201BF0E4
:10432000EDFB0122204902201BF032F801221F4937
:1043300007201BF02DF801221D4904201BF028F84E
:1043400001221C4909201BF023F801221A490620EA
:104350001BF01EF80122194910461BF019F8012222
:10436000174900201BF014F80122164908201BF001
:104370000FF80122144903201BF00AF811211348F9
:104380001AF0AAFFBDE808400F2111481AF01EBF1D
:10439000FC470434C0470434844704344847043499
:1043A00010470434D8460434904604344846043454
:1043B00000460434B84504347045043428450434B8
:1043C000E0440434984404345044043440430434F6
:1043D0000443043408B5194900201BF03FF918497B
:1043E00003201BF08BFB174900201BF087FB1649AD
:1043F00001201BF083FB0122144909201AF0C8FF99
:104400000122134906201AF0C3FF0122114903209B
:104410001AF0BEFF0122104904201AF0B9FF012250
:104420000E4905201AF0B4FF08210D481AF054FF78
:10443000BDE8084009210B481AF0C8BE24420434E4
:10444000EC410434B44104347C4104343441043438
:10445000EC400434A44004345C400434144004347C
:10446000943F0434703F043408B52C4900201BF0FD
:10447000F5F82B4901201BF0F1F82A4902201BF026
:10448000EDF8294903201BF0E9F8284900201BF02A
:1044900035FB274901201BF031FB264902201BF088
:1044A0002DFB0122244900201AF072FF012223492A
:1044B00008201AF06DFF0122214910461AF068FF0A
:1044C0000122204904201AF063FF01221E49022024
:1044D0001AF05EFF01221D4906201AF059FF012241
:1044E0001B4909201AF054FF01221A4907201AF02B
:1044F0004FFF0122184905201AF04AFF01221749EF
:1045000003201AF045FF132115481AF0E5FEBDE817
:104510000840112113481AF059BE00BFC03D0434B1
:10452000843D0434483D04340C3D0434D43C04340C
:104530009C3C0434643C04341C3C0434D43B0434BC
:104540008C3B0434443B0434FC3A0434B43A043421
:104550006C3A0434243A0434DC3904349439043495
:10456000643804342038043408B51E4901201BF097
:1045700075F81D4902201BF071F81C4903201BF03F
:104580006DF81B4903201BF0B9FA012219490620D6
:104590001AF0FEFE0122184907201AF0F9FE012246
:1045A000164905201AF0F4FE0122154900201AF0E0
:1045B000EFFE0122134902201AF0EAFE01221249FD
:1045C00003201AF0E5FE0122104909201AF0E0FE4E
:1045D0000C210F481AF080FEBDE808400B210D4861
:1045E0001AF0F4BDF8360434BC3604348036043492
:1045F0004836043400360434B83504347035043495
:1046000028350434E0340434983404345034043409
:10461000903304346433043408B5194900201BF086
:104620001DF8184902201BF069FA174900201BF0F9
:1046300065FA164901201BF061FA01221449052090
:104640001AF0A6FE0122134902201AF0A1FE01224F
:10465000114904201AF09CFE0122104900201AF092
:1046600097FE01220E4910461AF092FE08210D48CD
:104670001AF032FEBDE8084009210B481AF0A6BD29
:10468000843204344C32043414320434DC310434C3
:10469000943104344C31043404310434BC300434D7
:1046A00074300434F42F0434D02F043408B527496F
:1046B00000201AF0D3FF264901201AF0CFFF254928
:1046C00002201AF0CBFF244903201AF0C7FF234928
:1046D00001201BF013FA224903201BF00FFA214995
:1046E00000201BF00BFA01221F4909201AF050FE8E
:1046F00001221E4905201AF04BFE01221C4904200C
:104700001AF046FE01221B4910461AF041FE012212
:10471000194900201AF03CFE0122184906201AF01F
:1047200037FE0122164907201AF032FE01221549F0
:1047300002201AF02DFE112113481AF0CDFDBDE81C
:1047400008400F2111481AF041BD00BF482E043423
:104750000C2E0434D02D0434942D04345C2D0434F8
:10476000242D0434EC2C0434A42C04345C2C0434A8
:10477000142C0434CC2B0434842B04343C2B04340C
:10478000F42A0434AC2A04349C2904346029043407
:1047900008B5234901201AF061FF224902201AF0CE
:1047A0005DFF214903201AF059FF204902201BF028
:1047B000A5F91F4900201BF0A1F901221D49042081
:1047C0001AF0E6FD01221C4906201AF0E1FD012243
:1047D0001A4908201AF0DCFD0122194903201AF0B9
:1047E000D7FD0122174907201AF0D2FD01221649F0
:1047F00009201AF0CDFD0122144900201AF0C8FD4D
:104800000122134905201AF0C3FD0E2111481AF0A8
:1048100063FDBDE808400D210F481AF0D7BC00BF6A
:1048200010280434D427043498270434602704342F
:1048300028270434E026043498260434502604340F
:1048400008260434C0250434782504343025043483
:10485000E824043408240434D423043408B5194962
:1048600000201AF0FBFE184903201BF047F91749F6
:1048700000201BF043F9164901201BF03FF90122EB
:10488000144908201AF084FD0122134905201AF06A
:104890007FFD0122114907201AF07AFD01221049FB
:1048A00010461AF075FD01220E4904201AF070FD21
:1048B00008210D481AF010FDBDE8084009210B48F9
:1048C0001AF084BCF4220434BC220434842204345C
:1048D0004C22043404220434BC21043474210434F2
:1048E0002C210434E42004346420043440200434B3
:1048F00008B5274900201AF0B1FE264901201AF018
:10490000ADFE254902201AF0A9FE244903201AF021
:10491000A5FE234901201BF0F1F8224902201BF0DB
:10492000EDF8214900201BF0E9F801221F4905207C
:104930001AF02EFD01221E4902201AF029FD012243
:104940001C4907201AF024FD01221B4906201AF0F9
:104950001FFD0122194908201AF01AFD01221849E9
:1049600003201AF015FD0122164904201AF010FD4B
:104970000122154910461AF00BFD112113481AF0B7
:10498000ABFCBDE808400F2111481AF01FBC00BF66
:10499000B81E04347C1E0434401E0434041E043447
:1049A000CC1D0434941D04345C1D0434141D0434E3
:1049B000CC1C0434841C04343C1C0434F41B043428
:1049C000AC1B0434641B04341C1B04340C1A043464
:1049D000D019043408B5234901201AF03FFE2249BA
:1049E00002201AF03BFE214903201AF037FE20492D
:1049F00003201BF083F81F4900201BF07FF80122E1
:104A00001D4906201AF0C4FC01221C4908201AF096
:104A1000BFFC01221A4905201AF0BAFC01221949EB
:104A200010461AF0B5FC0122174900201AF0B0FC1C
:104A30000122164907201AF0ABFC01221449042078
:104A40001AF0A6FC0122134909201AF0A1FC0E213C
:104A500011481AF041FCBDE808400D210F481AF03A
:104A6000B5BB00BF8018043444180434081804345B
:104A7000D01704349817043450170434081704343A
:104A8000C01604347816043430160434E81504349F
:104A9000A015043458150434781404344414043430
:104AA00008B5194900201AF0D9FD184901201BF05A
:104AB00025F8174900201BF021F8164902201BF0A9
:104AC0001DF80122144907201AF062FC0122134943
:104AD00006201AF05DFC0122114909201AF058FC49
:104AE0000122104902201AF053FC01220E49002035
:104AF0001AF04EFC08210D481AF0EEFBBDE8084004
:104B000009210B481AF062BB641304342C130434DB
:104B1000F4120434BC120434741204342C1204341D
:104B2000E41104349C11043454110434D4100434BA
:104B3000B010043408B5274900201AF08FFD26492B
:104B400001201AF08BFD254902201AF087FD244927
:104B500003201AF083FD234902201AF0CFFF2249D7
:104B600000201AF0CBFF214903201AF0C7FF0122D1
:104B70001F4907201AF00CFC01221E4904201AF0DC
:104B800007FC01221C4905201AF002FC01221B49E6
:104B900006201AF0FDFB0122194900201AF0F8FB4B
:104BA0000122184910461AF0F3FB0122164902208F
:104BB0001AF0EEFB0122154908201AF0E9FB112139
:104BC00013481AF089FBBDE808400F2111481AF07C
:104BD000FDBA00BF280F0434EC0E0434B00E0434C8
:104BE000740E04343C0E0434040E0434CC0D04342E
:104BF000840D04343C0D0434F40C0434AC0C043443
:104C0000640C04341C0C0434D40B04348C0B0434B6
:104C10007C0A0434400A043408B5194901201AF00A
:104C20001DFD184902201AF019FD174903201AF03A
:104C300015FD164901201AF061FF012214490020D8
:104C40001AF0A6FB0122134906201AF0A1FB01224B
:104C5000114902201AF09CFB0122104905201AF08C
:104C600097FB01220E4908201AF092FB0A210D48F9
:104C70001AF032FBBDE8084009210B481AF0A6BA29
:104C80004009043404090434C80804349008043486
:104C90004808043400080434B807043470070434A6
:104CA00028070434880604346406043408B512491D
:104CB00000201AF0D3FC114903201AF01FFF1049FD
:104CC00000201AF01BFF01220E4907201AF060FB9A
:104CD00001220D4908201AF05BFB01220B49042038
:104CE0001AF056FB05210A481AF0F6FABDE808400A
:104CF000062108481AF06ABAC0050434880504344D
:104D00005005043408050434C00404347804043421
:104D1000280404341004043408B5274900201AF08C
:104D20009DFC264901201AF099FC254902201AF021
:104D300095FC244903201AF091FC234901201AF024
:104D4000DDFE224902201AF0D9FE214900201AF086
:104D5000D5FE01221F4908201AF01AFB01221E4924
:104D600000201AF015FB01221C4909201AF010FB43
:104D700001221B4903201AF00BFB012219490620CE
:104D80001AF006FB0122184910461AF001FB012215
:104D9000164907201AF0FCFA0122154905201AF0DD
:104DA000F7FA102113481AF097FABDE808400F21CE
:104DB00011481AF00BBA00BF980204345C020434A4
:104DC00020020434E4010434AC01043474010434DA
:104DD0003C010434F4000434AC00043464000434B2
:104DE0001C000434D4FF03348CFF033444FF033429
:104DF000FCFE0334FCFD0334C0FD033408B51C493C
:104E000000201AF02BFC1B4901201AF027FC1A493C
:104E100002201AF023FC194903201AF01FFC01227A
:104E2000174904201AF0B4FA0122164903201AF097
:104E3000AFFA0122144900201AF0AAFA01221349FC
:104E400002201AF0A5FA0122114910461AF0A0FA20
:104E50000122104906201AF09BFA0C210E481AF084
:104E60003BFABDE808400A210C481AF0AFB900BF70
:104E70009CFC033460FC033424FC0334E8FB03345F
:104E8000A0FB033458FB033410FB0334C8FA03348B
:104E900080FA033438FA033478F9033450F90334D0
:104EA00008B51E4901201AF0D9FB1D4902201AF04D
:104EB000D5FB1C4903201AF0D1FB1B4900201AF036
:104EC0001DFE1A4903201AF019FE01221849072075
:104ED0001AF05EFA0122174909201AF059FA012244
:104EE000154902201AF054FA0122144904201AF03C
:104EF0004FFA0122124908201AF04AFA01221149F8
:104F000005201AF045FA0C210F481AF0E5F9BDE822
:104F100008400B210D481AF059B900BF28F8033496
:104F2000ECF70334B0F7033478F7033440F7033475
:104F3000F8F60334B0F6033468F6033420F603348D
:104F4000D8F5033490F50334D0F40334A4F40334D7
:104F500008B5124900201AF081FB114901201AF00E
:104F6000CDFD104902201AF0C9FD01220E4905208D
:104F70001AF00EFA01220D4904201AF009FA012252
:104F80000B4902201AF004FA05210A481AF0A4F984
:104F9000BDE80840062108481AF018B900F40334A7
:104FA000C8F3033490F3033448F3033400F30334B9
:104FB000B8F2033468F2033450F2033408B52049E0
:104FC00000201AF04BFB1F4901201AF047FB1E4935
:104FD00002201AF043FB1D4903201AF03FFB1C4935
:104FE00000201AF08BFD1B4903201AF087FD0122D7
:104FF000194902201AF0CCF90122184909201AF0A7
:10500000C7F90122164908201AF0C2F901221549F0
:1050100000201AF0BDF90122134910461AF0B8F920
:105020000122124906201AF0B3F90E2110481AF095
:1050300053F9BDE808400C210E481AF0C7B800BF6C
:1050400004F10334C8F003348CF0033450F003341B
:1050500018F00334E0EF033498EF033450EF0334D7
:1050600008EF0334C0EE033478EE033430EE03343B
:1050700050ED033420ED033408B51E4901201AF029
:10508000EDFA1D4902201AF0E9FA1C4903201AF032
:10509000E5FA1B4901201AF031FD1A4902201AF0E5
:1050A0002DFD0122184903201AF072F90122174937
:1050B00005201AF06DF90122154902201AF068F94D
:1050C0000122144908201AF063F90122124906202E
:1050D0001AF05EF90122114909201AF059F90C2140
:1050E0000F481AF0F9F8BDE808400B210D481AF0F6
:1050F0006DB800BFF8EB0334BCEB033480EB033432
:1051000048EB033410EB0334C8EA033480EA033479
:1051100038EA0334F0E90334A8E9033460E90334DE
:10512000A0E8033474E8033408B5124900201AF0EB
:1051300095FA114900201AF0E1FC104903201AF0F9
:10514000DDFC01220E4908201AF022F901220D4946
:1051500004201AF01DF901220B4902201AF018F957
:1051600005210A481AF0B8F8BDE8084006210848A9
:105170001AF02CB8D0E7033498E7033460E703341F
:1051800018E70334D0E6033488E6033438E6033402
:1051900020E6033408B5204900201AF05FFA1F49C1
:1051A00001201AF05BFA1E4902201AF057FA1D4935
:1051B00003201AF053FA1C4901201AF09FFC1B49E6
:1051C00002201AF09BFC0122194907201AF0E0F88E
:1051D0000122184902201AF0DBF8012216490920A1
:1051E0001AF0D6F80122154900201AF0D1F8012250
:1051F000134908201AF0CCF80122124904201AF0B1
:10520000C7F80E2110481AF067F8BDE808400C21D5
:105210000E4819F0DBBF00BFD4E4033498E4033434
:105220005CE4033420E40334E8E30334B0E3033400
:1052300068E3033420E30334D8E2033490E2033418
:1052400048E2033400E2033420E10334F0E00334A5
:1052500008B51E4901201AF001FA1D4902201AF072
:10526000FDF91C4903201AF0F9F91B4900201AF036
:1052700045FC1A4903201AF041FC01221849092073
:105280001AF086F80122174907201AF081F8012246
:10529000154900201AF07CF80122144902201AF066
:1052A00077F80122124908201AF072F801221149F8
:1052B00005201AF06DF80C210F481AF00DF8BDE822
:1052C00008400B210D4819F081BF00BFC8DF03342F
:1052D0008CDF033450DF033418DF0334E0DE0334A3
:1052E00098DE033450DE033408DE0334C0DD0334BB
:1052F00078DD033430DD033470DC033444DC033404
:1053000008B5124900201AF0A9F9114902201AF033
:10531000F5FB104901201AF0F1FB01220E4906208D
:105320001AF036F801220D4904201AF031F8012252
:105330000B4900201AF02CF805210A4819F0CCFF7F
:10534000BDE808400621084819F040BFA0DB03343F
:1053500068DB033430DB0334E8DA0334A0DA0334E7
:1053600058DA033408DA0334F0D9033408B5204995
:1053700003201AF073F91F4900201AF06FF91E4933
:1053800001201AF06BF91D4902201AF067F91C4937
:1053900003201AF0B3FB1B4900201AF0AFFB0122D7
:1053A0001949022019F0F4FF01221849032019F0CD
:1053B000EFFF01221649104619F0EAFF01221549B4
:1053C000042019F0E5FF01221349002019F0E0FF45
:1053D00001221249052019F0DBFF0E21104819F0B7
:1053E0007BFFBDE808400C210E4819F0EFBE00BF5E
:1053F000A4D8033468D803342CD80334F0D703344A
:10540000B8D7033480D7033438D70334F0D6033405
:10541000A8D6033460D6033418D60334D0D5033469
:10542000F0D40334C0D4033408B5154901201AF070
:1054300015F9144902201AF011F9134901201AF044
:105440005DFB01221149072019F0A2FF012210493A
:10545000052019F09DFF01220E49032019F098FF45
:1054600001220D49022019F093FF07210B4819F082
:1054700033FFBDE808400721094819F0A7BE00BF67
:10548000F8D30334BCD3033484D303343CD3033480
:10549000F4D20334ACD2033464D20334F4D10334F1
:1054A000D8D1033408B5124900201AF0D7F81149B1
:1054B00002201AF023FB104900201AF01FFB0122E2
:1054C0000E49002019F064FF01220D49092019F04E
:1054D0005FFF01220B49062019F05AFF05210A48F7
:1054E00019F0FAFEBDE808400621084819F06EBE22
:1054F00034D10334FCD00334C4D003347CD003341F
:1055000034D00334ECCF03349CCF033484CF033442
:1055100008B5274902201AF0A1F8264900201AF000
:105520009DF8254901201AF099F8244903201AF022
:1055300095F8234901201AF0E1FA224903201AF0D4
:10554000DDFA214900201AF0D9FA01221F4906206C
:1055500019F01EFF01221E49092019F019FF01222E
:105560001C49052019F014FF01221B49032019F0E2
:105570000FFF01221949082019F00AFF01221849DA
:10558000002019F005FF01221649104619F000FF0E
:1055900001221549042019F0FBFE0F21134819F0D0
:1055A0009BFEBDE808400F21114819F00FBE00BF57
:1055B0001CCE0334E0CD0334A4CD033468CD0334D2
:1055C00030CD0334F8CC0334C0CC033478CC03346E
:1055D00030CC0334E8CB0334A0CB033458CB0334B2
:1055E00010CB0334C8CA033480CA033490C90334CF
:1055F00054C9033408B5194903201AF02FF8184983
:1056000001201AF02BF8174900201AF077FA1649F2
:1056100002201AF073FA01221449052019F0B8FE8D
:1056200001221349104619F0B3FE0122114903204B
:1056300019F0AEFE01221049002019F0A9FE012246
:105640000E49062019F0A4FE09210D4819F044FE68
:10565000BDE8084009210B4819F0B8BD64C80334FF
:1056600028C80334F0C70334B8C7033470C7033401
:1056700028C70334E0C6033498C6033450C6033445
:10568000C0C503349CC5033408B51249002019F085
:10569000E5FF114901201AF031FA104903201AF0F0
:1056A0002DFA01220E49072019F072FE01220D4940
:1056B000022019F06DFE01220B49042019F068FE4A
:1056C00005210A4819F008FEBDE8084006210848EF
:1056D00019F07CBDF8C40334C0C4033488C4033457
:1056E00040C40334F8C30334B0C3033460C3033489
:1056F00048C3033408B51749012019F0AFFF164914
:10570000022019F0ABFF154900201AF0F7F91449EF
:1057100002201AF0F3F901221249042019F038FE90
:1057200001221149082019F033FE01220F490020FF
:1057300019F02EFE01220E49052019F029FE08213C
:105740000C4819F0C9FDBDE8084008210A4819F0C5
:105750003DBD00BF6CC2033430C20334F8C1033412
:10576000C0C1033478C1033430C10334E8C003340A
:10577000A0C0033420C0033400C0033408B5194965
:10578000032019F06BFF1849002019F067FF174933
:1057900001201AF0B3F9164903201AF0AFF90122DB
:1057A0001449082019F0F4FD01221349092019F0C9
:1057B000EFFD01221149022019F0EAFD01221049F2
:1057C000032019F0E5FD01220E49062019F0E0FD45
:1057D00009210D4819F080FDBDE8084009210B485A
:1057E00019F0F4BC10BF0334D4BE03349CBE0334A0
:1057F00064BE03341CBE0334D4BD03348CBD0334F7
:1058000044BD0334FCBC03346CBC033448BC0334D7
:1058100008B51249022019F021FF114902201AF09F
:105820006DF9104900201AF069F901220E49002093
:1058300019F0AEFD01220D49062019F0A9FD012243
:105840000B49082019F0A4FD05210A4819F044FD70
:10585000BDE808400621084819F0B8BCA4BB0334D1
:105860006CBB033434BB0334ECBA0334A4BA033442
:105870005CBA03340CBA0334F4B9033408B51749DD
:10588000012019F0EBFE1649002019F0E7FE15493A
:1058900003201AF033F9144901201AF02FF90122DC
:1058A0001249052019F074FD01221149042019F054
:1058B0006FFD01220F49092019F06AFD01220E49EE
:1058C000032019F065FD08210C4819F005FDBDE81D
:1058D000084008210A4819F079BC00BF18B9033400
:1058E000DCB80334A4B803346CB8033424B80334EC
:1058F000DCB7033494B703344CB70334CCB6033469
:10590000ACB6033408B51549022019F0A7FE1449B6
:10591000032019F0A3FE134900201AF0EFF801222A
:105920001149002019F034FD01221049082019F016
:105930002FFD01220E49062019F02AFD01220D49F2
:10594000032019F025FD07210B4819F0C5FCBDE81F
:1059500008400721094819F039BC00BFE4B50334F9
:10596000A8B5033470B5033428B50334E0B4033468
:1059700098B4033450B40334E0B30334C4B30334F1
:1059800008B51249002019F069FE114901201AF0EA
:10599000B5F8104902201AF0B1F801220E4905208D
:1059A00019F0F6FC01220D49002019F0F1FC01224A
:1059B0000B49022019F0ECFC05210A4819F08CFC77
:1059C000BDE808400621084819F000BC20B30334A4
:1059D000E8B20334B0B2033468B2033420B2033403
:1059E000D8B1033488B1033470B1033408B5124917
:1059F000012019F033FE114903201AF07FF81049F5
:105A000000201AF07BF801220E49092019F0C0FC91
:105A100001220D49032019F0BBFC01220B49022091
:105A200019F0B6FC05210A4819F056FCBDE80840FB
:105A30000621084819F0CABBCCB0033494B0033433
:105A40005CB0033414B00334CCAF033484AF0334FC
:105A500034AF03341CAF033408B52249022019F0D7
:105A6000FDFD2149032019F0F9FD204901201AF01C
:105A700045F81F4902201AF041F81E49002019F08C
:105A8000EDFD1D4900201AF039F801221B490020C4
:105A900019F07EFC01221A49092019F079FC012233
:105AA0001849052019F074FC01221749104619F015
:105AB0006FFC01221549022019F06AFC01221449E9
:105AC000032019F065FC01221249062019F060FC40
:105AD0000D21114819F000FCBDE808400D210F48C8
:105AE00019F074BBDCAD0334A0AD033468AD0334EE
:105AF00030AD0334F4AC0334BCAC033474AC0334C5
:105B00002CAC0334E4AB03349CAB033454AB03340C
:105B10000CAB0334C4AA0334F4A90334C0A903347E
:105B200008B51249012019F099FD1149032019F017
:105B3000E5FF1049002019F0E1FF01220E49052080
:105B400019F026FC01220D49062019F021FC012242
:105B50000B49002019F01CFC05210A4819F0BCFB78
:105B6000BDE808400621084819F030BB1CA90334E1
:105B7000E4A80334ACA8033464A803341CA8033499
:105B8000D4A7033484A703346CA7033408B512499F
:105B9000002019F063FD1149022019F0AFFF1049F0
:105BA000012019F0ABFF01220E49032019F0F0FB90
:105BB00001220D49092019F0EBFB01220B490820B5
:105BC00019F0E6FB05210A4819F086FBBDE80840FC
:105BD0000621084819F0FABAC8A6033490A603347F
:105BE00058A6033410A60334C8A5033480A5033493
:105BF00030A5033418A5033408B51E49022019F056
:105C00002DFD1D49032019F029FD1C49002019F024
:105C100025FD1B49012019F021FD1A49002019F02A
:105C20006DFF01221849062019F0B2FB0122174925
:105C3000104619F0ADFB01221549002019F0A8FB10
:105C400001221449072019F0A3FB0122124909205F
:105C500019F09EFB01221149022019F099FB0D2138
:105C60000F4819F039FBBDE808400B210D4819F029
:105C7000ADBA00BFE0A30334A4A3033468A3033484
:105C80002CA30334F4A20334ACA2033464A203347F
:105C90001CA20334D4A103348CA1033444A10334E3
:105CA00074A0033448A0033408B51249012019F048
:105CB000D5FC1149032019F021FF1049012019F0EA
