:0200000470107A
:1000000053544D32000000000000000000000000CA
:1000100000000000000000000000000000000000E0
:1000200000000000000000000000000000000000D0
:1000300000000000000000000000000000000000C0
:1000400000000000000000000000000000000000B0
:1000500000000000000000000000000000000000A0
:10006000000000009665F10100030200E0BA0500FF
:100070000DFB013400000000FFFFFFFF0000000047
:100080000000000000000080A0010000000000004F
:100090000000000000000000000000000000000060
:1000A0005354FFFFA00100000DCAA66B3B0844AEED
:1000B000D586FEBA09A355C6907C4765735749306B
:1000C0009099FA89012C0D7950F9E4FB532E8F2673
:1000D000B4FEA929B2F8E5452CC2DF37D31DD52CD3
:1000E0000C7E37A7ECA4B5B269647FDCAE2A00951C
:1000F00027ACF1668AA11C2BF903D29CD766D710D6
:10010000F759B9B918779D09CD32BF2299C637532F
:10011000163E665608745D5A872E0F6BE92321241C
:1001200077D22B436745EA54166856856E703B5F5D
:10013000903FEF58F2A0D596C724275744DA5627A8
:1001400048C15EB8550B717EB916FA368B2EC53C88
:10015000E3D81452B7ABE93BB33CF9EFF029593C73
:10016000B6DF7D4A31040963834A39C2C26ED004C6
:100170008EA6D7976AD1F3FA65F339F7FF56199C23
:100180000C9EC912C5BDCC938B0456758003C0ACC0
:100190003E3AFF0CE190C5E04EF97A179BAC07C8D8
:1001A0004AEDCEC3D3D8E9FEC5C655902135487E69
:1001B000CEDA8CBDEA1BD9EB2E01EFD935F1B99C13
:1001C0000F4550A75504C1B7D5EA286288DE83F5EC
:1001D00009EBAAE771D058049B30B451BCA6D47186
:1001E0005EAEEFE2605BE45F5F53D37509419090D0
:1001F00001F87DE06EA9D86B2C753601A6EEA04003
:1002000023FC6C5E30F617C5D9E5FA31D85085CE9F
:1002100094BEF94A5ADA47B695FAAD5B557FCE5F80
:10022000365D092FD23D818B5BDD61DB87EB67D4C7
:1002300069E2F5F678EA52C1D8E6AEEB57C12384FD
:1002400000000000000000000000000000000000AE
:10025000000000000000000000000000000000009E
:10026000000000000000000000000000000000008E
:10027000000000000000000000000000000000007E
:10028000000000000000000000000000000000006E
:10029000000000000000000000000000000000005E
:1002A000000000000000000000000000000000004E
:1002B000000000000000000000000000000000003E
:1002C000000000000000000000000000000000002E
:1002D000000000000000000000000000000000001E
:1002E000000000000000000000000000000000000E
:1002F00000000000000000000000000000000000FE
:1003000000000000000000000000000000000000ED
:1003100000000000000000000000000000000000DD
:1003200000000000000000000000000000000000CD
:1003300000000000000000000000000000000000BD
:1003400000000000000000000000000000000000AD
:10035000000000000000000000000000000000009D
:10036000000000000000000000000000000000008D
:10037000000000000000000000000000000000007D
:10038000000000000000000000000000000000006D
:10039000000000000000000000000000000000005D
:1003A000000000000000000000000000000000004D
:1003B000000000000000000000000000000000003D
:1003C000000000000000000000000000000000002D
:1003D000000000000000000000000000000000001D
:1003E000000000000000000000000000000000000D
:1003F00000000000000000000000000000000000FD
:10040000000010340DFB0134D1210034D32100341D
:10041000D5210034D7210034D9210034DB21003428
:10042000000000000000000000000000DD2100349A
:10043000DF21003400000000E1210034E32100341A
:1004400069FB01340000000069FB013469FB0134E1
:1004500069FB013469FB013469FB013469FB013438
:1004600069FB01340000000069FB013469FB0134C1
:1004700069FB0134291C003469FB013400000000D1
:1004800069FB01340000000069FB013469FB0134A1
:1004900069FB013469FB013469FB013469FB0134F8
:1004A00069FB013469FB013469FB013469FB0134E8
:1004B00069FB013469FB013469FB013469FB0134D8
:1004C00069FB013469FB013469FB013469FB0134C8
:1004D00069FB013469FB013469FB013469FB0134B8
:1004E00069FB01340000000069FB013469FB013441
:1004F00069FB013469FB013469FB0134E7210034F5
:10050000F5210034000000000000000000000000A1
:1005100069FB0134A5EE013469FB013469FB013448
:1005200069FB013469FB013469FB013469FB013467
:1005300069FB013469FB013469FB013469FB013457
:1005400069FB013469FB013469FB013469FB013447
:1005500069FB013469FB013469FB013469FB013437
:100740000000000069FB013469FB01340000000077
:1007500010B5054C237833B9044B13B10448AFF3FB
:1007600000800123237010BD20BD0534000000006F
:100770009C6D023408B5034B1BB103490348AFF32A
:10078000008008BD0000000024BD05349C6D0234CB
:10079000034613F8012B002AFBD1181A01387047C1
:1007A00081F0004102E000BF83F0004330B54FEA22
:1007B00041044FEA430594EA050F08BF90EA020F8F
:1007C0001FBF54EA000C55EA020C7FEA645C7FEA22
:1007D000655C00F0E2804FEA5454D4EB5555B8BF45
:1007E0006D420CDD2C4480EA020281EA030382EAB6
:1007F000000083EA010180EA020281EA0303362D48
:1008000088BF30BD11F0004F4FEA01314FF4801C1A
:100810004CEA113102D0404261EB410113F0004F2C
:100820004FEA03334CEA133302D0524263EB4303E3
:1008300094EA050F00F0A780A4F10104D5F1200E81
:100840000DDB02FA0EFC22FA05F2801841F10001DC
:1008500003FA0EF2801843FA05F359410EE0A5F1B0
:1008600020050EF1200E012A03FA0EFC28BF4CF0E1
:10087000020C43FA05F3C01851EBE37101F0004597
:1008800007D54FF0000EDCF1000C7EEB00006EEBA4
:100890000101B1F5801F1BD3B1F5001F0CD349082E
:1008A0005FEA30004FEA3C0C04F101044FEA445285
:1008B00012F5800F80F09A80BCF1004F08BF5FEA0C
:1008C000500C50F1000041EB045141EA050130BDEC
:1008D0005FEA4C0C404141EB0101013C28BFB1F5FE
:1008E000801FE9D291F0000F04BF01460020B1FA49
:1008F00081F308BF2033A3F10B03B3F120020CDA1C
:100900000C3208DD02F1140CC2F10C0201FA0CF0F9
:1009100021FA02F10CE002F11402D8BFC2F1200C5E
:1009200001FA02F120FA0CFCDCBF41EA0C01904014
:10093000E41AA2BF01EB0451294330BD6FEA04045D
:100940001F3C1CDA0C340EDC04F11404C4F1200248
:1009500020FA04F001FA02F340EA030021FA04F35A
:1009600045EA030130BDC4F10C04C4F1200220FAB1
:1009700002F001FA04F340EA0300294630BD21FAEF
:1009800004F0294630BD94F0000F83F4801306BFB5
:1009900081F480110134013D4EE77FEA645C18BFA9
:1009A0007FEA655C29D094EA050F08BF90EA020F40
:1009B00005D054EA000C04BF1946104630BD91EA38
:1009C000030F1EBF0021002030BD5FEA545C05D13B
:1009D0004000494128BF41F0004130BD14F580047A
:1009E0003CBF01F5801130BD01F0004545F0FE41EE
:1009F00041F470014FF0000030BD7FEA645C1ABF23
:100A0000194610467FEA655C1CBF0B46024650EA59
:100A1000013406BF52EA033591EA030F41F4002185
:100A200030BD00BF90F0000F04BF0021704730B50B
:100A30004FF4806404F132044FF000054FF00001E0
:100A400050E700BF90F0000F04BF0021704730B5A1
:100A50004FF4806404F1320410F0004548BF404276
:100A60004FF000013EE700BF42004FEAE2014FEACB
:100A700031014FEA02701FBF12F07F4393F07F4FA6
:100A800081F06051704732F07F4208BF704793F0A9
:100A90007F4F04BF41F40021704730B54FF46074BC
:100AA00001F0004521F000411CE700BF50EA0102BF
:100AB00008BF704730B54FF000050AE050EA010268
:100AC00008BF704730B511F0004502D5404261EBD8
:100AD00041014FF4806404F132045FEA915C3FF419
:100AE000D8AE4FF003025FEADC0C18BF03325FEAB6
:100AF000DC0C18BF033202EBDC02C2F1200300FA67
:100B000003FC20FA02F001FA03FE40EA0E0021FA8B
:100B100002F11444BDE600BF7BB972B90029BEBF23
:100B200000204FF0004106E008BF00281CBF6FF016
:100B300000414FF0FF3000F035BAADF1080C6DE91F
:100B400004CE002909DB002B1ADB00F085F8DDF864
:100B500004E0DDE9022304B07047404261EB41014B
:100B6000002B1BDB00F078F8DDF804E0DDE9022360
:100B700004B0404261EB4101524263EB43037047D2
:100B8000524263EB430300F067F8DDF804E0DDE96F
:100B9000022304B0404261EB41017047524263EBD3
:100BA000430300F059F8DDF804E0DDE9022304B066
:100BB000524263EB4303704753B94AB9002908BF57
:100BC00000281CBF4FF0FF314FF0FF3000F0EAB9B2
:100BD000ADF1080C6DE904CE00F03EF8DDF804E05C
:100BE000DDE9022304B07047024608B50B4643EC2A
:100BF000172BB5EEC07BF1EE10FA03D4BDE8084028
:100C000000F00AB8B1EE477B51EC170B00F004F886
:100C1000404261EB410108BD9FED0B6B41EC170BAE
:100C20009FED0B5B27EE066BBCEEC66BB8EE464B3A
:100C300016EE101AA4EE457BFCEEC77B17EE900A69
:100C4000704700BFAFF30080000000000000F03DDF
:100C5000000000000000F0412DE9F04F8C46099E95
:100C600004460F46002B48D18A4215465ED9B2FA97
:100C700082F33BB1C3F120029F409D409C4020FA8B
:100C800002F217434FEA154E1FFA85FC220CB7FB00
:100C9000FEF10EFB117701FB0CF042EA0742904295
:100CA00007D9AA1801F1FF3702D2904200F2588109
:100CB0003946121AA4B2B2FBFEF00EFB102200FB62
:100CC0000CFC44EA0244A4450BD92C1900F1FF3274
:100CD0002CBF01270027A44502D9002F00F0438133
:100CE000104640EA0140A4EB0C0400211EB1DC4098
:100CF0000023C6E90043BDE8F08F8B4206D90EB150
:100D0000C6E9000100210846BDE8F08FB3FA83F17F
:100D1000002951D16345C0F01681824240F213810F
:100D20000846002EE7D0C6E90047E4E7002A00F0B5
:100D3000AF80B2FA82F3002B40F0C2808A1A4FEAE9
:100D4000154EAFB20121200CB2FBFEFC0EFB1C22A3
:100D500040EA024207FB0CF090420ED9AA180CF1AF
:100D6000FF382CBF4FF001094FF00009904203D922
:100D7000B9F1000F00F0F080C446121AA4B2B2FB21
:100D8000FEF00EFB102200FB07F744EA0244A742E4
:100D90000ED92C1900F1FF322CBF4FF0010E4FF08D
:100DA000000EA74203D9BEF1000F00F0D28010461A
:100DB000E41B40EA0C4099E7C1F120058B400CFA96
:100DC00001F400FA01F922FA05F72CFA05FC8A4031
:100DD0001F4320FA05F3380C23431FFA87FE1C0C2F
:100DE000BCFBF0F800FB18CC44EA0C4408FB0EFCFA
:100DF000A4450ED93C1908F1FF3A2CBF4FF0010B66
:100E00004FF0000BA44503D9BBF1000F00F0B880F0
:100E1000D046A4EB0C041FFA83FCB4FBF0F300FBF8
:100E2000134403FB0EFE4CEA0444A6450ED93C19BC
:100E300003F1FF302CBF4FF0010C4FF0000CA64522
:100E400003D9BCF1000F00F09F80034643EA08403D
:100E5000A4EB0E04A0FB02EC64457346E04602D30B
:100E600007D1F14505D2BEEB02036CEB070C01384C
:100E7000E0465EB1B9EB030264EB080404FA05F541
:100E800022FA01F3CC401D43C6E90054002132E7A9
:100E900042082F464B08AC4642EAC172AE46C40730
:100EA000110C92B241EA034142EA0142B1FBF5F171
:100EB000B3FBF5F01F23A2EB0C0241EA004142E72D
:100EC0009D40C3F1200299409C402CFA02FC4FEA5D
:100ED000154E20FA02F2AFB2BCFBFEF80A430EFB3D
:100EE00018CC110C41EA0C4108FB07FC8C4550D989
:100EF000691808F1FF302CBF4FF001094FF00009CD
:100F00008C4502D9B9F1000F30D0A1EB0C01B1FB37
:100F1000FEF808FB07FC0EFB181192B242EA0142F0
:100F2000624534D2AA1808F1FF312CBF4FF00109F5
:100F30004FF000096245BED2B9F1000FBBD1A8F154
:100F400002012A44B7E7841A6CEB0302012017461A
:100F5000E7E62C4402382BE7ACF1020C2A440CE7FC
:100F600002392A44A5E62C440238BAE6A5EB0C0C5B
:100F7000A8F102006144B1FBFEF808FB07FCCAE7D8
:100F8000A8F102083C4444E7023B3C445EE741468A
:100F900091E7A1EB0C014046B1FBFEF808FB07FC12
:100FA000B9E700BF704700BF044B82B0C3F84C0ADA
:100FB000D3F84C320193019B02B070470080025677
:100FC000044B82B0C3F88C0AD3F88C320193019B96
:100FD00002B0704700800256044B82B0C3F8A00AEA
:100FE000D3F8A0320193019B02B0704700800256F3
:100FF000F0B5134C056822680E68AA42C8BF0260AB
:1010000063680F689F42A768B8BF0B603A440768DF
:10101000974224BF02F1FF320260E26813440A687B
:101020009A4224BF03F1FF330B600368AB4204D143
:101030000868801B18BF0120F0BD0120FCE700BF3D
:10104000A0A205340A4BD3ED027AF8EE677A67EE78
:10105000807AFDEEE77AC0ED007AD3ED037AF8EE00
:10106000677A67EEA07AFDEEE77AC1ED007A704705
:10107000A0A205340E4BD3ED027AB8EE677AD3ED19
:10108000007AF8EE677AE7EE007AFDEEE77AC0EDD7
:10109000007AD3ED037AB8EE677AD3ED017AF8EEF1
:1010A000677AE7EE207AFDEEE77AC1ED007A7047C5
:1010B000A0A2053470B5ADF51A7D40220021684626
:1010C0001FF00CFC9822002110A81FF007FC4FF421
:1010D000C872002136A81FF001FC012011F052F85F
:1010E0000125002319227D210226CDE91D32CDE9FB
:1010F00025150822E121CDE91A63CDE92163CDE967
:101100002323CDE92932CDE92B31CDE92F63CDE978
:1011100031231093062310A8CDE91F55CDE927569A
:10112000CDE92D56CDE934331C9633910AF09EFC5F
:1011300000B1FEE74FF440337F22CDE900234FF0AA
:10114000407302934FF08053CDE90C354FF00053BC
:10115000CDE90E354FF48013CDE90805CDE90A0637
:10116000CDE90330CDE90500079068460BF078F82B
:1011700000B1FEE7084B002261934FF44003CDE934
:101180003623064B36A862930BF0E4FB00B1FEE772
:101190000DF51A7D70BD00BF140000031404000398
:1011A0007FB5CDE9041004A905A8CDE90232FFF707
:1011B0001FFF02A903A8FFF71BFFDDE90410089B2E
:1011C0000093DDE902321BF00FFE07B000BD000006
:1011D0002DE9F04F474AE3B0136843F4005313601E
:1011E000454B1A6A22F440321A621A6A22F040729F
:1011F0001A6205F031F8414B5A6912F4003211D1EC
:10120000BFF34F8FBFF36F8FC3F85022BFF34F8FE1
:10121000BFF36F8F5A6942F400325A61BFF34F8FA8
:10122000BFF36F8F334A136843F480531360A2F502
:101230007342536913F4803328D1C2F88430BFF36A
:101240004F8F43F6E074D2F88030C3F3C900C3F384
:101250004E335B0100F1010E01464EF001E003EA5E
:10126000040646EA8175C2F8605201390FF007C8DA
:10127000203B13F1200FEDD1BFF34F8F536943F49F
:1012800080335361BFF34F8FBFF36F8FFFF712FFB0
:101290001023194C0227C4F86C3AD4F86C124FF0A2
:1012A00001080E910E9AC4F85C3AD4F85C221448F6
:1012B0000D920D9B60232A9307232AA92E93CDE933
:1012C0002B782D9707F08AFE0E4A0F4B0C251360E2
:1012D0004FF4E13353600023C2E90435C2E902331D
:1012E00093614FF400431046D36108F085FD054635
:1012F00060B1FEE700E001E00080025600ED00E092
:1013000000100256DCF30534001000524FF0004983
:101310004FF4805BC4F8609AD4F860224046109283
:10132000109BA84BC4F8209AC3F82092FFF73CFE0C
:101330003846FFF739FE0420FFF736FE0820FFF796
:1013400033FEC4F854BAD4F854122AA80F910F9A55
:101350009D4ACDE92B552A920AF06CF89B4A2AA89F
:101360002A920AF067F89A4A2AA82A920AF062F8A2
:10137000984A2AA82A920AF05DF800F0D9FC00F0F9
:1013800095FF284612F00EFE284612F02FFF40F27D
:1013900001124FF4007A032616A92846ADF858200A
:1013A00012F0BCFC284612F029FCC4F858AAD4F864
:1013B0005812404611912AA9119A2A972B9609F0A2
:1013C0005FFF08202AA909F05BFF09202AA909F07C
:1013D00057FF0A202AA909F053FF0B202AA909F078
:1013E0004FFF31467C4809F0A1FF31467B4809F0A8
:1013F0009DFF31467A4809F099FF3146794809F056
:1014000095FF3146784809F091FF3146774809F059
:101410008DFF3146764809F089FF4FF48062C4F8A9
:10142000582AD4F85802674B129012992020C4F819
:10143000182AC3F81822FFF7CFFD5846FFF7CCFD56
:101440004846FFF7C9FD4FF08040FFF7C5FDC4F8DF
:10145000BC7AD4F8BC22384615920422159BFFF7BB
:10146000BBFDC4F8BC2AD4F8BC1250461491149B9E
:101470004023C4F8BC3AD4F8BC120DF124091391EE
:10148000139BFFF79DFD8020FFF79AFD4FF48070BE
:10149000FFF796FD4046FFF793FD3846FFF790FDB6
:1014A0001046FFF78DFD0820FFF78AFD51481FF019
:1014B000FBF8514A514952481FF08EF8514A52499F
:1014C00052481FF089F8434632460E2150481FF01B
:1014D00083F82B46324641464E481FF07DF82B4696
:1014E0002A4631464C481FF077F84C494C481FF0CB
:1014F00073F80AAF3F480DF12C0A1FF0D5F8C9F870
:1015000000503D60CAF800500C951DF07EFD30B1D2
:1015100040F25911434B444A44481EF027FB4448CB
:1015200004F034FC20B14FF4AE713E4B3E4AF3E779
:101530003F482AA904F06CFC20B140F25F11394BFE
:10154000394AE9E7BDF8D830012B04D04FF4B07127
:10155000384B354AE0E73B60399B37491B683448D4
:1015600036AA069304F04EFC20B14FF4B3712D4B14
:101570002D4AD1E73A4651462D4804F046FCA8B919
:101580003A68282402F1010E4EF001E03A990CABC2
:10159000BEF1010E0FD1264816A904F039FC04460D
:1015A00000284DD0CA211F4B244AB5E74FF4B5712E
:1015B0001C4B1D4AB0E704FB00F28A58013043F887
:1015C000042BE5E7009002560031025280310252AE
:1015D00000320252803202520A0000300500003010
:1015E0001C0000201D000020060000300700003015
:1015F00008000030147002343D700234417002342F
:101600004D7002347C700234857002349170023463
:10161000AB700234C3700234D5700234EF70023400
:10162000247102343271023441A102344671023411
:1016300078F3053451710234D4F3053454A10234E3
:1016400016A9724800F052FC714818F0E8FA04F04C
:1016500021FE704D704B4A4618602946281F18F02D
:101660001DFD0121204612F0E7F9A5F10C0355F804
:10167000081CDB68DFF8E4810B44C8F80C30022357
:1016800055F80C0C55F8042C644E0244644DC8F80F
:101690000000C8F80810C8F8042021464246204639
:1016A000C8F81030C8F8145012F0D2F93168B36895
:1016B00072680B44C8F80430F368C8F8001013448B
:1016C000C8F80C300423C8F81030564B0121C8F874
:1016D000082020464246C8F8143012F0B9F95248A2
:1016E0001BF042F901201BF073F920461BF0B6FCF9
:1016F0004E481BF0A3F94FF0FF301BF08FF94C4917
:101700004C484D4B4D4A00F09FFC2146284618F0AE
:1017100027FD18F04DFDD9F800300421B3F5407FC6
:1017200014BF474B474B186818F02EFD464B1A68FC
:10173000002AFCD000221A60D9F80030B3F5407FAF
:101740004CD03F4B1A6802F01F03BFF34F8F03F1D9
:10175000030E1C3B4FEA5E1E20330EF1010ED8BF74
:101760004FF0010E4EF001E03849C1F85C22203202
:101770000FF005C8BFF34F8FBFF36F8F4FF4807327
:101780000322CDE900322F4C2D48D9F800202168E2
:10179000006818F02BFA069B002B1FDD23680699C2
:1017A00003F01F020A44BFF34F8F6FEA030E98182D
:1017B0008644203A4FEA5E1E20320EF1010ED8BF59
:1017C0004FF0010E4EF001E02049C1F87032203395
:1017D0000FF005C8BFF34F8FBFF36F8F04F05AFDB2
:1017E000804602211A4804F0E9FA112801D120BFED
:1017F000F7E710380128F4D9154804F059FB0546DD
:1018000070B340F24F11134B134A85E674F405345C
:1018100044BD0534ACA2053440BD053490A2053466
:101820000070179100000091687504344CBB0534BA
:1018300045100034F10F0034A1110034751000344C
:10184000B8F30534D4F30534D8F3053400ED00E0E3
:1018500078F305343271023433A10234BCF3053419
:1018600004F018FD079028460CAC3968814200F25C
:10187000A3806B4B6B4A504600F046FB00236A4C3A
:1018800039686360A360E36040232062C4E90533E4
:1018900000201123DAF8002020802061E36161B389
:1018A0005AB30C98002828DD114611F9013B02EBD0
:1018B000000EAEEB010E0EF1010E1A464EF001E0E5
:1018C000BEF1010E40F09F805549237091ED037ADF
:1018D00091F9101062705B1A07EE903AF8EEE77A11
:1018E00067EE877A531AC4ED017A07EE903AF8EE64
:1018F000E77A67EE877AC4ED027ADFF828B1DBF881
:10190000003003B30022DFED497A1046DFED486A6C
:10191000112193ED027AF4EEC77AF1EE10FAB4EEEB
:10192000E67A44BFF0EE477A0120F1EE10FAA4BF48
:1019300001220135013903F10C03EAD102B125611D
:1019400008B1C4ED037A04F0A5FC3A4ADFED3A7A17
:101950001368C31A00EE103AB8EE400A20EE270AC8
:10196000B5EEC00AF1EE10FA56D9F7EE007AB4EEF1
:10197000E70AF1EE10FA4FDCDBF8001010602F4898
:101980002AAA18F051F9079B2D49A3EB08030793E6
:101990002C4BDFF8C8801B68012201FB03812A4819
:1019A000DBF800B009F038FC0546002858D040F2BA
:1019B0000121264B264AAFE554F8041B002920DDFF
:1019C0005AF8203003F01F020A44BFF34F8F6FEA2A
:1019D000030E03EB020CE644203A4FEA5E1E20326F
:1019E0000EF1010ED8BF4FF0010E4EF001E0194983
:1019F000C1F85C3220330FF005C8BFF34F8FBFF33F
:101A00006F8F013031E711F9010B8342A8BF034604
:101A10008242B8BF024653E79FED0F0AACE700BF12
:101A200074F4053470F405344CF305340000000000
:101A30000AD7A33B40BD05346F12833A44BD053439
:101A400000B80B0070F30534AC0206346471023444
:101A50001DA1023400ED00E08988883D000000915E
:101A60000090D6E90223D6E900011BF0BBFA5846E4
:101A700000F0F8FA4FF080401AF0D8FF1AF0E6FFB5
:101A800094ED037AB7EEC77A1123C1888DED027BFE
:101A9000012201932369914028460093524B00F0A4
:101AA0007DFB1AF0D3FF94ED027AB7EEC77AC188B6
:101AB0008DED047B94ED017AB7EEC77A8DED027B54
:101AC00094F901300122019394F9003001EB4101B6
:101AD00028460093454B00F061FB1AF0B7FF236ADC
:101AE000C1880393E36901220293A36989000193EA
:101AF0006369284600933E4B00F050FB1AF0A6FFA6
:101B0000C1881420079B4143012228460093394B8A
:101B100000F044FB4FF0FF301AF080FF364C37489E
:101B20001AF08CFF28461AF081FF236813B904F0DD
:101B3000B1FB206004F0AEFB2368C01AB0F57A6FE9
:101B40002CD26B2364212E4A4FF496700093C82345
:101B50001AF084FF4FF080401AF068FF1AF076FF09
:101B6000C1880122274B0901002000F017FB1AF061
:101B70006DFFC1880122244B01EB0111002000F010
:101B80000DFB1AF063FFC1881220012241431F4B55
:101B9000002000F003FB00201AF048FF1C4C1D4AF7
:101BA000236802FB0383BFF34F8F45F6C05E4EF000
:101BB00001E0194AC2F8683220330FF005C8BFF3BC
:101BC0004F8FBFF36F8F01220221144809F0FCFAF6
:101BD00020B140F22521124B124A9DE42368C3F143
:101BE0000103236095E500BF7271023485710234F0
:101BF0009F710234B67102343CBD05344CBB0534D0
:101C000034A20234C6710234D6710234097202342D
:101C100070F3053400B80B0000ED00E0AC020634B0
:101C2000647102341DA10234FEE710B5E4B04FF434
:101C3000C872002168461EF051FE00231022CDE933
:101C400000234FF400134FF0805132930323684672
:101C5000CDE922130AF07EFE48B900230822CDE91F
:101C6000002328232490684625930AF073FE64B06D
:101C700010BD00000138012810B5144607D91FF027
:101C800071F809234FF0FF340360204610BD4FF078
:101C9000FF33044892B207F0F7FF002818BF002472
:101CA000F3E700BFDCF3053407B54FF080424FF493
:101CB0008060FFF779F9074BC3F8602AD3F8601208
:101CC00001910199C3F8202A03F58053C3F820221B
:101CD00003B000BD0080025600BEFEE70120704741
:101CE00008B51FF03FF8162303604FF0FF3008BD22
:101CF00008B51FF037F816230360FEE770B50D46F0
:101D000014460E46731B9C4201DC204670BDAFF3A7
:101D1000008006F8010BF5E74FF0FF3070474FF4F5
:101D2000005300204B60704701207047002070472F
:101D30001FB5144B7C2101AA02A8029310F09AF956
:101D40000346E0B9019A02F4C031B1F5C03F17D0A3
:101D500042F4C0327C2102A8019210F0A7F968B9C0
:101D60007C2101AA02A810F085F930B9019B03F487
:101D7000C033B3F5C03F03D0FEE7FEE7FEE7FEE762
:101D800005B000BD0090005692ED007A2DE9F74FA6
:101D90000026019017EE100A3546F6EE006A9846C6
:101DA000D2E9013A03FB00FE554502D103B0BDE87C
:101DB000F08FB8F1000F0CBF30462846019C012778
:101DC00020560024A64514BFF146B94605EB0A0B80
:101DD0000094B9F101092FD1009C06EE103AB4FB32
:101DE000F3F703FB174407EE904AF8EE677AF8EE34
:101DF000465A77EEA67A87EEA56A07EE907AF8EE55
:101E0000677AF8EE475A77EEA67A81ED006A87EE98
:101E1000A56A81ED016A92F9104092ED036A001BF8
:101E200007EE900AF8EEE77A67EE867A0135C1EDA3
:101E3000027A76440C31B7E7B8F1000F07EB060CD5
:101E400018BFDC46019CD34414F90CC06045ACBFFC
:101E50008446009760460137BBE700000C23F0B5CD
:101E60008E680446024603FB06060020B24200D1FB
:101E7000F0BDD1ED007A91ED017AB8EE676AF8EE27
:101E8000475AD2ED007A92ED017A66EE277A25EE76
:101E9000877AFCEEE77ABCEEC77A2546124F131B11
:101EA0009B087B4323F040430133013B01D10C32BB
:101EB000DCE7D5ED006A66EE266AFCEEE66A17EE10
:101EC000907A16EE90CA67450BD1D5ED016A65EEA2
:101ED000A66AFCEEE66A17EE107A16EE90CA67451F
:101EE00000D001300C35E0E7ABAAAA2A0A6C916950
:101EF000126A09681288C16002744022C0E9002297
:101F00001122826000F062B830B501291446E7B0B2
:101F10001A4605D07421284B284A29481DF026FE70
:101F20000568284B284623600B466946FFF72CFFBF
:101F30000023284633A9FFF727FF11466846FFF71D
:101F40008DFF044633A8FFF789FF89686B4601F1CE
:101F5000010E0022DFED1C7A4EF001E00C33BEF1E1
:101F6000010E1BD102F1010E9FED177A4EF001E038
:101F700033AB0C33BEF1010E16D1844205D318D118
:101F8000B4EEE77AF1EE10FA13DDCC220DEB02018C
:101F90000C481EF02AFF002067B030BD13ED017A17
:101FA000013277EE877AD9E753ED016A37EE267A68
:101FB000DFE7CC226946EBE734720234644903342C
:101FC0004272023488F4053400000000002070479B
:101FD00090ED027ADFED197AB4EEE77AF1EE10FABD
:101FE0007FB502460D4626D4154BD2ED010A92ED7F
:101FF000000A1B6803A902A89847029B114E023BE6
:102000000093039B01A9023B0193684633689847FC
:10201000029B044602330093039B684602330193FC
:1020200001A933689847044305D1DDE902012B4635
:1020300005221BF023F804B070BD00BF0AD7A33BF4
:1020400058F505345CF505340349086003490A6016
:10205000034A1360704700BF5CF5053458F505343A
:1020600054F505342DE9F04F2DED028B4FF0120B96
:102070009FED458A89B0454FDFF81491DFF814A130
:1020800003900C233E68039A03FB0626D6ED027AE2
:10209000F4EEC87AF1EE10FA5ED47D6803FB0523F6
:1020A000D3ED027AF4EEC87AF1EE10FA029353D42B
:1020B000D9F8003005A904A8D6ED010A96ED000A6A
:1020C000BC689847DAF8003005A904A898470028AA
:1020D00042D1029AD9F8003007A906A8D2ED010A28
:1020E00092ED000A9847DAF8003007A906A8984749
:1020F00090BBDDE90401DDE9062300941AF074FECB
:1021000004A80FC8A3EB010EA2EB000CBEF1000F58
:10211000B8BFCEF1000EBCF1000FDFF87C80B8BF75
:10212000CCF1000CE645D8F8005000941EDD0132D9
:102130000130A847DDE90623DDE904010094D8F861
:102140000080013A0138C04721463046FFF740FF82
:1021500021460298FFF73CFFBBF1010B07F10C078A
:102160008FD109B0BDEC028BBDE8F08F0133013196
:10217000A847DDE90512079B0094D8F80080049871
:10218000013B0139DFE700BF0AD7A33B5CA1023462
:1021900058F505345CF5053454F5053408B477B5C5
:1021A00004460D46164607AB53F8042B302107486A
:1021B00001931EF0F3FA334629462046034A1AF0EB
:1021C000CDFD03B0BDE8704001B0704760F5053447
:1021D0007047FEE7FEE7FEE7FEE7FEE77047FEE733
:1021E000FEE704F04BB808B510F00AFDBDE8084062
:1021F00004F0F8BD08B510F003FDBDE8084004F098
:10220000BABC000010B5134C6369DB0321D50A1A70
:10221000002A1EDD00F01F031A44BFF34F8F6FEA40
:10222000000E1B1A02440B449644203B4FEA5E1EEC
:1022300020330EF1010ED8BF4FF0010E4EF001E039
:10224000C4F85C0220300FF005C8BFF34F8FBFF316
:102250006F8F10BD00ED00E010B5134C6369DB0318
:1022600021D50A1A002A1EDD00F01F031A44BFF30D
:102270004F8F6FEA000E1B1A02440B449644203B1A
:102280004FEA5E1E20330EF1010ED8BF4FF0010E53
:102290004EF001E0C4F8680220300FF005C8BFF32B
:1022A0004F8FBFF36F8F10BD00ED00E0074808B5FA
:1022B0000268074B9A4202D0036009F02DF90348E7
:1022C00009F0F6F80228FAD008BD00BF90F50534F1
:1022D00000FC0D5808B5FFF7E7FC08BD10B5AEB01F
:1022E000B422002101A81EF0F9FA4FF488544FF4EB
:1022F00088314022282311204FF0440CCDE90614E8
:10230000CDE90222CDE90D2204244FF488624FF476
:10231000882E8DF804300123CDE908C4CDE91220C0
:10232000114C124ACDE90403CDE90AE4CDE90F03CB
:1023300004F5E024219201A802F54472CDE914319C
:1023400011918DF85C301C938DF8883027932C9276
:102350008DF8B43016941DF06DF920460449FFF74E
:102360007BFF2EB010BD00BF0000273430356270F7
:1023700000102F34F0B5BBB0E422002101A81EF0FC
:10238000ADFA1023112104244FF488258DF8043070
:102390004423402001224FF488374FF48856DFF859
:1023A00064C0CDE91C13CDE90A5CCDE90834CDE960
:1023B0001334CDE91E34159520930F4D0F4BCDE905
:1023C0000200CDE90D000DEB0400CDE90412CDE9CA
:1023D0000F12CDE91A12CDE918222193CDE9067624
:1023E000CDE9117616951CF0C9FE28460449FFF781
:1023F00033FF3BB0F0BD00BF000027340040323453
:1024000000402B3400002E3410B5AEB0B4220021B1
:1024100001A81EF063FA4FF488644FF4883140221B
:102420002A231120CDE90614CDE90222CDE90D229F
:102430008DF804300A910123119144224FF4885100
:10244000CDE90403CDE90803CDE90F03CDE912126C
:1024500004204FF48822CDE9140202F1E2420E4C2E
:10246000A2F52202A2F526620B942192A4F534244F
:1024700002F5447201A88DF830301C9327932C92FA
:102480008DF8B43016941DF071F920460349FFF71A
:10249000E3FE2EB010BD00BF0040323400402B34AC
:1024A00030B5AFB0B422002101A81EF017FA4FF4E6
:1024B000883040224FF48861CDE90222CDE906013F
:1024C000CDE90D224FF4885144222A23CDE912127E
:1024D0000A9011904FF48822042011248DF80430C2
:1024E0000123CDE9140202F1E242A2F52202CDE974
:1024F0000443CDE90843CDE90F430D4D0D4CA2F542
:102500002E62219201A802F544728DF830301C939E
:102510008DF8883027932C928DF8B4300B95169453
:102520001DF024F929462046FFF796FE2FB030BD56
:102530000040323400002E3410B51F49AEB01F48A1
:10254000FFF760FEB422002101A81EF0C7F92A237C
:1025500011228DF8043001231949CDE90423CDE976
:102560000823CDE90F23CDE906220A920B9111929F
:1025700004214422CDE91412CDE91222114A124C51
:102580000DEB0100219202F54472CDE90233CDE951
:102590000D338DF830301C938DF8883027932C92B2
:1025A0008DF8B43016941DF0E1F820460249FFF78B
:1025B00053FE2EB010BD00BF604032344040323474
:1025C00050403234103562700040323400B520493A
:1025D000AFB02048FFF716FEB422002101A81EF07C
:1025E0007DF9282311228DF8043001234421042091
:1025F000CDE90423CDE90F23CDE91323CDE9112241
:1026000006921592144ACDE90901169202F174520C
:10261000A2F55002CDE90711A2F52A620F492192D5
:10262000684402F54472CDE90233CDE90D330B91D4
:102630008DF85C301C9327932C928DF8B4301CF0ED
:10264000F9FF03490348FFF707FE2FB000BD00BFA5
:1026500080403234404032345040323400403234D2
:1026600010B51C4998B01C48FFF7CCFD6022002132
:1026700068461EF033F93F238DF8003040234FF4B5
:102680008830CDE901334FF488534FF4882CCDE9DD
:1026900005034423042001221121104CCDE9073009
:1026A000CDE909C4CDE9123004F534246846CDE9FA
:1026B0000312CDE90E12CDE91013CDE90C221493CB
:1026C00015941CF005FF20460249FFF7C5FD18B020
:1026D00010BD00BF60403234404032340000273427
:1026E00008B5042104481BF067F8BDE8084005213F
:1026F00002481BF037BF00BF986B0434846B04346E
:1027000008B5022104481BF057F8BDE80840032132
:1027100002481BF027BF00BFD0690434C4690434E9
:1027200008B50D2104481BF047F8BDE808400B210F
:1027300002481BF017BF00BF0C680434E067043484
:1027400008B5052104481BF037F8BDE8084006210C
:1027500002481BF007BF00BFBC630434A463043409
:1027600008B5042104481BF027F8BDE808400521FE
:1027700002481BF0F7BE00BF786104346461043482
:1027800008B5052104481BF017F8BDE808400621EC
:1027900002481BF0E7BE00BF745F04345C5F043482
:1027A00008B5042104481BF007F8BDE808400521DE
:1027B00002481BF0D7BE00BF305D04341C5D0434FA
:1027C00008B5032104481AF0F7FFBDE808400421CA
:1027D00002481BF0C7BE00BF4C5B04343C5B0434B2
:1027E00008B5072104481AF0E7FFBDE808400721B3
:1027F00002481BF0B7BE00BF7C5904346059043452
:1028000008B5042104481AF0D7FFBDE808400521A7
:1028100002481BF0A7BE00BFC4560434B0560434AF
:1028200008B5032104481AF0C7FFBDE80840042199
:1028300002481BF097BE00BFE0540434D054043467
:1028400008B50D2104481AF0B7FFBDE808400B2178
:1028500002481BF087BE00BFB052043484520434D7
:1028600008B5042104481AF0A7FFBDE80840052177
:1028700002481BF077BE00BF704E04345C4E043437
:1028800008B5032104481AF097FFBDE80840042169
:1028900002481BF067BE00BF8C4C04347C4C0434EF
:1028A00008B50F2104481AF087FFBDE808400D2144
:1028B00002481BF057BE00BF3C4A0434084A0434A7
:1028C00008B5132104481AF077FFBDE8084011212C
:1028D00002481BF047BE00BF4C4404340844043493
:1028E00008B50F2104481AF067FFBDE808400D2124
:1028F00002481BF037BE00BF3C3D0434083D0434A1
:1029000008B5082104481AF057FFBDE8084009211E
:1029100002481BF027BE00BFFC370434D83704340C
:1029200008B5132104481AF047FFBDE808401121FB
:1029300002481BF017BE00BFB833043474330434AC
:1029400008B5112104481AF037FFBDE808400F21EF
:1029500002481BF007BE00BF882C04344C2C043402
:1029600008B5082104481AF027FFBDE808400921EE
:1029700002481BF0F7BD00BF9826043474260434C7
:1029800008B5132104481AF017FFBDE808401121CB
:1029900002481BF0E7BD00BF542204341022043467
:1029A00008B5112104481AF007FFBDE808400F21BF
:1029B00002481BF0D7BD00BF241B0434E81A0434BE
:1029C00008B5082104481AF0F7FEBDE808400921BF
:1029D00002481BF0C7BD00BF341504341015043481
:1029E00008B5132104481AF0E7FEBDE8084011219C
:1029F00002481BF0B7BD00BFF0100434AC10043423
:102A000008B50C2104481AF0D7FEBDE808400B2198
:102A100002481BF0A7BD00BF100A0434E4090434C7
:102A200008B5082104481AF0C7FEBDE8084009218E
:102A300002481BF097BD00BF9405043470050434B0
:102A400008B5112104481AF0B7FEBDE808400F216F
:102A500002481BF087BD00BF700104343401043408
:102A600008B50E2104481AF0A7FEBDE808400D2164
:102A700002481BF077BD00BF30FB0334FCFA03347F
:102A800008B5082104481AF097FEBDE8084009215E
:102A900002481BF067BD00BF04F60334E0F50334C1
:102AA00008B5112104481AF087FEBDE808400F213F
:102AB00002481BF057BD00BFE0F10334A4F103341A
:102AC00008B50E2104481AF077FEBDE808400D2134
:102AD00002481BF047BD00BFA0EB03346CEB03348E
:102AE00008B5082104481AF067FEBDE8084009212E
:102AF00002481BF037BD00BF74E6033450E60334D0
:102B000008B5112104481AF057FEBDE808400F210E
:102B100002481BF027BD00BF50E2033414E2033427
:102B200008B50A2104481AF047FEBDE8084009210B
:102B300002481BF017BD00BF50DC03342CDC03340B
:102B400008B5052104481AF037FEBDE80840062103
:102B500002481BF007BD00BFC4D80334ACD803340F
:102B600008B5102104481AF027FEBDE808400F21DF
:102B700002481BF0F7BC00BFC0D5033484D5033432
:102B800008B50C2104481AF017FEBDE808400A21D8
:102B900002481BF0E7BC00BFB0CF033488CF03343A
:102BA00008B50C2104481AF007FEBDE808400B21C7
:102BB00002481BF0D7BC00BF40CB033414CB033416
:102BC00008B5052104481AF0F7FDBDE808400621C4
:102BD00002481BF0C7BC00BF04C70334ECC6033473
:102BE00008B50E2104481AF0E7FDBDE808400C21A5
:102BF00002481BF0B7BC00BF20C40334F0C3033449
:102C000008B50C2104481AF0D7FDBDE808400B2197
:102C100002481BF0A7BC00BF10BF0334E4BE03345E
:102C200008B5052104481AF0C7FDBDE80840062193
:102C300002481BF097BC00BFD4BA0334BCBA0334BB
:102C400008B50E2104481AF0B7FDBDE808400C2174
:102C500002481BF087BC00BFF0B70334C0B7033491
:102C600008B50C2104481AF0A7FDBDE808400B2167
:102C700002481BF077BC00BFE0B20334B4B20334A7
:102C800008B5052104481AF097FDBDE80840062163
:102C900002481BF067BC00BFA4AE03348CAE033403
:102CA00008B50E2104481AF087FDBDE808400C2144
:102CB00002481BF057BC00BFC0AB033490AB0334D9
:102CC00008B5072104481AF077FDBDE80840072140
:102CD00002481BF047BC00BF00A70334E4A603343E
:102CE00008B5052104481AF067FDBDE80840062133
:102CF00002481BF037BC00BF38A4033420A40334BF
:102D000008B50F2104481AF057FDBDE808400F210F
:102D100002481BF027BC00BF44A1033408A10334C0
:102D200008B5092104481AF047FDBDE8084009210B
:102D300002481BF017BC00BF749B0334509B033444
:102D400008B5052104481AF037FDBDE80840062102
:102D500002481BF007BC00BFFC970334E497033420
:102D600008B5082104481AF027FDBDE808400821ED
:102D700002481BF0F7BB00BF789503345895033425
:102D800008B5092104481AF017FDBDE808400921DB
:102D900002481BF0E7BB00BF20920334FC910334D0
:102DA00008B5052104481AF007FDBDE808400621D2
:102DB00002481BF0D7BB00BFA88E0334908E0334AB
:102DC00008B5082104481AF0F7FCBDE808400821BE
:102DD00002481BF0C7BB00BF248C0334048C0334AF
:102DE00008B5072104481AF0E7FCBDE808400721B0
:102DF00002481BF0B7BB00BFEC880334D088033413
:102E000008B5052104481AF0D7FCBDE808400621A2
:102E100002481BF0A7BB00BF248603340C86033492
:102E200008B5052104481AF0C7FCBDE80840062192
:102E300002481BF097BB00BFD0830334B883033430
:102E400008B50D2104481AF0B7FCBDE808400D2173
:102E500002481BF087BB00BFFC800334C8800334EA
:102E600008B5052104481AF0A7FCBDE80840062172
:102E700002481BF077BB00BF207C0334087C03347E
:102E800008B5052104481AF097FCBDE80840062162
:102E900002481BF067BB00BFCC790334B47903341C
:102EA00008B50D2104481AF087FCBDE808400B2145
:102EB00002481BF057BB00BFF8760334CC760334CE
:102EC00008B5052104481AF077FCBDE80840062142
:102ED00002481BF047BB00BFA87203349072033452
:102EE00008B5052104481AF067FCBDE80840062132
:102EF00002481BF037BB00BF547003343C700334EE
:102F000008B5072104481AF057FCBDE8084007211E
:102F100002481BF027BB00BFE06D0334C46D0334CF
:102F200008B5052104481AF047FCBDE80840062111
:102F300002481BF017BB00BF186B0334006B03344F
:102F400008B5052104481AF037FCBDE80840062101
:102F500002481BF007BB00BFC4680334AC680334ED
:102F600008B5022104481AF027FCBDE808400321F7
:102F700002481BF0F7BA00BFA0660334946603341E
:102F800008B5124903201BF015F8114900201AF06A
:102F90004BFF01220F4900201AF056FC01220E4976
:102FA00007201AF051FC01220C4908201AF04CFCB1
:102FB00004210B481AF0ECFB0A490B48FFF722F9F1
:102FC000BDE80840052109481AF05CBB4C6B04348D
:102FD0001C6B0434D46A04348C6A0434446A0434A8
:102FE000046A04340050333400403234F06904344D
:102FF00008B50E4903201AF0DDFF01220C49062016
:103000001AF022FC01220B4910461AF01DFC012285
:10301000094902201AF018FC032108481AF0B8FBED
:10302000BDE80840042106481AF02CBB045B0434B8
:10303000BC5A0434745A04342C5A0434FC590434F1
:10304000EC59043408B50E4902201AF0B3FF0122EE
:103050000C4906201AF0F8FB01220B4910461AF021
:10306000F3FB0122094903201AF0EEFB0321084873
:103070001AF08EFBBDE80840042106481AF002BB96
:10308000985404345054043408540434C053043461
:10309000905304348053043408B50E4900201AF0CC
:1030A00089FF01220C4904201AF0CEFB01220B49B2
:1030B00002201AF0C9FB0122094906201AF0C4FBBC
:1030C000032108481AF064FBBDE8084004210648C3
:1030D0001AF0D8BA444C0434FC4B0434B44B0434D6
:1030E0006C4B04343C4B04342C4B043408B50C4971
:1030F00000201AF05FFF01220A4903201AF0A4FB06
:103100000122094909201AF09FFB022107481AF001
:103110003FFBBDE80840032105481AF0B3BA00BFE1
:103120005C66033414660334CC650334AC65033445
:10313000A065033408B50C4900201BF025F90122D5
:103140000A4900201AF080FB0122094908201AF0E0
:103150007BFB022107481AF01BFBBDE80840032156
:1031600005481AF08FBA00BF9869043450690434D6
:1031700008690434E8680434DC68043408B51E497E
:1031800003201AF0C7FC1D4900201AF0C3FC1C499B
:1031900001201AF0BFFC1B4902201AF0BBFC1A499F
:1031A00001201AF007FF0122184900201AF04CFBF9
:1031B0000122174908201AF047FB01221549062071
:1031C0001AF042FB0122144905201AF03DFB0122AE
:1031D000124910461AF038FB0122114903201AF057
:1031E00033FB0D210F481AF0D3FABDE808400B213C
:1031F0000D481AF047BA00BFA46704346867043466
:103200002C670434F0660434B86604347066043401
:1032100028660434E0650434986504345065043449
:1032200008650434386404340C64043408B5124965
:1032300002201AF06FFC114902201AF0BBFE10495F
:1032400000201AF0B7FE01220E4903201AF0FCFA02
:1032500001220D4900201AF0F7FA01220B4909203A
:103260001AF0F2FA05210A481AF092FABDE808406D
:10327000062108481AF006BA68630434306304343F
:10328000F8620434B06204346862043420620434A6
:10329000D0610434B861043408B5104901201AF033
:1032A00039FC0F4903201AF085FE01220D49002048
:1032B0001AF0CAFA01220C4903201AF0C5FA0122B9
:1032C0000A4908201AF0C0FA042109481AF060FAE5
:1032D000BDE80840052107481AF0D4B92861043434
:1032E000F0600434A860043460600434186004346E
:1032F000D85F0434C45F043408B5124900201AF0C2
:1033000009FC114900201AF055FE104901201AF05D
:1033100051FE01220E4905201AF096FA01220D49AC
:1033200004201AF091FA01220B4910461AF08CFA87
:1033300005210A481AF02CFABDE808400621084881
:103340001AF0A0B9205F0434E85E0434B05E04349F
:10335000685E0434205E0434D85D0434885D04342F
:10336000705D043408B5104903201AF0D3FB0F49EF
:1033700002201AF01FFE01220D4905201AF064FAFE
:1033800001220C4906201AF05FFA01220A490420A2
:103390001AF05AFA042109481AF0FAF9BDE808406F
:1033A000052107481AF06EB9E05C0434A85C0434C7
:1033B000605C0434185C0434D05B0434905B0434E7
:1033C0007C5B043408B5174901201AF0A3FB1649A9
:1033D00002201AF09FFB154901201AF0EBFD012293
:1033E000134910461AF030FA0122124905201AF04A
:1033F0002BFA0122104900201AF026FA01220F4967
:1034000009201AF021FA07210D481AF0C1F90D49D7
:103410000D48FEF7F7FEBDE8084007210B481AF0FB
:1034200031B900BF24590434E8580434B058043486
:103430006858043420580434D8570434905704345E
:103440002057043400602E3400002E340457043416
:1034500008B5104900201AF05DFB0F4900201AF052
:10346000A9FD01220D4905201AF0EEF901220C49AF
:1034700006201AF0E9F901220A4903201AF0E4F9BA
:10348000042109481AF084F9BDE8084005210748DD
:103490001AF0F8B8745604343C560434F455043425
:1034A000AC550434645504342455043410550434A4
:1034B00008B5204901201AF02DFB1F4902201AF0FF
:1034C00029FB1E4903201AF025FB1D4900201AF094
:1034D00021FB1C4903201AF06DFD01221A4904202A
:1034E0001AF0B2F90122194907201AF0ADF90122A8
:1034F000174902201AF0A8F90122164909201AF0EA
:10350000A3F90122144903201AF09EF9012213495C
:1035100005201AF099F90D2111481AF039F91149CD
:103520001148FEF76FFEBDE808400B210F481AF066
:10353000A9B800BF485204340C520434D0510434AA
:10354000945104345C51043414510434CC50043488
:10355000845004343C500434F44F0434AC4F0434ED
:10356000DC4E043400A0343400803434B04E0434D3
:1035700008B5104900201AF0CDFA0F4901201AF0C1
:1035800019FD01220D4905201AF05EF901220C49AE
:1035900009201AF059F901220A4903201AF054F9B6
:1035A000042109481AF0F4F8BDE80840052107484D
:1035B0001AF068B8204E0434E84D0434A04D0434A9
:1035C000584D0434104D0434D04C0434BC4C0434F5
:1035D00008B5254900201AF09DFA244901201AF067
:1035E00099FA234902201AF095FA224903201AF089
:1035F00091FA214902201AF0DDFC01221F49002026
:103600001AF022F901221E4908201AF01DF90122A0
:103610001C4910461AF018F901221B4904201AF01F
:1036200013F90122194906201AF00EF9012218494E
:1036300005201AF009F90122164902201AF004F9AE
:103640000122154903201AF0FFF80F2113481AF040
:103650009FF813491348FEF7D5FDBDE808400D213A
:1036600011481AF00FB800BFCC4904349049043413
:103670005449043418490434E04804349848043464
:103680005048043408480434C047043478470434AC
:1036900030470434E8460434A0460434B0450434CA
:1036A00000503434004034347C45043408B52C498F
:1036B00000201AF02FFA2B4901201AF02BFA2A4980
:1036C00002201AF027FA294903201AF023FA284980
:1036D00000201AF06FFC274901201AF06BFC2649E4
:1036E00003201AF067FC0122244902201AF0ACF8EA
:1036F0000122234905201AF0A7F8012221490320BD
:103700001AF0A2F80122204904201AF09DF80122A3
:103710001E4910461AF098F801221D4900201AF09F
:1037200093F801221B4906201AF08EF801221A494B
:1037300009201AF089F80122184907201AF084F8A4
:103740000122174908201AF07FF8132115481AF0B2
:103750001FF8BDE808401121134819F093BF00BFBE
:10376000CC430434904304345443043418430434A5
:10377000E0420434A8420434704204342842043441
:10378000E041043498410434504104340841043485
:10379000C04004347840043430400434E83F0434FA
:1037A000A03F0434703E04342C3E043408B5234951
:1037B00001201AF0AFF9224902201AF0ABF9214991
:1037C00003201AF0A7F9204900201AF0A3F91F4995
:1037D00002201AF0EFFB01221D4904201AF034F8F0
:1037E00001221C4910461AF02FF801221A4909201B
:1037F0001AF02AF80122194900201AF025F80122AE
:10380000174906201AF020F80122164907201AF05D
:103810001BF80122144908201AF016F80122134956
:1038200005201AF011F80F21114819F0B1FFBDE879
:1038300008400D210F4819F025BF00BFCC3C0434CF
:10384000903C0434543C0434183C0434E03B0434CD
:10385000983B0434503B0434083B0434C03A0434ED
:10386000783A0434303A0434E8390434A039043462
:10387000B03804347C38043408B5194900201AF0F3
:1038800049F9184903201AF095FB174900201AF04E
:1038900091FB164901201AF08DFB012214490620E4
:1038A00019F0D2FF01221349052019F0CDFF0122A2
:1038B0001149032019F0C8FF01221049022019F014
:1038C000C3FF01220E49072019F0BEFF08210D4851
:1038D00019F05EFFBDE8084009210B4819F0D2BE7F
:1038E0009C370434643704342C370434F4360434FD
:1038F000AC360434643604341C360434D435043411
:103900008C3504340C350434E834043408B52C49BF
:1039100000201AF0FFF82B4901201AF0FBF82A4981
:1039200002201AF0F7F8294903201AF0F3F8284981
:1039300001201AF03FFB274902201AF03BFB2649E1
:1039400000201AF037FB01222449082019F07CFFDF
:1039500001222349104619F077FF0122214909204D
:1039600019F072FF01222049052019F06DFF012294
:103970001E49062019F068FF01221D49002019F098
:1039800063FF01221B49022019F05EFF01221A4940
:10399000032019F059FF01221849042019F054FF9F
:1039A00001221749072019F04FFF1321154819F07C
:1039B000EFFEBDE808401121134819F063BE00BFB7
:1039C00038330434FC320434C032043484320434D6
:1039D0004C32043414320434DC3104349431043471
:1039E0004C31043404310434BC30043474300434B5
:1039F0002C300434E42F04349C2F0434542F04342A
:103A00000C2F0434DC2D0434982D043408B52749D8
:103A100001201AF07FF8264902201AF07BF8254988
:103A200003201AF077F8244900201AF073F823498C
:103A300003201AF0BFFA224900201AF0BBFA012233
:103A40002049062019F000FF01221F49072019F024
:103A5000FBFE01221D49104619F0F6FE01221C4909
:103A6000032019F0F1FE01221A49042019F0ECFE9E
:103A700001221949082019F0E7FE012217490920FF
:103A800019F0E2FE01221649002019F0DDFE0122A4
:103A90001449022019F0D8FE1121134819F078FEBC
:103AA000BDE808400F21114819F0ECBD102C04347A
:103AB000D42B0434982B04345C2B0434242B04348E
:103AC000EC2A0434A42A04345C2A0434142A04346E
:103AD000CC290434842904343C290434F4280434E3
:103AE000AC280434642804345427043418270434DC
:103AF00008B5194900201AF00DF8184902201AF0EB
:103B000059FA174900201AF055FA164901201AF0FF
:103B100051FA01221449072019F096FE0122134997
:103B2000082019F091FE01221149032019F08CFEA2
:103B300001221049002019F087FE01220E490520BC
:103B400019F082FE08210D4819F022FEBDE8084058
:103B500009210B4819F096BD382604340026043498
:103B6000C825043490250434482504340025043441
:103B7000B82404347024043428240434A8230434DE
:103B80008423043408B52C49002019F0C3FF2B49C5
:103B9000012019F0BFFF2A49022019F0BBFF294973
:103BA000032019F0B7FF284901201AF003FA27492A
:103BB00003201AF0FFF9264900201AF0FBF9012230
:103BC0002449002019F040FE01222349104619F033
:103BD0003BFE01222149052019F036FE0122204931
:103BE000062019F031FE01221E49082019F02CFE92
:103BF00001221D49072019F027FE01221B4902203E
:103C000019F022FE01221A49042019F01DFE01229A
:103C10001849092019F018FE01221749032019F04C
:103C200013FE1321154819F0B3FDBDE8084011211A
:103C3000134819F027BD00BFD4210434982104345F
:103C40005C21043420210434E8200434B0200434FE
:103C50007820043430200434E81F0434A01F0434D6
:103C6000581F0434101F0434C81E0434801E04344A
:103C7000381E0434F01D0434A81D0434781C0434A8
:103C8000341C043408B52749012019F043FF2649A4
:103C9000022019F03FFF2549032019F03BFF24497A
:103CA000002019F037FF234902201AF083F9224936
:103CB00000201AF07FF901222049022019F0C4FDEA
:103CC00001221F49072019F0BFFD01221D490420D0
:103CD00019F0BAFD01221C49092019F0B5FD012295
:103CE0001A49062019F0B0FD01221949104619F0B1
:103CF000ABFD01221749002019F0A6FD012216494B
:103D0000082019F0A1FD01221449032019F09CFD9F
:103D10001121134819F03CFDBDE808400F2111485E
:103D200019F0B0BCAC1A0434701A0434341A0434D8
:103D3000F8190434C01904348819043440190434BF
:103D4000F8180434B0180434681804342018043403
:103D5000D817043490170434481704340017043477
:103D6000F0150434B415043408B51949002019F0CD
:103D7000D1FE184903201AF01DF9174900201AF046
:103D800019F9164901201AF015F9012214490920E0
:103D900019F05AFD01221349062019F055FD0122A0
:103DA0001149032019F050FD01221049042019F097
:103DB0004BFD01220E49052019F046FD08210D4852
:103DC00019F0E6FCBDE8084009210B4819F05ABC7F
:103DD000D41404349C140434641404342C140434B3
:103DE000E41304349C130434541304340C130434C7
:103DF000C4120434441204342012043408B52C498B
:103E0000002019F087FE2B49012019F083FE2A4972
:103E1000022019F07FFE2949032019F07BFE284972
:103E200000201AF0C7F8274901201AF0C3F82649E4
:103E300002201AF0BFF801222449002019F004FDE5
:103E400001222349082019F0FFFC012221491046D4
:103E500019F0FAFC01222049042019F0F5FC012296
:103E60001E49022019F0F0FC01221D49062019F01C
:103E7000EBFC01221B49092019F0E6FC01221A493A
:103E8000072019F0E1FC01221849052019F0DCFC9B
:103E900001221749032019F0D7FC1321154819F006
:103EA00077FCBDE808401121134819F0EBBB00BFB7
:103EB0007010043434100434F80F0434BC0F04348C
:103EC000840F04344C0F0434140F0434CC0E043427
:103ED000840E04343C0E0434F40D0434AC0D04346C
:103EE000640D04341C0D0434D40C04348C0C0434E0
:103EF000440C0434140B0434D00A043408B51E49AD
:103F0000012019F007FE1D49022019F003FE1C498B
:103F1000032019F0FFFD1B4903201AF04BF8012282
:103F20001949062019F090FC01221849072019F0C0
:103F30008BFC01221649052019F086FC0122154947
:103F4000002019F081FC01221349022019F07CFCA9
:103F500001221249032019F077FC0122104909209F
:103F600019F072FC0C210F4819F012FCBDE8084052
:103F70000B210D4819F086BBA80904346C090434E0
:103F800030090434F8080434B008043468080434F0
:103F900020080434D8070434900704344807043454
:103FA00000070434400604341406043408B51949E3
:103FB000002019F0AFFD1849022019F0FBFF174946
:103FC000002019F0F7FF1649012019F0F3FF012234
:103FD0001449052019F038FC01221349022019F078
:103FE00033FC01221149042019F02EFC0122104952
:103FF000002019F029FC01220E49104619F024FC7A
:1040000008210D4819F0C4FBBDE8084009210B4800
:1040100019F038BB34050434FC040434C4040434FB
:104020008C04043444040434FC030434B403043422
:104030006C03043424030434A402043480020434E2
:1040400008B52749002019F065FD2649012019F01F
:1040500061FD2549022019F05DFD2449032019F076
:1040600059FD2349012019F0A5FF2249032019F029
:10407000A1FF2149002019F09DFF01221F490920BD
:1040800019F0E2FB01221E49052019F0DDFB012297
:104090001C49042019F0D8FB01221B49104619F0D5
:1040A000D3FB01221949002019F0CEFB0122184947
:1040B000062019F0C9FB01221649072019F0C4FB9C
:1040C00001221549022019F0BFFB1121134819F0F4
:1040D0005FFBBDE808400F21114819F0D3BA00BFBB
:1040E000F8000434BC000434800004344400043478
:1040F0000C000434D4FF03349CFF033454FF033416
:104100000CFF0334C4FE03347CFE033434FE03345A
:10411000ECFD0334A4FD03345CFD03344CFC033498
:1041200010FC033408B52349012019F0F3FC22499F
:10413000022019F0EFFC2149032019F0EBFC204983
:10414000022019F037FF1F49002019F033FF012228
:104150001D49042019F078FB01221C49062019F0A2
:1041600073FB01221A49082019F06EFB012219493C
:10417000032019F069FB01221749072019F064FB9D
:1041800001221649092019F05FFB01221449002081
:1041900019F05AFB01221349052019F055FB0E2195
:1041A000114819F0F5FABDE808400D210F4819F043
:1041B00069BA00BFC0FA033484FA033448FA0334FE
:1041C00010FA0334D8F9033490F9033448F903346E
:1041D00000F90334B8F8033470F8033428F80334D2
:1041E000E0F7033498F70334B8F6033484F6033465
:1041F00008B51949002019F08DFC1849032019F061
:10420000D9FE1749002019F0D5FE1649012019F0F2
:10421000D1FE01221449082019F016FB012213498E
:10422000052019F011FB01221149072019F00CFBA0
:1042300001221049104619F007FB01220E49042003
:1042400019F002FB08210D4819F0A2FABDE8084058
:1042500009210B4819F016BAA4F503346CF50334A0
:1042600034F50334FCF40334B4F403346CF4033451
:1042700024F40334DCF3033494F3033414F30334ED
:10428000F0F2033408B52749002019F043FC264911
:10429000012019F03FFC2549022019F03BFC24497C
:1042A000032019F037FC2349012019F083FE22492D
:1042B000022019F07FFE2149002019F07BFE012227
:1042C0001F49052019F0C0FA01221E49022019F0E9
:1042D000BBFA01221C49072019F0B6FA01221B493A
:1042E000062019F0B1FA01221949082019F0ACFA98
:1042F00001221849032019F0A7FA012216490420C7
:1043000019F0A2FA01221549104619F09DFA11215F
:10431000134819F03DFABDE808400F21114819F083
:10432000B1B900BF68F103342CF10334F0F0033469
:10433000B4F003347CF0033444F003340CF0033461
:10434000C4EF03347CEF033434EF0334ECEE033476
:10435000A4EE03345CEE033414EE0334CCED0334EA
:10436000BCEC033480EC033408B52349012019F078
:10437000D1FB2249022019F0CDFB2149032019F07D
:10438000C9FB2049032019F015FE1F49002019F030
:1043900011FE01221D49062019F056FA01221C497E
:1043A000082019F051FA01221A49052019F04CFA97
:1043B00001221949104619F047FA01221749002035
:1043C00019F042FA01221649072019F03DFA01229C
:1043D0001449042019F038FA01221349092019F070
:1043E00033FA0E21114819F0D3F9BDE808400D2128
:1043F0000F4819F047B900BF30EB0334F4EA033437
:10440000B8EA033480EA033448EA033400EA0334A8
:10441000B8E9033470E9033428E90334E0E80334ED
:1044200098E8033450E8033408E8033428E70334F9
:10443000F4E6033408B51949002019F06BFB18495C
:10444000012019F0B7FD1749002019F0B3FD1649F6
:10445000022019F0AFFD01221449072019F0F4F9E8
:1044600001221349062019F0EFF901221149092010
:1044700019F0EAF901221049022019F0E5F90122A8
:104480000E49002019F0E0F908210D4819F080F9D3
:10449000BDE8084009210B4819F0F4B814E60334CC
:1044A000DCE50334A4E503346CE5033424E503348C
:1044B000DCE4033494E403344CE4033404E40334D0
:1044C00084E3033460E3033408B52749002019F07E
:1044D00021FB2649012019F01DFB2549022019F076
:1044E00019FB2449032019F015FB2349022019F078
:1044F00061FD2249002019F05DFD2149032019F0DA
:1045000059FD01221F49072019F09EF901221E4979
:10451000042019F099F901221C49052019F094F999
:1045200001221B49062019F08FF9012219490020A8
:1045300019F08AF901221849104619F085F901226B
:104540001649022019F080F901221549082019F0B6
:104550007BF91121134819F01BF9BDE808400F2120
:10456000114819F08FB800BFD8E103349CE103343F
:1045700060E1033424E10334ECE00334B4E00334B9
:104580007CE0033434E00334ECDF0334A4DF033491
:104590005CDF033414DF0334CCDE033484DE033405
:1045A0003CDE03342CDD0334F0DC033408B5194958
:1045B000012019F0AFFA1849022019F0ABFA174997
:1045C000032019F0A7FA1649012019F0F3FC012283
:1045D0001449002019F038F901221349062019F076
:1045E00033F901221149022019F02EF90122104954
:1045F000052019F029F901220E49082019F024F9A3
:104600000A210D4819F0C4F8BDE8084009210B48FB
:1046100019F038B8F0DB0334B4DB033478DB03344F
:1046200040DB0334F8DA0334B0DA033468DA0334F5
:1046300020DA0334D8D9033438D9033414D90334F5
:1046400008B51249002019F065FA1149032019F044
:10465000B1FC1049002019F0ADFC01220E490720E1
:1046600019F0F2F801220D49082019F0EDF80122A5
:104670000B49042019F0E8F805210A4819F088F8D8
:10468000BDE808400621084818F0FCBF70D8033484
:1046900038D8033400D80334B8D7033470D7033480
:1046A00028D70334D8D60334C0D6033408B52749F5
:1046B000002019F02FFA2649012019F02BFA25497C
:1046C000022019F027FA2449032019F023FA23497C
:1046D000012019F06FFC2249022019F06BFC2149DE
:1046E000002019F067FC01221F49082019F0ACF8DE
:1046F00001221E49002019F0A7F801221C490920B7
:1047000019F0A2F801221B49032019F09DF801229B
:104710001949062019F098F801221849104619F095
:1047200093F801221649072019F08EF80122154945
:10473000052019F089F81021134819F029F8BDE86F
:1047400008400F21114818F09DBF00BF48D5033421
:104750000CD50334D0D4033494D403345CD4033460
:1047600024D40334ECD30334A4D303345CD3033410
:1047700014D30334CCD2033484D203343CD2033474
:10478000F4D10334ACD10334ACD0033470D003344F
:1047900008B51C49002019F0BDF91B49012019F08A
:1047A000B9F91A49022019F0B5F91949032019F08D
:1047B000B1F901221749042019F046F801221649DF
:1047C000032019F041F801221449002019F03CF8A7
:1047D00001221349022019F037F80122114910462D
:1047E00019F032F801221049062019F02DF80C2199
:1047F0000E4818F0CDFFBDE808400A210C4818F01B
:1048000041BF00BF4CCF033410CF0334D4CE0334A8
:1048100098CE033450CE033408CE0334C0CD0334D5
:1048200078CD033430CD0334E8CC033428CC0334C2
:1048300000CC033408B51E49012019F06BF91D495D
:10484000022019F067F91C49032019F063F91B498C
:10485000002019F0AFFB1A49032019F0ABFB01222D
:104860001849072018F0F0FF01221749092018F015
:10487000EBFF01221549022018F0E6FF012214493E
:10488000042018F0E1FF01221249082018F0DCFF93
:1048900001221149052018F0D7FF0C210F4818F00C
:1048A00077FFBDE808400B210D4818F0EBBE00BFB4
:1048B000D8CA03349CCA033460CA033428CA0334F8
:1048C000F0C90334A8C9033460C9033418C90334D8
:1048D000D0C8033488C8033440C8033480C70334C5
:1048E00054C7033408B51249002019F013F91149CF
:1048F000012019F05FFB1049022019F05BFB012237
:104900000E49052018F0A0FF01220D49042018F0DF
:104910009BFF01220B49022018F096FF05210A484F
:1049200018F036FFBDE808400621084818F0AABE76
:10493000B0C6033478C6033440C60334F8C5033424
:10494000B0C5033468C5033418C5033400C5033447
:1049500008B52049002019F0DDF81F49012019F0A1
:10496000D9F81E49022019F0D5F81D49032019F085
:10497000D1F81C49002019F01DFB1B49032019F038
:1049800019FB01221949022018F05EFF0122184983
:10499000092018F059FF01221649082018F054FF89
:1049A00001221549002018F04FFF0122134910463B
:1049B00018F04AFF01221249062018F045FF0E2187
:1049C000104818F0E5FEBDE808400C210E4818F02C
:1049D00059BE00BFB4C3033478C303343CC30334AB
:1049E00000C30334C8C2033490C2033448C2033442
:1049F00000C20334B8C1033470C1033428C1033486
:104A0000E0C0033400C00334D0BF033408B51E49EE
:104A1000012019F07FF81D49022019F07BF81C498C
:104A2000032019F077F81B49012019F0C3FA1A493D
:104A3000022019F0BFFA01221849032018F004FFE0
:104A400001221749052018F0FFFE01221549022016
:104A500018F0FAFE01221449082018F0F5FE012290
:104A60001249062018F0F0FE01221149092018F021
:104A7000EBFE0C210F4818F08BFEBDE808400B211F
:104A80000D4818F0FFBD00BFA8BE03346CBE033450
:104A900030BE0334F8BD0334C0BD033478BD0334E5
:104AA00030BD0334E8BC0334A0BC033458BC033429
:104AB00010BC033450BB033424BB033408B5124983
:104AC000002019F027F81149002019F073FA104955
:104AD000032019F06FFA01220E49082018F0B4FEE5
:104AE00001220D49042018F0AFFE01220B490220DB
:104AF00018F0AAFE05210A4818F04AFEBDE8084051
:104B00000621084818F0BEBD80BA033448BA033401
:104B100010BA0334C8B9033480B9033438B9033444
:104B2000E8B80334D0B8033408B52049002018F0A1
:104B3000F1FF1F49012018F0EDFF1E49022018F077
:104B4000E9FF1D49032018F0E5FF1C49012019F079
:104B500031FA1B49022019F02DFA012219490720C8
:104B600018F072FE01221849022018F06DFE012291
:104B70001649092018F068FE01221549002018F096
:104B800063FE01221349082018F05EFE012212493B
:104B9000042018F059FE0E21104818F0F9FDBDE868
:104BA00008400C210E4818F06DBD00BF84B70334D7
:104BB00048B703340CB70334D0B6033498B6033483
:104BC00060B6033418B60334D0B5033488B5033463
:104BD00040B50334F8B40334B0B40334D0B3033471
:104BE000A0B3033408B51E49012018F093FF1D49F6
:104BF000022018F08FFF1C49032018F08BFF1B497F
:104C0000002019F0D7F91A49032019F0D3F901222D
:104C10001849092018F018FE01221749072018F03A
:104C200013FE01221549002018F00EFE012214493E
:104C3000022018F009FE01221249082018F004FE93
:104C400001221149052018F0FFFD0C210F4818F032
:104C50009FFDBDE808400B210D4818F013BD00BFB3
:104C600078B203343CB2033400B20334C8B1033425
:104C700090B1033448B1033400B10334B8B0033405
:104C800070B0033428B00334E0AF033420AF0334F2
:104C9000F4AE033408B51249002018F03BFF114967
:104CA000022019F087F91049012019F083F9012237
:104CB0000E49062018F0C8FD01220D49042018F005
:104CC000C3FD01220B49002018F0BEFD05210A4852
:104CD00018F05EFDBDE808400621084818F0D2BC77
:104CE00050AE033418AE0334E0AD033498AD033452
:104CF00050AD033408AD0334B8AC0334A0AC033476
:104D000008B52049032018F005FF1F49002018F0BE
:104D100001FF1E49012018F0FDFE1D49022018F078
:104D2000F9FE1C49032019F045F91B49002019F030
:104D300041F901221949022018F086FD0122184983
:104D4000032018F081FD01221649104618F07CFD61
:104D500001221549042018F077FD01221349002093
:104D600018F072FD01221249052018F06DFD0E2188
:104D7000104818F00DFDBDE808400C210E4818F051
:104D800081BC00BF54AB033418AB0334DCAA03343A
:104D9000A0AA033468AA033430AA0334E8A9033470
:104DA000A0A9033458A9033410A90334C8A80334B4
:104DB00080A80334A0A7033470A7033408B51549AD
:104DC000012018F0A7FE1449022018F0A3FE134991
:104DD000012019F0EFF801221149072018F034FDE5
:104DE00001221049052018F02FFD01220E49032051
:104DF00018F02AFD01220D49022018F025FD072197
:104E00000B4818F0C5FCBDE808400721094818F018
:104E100039BC00BFA8A603346CA6033434A60334FF
:104E2000ECA50334A4A503345CA5033414A5033412
:104E3000A4A4033488A4033408B51249002018F050
:104E400069FE1149022019F0B5F81049002019F047
:104E5000B1F801220E49002018F0F6FC01220D499C
:104E6000092018F0F1FC01220B49062018F0ECFC97
:104E700005210A4818F08CFCBDE8084006210848C6
:104E800018F000BCE4A30334ACA3033474A30334CC
:104E90002CA30334E4A203349CA203344CA20334B5
:104EA00034A2033408B52749022018F033FE2649FE
:104EB000002018F02FFE2549012018F02BFE244970
:104EC000032018F027FE2349012019F073F8224926
:104ED000032019F06FF82149002019F06BF8012226
:104EE0001F49062018F0B0FC01221E49092018F0C5
:104EF000ABFC01221C49052018F0A6FC01221B492D
:104F0000032018F0A1FC01221949082018F09CFC8C
:104F100001221849002018F097FC0122164910467A
:104F200018F092FC01221549042018F08DFC0F2185
:104F3000134818F02DFCBDE808400F21114818F067
:104F4000A1BB00BFCCA0033490A0033454A0033411
:104F500018A00334E09F0334A89F0334709F0334E8
:104F6000289F0334E09E0334989E0334509E0334FC
:104F7000089E0334C09D0334789D0334309D033470
:104F8000409C0334049C033408B51949032018F0ED
:104F9000C1FD1849012018F0BDFD1749002019F086
:104FA00009F81649022019F005F8012214490520D4
:104FB00018F04AFC01221349104618F045FC012262
:104FC0001149032018F040FC01221049002018F07C
:104FD0003BFC01220E49062018F036FC09210D4841
:104FE00018F0D6FBBDE8084009210B4818F04ABB71
:104FF000149B0334D89A0334A09A0334689A033478
:10500000209A0334D899033490990334489903348F
:1050100000990334709803344C98033408B512494E
:10502000002018F077FD1149012018F0C3FF104946
:10503000032018F0BFFF01220E49072018F004FCDE
:1050400001220D49022018F0FFFB01220B49042028
:1050500018F0FAFB05210A4818F09AFBBDE8084051
:105060000621084818F00EBBA89703347097033444
:1050700038970334F0960334A896033460960334CB
:1050800010960334F895033408B51749012018F039
:1050900041FD1649022018F03DFD1549002018F089
:1050A00089FF1449022018F085FF012212490420CB
:1050B00018F0CAFB01221149082018F0C5FB012293
:1050C0000F49002018F0C0FB01220E49052018F0FE
:1050D000BBFB08210C4818F05BFBBDE80840082129
:1050E0000A4818F0CFBA00BF1C950334E09403348B
:1050F000A89403347094033428940334E093033465
:105100009893033450930334D0920334B092033411
:1051100008B51949032018F0FDFC1849002018F0C3
:10512000F9FC1749012018F045FF1649032018F033
:1051300041FF01221449082018F086FB012213497F
:10514000092018F081FB01221149022018F07CFB94
:1051500001221049032018F077FB01220E49062096
:1051600018F072FB09210D4818F012FBBDE8084049
:1051700009210B4818F086BAC09103348491033496
:105180004C91033414910334CC9003348490033451
:105190003C900334F48F0334AC8F03341C8F0334FE
:1051A000F88E033408B51249022018F0B3FC1149F7
:1051B000022018F0FFFE1049002018F0FBFE01222B
:1051C0000E49002018F040FB01220D49062018F07E
:1051D0003BFB01220B49082018F036FB05210A4849
:1051E00018F0D6FABDE808400621084818F04ABA77
:1051F000548E03341C8E0334E48D03349C8D0334AD
:10520000548D03340C8D0334BC8C0334A48C0334D0
:1052100008B51749012018F07DFC1649002018F048
:1052200079FC1549032018F0C5FE1449012018F037
:10523000C1FE01221249052018F006FB0122114986
:10524000042018F001FB01220F49092018F0FCFA94
:1052500001220E49032018F0F7FA08210C4818F033
:1052600097FABDE8084008210A4818F00BBA00BFB9
:10527000C88B03348C8B0334548B03341C8B033462
:10528000D48A03348C8A0334448A0334FC8903347B
:105290007C8903345C89033408B51549022018F071
:1052A00039FC1449032018F035FC1349002018F08C
:1052B00081FE01221149002018F0C6FA012210498E
:1052C000082018F0C1FA01220E49062018F0BCFA95
:1052D00001220D49032018F0B7FA07210B4818F0F6
:1052E00057FABDE808400721094818F0CBB900BFBC
:1052F000948803345888033420880334D8870334CF
:10530000908703344887033400870334908603343E
:105310007486033408B51249002018F0FBFB1149CC
:10532000012018F047FE1049022018F043FE012228
:105330000E49052018F088FA01220D49002018F0C6
:1053400083FA01220B49022018F07EFA05210A484F
:1053500018F01EFABDE808400621084818F092B976
:10536000D08503349885033460850334188503346D
:10537000D084033488840334388403342084033491
:1053800008B51249012018F0C5FB1149032018F097
:1053900011FE1049002018F00DFE01220E490920CF
:1053A00018F052FA01220D49032018F04DFA01229B
:1053B0000B49022018F048FA05210A4818F0E8F9CC
:1053C000BDE808400621084818F05CB97C83033426
:1053D000448303340C830334C48203347C82033457
:1053E00034820334E4810334CC81033408B5224988
:1053F000022018F08FFB2149032018F08BFB204975
:10540000012018F0D7FD1F49022018F0D3FD1E49D6
:10541000002018F07FFB1D49002018F0CBFD012271
:105420001B49002018F010FA01221A49092018F02F
:105430000BFA01221849052018F006FA0122174933
:10544000104618F001FA01221549022018F0FCF963
:1054500001221449032018F0F7F90122124906200D
:1054600018F0F2F90D21114818F092F9BDE8084042
:105470000D210F4818F006B98C8003345080033496
:1054800018800334E07F0334A47F03346C7F03343B
:10549000247F0334DC7E0334947E03344C7E033457
:1054A000047E0334BC7D0334747D0334A47C033454
:1054B000707C033408B51249012018F02BFB114908
:1054C000032018F077FD1049002018F073FD012229
:1054D0000E49052018F0B8F901220D49062018F0F0
:1054E000B3F901220B49002018F0AEF905210A4852
:1054F00018F04EF9BDE808400621084818F0C2B877
:10550000CC7B0334947B03345C7B0334147B033403
:10551000CC7A0334847A0334347A03341C7A033427
:1055200008B51249002018F0F5FA1149022018F0C8
:1055300041FD1049012018F03DFD01220E490320D4
:1055400018F082F901220D49092018F07DF9012295
:105550000B49082018F078F905210A4818F018F9C5
:10556000BDE808400621084818F08CB87879033463
:105570004079033408790334C078033478780334ED
:1055800030780334E0770334C877033408B51E4914
:10559000022018F0BFFA1D49032018F0BBFA1C497D
:1055A000002018F0B7FA1B49012018F0B3FA1A4985
:1055B000002018F0FFFC01221849062018F044F9D9
:1055C00001221749104618F03FF901221549002021
:1055D00018F03AF901221449072018F035F9012290
:1055E0001249092018F030F901221149022018F05F
:1055F0002BF90D210F4818F0CBF8BDE808400B211E
:105600000D4818F03FB800BF907603345476033449
:1056100018760334DC750334A47503345C750334E5
:1056200014750334CC740334847403343C7403342D
:10563000F473033424730334F872033408B5124945
:10564000012018F067FA1149032018F0B3FC104943
:10565000012018F0AFFC01220E49062018F0F4F8E2
:1056600001220D49032018F0EFF801220B49002018
:1056700018F0EAF805210A4818F08AF8BDE8084051
:105680000621084817F0FEBF547203341C7203341D
:10569000E47103349C710334547103340C7103348A
:1056A000BC700334A470033408B51249002018F00C
:1056B00031FA1149022018F07DFC1049002018F041
:1056C00079FC01220E49104618F0BEF801220D495E
:1056D000002018F0B9F801220B49072018F0B4F89F
:1056E00005210A4818F054F8BDE80840062108488A
:1056F00017F0C8BF00700334C86F0334906F0334D1
:10570000486F0334006F0334B86E0334686E03349B
:10571000506E033408B51549022018F0FBF91449FE
:10572000032018F0F7F91349012018F043FC012277
:105730001149104618F088F801221049042018F089
:1057400083F801220E49082018F07EF801220D4945
:10575000062018F079F807210B4818F019F8BDE871
:1057600008400721094817F08DBF00BF886D03343A
:105770004C6D0334146D0334CC6C0334846C0334EB
:105780003C6C0334F46B0334846B0334686B033474
:1057900008B51249012018F0BDF91149032018F08D
:1057A00009FC1049002018F005FC01220E490820D0
:1057B00018F04AF801220D49042018F045F801229A
:1057C0000B49104618F040F805210A4817F0E0FF91
:1057D000BDE808400621084817F054BFC46A0334E6
:1057E0008C6A0334546A03340C6A0334C469033486
:1057F0007C6903342C6903341469033408B51249F5
:10580000002018F087F91149012018F0D3FB104946
:10581000022018F0CFFB01220E49002018F014F8E6
:1058200001220D49062018F00FF801220B4907202C
:1058300018F00AF805210A4817F0AAFFBDE8084049
:105840000621084817F01EBF706803343868033417
:1058500000680334B867033470670334286703347F
:10586000D8660334C066033410B5E8B04FF4D07284
:10587000002168461BF032F84FF440744FF4C040EA
:105880002D23CDE905040990324818220A904020C2
:105890008DF800300123CDE90C004FF4C0644FF4C3
:1058A000C030CDE90323CDE90723CDE90E23CDE9AF
:1058B0001223294A20212092A2F540722B9202F550
:1058C0004472CDE910041490369210200422234C27
:1058D000CDE901118DF82C308DF858301B938DF8DF
:1058E0008430269331938DF8DC301594CDE9433321
:1058F000CDE94A20CDE948001948CDE945234C902F
:105900000820CDE95D32CDE95003CDE94E33CDE934
:105910005933CDE95B33134BCDE952016293124BFE
:10592000CDE95412649302238DF89C3103235691E0
:105930000E496846CDE95F224792579161928DF8F2
:105940009D3119F0AFFF20460949FCF785FC68B08E
:1059500010BD00BF00002E3490386270000031345A
:105960000035627080356270000040BFB0346270F4
:105970000080323470B5E8B04FF4D0720021684630
:105980001AF0ACFF4FF400514FF400702D23CDE915
:10599000051009914FF480604FF40041202210243B
:1059A0008DF800300123CDE9101014912B492C4EB5
:1059B0002091A1F540712B4D2B9101F54471369149
:1059C000A1F564710420CDE90323CDE90723CDE9D6
:1059D0000E23CDE91223CDE90C228DF82C308DF861
:1059E00058301B938DF88430269331938DF8DC303A
:1059F000CDE901440A961595CDE943334C91082130
:105A0000CDE94503CDE95013CDE95D30CDE94E3305
:105A1000CDE95933CDE95B33134BCDE95212629393
:105A2000124BCDE95420649302238DF89C3103235B
:105A300056920F4ACDE94704CDE94940CDE95F00D0
:105A40006190684657928DF89D314B9419F02AFF6A
:105A500031462846FCF700FC68B070BD70386270B3
:105A6000008034340000343460356270000040BF80
:105A70009034627070B5E8B04FF4D072002168467F
:105A80001AF02CFF2D2340228DF8003001234FF413
:105A900080514FF40070CDE90323CDE90723CDE910
:105AA0000E23CDE91223304ACDE905100991209249
:105AB0004FF480414FF48065A2F540722B9202F5BD
:105AC00044721020082436920422CDE91015274E86
:105AD000274DCDE90C008DF82C3014918DF85830FD
:105AE0001B938DF88430269331938DF8DC30CDE90B
:105AF00001440A961595CDE94333CDE94523CDE917
:105B00005D32CDE94E33CDE95043CDE95933CDE98E
:105B10005B33184BCDE947206293174BCDE949021F
:105B2000649302234B9020208DF89C31032301F1D4
:105B3000E241A1F51E01A1F53261CDE95520CDE983
:105B400053004C9168467039CDE95F2257916192BC
:105B50008DF89D31529419F0A5FE31462846FCF788
:105B60007BFB68B070BD00BF5038627000403434B9
:105B70000000343440356270000040BF0048704778
:105B80003872043400487047187204340320704798
:105B900000207047032070470020704701207047A5
:105BA0000120704700487047D86B043400487047A4
:105BB00030650334004870479864033400487047E8
:105BC000A84F0334027D436802B11B688068184403
:105BD000704740B103684BB9C36BB3F5003F3CBF9E
:105BE0004FF44033C3634FF44030704700200B60E4
:105BF00070470000F7B51E4600230F4601A9044672
:105C00000193FFF7E6FFB0F5003F15460BD2254B99
:105C1000019A9A420BD034B1E36BB3F5003F3CBF1D
:105C20004FF44033E3634FF4403003B0F0BD4DB95F
:105C3000002CF8D0E36BB3F5003F01D21A4BE363BD
:105C40001948F2E736B1FFF7B5FF30B9012300205C
:105C50002B60EAE7FFF7B2FF28B104463946236814
:105C60001BB9002EF2D15E23F1E7BFB1237D8BB1CA
:105C7000A3682BB192210D4B0D4A0E4819F076FF07
:105C80002046FFF79FFFC306086007D094210A4B08
:105C9000074AF2E72046FFF795FF086038340431E1
:105CA000DDE700BFB872043401000200597C023401
:105CB00058720434787C0234C17C02342DE9F341FB
