:0200000470107A
:1000000053544D32000000000000000000000000CA
:1000100000000000000000000000000000000000E0
:1000200000000000000000000000000000000000D0
:1000300000000000000000000000000000000000C0
:1000400000000000000000000000000000000000B0
:1000500000000000000000000000000000000000A0
:1000600000000000A56225020003020040410600D6
:10007000F50A023400000000FFFFFFFF000000004F
:100080000000000000000080A0010000000000004F
:100090000000000000000000000000000000000060
:1000A0005354FFFFA0010000C5D86B6F8525134195
:1000B000877C231E3B1225A59764A5D5BFB44C575A
:1000C000C52C5D4F77FBB2EC3B9AC1244C907CD49D
:1000D000C667889D8443EE127BBBF244B0DFF545D2
:1000E000D8F175445D39315527EB51AC39786EDA6A
:1000F000246518716F5BF49BAEAB0B44ACCBFCB4C6
:1001000084522B5A49396C969680008AE4478A7942
:1001100069CFD6157F20F40472CFB76E05485F64AF
:10012000B05ED028D15DF18759B251586F2EEF5390
:1001300015F1157B406A8B0CF05FA1224DC8BFE71B
:100140004E2276B56581067C9FAF20B802B0D5AF50
:100150002DD35F9254533A3E89B78126F6DCFEBC1C
:1001600022DE6D423F98FFF46D2CF61131C7C49921
:10017000FCD03EFE7B9F6766B8A9F83673D92C5A2F
:10018000E8D5AC959C0CAE7870E673F67426F25DFB
:100190004DE81690C0803F95A03AB3C588A0EACE3E
:1001A000A8FABED13186DA40AE90C92D5A472BD677
:1001B000B95424224BB9575484DEA1268F01F5E9A6
:1001C00011742BCEF0DC9A5F495DDF9E2EFD7D45DC
:1001D00071818B3209A9F28774510EEE619877FA1A
:1001E000D3FB74D181ECA8616AC9E7D4271D93CCF5
:1001F0004307C893BE67E40C6EC8E1070064FF11B3
:10020000EC9EBB5C0265598495E171B73E359F9ABF
:1002100025F80149359E70BB3E8F82039AB9C429E7
:10022000E2E4B4BCC42058C9EB6A31410F43D6980C
:10023000DF951E220D2609D6542566C0CC6BAF2B48
:1002400000000000000000000000000000000000AE
:10025000000000000000000000000000000000009E
:10026000000000000000000000000000000000008E
:10027000000000000000000000000000000000007E
:10028000000000000000000000000000000000006E
:10029000000000000000000000000000000000005E
:1002A000000000000000000000000000000000004E
:1002B000000000000000000000000000000000003E
:1002C000000000000000000000000000000000002E
:1002D000000000000000000000000000000000001E
:1002E000000000000000000000000000000000000E
:1002F00000000000000000000000000000000000FE
:1003000000000000000000000000000000000000ED
:1003100000000000000000000000000000000000DD
:1003200000000000000000000000000000000000CD
:1003300000000000000000000000000000000000BD
:1003400000000000000000000000000000000000AD
:10035000000000000000000000000000000000009D
:10036000000000000000000000000000000000008D
:10037000000000000000000000000000000000007D
:10038000000000000000000000000000000000006D
:10039000000000000000000000000000000000005D
:1003A000000000000000000000000000000000004D
:1003B000000000000000000000000000000000003D
:1003C000000000000000000000000000000000002D
:1003D000000000000000000000000000000000001D
:1003E000000000000000000000000000000000000D
:1003F00000000000000000000000000000000000FD
:1004000000001034F50A0234312A0034352A003451
:10041000452A0034552A0034652A0034752A0034F0
:10042000000000000000000000000000852A0034E9
:10043000872A003400000000892A00348B2A003407
:10044000510B023400000000510B0234510B0234F6
:10045000510B0234510B0234510B0234510B023454
:10046000510B023400000000510B0234510B0234D6
:10047000510B023429240034510B023400000000D7
:10048000510B023400000000510B0234510B0234B6
:10049000510B0234510B0234510B0234510B023414
:1004A000510B0234510B0234510B0234510B023404
:1004B000510B0234510B0234510B0234510B0234F4
:1004C000510B0234510B0234510B0234510B0234E4
:1004D000510B0234510B0234510B0234510B0234D4
:1004E000510B023400000000510B0234510B023456
:1004F000510B0234510B0234510B02348F2A003459
:100500009D2A0034000000000000000000000000F0
:10051000510B02348DFE0134510B0234510B023465
:10052000510B0234510B0234510B0234510B023483
:10053000510B0234510B0234510B0234510B023473
:10054000510B0234510B0234510B0234510B023463
:10055000510B0234510B0234510B0234510B023453
:1007400000000000510B0234510B02340000000085
:1007500010B5054C237833B9044B13B10448AFF3FB
:1007600000800123237010BD804306340000000088
:100770004CD3023408B5034B1BB103490348AFF314
:10078000008008BD00000000844306344CD30234CE
:10079000034613F8012B002AFBD1181A01387047C1
:1007A00081F0004102E000BF83F0004330B54FEA22
:1007B00041044FEA430594EA050F08BF90EA020F8F
:1007C0001FBF54EA000C55EA020C7FEA645C7FEA22
:1007D000655C00F0E2804FEA5454D4EB5555B8BF45
:1007E0006D420CDD2C4480EA020281EA030382EAB6
:1007F000000083EA010180EA020281EA0303362D48
:1008000088BF30BD11F0004F4FEA01314FF4801C1A
:100810004CEA113102D0404261EB410113F0004F2C
:100820004FEA03334CEA133302D0524263EB4303E3
:1008300094EA050F00F0A780A4F10104D5F1200E81
:100840000DDB02FA0EFC22FA05F2801841F10001DC
:1008500003FA0EF2801843FA05F359410EE0A5F1B0
:1008600020050EF1200E012A03FA0EFC28BF4CF0E1
:10087000020C43FA05F3C01851EBE37101F0004597
:1008800007D54FF0000EDCF1000C7EEB00006EEBA4
:100890000101B1F5801F1BD3B1F5001F0CD349082E
:1008A0005FEA30004FEA3C0C04F101044FEA445285
:1008B00012F5800F80F09A80BCF1004F08BF5FEA0C
:1008C000500C50F1000041EB045141EA050130BDEC
:1008D0005FEA4C0C404141EB0101013C28BFB1F5FE
:1008E000801FE9D291F0000F04BF01460020B1FA49
:1008F00081F308BF2033A3F10B03B3F120020CDA1C
:100900000C3208DD02F1140CC2F10C0201FA0CF0F9
:1009100021FA02F10CE002F11402D8BFC2F1200C5E
:1009200001FA02F120FA0CFCDCBF41EA0C01904014
:10093000E41AA2BF01EB0451294330BD6FEA04045D
:100940001F3C1CDA0C340EDC04F11404C4F1200248
:1009500020FA04F001FA02F340EA030021FA04F35A
:1009600045EA030130BDC4F10C04C4F1200220FAB1
:1009700002F001FA04F340EA0300294630BD21FAEF
:1009800004F0294630BD94F0000F83F4801306BFB5
:1009900081F480110134013D4EE77FEA645C18BFA9
:1009A0007FEA655C29D094EA050F08BF90EA020F40
:1009B00005D054EA000C04BF1946104630BD91EA38
:1009C000030F1EBF0021002030BD5FEA545C05D13B
:1009D0004000494128BF41F0004130BD14F580047A
:1009E0003CBF01F5801130BD01F0004545F0FE41EE
:1009F00041F470014FF0000030BD7FEA645C1ABF23
:100A0000194610467FEA655C1CBF0B46024650EA59
:100A1000013406BF52EA033591EA030F41F4002185
:100A200030BD00BF90F0000F04BF0021704730B50B
:100A30004FF4806404F132044FF000054FF00001E0
:100A400050E700BF90F0000F04BF0021704730B5A1
:100A50004FF4806404F1320410F0004548BF404276
:100A60004FF000013EE700BF42004FEAE2014FEACB
:100A700031014FEA02701FBF12F07F4393F07F4FA6
:100A800081F06051704732F07F4208BF704793F0A9
:100A90007F4F04BF41F40021704730B54FF46074BC
:100AA00001F0004521F000411CE700BF50EA0102BF
:100AB00008BF704730B54FF000050AE050EA010268
:100AC00008BF704730B511F0004502D5404261EBD8
:100AD00041014FF4806404F132045FEA915C3FF419
:100AE000D8AE4FF003025FEADC0C18BF03325FEAB6
:100AF000DC0C18BF033202EBDC02C2F1200300FA67
:100B000003FC20FA02F001FA03FE40EA0E0021FA8B
:100B100002F11444BDE600BF7BB972B90029BEBF23
:100B200000204FF0004106E008BF00281CBF6FF016
:100B300000414FF0FF3000F035BAADF1080C6DE91F
:100B400004CE002909DB002B1ADB00F085F8DDF864
:100B500004E0DDE9022304B07047404261EB41014B
:100B6000002B1BDB00F078F8DDF804E0DDE9022360
:100B700004B0404261EB4101524263EB43037047D2
:100B8000524263EB430300F067F8DDF804E0DDE96F
:100B9000022304B0404261EB41017047524263EBD3
:100BA000430300F059F8DDF804E0DDE9022304B066
:100BB000524263EB4303704753B94AB9002908BF57
:100BC00000281CBF4FF0FF314FF0FF3000F0EAB9B2
:100BD000ADF1080C6DE904CE00F03EF8DDF804E05C
:100BE000DDE9022304B07047024608B50B4643EC2A
:100BF000172BB5EEC07BF1EE10FA03D4BDE8084028
:100C000000F00AB8B1EE477B51EC170B00F004F886
:100C1000404261EB410108BD9FED0B6B41EC170BAE
:100C20009FED0B5B27EE066BBCEEC66BB8EE464B3A
:100C300016EE101AA4EE457BFCEEC77B17EE900A69
:100C4000704700BFAFF30080000000000000F03DDF
:100C5000000000000000F0412DE9F04F8C46099E95
:100C600004460F46002B48D18A4215465ED9B2FA97
:100C700082F33BB1C3F120029F409D409C4020FA8B
:100C800002F217434FEA154E1FFA85FC220CB7FB00
:100C9000FEF10EFB117701FB0CF042EA0742904295
:100CA00007D9AA1801F1FF3702D2904200F2588109
:100CB0003946121AA4B2B2FBFEF00EFB102200FB62
:100CC0000CFC44EA0244A4450BD92C1900F1FF3274
:100CD0002CBF01270027A44502D9002F00F0438133
:100CE000104640EA0140A4EB0C0400211EB1DC4098
:100CF0000023C6E90043BDE8F08F8B4206D90EB150
:100D0000C6E9000100210846BDE8F08FB3FA83F17F
:100D1000002951D16345C0F01681824240F213810F
:100D20000846002EE7D0C6E90047E4E7002A00F0B5
:100D3000AF80B2FA82F3002B40F0C2808A1A4FEAE9
:100D4000154EAFB20121200CB2FBFEFC0EFB1C22A3
:100D500040EA024207FB0CF090420ED9AA180CF1AF
:100D6000FF382CBF4FF001094FF00009904203D922
:100D7000B9F1000F00F0F080C446121AA4B2B2FB21
:100D8000FEF00EFB102200FB07F744EA0244A742E4
:100D90000ED92C1900F1FF322CBF4FF0010E4FF08D
:100DA000000EA74203D9BEF1000F00F0D28010461A
:100DB000E41B40EA0C4099E7C1F120058B400CFA96
:100DC00001F400FA01F922FA05F72CFA05FC8A4031
:100DD0001F4320FA05F3380C23431FFA87FE1C0C2F
:100DE000BCFBF0F800FB18CC44EA0C4408FB0EFCFA
:100DF000A4450ED93C1908F1FF3A2CBF4FF0010B66
:100E00004FF0000BA44503D9BBF1000F00F0B880F0
:100E1000D046A4EB0C041FFA83FCB4FBF0F300FBF8
:100E2000134403FB0EFE4CEA0444A6450ED93C19BC
:100E300003F1FF302CBF4FF0010C4FF0000CA64522
:100E400003D9BCF1000F00F09F80034643EA08403D
:100E5000A4EB0E04A0FB02EC64457346E04602D30B
:100E600007D1F14505D2BEEB02036CEB070C01384C
:100E7000E0465EB1B9EB030264EB080404FA05F541
:100E800022FA01F3CC401D43C6E90054002132E7A9
:100E900042082F464B08AC4642EAC172AE46C40730
:100EA000110C92B241EA034142EA0142B1FBF5F171
:100EB000B3FBF5F01F23A2EB0C0241EA004142E72D
:100EC0009D40C3F1200299409C402CFA02FC4FEA5D
:100ED000154E20FA02F2AFB2BCFBFEF80A430EFB3D
:100EE00018CC110C41EA0C4108FB07FC8C4550D989
:100EF000691808F1FF302CBF4FF001094FF00009CD
:100F00008C4502D9B9F1000F30D0A1EB0C01B1FB37
:100F1000FEF808FB07FC0EFB181192B242EA0142F0
:100F2000624534D2AA1808F1FF312CBF4FF00109F5
:100F30004FF000096245BED2B9F1000FBBD1A8F154
:100F400002012A44B7E7841A6CEB0302012017461A
:100F5000E7E62C4402382BE7ACF1020C2A440CE7FC
:100F600002392A44A5E62C440238BAE6A5EB0C0C5B
:100F7000A8F102006144B1FBFEF808FB07FCCAE7D8
:100F8000A8F102083C4444E7023B3C445EE741468A
:100F900091E7A1EB0C014046B1FBFEF808FB07FC12
:100FA000B9E700BF704700BF044B82B0C3F84C0ADA
:100FB000D3F84C320193019B02B070470080025677
:100FC000044B82B0C3F88C0AD3F88C320193019B96
:100FD00002B0704700800256044B82B0C3F8A00AEA
:100FE000D3F8A0320193019B02B0704700800256F3
:100FF000F0B5134C056822680E68AA42C8BF0260AB
:1010000063680F689F42A768B8BF0B603A440768DF
:10101000974224BF02F1FF320260E26813440A687B
:101020009A4224BF03F1FF330B600368AB4204D143
:101030000868801B18BF0120F0BD0120FCE700BF3D
:10104000982606340A4BD3ED027AF8EE677A67EEFB
:10105000807AFDEEE77AC0ED007AD3ED037AF8EE00
:10106000677A67EEA07AFDEEE77AC1ED007A704705
:10107000982606340E4BD3ED027AB8EE677AD3ED9C
:10108000007AF8EE677AE7EE007AFDEEE77AC0EDD7
:10109000007AD3ED037AB8EE677AD3ED017AF8EEF1
:1010A000677AE7EE207AFDEEE77AC1ED007A7047C5
:1010B0009826063470B5ADF51A7D402200216846A9
:1010C00020F000FC9822002110A820F0FBFB4FF438
:1010D000C872002136A820F0F5FB012011F0D6FFE0
:1010E0000125002319227D210226CDE91D32CDE9FB
:1010F00025150822E121CDE91A63CDE92163CDE967
:101100002323CDE92932CDE92B31CDE92F63CDE978
:1011100031231093062310A8CDE91F55CDE927569A
:10112000CDE92D56CDE934331C9633910BF022FCDA
:1011300000B1FEE74FF440337F22CDE900234FF0AA
:10114000407302934FF08053CDE90C354FF00053BC
:10115000CDE90E354FF48013CDE90805CDE90A0637
:10116000CDE90330CDE90500079068460BF0FCFFA0
:1011700000B1FEE7084B002261934FF44003CDE934
:101180003623064B36A862930CF068FB00B1FEE7ED
:101190000DF51A7D70BD00BF140000031404000398
:1011A0007FB5CDE9041004A905A8CDE90232FFF707
:1011B0001FFF02A903A8FFF71BFFDDE90410089B2E
:1011C0000093DDE902321CF003FE07B000BD000011
:1011D0002DE9F04F2DED028B484ADDB0136843F442
:1011E00000531360464B1A6A22F440321A621A6A9C
:1011F00022F040721A6205F0B3FF424B5A6912F4B2
:10120000003211D1BFF34F8FBFF36F8FC3F850225D
:10121000BFF34F8FBFF36F8F5A6942F400325A61A8
:10122000BFF34F8FBFF36F8F344A136843F480537B
:101230001360A2F57342536913F4803328D1C2F8C6
:101240008430BFF34F8F43F6E074D2F88030C3F39D
:10125000C900C3F34E335B0100F1010E01464EF0AD
:1012600001E003EA040646EA8175C2F860520139DA
:101270000FF007C8203B13F1200FEDD1BFF34F8FC4
:10128000536943F480335361BFF34F8FBFF36F8FC4
:10129000FFF710FF10231A4C0227C4F86C3AD4F859
:1012A0006C124FF001081291129AC4F85C3AD4F80B
:1012B0005C2215481192119B60232E9307232EA9BF
:1012C0003293CDE92F78319708F00CFE0F4A104B7E
:1012D0004FF00C0C13604FF4E13353600023C2E96C
:1012E000043CC2E9023393614FF400431046D361DA
:1012F00009F006FD054668B1FEE700BF00E001E029
:101300000080025600ED00E0001002562CE7063483
:10131000001000524FF000494FF4805BC4F8609A0F
:10132000D4F8602240461492149BB74BC4F8209A1C
:10133000C3F82092FFF738FE3846FFF735FE042049
:10134000FFF732FE0820FFF72FFEC4F854BAD4F896
:1013500054122EA81391139AAC4ACDE92F552E9210
:101360000AF0ECFFAA4A2EA82E920AF0E7FFA94A3B
:101370002EA82E920AF0E2FFA74A2EA82E920AF07B
:10138000DDFF01F0DBF801F0E5FB284613F0DAFDA4
:10139000284613F0FBFE40F201124FF4007A0326B8
:1013A0001AA92846ADF8682013F088FC284613F0E7
:1013B000F5FBC4F858AAD4F85812404615912EA946
:1013C000159A2E972F960AF0DFFE08202EA90AF014
:1013D000DBFE09202EA90AF0D7FE0A202EA90AF06A
:1013E000D3FE0B202EA90AF0CFFE31468B480AF01F
:1013F00021FF31468A480AF01DFF314689480AF02C
:1014000019FF314688480AF015FF314687480AF02F
:1014100011FF314686480AF00DFF314685480AF033
:1014200009FF4FF48062C4F8582AD4F85802764B6A
:10143000169016992020C4F8182AC3F81822FFF72E
:10144000CBFD5846FFF7C8FD4846FFF7C5FD4FF0F6
:101450008040FFF7C1FDC4F8BC7AD4F8BC223846FE
:1014600019920422199BFFF7B7FDC4F8BC2AD4F8DF
:10147000BC1250461891189B4023C4F8BC3AD4F8CB
:10148000BC120DF130091791179BFFF799FD8020D1
:10149000FFF796FD4FF48070FFF792FD4046FFF78F
:1014A0008FFD3846FFF78CFD1046FFF789FD0820B9
:1014B000FFF786FD604820F0EBF8604A604961481C
:1014C00020F07EF8604A6149614820F079F843468F
:1014D00032460E215F4820F073F82B4632464146D3
:1014E0005D4820F06DF82B462A4631465B4820F0D7
:1014F00067F85B495B4820F063F85B495B4820F084
:101500005FF80DAC4C4820F0C3F8CDE90E55C9F892
:10151000005025601EF06DFD30B14FF4FE71544B4C
:10152000544A55481FF016FB544805F083F820B183
:1015300040F2FF114E4B4F4AF3E750482EA905F0F9
:10154000BBF820B140F20221494B4A4AE9E7BDF815
:10155000E830012B04D040F20321494B454AE0E733
:1015600023603D9B474945483AAA1E6805F09EF80E
:1015700020B140F209213E4B3E4AD2E722463F4885
:101580000EA905F096F8C8B92468282104F1010EC7
:101590004EF001E03E9A0FABBEF1010E13D14FF0B9
:1015A00001083948CDF84080CDF8688005F0F2F8A0
:1015B00080B140F21D212E4B344AB2E740F20D219A
:1015C0002B4B2C4AADE701FB00F41459013043F8D2
:1015D000044BE1E72E4B42462B482EA92E9305F0F3
:1015E000A9FB20B140F22321214B284A99E7294940
:1015F000254810AA05F052FB00284DD040F22621C4
:101600001B4B224A8DE700BF009002560031025268
:101610008031025200320252803202520A000030FF
:10162000050000301C0000201D00002006000030D6
:101630000700003008000030E0D5023409D602343B
:101640000DD6023419D6023448D6023451D60234AB
:101650005DD6023477D602348FD60234A1D6023456
:10166000BBD60234F0D60234FED6023415D702348B
:1016700025D70234A308033439D70234C8E6063428
:1016800044D7023424E7063498E606349408033439
:10169000C0430634CCC70634A149A2481AAA05F0B3
:1016A00023FB014620B140F229219F4B9F4A38E796
:1016B0004FF4E1529E4B9F481A6008229E4B9F4C6C
:1016C0001A602C2220F0FEF8404684F8228011F0A7
:1016D00019FD404611F006FD99481AA904F0ECFFE7
:1016E000074620B140F207118F4B964A19E71AA915
:1016F000954801F001F8954819F0D8FA05F04EFD2B
:10170000934D944B4A4618602946281F19F0BCFC9B
:101710004146384613F060F9A5F10C0359689A6800
:10172000DB6855F80C0C8C4D0B44EB600223024433
:10173000DFF85C922860A9606A6039462A4638461C
:101740002B61C5F8149013F053F9844B186859684D
:101750009A68DB6802440B44EB6004232B61804BE6
:101760002860A9606A6041462A4638466B6113F0DA
:101770003FF97C481CF0ECF840461CF01DF9384657
:101780001CF060FC78481CF04DF94FF0FF301CF065
:1017900039F976497648774B774A01F065F839464A
:1017A000484619F0D1FC0CAD19F0F6FC2B68B3F5E6
:1017B000407F63D00421714B186819F0D9FC704B3D
:1017C0001A68002AFCD000221A602B68B3F5407F0B
:1017D00079D06A4B1A6802F01F03BFF34F8F03F1F1
:1017E000030E1C3B4FEA5E1E20330EF1010ED8BFE4
:1017F0004FF0010E4EF001E06249C1F85C22203248
:101800000FF005C8BFF34F8FBFF36F8F4FF4807396
:101810000320CDE900305C4F58482A6839680068D9
:1018200019F0B4F9002E1EDD3B6803F01F023244AC
:10183000BFF34F8F6FEA030E98188644203A4FEAA1
:101840005E1E20320EF1010ED8BF4FF0010E4EF099
:1018500001E04C49C1F8703220330FF005C8BFF3E6
:101860004F8FBFF36F8F05F099FC09900221344828
:1018700004F0F8FE112845D120BFF7E7002E4248BA
:101880001EDD036803F01F023244BFF34F8F6FEA7F
:10189000030E9F18BE44203A4FEA5E1E20320EF11E
:1018A000010ED8BF4FF0010E4EF001E03549C1F8EE
:1018B0005C3220330FF005C8BFF34F8FBFF36F8F3B
:1018C0000421006879E7002ECDDD2F4B1B6803F063
:1018D0001F023244BFF34F8F6FEA030E98188644FD
:1018E000203A4FEA5E1E20320EF1010ED8BF4FF0B3
:1018F000010E4EF001E02349C1F85C3220330FF0B5
:1019000005C8ACE710380128B0D90D4804F024FF11
:10191000054600283ED040F2CB11034B1B4A00E69F
:10192000C8C7063498E6063425D702349408033431
:10193000C4C7063430E60634C0C706345CE6063455
:10194000C8E60634B6080334C4E70634D4C7063400
:10195000A4260634D0C706340CE70634882606349D
:101960000000009104DD04349C410634451000342D
:10197000F10F0034A11100347510003408E706346B
:1019800028E7063400ED00E024E706348608033437
:101990000070179105F002FC0A9028460DF13C0CEE
:1019A0000DAF396881427ED8C84BC94A0EA800F0F5
:1019B000B9FE0021C74AD7F800C0C2E9041111805E
:1019C00082F8201082F82310918440210027C2E978
:1019D0000A1111210346506357600E989760D76033
:1019E0001163BCF1000F2CD058B3DDF83CE0BEF120
:1019F000000F26DD074617F9011B8644AEEB070EE4
:101A00000EF1010E08464EF001E0BEF1010E72D15A
:101A1000AE4F117097ED037A97F910705070C91B93
:101A200007EE901AF8EEE77A67EE877AC11BC2EDEF
:101A3000017A07EE901AF8EEE77A67EE877AC2ED40
:101A4000027AA34A1068002800F00B8100F1CC0252
:101A50000B9200222EAFBB4680469446924691469A
:101A600011469FED9D7ADFED9D3ADFED9D6A4FF0C7
:101A7000110E0890D8ED027AB4EEE77AF1EE10FA82
:101A8000F4EEE37A44BFB0EE677A0121F1EE10FA8A
:101A9000EBEC017A38DB4FF001090CF1010C4FF04F
:101AA000010A013235E05CF8041B002921DD0EAB90
:101AB00053F8203003F01F020A44BFF34F8F6FEA40
:101AC000030E03EB0208C644203A4FEA5E1E2032A2
:101AD0000EF1010ED8BF4FF0010E4EF001E081492A
:101AE000C1F85C3220330FF005C8BFF34F8FBFF34E
:101AF0006F8F013055E717F901CB6145A8BF6146EB
:101B00006045B8BF604680E7F4EEE67AF1EE10FA81
:101B1000C5DABEF1010E08F10C08ABD1BAF1000F25
:101B200003D0DFF8B0E1CEF81420B9F1000F02D0F5
:101B3000684AC2F810C011B1664A82ED037A0022E9
:101B4000B8460437BE460132C2F1110CBEEC017A30
:101B5000D8ED007AB4EEE77AF1EE10FAC4BF88ED62
:101B6000007A4EED017ABCF1010CEFD1052AE7D1E4
:101B70009DED2F7ADDED2E7A77EE877A9DED307A26
:101B800077EE877A9DED317A77EE877A9DED327A1E
:101B900077EE877AB1EE047ADFED534A87EE874A13
:101BA000B4EEE44AF1EE10FAB7EE007ADFED4A7ACD
:101BB000ACBF01220022F0EE676AB0EE476AB0EED9
:101BC000478A444F87F820200B9A121A0C3A47484C
:101BD0009208424322F0404201320899D1ED025A64
:101BE000F4EEE35AF1EE10FA1DDB91ED005AB4EE7B
:101BF000C56AD1ED015AF1EE10FAB4EEE65A35FE9F
:101C0000066AF1EE10FAB4EEE57A75FE266AF1EE98
:101C100010FAF4EEE75A35FE877AF1EE10FA05F184
:101C2000010575FEA77A0899013A01F10C010891A6
:101C3000D3D1012D13D976EEC66A9FED2D6AF4EE4D
:101C4000C66AF1EE10FA3EDC77EEC77AF4EEC67A99
:101C5000F1EE10FACCBF0122002287F82520002BDC
:101C600058D00022234B03F58051C1F8582EC1F8FB
:101C7000542E002183F830221F4BC3E901221A8021
:101C8000D960196159619961DA6183F820205A623B
:101C9000DDE90923DFF87490A3EB020A0C4BDFF8AF
:101CA00070801D681549D9F80030012201FB0381BD
:101CB00013480AF035FA002800F0CC8140F2923146
:101CC000104B114A2DE40122C7E700BFC4E70634D8
:101CD000C0E706345CE6063400000000CDCCCC3D05
:101CE0000AD7A33D00ED00E0CDCC4C3EABAAAA2A1A
:101CF0009A99593FD4C7063430E6063400B80B0031
:101D0000FCF50634CED702345E08033494E606347C
:101D100000000091B4EEE44A0121F1EE10FA97F8C8
:101D2000212087F8231044DBBB6142B9FA690A44D9
:101D3000022AFA6149D987F8211087F822303A69D6
:101D4000134622B197F82530B3FA83F35B0987F87D
:101D5000243005F023FAA74ADFEDA77A1368C31AE7
:101D600000EE103AB8EE400A20EE270AB5EEC00A9F
:101D7000F1EE10FA2DD9B4EEC80AF1EE10FA28DC13
:101D80009E4BDFF8C082196810609D482EAA18F09B
:101D900093FF9C4DD8F8583EA8F580506B6019F021
:101DA0006AF92870C0B900236870AB616B61A860E4
:101DB0006EE7FB6132B1BA6901322C2ABA61BED931
:101DC00087F82130012387F82230002387F8243058
:101DD00047E79FED8D0AD3E7DFF86C92A8F58050B6
:101DE000D9F8001019F01EF9884B196800291FDD79
:101DF000D9F8003003F01F020A44BFF34F8F6FEA97
:101E0000030E98188644203A4FEA5E1E20320EF1E7
:101E1000010ED8BF4FF0010E4EF001E07C49C1F831
:101E2000683220330FF005C8BFF34F8FBFF36F8FB9
:101E300005F0B4F9DFF814928046D9F800301A683A
:101E400022F004021A601A6A910610D402230020BC
:101E5000C9F8583012F0A2FE01216E4804F012FDBC
:101E600058B34FF4F9716C4B6C4AFFF75ABB1A68C0
:101E700042F002021A6005F091F98246D9F800306A
:101E80001B6A9A0712D50222D9F800305A6205F06F
:101E900085F98246D9F800301B6A9B06D6D505F035
:101EA0007DF9A0EB0A006328F4D9CFE705F076F9B5
:101EB000A0EB0A006328E1D9E5E705F06FF9584B7C
:101EC000A0EB0800A8601868564900281FDD0B68C1
:101ED00003F01F020244BFF34F8F6FEA030E03EBC0
:101EE000020CE644203A4FEA5E1E20320EF1010E4B
:101EF000D8BF4FF0010E4EF001E04548C0F85C320B
:101F000020330FF005C8BFF34F8FBFF36F8F0B68FF
:101F10001A68EA605A682A611A686A61D3ED017A20
:101F20002B78C5ED067A002B33D09FED3F7AF4EE87
:101F3000C77AF1EE10FAACBF012300236B7005F0F5
:101F40002DF9DFF80C918046D9F800301BB1C31A87
:101F5000B3F57A7F1ED36B78AA68002B47D0334B3A
:101F6000796933480691112105913969049195EDFC
:101F7000057AB7EEC77A8DED027B95ED067AB7EE5E
:101F8000C77A2C498DED007B1FF01AFBC9F8008041
:101F900000E06B700522696A6878B1FBF2F303EB2D
:101FA0008303CB1A2B441877687F4B1C297F6B6205
:101FB0000844A97F0144E87F084495F820100144B3
:101FC00002297FF665AE042B7FF662AE1A481FF039
:101FD000F7FA05F0E3F8A862094818F067FE002355
:101FE000164A6B60137113606B622B7050E6144BD2
:101FF000B6E700BFD0C706346F12833AC0E7063495
:10200000D4C7063430E606348988883DC4C7063410
:1020100000ED00E098E6063425D702347408033456
:10202000C0C70634C8C706349A99393FD4D502349C
:102030005BD7023457D7023491D702344CE60634CA
:10204000D9D50234D4D70634CCC7063478F7063451
:10205000A0430634C04F0090D7E90223D7E900011E
:102060001BF0B4FFBD4F2DB197F8243013B12846B3
:1020700000F008FC4FF080401BF0CCFC97F8235098
:10208000002D40F0C880B6481BF0BCFC1BF0D2FC11
:102090007B6BC188012200932846B24B00F09EFC66
:1020A0004FF0FF301BF0AEFC1BF0C4FC94ED037A44
:1020B000B7EEC77AC1888DED047BA3690122039333
:1020C00063699140029311230193236900200093D7
:1020D000A54B00F083FC1BF0ADFC94ED027AB7EE4B
:1020E000C77AC1888DED047B94ED017AB7EEC77A8B
:1020F0008DED027B94F901300122019394F90030B7
:1021000001EB410100200093984B00F067FC1BF0AD
:1021100091FC636BC1880393236B01220293E36AF2
:1021200089000193A36A00200093914B00F056FCB4
:102130001BF080FCC18814208E4B414301220020FB
:10214000CDF800A000F04AFC4FF0FF301BF05AFC25
:10215000894D8A481BF066FC00201BF05BFC2B6855
:1021600013B905F01BF8286005F018F82B68C01AA1
:10217000B0F57A6F2CD26B236421814A4FF49670AC
:102180000093C8231BF05EFC4FF080401BF042FC24
:102190001BF050FCC18801227A4B0901002000F09D
:1021A0001DFC1BF047FCC1880122774B01EB01119C
:1021B000002000F013FC1BF03DFCC188122001221E
:1021C0004143724B002000F009FC00201BF022FC70
:1021D000D9F800306E4A02FB0383BFF34F8F45F6F8
:1021E000C05E4EF001E06B4AC2F8683220330FF057
:1021F00005C8BFF34F8FBFF36F8F012202216648DE
:1022000009F066FF002800F0E7804FF47C71634B13
:10221000634AFFF786B997F822305BB150481BF04C
:10222000F1FB1BF007FC0122C1885E4B002000F08F
:10223000D5FB35E75C4FBB6A1D464BB104F0AEFFE2
:10224000BB6AC51A41F287339D428CBF0025012528
:102250003B780BB9002D67D097F801B0BBF1000FA8
:102260005CD1002D5AD14FF0FF201BF0CBFB1BF0AF
:10227000E1FBC188BBF1000F54D04C4BBA68002081
:1022800007924B4A069297ED057AB7EEC77A8DED25
:10229000047B97ED067AB7EEC77A00938DED027B4B
:1022A0000122444B00F09AFB002D3FF4F9AE424B63
:1022B0004FF44872B921009300206E231BF086FE74
:1022C0003E481BF0AFFB00201BF0A4FB4FF0FF309B
:1022D0001BF098FB0122E421394B002000F07EFB2B
:1022E00026481BF09FFB6FF0FF001BF08BFB18A331
:1022F000D3E90023CDE9022397ED067ADFED317AA9
:1023000027EE277AB7EEC77A01228DED007B4FF4D6
:10231000817100202C4B00F061FBC1E64FF0010BF6
:102320002A48A2E72A4BA9E76FF0FF001BF06AFBDF
:102330001BF080FB2823C18801937B680122009356
:102340002846244B00F04AFBAAE600BFAFF300800A
:102350000000000000205240882606345CE6063467
:10236000808080FFDCD7023473D8023490D80234E6
:10237000AAD80234C1D802349C4306349C410634A6
:1023800094090334D1D80234E1D8023414D9023488
:1023900000B80B0000ED00E0FCF50634CED70234A7
:1023A0005E080334F5D7023430E60634D4D502345F
:1023B00057D70234FFD702340000DDC0A4410634F1
:1023C00021D802340000C84235D802340000FFFF93
:1023D000D9D5023456D80234D9F80030114DC3F1A2
:1023E0000103C9F80030AB6A8BB104F0D7FEAB6AC9
:1023F000C01A41F28733984209D804F0CFFE4FF457
:10240000FA73B0FBF3F202FB1300F92804D90120A0
:1024100010F068FEFFF7C7B9012010F053FEFFF778
:10242000C2B900BF30E6063408B502481FF030F9E3
:10243000FEE700BF3FD9023410B5E4B04FF4C872D4
:10244000002168461FF03EFA00231022CDE9002348
:102450004FF400134FF08051329303236846CDE9C7
:1024600022130BF0FBF948B900230822CDE9002321
:1024700028232490684625930BF0F0F964B010BD32
:102480000138012810B5144607D91FF05FFC092355
:102490004FF0FF340360204610BD4FF0FF33044877
:1024A00092B208F075FB002818BF0024F3E700BFC4
:1024B0002CE7063407B54FF080424FF48060FEF7FA
:1024C00073FD074BC3F8602AD3F86012019101999C
:1024D000C3F8202A03F58053C3F8202203B000BDBF
:1024E0000080025600BEFEE70120704708B51FF0CD
:1024F0002DFC162303604FF0FF3008BD08B51FF018
:1025000025FC16230360FEE770B50D4614460E4603
:10251000731B9C4201DC204670BDAFF3008006F8BF
:10252000010BF5E74FF0FF3070474FF400530020E8
:102530004B60704701207047002070471FB5144B57
:102540007C2101AA02A8029310F018FD0346E0B90D
:10255000019A02F4C031B1F5C03F17D042F4C03245
:102560007C2102A8019210F025FD68B97C2101AA06
:1025700002A810F003FD30B9019B03F4C033B3F59A
:10258000C03F03D0FEE7FEE7FEE7FEE705B000BD73
:102590000090005692ED017A2DE9F74F0026019048
:1025A00017EE100A3546F6EE006A98461368D2F820
:1025B00008A000FB03FE554502D103B0BDE8F08F33
:1025C000B8F1000F0CBF30462846019C0127205669
:1025D0000024A64514BFF146B94605EB0A0B00944A
:1025E000B9F101092FD1009C06EE103AB4FBF3F7C4
:1025F00003FB174407EE904AF8EE677AF8EE465A66
:1026000077EEA67A87EEA56A07EE907AF8EE677AFB
:10261000F8EE475A77EEA67A81ED006A87EEA56A52
:1026200081ED016A92F9104092ED036A001B07EEFA
:10263000900AF8EEE77A67EE867A0135C1ED027A04
:1026400076440C31B7E7B8F1000F07EB060C18BF62
:10265000DC46019CD34414F90CC06045ACBF8446F1
:10266000009760460137BBE70C23F0B58E6804463F
:10267000024603FB06060020B24200D1F0BDD1EDB8
:10268000007A91ED017AB8EE676AF8EE475AD2ED1A
:10269000007A92ED017A66EE277A25EE877AFCEED3
:1026A000E77ABCEEC77A2546124F131B9B087B4383
:1026B00023F040430133013B01D10C32DCE7D5ED7F
:1026C000006A66EE266AFCEEE66A17EE907A16EE6F
:1026D00090CA67450BD1D5ED016A65EEA66AFCEE9E
:1026E000E66A17EE107A16EE90CA674500D0013000
:1026F0000C35E0E7ABAAAA2A88B181B14A8E012A3B
:102700000DD10A6C9169126A09681288C16002745D
:102710004022C0E900221122826000F067B84FF029
:10272000FF30704730B51C46E7B00AB12D4B13603F
:10273000012904D118B105680DB102B144B9CC2208
:10274000002128481FF0BEF84FF0FF3067B030BDC1
:1027500022460B4628466946FFF71CFF0023284601
:1027600033A9FFF717FF21466846FFF77DFF0446B0
:1027700033A8FFF779FF89686B4601F1010E00224B
:10278000DFED197A4EF001E00C33BEF1010E1AD1E3
:1027900002F1010E9FED147A4EF001E033AB0C33E1
:1027A000BEF1010E15D1844205D317D1B4EEE77AFC
:1027B000F1EE10FA12DDCC220DEB020109481FF0F8
:1027C00008FB0020C2E713ED017A013277EE877A29
:1027D000DAE753ED016A37EE267AE0E7CC22694664
:1027E000ECE700BFD8E70634000000000020704787
:1027F00090ED027ADFED197AB4EEE77AF1EE10FA95
:102800007FB502460D4626D4154BD2ED010A92ED56
:10281000000A1B6803A902A89847029B114E023BBD
:102820000093039B01A9023B0193684633689847D4
:10283000029B044602330093039B684602330193D4
:1028400001A933689847044305D1DDE902012B460D
:1028500005221BF007FC04B070BD00BFCDCCCC3D01
:10286000A8E80634ACE806340349086003490A6066
:10287000034A1360704700BFACE80634A8E806348A
:10288000A4E806342DE9F04F2DED028B044689B003
:10289000029000F1CC0620464A490C34FFF7A8FF0D
:1028A000A642F8D100239FED488ADFF82081DFF8A7
:1028B00020A1DFF820B103930C23D8F80070029A0E
:1028C00003FB0727D7ED027AF4EEC87AF1EE10FA8F
:1028D0005ED4D8F8046003FB0626D6ED027AF4EE47
:1028E000C87AF1EE10FA53D4DAF8003005A904A83A
:1028F000D7ED010A97ED000AD8F808409847DBF8B1
:10290000003005A904A89847002841D1DAF8003022
:1029100007A906A8D6ED010A96ED000A9847DBF84C
:10292000003007A906A8984790BBDDE90401DDE95E
:10293000062300941BF04CFA04A80FC8A3EB010E69
:10294000A2EB000CBEF1000FB8BFCEF1000EBCF13F
:10295000000FDFF88490B8BFCCF1000CE645D9F841
:102960000050009420DD01320130A847DDE9062344
:10297000DDE904010094D9F80090013A0138C84714
:1029800021463846FFF734FF21463046FFF730FF37
:10299000039B08F10C080133122B03938CD109B06F
:1029A000BDEC028BBDE8F08F01330131A847DDE9B2
:1029B0000512079B0094D9F800900498013B013957
:1029C000DDE700BFDCA939FFCDCCCC3DBC0803342A
:1029D000A8E80634ACE80634A4E8063408B477B5B1
:1029E00004460D46164607AB53F8042B3021074822
:1029F00001931EF0C7FE334629462046034A1BF0CA
:102A0000A1F903B0BDE8704001B07047B0E80634EA
:102A100010B50446FDF7BCFE2146BDE8104082B269
:102A200041F28833014808F0B3B800BF2CE7063400
:102A30007047000008B50248FFF7EAFFFEE700BF55
:102A40005BD9023408B50248FFF7E2FFFEE700BF9A
:102A500072D9023408B50248FFF7DAFFFEE700BF7B
:102A600089D9023408B50248FFF7D2FFFEE700BF5C
:102A70009FD9023408B50248FFF7CAFFFEE700BF3E
:102A8000B7D902347047FEE7FEE704F07BBB08B518
:102A900011F086F8BDE8084005F028B908B511F036
:102AA0007FF8BDE8084004F0EABF000010B5134C01
:102AB0006369DB0321D50A1A002A1EDD00F01F031B
:102AC0001A44BFF34F8F6FEA000E1B1A02440B44E7
:102AD0009644203B4FEA5E1E20330EF1010ED8BF14
:102AE0004FF0010E4EF001E0C4F85C0220300FF010
:102AF00005C8BFF34F8FBFF36F8F10BD00ED00E02F
:102B000010B5134C6369DB0321D50A1A002A1EDDB8
:102B100000F01F031A44BFF34F8F6FEA000E1B1A19
:102B200002440B449644203B4FEA5E1E20330EF1D4
:102B3000010ED8BF4FF0010E4EF001E0C4F868025C
:102B400020300FF005C8BFF34F8FBFF36F8F10BD5C
:102B500000ED00E0074808B50268074B9A4202D032
:102B6000036009F05DFC034809F026FC0228FAD056
:102B700008BD00BFE0E8063400FC0D5808B5FFF7BB
:102B800099FC08BD10B5AEB0B422002101A81EF01A
:102B900099FE4FF488544FF48831402228231120A5
:102BA0004FF0440CCDE90614CDE90222CDE90D2207
:102BB00004244FF488624FF4882E8DF804300123EA
:102BC000CDE908C4CDE91220114C124ACDE9040325
:102BD000CDE90AE4CDE90F0304F5E024219201A830
:102BE00002F54472CDE9143111918DF85C301C93DB
:102BF0008DF8883027932C928DF8B43016941DF000
:102C00000DFD20460449FFF77BFF2EB010BD00BF2D
:102C1000000027343035627000102F34F0B5BBB09F
:102C2000E422002101A81EF04DFE102311210424EE
:102C30004FF488258DF804304423402001224FF4BE
:102C400088374FF48856DFF864C0CDE91C13CDE90E
:102C50000A5CCDE90834CDE91334CDE91E3415956D
:102C600020930F4D0F4BCDE90200CDE90D000DEB88
:102C70000400CDE90412CDE90F12CDE91A12CDE915
:102C800018222193CDE90676CDE9117616951DF02F
:102C900069FA28460449FFF733FF3BB0F0BD00BF97
:102CA000000027340040323400402B3400002E3422
:102CB00010B5AEB0B422002101A81EF003FE4FF4FF
:102CC00088644FF4883140222A231120CDE906146C
:102CD000CDE90222CDE90D228DF804300A910123BD
:102CE000119144224FF48851CDE90403CDE9080342
:102CF000CDE90F03CDE9121204204FF48822CDE96B
:102D0000140202F1E2420E4CA2F52202A2F5266262
:102D10000B942192A4F5342402F5447201A88DF895
:102D200030301C9327932C928DF8B43016941DF0FC
:102D300011FD20460349FFF7E3FE2EB010BD00BF92
:102D40000040323400402B3430B5AFB0B422002103
:102D500001A81EF0B7FD4FF4883040224FF488617F
:102D6000CDE90222CDE90601CDE90D224FF48851CB
:102D700044222A23CDE912120A9011904FF488229E
:102D8000042011248DF804300123CDE9140202F14E
:102D9000E242A2F52202CDE90443CDE90843CDE9A0
:102DA0000F430D4D0D4CA2F52E62219201A802F5A4
:102DB00044728DF830301C938DF8883027932C9214
:102DC0008DF8B4300B9516941DF0C4FC29462046AE
:102DD000FFF796FE2FB030BD0040323400002E3495
:102DE00010B51F49AEB01F48FFF760FEB4220021A6
:102DF00001A81EF067FD2A2311228DF8043001235B
:102E00001949CDE90423CDE90823CDE90F23CDE904
:102E100006220A920B91119204214422CDE9141248
:102E2000CDE91222114A124C0DEB0100219202F55C
:102E30004472CDE90233CDE90D338DF830301C9367
:102E40008DF8883027932C928DF8B43016941DF0AD
:102E500081FC20460249FFF753FE2EB010BD00BF93
:102E60006040323440403234504032341035627069
:102E70000040323400B52049AFB02048FFF716FEBD
:102E8000B422002101A81EF01DFD282311228DF877
:102E90000430012344210420CDE90423CDE90F238C
:102EA000CDE91323CDE9112206921592144ACDE9FA
:102EB0000901169202F17452A2F55002CDE90711F0
:102EC000A2F52A620F492192684402F54472CDE9C5
:102ED0000233CDE90D330B918DF85C301C932793B1
:102EE0002C928DF8B4301DF099FB03490348FFF78D
:102EF00007FE2FB000BD00BF804032344040323466
:102F0000504032340040323410B51C4998B01C484F
:102F1000FFF7CCFD6022002168461EF0D3FC3F2362
:102F20008DF8003040234FF48830CDE901334FF461
:102F300088534FF4882CCDE9050344230420012253
:102F40001121104CCDE90730CDE909C4CDE912308B
:102F500004F534246846CDE90312CDE90E12CDE91B
:102F60001013CDE90C22149315941DF0A5FA2046F8
:102F70000249FFF7C5FD18B010BD00BF60403234F4
:102F8000404032340000273408B5042104481BF0C7
:102F900007FCBDE80840052102481CF0D7BA00BF75
:102FA000E4D20434D0D2043408B5022104481BF022
:102FB000F7FBBDE80840032102481CF0C7BA00BF78
:102FC0001CD1043410D1043408B50D2104481BF081
:102FD000E7FBBDE808400B2102481CF0B7BA00BF70
:102FE00058CF04342CCF043408B5052104481BF015
:102FF000D7FBBDE80840062102481CF0A7BA00BF75
:1030000008CB0434F0CA043408B5042104481BF08A
:10301000C7FBBDE80840052102481CF097BA00BF75
:10302000C4C80434B0C8043408B5052104481BF0F2
:10303000B7FBBDE80840062102481CF087BA00BF74
:10304000C0C60434A8C6043408B5042104481BF0E3
:10305000A7FBBDE80840052102481CF077BA00BF75
:103060007CC4043468C4043408B5032104481BF04C
:1030700097FBBDE80840042102481CF067BA00BF76
:1030800098C2043488C2043408B5072104481BF0F0
:1030900087FBBDE80840072102481CF057BA00BF73
:1030A000C8C00434ACC0043408B5042104481BF083
:1030B00077FBBDE80840052102481CF047BA00BF75
:1030C00010BE0434FCBD043408B5032104481BF0D1
:1030D00067FBBDE80840042102481CF037BA00BF76
:1030E0002CBC04341CBC043408B50D2104481BF06E
:1030F00057FBBDE808400B2102481CF027BA00BF6F
:10310000FCB90434D0B9043408B5042104481BF0D8
:1031100047FBBDE80840052102481CF017BA00BF74
:10312000BCB50434A8B5043408B5032104481BF029
:1031300037FBBDE80840042102481CF007BA00BF75
:10314000D8B30434C8B3043408B50F2104481BF0C5
:1031500027FBBDE808400D2102481CF0F7B900BF6D
:1031600088B1043454B1043408B5132104481BF069
:1031700017FBBDE80840112102481CF0E7B900BF69
:1031800098AB043454AB043408B50F2104481BF049
:1031900007FBBDE808400D2102481CF0D7B900BF6D
:1031A00088A4043454A4043408B5082104481BF04E
:1031B000F7FABDE80840092102481CF0C7B900BF72
:1031C000489F0434249F043408B5132104481BF09D
:1031D000E7FABDE80840112102481CF0B7B900BF6A
:1031E000049B0434C09A043408B5112104481BF030
:1031F000D7FABDE808400F2102481CF0A7B900BF6C
:10320000D49304349893043408B5082104481BF07F
:10321000C7FABDE80840092102481CF097B900BF71
:10322000E48D0434C08D043408B5132104481BF028
:10323000B7FABDE80840112102481CF087B900BF69
:10324000A08904345C89043408B5112104481BF0BA
:10325000A7FABDE808400F2102481CF077B900BF6B
:10326000708204343482043408B5082104481BF009
:1032700097FABDE80840092102481CF067B900BF71
:10328000807C04345C7C043408B5132104481BF0B2
:1032900087FABDE80840112102481CF057B900BF69
:1032A0003C780434F877043408B50C2104481BF04A
:1032B00077FABDE808400B2102481CF047B900BF6F
:1032C0005C7104343071043408B5082104481BF0E3
:1032D00067FABDE80840092102481CF037B900BF71
:1032E000E06C0434BC6C043408B5112104481BF0B4
:1032F00057FABDE808400F2102481CF027B900BF6B
:10330000BC6804348068043408B50E2104481BF0FE
:1033100047FABDE808400D2102481CF017B900BF6C
:103320007C6204344862043408B5082104481BF068
:1033300037FABDE80840092102481CF007B900BF70
:10334000505D04342C5D043408B5112104481BF091
:1033500027FABDE808400F2102481CF0F7B800BF6B
:103360002C590434F058043408B50E2104481BF0DD
:1033700017FABDE808400D2102481CF0E7B800BF6D
:10338000EC520434B852043408B5082104481BF048
:1033900007FABDE80840092102481CF0D7B800BF71
:1033A000C04D04349C4D043408B5112104481BF071
:1033B000F7F9BDE808400F2102481CF0C7B800BF6C
:1033C0009C4904346049043408B50A2104481BF0C0
:1033D000E7F9BDE80840092102481CF0B7B800BF72
:1033E0009C4304347843043408B5052104481BF099
:1033F000D7F9BDE80840062102481CF0A7B800BF75
:1034000010400434F83F043408B5102104481BF080
:10341000C7F9BDE808400F2102481CF097B800BF6B
:103420000C3D0434D03C043408B50C2104481BF096
:10343000B7F9BDE808400A2102481CF087B800BF70
:10344000FC360434D436043408B50C2104481BF08F
:10345000A7F9BDE808400B2102481CF077B800BF6F
:103460008C3204346032043408B5052104481BF062
:1034700097F9BDE80840062102481CF067B800BF74
:10348000502E0434382E043408B50E2104481BF0A5
:1034900087F9BDE808400C2102481CF057B800BF6E
:1034A0006C2B04343C2B043408B50C2104481BF06D
:1034B00077F9BDE808400B2102481CF047B800BF6F
:1034C0005C2604343026043408B5052104481BF07A
:1034D00067F9BDE80840062102481CF037B800BF74
:1034E000202204340822043408B50E2104481BF0BD
:1034F00057F9BDE808400C2102481CF027B800BF6E
:103500003C1F04340C1F043408B50C2104481BF084
:1035100047F9BDE808400B2102481CF017B800BF6E
:103520002C1A0434001A043408B5052104481BF091
:1035300037F9BDE80840062102481CF007B800BF73
:10354000F0150434D815043408B50E2104481BF0D6
:1035500027F9BDE808400C2102481BF0F7BF00BF67
:103560000C130434DC12043408B5072104481BF0A2
:1035700017F9BDE80840072102481BF0E7BF00BF6C
:103580004C0E0434300E043408B5052104481BF0F9
:1035900007F9BDE80840062102481BF0D7BF00BF6D
:1035A000840B04346C0B043408B50F2104481BF061
:1035B000F7F8BDE808400F2102481BF0C7BF00BF65
:1035C000900804345408043408B5092104481BF059
:1035D000E7F8BDE80840092102481BF0B7BF00BF6B
:1035E000C00204349C02043408B5052104481BF0D1
:1035F000D7F8BDE80840062102481BF0A7BF00BF6E
:1036000048FF033430FF033408B5082104481BF099
:10361000C7F8BDE80840082102481BF097BF00BF6B
:10362000C4FC0334A4FC033408B5092104481BF08E
:10363000B7F8BDE80840092102481BF087BF00BF6A
:103640006CF9033448F9033408B5052104481BF02C
:10365000A7F8BDE80840062102481BF077BF00BF6D
:10366000F4F50334DCF5033408B5082104481BF0F5
:1036700097F8BDE80840082102481BF067BF00BF6B
:1036800070F3033450F3033408B5072104481BF0EA
:1036900087F8BDE80840072102481BF057BF00BF6C
:1036A00038F003341CF0033408B5052104481BF03E
:1036B00077F8BDE80840062102481BF047BF00BF6D
:1036C00070ED033458ED033408B5052104481BF0B0
:1036D00067F8BDE80840062102481BF037BF00BF6D
:1036E0001CEB033404EB033408B50D2104481BF034
:1036F00057F8BDE808400D2102481BF027BF00BF66
:1037000048E8033414E8033408B5052104481BF0E5
:1037100047F8BDE80840062102481BF017BF00BF6C
:103720006CE3033454E3033408B5052104481BF06B
:1037300037F8BDE80840062102481BF007BF00BF6C
:1037400018E1033400E1033408B50D2104481BF0EF
:1037500027F8BDE808400B2102481BF0F7BE00BF68
:1037600044DE033418DE033408B5052104481BF099
:1037700017F8BDE80840062102481BF0E7BE00BF6D
:10378000F4D90334DCD9033408B5052104481BF00F
:1037900007F8BDE80840062102481BF0D7BE00BF6D
:1037A000A0D7033488D7033408B5072104481AF09A
:1037B000F7FFBDE80840072102481BF0C7BE00BF65
:1037C0002CD5033410D5033408B5052104481AF06C
:1037D000E7FFBDE80840062102481BF0B7BE00BF66
:1037E00064D203344CD2033408B5052104481AF0DE
:1037F000D7FFBDE80840062102481BF0A7BE00BF66
:1038000010D00334F8CF033408B5022104481AF06D
:10381000C7FFBDE80840032102481BF097BE00BF68
:10382000ECCD0334E0CD033408B5124903201BF07E
:10383000B5FB114900201BF0EBFA01220F490020D3
:103840001AF0F6FF01220E4907201AF0F1FF0122BB
:103850000C4908201AF0ECFF04210B481AF08CFFE9
:103860000A490B48FFF722F9BDE80840052109483D
:103870001AF0FCBE98D2043468D2043420D2043446
:10388000D8D1043490D1043450D1043400503334AE
:10389000004032343CD1043408B50E4903201BF0FB
:1038A0007DFB01220C4906201AF0C2FF01220B49C0
:1038B00010461AF0BDFF0122094902201AF0B8FF94
:1038C000032108481AF058FFBDE8084004210648C3
:1038D0001AF0CCBE50C2043408C20434C0C104344F
:1038E00078C1043448C1043438C1043408B50E49E1
:1038F00002201BF053FB01220C4906201AF098FF0E
:1039000001220B4910461AF093FF012209490320B6
:103910001AF08EFF032108481AF02EFFBDE8084078
:10392000042106481AF0A2BEE4BB04349CBB043454
:1039300054BB04340CBB0434DCBA0434CCBA0434B5
:1039400008B50E4900201BF029FB01220C49042078
:103950001AF06EFF01220B4902201AF069FF0122C2
:10396000094906201AF064FF032108481AF004FFF1
:10397000BDE80840042106481AF078BE90B304342C
:1039800048B3043400B30434B8B2043488B2043405
:1039900078B2043408B50C4900201BF0FFFA01226C
:1039A0000A4903201AF044FF0122094909201AF0AC
:1039B0003FFF022107481AF0DFFEBDE8084003215F
:1039C00005481AF053BE00BFA8CD033460CD0334C0
:1039D00018CD0334F8CC0334ECCC033408B50C49CF
:1039E00000201BF0C5FC01220A4900201AF020FF2C
:1039F0000122094908201AF01BFF022107481AF08A
:103A0000BBFEBDE80840032105481AF02FBE00BFE9
:103A1000E4D004349CD0043454D0043434D004347E
:103A200028D0043408B51E4903201BF067F81D494F
:103A300000201BF063F81C4901201BF05FF81B49B4
:103A400002201BF05BF81A4901201BF0A7FA0122A3
:103A5000184900201AF0ECFE0122174908201AF03C
:103A6000E7FE0122154906201AF0E2FE0122144960
:103A700005201AF0DDFE0122124910461AF0D8FE88
:103A80000122114903201AF0D3FE0D210F481AF02C
:103A900073FEBDE808400B210D481AF0E7BD00BFDA
:103AA000F0CE0434B4CE043478CE04343CCE0434A6
:103AB00004CE0434BCCD043474CD04342CCD043491
:103AC000E4CC04349CCC043454CC043484CB04348F
:103AD00058CB043408B5124902201BF00FF81149E5
:103AE00002201BF05BFA104900201BF057FA01225C
:103AF0000E4903201AF09CFE01220D4900201AF005
:103B000097FE01220B4909201AF092FE05210A486E
:103B10001AF032FEBDE80840062108481AF0A6BD9A
:103B2000B4CA04347CCA043444CA0434FCC904341E
:103B3000B4C904346CC904341CC9043404C9043441
:103B400008B5104901201AF0D9FF0F4903201BF0D6
:103B500025FA01220D4900201AF06AFE01220C49C3
:103B600003201AF065FE01220A4908201AF060FEBF
:103B7000042109481AF000FEBDE808400521074865
:103B80001AF074BD74C804343CC80434F4C7043457
:103B9000ACC7043464C7043424C7043410C70434E5
:103BA00008B5124900201AF0A9FF114900201BF0A6
:103BB000F5F9104901201BF0F1F901220E49052009
:103BC0001AF036FE01220D4904201AF031FE0122BE
:103BD0000B4910461AF02CFE05210A481AF0CCFDBC
:103BE000BDE80840062108481AF040BD6CC6043400
:103BF00034C60434FCC50434B4C504346CC5043480
:103C000024C50434D4C40434BCC4043408B51049F5
:103C100003201AF073FF0F4902201BF0BFF90122A5
:103C20000D4905201AF004FE01220C4906201AF065
:103C3000FFFD01220A4904201AF0FAFD0421094877
:103C40001AF09AFDBDE80840052107481AF00EBD9C
:103C50002CC40434F4C30434ACC3043464C3043447
:103C60001CC30434DCC20434C8C2043408B5174988
:103C700001201AF043FF164902201AF03FFF1549B0
:103C800001201BF08BF90122134910461AF0D0FDD8
:103C90000122124905201AF0CBFD01221049002013
:103CA0001AF0C6FD01220F4909201AF0C1FD0721B3
:103CB0000D481AF061FD0D490D48FEF7F7FEBDE80D
:103CC000084007210B481AF0D1BC00BF70C0043473
:103CD00034C00434FCBF0434B4BF04346CBF0434B7
:103CE00024BF0434DCBE04346CBE043400602E34C3
:103CF00000002E3450BE043408B5104900201AF0DC
:103D0000FDFE0F4900201BF049F901220D49052055
:103D10001AF08EFD01220C4906201AF089FD0122BD
:103D20000A4903201AF084FD042109481AF024FDF1
:103D3000BDE80840052107481AF098BCC0BD04340E
:103D400088BD043440BD0434F8BC0434B0BC043431
:103D500070BC04345CBC043408B5204901201AF05E
:103D6000CDFE1F4902201AF0C9FE1E4903201AF099
:103D7000C5FE1D4900201AF0C1FE1C4903201BF09E
:103D80000DF901221A4904201AF052FD01221949A5
:103D900007201AF04DFD0122174902201AF048FDB4
:103DA0000122164909201AF043FD0122144903207B
:103DB0001AF03EFD0122134905201AF039FD0D21AC
:103DC00011481AF0D9FC11491148FEF76FFEBDE801
:103DD00008400B210F481AF049BC00BF94B90434C5
:103DE00058B904341CB90434E0B80434A8B8043415
:103DF00060B8043418B80434D0B7043488B7043435
:103E000040B70434F8B6043428B6043400A034347F
:103E100000803434FCB5043408B5104900201AF091
:103E20006DFE0F4901201BF0B9F801220D49052054
:103E30001AF0FEFC01220C4909201AF0F9FC0122BB
:103E40000A4903201AF0F4FC042109481AF094FCF2
:103E5000BDE80840052107481AF008BC6CB50434D9
:103E600034B50434ECB40434A4B404345CB4043481
:103E70001CB4043408B4043408B5254900201AF0F1
:103E80003DFE244901201AF039FE234902201AF090
:103E900035FE224903201AF031FE214902201BF091
:103EA0007DF801221F4900201AF0C2FC01221E49A0
:103EB00008201AF0BDFC01221C4910461AF0B8FC7B
:103EC00001221B4904201AF0B3FC012219490620E3
:103ED0001AF0AEFC0122184905201AF0A9FC0122B3
:103EE000164902201AF0A4FC0122154903201AF0F9
:103EF0009FFC0F2113481AF03FFC13491348FEF7AB
:103F0000D5FDBDE808400D2111481AF0AFBB00BF38
:103F100018B10434DCB00434A0B0043464B0043408
:103F20002CB00434E4AF04349CAF043454AF0434F4
:103F30000CAF0434C4AE04347CAE043434AE043468
:103F4000ECAD0434FCAC0434005034340040343460
:103F5000C8AC043408B52C4900201AF0CFFD2B4919
:103F600001201AF0CBFD2A4902201AF0C7FD294989
:103F700003201AF0C3FD284900201BF00FF8274941
:103F800001201BF00BF8264903201BF007F8012243
:103F9000244902201AF04CFC0122234905201AF082
:103FA00047FC0122214903201AF042FC012220494A
:103FB00004201AF03DFC01221E4910461AF038FC7C
:103FC00001221D4900201AF033FC01221B49062062
:103FD0001AF02EFC01221A4909201AF029FC0122AC
:103FE000184907201AF024FC0122174908201AF06A
:103FF0001FFC132115481AF0BFFBBDE80840112132
:1040000013481AF033BB00BF18AB0434DCAA0434E5
:10401000A0AA043464AA04342CAA0434F4A90434F5
:10402000BCA9043474A904342CA90434E4A80434CD
:104030009CA8043454A804340CA80434C4A7043441
:104040007CA7043434A70434ECA60434BCA504349F
:1040500078A5043408B5234901201AF04FFD224900
:1040600002201AF04BFD214903201AF047FD204998
:1040700000201AF043FD1F4902201AF08FFF012291
:104080001D4904201AF0D4FB01221C4910461AF0E5
:10409000CFFB01221A4909201AF0CAFB0122194953
:1040A00000201AF0C5FB0122174906201AF0C0FBB8
:1040B0000122164907201AF0BBFB012214490820EF
:1040C0001AF0B6FB0122134905201AF0B1FB0F21AB
:1040D00011481AF051FBBDE808400D210F481AF0B5
:1040E000C5BA00BF18A40434DCA30434A0A304346C
:1040F00064A304342CA30434E4A204349CA2043446
:1041000054A204340CA20434C4A104347CA10434A9
:1041100034A10434ECA00434FC9F0434C89F04345C
:1041200008B5194900201AF0E9FC184903201AF0D3
:1041300035FF174900201AF031FF164901201AF007
:104140002DFF0122144906201AF072FB01221349A7
:1041500005201AF06DFB0122114903201AF068FBBB
:104160000122104902201AF063FB01220E490720A8
:104170001AF05EFB08210D481AF0FEFABDE808406F
:1041800009210B481AF072BAE89E0434B09E043438
:10419000789E0434409E0434F89D0434B09D043469
:1041A000689D0434209D0434D89C0434589C043405
:1041B000349C043408B52C4900201AF09FFC2B498C
:1041C00001201AF09BFC2A4902201AF097FC294989
:1041D00003201AF093FC284901201AF0DFFE27493A
:1041E00002201AF0DBFE264900201AF0D7FE012239
:1041F000244908201AF01CFB0122234910461AF01A
:1042000017FB0122214909201AF012FB0122204943
:1042100005201AF00DFB01221E4906201AF008FBAA
:1042200001221D4900201AF003FB01221B49022034
:104230001AF0FEFA01221A4903201AF0F9FA0122B3
:10424000184904201AF0F4FA0122174907201AF03D
:10425000EFFA132115481AF08FFABDE80840112132
:1042600013481AF003BA00BF849A0434489A0434FD
:104270000C9A0434D0990434989904346099043425
:1042800028990434E09804349898043450980434FD
:1042900008980434C0970434789704343097043471
:1042A000E8960434A09604345896043428950434CF
:1042B000E494043408B5274901201AF01FFC26496C
:1042C00002201AF01BFC254903201AF017FC244990
:1042D00000201AF013FC234903201AF05FFE224944
:1042E00000201AF05BFE0122204906201AF0A0FAF5
:1042F00001221F4907201AF09BFA01221D4910468E
:104300001AF096FA01221C4903201AF091FA0122B0
:104310001A4904201AF08CFA0122194908201AF0CF
:1043200087FA0122174909201AF082FA0122164958
:1043300000201AF07DFA0122144902201AF078FABE
:10434000112113481AF018FABDE808400F2111484E
:104350001AF08CB95C93043420930434E49204344E
:10436000A89204347092043438920434F0910434E6
:10437000A89104346091043418910434D09004342A
:104380008890043440900434F88F0434B08F04349F
:10439000A08E0434648E043408B5194900201AF044
:1043A000ADFB184902201AF0F9FD174900201AF058
:1043B000F5FD164901201AF0F1FD012214490720EC
:1043C0001AF036FA0122134908201AF031FA0122B4
:1043D000114903201AF02CFA0122104900201AF08A
:1043E00027FA01220E4905201AF022FA08210D4869
:1043F0001AF0C2F9BDE8084009210B481AF036B995
:10440000848D04344C8D0434148D0434DC8C0434D9
:10441000948C04344C8C0434048C0434BC8B0434ED
:10442000748B0434F48A0434D08A043408B52C49DB
:1044300000201AF063FB2B4901201AF05FFB2A4988
:1044400002201AF05BFB294903201AF057FB284988
:1044500001201AF0A3FD274903201AF09FFD2649E9
:1044600000201AF09BFD0122244900201AF0E0F9F7
:104470000122234910461AF0DBF9012221490520C7
:104480001AF0D6F90122204906201AF0D1F90122AA
:104490001E4908201AF0CCF901221D4907201AF004
:1044A000C7F901221B4902201AF0C2F901221A4958
:1044B00004201AF0BDF90122184909201AF0B8F9B0
:1044C0000122174903201AF0B3F9132115481AF0F5
:1044D00053F9BDE80840112113481AF0C7B800BFCE
:1044E00020890434E4880434A88804346C880434B3
:1044F00034880434FC870434C48704347C8704344F
:1045000034870434EC860434A48604345C86043492
:1045100014860434CC850434848504343C85043406
:10452000F4840434C48304348083043408B52749F4
:1045300001201AF0E3FA264902201AF0DFFA254991
:1045400003201AF0DBFA244900201AF0D7FA234995
:1045500002201AF023FD224900201AF01FFD01223B
:10456000204902201AF064F901221F4907201AF09D
:104570005FF901221D4904201AF05AF901221C4951
:1045800009201AF055F901221A4906201AF050F9AB
:104590000122194910461AF04BF90122174900204F
:1045A0001AF046F90122164908201AF041F90122B1
:1045B000144903201AF03CF9112113481AF0DCF8D1
:1045C000BDE808400F2111481AF050B8F8810434B2
:1045D000BC81043480810434448104340C8104346B
:1045E000D48004348C80043444800434FC7F04344C
:1045F000B47F04346C7F0434247F0434DC7E0434C0
:10460000947E04344C7E04343C7D0434007D0434B8
:1046100008B5194900201AF071FA184903201AF058
:10462000BDFC174900201AF0B9FC164901201AF008
:10463000B5FC0122144909201AF0FAF801221349A5
:1046400006201AF0F5F80122114903201AF0F0F8BB
:104650000122104904201AF0EBF801220E4905202E
:104660001AF0E6F808210D481AF086F8BDE808406F
:1046700009210B4819F0FABF207C0434E87B04348C
:10468000B07B0434787B0434307B0434E87A04341F
:10469000A07A0434587A0434107A043490790434BB
:1046A0006C79043408B52C4900201AF027FA2B49FC
:1046B00001201AF023FA2A4902201AF01FFA294988
:1046C00003201AF01BFA284900201AF067FC27493A
:1046D00001201AF063FC264902201AF05FFC012237
:1046E000244900201AF0A4F80122234908201AF0D6
:1046F0009FF80122214910461AF09AF80122204918
:1047000004201AF095F801221E4902201AF090F8B0
:1047100001221D4906201AF08BF801221B490920AD
:104720001AF086F801221A4907201AF081F80122AE
:10473000184905201AF07CF80122174903201AF0C5
:1047400077F8132115481AF017F8BDE80840112131
:10475000134819F08BBF00BFBC7704348077043452
:104760004477043408770434D076043498760434DB
:104770006076043418760434D075043488750434B3
:1047800040750434F8740434B07404346874043428
:1047900020740434D8730434907304346072043485
:1047A0001C72043408B51E4901201AF0A7F91D49EE
:1047B00002201AF0A3F91C4903201AF09FF91B49A3
:1047C00003201AF0EBFB0122194906201AF030F8F9
:1047D0000122184907201AF02BF80122164905205A
:1047E0001AF026F80122154900201AF021F80122BA
:1047F000134902201AF01CF80122124903201AF072
:1048000017F80122104909201AF012F80C210F485C
:1048100019F0B2FFBDE808400B210D4819F026BF82
:10482000F4700434B87004347C700434447004347C
:10483000FC6F0434B46F04346C6F0434246F04349C
:10484000DC6E0434946E04344C6E04348C6D043489
:10485000606D043408B5194900201AF04FF9184961
:1048600002201AF09BFB174900201AF097FB16490B
:1048700001201AF093FB01221449052019F0D8FFFA
:1048800001221349022019F0D3FF0122114904200B
:1048900019F0CEFF01221049002019F0C9FF0122B2
:1048A0000E49104619F0C4FF08210D4819F064FFA5
:1048B000BDE8084009210B4819F0D8BE806C0434CB
:1048C000486C0434106C0434D86B0434906B04349A
:1048D000486B0434006B0434B86A0434706A0434DE
:1048E000F0690434CC69043408B5274900201AF073
:1048F00005F9264901201AF001F9254902201AF08C
:10490000FDF8244903201AF0F9F8234901201AF090
:1049100045FB224903201AF041FB214900201AF0EF
:104920003DFB01221F49092019F082FF01221E4987
:10493000052019F07DFF01221C49042019F078FFA1
:1049400001221B49104619F073FF0122194900206A
:1049500019F06EFF01221849062019F069FF0122A3
:104960001649072019F064FF01221549022019F0A9
:104970005FFF1121134819F0FFFEBDE808400F2129
:10498000114819F073BE00BF446804340868043449
:10499000CC670434906704345867043420670434C7
:1049A000E8660434A066043458660434106604349F
:1049B000C86504348065043438650434F064043414
:1049C000A8640434986304345C63043408B5234950
:1049D00001201AF093F8224902201AF08FF8214999
:1049E00003201AF08BF8204902201AF0D7FA1F4949
:1049F00000201AF0D3FA01221D49042019F018FFF3
:104A000001221C49062019F013FF01221A4908202F
:104A100019F00EFF01221949032019F009FF0122A4
:104A20001749072019F004FF01221649092019F03F
:104A3000FFFE01221449002019F0FAFE0122134959
:104A4000052019F0F5FE0E21114819F095FEBDE87C
:104A500008400D210F4819F009BE00BF0C62043454
:104A6000D0610434946104345C61043424610434FE
:104A7000DC600434946004344C6004340460043416
:104A8000BC5F0434745F04342C5F0434E45E04348B
:104A9000045E0434D05D043408B5194900201AF0CE
:104AA0002DF8184903201AF079FA174900201AF056
:104AB00075FA164901201AF071FA012214490820EA
:104AC00019F0B6FE01221349052019F0B1FE0122AA
:104AD0001149072019F0ACFE01221049104619F0C7
:104AE000A7FE01220E49042019F0A2FE08210D485C
:104AF00019F042FEBDE8084009210B4819F0B6BD87
:104B0000F05C0434B85C0434805C0434485C0434E5
:104B1000005C0434B85B0434705B0434285B0434F8
:104B2000E05A0434605A04343C5A043408B5274926
:104B3000002019F0E3FF2649012019F0DFFF254985
:104B4000022019F0DBFF2449032019F0D7FF234985
:104B500001201AF023FA224902201AF01FFA2149F3
:104B600000201AF01BFA01221F49052019F060FEEF
:104B700001221E49022019F05BFE01221C49072078
:104B800019F056FE01221B49062019F051FE0122A0
:104B90001949082019F04CFE01221849032019F088
:104BA00047FE01221649042019F042FE0122154950
:104BB000104619F03DFE1121134819F0DDFDBDE846
:104BC00008400F21114819F051BD00BFB4580434FA
:104BD000785804343C58043400580434C85704341A
:104BE000905704345857043410570434C8560434CA
:104BF0008056043438560434F0550434A85504342F
:104C0000605504341855043408540434CC53043427
:104C100008B52349012019F071FF2249022019F03B
:104C20006DFF2149032019F069FF204903201AF084
:104C3000B5F91F4900201AF0B1F901221D490620DB
:104C400019F0F6FD01221C49082019F0F1FD01229E
:104C50001A49052019F0ECFD01221949104619F0F6
:104C6000E7FD01221749002019F0E2FD0122164953
:104C7000072019F0DDFD01221449042019F0D8FDA8
:104C800001221349092019F0D3FD0E21114819F012
:104C900073FDBDE808400D210F4819F0E7BC00BFC7
:104CA0007C5204344052043404520434CC51043451
:104CB000945104344C51043404510434BC50043431
:104CC000745004342C500434E44F04349C4F0434A6
:104CD000544F0434744E0434404E043408B519491A
:104CE000002019F00BFF184901201AF057F9174955
:104CF00000201AF053F9164902201AF04FF9012248
:104D00001449072019F094FD01221349062019F0D7
:104D10008FFD01221149092019F08AFD0122104955
:104D2000022019F085FD01220E49002019F080FDB6
:104D300008210D4819F020FDBDE8084009210B4865
:104D400019F094BC604D0434284D0434F04C043404
:104D5000B84C0434704C0434284C0434E04B043414
:104D6000984B0434504B0434D04A0434AC4A0434D5
:104D700008B52749002019F0C1FE2649012019F085
:104D8000BDFE2549022019F0B9FE2449032019F07F
:104D9000B5FE234902201AF001F9224900201AF039
:104DA000FDF8214903201AF0F9F801221F490720D4
:104DB00019F03EFD01221E49042019F039FD01229F
:104DC0001C49052019F034FD01221B49062019F069
:104DD0002FFD01221949002019F02AFD012218494E
:104DE000104619F025FD01221649022019F020FD78
:104DF00001221549082019F01BFD1121134819F053
:104E0000BBFCBDE808400F21114819F02FBC00BFC2
:104E100024490434E8480434AC4804347048043469
:104E20003848043400480434C84704348047043404
:104E300038470434F0460434A84604346046043449
:104E400018460434D0450434884504347844043486
:104E50003C44043408B51949012019F04FFE1849A3
:104E6000022019F04BFE1749032019F047FE16499E
:104E700001201AF093F801221449002019F0D8FCFF
:104E800001221349062019F0D3FC01221149022006
:104E900019F0CEFC01221049052019F0C9FC0122AD
:104EA0000E49082019F0C4FC0A210D4819F064FCD1
:104EB000BDE8084009210B4819F0D8BB3C43043435
:104EC00000430434C44204348C4204344442043465
:104ED000FC410434B44104346C41043424410434AE
:104EE000844004346040043408B51249002019F0AD
:104EF00005FE114903201AF051F8104900201AF05C
:104F00004DF801220E49072019F092FC01220D49AB
:104F1000082019F08DFC01220B49042019F088FCAF
:104F200005210A4819F028FCBDE808400621084878
:104F300019F09CBBBC3F0434843F04344C3F043420
:104F4000043F0434BC3E0434743E0434243E043430
:104F50000C3E043408B52749002019F0CFFD26493E
:104F6000012019F0CBFD2549022019F0C7FD244985
:104F7000032019F0C3FD234901201AF00FF822493C
:104F800002201AF00BF8214900201AF007F801223C
:104F90001F49082019F04CFC01221E49002019F07D
:104FA00047FC01221C49092019F042FC01221B493F
:104FB000032019F03DFC01221949062019F038FCA4
:104FC00001221849104619F033FC01221649072026
:104FD00019F02EFC01221549052019F029FC102199
:104FE000134819F0C9FBBDE808400F21114819F01A
:104FF0003DBB00BF943C0434583C04341C3C043496
:10500000E03B0434A83B0434703B0434383B0434A4
:10501000F03A0434A83A0434603A0434183A0434B8
:10502000D03904348839043440390434F83804342D
:10503000F8370434BC37043408B51C49002019F093
:105040005DFD1B49012019F059FD1A49022019F094
:1050500055FD1949032019F051FD0122174904207B
:1050600019F0E6FB01221649032019F0E1FB0122A9
:105070001449002019F0DCFB01221349022019F029
:10508000D7FB01221149104619F0D2FB0122104929
:10509000062019F0CDFB0C210E4819F06DFBBDE880
:1050A00008400A210C4819F0E1BA00BF98360434D0
:1050B0005C36043420360434E43504349C3504343E
:1050C000543504340C350434C43404347C3404348E
:1050D00034340434743304344C33043408B51E4976
:1050E000012019F00BFD1D49022019F007FD1C4994
:1050F000032019F003FD1B49002019F04FFF1A4946
:10510000032019F04BFF01221849072019F090FBEA
:1051100001221749092019F08BFB012215490220B1
:1051200019F086FB01221449042019F081FB0122A9
:105130001249082019F07CFB01221149052019F0C1
:1051400077FB0C210F4819F017FBBDE808400B2135
:105150000D4819F08BBA00BF24320434E83104340E
:10516000AC310434743104343C310434F43004344C
:10517000AC300434643004341C300434D42F043490
:105180008C2F0434CC2E0434A02E043408B51249DC
:10519000002019F0B3FC1149012019F0FFFE10495D
:1051A000022019F0FBFE01220E49052019F040FBF8
:1051B00001220D49042019F03BFB01220B4902207A
:1051C00019F036FB05210A4819F0D6FABDE8084067
:1051D0000621084819F04ABAFC2D0434C42D0434C1
:1051E0008C2D0434442D0434FC2C0434B42C0434AD
:1051F000642C04344C2C043408B52049002019F0E8
:105200007DFC1F49012019F079FC1E49022019F08C
:1052100075FC1D49032019F071FC1C49002019F090
:10522000BDFE1B49032019F0B9FE012219490220D5
:1052300019F0FEFA01221849092019F0F9FA0122A1
:105240001649082019F0F4FA01221549002019F036
:10525000EFFA01221349104619F0EAFA0122124925
:10526000062019F0E5FA0E21104819F085FABDE87C
:1052700008400C210E4819F0F9B900BF002B043486
:10528000C42A0434882A04344C2A0434142A0434EA
:10529000DC290434942904344C29043404290434CA
:1052A000BC280434742804342C2804344C270434D7
:1052B0001C27043408B51E49012019F01FFC1D49A4
:1052C000022019F01BFC1C49032019F017FC1B4994
:1052D000012019F063FE1A49022019F05FFE012235
:1052E0001849032019F0A4FA01221749052019F0E2
:1052F0009FFA01221549022019F09AFA0122144955
:10530000082019F095FA01221249062019F090FAA6
:1053100001221149092019F08BFA0C210F4819F0CC
:105320002BFABDE808400B210D4819F09FB900BFCA
:10533000F4250434B82504347C250434442504348D
:105340000C250434C42404347C240434342404346C
:10535000EC230434A42304345C2304349C2204345A
:105360007022043408B51249002019F0C7FB114916
:10537000002019F013FE1049032019F00FFE01223E
:105380000E49082019F054FA01220D49042019F0A1
:105390004FFA01220B49022019F04AFA05210A4866
:1053A00019F0EAF9BDE808400621084819F05EB98D
:1053B000CC210434942104345C21043414210434B9
:1053C000CC20043484200434342004341C200434DD
:1053D00008B52049002019F091FB1F49012019F060
:1053E0008DFB1E49022019F089FB1D49032019F08D
:1053F00085FB1C49012019F0D1FD1B49022019F041
:10540000CDFD01221949072019F012FA012218498D
:10541000022019F00DFA01221649092019F008FAA4
:1054200001221549002019F003FA0122134908202E
:1054300019F0FEF901221249042019F0F9F90E21A0
:10544000104819F099F9BDE808400C210E4819F0F0
:105450000DB900BFD01E0434941E0434581E043409
:105460001C1E0434E41D0434AC1D0434641D0434D7
:105470001C1D0434D41C04348C1C0434441C04341B
:10548000FC1B04341C1B0434EC1A043408B51E49FC
:10549000012019F033FB1D49022019F02FFB1C4994
:1054A000032019F02BFB1B49002019F077FD1A4946
:1054B000032019F073FD01221849092019F0B8F9E9
:1054C00001221749072019F0B3F9012215490020DC
:1054D00019F0AEF901221449022019F0A9F90122AC
:1054E0001249082019F0A4F901221149052019F0E8
:1054F0009FF90C210F4819F03FF9BDE808400B2136
:105500000D4819F0B3B800BFC41904348819043425
:105510004C19043414190434DC1804349418043479
:105520004C18043404180434BC17043474170434BD
:105530002C1704346C1604344016043408B5124990
:10554000002019F0DBFA1149022019F027FD10495B
:10555000012019F023FD01220E49062019F068F9F7
:1055600001220D49042019F063F901220B490020A2
:1055700019F05EF905210A4819F0FEF8BDE8084067
:105580000621084819F072B89C15043464150434D7
:105590002C150434E41404349C14043454140434DA
:1055A00004140434EC13043408B52049032019F022
:1055B000A5FA1F49002019F0A1FA1E49012019F08F
:1055C0009DFA1D49022019F099FA1C49032019F08F
:1055D000E5FC1B49002019F0E1FC012219490220D9
:1055E00019F026F901221849032019F021F90122A6
:1055F0001649104619F01CF901221549042019F02A
:1056000017F901221349002019F012F90122124959
:10561000052019F00DF90E21104819F0ADF8BDE87C
:1056200008400C210E4819F021B800BFA012043424
:105630006412043428120434EC110434B411043418
:105640007C11043434110434EC100434A4100434F8
:105650005C10043414100434CC0F0434EC0E043405
:10566000BC0E043408B51549012019F047FA144955
:10567000022019F043FA1349012019F08FFC01228E
:105680001149072019F0D4F801221049052019F01A
:10569000CFF801220E49032019F0CAF801220D4962
:1056A000022019F0C5F807210B4819F065F8BDE88C
:1056B00008400721094818F0D9BF00BFF40D043491
:1056C000B80D0434800D0434380D0434F00C043467
:1056D000A80C0434600C0434F00B0434D40B0434F0
:1056E00008B51249002019F009FA1149022019F0F1
:1056F00055FC1049002019F051FC01220E490020F0
:1057000019F096F801220D49092019F091F80122AB
:105710000B49062019F08CF805210A4819F02CF8DD
:10572000BDE808400621084818F0A0BF300B04343B
:10573000F80A0434C00A0434780A0434300A043401
:10574000E8090434980904348009043408B5274969
:10575000022019F0D3F92649002019F0CFF9254984
:10576000012019F0CBF92449032019F0C7F9234986
:10577000012019F013FC2249032019F00FFC2149E4
:10578000002019F00BFC01221F49062019F050F8E7
:1057900001221E49092019F04BF801221C4905205D
:1057A00019F046F801221B49032019F041F80122A3
:1057B0001949082019F03CF801221849002019F075
:1057C00037F801221649104619F032F8012215491E
:1057D000042019F02DF80F21134818F0CDFFBDE873
:1057E00008400F21114818F041BF00BF18080434C9
:1057F000DC070434A0070434640704342C070434A1
:10580000F4060434BC060434740604342C06043450
:10581000E40504349C050434540504340C050434B4
:10582000C40404347C0404348C030434500304346E
:1058300008B51949032019F061F91849012019F038
:105840005DF91749002019F0A9FB1649022019F04B
:10585000A5FB01221449052018F0EAFF0122134993
:10586000104618F0E5FF01221149032018F0E0FF6F
:1058700001221049002018F0DBFF01220E4906200A
:1058800018F0D6FF09210D4818F076FFBDE8084052
:1058900009210B4818F0EABE6002043424020434E3
:1058A000EC010434B40104346C01043424010434E4
:1058B000DC000434940004344C000434BCFF033492
:1058C00098FF033408B51249002019F017F911495F
:1058D000012019F063FB1049032019F05FFB01223E
:1058E0000E49072018F0A4FF01220D49022018F0EC
:1058F0009FFF01220B49042018F09AFF05210A4856
:1059000018F03AFFBDE808400621084818F0AEBE7E
:10591000F4FE0334BCFE033484FE03343CFE033443
:10592000F4FD0334ACFD03345CFD033444FD033467
:1059300008B51749012019F0E1F81649022019F0BD
:10594000DDF81549002019F029FB1449022019F04F
:1059500025FB01221249042018F06AFF0122114997
:10596000082018F065FF01220F49002018F060FFA1
:1059700001220E49052018F05BFF08210C4818F0A1
:10598000FBFEBDE8084008210A4818F06FBE00BFC2
:1059900068FC03342CFC0334F4FB0334BCFB0334F9
:1059A00074FB03342CFB0334E4FA03349CFA033411
:1059B0001CFA0334FCF9033408B51949032019F023
:1059C0009DF81849002019F099F81749012019F09D
:1059D000E5FA1649032019F0E1FA012214490820DA
:1059E00018F026FF01221349092018F021FF012297
:1059F0001149022018F01CFF01221049032018F061
:105A000017FF01220E49062018F012FF09210D4848
:105A100018F0B2FEBDE8084009210B4818F026BE78
:105A20000CF90334D0F8033498F8033460F80334E5
:105A300018F80334D0F7033488F7033440F70334FD
:105A4000F8F6033468F6033444F6033408B5124913
:105A5000022019F053F81149022019F09FFA104959
:105A6000002019F09BFA01220E49002018F0E0FEF8
:105A700001220D49062018F0DBFE01220B49082007
:105A800018F0D6FE05210A4818F076FEBDE8084059
:105A90000621084818F0EABDA0F5033468F5033480
:105AA00030F50334E8F40334A0F4033458F4033439
:105AB00008F40334F0F3033408B51749012019F052
:105AC0001DF81649002019F019F81549032019F09E
:105AD00065FA1449012019F061FA012212490520E2
:105AE00018F0A6FE01221149042018F0A1FE01229F
:105AF0000F49092018F09CFE01220E49032018F0DE
:105B000097FE08210C4818F037FEBDE80840082130
:105B10000A4818F0ABBD00BF14F30334D8F20334C5
:105B2000A0F2033468F2033420F20334D8F10334D2
:105B300090F1033448F10334C8F00334A8F003347F
:105B400008B51549022018F0D9FF1449032018F0B0
:105B5000D5FF1349002019F021FA01221149002034
:105B600018F066FE01221049082018F061FE01229B
:105B70000E49062018F05CFE01220D49032018F0A2
:105B800057FE07210B4818F0F7FDBDE80840072134
:105B9000094818F06BBD00BFE0EF0334A4EF0334F5
:105BA0006CEF033424EF0334DCEE033494EE03345F
:105BB0004CEE0334DCED0334C0ED033408B5124978
:105BC000002018F09BFF1149012019F0E7F9104956
:105BD000022019F0E3F901220E49052018F028FEF1
:105BE00001220D49002018F023FE01220B4902205A
:105BF00018F01EFE05210A4818F0BEFDBDE8084059
:105C00000621084818F032BD1CED0334E4EC0334DF
:105C1000ACEC033464EC03341CEC0334D4EB0334F9
:105C200084EB03346CEB033408B51249012018F0FF
:105C300065FF1149032019F0B1F91049002019F04E
:105C4000ADF901220E49092018F0F2FD01220D499B
:105C5000032018F0EDFD01220B49022018F0E8FDA9
:105C600005210A4818F088FDBDE8084006210848CB
:105C700018F0FCBCC8EA033490EA033458EA033451
:105C800010EA0334C8E9033480E9033430E903340B
:105C900018E9033408B52249022018F02FFF2149E2
:105CA000032018F02BFF2049012019F077F91F4934
:105CB000022019F073F91E49002018F01FFF1D493A
