:0200000470107A
:1000000053544D32000000000000000000000000CA
:1000100000000000000000000000000000000000E0
:1000200000000000000000000000000000000000D0
:1000300000000000000000000000000000000000C0
:1000400000000000000000000000000000000000B0
:1000500000000000000000000000000000000000A0
:1000600000000000DBB52D0200030200C06806009E
:100070008D26023400000000FFFFFFFF000000009B
:100080000000000000000080A0010000000000004F
:100090000000000000000000000000000000000060
:1000A0005354FFFFA0010000878E3868F993F024B5
:1000B0001EFDCD7FA563BBE373CEA68AD1A9B7226F
:1000C0000CE5E3A5C9066D030642FB13D266811059
:1000D000DF820F2516408FC064CEEE920F1B633572
:1000E000ACEBF29E44A02FDAF252A37F5938B08FC6
:1000F00086DCA9326F72E1843765CEF692BC53413B
:10010000BB1E0033A0F987553ECA79BD78442AEF5B
:10011000145B40855001D65C564C9F0EADD31BB38B
:10012000090DC0AD4F4FF9FA6C085E84AC1815C4C8
:10013000BD403092850299B76D50204A79520BD458
:100140007020ED107C5B6A398DEA65E3DEEC696F47
:10015000E84DF6143E5D2C6669AF9F5061ABB6B7B3
:10016000B648AE78CBDA67DC97E06F2363EB33C831
:100170002870D66453F966B0C9C87BF1FB2957D5FE
:1001800052D63FC952F0B537AC7FC301ABBE103871
:10019000BF1E58E3CF6E0704FB08D8A06D38C1809E
:1001A0003C0C72457CE636B7471359DE853269C58B
:1001B0009770504A38C3D85FD35476BE7113945A9F
:1001C000C9FFF3CF40115576731ACC9866D4DF95EA
:1001D0003E6D7AF58C30F1C426F77A4FCD9B0096B0
:1001E00085894EA40ED0CFA4FAFA053C57A7356BEB
:1001F00020A03C1FD35F765E3CB2BF6E22A1F1C24D
:100200003CC59AF20BF6F7CAD86979CD6467B8FF96
:10021000941BA3DDA4E07B0718921D98BAC7E80ED3
:10022000D5B6536B09E303196FD642333B7DB5E175
:10023000A275D9D4FF065640B02263A2FD3FC0FF8D
:1002400000000000000000000000000000000000AE
:10025000000000000000000000000000000000009E
:10026000000000000000000000000000000000008E
:10027000000000000000000000000000000000007E
:10028000000000000000000000000000000000006E
:10029000000000000000000000000000000000005E
:1002A000000000000000000000000000000000004E
:1002B000000000000000000000000000000000003E
:1002C000000000000000000000000000000000002E
:1002D000000000000000000000000000000000001E
:1002E000000000000000000000000000000000000E
:1002F00000000000000000000000000000000000FE
:1003000000000000000000000000000000000000ED
:1003100000000000000000000000000000000000DD
:1003200000000000000000000000000000000000CD
:1003300000000000000000000000000000000000BD
:1003400000000000000000000000000000000000AD
:10035000000000000000000000000000000000009D
:10036000000000000000000000000000000000008D
:10037000000000000000000000000000000000007D
:10038000000000000000000000000000000000006D
:10039000000000000000000000000000000000005D
:1003A000000000000000000000000000000000004D
:1003B000000000000000000000000000000000003D
:1003C000000000000000000000000000000000002D
:1003D000000000000000000000000000000000001D
:1003E000000000000000000000000000000000000D
:1003F00000000000000000000000000000000000FD
:10040000000010348D2602349525003499250034DF
:10041000A9250034B9250034C9250034D925003474
:10042000000000000000000000000000E92500348A
:10043000EB25003400000000ED250034EF250034EA
:10044000E926023400000000E9260234E9260234DD
:10045000E9260234E9260234E9260234E926023488
:10046000E926023400000000E9260234E9260234BD
:10047000E9260234AD1F0034E926023400000000F2
:10048000E926023400000000E9260234E92602349D
:10049000E9260234E9260234E9260234E926023448
:1004A000E9260234E9260234E9260234E926023438
:1004B000E9260234E9260234E9260234E926023428
:1004C000E9260234E9260234E9260234E926023418
:1004D000E9260234E9260234E9260234E926023408
:1004E000E926023400000000E9260234E92602343D
:1004F000E9260234E9260234E9260234F3250034E1
:100500000126003400000000000000000000000090
:10051000E92602341D0F0234E9260234E9260234AA
:10052000E9260234E9260234E9260234E9260234B7
:10053000E9260234E9260234E9260234E9260234A7
:10054000E9260234E9260234E9260234E926023497
:10055000E9260234E9260234E9260234E926023487
:1007400000000000E9260234E9260234000000001F
:1007500010B5054C237833B9044B13B10448AFF3FB
:1007600000800123237010BD006B063400000000E0
:10077000E0E2023408B5034B1BB103490348AFF371
:10078000008008BD00000000046B0634E0E2023483
:10079000034613F8012B002AFBD1181A01387047C1
:1007A00081F0004102E000BF83F0004330B54FEA22
:1007B00041044FEA430594EA050F08BF90EA020F8F
:1007C0001FBF54EA000C55EA020C7FEA645C7FEA22
:1007D000655C00F0E2804FEA5454D4EB5555B8BF45
:1007E0006D420CDD2C4480EA020281EA030382EAB6
:1007F000000083EA010180EA020281EA0303362D48
:1008000088BF30BD11F0004F4FEA01314FF4801C1A
:100810004CEA113102D0404261EB410113F0004F2C
:100820004FEA03334CEA133302D0524263EB4303E3
:1008300094EA050F00F0A780A4F10104D5F1200E81
:100840000DDB02FA0EFC22FA05F2801841F10001DC
:1008500003FA0EF2801843FA05F359410EE0A5F1B0
:1008600020050EF1200E012A03FA0EFC28BF4CF0E1
:10087000020C43FA05F3C01851EBE37101F0004597
:1008800007D54FF0000EDCF1000C7EEB00006EEBA4
:100890000101B1F5801F1BD3B1F5001F0CD349082E
:1008A0005FEA30004FEA3C0C04F101044FEA445285
:1008B00012F5800F80F09A80BCF1004F08BF5FEA0C
:1008C000500C50F1000041EB045141EA050130BDEC
:1008D0005FEA4C0C404141EB0101013C28BFB1F5FE
:1008E000801FE9D291F0000F04BF01460020B1FA49
:1008F00081F308BF2033A3F10B03B3F120020CDA1C
:100900000C3208DD02F1140CC2F10C0201FA0CF0F9
:1009100021FA02F10CE002F11402D8BFC2F1200C5E
:1009200001FA02F120FA0CFCDCBF41EA0C01904014
:10093000E41AA2BF01EB0451294330BD6FEA04045D
:100940001F3C1CDA0C340EDC04F11404C4F1200248
:1009500020FA04F001FA02F340EA030021FA04F35A
:1009600045EA030130BDC4F10C04C4F1200220FAB1
:1009700002F001FA04F340EA0300294630BD21FAEF
:1009800004F0294630BD94F0000F83F4801306BFB5
:1009900081F480110134013D4EE77FEA645C18BFA9
:1009A0007FEA655C29D094EA050F08BF90EA020F40
:1009B00005D054EA000C04BF1946104630BD91EA38
:1009C000030F1EBF0021002030BD5FEA545C05D13B
:1009D0004000494128BF41F0004130BD14F580047A
:1009E0003CBF01F5801130BD01F0004545F0FE41EE
:1009F00041F470014FF0000030BD7FEA645C1ABF23
:100A0000194610467FEA655C1CBF0B46024650EA59
:100A1000013406BF52EA033591EA030F41F4002185
:100A200030BD00BF90F0000F04BF0021704730B50B
:100A30004FF4806404F132044FF000054FF00001E0
:100A400050E700BF90F0000F04BF0021704730B5A1
:100A50004FF4806404F1320410F0004548BF404276
:100A60004FF000013EE700BF42004FEAE2014FEACB
:100A700031014FEA02701FBF12F07F4393F07F4FA6
:100A800081F06051704732F07F4208BF704793F0A9
:100A90007F4F04BF41F40021704730B54FF46074BC
:100AA00001F0004521F000411CE700BF50EA0102BF
:100AB00008BF704730B54FF000050AE050EA010268
:100AC00008BF704730B511F0004502D5404261EBD8
:100AD00041014FF4806404F132045FEA915C3FF419
:100AE000D8AE4FF003025FEADC0C18BF03325FEAB6
:100AF000DC0C18BF033202EBDC02C2F1200300FA67
:100B000003FC20FA02F001FA03FE40EA0E0021FA8B
:100B100002F11444BDE600BF7BB972B90029BEBF23
:100B200000204FF0004106E008BF00281CBF6FF016
:100B300000414FF0FF3000F035BAADF1080C6DE91F
:100B400004CE002909DB002B1ADB00F085F8DDF864
:100B500004E0DDE9022304B07047404261EB41014B
:100B6000002B1BDB00F078F8DDF804E0DDE9022360
:100B700004B0404261EB4101524263EB43037047D2
:100B8000524263EB430300F067F8DDF804E0DDE96F
:100B9000022304B0404261EB41017047524263EBD3
:100BA000430300F059F8DDF804E0DDE9022304B066
:100BB000524263EB4303704753B94AB9002908BF57
:100BC00000281CBF4FF0FF314FF0FF3000F0EAB9B2
:100BD000ADF1080C6DE904CE00F03EF8DDF804E05C
:100BE000DDE9022304B07047024608B50B4643EC2A
:100BF000172BB5EEC07BF1EE10FA03D4BDE8084028
:100C000000F00AB8B1EE477B51EC170B00F004F886
:100C1000404261EB410108BD9FED0B6B41EC170BAE
:100C20009FED0B5B27EE066BBCEEC66BB8EE464B3A
:100C300016EE101AA4EE457BFCEEC77B17EE900A69
:100C4000704700BFAFF30080000000000000F03DDF
:100C5000000000000000F0412DE9F04F8C46099E95
:100C600004460F46002B48D18A4215465ED9B2FA97
:100C700082F33BB1C3F120029F409D409C4020FA8B
:100C800002F217434FEA154E1FFA85FC220CB7FB00
:100C9000FEF10EFB117701FB0CF042EA0742904295
:100CA00007D9AA1801F1FF3702D2904200F2588109
:100CB0003946121AA4B2B2FBFEF00EFB102200FB62
:100CC0000CFC44EA0244A4450BD92C1900F1FF3274
:100CD0002CBF01270027A44502D9002F00F0438133
:100CE000104640EA0140A4EB0C0400211EB1DC4098
:100CF0000023C6E90043BDE8F08F8B4206D90EB150
:100D0000C6E9000100210846BDE8F08FB3FA83F17F
:100D1000002951D16345C0F01681824240F213810F
:100D20000846002EE7D0C6E90047E4E7002A00F0B5
:100D3000AF80B2FA82F3002B40F0C2808A1A4FEAE9
:100D4000154EAFB20121200CB2FBFEFC0EFB1C22A3
:100D500040EA024207FB0CF090420ED9AA180CF1AF
:100D6000FF382CBF4FF001094FF00009904203D922
:100D7000B9F1000F00F0F080C446121AA4B2B2FB21
:100D8000FEF00EFB102200FB07F744EA0244A742E4
:100D90000ED92C1900F1FF322CBF4FF0010E4FF08D
:100DA000000EA74203D9BEF1000F00F0D28010461A
:100DB000E41B40EA0C4099E7C1F120058B400CFA96
:100DC00001F400FA01F922FA05F72CFA05FC8A4031
:100DD0001F4320FA05F3380C23431FFA87FE1C0C2F
:100DE000BCFBF0F800FB18CC44EA0C4408FB0EFCFA
:100DF000A4450ED93C1908F1FF3A2CBF4FF0010B66
:100E00004FF0000BA44503D9BBF1000F00F0B880F0
:100E1000D046A4EB0C041FFA83FCB4FBF0F300FBF8
:100E2000134403FB0EFE4CEA0444A6450ED93C19BC
:100E300003F1FF302CBF4FF0010C4FF0000CA64522
:100E400003D9BCF1000F00F09F80034643EA08403D
:100E5000A4EB0E04A0FB02EC64457346E04602D30B
:100E600007D1F14505D2BEEB02036CEB070C01384C
:100E7000E0465EB1B9EB030264EB080404FA05F541
:100E800022FA01F3CC401D43C6E90054002132E7A9
:100E900042082F464B08AC4642EAC172AE46C40730
:100EA000110C92B241EA034142EA0142B1FBF5F171
:100EB000B3FBF5F01F23A2EB0C0241EA004142E72D
:100EC0009D40C3F1200299409C402CFA02FC4FEA5D
:100ED000154E20FA02F2AFB2BCFBFEF80A430EFB3D
:100EE00018CC110C41EA0C4108FB07FC8C4550D989
:100EF000691808F1FF302CBF4FF001094FF00009CD
:100F00008C4502D9B9F1000F30D0A1EB0C01B1FB37
:100F1000FEF808FB07FC0EFB181192B242EA0142F0
:100F2000624534D2AA1808F1FF312CBF4FF00109F5
:100F30004FF000096245BED2B9F1000FBBD1A8F154
:100F400002012A44B7E7841A6CEB0302012017461A
:100F5000E7E62C4402382BE7ACF1020C2A440CE7FC
:100F600002392A44A5E62C440238BAE6A5EB0C0C5B
:100F7000A8F102006144B1FBFEF808FB07FCCAE7D8
:100F8000A8F102083C4444E7023B3C445EE741468A
:100F900091E7A1EB0C014046B1FBFEF808FB07FC12
:100FA000B9E700BF704700BF044B82B0C3F84C0ADA
:100FB000D3F84C320193019B02B070470080025677
:100FC000044B82B0C3F88C0AD3F88C320193019B96
:100FD00002B0704700800256044B82B0C3F8A00AEA
:100FE000D3F8A0320193019B02B0704700800256F3
:100FF000F0B5134C056822680E68AA42C8BF0260AB
:1010000063680F689F42A768B8BF0B603A440768DF
:10101000974224BF02F1FF320260E26813440A687B
:101020009A4224BF03F1FF330B600368AB4204D143
:101030000868801B18BF0120F0BD0120FCE700BF3D
:10104000B84406340A4BD3ED027AF8EE677A67EEBD
:10105000807AFDEEE77AC0ED007AD3ED037AF8EE00
:10106000677A67EEA07AFDEEE77AC1ED007A704705
:10107000B84406340E4BD3ED027AB8EE677AD3ED5E
:10108000007AF8EE677AE7EE007AFDEEE77AC0EDD7
:10109000007AD3ED037AB8EE677AD3ED017AF8EEF1
:1010A000677AE7EE207AFDEEE77AC1ED007A7047C5
:1010B000B844063470B5ADF51A7D4022002168466B
:1010C00022F0CCF99822002110A822F0C7F94FF4A1
:1010D000C872002136A822F0C1F9012012F02AFFBF
:1010E0000125002319227D210226CDE91D32CDE9FB
:1010F00025150822E121CDE91A63CDE92163CDE967
:101100002323CDE92932CDE92B31CDE92F63CDE978
:1011100031231093062310A8CDE91F55CDE927569A
:10112000CDE92D56CDE934331C9633910CF076FB86
:1011300000B1FEE74FF440337F22CDE900234FF0AA
:10114000407302934FF08053CDE90C354FF00053BC
:10115000CDE90E354FF48013CDE90805CDE90A0637
:10116000CDE90330CDE90500079068460CF050FF4B
:1011700000B1FEE7084B002261934FF44003CDE934
:101180003623064B36A862930DF0BCFA00B1FEE799
:101190000DF51A7D70BD00BF140000031404000398
:1011A0007FB5CDE9041004A905A8CDE90232FFF707
:1011B0001FFF02A903A8FFF71BFFDDE90410089B2E
:1011C0000093DDE902321DF04BFE07B000BD0000C8
:1011D0002DE9F04F2DED048B484AE5B0136843F438
:1011E00000531360464B1A6A22F440321A621A6A9C
:1011F00022F040721A6206F007FF424B5A6912F45D
:10120000003211D1BFF34F8FBFF36F8FC3F850225D
:10121000BFF34F8FBFF36F8F5A6942F400325A61A8
:10122000BFF34F8FBFF36F8F344A136843F480537B
:101230001360A2F57342536913F4803328D1C2F8C6
:101240008430BFF34F8F43F6E074D2F88030C3F39D
:10125000C900C3F34E335B0100F1010E01464EF0AD
:1012600001E003EA040646EA8175C2F860520139DA
:101270000FF007C8203B13F1200FEDD1BFF34F8FC4
:10128000536943F480335361BFF34F8FBFF36F8FC4
:10129000FFF710FF10231A4C4FF00208C4F86C3A05
:1012A000D4F86C124FF001091091109AC4F85C3A0E
:1012B000D4F85C2214480F920F9B60232C930723D1
:1012C0002CA93093CDE92D89CDF8BC8009F05EFDC5
:1012D0000E4A0F4B0C2513604FF4E133536000238B
:1012E000C2E90435C2E9023393614FF4004310466A
:1012F000D3610AF059FC054660B1FEE700E001E069
:101300000080025600ED00E0001002562CA20634C8
:10131000001000524FF0004AC4F860AAD4F86022CE
:10132000484612924FF48052129BB74BC4F820AA41
:10133000C3F820A2FFF738FE4046FFF735FE042031
:10134000FFF732FE0820FFF72FFEC4F8542AD4F826
:101350005402CDE92D5511901199AC492CA82C912E
:101360000BF040FFAA492CA82C910BF03BFFA94998
:101370002CA82C910BF036FFA7492CA82C910BF030
:1013800031FF00F09DFE01F097F9284614F0E2FCD1
:10139000284614F003FE40F201114FF4007B0326AF
:1013A00018AF39802846394614F090FB284614F0CF
:1013B000FDFAC4F858BAD4F85802CDF8B0801390AA
:1013C000139948462CA92D960BF032FE08202CA923
:1013D0000BF02EFE09202CA90BF02AFE0A202CA9C6
:1013E0000BF026FE0B202CA90BF022FE31468B4879
:1013F0000BF074FE31468A480BF070FE3146894886
:101400000BF06CFE314688480BF068FE3146874889
:101410000BF064FE314686480BF060FE314685488D
:101420000BF05CFE4FF480614FF48052C4F8581A00
:10143000D4F858C2744BCDF850C01498C4F8181A98
:101440002020C3F81812FFF7C7FD1046FFF7C4FDB0
:101450005046FFF7C1FD4FF08040FFF7BDFDC4F8D7
:10146000BC8AD4F8BC22404617920422179BFFF78F
:10147000B3FDC4F8BC2AD4F8BC1258461691169B8A
:101480004023C4F8BC3AD4F8BC120DF1300B1591CE
:10149000159BFFF795FD8020FFF792FD4FF48070BC
:1014A000FFF78EFD4846FFF78BFD4046FFF788FDAE
:1014B0001046FFF785FD0820FFF782FD5E4821F00A
:1014C000B3FE5E4A5E495F4821F046FE5E4A5F49D0
:1014D0005F4821F041FE32464B460E215D4821F027
:1014E0003BFE32462B4649465B4821F035FE2B46F3
:1014F0002A463146594821F02FFE5949594821F0D2
:101500002BFE5949594821F027FE0DF128084A4879
:101510000BAE21F089FEC8F800503560CBF80050C2
:101520000D951FF0AEFD30B14FF4C471504B514AD0
:10153000514821F0DBF8514804F02EFE20B140F272
:101540008B114B4B4B4AF3E74C482CA904F066FE39
:1015500020B14FF4C771464B464AE9E7BDF8E03089
:10156000012B04D040F28F11454B424AE0E7336033
:101570003B9B44491B68414838AA089304F048FE45
:1015800020B140F295113A4B3A4AD1E732465946DA
:101590003A4804F040FEB8B93268282402F1010E3E
:1015A0004EF001E03C990DABBEF1010E11D10123CB
:1015B00035483B600EAC236006F0C2FA80B14FF4B0
:1015C000D4712B4B314AB3E740F29911284B294A89
:1015D000AEE704FB00F28A58013043F8042BE3E73E
:1015E00029482CA906F0EEFA20B140F2AB11204BAD
:1015F000264A9DE7BDF8E030012B4BD04FF4D67161
:10160000234B224A94E700BF009002560031025259
:101610008031025200320252803202520A000030FF
:10162000050000301C0000201D00002006000030D6
:101630000700003008000030ECE5023415E6023403
:1016400019E6023425E6023454E602345DE602343B
:1016500069E6023483E602349BE60234ADE60234E6
:10166000C7E60234FCE602340AE7023426E7023415
:1016700036E702345D1D03344AE70234C8A106345C
:1016800055E7023424A2063488A106344D1D0334E4
:1016900068E70234BDF8E230012B04D040F2AD110E
:1016A0009C4B9D4A44E73B9B1A6843F290339A4215
:1016B00004D04FF4D771994B974A39E73C9B1B688C
:1016C000082B04D040F2AF11954B934A30E72246E5
:1016D0009449954806F070FA20B14FF4D971934BB4
:1016E0008D4A25E72368012B04D040F2B311904BBB
:1016F000894A1DE73A468F498B4806F060FA20B1C7
:101700004FF4DB71894B844A12E73D68012D40F0AC
:10171000EA803C9B00211A68874B88481A601C228B
:1017200021F09CFE3946864804F078FD04460028E6
:1017300040F0DE803946834800F0A0FD82481AF070
:1017400065F906F07FFC814F814B424618603946AF
:10175000381F1AF0DFFC2946204614F045F8A7F19F
:101760000C0357F8081CDB68DFF828920B44C9F813
:101770000C30022357F80C0C57F8042C754F024418
:10178000C9F80000C9F80810C9F8042021464A46E3
:101790002046C9F81030C9F8147014F031F86E4BB7
:1017A000186859689A68DB6802440B44C9F80C3021
:1017B0000423C9F81030694BC9F80000C9F80810B3
:1017C000C9F8042029464A462046C9F8143014F0C6
:1017D00017F863481DF004F928461DF035F9204636
:1017E0001DF078FC5F481DF065F94FF0FF301DF0EB
:1017F00051F95D495D485E4B5E4A00F0F7FD2146B8
:1018000038461AF0E9FC1AF00FFDD8F80030042130
:10181000B3F5407F14BF584B584B18681AF0F0FCD2
:10182000574B1A68002AFCD000221A60D8F8003002
:10183000B3F5407F4CD0504B1A6802F01F03BFF342
:101840004F8F03F1030E1C3B4FEA5E1E20330EF157
:10185000010ED8BF4FF0010E4EF001E04949C1F82A
:101860005C2220320FF005C8BFF34F8FBFF36F8F9C
:101870004FF480730322CDE90032404C3E48D8F843
:101880000020216800681AF089F8089B002B1FDDF2
:101890002368089903F01F020A44BFF34F8F6FEAD1
:1018A000030E98188644203A4FEA5E1E20320EF14D
:1018B000010ED8BF4FF0010E4EF001E03149C1F8E2
:1018C000703220330FF005C8BFF34F8FBFF36F8F17
:1018D00006F0B8FB09900221194804F075FC1128A4
:1018E0000AD120BFF7E740F2B711274B0A4A1FE69B
:1018F000E3210E4B254A1BE610380128EBD910488E
:1019000004F0DCFC0546002846D040F27111074B7C
:101910001F4A0DE691E702344D1D0334BCE7023443
:10192000FAE702342C6B063488A1063436E7023419
:101930003AE80234286B0634246B063444A106349A
:10194000C8A10634C4A20634346B0634C444063439
:10195000306B063400701791A844063400000091E3
:10196000401205342C69063445100034F10F003460
:10197000A11100347510003408A2063424A20634E4
:1019800028A2063400ED00E062E80234701D033442
:101990003F1D03340CA2063406F054FB8246284651
:1019A0000DAC3168814200F2C380994B994A584688
:1019B00000F07AFC0023984C00276360A360E3608A
:1019C0004023C4E9053311233168DBF8002020628D
:1019D00027802761E36161B35AB30D9F002F28DD93
:1019E000114611F9013B02EB070EAEEB010E0EF1B1
:1019F000010E1A464EF001E0BEF1010E40F0BF802C
:101A00008349237091ED037A91F9101062705B1A8B
:101A100007EE903AF8EEE77A67EE877A531AC4ED4C
:101A2000017A07EE903AF8EEE77A67EE877AC4ED2E
:101A3000027A784F3A6832B3002394469E46DFED2F
:101A4000777ADFED776A11219CED027AF4EEC77A9E
:101A5000F1EE10FAB4EEE67A44BFF0EE477A4FF0BA
:101A6000010EF1EE10FAA4BF0123013501390CF18A
:101A70000C0CE9D10BB1684B1D61BEF1000F02D017
:101A8000654BC3ED037A6749674D0B6801330B6003
:101A90009AB303F0010303432FD106F0D3FA634A4C
:101AA000DFED637A1368C31A00EE103AB8EE400A0D
:101AB00020EE270AB5EEC00AF1EE10FA68D9F7EE6B
:101AC000007AB4EEE70AF1EE10FA61DCDFF89891E3
:101AD0001060396857482CAA19F09EFFD9F80836CB
:101AE000A9F540506B601AF00BFB2870002852D10A
:101AF00000236870AB616B61A860099BDFF86C9193
:101B0000AAEB03030993D7F800A0D9F800304A4F95
:101B10004A49012201FB037149480BF055FA03467B
:101B2000002800F0078140F28121464B464AFFE43D
:101B300054F8041B002920DD0CAB53F8203003F0CF
:101B40001F020A44BFF34F8F6FEA030E9F18BE4473
:101B5000203A4FEA5E1E20320EF1010ED8BF4FF040
:101B6000010E4EF001E03949C1F85C3220330FF02C
:101B700005C8BFF34F8FBFF36F8F013011E711F925
:101B8000017BBB42A8BF3B46BA42B8BF3A4633E7E7
:101B90009FED2F0A9AE72F4BA9F5405019681AF0CC
:101BA00085FA2C4B1B6803F01F0E0EF54E5E0EF1EE
:101BB000100EBFF34F8F0EF1FF3E4FEA5E1E0EF187
:101BC000010E4EF001E0214AC2F8683220330FF0D6
:101BD00005C8BFF34F8FBFF36F8F06F033FA81460E
:101BE0001D4821F021FB02211C4805F0C1FF1128EE
:101BF00001D120BFF7E710380128F4D9174806F0C3
:101C00002FF8A8B34FF4BF71154B164A90E400BFEC
:101C1000C4A20634C0A2063460A10634000000004D
:101C2000CDCC4C3E206B063444A10634306B0634D8
:101C30006F12833A346B06340000009100B80B0039
:101C4000FCB00634ACE80234181D033400ED00E0AB
:101C50008988883D2C6B06348CE8023488A10634D0
:101C600036E702342E1D0334349B063484A1063437
:101C700006F0E8F9A0EB0901B348A96021F06CFA7D
:101C8000B24BB349186800281FDD0B6803F01F0230
:101C90000244BFF34F8F6FEA030E03EB020CE644DE
:101CA000203A4FEA5E1E20320EF1010ED8BF4FF0EF
:101CB000010E4EF001E0A748C0F85C3220330FF06F
:101CC00005C8BFF34F8FBFF36F8F0B681A68EA60C8
:101CD000D3ED018AC5ED048A93ED000AB4EEE80A5B
:101CE000F1EE10FA30FE289A30EE490A24F010F98D
:101CF000B0EE408A38EEC90A24F00AF978EE006A9C
:101D0000F5EEC06AF1EE10FAD3BFF6EE007AC8EE37
:101D1000267A80EE267AB0EE677AB4EEE77AF1EEB4
:101D200010FAACBF01230023C5ED057A85ED067AD4
:101D30006B70E2E688480093D0E90223D0E9000105
:101D40001DF08CF9504600F05FFB4FF080401CF016
:101D5000A9FE95F800A0BAF1000F00F0DD806B78C5
:101D6000002B00F0D4807D481CF094FE1CF0AAFEED
:101D70006B78C188002B00F0CD80794BAA680020D9
:101D8000069295ED057AB7EEC77A8DED047B95ED59
:101D9000067AB7EEC77A00938DED027B0122714B74
:101DA00000F0CEFB4FF0FF301CF074FE1CF08AFEFA
:101DB00094ED037AB7EEC77A1123C1888DED027BCB
:101DC000012201932369914000200093664B00F0AB
:101DD000B7FB1CF077FE94ED027AB7EEC77AC188A4
:101DE0008DED047B94ED017AB7EEC77A8DED027B21
:101DF00094F901300122019394F9003001EB410183
:101E000000200093594B00F09BFB1CF05BFE236A03
:101E1000C1880393E36901220293A36989000193B6
:101E2000636900200093524B00F08AFB1CF04AFECD
:101E3000C1881420099B41430122002000934D4B8F
:101E400000F07EFB4FF0FF301CF024FE4A4C4B4864
:101E50001CF030FE00201CF025FE236813B906F0AC
:101E6000F1F8206006F0EEF82368C01AB0F57A6F3A
:101E70002CD26B236421424A4FF496700093C823FE
:101E80001CF028FE4FF080401CF00CFE1CF01AFEE7
:101E9000C18801223B4B0901002000F051FB1CF0DE
:101EA00011FEC1880122384B01EB0111002000F026
:101EB00047FB1CF007FEC188122001224143334B2F
:101EC000002000F03DFB00201CF0ECFDD9F80030B4
:101ED0002F4A02FB0377BFF34F8F45F6C05E4EF0EB
:101EE00001E01C4BC3F8687220370FF005C8BFF340
:101EF0004F8FBFF36F8F0122022126480BF03CF871
:101F0000D8B140F2B621244B244AFFF711BB4FF061
:101F1000FF2029E7224B31E76FF0FF001CF0BAFDEC
:101F20001CF0D0FD3C23C18801936B680122009313
:101F300050461C4B00F004FB34E71B4A1368C3F106
:101F4000010313605FE400BF99E80234246B063498
:101F5000286B063400ED00E0A84406340000FFFFC3
:101F6000E0E50234BAE80234FAE802340DE902345A
:101F700027E902343EE902341C6B06342C6906342E
:101F8000501E03344EE902345EE9023491E9023412
:101F900000B80B00FCB00634ACE80234181D033462
:101FA000E5E50234DDE8023484A1063408B50248D0
:101FB00021F03AF9FEE700BFBCE9023410B5E4B005
:101FC0004FF4C8720021684621F048FA002310221D
:101FD000CDE900234FF400134FF0805132930323D7
:101FE0006846CDE922130CF08DFB48B90023082286
:101FF000CDE9002328232490684625930CF082FB2A
:1020000064B010BD0138012810B5144607D921F07D
:1020100069FC09234FF0FF340360204610BD4FF0E8
:10202000FF33044892B209F007FD002818BF0024CE
:10203000F3E700BF2CA2063407B54FF080424FF4FF
:102040008060FEF7B1FF074BC3F8602AD3F8601237
:1020500001910199C3F8202A03F58053C3F8202287
:1020600003B000BD0080025600BEFEE701207047AD
:1020700008B521F037FC162303604FF0FF3008BD90
:1020800008B521F02FFC16230360FEE770B50D465E
:1020900014460E46731B9C4201DC204670BDAFF314
:1020A000008006F8010BF5E74FF0FF3070474FF462
:1020B000005300204B60704701207047002070479C
:1020C0001FB5144B7C2101AA02A8029311F0AAFEAD
:1020D0000346E0B9019A02F4C031B1F5C03F17D010
:1020E00042F4C0327C2102A8019211F0B7FE68B917
:1020F0007C2101AA02A811F095FE30B9019B03F4DE
:10210000C033B3F5C03F03D0FEE7FEE7FEE7FEE7CE
:1021100005B000BD0090005692ED017A2DE9F74F11
:102120000026019017EE100A3546F6EE006A984632
:102130001368D2F808A000FB03FE554502D103B096
:10214000BDE8F08FB8F1000F0CBF30462846019C67
:10215000012720560024A64514BFF146B94605EBD9
:102160000A0B0094B9F101092FD1009C06EE103A38
:10217000B4FBF3F703FB174407EE904AF8EE677AD7
:10218000F8EE465A77EEA67A87EEA56A07EE907AC1
:10219000F8EE677AF8EE475A77EEA67A81ED006A94
:1021A00087EEA56A81ED016A92F9104092ED036A0B
:1021B000001B07EE900AF8EEE77A67EE867A0135A3
:1021C000C1ED027A76440C31B7E7B8F1000F07EBA6
:1021D000060C18BFDC46019CD34414F90CC06045C2
:1021E000ACBF8446009760460137BBE70C23F0B5CF
:1021F0008E680446024603FB06060020B24200D168
:10220000F0BDD1ED007A91ED017AB8EE676AF8EE93
:10221000475AD2ED007A92ED017A66EE277A25EEE2
:10222000877AFCEEE77ABCEEC77A2546124F131B7D
:102230009B087B4323F040430133013B01D10C3227
:10224000DCE7D5ED006A66EE266AFCEEE66A17EE7C
:10225000907A16EE90CA67450BD1D5ED016A65EE0E
:10226000A66AFCEEE66A17EE107A16EE90CA67458B
:1022700000D001300C35E0E7ABAAAA2A88B181B1C1
:102280004A8E012A0DD10A6C9169126A0968128876
:10229000C16002744022C0E900221122826000F075
:1022A00067B84FF0FF30704730B51C46E7B00AB151
:1022B0002D4B1360012904D118B105680DB102B18D
:1022C00044B9CC220021284821F0C8F84FF0FF3053
:1022D00067B030BD22460B4628466946FFF71CFF13
:1022E0000023284633A9FFF717FF21466846FFF76A
:1022F0007DFF044633A8FFF779FF89686B4601F13B
:10230000010E0022DFED197A4EF001E00C33BEF130
:10231000010E1AD102F1010E9FED147A4EF001E088
:1023200033AB0C33BEF1010E15D1844205D317D166
:10233000B4EEE77AF1EE10FA12DDCC220DEB0201D9
:10234000094821F012FB0020C2E713ED017A0132A7
:1023500077EE877ADAE753ED016A37EE267AE0E71F
:10236000CC226946ECE700BFD8A20634000000008A
:102370000020704790ED027ADFED197AB4EEE77A2B
:10238000F1EE10FA7FB502460D4626D4154BD2ED7C
:10239000010A92ED000A1B6803A902A89847029B54
:1023A000114E023B0093039B01A9023B0193684637
:1023B00033689847029B044602330093039B6846A8
:1023C0000233019301A933689847044305D1DDE93D
:1023D00002012B4605221CF08DFE04B070BD00BF2B
:1023E000CDCC4C3EA8A30634ACA306340349086008
:1023F00003490A60034A1360704700BFACA3063468
:10240000A8A30634A4A306342DE9F04F2DED028BCA
:102410004FF0120B9FED458A89B0454FDFF81491BC
:10242000DFF814A103900C233E68039A03FB0626F1
:10243000D6ED027AF4EEC87AF1EE10FA5ED47D6839
:1024400003FB0523D3ED027AF4EEC87AF1EE10FA1D
:10245000029353D4D9F8003005A904A8D6ED010A97
:1024600096ED000ABC689847DAF8003005A904A880
:102470009847002842D1029AD9F8003007A906A847
:10248000D2ED010A92ED000A9847DAF8003007A968
:1024900006A8984790BBDDE90401DDE90623009416
:1024A0001CF0DEFC04A80FC8A3EB010EA2EB000C8D
:1024B000BEF1000FB8BFCEF1000EBCF1000FDFF887
:1024C0007C80B8BFCCF1000CE645D8F800500094F1
:1024D0001EDD01320130A847DDE90623DDE90401F4
:1024E0000094D8F80080013A0138C04721463046B0
:1024F000FFF740FF21460298FFF73CFFBBF1010BBD
:1025000007F10C078FD109B0BDEC028BBDE8F08F4D
:1025100001330131A847DDE90512079B0094D8F883
:1025200000800498013B0139DFE700BFCDCC4C3E71
:10253000781D0334A8A30634ACA30634A4A3063440
:1025400008B477B504460D46164607AB53F8042B7E
:1025500030210748019320F0E1FE3346294620460A
:10256000034A1CF037FC03B0BDE8704001B070476F
:10257000B0A3063410B50446FEF70AF92146BDE8BB
:10258000104082B241F28833014809F055BA00BFC9
:102590002CA206347047000008B50248FFF7EAFF96
:1025A000FEE700BFD8E9023408B50248FFF7E2FFB2
:1025B000FEE700BFEFE9023408B50248FFF7DAFF93
:1025C000FEE700BF06EA023408B50248FFF7D2FF73
:1025D000FEE700BF1CEA023408B50248FFF7CAFF55
:1025E000FEE700BF34EA02347047FEE7FEE705F07D
:1025F0001DBD08B512F0DCF9BDE8084006F0CABA06
:1026000008B512F0D5F9BDE8084006F08CB9000015
:1026100010B5134C6369DB0321D50A1A002A1EDDAD
:1026200000F01F031A44BFF34F8F6FEA000E1B1A0E
:1026300002440B449644203B4FEA5E1E20330EF1C9
:10264000010ED8BF4FF0010E4EF001E0C4F85C025D
:1026500020300FF005C8BFF34F8FBFF36F8F10BD51
:1026600000ED00E010B5134C6369DB0321D50A1AB5
:10267000002A1EDD00F01F031A44BFF34F8F6FEADC
:10268000000E1B1A02440B449644203B4FEA5E1E88
:1026900020330EF1010ED8BF4FF0010E4EF001E0D5
:1026A000C4F8680220300FF005C8BFF34F8FBFF3A6
:1026B0006F8F10BD00ED00E0074808B50268074BBA
:1026C0009A4202D003600AF0FFFD03480AF0C8FDF9
:1026D0000228FAD008BD00BFE0A3063400FC0D5864
:1026E00008B5FFF7A9FC08BD10B5AEB0B4220021B3
:1026F00001A820F0B3FE4FF488544FF488314022F3
:10270000282311204FF0440CCDE90614CDE9022214
:10271000CDE90D2204244FF488624FF4882E8DF801
:1027200004300123CDE908C4CDE91220114C124A2E
:10273000CDE90403CDE90AE4CDE90F0304F5E02473
:10274000219201A802F54472CDE9143111918DF85E
:102750005C301C938DF8883027932C928DF8B43020
:1027600016941FF027FD20460449FFF77BFF2EB08B
:1027700010BD00BF000027343035627000102F34C8
:10278000F0B5BBB0E422002101A820F067FE1023C1
:10279000112104244FF488258DF80430442340206F
:1027A00001224FF488374FF48856DFF864C0CDE932
:1027B0001C13CDE90A5CCDE90834CDE91334CDE929
:1027C0001E34159520930F4D0F4BCDE90200CDE936
:1027D0000D000DEB0400CDE90412CDE90F12CDE997
:1027E0001A12CDE918222193CDE90676CDE91176AA
:1027F00016951FF0D5F928460449FFF733FF3BB083
:10280000F0BD00BF000027340040323400402B34BC
:1028100000002E3410B5AEB0B422002101A820F083
:102820001DFE4FF488644FF4883140222A23112082
:10283000CDE90614CDE90222CDE90D228DF8043050
:102840000A910123119144224FF48851CDE90403E8
:10285000CDE90803CDE90F03CDE9121204204FF4AE
:102860008822CDE9140202F1E2420E4CA2F52202C6
:10287000A2F526620B942192A4F5342402F5447249
:1028800001A88DF830301C9327932C928DF8B4302A
:1028900016941FF02BFD20460349FFF7E3FE2EB0F0
:1028A00010BD00BF0040323400402B3430B5AFB013
:1028B000B422002101A820F0D1FD4FF4883040223D
:1028C0004FF48861CDE90222CDE90601CDE90D2260
:1028D0004FF4885144222A23CDE912120A90119014
:1028E0004FF48822042011248DF804300123CDE90F
:1028F000140202F1E242A2F52202CDE90443CDE93D
:102900000843CDE90F430D4D0D4CA2F52E622192E7
:1029100001A802F544728DF830301C938DF8883090
:1029200027932C928DF8B4300B9516941FF0DEFC93
:1029300029462046FFF796FE2FB030BD00403234C6
:1029400000002E3410B51F49AEB01F48FFF760FEDF
:10295000B422002101A820F081FD2A2311228DF844
:10296000043001231949CDE90423CDE90823CDE939
:102970000F23CDE906220A920B91119204214422E1
:10298000CDE91412CDE91222114A124C0DEB0100CF
:10299000219202F54472CDE90233CDE90D338DF871
:1029A00030301C938DF8883027932C928DF8B430FA
:1029B00016941FF09BFC20460249FFF753FE2EB0F1
:1029C00010BD00BF60403234404032345040323499
:1029D000103562700040323400B52049AFB0204855
:1029E000FFF716FEB422002101A820F037FD2823AE
:1029F00011228DF80430012344210420CDE9042361
:102A0000CDE90F23CDE91323CDE9112206921592CA
:102A1000144ACDE90901169202F17452A2F550024E
:102A2000CDE90711A2F52A620F492192684402F507
:102A30004472CDE90233CDE90D330B918DF85C3052
:102A40001C9327932C928DF8B4301FF0B3FB0349ED
:102A50000348FFF707FE2FB000BD00BF80403234AF
:102A600040403234504032340040323410B51C49BA
:102A700098B01C48FFF7CCFD60220021684620F08A
:102A8000EDFC3F238DF8003040234FF48830CDE932
:102A900001334FF488534FF4882CCDE905034423C8
:102AA000042001221121104CCDE90730CDE909C4E1
:102AB000CDE9123004F534246846CDE90312CDE99E
:102AC0000E12CDE91013CDE90C22149315941FF0CA
:102AD000BFFA20460249FFF7C5FD18B010BD00BF80
:102AE00060403234404032340000273408B50421BD
:102AF00004481CF09DFEBDE80840052102481DF079
:102B00006DBD00BFA0E704348CE7043408B5022192
:102B100004481CF08DFEBDE80840032102481DF06A
:102B20005DBD00BFD8E50434CCE5043408B50D2103
:102B300004481CF07DFEBDE808400B2102481DF052
:102B40004DBD00BF14E40434E8E3043408B50521A6
:102B500004481CF06DFEBDE80840062102481DF047
:102B60003DBD00BFC4DF0434ACDF043408B504212C
:102B700004481CF05DFEBDE80840052102481DF038
:102B80002DBD00BF80DD04346CDD043408B50521A3
:102B900004481CF04DFEBDE80840062102481DF027
:102BA0001DBD00BF7CDB043464DB043408B50421A4
:102BB00004481CF03DFEBDE80840052102481DF018
:102BC0000DBD00BF38D9043424D9043408B503211D
:102BD00004481CF02DFEBDE80840042102481DF009
:102BE000FDBC00BF54D7043444D7043408B50721D2
:102BF00004481CF01DFEBDE80840072102481DF0F6
:102C0000EDBC00BF84D5043468D5043408B5042174
:102C100004481CF00DFEBDE80840052102481DF0E7
:102C2000DDBC00BFCCD20434B8D2043408B50321D3
:102C300004481CF0FDFDBDE80840042102481DF0D9
:102C4000CDBC00BFE8D00434D8D0043408B50D2181
:102C500004481CF0EDFDBDE808400B2102481DF0C2
:102C6000BDBC00BFB8CE04348CCE043408B50421FA
:102C700004481CF0DDFDBDE80840052102481DF0B8
:102C8000ADBC00BF78CA043464CA043408B503215B
:102C900004481CF0CDFDBDE80840042102481DF0A9
:102CA0009DBC00BF94C8043484C8043408B50F2107
:102CB00004481CF0BDFDBDE808400D2102481DF090
:102CC0008DBC00BF44C6043410C6043408B51321BB
:102CD00004481CF0ADFDBDE80840112102481DF07C
:102CE0007DBC00BF54C0043410C0043408B50F21AB
:102CF00004481CF09DFDBDE808400D2102481DF070
:102D00006DBC00BF44B9043410B9043408B50821BF
:102D100004481CF08DFDBDE80840092102481DF063
:102D20005DBC00BF04B40434E0B3043408B513211F
:102D300004481CF07DFDBDE80840112102481DF04B
:102D40004DBC00BFC0AF04347CAF043408B51121C2
:102D500004481CF06DFDBDE808400F2102481DF03D
:102D60003DBC00BF90A8043454A8043408B5082121
:102D700004481CF05DFDBDE80840092102481DF033
:102D80002DBC00BFA0A204347CA2043408B51321DA
:102D900004481CF04DFDBDE80840112102481DF01B
:102DA0001DBC00BF5C9E0434189E043408B511217C
:102DB00004481CF03DFDBDE808400F2102481DF00D
:102DC0000DBC00BF2C970434F096043408B50821DC
:102DD00004481CF02DFDBDE80840092102481DF003
:102DE000FDBB00BF3C9104341891043408B5132195
:102DF00004481CF01DFDBDE80840112102481DF0EB
:102E0000EDBB00BFF88C0434B48C043408B50C213D
:102E100004481CF00DFDBDE808400B2102481DF0E0
:102E2000DDBB00BF18860434EC85043408B50821E6
:102E300004481CF0FDFCBDE80840092102481DF0D3
:102E4000CDBB00BF9C8104347881043408B51121C6
:102E500004481CF0EDFCBDE808400F2102481DF0BD
:102E6000BDBB00BF787D04343C7D043408B50E2121
:102E700004481CF0DDFCBDE808400D2102481DF0AF
:102E8000ADBB00BF387704340477043408B508219B
:102E900004481CF0CDFCBDE80840092102481DF0A3
:102EA0009DBB00BF0C720434E871043408B51121D5
:102EB00004481CF0BDFCBDE808400F2102481DF08D
:102EC0008DBB00BFE86D0434AC6D043408B50E2131
:102ED00004481CF0ADFCBDE808400D2102481DF07F
:102EE0007DBB00BFA86704347467043408B50821AB
:102EF00004481CF09DFCBDE80840092102481DF073
:102F00006DBB00BF7C6204345862043408B51121E3
:102F100004481CF08DFCBDE808400F2102481DF05C
:102F20005DBB00BF585E04341C5E043408B50A2142
:102F300004481CF07DFCBDE80840092102481DF052
:102F40004DBB00BF585804343458043408B505212B
:102F500004481CF06DFCBDE80840062102481DF045
:102F60003DBB00BFCC540434B454043408B5102124
:102F700004481CF05DFCBDE808400F2102481DF02C
:102F80002DBB00BFC85104348C51043408B50C214A
:102F900004481CF04DFCBDE808400A2102481DF021
:102FA0001DBB00BFB84B0434904B043408B50C2152
:102FB00004481CF03DFCBDE808400B2102481DF010
:102FC0000DBB00BF484704341C47043408B5052135
:102FD00004481CF02DFCBDE80840062102481DF005
:102FE000FDBA00BF0C430434F442043408B50E218A
:102FF00004481CF01DFCBDE808400C2102481DF0EF
:10300000EDBA00BF28400434F83F043408B50C2161
:1030100004481CF00DFCBDE808400B2102481DF0DF
:10302000DDBA00BF183B0434EC3A043408B505217E
:1030300004481CF0FDFBBDE80840062102481DF0D5
:10304000CDBA00BFDC360434C436043408B50E21D2
:1030500004481CF0EDFBBDE808400C2102481DF0BF
:10306000BDBA00BFF8330434C833043408B50C21AA
:1030700004481CF0DDFBBDE808400B2102481DF0B0
:10308000ADBA00BFE82E0434BC2E043408B50521C7
:1030900004481CF0CDFBBDE80840062102481DF0A5
:1030A0009DBA00BFAC2A0434942A043408B50E211A
:1030B00004481CF0BDFBBDE808400C2102481DF08F
:1030C0008DBA00BFC82704349827043408B50721F7
:1030D00004481CF0ADFBBDE80840072102481DF084
:1030E0007DBA00BF08230434EC22043408B505215E
:1030F00004481CF09DFBBDE80840062102481DF075
:103100006DBA00BF402004342820043408B50F21D4
:1031100004481CF08DFBBDE808400F2102481DF05B
:103120005DBA00BF4C1D0434101D043408B50921DC
:1031300004481CF07DFBBDE80840092102481DF051
:103140004DBA00BF7C1704345817043408B5052164
:1031500004481CF06DFBBDE80840062102481DF044
:103160003DBA00BF04140434EC13043408B508213C
:1031700004481CF05DFBBDE80840082102481DF032
:103180002DBA00BF801104346011043408B5092140
:1031900004481CF04DFBBDE80840092102481DF021
:1031A0001DBA00BF280E0434040E043408B50521EE
:1031B00004481CF03DFBBDE80840062102481DF014
:1031C0000DBA00BFB00A0434980A043408B50821C7
:1031D00004481CF02DFBBDE80840082102481DF002
:1031E000FDB900BF2C0804340C08043408B50721CD
:1031F00004481CF01DFBBDE80840072102481DF0F3
:10320000EDB900BFF4040434D804043408B5052132
:1032100004481CF00DFBBDE80840062102481DF0E3
:10322000DDB900BF2C0204341402043408B50521B2
:1032300004481CF0FDFABDE80840062102481DF0D4
:10324000CDB900BFD8FF0334C0FF033408B50D214A
:1032500004481CF0EDFABDE808400D2102481DF0BD
:10326000BDB900BF04FD0334D0FC033408B505210B
:1032700004481CF0DDFABDE80840062102481DF0B4
:10328000ADB900BF28F8033410F8033408B50521A0
:1032900004481CF0CDFABDE80840062102481DF0A4
:1032A0009DB900BFD4F50334BCF5033408B50D2136
:1032B00004481CF0BDFABDE808400B2102481DF08F
:1032C0008DB900BF00F30334D4F2033408B50521EF
:1032D00004481CF0ADFABDE80840062102481DF084
:1032E0007DB900BFB0EE033498EE033408B5052174
:1032F00004481CF09DFABDE80840062102481DF074
:103300006DB900BF5CEC033444EC033408B507210D
:1033100004481CF08DFABDE80840072102481DF062
:103320005DB900BFE8E90334CCE9033408B50521F1
:1033300004481CF07DFABDE80840062102481DF053
:103340004DB900BF20E7033408E7033408B5052171
:1033500004481CF06DFABDE80840062102481DF043
:103360003DB900BFCCE40334B4E4033408B5022112
:1033700004481CF05DFABDE80840032102481DF036
:103380002DB900BFA8E203349CE2033408B512490A
:1033900003201CF04BFE114900201CF081FD01228E
:1033A0000F4900201CF08CFA01220E4907201CF066
:1033B00087FA01220C4908201CF082FA04210B48EC
:1033C0001CF022FA0A490B48FFF722F9BDE8084031
:1033D000052109481CF092B954E7043424E7043469
:1033E000DCE6043494E604344CE604340CE604349D
:1033F0000050333400403234F8E5043408B50E4947
:1034000003201CF013FE01220C4906201CF058FA80
:1034100001220B4910461CF053FA012209490220EF
:103420001CF04EFA032108481CF0EEF9BDE80840F4
:10343000042106481CF062B90CD70434C4D6043405
:103440007CD6043434D6043404D60434F4D504349D
:1034500008B50E4902201CF0E9FD01220C490620A6
:103460001CF02EFA01220B4910461CF029FA012209
:10347000094903201CF024FA032108481CF0C4F970
:10348000BDE80840042106481CF038B9A0D0043437
:1034900058D0043410D00434C8CF043498CF043446
:1034A00088CF043408B50E4900201CF0BFFD01226E
:1034B0000C4904201CF004FA01220B4902201CF0E4
:1034C000FFF90122094906201CF0FAF903210848F6
:1034D0001CF09AF9BDE80840042106481CF00EB91A
:1034E0004CC8043404C80434BCC7043474C704345E
:1034F00044C7043434C7043408B50C4900201CF018
:1035000095FD01220A4903201CF0DAF9012209493C
:1035100009201CF0D5F9022107481CF075F9BDE817
:103520000840032105481CF0E9B800BF64E20334F9
:103530001CE20334D4E10334B4E10334A8E10334DE
:1035400008B50C4900201CF05BFF01220A4900204D
:103550001CF0B6F90122094908201CF0B1F902213A
:1035600007481CF051F9BDE80840032105481CF04C
:10357000C5B800BFA0E5043458E5043410E50434B0
:10358000F0E40434E4E4043408B51E4903201CF0DC
:10359000FDFA1D4900201CF0F9FA1C4901201CF01D
:1035A000F5FA1B4902201CF0F1FA1A4901201CF01F
:1035B0003DFD0122184900201CF082F90122174923
:1035C00008201CF07DF90122154906201CF078F92D
:1035D0000122144905201CF073F9012212491046FA
:1035E0001CF06EF90122114903201CF069F90D212C
:1035F0000F481CF009F9BDE808400B210D481CF0EC
:103600007DB800BFACE3043470E3043434E3043425
:10361000F8E20434C0E2043478E2043430E20434E2
:10362000E8E10434A0E1043458E1043410E1043446
:1036300040E0043414E0043408B5124902201CF0C0
:10364000A5FA114902201CF0F1FC104900201CF0E1
:10365000EDFC01220E4903201CF032F901220D4934
:1036600000201CF02DF901220B4909201CF028F93B
:1036700005210A481CF0C8F8BDE8084006210848A2
:103680001CF03CB870DF043438DF043400DF04344D
:10369000B8DE043470DE043428DE0434D8DD0434AB
:1036A000C0DD043408B5104901201CF06FFA0F4941
:1036B00003201CF0BBFC01220D4900201CF000F986
:1036C00001220C4903201CF0FBF801220A490820C2
:1036D0001CF0F6F8042109481CF096F8BDE80840F3
:1036E000052107481CF00AB830DD0434F8DC043446
:1036F000B0DC043468DC043420DC0434E0DB043463
:10370000CCDB043408B5124900201CF03FFA114903
:1037100000201CF08BFC104901201CF087FC0122CA
:103720000E4905201CF0CCF801220D4904201CF0A4
:10373000C7F801220B4910461CF0C2F805210A48BF
:103740001CF062F8BDE80840062108481BF0D6BF0F
:1037500028DB0434F0DA0434B8DA043470DA0434E0
:1037600028DA0434E0D9043490D9043478D9043404
:1037700008B5104903201CF009FA0F4902201CF07B
:1037800055FC01220D4905201CF09AF801220C4934
:1037900006201CF095F801220A4904201CF090F83C
:1037A000042109481CF030F8BDE80840052107480D
:1037B0001BF0A4BFE8D80434B0D8043468D804346B
:1037C00020D80434D8D7043498D7043484D70434A8
:1037D00008B5174901201CF0D9F9164902201CF040
:1037E000D5F9154901201CF021FC0122134910468E
:1037F0001CF066F80122124905201CF061F8012234
:10380000104900201CF05CF801220F4909201CF02F
:1038100057F807210D481BF0F7FF0D490D48FEF73B
:10382000F7FEBDE8084007210B481BF067BF00BF4B
:103830002CD50434F0D40434B8D4043470D4043413
:1038400028D40434E0D3043498D3043428D3043483
:1038500000602E3400002E340CD3043408B5104917
:1038600000201CF093F90F4900201CF0DFFB01221F
:103870000D4905201CF024F801220C4906201CF0FB
:103880001FF801220A4903201CF01AF804210948F4
:103890001BF0BAFFBDE80840052107481BF02EBF0A
:1038A0007CD2043444D20434FCD10434B4D1043482
:1038B0006CD104342CD1043418D1043408B5204917
:1038C00001201CF063F91F4902201CF05FF91E491A
:1038D00003201CF05BF91D4900201CF057F91C491E
:1038E00003201CF0A3FB01221A4904201BF0E8FF6F
:1038F0000122194907201BF0E3FF0122174902208A
:103900001BF0DEFF0122164909201BF0D9FF01221E
:10391000144903201BF0D4FF0122134905201BF09A
:10392000CFFF0D2111481BF06FFF11491148FEF721
:103930006FFEBDE808400B210F481BF0DFBE00BF43
:1039400050CE043414CE0434D8CD04349CCD043489
:1039500064CD04341CCD0434D4CC04348CCC043475
:1039600044CC0434FCCB0434B4CB0434E4CA043473
:1039700000A0343400803434B8CA043408B5104987
:1039800000201CF003F90F4901201CF04FFB01221D
:103990000D4905201BF094FF01220C4909201BF062
:1039A0008FFF01220A4903201BF08AFF04210948E6
:1039B0001BF02AFFBDE80840052107481BF09EBE0A
:1039C00028CA0434F0C90434A8C9043460C90434D2
:1039D00018C90434D8C80434C4C8043408B5254907
:1039E00000201CF0D3F8244901201CF0CFF8234913
:1039F00002201CF0CBF8224903201CF0C7F8214913
:103A000002201CF013FB01221F4900201BF058FF6D
:103A100001221E4908201BF053FF01221C491046B9
:103A20001BF04EFF01221B4904201BF049FF01221D
:103A3000194906201BF044FF0122184905201BF0FC
:103A40003FFF0122164902201BF03AFF01221549CF
:103A500003201BF035FF0F2113481BF0D5FE13493F
:103A60001348FEF7D5FDBDE808400D2111481BF0B5
:103A700045BE00BFD4C5043498C504345CC50434C5
:103A800020C50434E8C40434A0C4043458C4043445
:103A900010C40434C8C3043480C3043438C30434A9
:103AA000F0C20434A8C20434B8C104340050343421
:103AB0000040343484C1043408B52C4900201CF083
:103AC00065F82B4901201CF061F82A4902201CF0FE
:103AD0005DF8294903201CF059F8284900201CF002
:103AE000A5FA274901201CF0A1FA264903201CF061
:103AF0009DFA0122244902201BF0E2FE0122234903
:103B000005201BF0DDFE0122214903201BF0D8FE19
:103B10000122204904201BF0D3FE01221E49104639
:103B20001BF0CEFE01221D4900201BF0C9FE012220
:103B30001B4906201BF0C4FE01221A4909201BF074
:103B4000BFFE0122184907201BF0BAFE01221749C7
:103B500008201BF0B5FE132115481BF055FEBDE8EB
:103B60000840112113481BF0C9BD00BFD4BF043465
:103B700098BF04345CBF043420BF0434E8BE04346E
:103B8000B0BE043478BE043430BE0434E8BD04341E
:103B9000A0BD043458BD043410BD0434C8BC043482
:103BA00080BC043438BC0434F0BB0434A8BB0434F7
:103BB00078BA043434BA043408B5234901201BF020
:103BC000E5FF224902201BF0E1FF214903201BF001
:103BD000DDFF204900201BF0D9FF1F4902201CF007
:103BE00025FA01221D4904201BF06AFE01221C490E
:103BF00010461BF065FE01221A4909201BF060FEE9
:103C00000122194900201BF05BFE01221749062002
:103C10001BF056FE0122164907201BF051FE01221F
:103C2000144908201BF04CFE0122134905201BF00B
:103C300047FE0F2111481BF0E7FDBDE808400D21AC
:103C40000F481BF05BBD00BFD4B8043498B80434EF
:103C50005CB8043420B80434E8B70434A0B70434A2
:103C600058B7043410B70434C8B6043480B60434EA
:103C700038B60434F0B50434A8B50434B8B4043408
:103C800084B4043408B5194900201BF07FFF18499B
:103C900003201CF0CBF9174900201CF0C7F9164986
:103CA00001201CF0C3F90122144906201BF008FE74
:103CB0000122134905201BF003FE012211490320B4
:103CC0001BF0FEFD0122104902201BF0F9FD01222C
:103CD0000E4907201BF0F4FD08210D481BF094FD50
:103CE000BDE8084009210B481BF008BDA4B304340B
:103CF0006CB3043434B30434FCB20434B4B20434CA
:103D00006CB2043424B20434DCB1043494B104340D
:103D100014B10434F0B0043408B52C4900201BF071
:103D200035FF2B4901201BF031FF2A4902201BF0EF
:103D30002DFF294903201BF029FF284901201CF0F1
:103D400075F9274902201CF071F9264900201CF062
:103D50006DF90122244908201BF0B2FD01222349FC
:103D600010461BF0ADFD0122214909201BF0A8FDE2
:103D70000122204905201BF0A3FD01221E49062037
:103D80001BF09EFD01221D4900201BF099FD012220
:103D90001B4902201BF094FD01221A4903201BF04D
:103DA0008FFD0122184904201BF08AFD01221749CA
:103DB00007201BF085FD132115481BF025FDBDE8EC
:103DC0000840112113481BF099BC00BF40AF0434D8
:103DD00004AF0434C8AE04348CAE043454AE04349E
:103DE0001CAE0434E4AD04349CAD043454AD04344E
:103DF0000CAD0434C4AC04347CAC043434AC0434B2
:103E0000ECAB0434A4AB04345CAB043414AB043426
:103E1000E4A90434A0A9043408B5274901201BF003
:103E2000B5FE264902201BF0B1FE254903201BF0F8
:103E3000ADFE244900201BF0A9FE234903201CF0FD
:103E4000F5F8224900201CF0F1F801222049062053
:103E50001BF036FD01221F4907201BF031FD012216
:103E60001D4910461BF02CFD01221C4903201BF0AC
:103E700027FD01221A4904201BF022FD01221949C5
:103E800008201BF01DFD0122174909201BF018FD19
:103E90000122164900201BF013FD012214490220C3
:103EA0001BF00EFD112113481BF0AEFCBDE80840CD
:103EB0000F2111481BF022BC18A80434DCA70434DD
:103EC000A0A7043464A704342CA70434F4A6043453
:103ED000ACA6043464A604341CA60434D4A504346B
:103EE0008CA5043444A50434FCA40434B4A40434E0
:103EF0006CA404345CA3043420A3043408B5194929
:103F000000201BF043FE184902201CF08FF81749CF
:103F100000201CF08BF8164901201CF087F80122C4
:103F2000144907201BF0CCFC0122134908201BF088
:103F3000C7FC0122114903201BF0C2FC01221049D9
:103F400000201BF0BDFC01220E4905201BF0B8FC2F
:103F500008210D481BF058FCBDE8084009210B481A
:103F60001BF0CCBB40A2043408A20434D0A104341A
:103F700098A1043450A1043408A10434C0A004342E
:103F800078A0043430A00434B09F04348C9F0434EF
:103F900008B52C4900201BF0F9FD2B4901201BF02E
:103FA000F5FD2A4902201BF0F1FD294903201BF0F1
:103FB000EDFD284901201CF039F8274903201CF0A9
:103FC00035F8264900201CF031F801222449002050
:103FD0001BF076FC0122234910461BF071FC0122E4
:103FE000214905201BF06CFC0122204906201BF012
:103FF00067FC01221E4908201BF062FC01221D49BA
:1040000007201BF05DFC01221B4902201BF058FC1D
:1040100001221A4904201BF053FC012218490920EF
:104020001BF04EFC0122174903201BF049FC132111
:1040300015481BF0E9FBBDE80840112113481BF0AF
:104040005DBB00BFDC9D0434A09D0434649D04343A
:10405000289D0434F09C0434B89C0434809C0434BF
:10406000389C0434F09B0434A89B0434609B0434D3
:10407000189B0434D09A0434889A0434409A043447
:10408000F8990434B0990434809804343C9804348A
:1040900008B5274901201BF079FD264902201BF0B5
:1040A00075FD254903201BF071FD244900201BF0FC
:1040B0006DFD234902201BF0B9FF224900201BF0AF
:1040C000B5FF0122204902201BF0FAFB01221F4903
:1040D00007201BF0F5FB01221D4904201BF0F0FB1B
:1040E00001221C4909201BF0EBFB01221A49062082
:1040F0001BF0E6FB0122194910461BF0E1FB0122EF
:10410000174900201BF0DCFB0122164908201BF098
:10411000D7FB0122144903201BF0D2FB11211348C5
:104120001BF072FBBDE808400F2111481BF0E6BAF6
:10413000B4960434789604343C96043400960434DF
:10414000C89504349095043448950434009504349B
:10415000B89404347094043428940434E093043400
:10416000989304345093043408930434F89104343D
:10417000BC91043408B5194900201BF007FD18490B
:1041800003201BF053FF174900201BF04FFF164977
:1041900001201BF04BFF0122144909201BF090FB6A
:1041A0000122134906201BF08BFB01221149032039
:1041B0001BF086FB0122104904201BF081FB012229
:1041C0000E4905201BF07CFB08210D481BF01CFB51
:1041D000BDE8084009210B481BF090BADC9004347C
:1041E000A49004346C90043434900434EC8F043480
:1041F000A48F04345C8F0434148F0434CC8E0434C4
:104200004C8E0434288E043408B52C4900201BF051
:10421000BDFC2B4901201BF0B9FC2A4902201BF0F0
:10422000B5FC294903201BF0B1FC284900201BF0F4
:10423000FDFE274901201BF0F9FE264902201BF054
:10424000F5FE0122244900201BF03AFB01222349FC
:1042500008201BF035FB0122214910461BF030FBE2
:104260000122204904201BF02BFB01221E490220C1
:104270001BF026FB01221D4906201BF021FB012219
:104280001B4909201BF01CFB01221A4907201BF0C7
:1042900017FB0122184905201BF012FB01221749C8
:1042A00003201BF00DFB132115481BF0ADFABDE8F0
:1042B0000840112113481BF021BA00BF788C043448
:1042C0003C8C0434008C0434C48B04348C8B043454
:1042D000548B04341C8B0434D48A04348C8A043404
:1042E000448A0434FC890434B48904346C89043469
:1042F00024890434DC880434948804344C880434DD
:104300001C870434D886043408B51E4901201BF0EC
:104310003DFC1D4902201BF039FC1C4903201BF009
:1043200035FC1B4903201BF081FE012219490620A0
:104330001BF0C6FA0122184907201BF0C1FA01221E
:10434000164905201BF0BCFA0122154900201BF07C
:10435000B7FA0122134902201BF0B2FA01221249D6
:1043600003201BF0ADFA0122104909201BF0A8FA26
:104370000C210F481BF048FABDE808400B210D48FE
:104380001BF0BCB9B085043474850434388504341A
:1043900000850434B88404347084043428840434DC
:1043A000E083043498830434508304340883043451
:1043B000488204341C82043408B5194900201BF0DB
:1043C000E5FB184902201BF031FE174900201BF0C5
:1043D0002DFE164901201BF029FE0122144905205B
:1043E0001BF06EFA0122134902201BF069FA012228
:1043F000114904201BF064FA0122104900201BF02F
:104400005FFA01220E4910461BF05AFA08210D48A6
:104410001BF0FAF9BDE8084009210B481BF06EB902
:104420003C81043404810434CC800434948004340A
:104430004C80043404800434BC7F0434747F04341E
:104440002C7F0434AC7E0434887E043408B52749BC
:1044500000201BF09BFB264901201BF097FB254900
:1044600002201BF093FB244903201BF08FFB234900
:1044700001201BF0DBFD224903201BF0D7FD214961
:1044800000201BF0D3FD01221F4909201BF018FA60
:1044900001221E4905201BF013FA01221C490420A9
:1044A0001BF00EFA01221B4910461BF009FA0122EB
:1044B000194900201BF004FA0122184906201BF0BC
:1044C000FFF90122164907201BF0FAF901221549CC
:1044D00002201BF0F5F9112113481BF095F9BDE8F6
:1044E00008400F2111481BF009B900BF007D0434BA
:1044F000C47C0434887C04344C7C0434147C043440
:10450000DC7B0434A47B04345C7B0434147B0434EF
:10451000CC7A0434847A04343C7A0434F479043454
:10452000AC7904346479043454780434187804344D
:1045300008B5234901201BF029FB224902201BF06A
:1045400025FB214903201BF021FB204902201BF001
:104550006DFD1F4900201BF069FD01221D4904204B
:104560001BF0AEF901221C4906201BF0A9F901221B
:104570001A4908201BF0A4F90122194903201BF055
:104580009FF90122174907201BF09AF901221649C9
:1045900009201BF095F90122144900201BF090F925
:1045A0000122134905201BF08BF90E2111481BF045
:1045B0002BF9BDE808400D210F481BF09FB800BF44
:1045C000C87604348C760434507604341876043477
:1045D000E075043498750434507504340875043457
:1045E000C07404347874043430740434E8730434CC
:1045F000A0730434C07204348C72043408B51949B1
:1046000000201BF0C3FA184903201BF00FFD1749C7
:1046100000201BF00BFD164901201BF007FD0122B5
:10462000144908201BF04CF90122134905201BF006
:1046300047F90122114907201BF042F901221049D4
:1046400010461BF03DF901220E4904201BF038F9F9
:1046500008210D481BF0D8F8BDE8084009210B4897
:104660001BF04CB8AC710434747104343C710434E4
:1046700004710434BC700434747004342C70043439
:10468000E46F04349C6F04341C6F0434F86E0434FB
:1046900008B5274900201BF079FA264901201BF0B4
:1046A00075FA254902201BF071FA244903201BF0FA
:1046B0006DFA234901201BF0B9FC224902201BF0AE
:1046C000B5FC214900201BF0B1FC01221F49052047
:1046D0001BF0F6F801221E4902201BF0F1F801221E
:1046E0001C4907201BF0ECF801221B4906201BF097
:1046F000E7F80122194908201BF0E2F801221849C5
:1047000003201BF0DDF80122164904201BF0D8F825
:104710000122154910461BF0D3F8112113481BF054
:1047200073F8BDE808400F2111481AF0E7BF00BF39
:10473000706D0434346D0434F86C0434BC6C04348F
:10474000846C04344C6C0434146C0434CC6B04342A
:10475000846B04343C6B0434F46A0434AC6A04346F
:10476000646A04341C6A0434D4690434C4680434AC
:104770008868043408B5234901201BF007FA224950
:1047800002201BF003FA214903201BF0FFF9204906
:1047900003201BF04BFC1F4900201BF047FC0122AB
:1047A0001D4906201BF08CF801221C4908201BF033
:1047B00087F801221A4905201BF082F801221949C5
:1047C00010461BF07DF80122174900201BF078F8F5
:1047D0000122164907201BF073F801221449042016
:1047E0001BF06EF80122134909201BF069F80E2115
:1047F00011481BF009F8BDE808400D210F481AF0D8
:104800007DBF00BF38670434FC660434C0660434DE
:10481000886604345066043408660434C065043481
:104820007865043430650434E8640434A0640434E6
:10483000586404341064043430630434FC62043477
:1048400008B5194900201BF0A1F9184901201BF0F7
:10485000EDFB174900201BF0E9FB164902201BF075
:10486000E5FB0122144907201BF02AF80122134915
:1048700006201BF025F80122114909201BF020F821
:104880000122104902201BF01BF801220E490020D2
:104890001BF016F808210D481AF0B6FFBDE80840D5
:1048A00009210B481AF02ABF1C620434E461043465
:1048B000AC610434746104342C610434E460043465
:1048C0009C600434546004340C6004348C5F043401
:1048D000685F043408B5274900201BF057F92649C2
:1048E00001201BF053F9254902201BF04FF9244900
:1048F00003201BF04BF9234902201BF097FB2249B0
:1049000000201BF093FB214903201BF08FFB0122A9
:104910001F4907201AF0D4FF01221E4904201AF073
:10492000CFFF01221C4905201AF0CAFF01221B49B2
:1049300006201AF0C5FF0122194900201AF0C0FF15
:104940000122184910461AF0BBFF01221649022025
:104950001AF0B6FF0122154908201AF0B1FF112103
:1049600013481AF051FFBDE808400F2111481AF012
:10497000C5BE00BFE05D0434A45D0434685D04344A
:104980002C5D0434F45C0434BC5C0434845C043476
:104990003C5C0434F45B0434AC5B0434645B04348A
:1049A0001C5B0434D45A04348C5A0434445A0434FE
:1049B00034590434F858043408B5194901201BF05F
:1049C000E5F8184902201BF0E1F8174903201BF015
:1049D000DDF8164901201BF029FB012214490020B3
:1049E0001AF06EFF0122134906201AF069FF012216
:1049F000114902201AF064FF0122104905201AF023
:104A00005FFF01220E4908201AF05AFF0A210D48C3
:104A10001AF0FAFEBDE8084009210B481AF06EBEF4
:104A2000F8570434BC5704348057043448570434CE
:104A300000570434B85604347056043428560434ED
:104A4000E0550434405504341C55043408B512496B
:104A500000201BF09BF8114903201BF0E7FA1049D6
:104A600000201BF0E3FA01220E4907201AF028FF6C
:104A700001220D4908201AF023FF01220B490420CE
:104A80001AF01EFF05210A481AF0BEFEBDE80840D4
:104A9000062108481AF032BE7854043440540434D5
:104AA00008540434C0530434785304343053043469
:104AB000E0520434C852043408B5274900201BF0E2
:104AC00065F8264901201BF061F8254902201BF0FA
:104AD0005DF8244903201BF059F8234901201BF0FD
:104AE000A5FA224902201BF0A1FA214900201BF05F
:104AF0009DFA01221F4908201AF0E2FE01221E49F8
:104B000000201AF0DDFE01221C4909201AF0D8FE0F
:104B100001221B4903201AF0D3FE01221949062065
:104B20001AF0CEFE0122184910461AF0C9FE0122E1
:104B3000164907201AF0C4FE0122154905201AF073
:104B4000BFFE102113481AF05FFEBDE808400F2198
:104B500011481AF0D3BD00BF50510434145104342D
:104B6000D85004349C500434645004342C50043421
:104B7000F44F0434AC4F0434644F04341C4F0434F9
:104B8000D44E04348C4E0434444E0434FC4D04346E
:104B9000B44D0434B44C0434784C043408B51C4986
:104BA00000201AF0F3FF1B4901201AF0EFFF1A4909
:104BB00002201AF0EBFF194903201AF0E7FF012247
:104BC000174904201AF07CFE0122164903201AF02E
:104BD00077FE0122144900201AF072FE01221349C7
:104BE00002201AF06DFE0122114910461AF068FEEB
:104BF0000122104906201AF063FE0C210E481AF01B
:104C000003FEBDE808400A210C481AF077BD00BF3A
:104C1000544B0434184B0434DC4A0434A04A0434A2
:104C2000584A0434104A0434C849043480490434CE
:104C300038490434F0480434304804340848043413
:104C400008B51E4901201AF0A1FF1D4902201AF0E3
:104C50009DFF1C4903201AF099FF1B4900201BF0FF
:104C6000E5F91A4903201BF0E1F901221849072050
:104C70001AF026FE0122174909201AF021FE01220E
:104C8000154902201AF01CFE0122144904201AF0D2
:104C900017FE0122124908201AF012FE01221149C2
:104CA00005201AF00DFE0C210F481AF0ADFDBDE8ED
:104CB00008400B210D481AF021BD00BFE046043426
:104CC000A44604346846043430460434F8450434B9
:104CD000B04504346845043420450434D8440434D1
:104CE0009044043448440434884304345C4304341A
:104CF00008B5124900201AF049FF114901201BF0A4
:104D000095F9104902201BF091F901220E49052066
:104D10001AF0D6FD01220D4904201AF0D1FD01221E
:104D20000B4902201AF0CCFD05210A481AF06CFD4F
:104D3000BDE80840062108481AF0E0BCB842043437
:104D4000804204344842043400420434B8410434FC
:104D500070410434204104340841043408B520492A
:104D600000201AF013FF1F4901201AF00FFF1E49FF
:104D700002201AF00BFF1D4903201AF007FF1C49FF
:104D800000201BF053F91B4903201BF04FF90122AF
:104D9000194902201AF094FD0122184909201AF03D
:104DA0008FFD0122164908201AF08AFD01221549BB
:104DB00000201AF085FD0122134910461AF080FDEB
:104DC0000122124906201AF07BFD0E2110481AF02C
:104DD0001BFDBDE808400C210E481AF08FBC00BF37
:104DE000BC3F0434803F0434443F0434083F04345F
:104DF000D03E0434983E0434503E0434083E04341B
:104E0000C03D0434783D0434303D0434E83C04347F
:104E1000083C0434D83B043408B51E4901201AF07C
:104E2000B5FE1D4902201AF0B1FE1C4903201AF0FC
:104E3000ADFE1B4901201BF0F9F81A4902201BF0B6
:104E4000F5F80122184903201AF03AFD012217490A
:104E500005201AF035FD0122154902201AF030FD17
:104E60000122144908201AF02BFD012212490620C4
:104E70001AF026FD0122114909201AF021FD0C210A
:104E80000F481AF0C1FCBDE808400B210D481AF08C
:104E900035BC00BFB03A0434743A0434383A0434B0
:104EA000003A0434C83904348039043438390434BD
:104EB000F0380434A8380434603804341838043422
:104EC000583704342C37043408B5124900201AF03E
:104ED0005DFE114900201BF0A9F8104903201BF0CA
:104EE000A5F801220E4908201AF0EAFC01220D491A
:104EF00004201AF0E5FC01220B4902201AF0E0FC24
:104F000005210A481AF080FCBDE80840062108483F
:104F10001AF0F4BB8836043450360434183604349E
:104F2000D03504348835043440350434F034043446
:104F3000D834043408B5204900201AF027FE1F4950
:104F400001201AF023FE1E4902201AF01FFE1D49FF
:104F500003201AF01BFE1C4901201BF067F81B49B7
:104F600002201BF063F80122194907201AF0A8FC5F
:104F70000122184902201AF0A3FC01221649092037
:104F80001AF09EFC0122154900201AF099FC01221A
:104F9000134908201AF094FC0122124904201AF047
:104FA0008FFC0E2110481AF02FFCBDE808400C21A0
:104FB0000E481AF0A3BB00BF8C33043450330434C2
:104FC00014330434D8320434A03204346832043444
:104FD00020320434D831043490310434483104345C
:104FE00000310434B8300434D82F0434A82F0434EA
:104FF00008B51E4901201AF0C9FD1D4902201AF00A
:10500000C5FD1C4903201AF0C1FD1B4900201BF0FF
:105010000DF81A4903201BF009F80122184909204C
:105020001AF04EFC0122174907201AF049FC012210
:10503000154900201AF044FC0122144902201AF0FC
:105040003FFC0122124908201AF03AFC01221149C2
:1050500005201AF035FC0C210F481AF0D5FBBDE8ED
:1050600008400B210D481AF049BB00BF802E0434C4
:10507000442E0434082E0434D02D0434982D0434E6
:10508000502D0434082D0434C02C0434782C0434FE
:10509000302C0434E82B0434282B0434FC2A043448
:1050A00008B5124900201AF071FD114902201AF0CA
:1050B000BDFF104901201AF0B9FF01220E49062058
:1050C0001AF0FEFB01220D4904201AF0F9FB01221F
:1050D0000B4900201AF0F4FB05210A481AF094FB52
:1050E000BDE80840062108481AF008BB582A0434D5
:1050F000202A0434E8290434A0290434582904342B
:1051000010290434C0280434A828043408B52049E0
:1051100003201AF03BFD1F4900201AF037FD1E49FD
:1051200001201AF033FD1D4902201AF02FFD1C4901
:1051300003201AF07BFF1B4900201AF077FF0122A1
:10514000194902201AF0BCFB0122184903201AF069
:10515000B7FB0122164910461AF0B2FB012215498D
:1051600004201AF0ADFB0122134900201AF0A8FB1D
:105170000122124905201AF0A3FB0E2110481AF053
:1051800043FBBDE808400C210E481AF0B7BA00BF37
:105190005C27043420270434E4260434A82604348D
:1051A0007026043438260434F0250434A825043449
:1051B0006025043418250434D024043488240434AD
:1051C000A82304347823043408B5154901201AF0C3
:1051D000DDFC144902201AF0D9FC134901201AF011
:1051E00025FF0122114907201AF06AFB012210490C
:1051F00005201AF065FB01220E4903201AF060FB1E
:1052000001220D4902201AF05BFB07210B481AF01E
:10521000FBFABDE80840072109481AF06FBA00BF41
:10522000B0220434742204343C220434F4210434C3
:10523000AC210434642104341C210434AC20043433
:105240009020043408B5124900201AF09FFC11493F
:1052500002201AF0EBFE104900201AF0E7FE0122AE
:105260000E4900201AF02CFB01220D4909201AF0EA
:1052700027FB01220B4906201AF022FB05210A48D0
:105280001AF0C2FABDE80840062108481AF036BAFA
:10529000EC1F0434B41F04347C1F0434341F043462
:1052A000EC1E0434A41E0434541E04343C1E043486
:1052B00008B5274902201AF069FC264900201AF097
:1052C00065FC254901201AF061FC244903201AF0ED
:1052D0005DFC234901201AF0A9FE224903201AF09F
:1052E000A5FE214900201AF0A1FE01221F49062037
:1052F0001AF0E6FA01221E4909201AF0E1FA012209
:105300001C4905201AF0DCFA01221B4903201AF07F
:10531000D7FA0122194908201AF0D2FA01221849B5
:1053200000201AF0CDFA0122164910461AF0C8FAE8
:105330000122154904201AF0C3FA0F2113481AF06C
:1053400063FABDE808400F2111481AF0D7B900BF31
:10535000D41C0434981C04345C1C0434201C043415
:10536000E81B0434B01B0434781B0434301B0434B1
:10537000E81A0434A01A0434581A0434101A0434F5
:10538000C819043480190434381904344818043412
:105390000C18043408B5194903201AF0F7FB184912
:1053A00001201AF0F3FB174900201AF03FFE1649BE
:1053B00002201AF03BFE0122144905201AF080FA5F
:1053C0000122134910461AF07BFA012211490320E9
:1053D0001AF076FA0122104900201AF071FA01221F
:1053E0000E4906201AF06CFA09210D481AF00CFA41
:1053F000BDE8084009210B481AF080B91C17043495
:10540000E0160434A8160434701604342816043444
:10541000E015043498150434501504340815043488
:10542000781404345414043408B5124900201AF0D6
:10543000ADFB114901201AF0F9FD104903201AF0C3
:10544000F5FD01220E4907201AF03AFA01220D4912
:1054500002201AF035FA01220B4904201AF030FA22
:1054600005210A481AF0D0F9BDE80840062108488D
:105470001AF044B9B01304347813043440130434DC
:10548000F8120434B01204346812043418120434CC
:105490000012043408B5174901201AF077FB1649A9
:1054A00002201AF073FB154900201AF0BFFD1449C1
:1054B00002201AF0BBFD0122124904201AF000FA62
:1054C0000122114908201AF0FBF901220F4900209E
:1054D0001AF0F6F901220E4905201AF0F1F9082117
:1054E0000C481AF091F9BDE8084008210A481AF062
:1054F00005B900BF24110434E8100434B01004349A
:105500007810043430100434E80F0434A00F04344D
:10551000580F0434D80E0434B80E043408B51949B1
:1055200003201AF033FB184900201AF02FFB17490B
:1055300001201AF07BFD164903201AF077FD0122A5
:10554000144908201AF0BCF90122134909201AF065
:10555000B7F90122114902201AF0B2F901221049CB
:1055600003201AF0ADF901220E4906201AF0A8F91D
:1055700009210D481AF048F9BDE8084009210B48F7
:105580001AF0BCB8C80D04348C0D0434540D043426
:105590001C0D0434D40C04348C0C0434440C04343A
:1055A000FC0B0434B40B0434240B0434000B04341B
:1055B00008B5124902201AF0E9FA114902201AF03E
:1055C00035FD104900201AF031FD01220E4900205E
:1055D0001AF076F901220D4906201AF071F901221C
:1055E0000B4908201AF06CF905210A481AF00CF949
:1055F000BDE80840062108481AF080B85C0A043467
:10560000240A0434EC090434A40904345C09043485
:1056100014090434C4080434AC08043408B5174928
:1056200001201AF0B3FA164900201AF0AFFA154912
:1056300003201AF0FBFC144901201AF0F7FC0122A8
:10564000124905201AF03CF90122114904201AF0F0
:1056500037F901220F4909201AF032F901220E49C7
:1056600003201AF02DF908210C481AF0CDF8BDE8F6
:10567000084008210A481AF041B800BFD007043496
:10568000940704345C07043424070434DC0604342F
:10569000940604344C0604340406043484050434AB
:1056A0006405043408B5154902201AF06FFA14494C
:1056B00003201AF06BFA134900201AF0B7FC0122FC
:1056C000114900201AF0FCF80122104908201AF0B4
:1056D000F7F801220E4906201AF0F2F801220D49CE
:1056E00003201AF0EDF807210B481AF08DF8BDE8F9
:1056F0000840072109481AF001B800BF9C0404348F
:105700006004043428040434E003043498030434AB
:105710005003043408030434980204347C02043433
:1057200008B5124900201AF031FA114901201AF087
:105730007DFC104902201AF079FC01220E49052057
:105740001AF0BEF801220D4900201AF0B9F8012222
:105750000B4902201AF0B4F805210A481AF054F84F
:10576000BDE808400621084819F0C8BFD801043434
:10577000A00104346801043420010434D800043446
:1057800090000434400004342800043408B5124961
:1057900001201AF0FBF9114903201AF047FC1049C7
:1057A00000201AF043FC01220E4909201AF088F863
:1057B00001220D4903201AF083F801220B4902202F
:1057C0001AF07EF805210A481AF01EF8BDE80840D4
:1057D0000621084819F092BF84FF03344CFF0334BC
:1057E00014FF0334CCFE033484FE03343CFE033444
:1057F000ECFD0334D4FD033408B5224902201AF02D
:10580000C5F9214903201AF0C1F9204901201AF0F5
:105810000DFC1F4902201AF009FC1E4900201AF055
:10582000B5F91D4900201AF001FC01221B49002096
:105830001AF046F801221A4909201AF041F801220B
:10584000184905201AF03CF80122174910461AF0B1
:1058500037F80122154902201AF032F801221449C2
:1058600003201AF02DF80122124906201AF028F818
:105870000D21114819F0C8FFBDE808400D210F485F
:1058800019F03CBF94FC033458FC033420FC03346F
:10589000E8FB0334ACFB033474FB03342CFB03340C
:1058A000E4FA03349CFA033454FA03340CFA033454
:1058B000C4F903347CF90334ACF8033478F80334C6
:1058C00008B5124901201AF061F9114903201AF0B4
:1058D000ADFB104900201AF0A9FB01220E4905205A
:1058E00019F0EEFF01220D49062019F0E9FF01220F
:1058F0000B49002019F0E4FF05210A4819F084FF44
:10590000BDE808400621084819F0F8BED4F7033472
:105910009CF7033464F703341CF70334D4F60334E0
:105920008CF603343CF6033424F6033408B51249EC
:1059300000201AF02BF9114902201AF077FB1049C8
:1059400001201AF073FB01220E49032019F0B8FF61
:1059500001220D49092019F0B3FF01220B4908204B
:1059600019F0AEFF05210A4819F04EFFBDE80840C6
:105970000621084819F0C2BE80F5033448F5033407
:1059800010F50334C8F4033480F4033438F40334DA
:10599000E8F30334D0F3033408B51E4902201AF0AB
:1059A000F5F81D4903201AF0F1F81C4900201AF0FF
:1059B000EDF81B4901201AF0E9F81A4900201AF005
:1059C00035FB01221849062019F07AFF01221749F8
:1059D000104619F075FF01221549002019F070FFDB
:1059E00001221449072019F06BFF012212490920F6
:1059F00019F066FF01221149022019F061FF0D2103
:105A00000F4819F001FFBDE808400B210D4819F0BF
:105A100075BE00BF98F203345CF2033420F2033405
:105A2000E4F10334ACF1033464F103341CF10334C6
:105A3000D4F003348CF0033444F00334FCEF03342B
:105A40002CEF033400EF033408B5124901201AF09B
:105A50009DF8114903201AF0E9FA104901201AF0C3
:105A6000E5FA01220E49062019F02AFF01220D490C
:105A7000032019F025FF01220B49002019F020FF17
:105A800005210A4819F0C0FEBDE808400621084873
:105A900019F034BE5CEE033424EE0334ECED033431
:105AA000A4ED03345CED033414ED0334C4EC03348F
:105AB000ACEC033408B5124900201AF067F811491C
:105AC00002201AF0B3FA104900201AF0AFFA0122AE
:105AD0000E49104619F0F4FE01220D49002019F07C
:105AE000EFFE01220B49072019F0EAFE05210A48C2
:105AF00019F08AFEBDE808400621084819F0FEBDED
:105B000008EC0334D0EB033498EB033450EB03344C
:105B100008EB0334C0EA033470EA033458EA033470
:105B200008B5154902201AF031F8144903201AF07B
:105B30002DF8134901201AF079FA01221149104673
:105B400019F0BEFE01221049042019F0B9FE01220D
:105B50000E49082019F0B4FE01220D49062019F063
:105B6000AFFE07210B4819F04FFEBDE808400721A2
:105B7000094819F0C3BD00BF90E9033454E9033468
:105B80001CE90334D4E803348CE8033444E80334D8
:105B9000FCE703348CE7033470E7033408B512499B
:105BA000012019F0F3FF114903201AF03FFA1049C0
:105BB00000201AF03BFA01220E49082019F080FE5D
:105BC00001220D49042019F07BFE01220B491046E9
:105BD00019F076FE05210A4819F016FEBDE80840C6
:105BE0000621084819F08ABDCCE6033494E6033454
:105BF0005CE6033414E60334CCE5033484E5033473
:105C000034E503341CE5033408B51249002019F0CB
:105C1000BDFF114901201AF009FA104902201AF0BB
:105C200005FA01220E49002019F04AFE01220D4911
:105C3000062019F045FE01220B49072019F040FE0D
:105C400005210A4819F0E0FDBDE808400621084892
:105C500019F054BD78E4033440E4033408E4033419
:105C6000C0E3033478E3033430E30334E0E2033485
:105C7000C8E2033410B5E8B04FF4D0720021684692
:105C80001DF0ECFB4FF440744FF4C0402D23CDE9E0
:105C900005040990324818220A9040208DF80030FF
:105CA0000123CDE90C004FF4C0644FF4C030CDE9BE
:105CB0000323CDE90723CDE90E23CDE91223294A99
