:0200000470107A
:1000000053544D32000000000000000000000000CA
:1000100000000000000000000000000000000000E0
:1000200000000000000000000000000000000000D0
:1000300000000000000000000000000000000000C0
:1000400000000000000000000000000000000000B0
:1000500000000000000000000000000000000000A0
:100060000000000015C2250200030200A0420600A5
:10007000350B023400000000FFFFFFFF000000000E
:100080000000000000000080A0010000000000004F
:100090000000000000000000000000000000000060
:1000A0005354FFFFA001000081FF39ACB6B2EC70E1
:1000B0002436A2FE6B5EEB3FE02D0F730B55BD3473
:1000C00074607E89C0DBD4AD2E088BC04A9F080CBB
:1000D000906864ECC4B0A5CEE18ACC1424841FD20D
:1000E000905C4E5DECA5283A89FFD2BC55BDA7397E
:1000F000DA0332E55299C5BE5525293B67E5A3B918
:10010000CB49D7064BEF451A6C01F32CF84AFBAEEE
:1001100021A2275D3DF681ACE0DD494883637C2068
:100120006EBAB1C7768EE9B9D076AF968B2C7030A7
:100130006C74E7A27CCC68859872079A954D120979
:1001400009B99462A9A95CD811C863D4273C58782E
:100150003A180A2D3D8DDB8662BF962E7E694AB61F
:1001600024B1778213A7B07496F9D1B0ADD8C4ABDF
:100170000CE90CCD9EFE81D1B1D4AA68B42540BC57
:10018000B3454AF6E422D1224AA588D11374D64059
:10019000C22014F52FF167F6C8BC4F56E8592BF36F
:1001A0008680DE5A10F97976373F04B8DE79A65F8B
:1001B000B2BC8FF5CDB632E5050222AEE628DFBA35
:1001C000374249893FAFADD83F9D9BFC4D2E23CF91
:1001D000F907BFDB1414F2FE562C9E41C0CD3E3D04
:1001E00038E6635564F9B253F992A49E79B84B4E40
:1001F0002051AAB40685523E7974790B94EC5A14B6
:100200006FC3FE42FF5851168F9AAB7DD0F2AE2CD1
:1002100000164DE997A1AFD437B4EC0ACC0A823B63
:1002200057153191459BF4D6822FE1766C2153E02E
:1002300020DFB754B11CABE1A304FEED148AC40562
:1002400000000000000000000000000000000000AE
:10025000000000000000000000000000000000009E
:10026000000000000000000000000000000000008E
:10027000000000000000000000000000000000007E
:10028000000000000000000000000000000000006E
:10029000000000000000000000000000000000005E
:1002A000000000000000000000000000000000004E
:1002B000000000000000000000000000000000003E
:1002C000000000000000000000000000000000002E
:1002D000000000000000000000000000000000001E
:1002E000000000000000000000000000000000000E
:1002F00000000000000000000000000000000000FE
:1003000000000000000000000000000000000000ED
:1003100000000000000000000000000000000000DD
:1003200000000000000000000000000000000000CD
:1003300000000000000000000000000000000000BD
:1003400000000000000000000000000000000000AD
:10035000000000000000000000000000000000009D
:10036000000000000000000000000000000000008D
:10037000000000000000000000000000000000007D
:10038000000000000000000000000000000000006D
:10039000000000000000000000000000000000005D
:1003A000000000000000000000000000000000004D
:1003B000000000000000000000000000000000003D
:1003C000000000000000000000000000000000002D
:1003D000000000000000000000000000000000001D
:1003E000000000000000000000000000000000000D
:1003F00000000000000000000000000000000000FD
:1004000000001034350B0234F1290034F529003492
:10041000052A0034152A0034252A0034352A0034F0
:10042000000000000000000000000000452A003429
:10043000472A003400000000492A00344B2A0034C7
:10044000910B023400000000910B0234910B023436
:10045000910B0234910B0234910B0234910B023454
:10046000910B023400000000910B0234910B023416
:10047000910B0234E9230034910B02340000000098
:10048000910B023400000000910B0234910B0234F6
:10049000910B0234910B0234910B0234910B023414
:1004A000910B0234910B0234910B0234910B023404
:1004B000910B0234910B0234910B0234910B0234F4
:1004C000910B0234910B0234910B0234910B0234E4
:1004D000910B0234910B0234910B0234910B0234D4
:1004E000910B023400000000910B0234910B023496
:1004F000910B0234910B0234910B02344F2A0034D9
:100500005D2A003400000000000000000000000030
:10051000910B0234CDFE0134910B0234910B023465
:10052000910B0234910B0234910B0234910B023483
:10053000910B0234910B0234910B0234910B023473
:10054000910B0234910B0234910B0234910B023463
:10055000910B0234910B0234910B0234910B023453
:1007400000000000910B0234910B02340000000005
:1007500010B5054C237833B9044B13B10448AFF3FB
:1007600000800123237010BDE04406340000000027
:100770008CD3023408B5034B1BB103490348AFF3D4
:10078000008008BD00000000E44406348CD302342D
:10079000034613F8012B002AFBD1181A01387047C1
:1007A00081F0004102E000BF83F0004330B54FEA22
:1007B00041044FEA430594EA050F08BF90EA020F8F
:1007C0001FBF54EA000C55EA020C7FEA645C7FEA22
:1007D000655C00F0E2804FEA5454D4EB5555B8BF45
:1007E0006D420CDD2C4480EA020281EA030382EAB6
:1007F000000083EA010180EA020281EA0303362D48
:1008000088BF30BD11F0004F4FEA01314FF4801C1A
:100810004CEA113102D0404261EB410113F0004F2C
:100820004FEA03334CEA133302D0524263EB4303E3
:1008300094EA050F00F0A780A4F10104D5F1200E81
:100840000DDB02FA0EFC22FA05F2801841F10001DC
:1008500003FA0EF2801843FA05F359410EE0A5F1B0
:1008600020050EF1200E012A03FA0EFC28BF4CF0E1
:10087000020C43FA05F3C01851EBE37101F0004597
:1008800007D54FF0000EDCF1000C7EEB00006EEBA4
:100890000101B1F5801F1BD3B1F5001F0CD349082E
:1008A0005FEA30004FEA3C0C04F101044FEA445285
:1008B00012F5800F80F09A80BCF1004F08BF5FEA0C
:1008C000500C50F1000041EB045141EA050130BDEC
:1008D0005FEA4C0C404141EB0101013C28BFB1F5FE
:1008E000801FE9D291F0000F04BF01460020B1FA49
:1008F00081F308BF2033A3F10B03B3F120020CDA1C
:100900000C3208DD02F1140CC2F10C0201FA0CF0F9
:1009100021FA02F10CE002F11402D8BFC2F1200C5E
:1009200001FA02F120FA0CFCDCBF41EA0C01904014
:10093000E41AA2BF01EB0451294330BD6FEA04045D
:100940001F3C1CDA0C340EDC04F11404C4F1200248
:1009500020FA04F001FA02F340EA030021FA04F35A
:1009600045EA030130BDC4F10C04C4F1200220FAB1
:1009700002F001FA04F340EA0300294630BD21FAEF
:1009800004F0294630BD94F0000F83F4801306BFB5
:1009900081F480110134013D4EE77FEA645C18BFA9
:1009A0007FEA655C29D094EA050F08BF90EA020F40
:1009B00005D054EA000C04BF1946104630BD91EA38
:1009C000030F1EBF0021002030BD5FEA545C05D13B
:1009D0004000494128BF41F0004130BD14F580047A
:1009E0003CBF01F5801130BD01F0004545F0FE41EE
:1009F00041F470014FF0000030BD7FEA645C1ABF23
:100A0000194610467FEA655C1CBF0B46024650EA59
:100A1000013406BF52EA033591EA030F41F4002185
:100A200030BD00BF90F0000F04BF0021704730B50B
:100A30004FF4806404F132044FF000054FF00001E0
:100A400050E700BF90F0000F04BF0021704730B5A1
:100A50004FF4806404F1320410F0004548BF404276
:100A60004FF000013EE700BF42004FEAE2014FEACB
:100A700031014FEA02701FBF12F07F4393F07F4FA6
:100A800081F06051704732F07F4208BF704793F0A9
:100A90007F4F04BF41F40021704730B54FF46074BC
:100AA00001F0004521F000411CE700BF50EA0102BF
:100AB00008BF704730B54FF000050AE050EA010268
:100AC00008BF704730B511F0004502D5404261EBD8
:100AD00041014FF4806404F132045FEA915C3FF419
:100AE000D8AE4FF003025FEADC0C18BF03325FEAB6
:100AF000DC0C18BF033202EBDC02C2F1200300FA67
:100B000003FC20FA02F001FA03FE40EA0E0021FA8B
:100B100002F11444BDE600BF7BB972B90029BEBF23
:100B200000204FF0004106E008BF00281CBF6FF016
:100B300000414FF0FF3000F035BAADF1080C6DE91F
:100B400004CE002909DB002B1ADB00F085F8DDF864
:100B500004E0DDE9022304B07047404261EB41014B
:100B6000002B1BDB00F078F8DDF804E0DDE9022360
:100B700004B0404261EB4101524263EB43037047D2
:100B8000524263EB430300F067F8DDF804E0DDE96F
:100B9000022304B0404261EB41017047524263EBD3
:100BA000430300F059F8DDF804E0DDE9022304B066
:100BB000524263EB4303704753B94AB9002908BF57
:100BC00000281CBF4FF0FF314FF0FF3000F0EAB9B2
:100BD000ADF1080C6DE904CE00F03EF8DDF804E05C
:100BE000DDE9022304B07047024608B50B4643EC2A
:100BF000172BB5EEC07BF1EE10FA03D4BDE8084028
:100C000000F00AB8B1EE477B51EC170B00F004F886
:100C1000404261EB410108BD9FED0B6B41EC170BAE
:100C20009FED0B5B27EE066BBCEEC66BB8EE464B3A
:100C300016EE101AA4EE457BFCEEC77B17EE900A69
:100C4000704700BFAFF30080000000000000F03DDF
:100C5000000000000000F0412DE9F04F8C46099E95
:100C600004460F46002B48D18A4215465ED9B2FA97
:100C700082F33BB1C3F120029F409D409C4020FA8B
:100C800002F217434FEA154E1FFA85FC220CB7FB00
:100C9000FEF10EFB117701FB0CF042EA0742904295
:100CA00007D9AA1801F1FF3702D2904200F2588109
:100CB0003946121AA4B2B2FBFEF00EFB102200FB62
:100CC0000CFC44EA0244A4450BD92C1900F1FF3274
:100CD0002CBF01270027A44502D9002F00F0438133
:100CE000104640EA0140A4EB0C0400211EB1DC4098
:100CF0000023C6E90043BDE8F08F8B4206D90EB150
:100D0000C6E9000100210846BDE8F08FB3FA83F17F
:100D1000002951D16345C0F01681824240F213810F
:100D20000846002EE7D0C6E90047E4E7002A00F0B5
:100D3000AF80B2FA82F3002B40F0C2808A1A4FEAE9
:100D4000154EAFB20121200CB2FBFEFC0EFB1C22A3
:100D500040EA024207FB0CF090420ED9AA180CF1AF
:100D6000FF382CBF4FF001094FF00009904203D922
:100D7000B9F1000F00F0F080C446121AA4B2B2FB21
:100D8000FEF00EFB102200FB07F744EA0244A742E4
:100D90000ED92C1900F1FF322CBF4FF0010E4FF08D
:100DA000000EA74203D9BEF1000F00F0D28010461A
:100DB000E41B40EA0C4099E7C1F120058B400CFA96
:100DC00001F400FA01F922FA05F72CFA05FC8A4031
:100DD0001F4320FA05F3380C23431FFA87FE1C0C2F
:100DE000BCFBF0F800FB18CC44EA0C4408FB0EFCFA
:100DF000A4450ED93C1908F1FF3A2CBF4FF0010B66
:100E00004FF0000BA44503D9BBF1000F00F0B880F0
:100E1000D046A4EB0C041FFA83FCB4FBF0F300FBF8
:100E2000134403FB0EFE4CEA0444A6450ED93C19BC
:100E300003F1FF302CBF4FF0010C4FF0000CA64522
:100E400003D9BCF1000F00F09F80034643EA08403D
:100E5000A4EB0E04A0FB02EC64457346E04602D30B
:100E600007D1F14505D2BEEB02036CEB070C01384C
:100E7000E0465EB1B9EB030264EB080404FA05F541
:100E800022FA01F3CC401D43C6E90054002132E7A9
:100E900042082F464B08AC4642EAC172AE46C40730
:100EA000110C92B241EA034142EA0142B1FBF5F171
:100EB000B3FBF5F01F23A2EB0C0241EA004142E72D
:100EC0009D40C3F1200299409C402CFA02FC4FEA5D
:100ED000154E20FA02F2AFB2BCFBFEF80A430EFB3D
:100EE00018CC110C41EA0C4108FB07FC8C4550D989
:100EF000691808F1FF302CBF4FF001094FF00009CD
:100F00008C4502D9B9F1000F30D0A1EB0C01B1FB37
:100F1000FEF808FB07FC0EFB181192B242EA0142F0
:100F2000624534D2AA1808F1FF312CBF4FF00109F5
:100F30004FF000096245BED2B9F1000FBBD1A8F154
:100F400002012A44B7E7841A6CEB0302012017461A
:100F5000E7E62C4402382BE7ACF1020C2A440CE7FC
:100F600002392A44A5E62C440238BAE6A5EB0C0C5B
:100F7000A8F102006144B1FBFEF808FB07FCCAE7D8
:100F8000A8F102083C4444E7023B3C445EE741468A
:100F900091E7A1EB0C014046B1FBFEF808FB07FC12
:100FA000B9E700BF704700BF044B82B0C3F84C0ADA
:100FB000D3F84C320193019B02B070470080025677
:100FC000044B82B0C3F88C0AD3F88C320193019B96
:100FD00002B0704700800256044B82B0C3F8A00AEA
:100FE000D3F8A0320193019B02B0704700800256F3
:100FF000F0B5134C056822680E68AA42C8BF0260AB
:1010000063680F689F42A768B8BF0B603A440768DF
:10101000974224BF02F1FF320260E26813440A687B
:101020009A4224BF03F1FF330B600368AB4204D143
:101030000868801B18BF0120F0BD0120FCE700BF3D
:10104000E82706340A4BD3ED027AF8EE677A67EEAA
:10105000807AFDEEE77AC0ED007AD3ED037AF8EE00
:10106000677A67EEA07AFDEEE77AC1ED007A704705
:10107000E82706340E4BD3ED027AB8EE677AD3ED4B
:10108000007AF8EE677AE7EE007AFDEEE77AC0EDD7
:10109000007AD3ED037AB8EE677AD3ED017AF8EEF1
:1010A000677AE7EE207AFDEEE77AC1ED007A7047C5
:1010B000E827063470B5ADF51A7D40220021684658
:1010C00020F020FC9822002110A820F01BFC4FF4F7
:1010D000C872002136A820F015FC012011F0AAFFEB
:1010E0000125002319227D210226CDE91D32CDE9FB
:1010F00025150822E121CDE91A63CDE92163CDE967
:101100002323CDE92932CDE92B31CDE92F63CDE978
:1011100031231093062310A8CDE91F55CDE927569A
:10112000CDE92D56CDE934331C9633910BF0F6FB07
:1011300000B1FEE74FF440337F22CDE900234FF0AA
:10114000407302934FF08053CDE90C354FF00053BC
:10115000CDE90E354FF48013CDE90805CDE90A0637
:10116000CDE90330CDE90500079068460BF0D0FFCC
:1011700000B1FEE7084B002261934FF44003CDE934
:101180003623064B36A862930CF03CFB00B1FEE719
:101190000DF51A7D70BD00BF140000031404000398
:1011A0007FB5CDE9041004A905A8CDE90232FFF707
:1011B0001FFF02A903A8FFF71BFFDDE90410089B2E
:1011C0000093DDE902321CF023FE07B000BD0000F1
:1011D0002DE9F04F2DED028B494AFBB0136843F423
:1011E00000531360474B1A6A22F440321A621A6A9B
:1011F00022F040721A6205F087FF434B5A6912F4DD
:10120000003211D1BFF34F8FBFF36F8FC3F850225D
:10121000BFF34F8FBFF36F8F5A6942F400325A61A8
:10122000BFF34F8FBFF36F8F354A136843F480537A
:101230001360A2F57342536913F4803328D1C2F8C6
:101240008430BFF34F8F43F6E074D2F88030C3F39D
:10125000C900C3F34E335B0100F1010E01464EF0AD
:1012600001E003EA040646EA8175C2F860520139DA
:101270000FF007C8203B13F1200FEDD1BFF34F8FC4
:10128000536943F480335361BFF34F8FBFF36F8FC4
:10129000FFF710FF10231B4D2EACC5F86C3AD5F8A4
:1012A0006C124FF002081291129AC5F85C3AD5F808
:1012B0005C224FF001091192119B602323600723E8
:1012C000214612482361C4E90189C4F80C8008F062
:1012D000DDFD0F4A0F4B4FF00C0C13604FF4E13360
:1012E00053600023C2E9043CC2E9023393614FF426
:1012F00000431046D36109F0D7FC064660B1FEE713
:1013000000E001E00080025600ED00E0001002560F
:101310001CFB0634001000524FF0004AC5F860AACA
:10132000D5F86022484614924FF48052149BB64B75
:10133000C5F820AAC3F820A2FFF736FE4046FFF703
:1013400033FE0420FFF730FE0820FFF72DFEC5F81E
:10135000542AD5F85402CDE92F6613901399AB495E
:10136000204621600AF0BEFFA949204621600AF00C
:10137000B9FFA849204621600AF0B4FFA6492046DB
:1013800021600AF0AFFF01F0B9F801F0C3FB30466D
:1013900013F0ACFD304613F0CDFE40F201114FF4D6
:1013A000007B0327ADF8681030461AA913F05AFCE9
:1013B000304613F0C7FBC5F858BAD5F85802676035
:1013C0001590159948462146C4F800800AF0B0FEF1
:1013D000214608200AF0ACFE214609200AF0A8FEAA
:1013E00021460A200AF0A4FE21460B200AF0A0FEA6
:1013F00039468A480AF0F2FE394689480AF0EEFE7C
:10140000394688480AF0EAFE394687480AF0E6FE7F
:10141000394686480AF0E2FE394685480AF0DEFE83
:10142000394684480AF0DAFE4FF480614FF4805266
:10143000C5F8581AD5F858C2734BCDF858C016984D
:10144000C5F8181A2020C3F81812FFF7C5FD10467A
:10145000FFF7C2FD5046FFF7BFFD4FF08040FFF79A
:10146000BBFDC5F8BC8AD5F8BC22404619920422BF
:10147000199BFFF7B1FDC5F8BC2AD5F8BC12584638
:101480001891189B4023C5F8BC3AD5F8BC120CAD96
:101490001791179BFFF794FD8020FFF791FD4FF404
:1014A0008070FFF78DFD4846FFF78AFD4046FFF745
:1014B00087FD1046FFF784FD0820FFF781FD5E4899
:1014C00020F006F95D4A5E495E4820F099F85E4AD0
:1014D0005E495F4820F094F83A464B460E215D483D
:1014E00020F08EF83A46334649465B4820F088F8AB
:1014F000334632463946594820F082F8584959480F
:1015000020F07EF85849594820F07AF80DAF4A4843
:1015100020F0DEF8CDE90E662E603E601EF089FDFB
:1015200030B140F2FB11524B524A53481FF032FB8C
:10153000524805F05FF820B14FF4FF714C4B4D4A13
:10154000F3E721464D4805F097F820B140F201211C
:10155000474B484AE9E7238E012B04D040F2022191
:10156000474B444AE1E73B60E36B464943483AAAAC
:101570001E6805F07BF820B14FF402713C4B3D4AE8
:10158000D3E73A463D480EA905F073F8B0B93F6875
:10159000282107F1010E4EF001E0226C0FABBEF1E5
:1015A000010E10D10127384810971A9705F0D2F88C
:1015B00080B14FF407712E4B344AB6E74FF40371F4
:1015C0002B4B2C4AB1E701FB00F7D759013043F808
:1015D000047BE4E72E4B3A4621462B48236005F076
:1015E0007DFB20B140F22221214B284A9DE7294969
:1015F000254810AA05F026FB00284DD040F22521F1
:101600001B4B224A91E700BF009002560031025264
:101610008031025200320252803202520A000030FF
:10162000050000301C0000201D00002006000030D6
:10163000070000300800003020D6023449D60234BA
:101640004DD6023459D6023488D6023491D60234AB
:101650009DD60234B7D60234CFD60234E1D6023456
:10166000FBD6023430D702343ED7023452D702348C
:1016700062D70234EA08033476D70234B8FA063463
:1016800081D7023414FB063488FA0634DB080334AD
:10169000204506342CC90634A349A4481AAA05F0EB
:1016A000F7FA014620B14FF40A71A14BA14A3CE779
:1016B0004FF43952A04BA1481A600822A04BA14C0C
:1016C0001A60242220F01EF9384684F8227011F0A6
:1016D000EDFC384611F0DAFC9B481AA904F0CCFF67
:1016E000804620B14FF48371914B984A1DE71AA9A7
:1016F000974800F0E1FF974819F0ACFA05F022FD99
:10170000DFF89092944B2A4618604946A9F10400EC
:1017100019F0DAFC3946404613F032F9A9F10C030E
:1017200059F8081CDB688D4D0B44EB60022359F817
:101730000C0C59F8042CDFF8609202442860A96070
:101740006A6041462A4640462B61C5F8149013F062
:1017500023F9834B186859689A68DB6802440B4484
:10176000EB6004232B617F4B2860A9606A603946D7
:101770002A4640466B6113F00FF97B481CF008F9CC
:1017800038461CF039F940461CF07CFC77481CF0C8
:1017900069F94FF0FF301CF055F975497548764BE3
:1017A000764A01F041F84146484619F0EDFC0CAD8F
:1017B00019F012FD2B68B3F5407F63D00421704B04
:1017C000186819F0F5FC6F4B1A68002AFCD000224B
:1017D0001A602B68B3F5407F79D0694B1A6802F024
:1017E0001F03BFF34F8F03F1030E1C3B4FEA5E1E36
:1017F00020330EF1010ED8BF4FF0010E4EF001E084
:101800006149C1F85C2220320FF005C8BFF34F8F49
:10181000BFF36F8F4FF480730320CDE900305B4F2F
:1018200057482A683968006819F084F9002E1EDDCF
:101830003B6803F01F023244BFF34F8F6FEA030E81
:1018400098188644203A4FEA5E1E20320EF1010EAF
:10185000D8BF4FF0010E4EF001E04B49C1F8703295
:1018600020330FF005C8BFF34F8FBFF36F8F05F024
:1018700069FC09900221344804F0D4FE112845D1B6
:1018800020BFF7E7002E41481EDD036803F01F026A
:101890003244BFF34F8F6FEA030E9F18BE44203AC5
:1018A0004FEA5E1E20320EF1010ED8BF4FF0010E3E
:1018B0004EF001E03449C1F85C3220330FF005C826
:1018C000BFF34F8FBFF36F8F0421006879E7002EBD
:1018D000CDDD2E4B1B6803F01F023244BFF34F8F48
:1018E0006FEA030E98188644203A4FEA5E1E2032B3
:1018F0000EF1010ED8BF4FF0010E4EF001E022496B
:10190000C1F85C3220330FF005C8ACE7103801286D
:10191000B0D90D4804F000FF054600283ED04FF432
:10192000E571034B1A4A00E628C9063488FA0634E2
:1019300062D70234DB08033424C9063424FA06349F
:1019400020C9063448FA0634B8FA0634FD080334D0
:10195000B4FB063434C9063430C90634FCFA063404
:10196000D8270634000000914CDD0434EC420634E4
:1019700045100034F10F0034A1110034751000340B
:10198000F8FA063418FB063400ED00E014FB0634C8
:10199000CD080334F42706340070179105F0D2FB0C
:1019A0000A9028460DF13C0C0DAF396881427ED873
:1019B000C64BC74A0EA800F095FE0021C54AD7F8CD
:1019C00000C0C2E90411118082F8201082F82310AF
:1019D000918440210027C2E90A1111210346506376
:1019E00057600E989760D7601163BCF1000F2CD040
:1019F00058B3DDF83CE0BEF1000F26DD074617F9CD
:101A0000011B8644AEEB070E0EF1010E08464EF0A8
:101A100001E0BEF1010E72D1AC4F117097ED037A67
:101A200097F910705070C91B07EE901AF8EEE77A1C
:101A300067EE877AC11BC2ED017A07EE901AF8EEC5
:101A4000E77A67EE877AC2ED027AA14A1068002829
:101A500000F00D8100F1CC020B9200222EAFBB46AC
:101A6000804694469246914611469FED9B7ADFED63
:101A70009B3ADFED9B6A4FF0110E0890D8ED027A89
:101A8000B4EEE77AF1EE10FAF4EEE37A44BFB0EE8A
:101A9000677A0121F1EE10FAEBEC017A38DB4FF0B6
:101AA00001090CF1010C4FF0010A013235E05CF83C
:101AB000041B002921DD0EAB53F8203003F01F0278
:101AC0000A44BFF34F8F6FEA030E03EB0208C644CC
:101AD000203A4FEA5E1E20320EF1010ED8BF4FF0C1
:101AE000010E4EF001E07F49C1F85C3220330FF067
:101AF00005C8BFF34F8FBFF36F8F013055E717F95C
:101B000001CB6145A8BF61466045B8BF604680E72C
:101B1000F4EEE67AF1EE10FAC5DABEF1010E08F144
:101B20000C08ABD1BAF1000F03D0DFF8A8E1CEF872
:101B30001420B9F1000F02D0664AC2F810C011B1EA
:101B4000644A82ED037A0022B8460437BE46013269
:101B5000C2F1110CBEEC017AD8ED007AB4EEE77A4E
:101B6000F1EE10FAC4BF88ED007A4EED017ABCF1B7
:101B7000010CEFD1052AE7D19DED2F7ADDED2E7A0C
:101B800077EE877A9DED307A77EE877A9DED317A20
:101B900077EE877A9DED327A77EE877AB1EE047A26
:101BA000DFED514A87EE874AB4EEE44AF1EE10FACF
:101BB000B7EE007ADFED487AACBF01220022F0EEEA
:101BC000676AB0EE476AB0EE478A424F0DF1B80837
:101BD00087F820200B9A121A0C3A44489208424384
:101BE00022F0404201320899D1ED025AF4EEE35A54
:101BF000F1EE10FA1DDB91ED005AB4EEC56AD1ED9D
:101C0000015AF1EE10FAB4EEE65A35FE066AF1EE2C
:101C100010FAB4EEE57A75FE266AF1EE10FAF4EEEB
:101C2000E75A35FE877AF1EE10FA05F1010575FEE7
:101C3000A77A0899013A01F10C010891D3D1012D3D
:101C400013D976EEC66A9FED2A6AF4EEC66AF1EE03
:101C500010FA39DC77EEC77AF4EEC67AF1EE10FAB4
:101C6000CCBF0122002287F82520002B52D0002271
:101C7000204B03F54051C1E93A22002183F8A42208
:101C80001D4BC3E901221A80D9601961596199611C
:101C9000DA61DDE90923DFF87490A3EB020A0C4B4B
:101CA000DFF86C801D681549D9F80030012201FB6E
:101CB000038113480AF008FA002800F0B18140F2CD
:101CC0008931104B104A30E40122CCE7B4FB0634D2
:101CD000B0FB063448FA063400000000CDCCCC3D01
:101CE0000AD7A33D00ED00E0CDCC4C3EABAAAA2A1A
:101CF0009A99593F34C9063424FA063400B80B00C7
:101D0000EC09073415D80234A508033480FA0634E8
:101D100000000091B4EEE44A0121F1EE10FA97F8C8
:101D2000212087F8231044DBBB6142B9FA690A44D9
:101D3000022AFA6149D987F8211087F822303A69D6
:101D4000134622B197F82530B3FA83F35B0987F87D
:101D5000243005F0F7F99C4ADFED9C7A1368C31A2A
:101D600000EE103AB8EE400A20EE270AB5EEC00A9F
:101D7000F1EE10FA2DD9B4EEC80AF1EE10FA28DC13
:101D8000934B10604246DFF888821968914818F03A
:101D900067FF914DD8F8EC30A8F540506B6019F012
:101DA00089F92870C0B900236870AB616B61A860C5
:101DB0006FE7FB6132B1BA6901322C2ABA61BED930
:101DC00087F82130012387F82230002387F8243058
:101DD0004DE79FED820AD3E7DFF83892A8F540502F
:101DE000D9F8001019F03CF97D4B196800291FDD66
:101DF000D9F8003003F01F020A44BFF34F8F6FEA97
:101E0000030E98188644203A4FEA5E1E20320EF1E7
:101E1000010ED8BF4FF0010E4EF001E07149C1F83C
:101E2000683220330FF005C8BFF34F8FBFF36F8FB9
:101E300005F088F9DFF8E0918046D9F800301A689B
:101E400022F004021A601A6A910610D402230020BC
:101E5000C9F8583012F076FE0121634804F0F0FC16
:101E600058B340F2F111614B614AFFF75EBB1A684B
:101E700042F002021A6005F065F98246D9F8003096
:101E80001B6A9A0712D50222D9F800305A6205F06F
:101E900059F98246D9F800301B6A9B06D6D505F061
:101EA00051F9A0EB0A006328F4D9CFE705F04AF90D
:101EB000A0EB0A006328E1D9E5E705F043F94D4BB3
:101EC000A0EB0800A86018684B4900281FDD0B68CC
:101ED00003F01F020244BFF34F8F6FEA030E03EBC0
:101EE000020CE644203A4FEA5E1E20320EF1010E4B
:101EF000D8BF4FF0010E4EF001E03A48C0F85C3216
:101F000020330FF005C8BFF34F8FBFF36F8F0B68FF
:101F10001A68EA605A682A611A686A61D3ED017A20
:101F20002B78C5ED067A002B48D0B6EE007AF4EE99
:101F3000C77AF1EE10FAACBF012300236B7005F0F5
:101F400001F9DFF8D8908046D9F800301BB1C31AE8
:101F5000B3F57A7F1CD36B78AA68002B32D0274B5D
:101F6000796927480691112105913969049195ED08
:101F7000057AB7EEC77A8DED027B95ED067AB7EE5E
:101F8000C77A20498DED007B1FF03AFBC9F800802D
:101F90006B78A3B1E9690131E96100293FF479AEB9
:101FA00019481FF02DFB05F0CDF82862094818F0FC
:101FB00051FE0023EB616B602B706AE66B700023AF
:101FC000EB6166E6114BCBE730C906346F12833AFA
:101FD000B0FB063434C9063424FA06348988883DB7
:101FE00024C9063400ED00E088FA063462D70234D2
:101FF000BB08033420C9063428C9063414D6023479
:1020000098D7023494D70234CED7023419D602348A
:1020100034F906342CC90634680B073400450634FD
:10202000BC4F0090D7E90223D7E900011BF0EEFF77
:10203000B94F2DB197F8243013B1284600F002FCB7
:102040004FF080401BF006FD97F82350002D40F024
:10205000C880B2481BF0F6FC1BF00CFD7B6BC188FE
:10206000012200932846AE4B00F098FC4FF0FF3061
:102070001BF0E8FC1BF0FEFC94ED037AB7EEC77A88
:10208000C1888DED047BA3690122039363699140AC
:10209000029311230193236900200093A14B00F0C8
:1020A0007DFC1BF0E7FC94ED027AB7EEC77AC1889D
:1020B0008DED047B94ED017AB7EEC77A8DED027B4E
:1020C00094F901300122019394F9003001EB4101B0
:1020D00000200093944B00F061FC1BF0CBFC636B81
:1020E000C1880393236B01220293E36A8900019361
:1020F000A36A002000938D4B00F050FC1BF0BAFC4B
:10210000C18814208A4B414301220020CDF800A051
:1021100000F044FC4FF0FF301BF094FC854D8648E6
:102120001BF0A0FC00201BF095FC2B6813B905F0F8
:1021300009F8286005F006F82B68C01AB0F57A6F28
:102140002CD26B2364217D4A4FF496700093C823F0
:102150001BF098FC4FF080401BF07CFC1BF08AFCCD
:10216000C1880122764B0901002000F017FC1BF00A
:1021700081FCC1880122734B01EB0111002000F0AA
:102180000DFC1BF077FCC1881220012241436E4BED
:10219000002000F003FC00201BF05CFCD9F80030AC
:1021A0006A4A02FB0383BFF34F8F45F6C05E4EF0D1
:1021B00001E0674AC2F8683220330FF005C8BFF368
:1021C0004F8FBFF36F8F01220221624809F054FF45
:1021D000002800F0E18040F2E7315F4B5F4AFFF7F3
:1021E000A4B997F822305BB14C481BF02BFC1BF0D4
:1021F00041FC0122C1885A4B002000F0CFFB35E79B
:10220000584F3B6A1D464BB104F09CFF3B6AC51A10
:1022100041F287339D428CBF002501253B780BB9E5
:10222000002D66D097F801B0BBF1000F5BD1002DF7
:1022300059D14FF0FF201BF005FC1BF01BFCC1889F
:10224000BBF1000F53D0484BBA6800200792474AB1
:10225000069297ED057AB7EEC77A8DED047B97ED80
:10226000067AB7EEC77A00938DED027B0122404BD0
:1022700000F094FB002D3FF4F9AE3E4B4FF4487252
:10228000B921009300206E231BF0C0FE3A481BF0DA
:10229000E9FB00201BF0DEFB4FF0FF301BF0D2FB10
:1022A0000122E421354B002000F078FB22481BF08E
:1022B000D9FB6FF0FF001BF0C5FB0022304BDFEDB8
:1022C000317ACDE9022397ED067A27EE277AB7EE29
:1022D000C77A01228DED007B4FF4817100202A4BDB
:1022E00000F05CFBC2E64FF0010B2848A3E7284B47
:1022F000AAE76FF0FF001BF0A5FB1BF0BBFB282338
:10230000C18801937B68012200932846214B00F08D
:1023100045FBABE6D827063448FA0634808080FFB8
:1023200023D80234BAD80234D7D80234F1D80234D0
:1023300008D90234FC440634EC420634DC09033488
:1023400018D9023428D902345BD9023400B80B0002
:1023500000ED00E0EC09073415D80234A508033479
:102360003CD8023424FA063414D6023494D702340A
:1023700046D802340000DDC0F442063468D8023486
:10238000000049400000C8427CD802340000FFFF32
:1023900019D602349DD80234D9F80030114DC3F15A
:1023A0000103C9F800302B6A8BB104F0CBFE2B6A15
:1023B000C01A41F28733984209D804F0C3FE4FF4A3
:1023C000FA73B0FBF3F202FB1300F92804D90120E1
:1023D00010F05CFEFFF7EBB9012010F047FEFFF7AD
:1023E000E6B900BF24FA063408B502481FF070F9B8
:1023F000FEE700BF86D9023410B5E4B04FF4C872CE
:10240000002168461FF07EFA00231022CDE9002348
:102410004FF400134FF08051329303236846CDE907
:1024200022130BF0EFF948B900230822CDE900236D
:1024300028232490684625930BF0E4F964B010BD7E
:102440000138012810B5144607D91FF09FFC092355
:102450004FF0FF340360204610BD4FF0FF330448B7
:1024600092B208F069FB002818BF0024F3E700BF10
:102470001CFB063407B54FF080424FF48060FEF736
:1024800093FD074BC3F8602AD3F8601201910199BC
:10249000C3F8202A03F58053C3F8202203B000BDFF
:1024A0000080025600BEFEE70120704708B51FF00D
:1024B0006DFC162303604FF0FF3008BD08B51FF018
:1024C00065FC16230360FEE770B50D4614460E4604
:1024D000731B9C4201DC204670BDAFF3008006F800
:1024E000010BF5E74FF0FF3070474FF40053002029
:1024F0004B60704701207047002070471FB5144B98
:102500007C2101AA02A8029310F00CFD0346E0B959
:10251000019A02F4C031B1F5C03F17D042F4C03285
:102520007C2102A8019210F019FD68B97C2101AA52
:1025300002A810F0F7FC30B9019B03F4C033B3F5E7
:10254000C03F03D0FEE7FEE7FEE7FEE705B000BDB3
:102550000090005692ED017A2DE9F74F0026019088
:1025600017EE100A3546F6EE006A98461368D2F860
:1025700008A000FB03FE554502D103B0BDE8F08F73
:10258000B8F1000F0CBF30462846019C01272056A9
:102590000024A64514BFF146B94605EB0A0B00948A
:1025A000B9F101092FD1009C06EE103AB4FBF3F704
:1025B00003FB174407EE904AF8EE677AF8EE465AA6
:1025C00077EEA67A87EEA56A07EE907AF8EE677A3C
:1025D000F8EE475A77EEA67A81ED006A87EEA56A93
:1025E00081ED016A92F9104092ED036A001B07EE3B
:1025F000900AF8EEE77A67EE867A0135C1ED027A45
:1026000076440C31B7E7B8F1000F07EB060C18BFA2
:10261000DC46019CD34414F90CC06045ACBF844631
:10262000009760460137BBE70C23F0B58E6804467F
:10263000024603FB06060020B24200D1F0BDD1EDF8
:10264000007A91ED017AB8EE676AF8EE475AD2ED5A
:10265000007A92ED017A66EE277A25EE877AFCEE13
:10266000E77ABCEEC77A2546124F131B9B087B43C3
:1026700023F040430133013B01D10C32DCE7D5EDBF
:10268000006A66EE266AFCEEE66A17EE907A16EEAF
:1026900090CA67450BD1D5ED016A65EEA66AFCEEDE
:1026A000E66A17EE107A16EE90CA674500D0013040
:1026B0000C35E0E7ABAAAA2A88B181B14A8E012A7B
:1026C0000DD10A6C9169126A09681288C16002749E
:1026D0004022C0E900221122826000F067B84FF06A
:1026E000FF30704730B51C46E7B00AB12D4B136080
:1026F000012904D118B105680DB102B144B9CC2249
:10270000002128481FF0FEF84FF0FF3067B030BDC1
:1027100022460B4628466946FFF71CFF0023284641
:1027200033A9FFF717FF21466846FFF77DFF0446F0
:1027300033A8FFF779FF89686B4601F1010E00228B
:10274000DFED197A4EF001E00C33BEF1010E1AD123
:1027500002F1010E9FED147A4EF001E033AB0C3321
:10276000BEF1010E15D1844205D317D1B4EEE77A3C
:10277000F1EE10FA12DDCC220DEB020109481FF038
:1027800048FB0020C2E713ED017A013277EE877A29
:10279000DAE753ED016A37EE267AE0E7CC226946A4
:1027A000ECE700BFC8FB06340000000000207047C3
:1027B00090ED027ADFED197AB4EEE77AF1EE10FAD5
:1027C0007FB502460D4626D4154BD2ED010A92ED97
:1027D000000A1B6803A902A89847029B114E023BFE
:1027E0000093039B01A9023B019368463368984715
:1027F000029B044602330093039B68460233019315
:1028000001A933689847044305D1DDE902012B464D
:1028100005221BF047FC04B070BD00BFCDCCCC3D01
:1028200098FC06349CFC06340349086003490A609E
:10283000034A1360704700BF9CFC063498FC0634C2
:1028400094FC06342DE9F04F2DED028B044689B03F
:10285000029000F1CC0620464A490C34FFF7A8FF4D
:10286000A642F8D100239FED488ADFF82081DFF8E7
:1028700020A1DFF820B103930C23D8F80070029A4E
:1028800003FB0727D7ED027AF4EEC87AF1EE10FACF
:102890005ED4D8F8046003FB0626D6ED027AF4EE87
:1028A000C87AF1EE10FA53D4DAF8003005A904A87A
:1028B000D7ED010A97ED000AD8F808409847DBF8F1
:1028C000003005A904A89847002841D1DAF8003063
:1028D00007A906A8D6ED010A96ED000A9847DBF88D
:1028E000003007A906A8984790BBDDE90401DDE99F
:1028F000062300941BF08CFA04A80FC8A3EB010E6A
:10290000A2EB000CBEF1000FB8BFCEF1000EBCF17F
:10291000000FDFF88490B8BFCCF1000CE645D9F881
:102920000050009420DD01320130A847DDE9062384
:10293000DDE904010094D9F80090013A0138C84754
:1029400021463846FFF734FF21463046FFF730FF77
:10295000039B08F10C080133122B03938CD109B0AF
:10296000BDEC028BBDE8F08F01330131A847DDE9F2
:102970000512079B0094D9F800900498013B013997
:10298000DDE700BFDCA939FFCDCCCC3D0409033421
:1029900098FC06349CFC063494FC063408B477B5E5
:1029A00004460D46164607AB53F8042B3021074862
:1029B00001931EF007FF334629462046034A1BF0C9
:1029C000E1F903B0BDE8704001B07047A0FC0634E7
:1029D00010B50446FDF7DCFE2146BDE8104082B28A
:1029E00041F28833014808F0A7B800BF1CFB063449
:1029F0007047000008B50248FFF7EAFFFEE700BF96
:102A0000A2D9023408B50248FFF7E2FFFEE700BF93
:102A1000B9D9023408B50248FFF7DAFFFEE700BF74
:102A2000D0D9023408B50248FFF7D2FFFEE700BF55
:102A3000E6D9023408B50248FFF7CAFFFEE700BF37
:102A4000FED902347047FEE7FEE704F06FBB08B51D
:102A500011F07AF8BDE8084005F01CB908B511F08E
:102A600073F8BDE8084004F0DEBF000010B5134C59
:102A70006369DB0321D50A1A002A1EDD00F01F035B
:102A80001A44BFF34F8F6FEA000E1B1A02440B4427
:102A90009644203B4FEA5E1E20330EF1010ED8BF54
:102AA0004FF0010E4EF001E0C4F85C0220300FF050
:102AB00005C8BFF34F8FBFF36F8F10BD00ED00E06F
:102AC00010B5134C6369DB0321D50A1A002A1EDDF9
:102AD00000F01F031A44BFF34F8F6FEA000E1B1A5A
:102AE00002440B449644203B4FEA5E1E20330EF115
:102AF000010ED8BF4FF0010E4EF001E0C4F868029D
:102B000020300FF005C8BFF34F8FBFF36F8F10BD9C
:102B100000ED00E0074808B50268074B9A4202D072
:102B2000036009F051FC034809F01AFC0228FAD0AE
:102B300008BD00BFD0FC063400FC0D5808B5FFF7F7
:102B400099FC08BD10B5AEB0B422002101A81EF05A
:102B5000D9FE4FF488544FF48831402228231120A5
:102B60004FF0440CCDE90614CDE90222CDE90D2247
:102B700004244FF488624FF4882E8DF8043001232A
:102B8000CDE908C4CDE91220114C124ACDE9040365
:102B9000CDE90AE4CDE90F0304F5E024219201A870
:102BA00002F54472CDE9143111918DF85C301C931B
:102BB0008DF8883027932C928DF8B43016941DF040
:102BC0004DFD20460449FFF77BFF2EB010BD00BF2E
:102BD000000027343035627000102F34F0B5BBB0E0
:102BE000E422002101A81EF08DFE102311210424EF
:102BF0004FF488258DF804304423402001224FF4FF
:102C000088374FF48856DFF864C0CDE91C13CDE94E
:102C10000A5CCDE90834CDE91334CDE91E341595AD
:102C200020930F4D0F4BCDE90200CDE90D000DEBC8
:102C30000400CDE90412CDE90F12CDE91A12CDE955
:102C400018222193CDE90676CDE9117616951DF06F
:102C5000A9FA28460449FFF733FF3BB0F0BD00BF97
:102C6000000027340040323400402B3400002E3462
:102C700010B5AEB0B422002101A81EF043FE4FF4FF
:102C800088644FF4883140222A231120CDE90614AC
:102C9000CDE90222CDE90D228DF804300A910123FD
:102CA000119144224FF48851CDE90403CDE9080382
:102CB000CDE90F03CDE9121204204FF48822CDE9AB
:102CC000140202F1E2420E4CA2F52202A2F52662A3
:102CD0000B942192A4F5342402F5447201A88DF8D6
:102CE00030301C9327932C928DF8B43016941DF03D
:102CF00051FD20460349FFF7E3FE2EB010BD00BF93
:102D00000040323400402B3430B5AFB0B422002143
:102D100001A81EF0F7FD4FF4883040224FF488617F
:102D2000CDE90222CDE90601CDE90D224FF488510B
:102D300044222A23CDE912120A9011904FF48822DE
:102D4000042011248DF804300123CDE9140202F18E
:102D5000E242A2F52202CDE90443CDE90843CDE9E0
:102D60000F430D4D0D4CA2F52E62219201A802F5E4
:102D700044728DF830301C938DF8883027932C9254
:102D80008DF8B4300B9516941DF004FD29462046AD
:102D9000FFF796FE2FB030BD0040323400002E34D5
:102DA00010B51F49AEB01F48FFF760FEB4220021E6
:102DB00001A81EF0A7FD2A2311228DF8043001235B
:102DC0001949CDE90423CDE90823CDE90F23CDE945
:102DD00006220A920B91119204214422CDE9141289
:102DE000CDE91222114A124C0DEB0100219202F59D
:102DF0004472CDE90233CDE90D338DF830301C93A8
:102E00008DF8883027932C928DF8B43016941DF0ED
:102E1000C1FC20460249FFF753FE2EB010BD00BF93
:102E200060403234404032345040323410356270A9
:102E30000040323400B52049AFB02048FFF716FEFD
:102E4000B422002101A81EF05DFD282311228DF877
:102E50000430012344210420CDE90423CDE90F23CC
:102E6000CDE91323CDE9112206921592144ACDE93A
:102E70000901169202F17452A2F55002CDE9071130
:102E8000A2F52A620F492192684402F54472CDE905
:102E90000233CDE90D330B918DF85C301C932793F1
:102EA0002C928DF8B4301DF0D9FB03490348FFF78D
:102EB00007FE2FB000BD00BF8040323440403234A6
:102EC000504032340040323410B51C4998B01C4890
:102ED000FFF7CCFD6022002168461EF013FD3F2362
:102EE0008DF8003040234FF48830CDE901334FF4A2
:102EF00088534FF4882CCDE9050344230420012294
:102F00001121104CCDE90730CDE909C4CDE91230CB
:102F100004F534246846CDE90312CDE90E12CDE95B
:102F20001013CDE90C22149315941DF0E5FA2046F8
:102F30000249FFF7C5FD18B010BD00BF6040323434
:102F4000404032340000273408B5042104481BF007
:102F500047FCBDE80840052102481CF017BB00BF34
:102F60002CD3043418D3043408B5022104481BF0D0
:102F700037FCBDE80840032102481CF007BB00BF36
:102F800064D1043458D1043408B50D2104481BF031
:102F900027FCBDE808400B2102481CF0F7BA00BF2F
:102FA000A0CF043474CF043408B5052104481BF0C5
:102FB00017FCBDE80840062102481CF0E7BA00BF34
:102FC00050CB043438CB043408B5042104481BF03A
:102FD00007FCBDE80840052102481CF0D7BA00BF35
:102FE0000CC90434F8C8043408B5052104481BF0A2
:102FF000F7FBBDE80840062102481CF0C7BA00BF35
:1030000008C70434F0C6043408B5042104481BF092
:10301000E7FBBDE80840052102481CF0B7BA00BF35
:10302000C4C40434B0C4043408B5032104481BF0FC
:10303000D7FBBDE80840042102481CF0A7BA00BF36
:10304000E0C20434D0C2043408B5072104481BF0A0
:10305000C7FBBDE80840072102481CF097BA00BF33
:1030600010C10434F4C0043408B5042104481BF032
:10307000B7FBBDE80840052102481CF087BA00BF35
:1030800058BE043444BE043408B5032104481BF080
:10309000A7FBBDE80840042102481CF077BA00BF36
:1030A00074BC043464BC043408B50D2104481BF01E
:1030B00097FBBDE808400B2102481CF067BA00BF2F
:1030C00044BA043418BA043408B5042104481BF087
:1030D00087FBBDE80840052102481CF057BA00BF35
:1030E00004B60434F0B5043408B5032104481BF0D9
:1030F00077FBBDE80840042102481CF047BA00BF36
:1031000020B4043410B4043408B50F2104481BF073
:1031100067FBBDE808400D2102481CF037BA00BF2C
:10312000D0B104349CB1043408B5132104481BF019
:1031300057FBBDE80840112102481CF027BA00BF28
:10314000E0AB04349CAB043408B50F2104481BF0F9
:1031500047FBBDE808400D2102481CF017BA00BF2C
:10316000D0A404349CA4043408B5082104481BF0FE
:1031700037FBBDE80840092102481CF007BA00BF30
:10318000909F04346C9F043408B5132104481BF04D
:1031900027FBBDE80840112102481CF0F7B900BF29
:1031A0004C9B0434089B043408B5112104481BF0DF
:1031B00017FBBDE808400F2102481CF0E7B900BF2B
:1031C0001C940434E093043408B5082104481BF02F
:1031D00007FBBDE80840092102481CF0D7B900BF31
:1031E0002C8E0434088E043408B5132104481BF0D7
:1031F000F7FABDE80840112102481CF0C7B900BF2A
:10320000E8890434A489043408B5112104481BF06A
:10321000E7FABDE808400F2102481CF0B7B900BF2B
:10322000B88204347C82043408B5082104481BF0B9
:10323000D7FABDE80840092102481CF0A7B900BF31
:10324000C87C0434A47C043408B5132104481BF062
:10325000C7FABDE80840112102481CF097B900BF29
:10326000847804344078043408B50C2104481BF0F9
:10327000B7FABDE808400B2102481CF087B900BF2F
:10328000A47104347871043408B5082104481BF093
:10329000A7FABDE80840092102481CF077B900BF31
:1032A000286D0434046D043408B5112104481BF062
:1032B00097FABDE808400F2102481CF067B900BF2B
:1032C00004690434C868043408B50E2104481BF0AE
:1032D00087FABDE808400D2102481CF057B900BF2D
:1032E000C46204349062043408B5082104481BF019
:1032F00077FABDE80840092102481CF047B900BF31
:10330000985D0434745D043408B5112104481BF041
:1033100067FABDE808400F2102481CF037B900BF2A
:10332000745904343859043408B50E2104481BF08C
:1033300057FABDE808400D2102481CF027B900BF2C
:10334000345304340053043408B5082104481BF0F6
:1033500047FABDE80840092102481CF017B900BF30
:10336000084E0434E44D043408B5112104481BF020
:1033700037FABDE808400F2102481CF007B900BF2A
:10338000E4490434A849043408B50A2104481BF070
:1033900027FABDE80840092102481CF0F7B800BF31
:1033A000E4430434C043043408B5052104481BF049
:1033B00017FABDE80840062102481CF0E7B800BF34
:1033C000584004344040043408B5102104481BF030
:1033D00007FABDE808400F2102481CF0D7B800BF2B
:1033E000543D0434183D043408B50C2104481BF046
:1033F000F7F9BDE808400A2102481CF0C7B800BF31
:10340000443704341C37043408B50C2104481BF03D
:10341000E7F9BDE808400B2102481CF0B7B800BF2F
:10342000D4320434A832043408B5052104481BF012
:10343000D7F9BDE80840062102481CF0A7B800BF34
:10344000982E0434802E043408B50E2104481BF055
:10345000C7F9BDE808400C2102481CF097B800BF2E
:10346000B42B0434842B043408B50C2104481BF01D
:10347000B7F9BDE808400B2102481CF087B800BF2F
:10348000A42604347826043408B5052104481BF02A
:10349000A7F9BDE80840062102481CF077B800BF34
:1034A000682204345022043408B50E2104481BF06D
:1034B00097F9BDE808400C2102481CF067B800BF2E
:1034C000841F0434541F043408B50C2104481BF035
:1034D00087F9BDE808400B2102481CF057B800BF2F
:1034E000741A0434481A043408B5052104481BF042
:1034F00077F9BDE80840062102481CF047B800BF34
:10350000381604342016043408B50E2104481BF084
:1035100067F9BDE808400C2102481CF037B800BF2D
:10352000541304342413043408B5072104481BF051
:1035300057F9BDE80840072102481CF027B800BF32
:10354000940E0434780E043408B5052104481BF0A9
:1035500047F9BDE80840062102481CF017B800BF33
:10356000CC0B0434B40B043408B50F2104481BF011
:1035700037F9BDE808400F2102481CF007B800BF2A
:10358000D80804349C08043408B5092104481BF009
:1035900027F9BDE80840092102481BF0F7BF00BF2A
:1035A00008030434E402043408B5052104481BF080
:1035B00017F9BDE80840062102481BF0E7BF00BF2D
:1035C00090FF033478FF033408B5082104481BF04A
:1035D00007F9BDE80840082102481BF0D7BF00BF2B
:1035E0000CFD0334ECFC033408B5092104481BF03E
:1035F000F7F8BDE80840092102481BF0C7BF00BF2B
:10360000B4F9033490F9033408B5052104481BF0DC
:10361000E7F8BDE80840062102481BF0B7BF00BF2D
:103620003CF6033424F6033408B5082104481BF0A3
:10363000D7F8BDE80840082102481BF0A7BF00BF2B
:10364000B8F3033498F3033408B5072104481BF09A
:10365000C7F8BDE80840072102481BF097BF00BF2C
:1036600080F0033464F0033408B5052104481BF0EE
:10367000B7F8BDE80840062102481BF087BF00BF2D
:10368000B8ED0334A0ED033408B5052104481BF060
:10369000A7F8BDE80840062102481BF077BF00BF2D
:1036A00064EB03344CEB033408B50D2104481BF0E4
:1036B00097F8BDE808400D2102481BF067BF00BF26
:1036C00090E803345CE8033408B5052104481BF096
:1036D00087F8BDE80840062102481BF057BF00BF2D
:1036E000B4E303349CE3033408B5052104481BF01C
:1036F00077F8BDE80840062102481BF047BF00BF2D
:1037000060E1033448E1033408B50D2104481BF09F
:1037100067F8BDE808400B2102481BF037BF00BF27
:103720008CDE033460DE033408B5052104481BF049
:1037300057F8BDE80840062102481BF027BF00BF2C
:103740003CDA033424DA033408B5052104481BF0BD
:1037500047F8BDE80840062102481BF017BF00BF2C
:10376000E8D70334D0D7033408B5072104481BF049
:1037700037F8BDE80840072102481BF007BF00BF2B
:1037800074D5033458D5033408B5052104481BF01B
:1037900027F8BDE80840062102481BF0F7BE00BF2D
:1037A000ACD2033494D2033408B5052104481BF08D
:1037B00017F8BDE80840062102481BF0E7BE00BF2D
:1037C00058D0033440D0033408B5022104481BF01C
:1037D00007F8BDE80840032102481BF0D7BE00BF30
:1037E00034CE033428CE033408B5124903201BF02D
:1037F000F5FB114900201BF02BFB01220F49002093
:103800001BF036F801220E4907201BF031F8012287
:103810000C4908201BF02CF804210B481AF0CCFFAF
:103820000A490B48FFF722F9BDE80840052109487D
:103830001AF03CBFE0D20434B0D2043468D204346D
:1038400020D20434D8D1043498D104340050333415
:103850000040323484D1043408B50E4903201BF0F3
:10386000BDFB01220C4906201BF002F801220B4986
:1038700010461AF0FDFF0122094902201AF0F8FF54
:10388000032108481AF098FFBDE8084004210648C3
:103890001AF00CBF98C2043450C2043408C2043475
:1038A000C0C1043490C1043480C1043408B50E4949
:1038B00002201BF093FB01220C4906201AF0D8FFCE
:1038C00001220B4910461AF0D3FF012209490320B7
:1038D0001AF0CEFF032108481AF06EFFBDE8084039
:1038E000042106481AF0E2BE2CBC0434E4BB0434C4
:1038F0009CBB043454BB043424BB043414BB0434D4
:1039000008B50E4900201BF069FB01220C49042078
:103910001AF0AEFF01220B4902201AF0A9FF012282
:10392000094906201AF0A4FF032108481AF044FFB1
:10393000BDE80840042106481AF0B8BED8B30434E4
:1039400090B3043448B3043400B30434D0B2043424
:10395000C0B2043408B50C4900201BF03FFB012223
:103960000A4903201AF084FF0122094909201AF0AC
:103970007FFF022107481AF01FFFBDE8084003211E
:1039800005481AF093BE00BFF0CD0334A8CD033430
:1039900060CD033440CD033434CD033408B50C4935
:1039A00000201BF005FD01220A4900201AF060FFEB
:1039B0000122094908201AF05BFF022107481AF08A
:1039C000FBFEBDE80840032105481AF06FBE00BFAA
:1039D0002CD10434E4D004349CD004347CD004349E
:1039E00070D0043408B51E4903201BF0A7F81D4908
:1039F00000201BF0A3F81C4901201BF09FF81B4975
:103A000002201BF09BF81A4901201BF0E7FA012263
:103A1000184900201AF02CFF0122174908201AF03B
:103A200027FF0122154906201AF022FF012214491E
:103A300005201AF01DFF0122124910461AF018FF46
:103A40000122114903201AF013FF0D210F481AF02B
:103A5000B3FEBDE808400B210D481AF027BE00BF99
:103A600038CF0434FCCE0434C0CE043484CE0434C5
:103A70004CCE043404CE0434BCCD043474CD0434B0
:103A80002CCD0434E4CC04349CCC0434CCCB0434AE
:103A9000A0CB043408B5124902201BF04FF811499D
:103AA00002201BF09BFA104900201BF097FA01221C
:103AB0000E4903201AF0DCFE01220D4900201AF005
:103AC000D7FE01220B4909201AF0D2FE05210A482F
:103AD0001AF072FEBDE80840062108481AF0E6BD5B
:103AE000FCCA0434C4CA04348CCA043444CA04343E
:103AF000FCC90434B4C9043464C904344CC9043462
:103B000008B5104901201BF019F80F4903201BF0DC
:103B100065FA01220D4900201AF0AAFE01220C4983
:103B200003201AF0A5FE01220A4908201AF0A0FE7F
:103B3000042109481AF040FEBDE808400521074865
:103B40001AF0B4BDBCC8043484C804343CC804347E
:103B5000F4C70434ACC704346CC7043458C7043405
:103B600008B5124900201AF0E9FF114900201BF0A6
:103B700035FA104901201BF031FA01220E490520C7
:103B80001AF076FE01220D4904201AF071FE01227E
:103B90000B4910461AF06CFE05210A481AF00CFE7B
:103BA000BDE80840062108481AF080BDB4C60434B8
:103BB0007CC6043444C60434FCC50434B4C504349F
:103BC0006CC504341CC5043404C5043408B510495C
:103BD00003201AF0B3FF0F4902201BF0FFF9012266
:103BE0000D4905201AF044FE01220C4906201AF066
:103BF0003FFE01220A4904201AF03AFE0421094836
:103C00001AF0DAFDBDE80840052107481AF04EBD5C
:103C100074C404343CC40434F4C30434ACC3043466
:103C200064C3043424C3043410C3043408B51749EE
:103C300001201AF083FF164902201AF07FFF154970
:103C400001201BF0CBF90122134910461AF010FE97
:103C50000122124905201AF00BFE01221049002012
:103C60001AF006FE01220F4909201AF001FE072171
:103C70000D481AF0A1FD0D490D48FEF7F7FEBDE80D
:103C8000084007210B481AF011BD00BFB8C004342A
:103C90007CC0043444C00434FCBF0434B4BF0434D6
:103CA0006CBF043424BF0434B4BE043400602E342A
:103CB00000002E3498BE043408B5104900201AF0D4
:103CC0003DFF0F4900201BF089F901220D49052015
:103CD0001AF0CEFD01220C4906201AF0C9FD01227E
:103CE0000A4903201AF0C4FD042109481AF064FDB2
:103CF000BDE80840052107481AF0D8BC08BE0434C6
:103D0000D0BD043488BD043440BD0434F8BC043450
:103D1000B8BC0434A4BC043408B5204901201AF00E
:103D20000DFF1F4902201AF009FF1E4903201AF057
:103D300005FF1D4900201AF001FF1C4903201BF05C
:103D40004DF901221A4904201AF092FD0122194965
:103D500007201AF08DFD0122174902201AF088FD74
:103D60000122164909201AF083FD0122144903207B
:103D70001AF07EFD0122134905201AF079FD0D216C
:103D800011481AF019FD11491148FEF76FFEBDE800
:103D900008400B210F481AF089BC00BFDCB904347D
:103DA000A0B9043464B9043428B90434F0B8043434
:103DB000A8B8043460B8043418B80434D0B7043454
:103DC00088B7043440B7043470B6043400A03434E7
:103DD0000080343444B6043408B5104900201AF089
:103DE000ADFE0F4901201BF0F9F801220D49052015
:103DF0001AF03EFD01220C4909201AF039FD01227A
:103E00000A4903201AF034FD042109481AF0D4FCB1
:103E1000BDE80840052107481AF048BCB4B5043491
:103E20007CB5043434B50434ECB40434A4B40434A0
:103E300064B4043450B4043408B5254900201AF0A1
:103E40007DFE244901201AF079FE234902201AF050
:103E500075FE224903201AF071FE214902201BF051
:103E6000BDF801221F4900201AF002FD01221E495F
:103E700008201AF0FDFC01221C4910461AF0F8FC3B
:103E800001221B4904201AF0F3FC012219490620E3
:103E90001AF0EEFC0122184905201AF0E9FC012273
:103EA000164902201AF0E4FC0122154903201AF0F9
:103EB000DFFC0F2113481AF07FFC13491348FEF76B
:103EC000D5FDBDE808400D2111481AF0EFBB00BF39
:103ED00060B1043424B10434E8B00434ACB0043428
:103EE00074B004342CB00434E4AF04349CAF043414
:103EF00054AF04340CAF0434C4AE04347CAE043488
:103F000034AE043444AD043400503434004034340E
:103F100010AD043408B52C4900201AF00FFE2B49CF
:103F200001201AF00BFE2A4902201AF007FE294947
:103F300003201AF003FE284900201BF04FF8274900
:103F400001201BF04BF8264903201BF047F8012203
:103F5000244902201AF08CFC0122234905201AF082
:103F600087FC0122214903201AF082FC012220490A
:103F700004201AF07DFC01221E4910461AF078FC3C
:103F800001221D4900201AF073FC01221B49062062
:103F90001AF06EFC01221A4909201AF069FC01226C
:103FA000184907201AF064FC0122174908201AF06A
:103FB0005FFC132115481AF0FFFBBDE808401121F2
:103FC00013481AF073BB00BF60AB043424AB043455
:103FD000E8AA0434ACAA043474AA04343CAA043415
:103FE00004AA0434BCA9043474A904342CA90434EC
:103FF000E4A804349CA8043454A804340CA8043461
:10400000C4A704347CA7043434A7043404A60434BD
:10401000C0A5043408B5234901201AF08FFD2249B8
:1040200002201AF08BFD214903201AF087FD204958
:1040300000201AF083FD1F4902201AF0CFFF012251
:104040001D4904201AF014FC01221C4910461AF0E4
:104050000FFC01221A4909201AF00AFC0122194911
:1040600000201AF005FC0122174906201AF000FC76
:104070000122164907201AF0FBFB012214490820EF
:104080001AF0F6FB0122134905201AF0F1FB0F216B
:1040900011481AF091FBBDE808400D210F481AF0B5
:1040A00005BB00BF60A4043424A40434E8A3043492
:1040B000ACA3043474A304342CA30434E4A2043465
:1040C0009CA2043454A204340CA20434C4A10434C9
:1040D0007CA1043434A1043444A0043410A004347A
:1040E00008B5194900201AF029FD184903201AF0D3
:1040F00075FF174900201AF071FF164901201AF0C8
:104100006DFF0122144906201AF0B2FB0122134967
:1041100005201AF0ADFB0122114903201AF0A8FB7B
:104120000122104902201AF0A3FB01220E490720A8
:104130001AF09EFB08210D481AF03EFBBDE808402E
:1041400009210B481AF0B2BA309F0434F89E0434A7
:10415000C09E0434889E0434409E0434F89D043488
:10416000B09D0434689D0434209D0434A09C043424
:104170007C9C043408B52C4900201AF0DFFC2B4944
:1041800001201AF0DBFC2A4902201AF0D7FC294949
:1041900003201AF0D3FC284901201AF01FFF2749F9
:1041A00002201AF01BFF264900201AF017FF0122F7
:1041B000244908201AF05CFB0122234910461AF01A
:1041C00057FB0122214909201AF052FB0122204904
:1041D00005201AF04DFB01221E4906201AF048FB6B
:1041E00001221D4900201AF043FB01221B49022035
:1041F0001AF03EFB01221A4903201AF039FB012272
:10420000184904201AF034FB0122174907201AF03C
:104210002FFB132115481AF0CFFABDE808401121F1
:1042200013481AF043BA00BFCC9A0434909A04346D
:10423000549A0434189A0434E0990434A899043444
:104240007099043428990434E0980434989804341C
:104250005098043408980434C09704347897043490
:1042600030970434E8960434A096043470950434EE
:104270002C95043408B5274901201AF05FFC264923
:1042800002201AF05BFC254903201AF057FC244950
:1042900000201AF053FC234903201AF09FFE224904
:1042A00000201AF09BFE0122204906201AF0E0FAB5
:1042B00001221F4907201AF0DBFA01221D4910468E
:1042C0001AF0D6FA01221C4903201AF0D1FA012271
:1042D0001A4904201AF0CCFA0122194908201AF0D0
:1042E000C7FA0122174909201AF0C2FA0122164919
:1042F00000201AF0BDFA0122144902201AF0B8FA7F
:10430000112113481AF058FABDE808400F2111484E
:104310001AF0CCB9A4930434689304342C93043475
:10432000F0920434B8920434809204343892043405
:10433000F0910434A8910434609104341891043449
:10434000D09004348890043440900434F88F0434BE
:10435000E88E0434AC8E043408B5194900201AF0F4
:10436000EDFB184902201AF039FE174900201AF017
:1043700035FE164901201AF031FE012214490720AA
:104380001AF076FA0122134908201AF071FA012274
:10439000114903201AF06CFA0122104900201AF08A
:1043A00067FA01220E4905201AF062FA08210D4829
:1043B0001AF002FABDE8084009210B481AF076B954
:1043C000CC8D0434948D04345C8D0434248D0434F9
:1043D000DC8C0434948C04344C8C0434048C04340D
:1043E000BC8B04343C8B0434188B043408B52C4942
:1043F00000201AF0A3FB2B4901201AF09FFB2A4949
:1044000002201AF09BFB294903201AF097FB284948
:1044100001201AF0E3FD274903201AF0DFFD2649A9
:1044200000201AF0DBFD0122244900201AF020FAB6
:104430000122234910461AF01BFA012221490520C6
:104440001AF016FA0122204906201AF011FA012268
:104450001E4908201AF00CFA01221D4907201AF003
:1044600007FA01221B4902201AF002FA01221A4916
:1044700004201AF0FDF90122184909201AF0F8F970
:104480000122174903201AF0F3F9132115481AF0F5
:1044900093F9BDE80840112113481AF007B900BF8D
:1044A000688904342C890434F0880434B4880434D2
:1044B0007C880434448804340C880434C48704346D
:1044C0007C87043434870434EC860434A4860434B2
:1044D0005C86043414860434CC8504348485043426
:1044E0003C8504340C840434C883043408B527495B
:1044F00001201AF023FB264902201AF01FFB254950
:1045000003201AF01BFB244900201AF017FB234953
:1045100002201AF063FD224900201AF05FFD0122FB
:10452000204902201AF0A4F901221F4907201AF09D
:104530009FF901221D4904201AF09AF901221C4911
:1045400009201AF095F901221A4906201AF090F96B
:104550000122194910461AF08BF90122174900204F
:104560001AF086F90122164908201AF081F9012271
:10457000144903201AF07CF9112113481AF01CF990
:10458000BDE808400F2111481AF090B84082043469
:1045900004820434C88104348C810434548104348A
:1045A0001C810434D48004348C800434448004346A
:1045B000FC7F0434B47F04346C7F0434247F0434DF
:1045C000DC7E0434947E0434847D0434487D0434D9
:1045D00008B5194900201AF0B1FA184903201AF059
:1045E000FDFC174900201AF0F9FC164901201AF0C9
:1045F000F5FC0122144909201AF03AF90122134965
:1046000006201AF035F90122114903201AF030F979
:104610000122104904201AF02BF901220E4905202D
:104620001AF026F908210D481AF0C6F8BDE808402E
:1046300009210B481AF03AB8687C0434307C043401
:10464000F87B0434C07B0434787B0434307B04343E
:10465000E87A0434A07A0434587A0434D8790434DB
:10466000B479043408B52C4900201AF067FA2B49B4
:1046700001201AF063FA2A4902201AF05FFA294948
:1046800003201AF05BFA284900201AF0A7FC2749FA
:1046900001201AF0A3FC264902201AF09FFC0122F7
:1046A000244900201AF0E4F80122234908201AF0D6
:1046B000DFF80122214910461AF0DAF801222049D8
:1046C00004201AF0D5F801221E4902201AF0D0F871
:1046D00001221D4906201AF0CBF801221B490920AE
:1046E0001AF0C6F801221A4907201AF0C1F801226F
:1046F000184905201AF0BCF80122174903201AF0C6
:10470000B7F8132115481AF057F8BDE808401121F1
:10471000134819F0CBBF00BF04780434C8770434C1
:104720008C7704345077043418770434E0760434FA
:10473000A87604346076043418760434D0750434D2
:104740008875043440750434F8740434B074043447
:104750006874043420740434D8730434A8720434A4
:104760006472043408B51E4901201AF0E7F91D49A6
:1047700002201AF0E3F91C4903201AF0DFF91B4963
:1047800003201AF02BFC0122194906201AF070F8B8
:104790000122184907201AF06BF80122164905205A
:1047A0001AF066F80122154900201AF061F801227A
:1047B000134902201AF05CF80122124903201AF072
:1047C00057F80122104909201AF052F80C210F481D
:1047D00019F0F2FFBDE808400B210D4819F066BF43
:1047E0003C71043400710434C47004348C7004349B
:1047F00044700434FC6F0434B46F04346C6F0434BC
:10480000246F0434DC6E0434946E0434D46D0434A8
:10481000A86D043408B5194900201AF08FF9184919
:1048200002201AF0DBFB174900201AF0D7FB1649CB
:1048300001201AF0D3FB0122144905201AF018F8C0
:104840000122134902201AF013F801221149042011
:104850001AF00EF80122104900201AF009F801227E
:104860000E4910461AF004F808210D4819F0A4FF6B
:10487000BDE8084009210B4819F018BFC86C043482
:10488000906C0434586C0434206C0434D86B0434B9
:10489000906B0434486B0434006B0434B86A0434FD
:1048A000386A0434146A043408B5274900201AF021
:1048B00045F9264901201AF041F9254902201AF04C
:1048C0003DF9244903201AF039F9234901201AF04F
:1048D00085FB224903201AF081FB214900201AF0B0
:1048E0007DFB01221F49092019F0C2FF01221E4948
:1048F000052019F0BDFF01221C49042019F0B8FF62
:1049000001221B49104619F0B3FF0122194900206A
:1049100019F0AEFF01221849062019F0A9FF012263
:104920001649072019F0A4FF01221549022019F0A9
:104930009FFF1121134819F03FFFBDE808400F21E8
:10494000114819F0B3BE00BF8C68043450680434B9
:1049500014680434D8670434A067043468670434E6
:1049600030670434E8660434A066043458660434BE
:1049700010660434C8650434806504343865043432
:10498000F0640434E0630434A463043408B52349B8
:1049900001201AF0D3F8224902201AF0CFF8214959
:1049A00003201AF0CBF8204902201AF017FB1F4908
:1049B00000201AF013FB01221D49042019F058FFB2
:1049C00001221C49062019F053FF01221A49082030
:1049D00019F04EFF01221949032019F049FF012265
:1049E0001749072019F044FF01221649092019F040
:1049F0003FFF01221449002019F03AFF0122134918
:104A0000052019F035FF0E21114819F0D5FEBDE83B
:104A100008400D210F4819F049BE00BF546204340C
:104A200018620434DC610434A46104346C6104341D
:104A300024610434DC600434946004344C60043435
:104A400004600434BC5F0434745F04342C5F0434A9
:104A50004C5E0434185E043408B5194900201AF07D
:104A60006DF8184903201AF0B9FA174900201AF016
:104A7000B5FA164901201AF0B1FA012214490820AA
:104A800019F0F6FE01221349052019F0F1FE01226A
:104A90001149072019F0ECFE01221049104619F0C7
:104AA000E7FE01220E49042019F0E2FE08210D481C
:104AB00019F082FEBDE8084009210B4819F0F6BD47
:104AC000385D0434005D0434C85C0434905C043404
:104AD000485C0434005C0434B85B0434705B043418
:104AE000285B0434A85A0434845A043408B527498E
:104AF00000201AF023F8264901201AF01FF8254952
:104B000002201AF01BF8244903201AF017F8234951
:104B100001201AF063FA224902201AF05FFA2149B3
:104B200000201AF05BFA01221F49052019F0A0FEAF
:104B300001221E49022019F09BFE01221C49072078
:104B400019F096FE01221B49062019F091FE012260
:104B50001949082019F08CFE01221849032019F088
:104B600087FE01221649042019F082FE0122154910
:104B7000104619F07DFE1121134819F01DFEBDE805
:104B800008400F21114819F091BD00BFFC580434B2
:104B9000C058043484580434485804341058043439
:104BA000D8570434A05704345857043410570434E9
:104BB000C85604348056043438560434F05504344E
:104BC000A855043460550434505404341454043447
:104BD00008B52349012019F0B1FF2249022019F03C
:104BE000ADFF2149032019F0A9FF204903201AF045
:104BF000F5F91F4900201AF0F1F901221D4906209C
:104C000019F036FE01221C49082019F031FE01225C
:104C10001A49052019F02CFE01221949104619F0F5
:104C200027FE01221749002019F022FE0122164911
:104C3000072019F01DFE01221449042019F018FE66
:104C400001221349092019F013FE0E21114819F011
:104C5000B3FDBDE808400D210F4819F027BD00BF86
:104C6000C4520434885204344C5204341452043470
:104C7000DC510434945104344C5104340451043450
:104C8000BC500434745004342C500434E44F0434C5
:104C90009C4F0434BC4E0434884E043408B5194982
:104CA000002019F04BFF184901201AF097F9174915
:104CB00000201AF093F9164902201AF08FF9012208
:104CC0001449072019F0D4FD01221349062019F0D8
:104CD000CFFD01221149092019F0CAFD0122104916
:104CE000022019F0C5FD01220E49002019F0C0FD77
:104CF00008210D4819F060FDBDE8084009210B4866
:104D000019F0D4BCA84D0434704D0434384D04342B
:104D1000004D0434B84C0434704C0434284C043432
:104D2000E04B0434984B0434184B0434F44A0434F4
:104D300008B52749002019F001FF2649012019F084
:104D4000FDFE2549022019F0F9FE2449032019F03F
:104D5000F5FE234902201AF041F9224900201AF0F9
:104D60003DF9214903201AF039F901221F49072092
:104D700019F07EFD01221E49042019F079FD01225F
:104D80001C49052019F074FD01221B49062019F069
:104D90006FFD01221949002019F06AFD012218490E
:104DA000104619F065FD01221649022019F060FD38
:104DB00001221549082019F05BFD1121134819F053
:104DC000FBFCBDE808400F21114819F06FBC00BF83
:104DD0006C49043430490434F4480434B848043489
:104DE000804804344848043410480434C847043424
:104DF0008047043438470434F0460434A846043469
:104E00006046043418460434D0450434C0440434A5
:104E10008444043408B51949012019F08FFE18495B
:104E2000022019F08BFE1749032019F087FE16495E
:104E300001201AF0D3F801221449002019F018FDBE
:104E400001221349062019F013FD01221149022005
:104E500019F00EFD01221049052019F009FD01226B
:104E60000E49082019F004FD0A210D4819F0A4FC90
:104E7000BDE8084009210B4819F018BC84430434EC
:104E8000484304340C430434D44204348C42043484
:104E900044420434FC410434B44104346C410434CD
:104EA000CC400434A840043408B51249002019F05D
:104EB00045FE114903201AF091F8104900201AF01C
:104EC0008DF801220E49072019F0D2FC01220D496C
:104ED000082019F0CDFC01220B49042019F0C8FC70
:104EE00005210A4819F068FCBDE808400621084879
:104EF00019F0DCBB04400434CC3F0434943F043448
:104F00004C3F0434043F0434BC3E04346C3E04344F
:104F1000543E043408B52749002019F00FFE2649F5
:104F2000012019F00BFE2549022019F007FE244943
:104F3000032019F003FE234901201AF04FF82249FB
:104F400002201AF04BF8214900201AF047F80122FC
:104F50001F49082019F08CFC01221E49002019F07D
:104F600087FC01221C49092019F082FC01221B49FF
:104F7000032019F07DFC01221949062019F078FC64
:104F800001221849104619F073FC01221649072026
:104F900019F06EFC01221549052019F069FC102159
:104FA000134819F009FCBDE808400F21114819F019
:104FB0007DBB00BFDC3C0434A03C0434643C0434BE
:104FC000283C0434F03B0434B83B0434803B0434C4
:104FD000383B0434F03A0434A83A0434603A0434D8
:104FE000183A0434D039043488390434403904344C
:104FF000403804340438043408B51C49002019F042
:105000009DFD1B49012019F099FD1A49022019F054
:1050100095FD1949032019F091FD0122174904203B
:1050200019F026FC01221649032019F021FC012267
:105030001449002019F01CFC01221349022019F028
:1050400017FC01221149104619F012FC01221049E7
:10505000062019F00DFC0C210E4819F0ADFBBDE83F
:1050600008400A210C4819F021BB00BFE036043487
:10507000A4360434683604342C360434E43504345D
:105080009C350434543504340C350434C4340434AD
:105090007C340434BC3304349433043408B51E49DE
:1050A000012019F04BFD1D49022019F047FD1C4954
:1050B000032019F043FD1B49002019F08FFF1A4906
:1050C000032019F08BFF01221849072019F0D0FBAB
:1050D00001221749092019F0CBFB012215490220B2
:1050E00019F0C6FB01221449042019F0C1FB01226A
:1050F0001249082019F0BCFB01221149052019F0C2
:10510000B7FB0C210F4819F057FBBDE808400B21F5
:105110000D4819F0CBBA00BF6C320434303204347D
:10512000F4310434BC310434843104343C3104346B
:10513000F4300434AC300434643004341C300434AF
:10514000D42F0434142F0434E82E043408B5124943
:10515000002019F0F3FC1149012019F03FFF10491C
:10516000022019F03BFF01220E49052019F080FBB7
:1051700001220D49042019F07BFB01220B4902207A
:1051800019F076FB05210A4819F016FBBDE8084026
:105190000621084819F08ABA442E04340C2E04342F
:1051A000D42D04348C2D0434442D0434FC2C0434CC
:1051B000AC2C0434942C043408B52049002019F098
:1051C000BDFC1F49012019F0B9FC1E49022019F04D
:1051D000B5FC1D49032019F0B1FC1C49002019F051
:1051E000FDFE1B49032019F0F9FE01221949022096
:1051F00019F03EFB01221849092019F039FB012260
:105200001649082019F034FB01221549002019F035
:105210002FFB01221349104619F02AFB01221249E3
:10522000062019F025FB0E21104819F0C5FABDE83B
:1052300008400C210E4819F039BA00BF482B04343D
:105240000C2B0434D02A0434942A04345C2A043409
:10525000242A0434DC290434942904344C290434E9
:1052600004290434BC2804347428043494270434F6
:105270006427043408B51E49012019F05FFC1D495C
:10528000022019F05BFC1C49032019F057FC1B4954
:10529000012019F0A3FE1A49022019F09FFE0122F5
:1052A0001849032019F0E4FA01221749052019F0E2
:1052B000DFFA01221549022019F0DAFA0122144915
:1052C000082019F0D5FA01221249062019F0D0FA67
:1052D00001221149092019F0CBFA0C210F4819F0CD
:1052E0006BFABDE808400B210D4819F0DFB900BF8B
:1052F0003C26043400260434C42504348C250434AC
:10530000542504340C250434C42404347C2404348B
:1053100034240434EC230434A4230434E422043479
:10532000B822043408B51249002019F007FC1149CD
:10533000002019F053FE1049032019F04FFE0122FE
:105340000E49082019F094FA01220D49042019F0A1
:105350008FFA01220B49022019F08AFA05210A4826
:1053600019F02AFABDE808400621084819F09EB94C
:1053700014220434DC210434A42104345C210434D8
:1053800014210434CC2004347C20043464200434FC
:1053900008B52049002019F0D1FB1F49012019F060
:1053A000CDFB1E49022019F0C9FB1D49032019F04D
:1053B000C5FB1C49012019F011FE1B49022019F000
:1053C0000DFE01221949072019F052FA012218494D
:1053D000022019F04DFA01221649092019F048FA65
:1053E00001221549002019F043FA0122134908202F
:1053F00019F03EFA01221249042019F039FA0E215F
:10540000104819F0D9F9BDE808400C210E4819F0F0
:105410004DB900BF181F0434DC1E0434A01E043430
:10542000641E04342C1E0434F41D0434AC1D0434F6
:10543000641D04341C1D0434D41C04348C1C04343A
:10544000441C0434641B0434341B043408B51E4962
:10545000012019F073FB1D49022019F06FFB1C4954
:10546000032019F06BFB1B49002019F0B7FD1A4906
:10547000032019F0B3FD01221849092019F0F8F9A9
:1054800001221749072019F0F3F9012215490020DC
:1054900019F0EEF901221449022019F0E9F901226C
:1054A0001249082019F0E4F901221149052019F0E8
:1054B000DFF90C210F4819F07FF9BDE808400B21F6
:1054C0000D4819F0F3B800BF0C1A0434D019043495
:1054D000941904345C19043424190434DC18043499
:1054E000941804344C18043404180434BC170434DD
:1054F00074170434B41604348816043408B51249F9
:10550000002019F01BFB1149022019F067FD10491A
:10551000012019F063FD01220E49062019F0A8F9B7
:1055200001220D49042019F0A3F901220B490020A2
:1055300019F09EF905210A4819F03EF9BDE8084026
:105540000621084819F0B2B8E4150434AC15043447
:10555000741504342C150434E41404349C140434F9
:105560004C1404343414043408B52049032019F0D1
:10557000E5FA1F49002019F0E1FA1E49012019F04F
:10558000DDFA1D49022019F0D9FA1C49032019F04F
:1055900025FD1B49002019F021FD01221949022097
:1055A00019F066F901221849032019F061F9012266
:1055B0001649104619F05CF901221549042019F02A
:1055C00057F901221349002019F052F9012212491A
:1055D000052019F04DF90E21104819F0EDF8BDE83D
:1055E00008400C210E4819F061B800BFE8120434DD
:1055F000AC1204347012043434120434FC11043438
:10560000C41104347C11043434110434EC10043417
:10561000A41004345C10043414100434340F043423
:10562000040F043408B51549012019F087FA14490C
:10563000022019F083FA1349012019F0CFFC01224E
:105640001149072019F014F901221049052019F019
:105650000FF901220E49032019F00AF901220D4920
:10566000022019F005F907210B4819F0A5F8BDE84B
:1056700008400721094819F019B800BF3C0E04344E
:10568000000E0434C80D0434800D0434380D043485
:10569000F00C0434A80C0434380C04341C0C04340E
:1056A00008B51249002019F049FA1149022019F0F1
:1056B00095FC1049002019F091FC01220E490020B0
:1056C00019F0D6F801220D49092019F0D1F801226C
:1056D0000B49062019F0CCF805210A4819F06CF89E
:1056E000BDE808400621084818F0E0BF780B0434F4
:1056F000400B0434080B0434C00A0434780A043420
:10570000300A0434E0090434C809043408B52749D0
:10571000022019F013FA2649002019F00FFA254942
:10572000012019F00BFA2449032019F007FA234944
:10573000012019F053FC2249032019F04FFC2149A4
:10574000002019F04BFC01221F49062019F090F8A7
:1057500001221E49092019F08BF801221C4905205D
:1057600019F086F801221B49032019F081F8012263
:105770001949082019F07CF801221849002019F075
:1057800077F801221649104619F072F801221549DE
:10579000042019F06DF80F21134819F00DF8BDE839
:1057A00008400F21114818F081BF00BF6008043481
:1057B00024080434E8070434AC07043474070434C0
:1057C0003C07043404070434BC060434740604346F
:1057D0002C060434E40504349C05043454050434D4
:1057E0000C050434C4040434D4030434980304348E
:1057F00008B51949032019F0A1F91849012019F039
:105800009DF91749002019F0E9FB1649022019F00B
:10581000E5FB01221449052019F02AF80122134959
:10582000104619F025F801221149032019F020F83B
:1058300001221049002019F01BF801220E49062010
:1058400019F016F809210D4818F0B6FFBDE8084018
:1058500009210B4818F02ABFA80204346C02043452
:1058600034020434FC010434B40104346C01043403
:1058700024010434DC0004349400043404000434AF
:10588000E0FF033408B51249002019F057F9114917
:10589000012019F0A3FB1049032019F09FFB0122FE
:1058A0000E49072018F0E4FF01220D49022018F0EC
:1058B000DFFF01220B49042018F0DAFF05210A4816
:1058C00018F07AFFBDE808400621084818F0EEBE3F
:1058D0003CFF033404FF0334CCFE033484FE033462
:1058E0003CFE0334F4FD0334A4FD03348CFD033487
:1058F00008B51749012019F021F91649022019F0BD
:105900001DF91549002019F069FB1449022019F00E
:1059100065FB01221249042018F0AAFF0122114957
:10592000082018F0A5FF01220F49002018F0A0FF61
:1059300001220E49052018F09BFF08210C4818F0A1
:105940003BFFBDE8084008210A4818F0AFBE00BF81
:10595000B0FC033474FC03343CFC033404FC033417
:10596000BCFB033474FB03342CFB0334E4FA033430
:1059700064FA033444FA033408B51949032019F0D2
:10598000DDF81849002019F0D9F81749012019F05D
:1059900025FB1649032019F021FB01221449082098
:1059A00018F066FF01221349092018F061FF012257
:1059B0001149022018F05CFF01221049032018F061
:1059C00057FF01220E49062018F052FF09210D4809
:1059D00018F0F2FEBDE8084009210B4818F066BE39
:1059E00054F9033418F90334E0F80334A8F8033405
:1059F00060F8033418F80334D0F7033488F703341D
:105A000040F70334B0F603348CF6033408B512497A
:105A1000022019F093F81149022019F0DFFA104919
:105A2000002019F0DBFA01220E49002018F020FFB7
:105A300001220D49062018F01BFF01220B49082006
:105A400018F016FF05210A4818F0B6FEBDE8084018
:105A50000621084818F02ABEE8F50334B0F50334EF
:105A600078F5033430F50334E8F40334A0F4033458
:105A700050F4033438F4033408B51749012019F001
:105A80005DF81649002019F059F81549032019F05E
:105A9000A5FA1449012019F0A1FA012212490520A2
:105AA00018F0E6FE01221149042018F0E1FE01225F
:105AB0000F49092018F0DCFE01220E49032018F0DE
:105AC000D7FE08210C4818F077FEBDE808400821F1
:105AD0000A4818F0EBBD00BF5CF3033420F3033435
:105AE000E8F20334B0F2033468F2033420F20334F2
:105AF000D8F1033490F1033410F10334F0F003349F
:105B000008B51549022019F019F81449032019F0B5
:105B100015F81349002019F061FA012211490020FB
:105B200018F0A6FE01221049082018F0A1FE01225B
:105B30000E49062018F09CFE01220D49032018F0A2
:105B400097FE07210B4818F037FEBDE808400721F3
:105B5000094818F0ABBD00BF28F00334ECEF033464
:105B6000B4EF03346CEF033424EF0334DCEE03347E
:105B700094EE033424EE033408EE033408B51249DE
:105B8000002018F0DBFF1149012019F027FA104915
:105B9000022019F023FA01220E49052018F068FEB0
:105BA00001220D49002018F063FE01220B4902205A
:105BB00018F05EFE05210A4818F0FEFDBDE8084019
:105BC0000621084818F072BD64ED03342CED03344F
:105BD000F4EC0334ACEC033464EC03341CEC033419
:105BE000CCEB0334B4EB033408B51249012018F0B0
:105BF000A5FF1149032019F0F1F91049002019F00F
:105C0000EDF901220E49092018F032FE01220D495A
:105C1000032018F02DFE01220B49022018F028FE67
:105C200005210A4818F0C8FDBDE8084006210848CB
:105C300018F03CBD10EB0334D8EA0334A0EA033477
:105C400058EA033410EA0334C8E9033478E903342A
:105C500060E9033408B52249022018F06FFF21499A
:105C6000032018F06BFF2049012019F0B7F91F49F4
:105C7000022019F0B3F91E49002018F05FFF1D49FA
:105C8000002019F0ABF901221B49002018F0F0FDAB
:105C900001221A49092018F0EBFD012218490520BC
:105CA00018F0E6FD01221749104618F0E1FD012227
:105CB0001549022018F0DCFD01221449032018F0D8
