:0200000470107A
:1000000053544D32000000000000000000000000CA
:1000100000000000000000000000000000000000E0
:1000200000000000000000000000000000000000D0
:1000300000000000000000000000000000000000C0
:1000400000000000000000000000000000000000B0
:1000500000000000000000000000000000000000A0
:1000600000000000D654080300030200800C0800C2
:100070007D11023400000000FFFFFFFF00000000C0
:100080000000000000000080A0010000000000004F
:100090000000000000000000000000000000000060
:1000A0005354FFFFA0010000E59C0D983686D956F9
:1000B00002E31A4FDB12D9A47A8A528A2D87429C16
:1000C00099667444F10DE001BD71B02E154C67784E
:1000D0008C58A61C1C04BA9E36206DB0DA5CAFEFBB
:1000E000D0E83C27491DC9AED11F4E7CCB529CD8CD
:1000F00041036D9100ECA7C2C17750F2E825EFEE05
:100100004B244B8034DF7F4A4F0716912EA54E12A9
:10011000F664A99B8422D524569E372FE88C99ED4E
:10012000F6337A3916FF8EBFDF645813497BA70573
:10013000B4B1F8303D356CCF268CE623AE0CF49884
:10014000A5953B10A8568E8C0F7F268BE23120DFC1
:10015000B0B206A724BDD4E9E809BFE95507326566
:10016000142FDFCEC6AFFF2A83A88D4079BDB8DA41
:100170007F4CAEF157A0F869F6761EDB06034E42BF
:10018000259AD0CEB3C7242989EFC1A7805115691C
:10019000B73795522FA39EBD29B59C650BD2CA0FC8
:1001A0009C44E228121E8E4309685BFA87879AD125
:1001B00052D8F047F55F015B67759B491B3F50CAFA
:1001C0006776CD1A9889390D00D6D3F1B25DA55E58
:1001D000181BBF65F9D05896852E65AF65A754E703
:1001E000E77528757562D48F8DA8C894EF92682042
:1001F00098A5A4850E0E3AFB9E6FB06C13E60367BC
:10020000D99A3D50F1E977538D91F5D4D5346617DD
:10021000824A44CD0050EA417B2747034FF1CF7D0E
:10022000358B801A49A4CF8857E4E5E490A7906401
:10023000B1131A5AE79D1CFF5C242D015CC6BE4E0B
:1002400000000000000000000000000000000000AE
:10025000000000000000000000000000000000009E
:10026000000000000000000000000000000000008E
:10027000000000000000000000000000000000007E
:10028000000000000000000000000000000000006E
:10029000000000000000000000000000000000005E
:1002A000000000000000000000000000000000004E
:1002B000000000000000000000000000000000003E
:1002C000000000000000000000000000000000002E
:1002D000000000000000000000000000000000001E
:1002E000000000000000000000000000000000000E
:1002F00000000000000000000000000000000000FE
:1003000000000000000000000000000000000000ED
:1003100000000000000000000000000000000000DD
:1003200000000000000000000000000000000000CD
:1003300000000000000000000000000000000000BD
:1003400000000000000000000000000000000000AD
:10035000000000000000000000000000000000009D
:10036000000000000000000000000000000000008D
:10037000000000000000000000000000000000007D
:10038000000000000000000000000000000000006D
:10039000000000000000000000000000000000005D
:1003A000000000000000000000000000000000004D
:1003B000000000000000000000000000000000003D
:1003C000000000000000000000000000000000002D
:1003D000000000000000000000000000000000001D
:1003E000000000000000000000000000000000000D
:1003F00000000000000000000000000000000000FD
:10040000000010347D110234C1240034C5240034AE
:10041000D5240034E5240034F524003405250034C7
:10042000000000000000000000000000152500345E
:100430001725003400000000192500341B25003466
:10044000D911023400000000D9110234D91102344C
:10045000D9110234D9110234D9110234D91102341C
:10046000D911023400000000D9110234D91102342C
:10047000D9110234D91E0034D91102340000000011
:10048000D911023400000000D9110234D91102340C
:10049000D9110234D9110234D9110234D9110234DC
:1004A000D9110234D9110234D9110234D9110234CC
:1004B000D9110234D9110234D9110234D9110234BC
:1004C000D9110234D9110234D9110234D9110234AC
:1004D000D9110234D9110234D9110234D91102349C
:1004E000D911023400000000D9110234D9110234AC
:1004F000D9110234D9110234D91102341F25003424
:100500002D25003400000000000000000000000065
:10051000D911023415050234D9110234D91102342B
:10052000D9110234D9110234D9110234D91102344B
:10053000D9110234D9110234D9110234D91102343B
:10054000D9110234D9110234D9110234D91102342B
:10055000D9110234D9110234D9110234D91102341B
:1007400000000000D9110234D91102340000000069
:1007500010B5054C237833B9044B13B10448AFF3FB
:1007600000800123237010BDC00E0834000000007B
:10077000BC94023408B5034B1BB103490348AFF3E3
:10078000008008BD00000000C40E0834BC94023490
:10079000034613F8012B002AFBD1181A01387047C1
:1007A00081F0004102E000BF83F0004330B54FEA22
:1007B00041044FEA430594EA050F08BF90EA020F8F
:1007C0001FBF54EA000C55EA020C7FEA645C7FEA22
:1007D000655C00F0E2804FEA5454D4EB5555B8BF45
:1007E0006D420CDD2C4480EA020281EA030382EAB6
:1007F000000083EA010180EA020281EA0303362D48
:1008000088BF30BD11F0004F4FEA01314FF4801C1A
:100810004CEA113102D0404261EB410113F0004F2C
:100820004FEA03334CEA133302D0524263EB4303E3
:1008300094EA050F00F0A780A4F10104D5F1200E81
:100840000DDB02FA0EFC22FA05F2801841F10001DC
:1008500003FA0EF2801843FA05F359410EE0A5F1B0
:1008600020050EF1200E012A03FA0EFC28BF4CF0E1
:10087000020C43FA05F3C01851EBE37101F0004597
:1008800007D54FF0000EDCF1000C7EEB00006EEBA4
:100890000101B1F5801F1BD3B1F5001F0CD349082E
:1008A0005FEA30004FEA3C0C04F101044FEA445285
:1008B00012F5800F80F09A80BCF1004F08BF5FEA0C
:1008C000500C50F1000041EB045141EA050130BDEC
:1008D0005FEA4C0C404141EB0101013C28BFB1F5FE
:1008E000801FE9D291F0000F04BF01460020B1FA49
:1008F00081F308BF2033A3F10B03B3F120020CDA1C
:100900000C3208DD02F1140CC2F10C0201FA0CF0F9
:1009100021FA02F10CE002F11402D8BFC2F1200C5E
:1009200001FA02F120FA0CFCDCBF41EA0C01904014
:10093000E41AA2BF01EB0451294330BD6FEA04045D
:100940001F3C1CDA0C340EDC04F11404C4F1200248
:1009500020FA04F001FA02F340EA030021FA04F35A
:1009600045EA030130BDC4F10C04C4F1200220FAB1
:1009700002F001FA04F340EA0300294630BD21FAEF
:1009800004F0294630BD94F0000F83F4801306BFB5
:1009900081F480110134013D4EE77FEA645C18BFA9
:1009A0007FEA655C29D094EA050F08BF90EA020F40
:1009B00005D054EA000C04BF1946104630BD91EA38
:1009C000030F1EBF0021002030BD5FEA545C05D13B
:1009D0004000494128BF41F0004130BD14F580047A
:1009E0003CBF01F5801130BD01F0004545F0FE41EE
:1009F00041F470014FF0000030BD7FEA645C1ABF23
:100A0000194610467FEA655C1CBF0B46024650EA59
:100A1000013406BF52EA033591EA030F41F4002185
:100A200030BD00BF90F0000F04BF0021704730B50B
:100A30004FF4806404F132044FF000054FF00001E0
:100A400050E700BF90F0000F04BF0021704730B5A1
:100A50004FF4806404F1320410F0004548BF404276
:100A60004FF000013EE700BF42004FEAE2014FEACB
:100A700031014FEA02701FBF12F07F4393F07F4FA6
:100A800081F06051704732F07F4208BF704793F0A9
:100A90007F4F04BF41F40021704730B54FF46074BC
:100AA00001F0004521F000411CE700BF50EA0102BF
:100AB00008BF704730B54FF000050AE050EA010268
:100AC00008BF704730B511F0004502D5404261EBD8
:100AD00041014FF4806404F132045FEA915C3FF419
:100AE000D8AE4FF003025FEADC0C18BF03325FEAB6
:100AF000DC0C18BF033202EBDC02C2F1200300FA67
:100B000003FC20FA02F001FA03FE40EA0E0021FA8B
:100B100002F11444BDE600BF7BB972B90029BEBF23
:100B200000204FF0004106E008BF00281CBF6FF016
:100B300000414FF0FF3000F035BAADF1080C6DE91F
:100B400004CE002909DB002B1ADB00F085F8DDF864
:100B500004E0DDE9022304B07047404261EB41014B
:100B6000002B1BDB00F078F8DDF804E0DDE9022360
:100B700004B0404261EB4101524263EB43037047D2
:100B8000524263EB430300F067F8DDF804E0DDE96F
:100B9000022304B0404261EB41017047524263EBD3
:100BA000430300F059F8DDF804E0DDE9022304B066
:100BB000524263EB4303704753B94AB9002908BF57
:100BC00000281CBF4FF0FF314FF0FF3000F0EAB9B2
:100BD000ADF1080C6DE904CE00F03EF8DDF804E05C
:100BE000DDE9022304B07047024608B50B4643EC2A
:100BF000172BB5EEC07BF1EE10FA03D4BDE8084028
:100C000000F00AB8B1EE477B51EC170B00F004F886
:100C1000404261EB410108BD9FED0B6B41EC170BAE
:100C20009FED0B5B27EE066BBCEEC66BB8EE464B3A
:100C300016EE101AA4EE457BFCEEC77B17EE900A69
:100C4000704700BFAFF30080000000000000F03DDF
:100C5000000000000000F0412DE9F04F8C46099E95
:100C600004460F46002B48D18A4215465ED9B2FA97
:100C700082F33BB1C3F120029F409D409C4020FA8B
:100C800002F217434FEA154E1FFA85FC220CB7FB00
:100C9000FEF10EFB117701FB0CF042EA0742904295
:100CA00007D9AA1801F1FF3702D2904200F2588109
:100CB0003946121AA4B2B2FBFEF00EFB102200FB62
:100CC0000CFC44EA0244A4450BD92C1900F1FF3274
:100CD0002CBF01270027A44502D9002F00F0438133
:100CE000104640EA0140A4EB0C0400211EB1DC4098
:100CF0000023C6E90043BDE8F08F8B4206D90EB150
:100D0000C6E9000100210846BDE8F08FB3FA83F17F
:100D1000002951D16345C0F01681824240F213810F
:100D20000846002EE7D0C6E90047E4E7002A00F0B5
:100D3000AF80B2FA82F3002B40F0C2808A1A4FEAE9
:100D4000154EAFB20121200CB2FBFEFC0EFB1C22A3
:100D500040EA024207FB0CF090420ED9AA180CF1AF
:100D6000FF382CBF4FF001094FF00009904203D922
:100D7000B9F1000F00F0F080C446121AA4B2B2FB21
:100D8000FEF00EFB102200FB07F744EA0244A742E4
:100D90000ED92C1900F1FF322CBF4FF0010E4FF08D
:100DA000000EA74203D9BEF1000F00F0D28010461A
:100DB000E41B40EA0C4099E7C1F120058B400CFA96
:100DC00001F400FA01F922FA05F72CFA05FC8A4031
:100DD0001F4320FA05F3380C23431FFA87FE1C0C2F
:100DE000BCFBF0F800FB18CC44EA0C4408FB0EFCFA
:100DF000A4450ED93C1908F1FF3A2CBF4FF0010B66
:100E00004FF0000BA44503D9BBF1000F00F0B880F0
:100E1000D046A4EB0C041FFA83FCB4FBF0F300FBF8
:100E2000134403FB0EFE4CEA0444A6450ED93C19BC
:100E300003F1FF302CBF4FF0010C4FF0000CA64522
:100E400003D9BCF1000F00F09F80034643EA08403D
:100E5000A4EB0E04A0FB02EC64457346E04602D30B
:100E600007D1F14505D2BEEB02036CEB070C01384C
:100E7000E0465EB1B9EB030264EB080404FA05F541
:100E800022FA01F3CC401D43C6E90054002132E7A9
:100E900042082F464B08AC4642EAC172AE46C40730
:100EA000110C92B241EA034142EA0142B1FBF5F171
:100EB000B3FBF5F01F23A2EB0C0241EA004142E72D
:100EC0009D40C3F1200299409C402CFA02FC4FEA5D
:100ED000154E20FA02F2AFB2BCFBFEF80A430EFB3D
:100EE00018CC110C41EA0C4108FB07FC8C4550D989
:100EF000691808F1FF302CBF4FF001094FF00009CD
:100F00008C4502D9B9F1000F30D0A1EB0C01B1FB37
:100F1000FEF808FB07FC0EFB181192B242EA0142F0
:100F2000624534D2AA1808F1FF312CBF4FF00109F5
:100F30004FF000096245BED2B9F1000FBBD1A8F154
:100F400002012A44B7E7841A6CEB0302012017461A
:100F5000E7E62C4402382BE7ACF1020C2A440CE7FC
:100F600002392A44A5E62C440238BAE6A5EB0C0C5B
:100F7000A8F102006144B1FBFEF808FB07FCCAE7D8
:100F8000A8F102083C4444E7023B3C445EE741468A
:100F900091E7A1EB0C014046B1FBFEF808FB07FC12
:100FA000B9E700BF704700BF044B82B0C3F84C0ADA
:100FB000D3F84C320193019B02B070470080025677
:100FC000044B82B0C3F88C0AD3F88C320193019B96
:100FD00002B0704700800256044B82B0C3F8A00AEA
:100FE000D3F8A0320193019B02B0704700800256F3
:100FF000F0B5134C056822680E68AA42C8BF0260AB
:1010000063680F689F42A768B8BF0B603A440768DF
:10101000974224BF02F1FF320260E26813440A687B
:101020009A4224BF03F1FF330B600368AB4204D143
:101030000868801B18BF0120F0BD0120FCE700BF3D
:10104000C8DC07340A4BD3ED027AF8EE677A67EE14
:10105000807AFDEEE77AC0ED007AD3ED037AF8EE00
:10106000677A67EEA07AFDEEE77AC1ED007A704705
:10107000C8DC07340E4BD3ED027AB8EE677AD3EDB5
:10108000007AF8EE677AE7EE007AFDEEE77AC0EDD7
:10109000007AD3ED037AB8EE677AD3ED017AF8EEF1
:1010A000677AE7EE207AFDEEE77AC1ED007A7047C5
:1010B000C8DC073470B5ADF51A7D402200216846C2
:1010C00020F044FF9822002110A820F03FFF4FF4A9
:1010D000C872002136A820F039FF012012F0DCFC94
:1010E0000125002319227D210226CDE91D32CDE9FB
:1010F00025150822E121CDE91A63CDE92163CDE967
:101100002323CDE92932CDE92B31CDE92F63CDE978
:1011100031231093062310A8CDE91F55CDE927569A
:10112000CDE92D56CDE934331C9633910CF028F9D6
:1011300000B1FEE74FF440337F22CDE900234FF0AA
:10114000407302934FF08053CDE90C354FF00053BC
:10115000CDE90E354FF48013CDE90805CDE90A0637
:10116000CDE90330CDE90500079068460CF002FD9B
:1011700000B1FEE7084B002261934FF44003CDE934
:101180003623064B36A862930DF06EF800B1FEE7E9
:101190000DF51A7D70BD00BF140000031404000398
:1011A0007FB5CDE9041004A905A8CDE90232FFF707
:1011B0001FFF02A903A8FFF71BFFDDE90410089B2E
:1011C0000093DDE902321DF047F907B000BD0000D1
:1011D0002DE9F04F2DED048B474AE7B0136843F437
:1011E00000531360454B1A6A22F440321A621A6A9D
:1011F00022F040721A6206F0B9FC414B5A6912F4AF
:10120000003211D1BFF34F8FBFF36F8FC3F850225D
:10121000BFF34F8FBFF36F8F5A6942F400325A61A8
:10122000BFF34F8FBFF36F8F334A136843F480537C
:101230001360A2F57342536913F4803328D1C2F8C6
:101240008430BFF34F8F43F6E074D2F88030C3F39D
:10125000C900C3F34E335B0100F1010E01464EF0AD
:1012600001E003EA040646EA8175C2F860520139DA
:101270000FF007C8203B13F1200FEDD1BFF34F8FC4
:10128000536943F480335361BFF34F8FBFF36F8FC4
:10129000FFF710FF1023194C0227C4F86C3AD4F85A
:1012A0006C124FF001081291129AC4F85C3AD4F80B
:1012B0005C2214481192119B60232E9307232EA9C0
:1012C0003293CDE92F78319709F012FB0E4A0F4B7C
:1012D0000C2513604FF4E13353600023C2E9043559
:1012E000C2E9023393614FF400431046D3610AF020
:1012F0000DFA054660B1FEE700E001E0008002560D
:1013000000ED00E0001002562C500834001000528E
:101310004FF000494FF4805BC4F8609AD4F8602223
:1013200040461492B74A149BC4F8209AC2F82092FF
:10133000FFF73AFE3846FFF737FE0420FFF734FE8A
:101340000820FFF731FEC4F854BAD4F854122EA87E
:101350001391139BAC4BCDE92F552E930BF0F4FC5E
:10136000AA4B2EA82E930BF0EFFCA94B2EA82E9380
:101370000BF0EAFCA74B2EA82E930BF0E5FC00F037
:1013800035FE01F02FF9284614F096FA284614F09D
:10139000B7FB40F201134FF4007A03261AA928463E
:1013A000ADF8683014F044F9284614F0B1F8C4F8E8
:1013B00058AAD4F85812404615912EA9159B2F967D
:1013C0002E970BF0E7FB08202EA90BF0E3FB09207A
:1013D0002EA90BF0DFFB0A202EA90BF0DBFB0B2064
:1013E0002EA90BF0D7FB31468B480BF029FC314678
:1013F0008A480BF025FC314689480BF021FC314628
:1014000088480BF01DFC314687480BF019FC31462B
:1014100086480BF015FC314685480BF011FC4FF463
:101420008063C4F8583AD4F85802764A1690169950
:101430002020C4F8183AC2F81832FFF7CDFD5846FC
:10144000FFF7CAFD4846FFF7C7FD4FF08040FFF7A2
:10145000C3FDC4F8BC7AD4F8BC22384619920422E1
:10146000199BFFF7B9FDC4F8BC2AD4F8BC1250464A
:101470001891189B4023C4F8BC3AD4F8BC120DF163
:10148000380B1791179BFFF79BFD8020FFF798FD06
:101490004FF48070FFF794FD4046FFF791FD38460A
:1014A000FFF78EFD1046FFF78BFD0820FFF788FD44
:1014B000604820F031FC604A6049614820F0C4FB7C
:1014C000604A6149614820F0BFFB434632460E2125
:1014D0005F4820F0B9FB324641462B465D4820F07C
:1014E000B3FB2B462A4631465B4820F0ADFB5B49F7
:1014F0005B4820F0A9FB5B495B4820F0A5FB0DF1A0
:1015000030084C480DAE20F007FCC8F8005035609C
:10151000CBF800500F951FF0B0F830B140F2A51194
:10152000524B534A53481FF059FE534804F0CAFD2A
:1015300020B14FF4D4714D4B4D4AF3E74E482EA9DC
:1015400004F002FE20B140F2AB11484B484AE9E7F3
:10155000BDF8E830012B04D04FF4D671474B444A14
:10156000E0E733603D9B46491B6843483AAA09932C
:1015700004F0E4FD20B14FF4D9713C4B3C4AD1E773
:10158000324659463C4804F0DCFDB0B932682824A4
:1015900002F1010E4EF001E03E990FABBEF1010EDB
:1015A00010D10323374810931A9304F047FE80B1FB
:1015B0004FF4E3712D4B344AB4E74FF4DB712B4BFE
:1015C0002B4AAFE704FB00F28A58013043F8042BA2
:1015D000E4E72E4B01222B482EA92E9306F09EF80D
:1015E00020B14FF4E671214B274A9BE72849254853
:1015F00010AA06F03FF800284CD040F2CF111B4B48
:10160000214A8FE700900256003102528031025287
:1016100000320252803202520A00003005000030CF
:101620001C0000201D0000200600003007000030D4
:101630000800003040970234699702346D970234F5
:1016400079970234A8970234B1970234BD970234D7
:10165000D7970234EF970234019802341B98023472
:10166000509802345E98023474980234849802349C
:101670003AC9023498980234C84F0834A398023407
:1016800024500834884F08342BC90234E40E08343F
:101690008C1B08347E497F481AAA06F015F80446C8
:1016A00020B14FF4E9717C4B7C4A3BE701464FF493
:1016B00080727B4820F04AFC80222146794820F045
:1016C00045FC1C222146784820F040FC77481AA9A6
:1016D00004F03AFD054618B1FC216F4B744A21E72E
:1016E0001AA9744800F060FD734819F043FF06F032
:1016F0005BFA724C724B424618602146201F1AF06A
:1017000005F80121284613F021FEA4F10C035968C5
:101710009A68DB6854F80C0C6A4C0B44E3600223B3
:101720000244694F2060A160626029462246284633
:101730002361676113F016FE644B186859689A6854
:10174000DB6802440B44E36004232361604B2060A8
:10175000A1606260012122462846636113F002FE07
:101760005C481CF039FC01201CF06AFC28461CF087
:10177000ADFF59481CF09AFC4FF0FF301CF086FC7E
:1017800056495748574B584A00F0C6FD2946384637
:101790001AF01EF81AF044F8D8F800300421B3F516
:1017A000407F14BF514B524B18681AF025F8514B2B
:1017B0001A68002AFCD000221A60D8F80030B3F56D
:1017C000407F4CD0494B1A6802F01F03BFF34F8F84
:1017D00003F1030E1C3B4FEA5E1E20330EF1010E97
:1017E000D8BF4FF0010E4EF001E04349C1F85C2232
:1017F00020320FF005C8BFF34F8FBFF36F8F4FF448
:1018000080730322CDE90032394C3848D8F80020E3
:101810002168006819F076FE099B002B1FDD236804
:10182000099903F01F020A44BFF34F8F6FEA030EBA
:1018300098188644203A4FEA5E1E20320EF1010EBF
:10184000D8BF4FF0010E4EF001E02B49C1F87032C5
:1018500020330FF005C8BFF34F8FBFF36F8F06F033
:10186000A3F90A900221114804F044FC112801D187
:1018700020BFF7E710380128F4D90C4804F0B4FC75
:10188000054600283CD04FF4C571034B1B4A49E67E
:10189000801B0834884F0834849802342BC90234E2
:1018A000801A0834001A0834404F0834C84F0834EE
:1018B0004DC90234C45008349C1B0834D4DC0734AE
:1018C000981B08340C50083400701791B8DC0734AA
:1018D0000000009164AF0634DC0C0834451000347D
:1018E000F10F0034A1110034751000340850083491
:1018F000245008342850083400ED00E01DC902349B
:1019000006F052F9824628460FAC3168814200F257
:10191000BE80B54BB54A584600F05CFC0023B44C81
:1019200000276360A360E3604023C4E9053311230B
:101930003168DBF80020206227802761E36161B312
:101940005AB30F9F002F28DD114611F9013B02EB1E
:10195000070EAEEB010E0EF1010E1A464EF001E03D
:10196000BEF1010E40F0B9809F49237091ED037ADA
:1019700091F9101062705B1A07EE903AF8EEE77A70
:1019800067EE877A531AC4ED017A07EE903AF8EEC3
:10199000E77A67EE877AC4ED027A944F3B682BB3FF
:1019A00000229C469646DFED937ADFED936A112183
:1019B0009CED027AF4EEC77AF1EE10FAB4EEE67A14
:1019C00044BFF0EE477A4FF0010EF1EE10FAA4BFDB
:1019D0000122013501390CF10C0CE9D1844902B125
:1019E0000D61BEF1000F01D0C1ED037A8349844D32
:1019F0000A6801320A60002B00F0848002F00102C4
:101A000002437FD106F0D0F87E4ADFED7F7A13687B
:101A1000C31A00EE103AB8EE400A20EE270AB5EEDF
:101A2000C00AF1EE10FA61D9F7EE007AB4EEE70AD7
:101A3000F1EE10FA5ADC1060396874482EAA19F0D9
:101A40009FFD734BD3F8A0331D2B6B6051D901233D
:101A50002B70704F4FF480726F49386820F0FDFC96
:101A600080226E49786820F0F8FCB968674819F060
:101A700039FE06F099F801210746694805F01AFB7E
:101A800000285BD040F29B11664B674A4AE554F848
:101A9000041B00291FDD5BF8203003F01F020A44FD
:101AA000BFF34F8F6FEA030E9F18BE44203A4FEAF0
:101AB0005E1E20320EF1010ED8BF4FF0010E4EF027
:101AC00001E05A49C1F85C3220330FF005C8BFF37A
:101AD0004F8FBFF36F8F013017E711F9017BBB42C6
:101AE000A8BF3B46BA42B8BF3A4639E79FED500A15
:101AF000A1E700222A70002BABD100226B70AA61F3
:101B00006A61AB600A9BDFF84891AAEB03030B9371
:101B1000364B484FD3F800A04749D9F8003001228E
:101B200001FB037145480BF001F80346002800F063
:101B300093804FF43871424B424AF3E406F034F894
:101B4000DFF810914FF48072D9F80010C71B3248AB
:101B5000AF6020F082FCD9F8081080222F4820F0D6
:101B60007CFC2B78D9F8049023B13A4636493748A3
:101B700020F06AF8D9F80030EB60D9ED018AC5EDA4
:101B8000048A99ED000AB4EEE80AF1EE10FA30FE8C
:101B9000289A30EE490A22F013FFB0EE408A38EE60
:101BA000C90A22F00DFF78EE006AF5EEC06AF1EE88
:101BB00010FAD3BFF6EE007AC8EE267A80EE267AC7
:101BC000B0EE677A0E4B1A78C3ED057A83ED067A8C
:101BD000002A97D0F4EEC77AF1EE10FA94BF0122F2
:101BE00000225A708EE700BFC4500834C050083439
:101BF0005C4F083400000000CDCC4C3EE00E0834B1
:101C0000404F0834981B08346F12833A9C1B0834E9
:101C10009C4B08348C1B0834801A0834001A083492
:101C2000884F0834849802340BC9023400ED00E078
:101C30008988883D0000009100B80B00C45F08341B
:101C4000C7980234F5C80234B6980234BA98023400
:101C5000804F0834801B083487480093D0E9022362
:101C6000D0E900011CF0F6FC5046DFF868A200F055
:101C700061FB4FF080401CF011FA9AF800300A9393
:101C8000002B00F0E1809AF80120002A00F0D780B4
:101C90007A481CF0FBF91CF011FA9AF80130C1885F
:101CA000002B00F0CF80764BAA6800200792754A7F
:101CB000069295ED057AB7EEC77A8DED047B95ED2A
:101CC000067AB7EEC77A00938DED027B01226E4B48
:101CD00000F0CCFB4FF0FF301CF0D8F91CF0EEF90F
:101CE00094ED037AB7EEC77A1123C1888DED027B9C
:101CF000012201932369914000200093634B00F07F
:101D0000B5FB1CF0DBF994ED027AB7EEC77AC18817
:101D10008DED047B94ED017AB7EEC77A8DED027BF1
:101D200094F901300122019394F9003001EB410153
:101D300000200093564B00F099FB1CF0BFF9236A7A
:101D4000C1880393E36901220293A3698900019387
:101D50006369002000934F4B00F088FB1CF0AEF944
:101D6000C18814200B9B41430122002000934A4B61
:101D700000F07CFB4FF0FF301CF088F9474C4848DE
:101D80001CF094F900201CF089F9236813B905F0C0
:101D90000BFF206005F008FF2368C01AB0F57A6FCA
:101DA0002CD26B2364213F4A4FF496700093C823D2
:101DB0001CF08CF94FF080401CF070F91CF07EF99B
:101DC000C1880122384B0901002000F04FFB1CF0B4
:101DD00075F9C1880122354B01EB0111002000F09B
:101DE00045FB1CF06BF9C188122001224143304BA6
:101DF000002000F03BFB00201CF050F9D9F8003027
:101E00002C4A02FB0377BFF34F8F45F6C05E4EF0BE
:101E100001E0294BC3F8687220370FF005C8BFF303
:101E20004F8FBFF36F8F0122022124480AF056FE24
:101E3000E0B140F21631224B224AFFF773BB4FF05C
:101E4000FF2026E7204B2FE76FF0FF001CF01EF964
:101E50001CF034F93C22C1880192DAF804300122E6
:101E600000930A98194B00F001FB33E7184A1368F6
:101E7000C3F1010313608DE4B8DC07340000FFFFF9
:101E800034970234B6980234D59802341499023447
:101E9000279902344199023458990234DC0E0834EF
:101EA000DC0C08342CCA0234689902347899023464
:101EB000AB99023400B80B0000ED00E0C45F0834B9
:101EC000C7980234F5C8023439970234F7980234BF
:101ED000804F0834404F083408B502481FF01CFFFB
:101EE000FEE700BFD699023410B5E4B04FF4C872D3
:101EF0000021684620F02AF800231022CDE90023B3
:101F00004FF400134FF08051329303236846CDE91C
:101F100022130CF0A9F948B900230822CDE90023C7
:101F200028232490684625930CF09EF964B010BDD8
:101F30000138012810B5144607D920F04BFA0923BF
:101F40004FF0FF340360204610BD4FF0FF330448CC
:101F500092B209F023FB002818BF0024F3E700BF6A
:101F60002C50083407B54FF080424FF48060FFF7E3
:101F70001BF8074BC3F8602AD3F86012019101994E
:101F8000C3F8202A03F58053C3F8202203B000BD14
:101F90000080025600BEFEE70120704708B520F021
:101FA00019FA162303604FF0FF3008BD08B520F082
:101FB00011FA16230360FEE770B50D4614460E466F
:101FC000731B9C4201DC204670BDAFF3008006F815
:101FD000010BF5E74FF0FF3070474FF4005300203E
:101FE0004B60704701207047002070471FB5144BAD
:101FF0007C2101AA02A8029311F0C6FC0346E0B9B5
:10200000019A02F4C031B1F5C03F17D042F4C0329A
:102010007C2102A8019211F0D3FC68B97C2101AAAD
:1020200002A811F0B1FC30B9019B03F4C033B3F541
:10203000C03F03D0FEE7FEE7FEE7FEE705B000BDC8
:102040000090005692ED017A2DE9F74F002601909D
:1020500017EE100A3546F6EE006A98461368D2F875
:1020600008A000FB03FE554502D103B0BDE8F08F88
:10207000B8F1000F0CBF30462846019C01272056BE
:102080000024A64514BFF146B94605EB0A0B00949F
:10209000B9F101092FD1009C06EE103AB4FBF3F719
:1020A00003FB174407EE904AF8EE677AF8EE465ABB
:1020B00077EEA67A87EEA56A07EE907AF8EE677A51
:1020C000F8EE475A77EEA67A81ED006A87EEA56AA8
:1020D00081ED016A92F9104092ED036A001B07EE50
:1020E000900AF8EEE77A67EE867A0135C1ED027A5A
:1020F00076440C31B7E7B8F1000F07EB060C18BFB8
:10210000DC46019CD34414F90CC06045ACBF844646
:10211000009760460137BBE70C23F0B58E68044694
:10212000024603FB06060020B24200D1F0BDD1ED0D
:10213000007A91ED017AB8EE676AF8EE475AD2ED6F
:10214000007A92ED017A66EE277A25EE877AFCEE28
:10215000E77ABCEEC77A2546124F131B9B087B43D8
:1021600023F040430133013B01D10C32DCE7D5EDD4
:10217000006A66EE266AFCEEE66A17EE907A16EEC4
:1021800090CA67450BD1D5ED016A65EEA66AFCEEF3
:10219000E66A17EE107A16EE90CA674500D0013055
:1021A0000C35E0E7ABAAAA2A88B181B14A8E012A90
:1021B0000DD10A6C9169126A09681288C1600274B3
:1021C0004022C0E900221122826000F067B84FF07F
:1021D000FF30704730B51C46E7B00AB12D4B136095
:1021E000012904D118B105680DB102B144B9CC225E
:1021F000002128481FF0AAFE4FF0FF3067B030BD25
:1022000022460B4628466946FFF71CFF0023284656
:1022100033A9FFF717FF21466846FFF77DFF044605
:1022200033A8FFF779FF89686B4601F1010E0022A0
:10223000DFED197A4EF001E00C33BEF1010E1AD138
:1022400002F1010E9FED147A4EF001E033AB0C3336
:10225000BEF1010E15D1844205D317D1B4EEE77A51
:10226000F1EE10FA12DDCC220DEB0201094820F04C
:10227000F4F80020C2E713ED017A013277EE877A95
:10228000DAE753ED016A37EE267AE0E7CC226946B9
:10229000ECE700BFD8500834000000000020704771
:1022A00090ED027ADFED197AB4EEE77AF1EE10FAEA
:1022B0007FB502460D4626D4154BD2ED010A92EDAC
:1022C000000A1B6803A902A89847029B114E023B13
:1022D0000093039B01A9023B01936846336898472A
:1022E000029B044602330093039B6846023301932A
:1022F00001A933689847044305D1DDE902012B4663
:1023000005221CF0F3F904B070BD00BFCDCC4C3EEB
:10231000A8510834AC5108340349086003490A60E5
:10232000034A1360704700BFAC510834A851083409
:10233000A45108342DE9F04F2DED028B4FF0120B14
:102340009FED458A89B0454FDFF81491DFF814A15D
:1023500003900C233E68039A03FB0626D6ED027A0F
:10236000F4EEC87AF1EE10FA5ED47D6803FB052323
:10237000D3ED027AF4EEC87AF1EE10FA029353D458
:10238000D9F8003005A904A8D6ED010A96ED000A97
:10239000BC689847DAF8003005A904A898470028D7
:1023A00042D1029AD9F8003007A906A8D2ED010A55
:1023B00092ED000A9847DAF8003007A906A8984776
:1023C00090BBDDE90401DDE9062300941CF044F82C
:1023D00004A80FC8A3EB010EA2EB000CBEF1000F86
:1023E000B8BFCEF1000EBCF1000FDFF87C80B8BFA3
:1023F000CCF1000CE645D8F8005000941EDD013207
:102400000130A847DDE90623DDE904010094D8F88E
:102410000080013A0138C04721463046FFF740FFAF
:1024200021460298FFF73CFFBBF1010B07F10C07B7
:102430008FD109B0BDEC028BBDE8F08F01330131C3
:10244000A847DDE90512079B0094D8F8008004989E
:10245000013B0139DFE700BFCDCC4C3E54C902340B
:10246000A8510834AC510834A451083408B477B5E5
:1024700004460D46164607AB53F8042B3021074897
:1024800001931FF0C3FC334629462046034A1BF044
:102490009DFF03B0BDE8704001B07047B0510834F3
:1024A00010B50446FEF774F92146BDE8104082B22B
:1024B00041F28833014809F071B800BF2C5008344C
:1024C0007047000008B50248FFF7EAFFFEE700BFCB
:1024D000F299023408B50248FFF7E2FFFEE700BFB9
:1024E000099A023408B50248FFF7DAFFFEE700BF99
:1024F000209A023408B50248FFF7D2FFFEE700BF7A
:10250000369A023408B50248FFF7CAFFFEE700BF5B
:102510004E9A02347047FEE7FEE705F039BB08B576
:1025200011F0F8FFBDE8084006F0E6B808B511F074
:10253000F1FFBDE8084005F0A8BF000010B5134C3E
:102540006369DB0321D50A1A002A1EDD00F01F0390
:102550001A44BFF34F8F6FEA000E1B1A02440B445C
:102560009644203B4FEA5E1E20330EF1010ED8BF89
:102570004FF0010E4EF001E0C4F85C0220300FF085
:1025800005C8BFF34F8FBFF36F8F10BD00ED00E0A4
:1025900010B5134C6369DB0321D50A1A002A1EDD2E
:1025A00000F01F031A44BFF34F8F6FEA000E1B1A8F
:1025B00002440B449644203B4FEA5E1E20330EF14A
:1025C000010ED8BF4FF0010E4EF001E0C4F86802D2
:1025D00020300FF005C8BFF34F8FBFF36F8F10BDD2
:1025E00000ED00E0074808B50268074B9A4202D0A8
:1025F00003600AF01BFC03480AF0E4FB0228FAD04F
:1026000008BD00BFE051083400FC0D5808B5FFF7C5
:10261000A9FC08BD10B5AEB0B422002101A81FF07E
:1026200095FC4FF488544FF4883140222823112020
:102630004FF0440CCDE90614CDE90222CDE90D227C
:1026400004244FF488624FF4882E8DF8043001235F
:10265000CDE908C4CDE91220114C124ACDE904039A
:10266000CDE90AE4CDE90F0304F5E024219201A8A5
:1026700002F54472CDE9143111918DF85C301C9350
:102680008DF8883027932C928DF8B43016941EF074
:1026900009FB20460449FFF77BFF2EB010BD00BFA9
:1026A000000027343035627000102F34F0B5BBB015
:1026B000E422002101A81FF049FC10231121042469
:1026C0004FF488258DF804304423402001224FF434
:1026D00088374FF48856DFF864C0CDE91C13CDE984
:1026E0000A5CCDE90834CDE91334CDE91E341595E3
:1026F00020930F4D0F4BCDE90200CDE90D000DEBFE
:102700000400CDE90412CDE90F12CDE91A12CDE98A
:1027100018222193CDE90676CDE9117616951EF0A3
:1027200065F828460449FFF733FF3BB0F0BD00BF12
:10273000000027340040323400402B3400002E3497
:1027400010B5AEB0B422002101A81FF0FFFB4FF47A
:1027500088644FF4883140222A231120CDE90614E1
:10276000CDE90222CDE90D228DF804300A91012332
:10277000119144224FF48851CDE90403CDE90803B7
:10278000CDE90F03CDE9121204204FF48822CDE9E0
:10279000140202F1E2420E4CA2F52202A2F52662D8
:1027A0000B942192A4F5342402F5447201A88DF80B
:1027B00030301C9327932C928DF8B43016941EF071
:1027C0000DFB20460349FFF7E3FE2EB010BD00BF0E
:1027D0000040323400402B3430B5AFB0B422002179
:1027E00001A81FF0B3FB4FF4883040224FF48861FA
:1027F000CDE90222CDE90601CDE90D224FF4885141
:1028000044222A23CDE912120A9011904FF4882213
:10281000042011248DF804300123CDE9140202F1C3
:10282000E242A2F52202CDE90443CDE90843CDE915
:102830000F430D4D0D4CA2F52E62219201A802F519
:1028400044728DF830301C938DF8883027932C9289
:102850008DF8B4300B9516941EF0C0FA2946204628
:10286000FFF796FE2FB030BD0040323400002E340A
:1028700010B51F49AEB01F48FFF760FEB42200211B
:1028800001A81FF063FB2A2311228DF804300123D5
:102890001949CDE90423CDE90823CDE90F23CDE97A
:1028A00006220A920B91119204214422CDE91412BE
:1028B000CDE91222114A124C0DEB0100219202F5D2
:1028C0004472CDE90233CDE90D338DF830301C93DD
:1028D0008DF8883027932C928DF8B43016941EF022
:1028E0007DFA20460249FFF753FE2EB010BD00BF0F
:1028F00060403234404032345040323410356270DF
:102900000040323400B52049AFB02048FFF716FE32
:10291000B422002101A81FF019FB282311228DF8F1
:102920000430012344210420CDE90423CDE90F2301
:10293000CDE91323CDE9112206921592144ACDE96F
:102940000901169202F17452A2F55002CDE9071165
:10295000A2F52A620F492192684402F54472CDE93A
:102960000233CDE90D330B918DF85C301C93279326
:102970002C928DF8B4301EF095F903490348FFF707
:1029800007FE2FB000BD00BF8040323440403234DB
:10299000504032340040323410B51C4998B01C48C5
:1029A000FFF7CCFD6022002168461FF0CFFA3F23DD
:1029B0008DF8003040234FF48830CDE901334FF4D7
:1029C00088534FF4882CCDE90503442304200122C9
:1029D0001121104CCDE90730CDE909C4CDE9123001
:1029E00004F534246846CDE90312CDE90E12CDE991
:1029F0001013CDE90C22149315941EF0A1F8204673
:102A00000249FFF7C5FD18B010BD00BF6040323469
:102A1000404032340000273408B5042104481CF03B
:102A200003FABDE80840052102481DF0D3B800BFF5
:102A30007C9304346893043408B5022104481CF0E4
:102A4000F3F9BDE80840032102481DF0C3B800BFF8
:102A5000B4910434A891043408B50D2104481CF045
:102A6000E3F9BDE808400B2102481DF0B3B800BFF0
:102A7000F08F0434C48F043408B5052104481CF0D9
:102A8000D3F9BDE80840062102481DF0A3B800BFF5
:102A9000A08B0434888B043408B5042104481CF04E
:102AA000C3F9BDE80840052102481DF093B800BFF6
:102AB0005C8904344889043408B5052104481CF0B5
:102AC000B3F9BDE80840062102481DF083B800BFF5
:102AD000588704344087043408B5042104481CF0A6
:102AE000A3F9BDE80840052102481DF073B800BFF6
:102AF000148504340085043408B5032104481CF00F
:102B000093F9BDE80840042102481DF063B800BFF6
:102B1000308304342083043408B5072104481CF0B2
:102B200083F9BDE80840072102481DF053B800BFF3
:102B3000608104344481043408B5042104481CF045
:102B400073F9BDE80840052102481DF043B800BFF5
:102B5000A87E0434947E043408B5032104481CF094
:102B600063F9BDE80840042102481DF033B800BFF6
:102B7000C47C0434B47C043408B50D2104481CF032
:102B800053F9BDE808400B2102481DF023B800BFEF
:102B9000947A0434687A043408B5042104481CF09B
:102BA00043F9BDE80840052102481DF013B800BFF5
:102BB000547604344076043408B5032104481CF0EC
:102BC00033F9BDE80840042102481DF003B800BFF6
:102BD000707404346074043408B50F2104481CF088
:102BE00023F9BDE808400D2102481CF0F3BF00BFE7
:102BF00020720434EC71043408B5132104481CF02D
:102C000013F9BDE80840112102481CF0E3BF00BFE2
:102C1000306C0434EC6B043408B50F2104481CF00C
:102C200003F9BDE808400D2102481CF0D3BF00BFE6
:102C300020650434EC64043408B5082104481CF011
:102C4000F3F8BDE80840092102481CF0C3BF00BFEB
:102C5000E05F0434BC5F043408B5132104481CF061
:102C6000E3F8BDE80840112102481CF0B3BF00BFE3
:102C70009C5B0434585B043408B5112104481CF0F3
:102C8000D3F8BDE808400F2102481CF0A3BF00BFE5
:102C90006C5404343054043408B5082104481CF042
:102CA000C3F8BDE80840092102481CF093BF00BFEB
:102CB0007C4E0434584E043408B5132104481CF0EB
:102CC000B3F8BDE80840112102481CF083BF00BFE3
:102CD000384A0434F449043408B5112104481CF07E
:102CE000A3F8BDE808400F2102481CF073BF00BFE5
:102CF00008430434CC42043408B5082104481CF0CD
:102D000093F8BDE80840092102481CF063BF00BFEA
:102D1000183D0434F43C043408B5132104481CF075
:102D200083F8BDE80840112102481CF053BF00BFE2
:102D3000D43804349038043408B50C2104481CF00D
:102D400073F8BDE808400B2102481CF043BF00BFE8
:102D5000F4310434C831043408B5082104481CF0A7
:102D600063F8BDE80840092102481CF033BF00BFEA
:102D7000782D0434542D043408B5112104481CF076
:102D800053F8BDE808400F2102481CF023BF00BFE4
:102D9000542904341829043408B50E2104481CF0C1
:102DA00043F8BDE808400D2102481CF013BF00BFE6
:102DB00014230434E022043408B5082104481CF02C
:102DC00033F8BDE80840092102481CF003BF00BFEA
:102DD000E81D0434C41D043408B5112104481CF056
:102DE00023F8BDE808400F2102481CF0F3BE00BFE5
:102DF000C41904348819043408B50E2104481CF0A1
:102E000013F8BDE808400D2102481CF0E3BE00BFE6
:102E1000841304345013043408B5082104481CF00A
:102E200003F8BDE80840092102481CF0D3BE00BFEA
:102E3000580E0434340E043408B5112104481BF034
:102E4000F3FFBDE808400F2102481CF0C3BE00BFDD
:102E5000340A0434F809043408B50A2104481BF084
:102E6000E3FFBDE80840092102481CF0B3BE00BFE3
:102E7000340404341004043408B5052104481BF05C
:102E8000D3FFBDE80840062102481CF0A3BE00BFE6
:102E9000A80004349000043408B5102104481BF045
:102EA000C3FFBDE808400F2102481CF093BE00BFDD
:102EB000A4FD033468FD033408B50C2104481BF05D
:102EC000B3FFBDE808400A2102481CF083BE00BFE2
:102ED00094F703346CF7033408B50C2104481BF055
:102EE000A3FFBDE808400B2102481CF073BE00BFE1
:102EF00024F30334F8F2033408B5052104481BF029
:102F000093FFBDE80840062102481CF063BE00BFE5
:102F1000E8EE0334D0EE033408B50E2104481BF06C
:102F200083FFBDE808400C2102481CF053BE00BFDF
:102F300004EC0334D4EB033408B50C2104481BF033
:102F400073FFBDE808400B2102481CF043BE00BFE0
:102F5000F4E60334C8E6033408B5052104481BF041
:102F600063FFBDE80840062102481CF033BE00BFE5
:102F7000B8E20334A0E2033408B50E2104481BF084
:102F800053FFBDE808400C2102481CF023BE00BFDF
:102F9000D4DF0334A4DF033408B50C2104481BF04C
:102FA00043FFBDE808400B2102481CF013BE00BFE0
:102FB000C4DA033498DA033408B5052104481BF059
:102FC00033FFBDE80840062102481CF003BE00BFE5
:102FD00088D6033470D6033408B50E2104481BF09C
:102FE00023FFBDE808400C2102481CF0F3BD00BFE0
:102FF000A4D3033474D3033408B5072104481BF069
:1030000013FFBDE80840072102481CF0E3BD00BFE4
:10301000E4CE0334C8CE033408B5052104481BF0C0
:1030200003FFBDE80840062102481CF0D3BD00BFE5
:103030001CCC033404CC033408B50F2104481BF026
:10304000F3FEBDE808400F2102481CF0C3BD00BFDD
:1030500028C90334ECC8033408B5092104481BF01F
:10306000E3FEBDE80840092102481CF0B3BD00BFE3
:1030700058C3033434C3033408B5052104481BF096
:10308000D3FEBDE80840062102481CF0A3BD00BFE6
:10309000E0BF0334C8BF033408B5082104481BF05F
:1030A000C3FEBDE80840082102481CF093BD00BFE4
:1030B0005CBD03343CBD033408B5092104481BF052
:1030C000B3FEBDE80840092102481CF083BD00BFE3
:1030D00004BA0334E0B9033408B5052104481BF0F1
:1030E000A3FEBDE80840062102481CF073BD00BFE6
:1030F0008CB6033474B6033408B5082104481BF0B9
:1031000093FEBDE80840082102481CF063BD00BFE3
:1031100008B40334E8B3033408B5072104481BF0AE
:1031200083FEBDE80840072102481CF053BD00BFE4
:10313000D0B00334B4B0033408B5052104481BF003
:1031400073FEBDE80840062102481CF043BD00BFE5
:1031500008AE0334F0AD033408B5052104481BF074
:1031600063FEBDE80840062102481CF033BD00BFE5
:10317000B4AB03349CAB033408B50D2104481BF0F9
:1031800053FEBDE808400D2102481CF023BD00BFDE
:10319000E0A80334ACA8033408B5052104481BF0AB
:1031A00043FEBDE80840062102481CF013BD00BFE5
:1031B00004A40334ECA3033408B5052104481BF030
:1031C00033FEBDE80840062102481CF003BD00BFE5
:1031D000B0A1033498A1033408B50D2104481BF0B5
:1031E00023FEBDE808400B2102481CF0F3BC00BFE1
:1031F000DC9E0334B09E033408B5052104481BF05F
:1032000013FEBDE80840062102481CF0E3BC00BFE5
:103210008C9A0334749A033408B5052104481BF0D2
:1032200003FEBDE80840062102481CF0D3BC00BFE5
:10323000389803342098033408B5072104481BF05C
:10324000F3FDBDE80840072102481CF0C3BC00BFE5
:10325000C4950334A895033408B5052104481BF030
:10326000E3FDBDE80840062102481CF0B3BC00BFE6
:10327000FC920334E492033408B5052104481BF0A2
:10328000D3FDBDE80840062102481CF0A3BC00BFE6
:10329000A89003349090033408B5022104481BF031
:1032A000C3FDBDE80840032102481CF093BC00BFE9
:1032B000848E0334788E033408B5124903201CF041
:1032C000B1F9114900201CF0E7F801220F49002054
:1032D0001BF0F2FD01220E4907201BF0EDFD01223B
:1032E0000C4908201BF0E8FD04210B481BF088FD69
:1032F0000A490B48FFF722F9BDE8084005210948B3
:103300001BF0F8BC3093043400930434B8920434B6
:103310007092043428920434E89104340050333419
:1033200000403234D491043408B50E4903201CF017
:1033300079F901220C4906201BF0BEFD01220B4940
:1033400010461BF0B9FD0122094902201BF0B4FD13
:10335000032108481BF054FDBDE80840042106483D
:103360001BF0C8BCE8820434A082043458820434C0
:1033700010820434E0810434D081043408B50E494D
:1033800002201CF04FF901220C4906201BF094FD8D
:1033900001220B4910461BF08FFD01220949032031
:1033A0001BF08AFD032108481BF02AFDBDE80840F8
:1033B000042106481BF09EBC7C7C0434347C04341D
:1033C000EC7B0434A47B0434747B0434647B0434C9
:1033D00008B50E4900201CF025F901220C490420F3
:1033E0001BF06AFD01220B4902201BF065FD012242
:1033F000094906201BF060FD032108481BF000FD71
:10340000BDE80840042106481BF074BC287404344D
:10341000E073043498730434507304342073043418
:103420001073043408B50C4900201CF0FBF801228D
:103430000A4903201BF040FD0122094909201BF025
:103440003BFD022107481BF0DBFCBDE808400321DF
:1034500005481BF04FBC00BF408E0334F88D033489
:10346000B08D0334908D0334848D033408B50C493A
:1034700000201CF0C1FA01220A4900201BF01CFDAB
:103480000122094908201BF017FD022107481BF003
:10349000B7FCBDE80840032105481BF02BBC00BF6A
:1034A0007C91043434910434EC900434CC90043492
:1034B000C090043408B51E4903201BF063FE1D496B
:1034C00000201BF05FFE1C4901201BF05BFE1B4926
:1034D00002201BF057FE1A4901201CF0A3F801221C
:1034E000184900201BF0E8FC0122174908201BF0B6
:1034F000E3FC0122154906201BF0DEFC01221449E1
:1035000005201BF0D9FC0122124910461BF0D4FC07
:103510000122114903201BF0CFFC0D210F481BF0A5
:103520006FFCBDE808400B210D481BF0E3BB00BF5A
:10353000888F04344C8F0434108F0434D48E0434B8
:103540009C8E0434548E04340C8E0434C48D0434A4
:103550007C8D0434348D0434EC8C04341C8C0434A1
:10356000F08B043408B5124902201BF00BFE114900
:1035700002201CF057F8104900201CF053F80122DB
:103580000E4903201BF098FC01220D4900201BF07E
:1035900093FC01220B4909201BF08EFC05210A48EF
:1035A0001BF02EFCBDE80840062108481BF0A2BB1A
:1035B0004C8B0434148B0434DC8A0434948A043431
:1035C0004C8A0434048A0434B48904349C89043455
:1035D00008B5104901201BF0D5FD0F4903201CF050
:1035E00021F801220D4900201BF066FC01220C4944
:1035F00003201BF061FC01220A4908201BF05CFC3F
:10360000042109481BF0FCFBBDE8084005210748E0
:103610001BF070BB0C890434D48804348C880434C7
:1036200044880434FC870434BC870434A8870434F9
:1036300008B5124900201BF0A5FD114900201BF020
:10364000F1FF104901201BF0EDFF01220E4905207A
:103650001BF032FC01220D4904201BF02DFC01223D
:103660000B4910461BF028FC05210A481BF0C8FB3B
:10367000BDE80840062108481BF03CBB0487043421
:10368000CC860434948604344C8604340486043492
:10369000BC8504346C8504345485043408B5104961
:1036A00003201BF06FFD0F4902201BF0BBFF01221E
:1036B0000D4905201BF000FC01220C4906201BF0DF
:1036C000FBFB01220A4904201BF0F6FB04210948F8
:1036D0001BF096FBBDE80840052107481BF00ABB1C
:1036E000C48404348C84043444840434FC8304345B
:1036F000B4830434748304346083043408B51749F4
:1037000001201BF03FFD164902201BF03BFD15492F
:1037100001201BF087FF0122134910461BF0CCFB50
:103720000122124905201BF0C7FB0122104900208D
:103730001BF0C2FB01220F4909201BF0BDFB072132
:103740000D481BF05DFB0D490D48FEF7F7FEBDE887
:10375000084007210B481BF0CDBA00BF0881043494
:10376000CC800434948004344C80043404800434C9
:10377000BC7F0434747F0434047F043400602E342E
:1037800000002E34E87E043408B5104900201BF0F8
:10379000F9FC0F4900201BF045FF01220D490520CF
:1037A0001BF08AFB01220C4906201BF085FB01223D
:1037B0000A4903201BF080FB042109481BF020FB71
:1037C000BDE80840052107481BF094BA587E043430
:1037D000207E0434D87D0434907D0434487D043444
:1037E000087D0434F47C043408B5204901201BF022
:1037F000C9FC1F4902201BF0C5FC1E4903201BF019
:10380000C1FC1D4900201BF0BDFC1C4903201BF01E
:1038100009FF01221A4904201BF04EFB012219491D
:1038200007201BF049FB0122174902201BF044FB33
:103830000122164909201BF03FFB012214490320F5
:103840001BF03AFB0122134905201BF035FB0D212B
:1038500011481BF0D5FA11491148FEF76FFEBDE87B
:1038600008400B210F481BF045BA00BF2C7A0434E6
:10387000F0790434B4790434787904344079043428
:10388000F8780434B0780434687804342078043448
:10389000D877043490770434C076043400A03434EC
:1038A000008034349476043408B5104900201BF0AD
:1038B00069FC0F4901201BF0B5FE01220D490520CE
:1038C0001BF0FAFA01220C4909201BF0F5FA01223B
:1038D0000A4903201BF0F0FA042109481BF090FA72
:1038E000BDE80840052107481BF004BA04760434FB
:1038F000CC750434847504343C750434F474043495
:10390000B4740434A074043408B5254900201BF0B5
:1039100039FC244901201BF035FC234902201BF00F
:1039200031FC224903201BF02DFC214902201BF011
:1039300079FE01221F4900201BF0BEFA01221E4918
:1039400008201BF0B9FA01221C4910461BF0B4FAFA
:1039500001221B4904201BF0AFFA0122194906205D
:103960001BF0AAFA0122184905201BF0A5FA012232
:10397000164902201BF0A0FA0122154903201BF072
:103980009BFA0F2113481BF03BFA13491348FEF72B
:10399000D5FDBDE808400D2111481BF0ABB900BFB3
:1039A000B07104347471043438710434FC7004341C
:1039B000C47004347C70043434700434EC6F043408
:1039C000A46F04345C6F0434146F0434CC6E04347C
:1039D000846E0434946D0434005034340040343424
:1039E000606D043408B52C4900201BF0CBFB2B493B
:1039F00001201BF0C7FB2A4902201BF0C3FB294909
:103A000003201BF0BFFB284900201BF00BFE2749B9
:103A100001201BF007FE264903201BF003FE0122B4
:103A2000244902201BF048FA0122234905201BF0FB
:103A300043FA0122214903201BF03EFA01222049CA
:103A400004201BF039FA01221E4910461BF034FAFB
:103A500001221D4900201BF02FFA01221B490620DC
:103A60001BF02AFA01221A4909201BF025FA01222B
:103A7000184907201BF020FA0122174908201BF0E3
:103A80001BFA132115481BF0BBF9BDE808401121B2
:103A900013481BF02FB900BFB06B0434746B0434AF
:103AA000386B0434FC6A0434C46A04348C6A043409
:103AB000546A04340C6A0434C46904347C690434E0
:103AC00034690434EC680434A46804345C68043455
:103AD00014680434CC6704348467043454660434B2
:103AE0001066043408B5234901201BF04BFB224922
:103AF00002201BF047FB214903201BF043FB204918
:103B000000201BF03FFB1F4902201BF08BFD012210
:103B10001D4904201BF0D0F901221C4910461BF05E
:103B2000CBF901221A4909201BF0C6F901221949D3
:103B300000201BF0C1F90122174906201BF0BCF937
:103B40000122164907201BF0B7F901221449082069
:103B50001BF0B2F90122134905201BF0ADF90F212A
:103B600011481BF04DF9BDE808400D210F481BF02E
:103B7000C1B800BFB06404347464043438640434DD
:103B8000FC630434C46304347C6304343463043459
:103B9000EC620434A46204345C62043414620434BD
:103BA000CC6104348461043494600434606004346F
:103BB00008B5194900201BF0E5FA184903201BF04D
:103BC00031FD174900201BF02DFD164901201BF087
:103BD00029FD0122144906201BF06EF90122134928
:103BE00005201BF069F90122114903201BF064F93B
:103BF0000122104902201BF05FF901220E49072023
:103C00001BF05AF908210D481BF0FAF8BDE80840EE
:103C100009210B481BF06EB8805F0434485F043400
:103C2000105F0434D85E0434905E0434485E04347B
:103C3000005E0434B85D0434705D0434F05C043418
:103C4000CC5C043408B52C4900201BF09BFA2B49AE
:103C500001201BF097FA2A4902201BF093FA294908
:103C600003201BF08FFA284901201BF0DBFC2749B9
:103C700002201BF0D7FC264900201BF0D3FC0122B8
:103C8000244908201BF018F90122234910461BF093
:103C900013F90122214909201BF00EF901222049C4
:103CA00005201BF009F901221E4906201BF004F92A
:103CB00001221D4900201BF0FFF801221B490220B0
:103CC0001BF0FAF801221A4903201BF0F5F8012233
:103CD000184904201BF0F0F80122174907201BF0B7
:103CE000EBF8132115481BF08BF8BDE808401121B3
:103CF00013481AF0FFBF00BF1C5B0434E05A0434C1
:103D0000A45A0434685A0434305A0434F859043438
:103D1000C05904347859043430590434E858043410
:103D2000A05804345858043410580434C857043484
:103D30008057043438570434F0560434C0550434E2
:103D40007C55043408B5274901201BF01BFA26498D
:103D500002201BF017FA254903201BF013FA24490F
:103D600000201BF00FFA234903201BF05BFC2249C3
:103D700000201BF057FC0122204906201BF09CF874
:103D800001221F4907201BF097F801221D49104608
:103D90001BF092F801221C4903201BF08DF8012230
:103DA0001A4904201BF088F80122194908201BF049
:103DB00083F80122174909201BF07EF801221649D9
:103DC00000201BF079F80122144902201BF074F83E
:103DD000112113481BF014F8BDE808400F211148C9
:103DE0001AF088BFF4530434B85304347C530434B9
:103DF0004053043408530434D052043488520434F9
:103E000040520434F8510434B0510434685104343D
:103E100020510434D85004349050043448500434B1
:103E2000384F0434FC4E043408B5194900201BF007
:103E3000A9F9184902201BF0F5FB174900201BF0D7
:103E4000F1FB164901201BF0EDFB0122144907206C
:103E50001BF032F80122134908201BF02DF8012233
:103E6000114903201BF028F80122104900201BF003
:103E700023F801220E4905201BF01EF808210D48E9
:103E80001AF0BEFFBDE8084009210B481AF032BF06
:103E90001C4E0434E44D0434AC4D0434744D0434ED
:103EA0002C4D0434E44C04349C4C0434544C043401
:103EB0000C4C04348C4B0434684B043408B52C4946
:103EC00000201BF05FF92B4901201BF05BF92A4908
:103ED00002201BF057F9294903201BF053F9284908
:103EE00001201BF09FFB274903201BF09BFB264969
:103EF00000201BF097FB0122244900201AF0DCFF70
:103F00000122234910461AF0D7FF0122214905203A
:103F10001AF0D2FF0122204906201AF0CDFF01221B
:103F20001E4908201AF0C8FF01221D4907201AF077
:103F3000C3FF01221B4902201AF0BEFF01221A49C9
:103F400004201AF0B9FF0122184909201AF0B4FF21
:103F50000122174903201AF0AFFF132115481AF068
:103F60004FFFBDE80840112113481AF0C3BE00BF3F
:103F7000B84904347C4904344049043404490434C5
:103F8000CC480434944804345C4804341448043461
:103F9000CC470434844704343C470434F4460434A6
:103FA000AC460434644604341C460434D44504341A
:103FB0008C4504345C4404341844043408B527495F
:103FC00001201BF0DFF8264902201BF0DBF8254911
:103FD00003201BF0D7F8244900201BF0D3F8234915
:103FE00002201BF01FFB224900201BF01BFB0122BB
:103FF000204902201AF060FF01221F4907201AF011
:104000005BFF01221D4904201AF056FF01221C49C2
:1040100009201AF051FF01221A4906201AF04CFF1C
:104020000122194910461AF047FF012217490020C2
:104030001AF042FF0122164908201AF03DFF012222
:10404000144903201AF038FF112113481AF0D8FE42
:10405000BDE808400F2111481AF04CBE90420434CC
:104060005442043418420434DC410434A44104347E
:104070006C41043424410434DC400434944004345E
:104080004C40043404400434BC3F0434743F0434D2
:104090002C3F0434E43E0434D43D0434983D0434CD
:1040A00008B5194900201BF06DF8184903201BF0D2
:1040B000B9FA174900201BF0B5FA164901201BF088
:1040C000B1FA0122144909201AF0F6FE012213491F
:1040D00006201AF0F1FE0122114903201AF0ECFE2D
:1040E0000122104904201AF0E7FE01220E490520A2
:1040F0001AF0E2FE08210D481AF082FEBDE80840E1
:1041000009210B481AF0F6BDB83C0434803C043455
:10411000483C0434103C0434C83B0434803B043431
:10412000383B0434F03A0434A83A0434283A0434CE
:10413000043A043408B52C4900201BF023F82B491D
:1041400001201BF01FF82A4902201BF01BF8294907
:1041500003201BF017F8284900201BF063FA2749B9
:1041600001201BF05FFA264902201BF05BFA0122B6
:10417000244900201AF0A0FE0122234908201AF049
:104180009BFE0122214910461AF096FE0122204989
:1041900004201AF091FE01221E4902201AF08CFE22
:1041A00001221D4906201AF087FE01221B49092021
:1041B0001AF082FE01221A4907201AF07DFE012220
:1041C000184905201AF078FE0122174903201AF039
:1041D00073FE132115481AF013FEBDE808401121A3
:1041E00013481AF087BD00BF54380434183804341B
:1041F000DC370434A03704346837043430370434EF
:10420000F8360434B03604346836043420360434C6
:10421000D83504349035043448350434003504343A
:10422000B83404347034043428340434F832043498
:10423000B432043408B51E4901201AF0A3FF1D4909
:1042400002201AF09FFF1C4903201AF09BFF1B4914
:1042500003201BF0E7F90122194906201AF02CFE71
:104260000122184907201AF027FE012216490520CD
:104270001AF022FE0122154900201AF01DFE01222B
:10428000134902201AF018FE0122124903201AF0E5
:1042900013FE0122104909201AF00EFE0C210F48CE
:1042A0001AF0AEFDBDE808400B210D481AF022BD02
:1042B0008C3104345031043414310434DC3004348F
:1042C000943004344C30043404300434BC2F0434AF
:1042D000742F04342C2F0434E42E0434242E04349C
:1042E000F82D043408B5194900201AF04BFF18497D
:1042F00002201BF097F9174900201BF093F916498B
:1043000001201BF08FF90122144905201AF0D4FD79
:104310000122134902201AF0CFFD01221149042085
:104320001AF0CAFD0122104900201AF0C5FD012231
:104330000E4910461AF0C0FD08210D481AF060FD24
:10434000BDE8084009210B481AF0D4BC182D0434EC
:10435000E02C0434A82C0434702C0434282C0434AD
:10436000E02B0434982B0434502B0434082B0434F1
:10437000882A0434642A043408B5274900201AF036
:1043800001FF264901201AF0FDFE254902201AF0FE
:10439000F9FE244903201AF0F5FE234901201BF001
:1043A00041F9224903201BF03DF9214900201BF06F
:1043B00039F901221F4909201AF07EFD01221E4908
:1043C00005201AF079FD01221C4904201AF074FD21
:1043D00001221B4910461AF06FFD012219490020E5
:1043E0001AF06AFD0122184906201AF065FD012223
:1043F000164907201AF060FD0122154902201AF023
:104400005BFD112113481AF0FBFCBDE808400F21A9
:1044100011481AF06FBC00BFDC280434A028043413
:104420006428043428280434F0270434B8270434DA
:104430008027043438270434F0260434A8260434B2
:104440006026043418260434D02504348825043426
:104450004025043430240434F423043408B52349BB
:1044600001201AF08FFE224902201AF08BFE21490A
:1044700003201AF087FE204902201BF0D3F81F49C1
:1044800000201BF0CFF801221D4904201AF014FD72
:1044900001221C4906201AF00FFD01221A490820AA
:1044A0001AF00AFD0122194903201AF005FD012224
:1044B000174907201AF000FD0122164909201AF0B9
:1044C000FBFC0122144900201AF0F6FC01221349DA
:1044D00005201AF0F1FC0E2111481AF091FCBDE8FC
:1044E00008400D210F481AF005BC00BFA422043477
:1044F000682204342C220434F4210434BC21043412
:10450000742104342C210434E42004349C20043429
:10451000542004340C200434C41F04347C1F04349D
:104520009C1E0434681E043408B5194900201AF092
:1045300029FE184903201BF075F8174900201BF0CD
:1045400071F8164901201BF06DF80122144908206A
:104550001AF0B2FC0122134905201AF0ADFC012229
:10456000114907201AF0A8FC0122104910461AF040
:10457000A3FC01220E4904201AF09EFC08210D48DC
:104580001AF03EFCBDE8084009210B481AF0B2BB06
:10459000881D0434501D0434181D0434E01C0434F8
:1045A000981C0434501C0434081C0434C01B04340C
:1045B000781B0434F81A0434D41A043408B5274993
:1045C00000201AF0DFFD264901201AF0DBFD254905
:1045D00002201AF0D7FD244903201AF0D3FD234905
:1045E00001201BF01FF8224902201BF01BF8214973
:1045F00000201BF017F801221F4905201AF05CFC6F
:1046000001221E4902201AF057FC01221C490720F2
:104610001AF052FC01221B4906201AF04DFC01221F
:10462000194908201AF048FC0122184903201AF001
:1046300043FC0122164904201AF03EFC01221549D0
:1046400010461AF039FC112113481AF0D9FBBDE8C5
:1046500008400F2111481AF04DBB00BF4C1904341B
:1046600010190434D418043498180434601804342D
:1046700028180434F0170434A817043460170434DD
:1046800018170434D0160434881604344016043441
:10469000F8150434B0150434A0140434641404343C
:1046A00008B5234901201AF06DFD224902201AF0B5
:1046B00069FD214903201AF065FD204903201AF005
:1046C000B1FF1F4900201AF0ADFF01221D4906204D
:1046D0001AF0F2FB01221C4908201AF0EDFB01221E
:1046E0001A4905201AF0E8FB0122194910461AF070
:1046F000E3FB0122174900201AF0DEFB01221649D4
:1047000007201AF0D9FB0122144904201AF0D4FB27
:104710000122134909201AF0CFFB0E2111481AF08B
:104720006FFBBDE808400D210F481AF0E3BA00BF47
:1047300014130434D81204349C1204346412043464
:104740002C120434E41104349C1104345411043444
:104750000C110434C41004347C10043434100434B8
:10476000EC0F04340C0F0434D80E043408B5194986
:1047700000201AF007FD184901201AF053FF1749CD
:1047800000201AF04FFF164902201AF04BFF0122B9
:10479000144907201AF090FB0122134906201AF051
:1047A0008BFB0122114909201AF086FB01221049D6
:1047B00002201AF081FB01220E4900201AF07CFB36
:1047C00008210D481AF01CFBBDE8084009210B48E0
:1047D0001AF090BAF80D0434C00D0434880D043476
:1047E000500D0434080D0434C00C0434780C043427
:1047F000300C0434E80B0434680B0434440B0434E8
:1048000008B5274900201AF0BDFC264901201AF0FE
:10481000B9FC254902201AF0B5FC244903201AF0FE
:10482000B1FC234902201AF0FDFE224900201AF0B3
:10483000F9FE214903201AF0F5FE01221F49072045
:104840001AF03AFB01221E4904201AF035FB01221E
:104850001C4905201AF030FB01221B4906201AF0E2
:104860002BFB0122194900201AF026FB01221849CE
:1048700010461AF021FB0122164902201AF01CFBF7
:104880000122154908201AF017FB112113481AF0CC
:10489000B7FABDE808400F2111481AF02BBA00BF43
:1048A000BC0904348009043444090434080904347C
:1048B000D008043498080434600804341808043418
:1048C000D00704348807043440070434F80604345D
:1048D000B006043468060434200604341005043499
:1048E000D404043408B5194901201AF04BFC1849C6
:1048F00002201AF047FC174903201AF043FC16491E
:1049000001201AF08FFE0122144900201AF0D4FA77
:104910000122134906201AF0CFFA01221149022080
:104920001AF0CAFA0122104905201AF0C5FA01222C
:104930000E4908201AF0C0FA0A210D481AF060FA50
:10494000BDE8084009210B481AF0D4B9D403043457
:10495000980304345C03043424030434DC02043478
:10496000940204344C02043404020434BC010434C0
:104970001C010434F800043408B5124900201AF070
:1049800001FC114903201AF04DFE104900201AF0D5
:1049900049FE01220E4907201AF08EFA01220D4924
:1049A00008201AF089FA01220B4904201AF084FA2F
:1049B00005210A481AF024FABDE8084006210848F3
:1049C0001AF098B9540004341C000434E4FF033492
:1049D0009CFF033454FF03340CFF0334BCFE033448
:1049E000A4FE033408B5274900201AF0CBFB264962
:1049F00001201AF0C7FB254902201AF0C3FB244905
:104A000003201AF0BFFB234901201AF00BFE2249B4
:104A100002201AF007FE214900201AF003FE0122AD
:104A20001F4908201AF048FA01221E4900201AF0F6
:104A300043FA01221C4909201AF03EFA01221B49BF
:104A400003201AF039FA0122194906201AF034FA23
:104A50000122184910461AF02FFA012216490720A0
:104A60001AF02AFA0122154905201AF025FA102118
:104A700013481AF0C5F9BDE808400F2111481AF093
:104A800039B900BF2CFD0334F0FC0334B4FC03340B
:104A900078FC033440FC033408FC0334D0FB0334BB
:104AA00088FB033440FB0334F8FA0334B0FA0334D0
:104AB00068FA033420FA0334D8F9033490F9033444
:104AC00090F8033454F8033408B51C4900201AF058
:104AD00059FB1B4901201AF055FB1A4902201AF014
:104AE00051FB194903201AF04DFB012217490420FC
:104AF0001AF0E2F90122164903201AF0DDF9012229
:104B0000144900201AF0D8F90122134902201AF0A2
:104B1000D3F90122114910461AF0CEF901221049A9
:104B200006201AF0C9F90C210E481AF069F9BDE8FF
:104B300008400A210C481AF0DDB800BF30F70334F2
:104B4000F4F60334B8F603347CF6033434F6033455
:104B5000ECF50334A4F503345CF5033414F50334A5
:104B6000CCF403340CF40334E4F3033408B51E49E5
:104B700001201AF007FB1D4902201AF003FB1C4913
:104B800003201AF0FFFA1B4900201AF04BFD1A49C6
:104B900003201AF047FD0122184907201AF08CF96A
:104BA0000122174909201AF087F90122154902202C
:104BB0001AF082F90122144904201AF07DF9012229
:104BC000124908201AF078F90122114905201AF03B
:104BD00073F90C210F481AF013F9BDE808400B21B6
:104BE0000D481AF087B800BFBCF2033480F20334DA
:104BF00044F203340CF20334D4F103348CF1033463
:104C000044F10334FCF00334B4F003346CF00334A7
:104C100024F0033464EF033438EF033408B5124949
:104C200000201AF0AFFA114901201AF0FBFC1049DC
:104C300002201AF0F7FC01220E4905201AF03CF977
:104C400001220D4904201AF037F901220B490220F4
:104C50001AF032F905210A481AF0D2F8BDE80840E6
:104C6000062108481AF046B894EE03345CEE03348B
:104C700024EE0334DCED033494ED03344CED0334C3
:104C8000FCEC0334E4EC033408B5204900201AF0AE
:104C900079FA1F4901201AF075FA1E4902201AF00C
:104CA00071FA1D4903201AF06DFA1C4900201AF010
:104CB000B9FC1B4903201AF0B5FC01221949022056
:104CC0001AF0FAF80122184909201AF0F5F8012221
:104CD000164908201AF0F0F80122154900201AF0B0
:104CE000EBF80122134910461AF0E6F801221249A6
:104CF00006201AF0E1F80E2110481AF081F8BDE8FC
:104D000008400C210E4819F0F5BF00BF98EB0334A2
:104D10005CEB033420EB0334E4EA0334ACEA033401
:104D200074EA03342CEA0334E4E903349CE90334E1
:104D300054E903340CE90334C4E80334E4E70334EE
:104D4000B4E7033408B51E4901201AF01BFA1D49C7
:104D500002201AF017FA1C4903201AF013FA1B4913
:104D600001201AF05FFC1A4902201AF05BFC0122B4
:104D7000184903201AF0A0F80122174905201AF05B
:104D80009BF80122154902201AF096F801221449D5
:104D900008201AF091F80122124906201AF08CF826
:104DA0000122114909201AF087F80C210F481AF046
:104DB00027F8BDE808400B210D4819F09BBF00BF44
:104DC0008CE6033450E6033414E60334DCE50334A4
:104DD000A4E503345CE5033414E50334CCE4033484
:104DE00084E403343CE40334F4E3033434E3033471
:104DF00008E3033408B5124900201AF0C3F9114939
:104E000000201AF00FFC104903201AF00BFC0122BD
:104E10000E4908201AF050F801220D4904201AF01A
:104E20004BF801220B4902201AF046F805210A48E6
:104E300019F0E6FFBDE808400621084819F05ABFFE
:104E400064E203342CE20334F4E10334ACE10334D0
:104E500064E103341CE10334CCE00334B4E00334F4
:104E600008B5204900201AF08DF91F4901201AF0D9
:104E700089F91E4902201AF085F91D4903201AF00C
:104E800081F91C4901201AF0CDFB1B4902201AF0C0
:104E9000C9FB0122194907201AF00EF8012218490E
:104EA00002201AF009F80122164909201AF004F824
:104EB00001221549002019F0FFFF012213490820A3
:104EC00019F0FAFF01221249042019F0F5FF0E2112
:104ED000104819F095FFBDE808400C210E4819F064
:104EE00009BF00BF68DF03342CDF0334F0DE033476
:104EF000B4DE03347CDE033444DE0334FCDD0334EF
:104F0000B4DD03346CDD033424DD0334DCDC033432
:104F100094DC0334B4DB033484DB033408B51E496A
:104F200001201AF02FF91D4902201AF02BF91C4913
:104F300003201AF027F91B4900201AF073FB1A49C5
:104F400003201AF06FFB01221849092019F0B4FF61
:104F500001221749072019F0AFFF0122154900204F
:104F600019F0AAFF01221449022019F0A5FF01221D
:104F70001249082019F0A0FF01221149052019F05B
:104F80009BFF0C210F4819F03BFFBDE808400B21A7
:104F90000D4819F0AFBE00BF5CDA033420DA0334E9
:104FA000E4D90334ACD9033474D903342CD9033491
:104FB000E4D803349CD8033454D803340CD80334D5
:104FC000C4D7033404D70334D8D6033408B5124900
:104FD00000201AF0D7F8114902201AF023FB1049DB
:104FE00001201AF01FFB01220E49062019F064FF70
:104FF00001220D49042019F05FFF01220B49002016
:1050000019F05AFF05210A4819F0FAFEBDE80840D8
:105010000621084819F06EBE34D60334FCD503349B
:10502000C4D503347CD5033434D50334ECD40334F1
:105030009CD4033484D4033408B5204903201AF0E7
:10504000A1F81F4900201AF09DF81E4901201AF00E
:1050500099F81D4902201AF095F81C4903201AF00E
:10506000E1FA1B4900201AF0DDFA01221949022059
:1050700019F022FF01221849032019F01DFF012217
:105080001649104619F018FF01221549042019F09D
:1050900013FF01221349002019F00EFF01221249CB
:1050A000052019F009FF0E21104819F0A9FEBDE8EE
:1050B00008400C210E4819F01DBE00BF38D3033440
:1050C000FCD20334C0D2033484D203344CD2033430
:1050D00014D20334CCD1033484D103343CD103340F
:1050E000F4D00334ACD0033464D0033484CF03341D
:1050F00054CF033408B5154901201AF043F8144978
:1051000002201AF03FF8134901201AF08BFA01220D
:105110001149072019F0D0FE01221049052019F08D
:10512000CBFE01220E49032019F0C6FE01220D49D3
:10513000022019F0C1FE07210B4819F061FEBDE8FD
:1051400008400721094819F0D5BD00BF8CCE0334B3
:1051500050CE033418CE0334D0CD033488CD03347D
:1051600040CD0334F8CC033488CC03346CCC033406
:1051700008B5124900201AF005F8114902201AF06A
:1051800051FA104900201AF04DFA01220E49002070
:1051900019F092FE01220D49092019F08DFE01221D
:1051A0000B49062019F088FE05210A4819F028FE4F
:1051B000BDE808400621084819F09CBDC8CB03345F
:1051C00090CB033458CB033410CB0334C8CA033418
:1051D00080CA033430CA033418CA033408B52749D7
:1051E000022019F0CFFF2649002019F0CBFF2549F6
:1051F000012019F0C7FF2449032019F0C3FF2349F8
:1052000001201AF00FFA224903201AF00BFA214963
:1052100000201AF007FA01221F49062019F04CFE5F
:1052200001221E49092019F047FE01221C490520D0
:1052300019F042FE01221B49032019F03DFE012214
:105240001949082019F038FE01221849002019F0E8
:1052500033FE01221649104619F02EFE012215498F
:10526000042019F029FE0F21134819F0C9FDBDE8EB
:1052700008400F21114819F03DBD00BFB0C80334EC
:1052800074C8033438C80334FCC70334C4C70334B8
:105290008CC7033454C703340CC70334C4C6033467
:1052A0007CC6033434C60334ECC50334A4C50334CC
:1052B0005CC5033414C5033424C40334E8C3033485
:1052C00008B51949032019F05DFF1849012019F0AC
:1052D00059FF174900201AF0A5F9164902201AF0C3
:1052E000A1F901221449052019F0E6FD0122134914
:1052F000104619F0E1FD01221149032019F0DCFDEF
:1053000001221049002019F0D7FD01220E49062084
:1053100019F0D2FD09210D4819F072FDBDE80840D1
:1053200009210B4819F0E6BCF8C20334BCC20334AF
:1053300084C203344CC2033404C20334BCC10334FA
:1053400074C103342CC10334E4C0033454C00334A7
:1053500030C0033408B51249002019F013FF114979
:1053600001201AF05FF9104903201AF05BF90122BD
:105370000E49072019F0A0FD01220D49022019F065
:105380009BFD01220B49042019F096FD05210A48D6
:1053900019F036FDBDE808400621084819F0AABCFE
:1053A0008CBF033454BF03341CBF0334D4BE033456
:1053B0008CBE033444BE0334F4BD0334DCBD03347B
:1053C00008B51749012019F0DDFE1649022019F031
:1053D000D9FE154900201AF025F9144902201AF0C7
:1053E00021F901221249042019F066FD0122114918
:1053F000082019F061FD01220F49002019F05CFD21
:1054000001220E49052019F057FD08210C4819F01A
:10541000F7FCBDE8084008210A4819F06BBC00BF42
:1054200000BD0334C4BC03348CBC033454BC03340B
:105430000CBC0334C4BB03347CBB033434BB033423
:10544000B4BA033494BA033408B51949032019F0E7
:1054500099FE1849002019F095FE174901201AF00D
:10546000E1F8164903201AF0DDF80122144908205A
:1054700019F022FD01221349092019F01DFD012216
:105480001149022019F018FD01221049032019F0DA
:1054900013FD01220E49062019F00EFD09210D48C9
:1054A00019F0AEFCBDE8084009210B4819F022BCF8
:1054B000A4B9033468B9033430B90334F8B80334F9
:1054C000B0B8033468B8033420B80334D8B7033411
:1054D00090B7033400B70334DCB6033408B512497F
:1054E000022019F04FFE114902201AF09BF81049D2
:1054F00000201AF097F801220E49002019F0DCFC78
:1055000001220D49062019F0D7FC01220B49082081
:1055100019F0D2FC05210A4819F072FCBDE80840D8
:105520000621084819F0E6BB38B6033400B6033448
:10553000C8B5033480B5033438B50334F0B403344C
:10554000A0B4033488B4033408B51749012019F016
:1055500019FE1649002019F015FE154903201AF00E
:1055600061F8144901201AF05DF801221249052062
:1055700019F0A2FC01221149042019F09DFC01221E
:105580000F49092019F098FC01220E49032019F057
:1055900093FC08210C4819F033FCBDE808400821B1
:1055A0000A4819F0A7BB00BFACB3033470B303348F
:1055B00038B3033400B30334B8B2033470B20334E5
:1055C00028B20334E0B1033460B1033440B1033492
:1055D00008B51549022019F0D5FD1449032019F02A
:1055E000D1FD134900201AF01DF8012211490020B5
:1055F00019F062FC01221049082019F05DFC01221B
:105600000E49062019F058FC01220D49032019F01B
:1056100053FC07210B4819F0F3FBBDE808400721B4
:10562000094819F067BB00BF78B003343CB00334BD
:1056300004B00334BCAF033474AF03342CAF033471
:10564000E4AE033474AE033458AE033408B51249E3
:10565000002019F097FD1149012019F0E3FF1049CE
:10566000022019F0DFFF01220E49052019F024FC69
:1056700001220D49002019F01FFC01220B490220D4
:1056800019F01AFC05210A4819F0BAFBBDE80840D8
:105690000621084819F02EBBB4AD03347CAD0334A9
:1056A00044AD0334FCAC0334B4AC03346CAC03340D
:1056B0001CAC033404AC033408B51249012019F0C2
:1056C00061FD1149032019F0ADFF1049002019F0C8
:1056D000A9FF01220E49092019F0EEFB01220D4914
:1056E000032019F0E9FB01220B49022019F0E4FB29
:1056F00005210A4819F084FBBDE808400621084846
:1057000019F0F8BA60AB033428AB0334F0AA0334C1
:10571000A8AA033460AA033418AA0334C8A903341E
:10572000B0A9033408B52249022019F02BFD214904
:10573000032019F027FD2049012019F073FF1F49AC
:10574000022019F06FFF1E49002019F01BFD1D49B2
:10575000002019F067FF01221B49002019F0ACFB63
:1057600001221A49092019F0A7FB01221849052036
:1057700019F0A2FB01221749104619F09DFB0122E6
:105780001549022019F098FB01221449032019F051
:1057900093FB01221249062019F08EFB0D211148BE
:1057A00019F02EFBBDE808400D210F4819F0A2BAF0
:1057B00070A8033434A80334FCA70334C4A703340B
:1057C00088A7033450A7033408A70334C0A60334C2
:1057D00078A6033430A60334E8A50334A0A5033427
:1057E00058A5033488A4033454A4033408B51249DB
:1057F000012019F0C7FC1149032019F013FF1049CB
:10580000002019F00FFF01220E49052019F054FB6A
:1058100001220D49062019F04FFB01220B490020FF
:1058200019F04AFB05210A4819F0EAFABDE80840D8
:105830000621084819F05EBAB0A3033478A30334F4
:1058400040A30334F8A20334B0A2033468A20334A3
:1058500018A2033400A2033408B51249002019F03D
:1058600091FC1149022019F0DDFE1049012019F0C8
:10587000D9FE01220E49032019F01EFB01220D4919
:10588000092019F019FB01220B49082019F014FB1B
:1058900005210A4819F0B4FABDE808400621084875
:1058A00019F028BA5CA1033424A10334ECA003341A
:1058B000A4A003345CA0033414A00334C49F0334B5
:1058C000AC9F033408B51E49022019F05BFC1D494A
:1058D000032019F057FC1C49002019F053FC1B4908
:1058E000012019F04FFC1A49002019F09BFE0122FB
:1058F0001849062019F0E0FA01221749104619F05C
:10590000DBFA01221549002019F0D6FA01221449C8
:10591000072019F0D1FA01221249092019F0CCFA16
:1059200001221149022019F0C7FA0D210F4819F080
:1059300067FABDE808400B210D4819F0DBB900BF3C
:10594000749E0334389E0334FC9D0334C09D03349D
:10595000889D0334409D0334F89C0334B09C033489
:10596000689C0334209C0334D89B0334089B033485
:10597000DC9A033408B51249012019F003FC1149DF
:10598000032019F04FFE1049012019F04BFE0122AF
:105990000E49062019F090FA01220D49032019F052
:1059A0008BFA01220B49002019F086FA05210A48DA
:1059B00019F026FABDE808400621084819F09AB9FE
:1059C000389A0334009A0334C89903348099033415
:1059D00038990334F0980334A0980334889803343A
:1059E00008B51249002019F0CDFB1149022019F029
:1059F00019FE1049002019F015FE01220E4910462B
:105A000019F05AFA01220D49002019F055FA012225
:105A10000B49072019F050FA05210A4819F0F0F94E
:105A2000BDE808400621084819F064B9E49703343A
:105A3000AC970334749703342C970334E4960334FF
:105A40009C9603344C9603343496033408B51549B8
:105A5000022019F097FB1449032019F093FB134916
:105A6000012019F0DFFD01221149104619F024FA36
:105A700001221049042019F01FFA01220E490820C2
:105A800019F01AFA01220D49062019F015FA07211A
:105A90000B4819F0B5F9BDE808400721094819F08D
:105AA00029B900BF6C95033430950334F89403345E
:105AB000B09403346894033420940334D8930334AB
:105AC000689303344C93033408B51249012019F04C
:105AD00059FB1149032019F0A5FD1049002019F0C8
:105AE000A1FD01220E49082019F0E6F901220D4915
:105AF000042019F0E1F901220B49104619F0DCF9F4
:105B000005210A4819F07CF9BDE80840062108483B
:105B100019F0F0B8A8920334709203343892033429
:105B2000F0910334A891033460910334109103344D
:105B3000F890033408B51249002019F023FB1149ED
:105B4000012019F06FFD1049022019F06BFD0122B0
:105B50000E49002019F0B0F901220D49062019F074
:105B6000ABF901220B49072019F0A6F905210A48D3
:105B700019F046F9BDE808400621084819F0BAB8FE
:105B8000549003341C900334E48F03349C8F03340B
:105B9000548F03340C8F0334BC8E0334A48E03342F
:105BA00010B5E8B04FF4D072002168461CF0CEF971
:105BB0004FF440744FF4C0402D23CDE90504099003
:105BC000324818220A9040208DF800300123CDE998
:105BD0000C004FF4C0644FF4C030CDE90323CDE98D
:105BE0000723CDE90E23CDE91223294A2021209253
:105BF000A2F540722B9202F54472CDE91004149084
:105C0000369210200422234CCDE901118DF82C305E
:105C10008DF858301B938DF88430269331938DF88E
:105C2000DC301594CDE94333CDE94A20CDE9480075
:105C30001948CDE945234C900820CDE95D32CDE9E6
:105C40005003CDE94E33CDE95933CDE95B33134BE6
:105C5000CDE952016293124BCDE9541264930223B1
:105C60008DF89C31032356910E496846CDE95F2299
:105C70004792579161928DF89D311BF04BF9204668
:105C80000949FCF785FC68B010BD00BF00002E3448
:105C90009038627000003134003562708035627077
:105CA000000040BFB03462700080323470B5E8B09C
:105CB0004FF4D072002168461CF048F94FF40051AF
