:0200000470107A
:1000000053544D32000000000000000000000000CA
:1000100000000000000000000000000000000000E0
:1000200000000000000000000000000000000000D0
:1000300000000000000000000000000000000000C0
:1000400000000000000000000000000000000000B0
:1000500000000000000000000000000000000000A0
:100060000000000083462D02000302000067060026
:100070007524023400000000FFFFFFFF00000000B5
:100080000000000000000080A0010000000000004F
:100090000000000000000000000000000000000060
:1000A0005354FFFFA00100004B3AF76E89A42C3097
:1000B000671E3E39AA9DD335FE6DD4432C99C62EBA
:1000C0007FDAA4469827713F369CF5FB3F2DFC0153
:1000D0009AD5B9772324CC46ECECF09409B853E1D7
:1000E000D3F1361377F18F4F1121EEDB7487FFB414
:1000F000E02387EFDE6874DDF73AB7F28411558BA1
:10010000C0E5E1EB6564BBC1173F5EC951C5941AF8
:100110004D7A5B1820242E8465DBEEB557413C43B5
:10012000FE58E00A5E512F62E161ED90AD6C1CB7A4
:10013000DF488FF30C167E5426B733FA858029BB2F
:10014000526193203F51EE9D9D1EDA0D2C86925CEC
:10015000CD3AB22770FADE5F55B2E03AED8EAF7756
:10016000A08CC9A793F38D6131814F083D19BD71F2
:10017000606D1EA223F9BDD97677E07C2BB3E57DB7
:10018000F5D0070B8C5828FF1A6F0841DC920EDC63
:10019000F3E3AA7EF13AA05BF9FF318B420465B02C
:1001A000F0B9AFB7D676F3A565F661A82044364915
:1001B00096A788662CC6ECD932BBE977D38A440B64
:1001C000BE2B885B58F8495D1CFC2553D39013085F
:1001D0003CBD2EA43B3A8B70882E452F19E6A1BE5C
:1001E0003BAA8C9C642C9D7F3DC53A8E616FC6D91D
:1001F00003AD719D55E5F7FA11EEF355E00EF21ED1
:1002000079C332F4807D098F9ED2D8CFFA06D2937B
:10021000D3C1C5F52E0B9968EA8054B9E57D3CA49D
:1002200002CA87FE301E505CBEE15BDC88CA92A425
:10023000FE9EBF711201FCF0977D57AA59EA0B137D
:1002400000000000000000000000000000000000AE
:10025000000000000000000000000000000000009E
:10026000000000000000000000000000000000008E
:10027000000000000000000000000000000000007E
:10028000000000000000000000000000000000006E
:10029000000000000000000000000000000000005E
:1002A000000000000000000000000000000000004E
:1002B000000000000000000000000000000000003E
:1002C000000000000000000000000000000000002E
:1002D000000000000000000000000000000000001E
:1002E000000000000000000000000000000000000E
:1002F00000000000000000000000000000000000FE
:1003000000000000000000000000000000000000ED
:1003100000000000000000000000000000000000DD
:1003200000000000000000000000000000000000CD
:1003300000000000000000000000000000000000BD
:1003400000000000000000000000000000000000AD
:10035000000000000000000000000000000000009D
:10036000000000000000000000000000000000008D
:10037000000000000000000000000000000000007D
:10038000000000000000000000000000000000006D
:10039000000000000000000000000000000000005D
:1003A000000000000000000000000000000000004D
:1003B000000000000000000000000000000000003D
:1003C000000000000000000000000000000000002D
:1003D000000000000000000000000000000000001D
:1003E000000000000000000000000000000000000D
:1003F00000000000000000000000000000000000FD
:1004000000001034752402347D2500348125003429
:1004100091250034A1250034B1250034C1250034D4
:10042000000000000000000000000000D1250034A2
:10043000D325003400000000D5250034D725003432
:10044000D124023400000000D1240234D12402342B
:10045000D1240234D1240234D1240234D1240234F0
:10046000D124023400000000D1240234D12402340B
:10047000D1240234A91F0034D1240234000000002A
:10048000D124023400000000D1240234D1240234EB
:10049000D1240234D1240234D1240234D1240234B0
:1004A000D1240234D1240234D1240234D1240234A0
:1004B000D1240234D1240234D1240234D124023490
:1004C000D1240234D1240234D1240234D124023480
:1004D000D1240234D1240234D1240234D124023470
:1004E000D124023400000000D1240234D12402348B
:1004F000D1240234D1240234D1240234DB25003447
:10050000E9250034000000000000000000000000A9
:10051000D1240234050D0234D1240234D124023412
:10052000D1240234D1240234D1240234D12402341F
:10053000D1240234D1240234D1240234D12402340F
:10054000D1240234D1240234D1240234D1240234FF
:10055000D1240234D1240234D1240234D1240234EF
:1007400000000000D1240234D12402340000000053
:1007500010B5054C237833B9044B13B10448AFF3FB
:1007600000800123237010BD3869063400000000AA
:10077000C8E0023408B5034B1BB103490348AFF38B
:10078000008008BD000000003C690634C8E0023467
:10079000034613F8012B002AFBD1181A01387047C1
:1007A00081F0004102E000BF83F0004330B54FEA22
:1007B00041044FEA430594EA050F08BF90EA020F8F
:1007C0001FBF54EA000C55EA020C7FEA645C7FEA22
:1007D000655C00F0E2804FEA5454D4EB5555B8BF45
:1007E0006D420CDD2C4480EA020281EA030382EAB6
:1007F000000083EA010180EA020281EA0303362D48
:1008000088BF30BD11F0004F4FEA01314FF4801C1A
:100810004CEA113102D0404261EB410113F0004F2C
:100820004FEA03334CEA133302D0524263EB4303E3
:1008300094EA050F00F0A780A4F10104D5F1200E81
:100840000DDB02FA0EFC22FA05F2801841F10001DC
:1008500003FA0EF2801843FA05F359410EE0A5F1B0
:1008600020050EF1200E012A03FA0EFC28BF4CF0E1
:10087000020C43FA05F3C01851EBE37101F0004597
:1008800007D54FF0000EDCF1000C7EEB00006EEBA4
:100890000101B1F5801F1BD3B1F5001F0CD349082E
:1008A0005FEA30004FEA3C0C04F101044FEA445285
:1008B00012F5800F80F09A80BCF1004F08BF5FEA0C
:1008C000500C50F1000041EB045141EA050130BDEC
:1008D0005FEA4C0C404141EB0101013C28BFB1F5FE
:1008E000801FE9D291F0000F04BF01460020B1FA49
:1008F00081F308BF2033A3F10B03B3F120020CDA1C
:100900000C3208DD02F1140CC2F10C0201FA0CF0F9
:1009100021FA02F10CE002F11402D8BFC2F1200C5E
:1009200001FA02F120FA0CFCDCBF41EA0C01904014
:10093000E41AA2BF01EB0451294330BD6FEA04045D
:100940001F3C1CDA0C340EDC04F11404C4F1200248
:1009500020FA04F001FA02F340EA030021FA04F35A
:1009600045EA030130BDC4F10C04C4F1200220FAB1
:1009700002F001FA04F340EA0300294630BD21FAEF
:1009800004F0294630BD94F0000F83F4801306BFB5
:1009900081F480110134013D4EE77FEA645C18BFA9
:1009A0007FEA655C29D094EA050F08BF90EA020F40
:1009B00005D054EA000C04BF1946104630BD91EA38
:1009C000030F1EBF0021002030BD5FEA545C05D13B
:1009D0004000494128BF41F0004130BD14F580047A
:1009E0003CBF01F5801130BD01F0004545F0FE41EE
:1009F00041F470014FF0000030BD7FEA645C1ABF23
:100A0000194610467FEA655C1CBF0B46024650EA59
:100A1000013406BF52EA033591EA030F41F4002185
:100A200030BD00BF90F0000F04BF0021704730B50B
:100A30004FF4806404F132044FF000054FF00001E0
:100A400050E700BF90F0000F04BF0021704730B5A1
:100A50004FF4806404F1320410F0004548BF404276
:100A60004FF000013EE700BF42004FEAE2014FEACB
:100A700031014FEA02701FBF12F07F4393F07F4FA6
:100A800081F06051704732F07F4208BF704793F0A9
:100A90007F4F04BF41F40021704730B54FF46074BC
:100AA00001F0004521F000411CE700BF50EA0102BF
:100AB00008BF704730B54FF000050AE050EA010268
:100AC00008BF704730B511F0004502D5404261EBD8
:100AD00041014FF4806404F132045FEA915C3FF419
:100AE000D8AE4FF003025FEADC0C18BF03325FEAB6
:100AF000DC0C18BF033202EBDC02C2F1200300FA67
:100B000003FC20FA02F001FA03FE40EA0E0021FA8B
:100B100002F11444BDE600BF7BB972B90029BEBF23
:100B200000204FF0004106E008BF00281CBF6FF016
:100B300000414FF0FF3000F035BAADF1080C6DE91F
:100B400004CE002909DB002B1ADB00F085F8DDF864
:100B500004E0DDE9022304B07047404261EB41014B
:100B6000002B1BDB00F078F8DDF804E0DDE9022360
:100B700004B0404261EB4101524263EB43037047D2
:100B8000524263EB430300F067F8DDF804E0DDE96F
:100B9000022304B0404261EB41017047524263EBD3
:100BA000430300F059F8DDF804E0DDE9022304B066
:100BB000524263EB4303704753B94AB9002908BF57
:100BC00000281CBF4FF0FF314FF0FF3000F0EAB9B2
:100BD000ADF1080C6DE904CE00F03EF8DDF804E05C
:100BE000DDE9022304B07047024608B50B4643EC2A
:100BF000172BB5EEC07BF1EE10FA03D4BDE8084028
:100C000000F00AB8B1EE477B51EC170B00F004F886
:100C1000404261EB410108BD9FED0B6B41EC170BAE
:100C20009FED0B5B27EE066BBCEEC66BB8EE464B3A
:100C300016EE101AA4EE457BFCEEC77B17EE900A69
:100C4000704700BFAFF30080000000000000F03DDF
:100C5000000000000000F0412DE9F04F8C46099E95
:100C600004460F46002B48D18A4215465ED9B2FA97
:100C700082F33BB1C3F120029F409D409C4020FA8B
:100C800002F217434FEA154E1FFA85FC220CB7FB00
:100C9000FEF10EFB117701FB0CF042EA0742904295
:100CA00007D9AA1801F1FF3702D2904200F2588109
:100CB0003946121AA4B2B2FBFEF00EFB102200FB62
:100CC0000CFC44EA0244A4450BD92C1900F1FF3274
:100CD0002CBF01270027A44502D9002F00F0438133
:100CE000104640EA0140A4EB0C0400211EB1DC4098
:100CF0000023C6E90043BDE8F08F8B4206D90EB150
:100D0000C6E9000100210846BDE8F08FB3FA83F17F
:100D1000002951D16345C0F01681824240F213810F
:100D20000846002EE7D0C6E90047E4E7002A00F0B5
:100D3000AF80B2FA82F3002B40F0C2808A1A4FEAE9
:100D4000154EAFB20121200CB2FBFEFC0EFB1C22A3
:100D500040EA024207FB0CF090420ED9AA180CF1AF
:100D6000FF382CBF4FF001094FF00009904203D922
:100D7000B9F1000F00F0F080C446121AA4B2B2FB21
:100D8000FEF00EFB102200FB07F744EA0244A742E4
:100D90000ED92C1900F1FF322CBF4FF0010E4FF08D
:100DA000000EA74203D9BEF1000F00F0D28010461A
:100DB000E41B40EA0C4099E7C1F120058B400CFA96
:100DC00001F400FA01F922FA05F72CFA05FC8A4031
:100DD0001F4320FA05F3380C23431FFA87FE1C0C2F
:100DE000BCFBF0F800FB18CC44EA0C4408FB0EFCFA
:100DF000A4450ED93C1908F1FF3A2CBF4FF0010B66
:100E00004FF0000BA44503D9BBF1000F00F0B880F0
:100E1000D046A4EB0C041FFA83FCB4FBF0F300FBF8
:100E2000134403FB0EFE4CEA0444A6450ED93C19BC
:100E300003F1FF302CBF4FF0010C4FF0000CA64522
:100E400003D9BCF1000F00F09F80034643EA08403D
:100E5000A4EB0E04A0FB02EC64457346E04602D30B
:100E600007D1F14505D2BEEB02036CEB070C01384C
:100E7000E0465EB1B9EB030264EB080404FA05F541
:100E800022FA01F3CC401D43C6E90054002132E7A9
:100E900042082F464B08AC4642EAC172AE46C40730
:100EA000110C92B241EA034142EA0142B1FBF5F171
:100EB000B3FBF5F01F23A2EB0C0241EA004142E72D
:100EC0009D40C3F1200299409C402CFA02FC4FEA5D
:100ED000154E20FA02F2AFB2BCFBFEF80A430EFB3D
:100EE00018CC110C41EA0C4108FB07FC8C4550D989
:100EF000691808F1FF302CBF4FF001094FF00009CD
:100F00008C4502D9B9F1000F30D0A1EB0C01B1FB37
:100F1000FEF808FB07FC0EFB181192B242EA0142F0
:100F2000624534D2AA1808F1FF312CBF4FF00109F5
:100F30004FF000096245BED2B9F1000FBBD1A8F154
:100F400002012A44B7E7841A6CEB0302012017461A
:100F5000E7E62C4402382BE7ACF1020C2A440CE7FC
:100F600002392A44A5E62C440238BAE6A5EB0C0C5B
:100F7000A8F102006144B1FBFEF808FB07FCCAE7D8
:100F8000A8F102083C4444E7023B3C445EE741468A
:100F900091E7A1EB0C014046B1FBFEF808FB07FC12
:100FA000B9E700BF704700BF044B82B0C3F84C0ADA
:100FB000D3F84C320193019B02B070470080025677
:100FC000044B82B0C3F88C0AD3F88C320193019B96
:100FD00002B0704700800256044B82B0C3F8A00AEA
:100FE000D3F8A0320193019B02B0704700800256F3
:100FF000F0B5134C056822680E68AA42C8BF0260AB
:1010000063680F689F42A768B8BF0B603A440768DF
:10101000974224BF02F1FF320260E26813440A687B
:101020009A4224BF03F1FF330B600368AB4204D143
:101030000868801B18BF0120F0BD0120FCE700BF3D
:10104000F04206340A4BD3ED027AF8EE677A67EE87
:10105000807AFDEEE77AC0ED007AD3ED037AF8EE00
:10106000677A67EEA07AFDEEE77AC1ED007A704705
:10107000F04206340E4BD3ED027AB8EE677AD3ED28
:10108000007AF8EE677AE7EE007AFDEEE77AC0EDD7
:10109000007AD3ED037AB8EE677AD3ED017AF8EEF1
:1010A000677AE7EE207AFDEEE77AC1ED007A7047C5
:1010B000F042063470B5ADF51A7D40220021684635
:1010C00022F0C0F89822002110A822F0BBF84FF4BB
:1010D000C872002136A822F0B5F8012012F01EFFD8
:1010E0000125002319227D210226CDE91D32CDE9FB
:1010F00025150822E121CDE91A63CDE92163CDE967
:101100002323CDE92932CDE92B31CDE92F63CDE978
:1011100031231093062310A8CDE91F55CDE927569A
:10112000CDE92D56CDE934331C9633910CF06AFB92
:1011300000B1FEE74FF440337F22CDE900234FF0AA
:10114000407302934FF08053CDE90C354FF00053BC
:10115000CDE90E354FF48013CDE90805CDE90A0637
:10116000CDE90330CDE90500079068460CF044FF57
:1011700000B1FEE7084B002261934FF44003CDE934
:101180003623064B36A862930DF0B0FA00B1FEE7A5
:101190000DF51A7D70BD00BF140000031404000398
:1011A0007FB5CDE9041004A905A8CDE90232FFF707
:1011B0001FFF02A903A8FFF71BFFDDE90410089B2E
:1011C0000093DDE902321DF03FFD07B000BD0000D5
:1011D0002DE9F04F2DED048B484AE5B0136843F438
:1011E00000531360464B1A6A22F440321A621A6A9C
:1011F00022F040721A6206F0FBFE424B5A6912F46A
:10120000003211D1BFF34F8FBFF36F8FC3F850225D
:10121000BFF34F8FBFF36F8F5A6942F400325A61A8
:10122000BFF34F8FBFF36F8F344A136843F480537B
:101230001360A2F57342536913F4803328D1C2F8C6
:101240008430BFF34F8F43F6E074D2F88030C3F39D
:10125000C900C3F34E335B0100F1010E01464EF0AD
:1012600001E003EA040646EA8175C2F860520139DA
:101270000FF007C8203B13F1200FEDD1BFF34F8FC4
:10128000536943F480335361BFF34F8FBFF36F8FC4
:10129000FFF710FF10231A4C4FF00208C4F86C3A05
:1012A000D4F86C124FF001091091109AC4F85C3A0E
:1012B000D4F85C2214480F920F9B60232C930723D1
:1012C0002CA93093CDE92D89CDF8BC8009F052FDD1
:1012D0000E4A0F4B0C2513604FF4E133536000238B
:1012E000C2E90435C2E9023393614FF4004310466A
:1012F000D3610AF04DFC054660B1FEE700E001E075
:101300000080025600ED00E00010025664A0063492
:10131000001000524FF0004AC4F860AAD4F86022CE
:10132000484612924FF48052129BB74BC4F820AA41
:10133000C3F820A2FFF738FE4046FFF735FE042031
:10134000FFF732FE0820FFF72FFEC4F8542AD4F826
:101350005402CDE92D5511901199AC492CA82C912E
:101360000BF034FFAA492CA82C910BF02FFFA949B0
:101370002CA82C910BF02AFFA7492CA82C910BF03C
:1013800025FF00F09BFE01F08BF9284614F0D6FCF7
:10139000284614F0F7FD40F201114FF4007B0326BC
:1013A00018AF39802846394614F084FB284614F0DB
:1013B000F1FAC4F858BAD4F85802CDF8B0801390B6
:1013C000139948462CA92D960BF026FE08202CA92F
:1013D0000BF022FE09202CA90BF01EFE0A202CA9DE
:1013E0000BF01AFE0B202CA90BF016FE31468B4891
:1013F0000BF068FE31468A480BF064FE314689489E
:101400000BF060FE314688480BF05CFE31468748A1
:101410000BF058FE314686480BF054FE31468548A5
:101420000BF050FE4FF480614FF48052C4F8581A0C
:10143000D4F858C2744BCDF850C01498C4F8181A98
:101440002020C3F81812FFF7C7FD1046FFF7C4FDB0
:101450005046FFF7C1FD4FF08040FFF7BDFDC4F8D7
:10146000BC8AD4F8BC22404617920422179BFFF78F
:10147000B3FDC4F8BC2AD4F8BC1258461691169B8A
:101480004023C4F8BC3AD4F8BC120DF1300B1591CE
:10149000159BFFF795FD8020FFF792FD4FF48070BC
:1014A000FFF78EFD4846FFF78BFD4046FFF788FDAE
:1014B0001046FFF785FD0820FFF782FD5E4821F00A
:1014C000A7FD5E4A5E495F4821F03AFD5E4A5F49EA
:1014D0005F4821F035FD32464B460E215D4821F034
:1014E0002FFD32462B4649465B4821F029FD2B460D
:1014F0002A463146594821F023FD5949594821F0DF
:101500001FFD5949594821F01BFD0DF128084A4893
:101510000BAE21F07DFDC8F800503560CBF80050CF
:101520000D951FF0A2FC30B14FF4C371504B514ADE
:10153000514820F0CFFF514804F022FE20B140F284
:1015400089114B4B4B4AF3E74C482CA904F05AFE47
:1015500020B14FF4C671464B464AE9E7BDF8E0308A
:10156000012B04D040F28D11454B424AE0E7336035
:101570003B9B44491B68414838AA089304F03CFE51
:1015800020B140F293113A4B3A4AD1E732465946DC
:101590003A4804F034FEB8B93268282402F1010E4A
:1015A0004EF001E03C990DABBEF1010E11D10123CB
:1015B00035483B600EAC236006F0B6FA80B14FF4BC
:1015C000D3712B4B314AB3E740F29711284B294A8C
:1015D000AEE704FB00F28A58013043F8042BE3E73E
:1015E00029482CA906F0E2FA20B140F2A911204BBB
:1015F000264A9DE7BDF8E030012B4BD04FF4D57162
:10160000234B224A94E700BF009002560031025259
:101610008031025200320252803202520A000030FF
:10162000050000301C0000201D00002006000030D6
:101630000700003008000030CCE30234F5E3023448
:10164000F9E3023405E4023434E402343DE40234C4
:1016500049E4023463E402347BE402348DE402346E
:10166000A7E40234DCE40234EAE4023406E502349E
:1016700016E50234831B03342AE5023400A0063445
:1016800035E502345CA00634C09F0634731B033476
:1016900048E50234BDF8E230012B04D040F2AB1132
:1016A0009C4B9D4A44E73B9B1A6843F290339A4215
:1016B00004D04FF4D671994B974A39E73C9B1B688D
:1016C000082B04D040F2AD11954B934A30E72246E7
:1016D0009449954806F064FA20B14FF4D871934BC1
:1016E0008D4A25E72368012B04D040F2B111904BBD
:1016F000894A1DE73A468F498B4806F054FA20B1D3
:101700004FF4DA71894B844A12E73D68012D40F0AD
:10171000EA803C9B00211A68874B88481A601C228B
:1017200021F090FD3946864804F06CFD04460028FF
:1017300040F0DE803946834800F09EFD82481AF072
:101740003AF906F073FC814F814B424618603946E6
:10175000381F1AF0D3FB2946204614F039F8A7F1B8
:101760000C0357F8081CDB68DFF828920B44C9F813
:101770000C30022357F80C0C57F8042C754F024418
:10178000C9F80000C9F80810C9F8042021464A46E3
:101790002046C9F81030C9F8147014F025F86E4BC3
:1017A000186859689A68DB6802440B44C9F80C3021
:1017B0000423C9F81030694BC9F80000C9F80810B3
:1017C000C9F8042029464A462046C9F8143014F0C6
:1017D0000BF863481CF0F8FF28461DF029F8204656
:1017E0001DF06CFB5F481DF059F84FF0FF301DF005
:1017F00045F85D495D485E4B5E4A00F0EBFD2146D1
:1018000038461AF0DDFB1AF003FCD8F8003004214A
:10181000B3F5407F14BF584B584B18681AF0E4FBDF
:10182000574B1A68002AFCD000221A60D8F8003002
:10183000B3F5407F4CD0504B1A6802F01F03BFF342
:101840004F8F03F1030E1C3B4FEA5E1E20330EF157
:10185000010ED8BF4FF0010E4EF001E04949C1F82A
:101860005C2220320FF005C8BFF34F8FBFF36F8F9C
:101870004FF480730322CDE90032404C3E48D8F843
:101880000020216800681AF07DF8089B002B1FDDFE
:101890002368089903F01F020A44BFF34F8F6FEAD1
:1018A000030E98188644203A4FEA5E1E20320EF14D
:1018B000010ED8BF4FF0010E4EF001E03149C1F8E2
:1018C000703220330FF005C8BFF34F8FBFF36F8F17
:1018D00006F0ACFB09900221194804F069FC1128BC
:1018E0000AD120BFF7E740F2B511274B0A4A1FE69D
:1018F000E3210E4B254A1BE610380128EBD910488E
:1019000004F0D0FC0546002846D040F26F11074B8A
:101910001F4A0DE671E50234731B03349CE5023463
:10192000DAE5023464690634C09F063416E50234F1
:101930001AE60234606906345C690634789F06341E
:1019400000A00634FCA006346C690634FC42063460
:101950006869063400701791E04206340000009177
:10196000781005346467063445100034F10F0034F4
:10197000A11100347510003440A006345CA0063478
:1019800060A0063400ED00E042E60234961B03340A
:10199000651B033444A0063406F048FB8246284603
:1019A0000DAC3168814200F2C080984B984A58468D
:1019B00000F070FC0023974C4FF000092380236156
:1019C0004023C4E9053311233168DBF8002020628D
:1019D000C4F80490C4F80890C4F80C90E36161B3B3
:1019E0005AB30D98002828DD114611F9013B02EB8E
:1019F000000EAEEB010E0EF1010E1A464EF001E0A4
:101A0000BEF1010E40F0B8808049237091ED037A59
:101A100091F9101062705B1A07EE903AF8EEE77ACF
:101A200067EE877A531AC4ED017A07EE903AF8EE22
:101A3000E77A67EE877AC4ED027A754F3B6803B3A5
:101A40000022DFED757A1046DFED746A112193ED07
:101A5000027AF4EEC77AF1EE10FAB4EEE67A44BFF9
:101A6000F0EE477A0120F1EE10FAA4BF0122013511
:101A7000013903F10C03EAD102B1256108B1C4EDCB
:101A8000037A674A674D1368013313F0010F13603F
:101A900030D106F0CBFA644ADFED647A1368C31ADA
:101AA00000EE103AB8EE400A20EE270AB5EEC00A62
:101AB000F1EE10FA69D9F7EE007AB4EEE70AF1EE2A
:101AC00010FA62DC1060396859482CAA19F078FFC6
:101AD000584BD3F80426A3F540506A601AF004FA74
:101AE000544B2870002853D16870C5F81890C5F879
:101AF0001490A860099BDFF86C91AAEB030309938B
:101B0000D7F800A0D9F800304B4F4C49012201FB17
:101B100003714B480BF04CFA0346002800F0088193
:101B200040F27F21474B484A02E554F8041B002944
:101B300020DD0CAB53F8203003F01F020A44BFF342
:101B40004F8F6FEA030E9F18BE44203A4FEA5E1E85
:101B500020320EF1010ED8BF4FF0010E4EF001E021
:101B60003A49C1F85C3220330FF005C8BFF34F8FFC
:101B7000BFF36F8F013014E711F9010B8342A8BF47
:101B800003468242B8BF02463AE79FED310A99E721
:101B9000DFF8D490A3F54050D9F800101AF07AF984
:101BA000D9F8003003F01F0E0EF54E5E0EF1100E48
:101BB000BFF34F8F0EF1FF3E4FEA5E1E0EF1010E96
:101BC0004EF001E0214AC2F8683220330FF005C818
:101BD000BFF34F8FBFF36F8F06F028FA81461D4881
:101BE00021F016FA02211C4805F0B6FF112801D198
:101BF00020BFF7E710380128F4D9174806F024F879
:101C0000A0B34FF4BE71154B154A91E4FCA0063405
:101C1000F8A00634949F063400000000CDCC4C3E62
:101C200058690634789F0634686906346F12833A1F
:101C30006C6906346C9906340000009100B80B0002
:101C400034AF06348CE602343E1B033400ED00E072
:101C50008988883D6CE60234C09F063416E502345C
:101C6000541B0334B89F06346469063406F0DEF969
:101C7000A0EB0901B348A96021F062F9B24BB34966
:101C8000186800281FDD0B6803F01F020244BFF331
:101C90004F8F6FEA030E03EB020CE644203A4FEA43
:101CA0005E1E20320EF1010ED8BF4FF0010E4EF035
:101CB00001E0A748C0F85C3220330FF005C8BFF33D
:101CC0004F8FBFF36F8F0B681A68EA60D3ED018AFC
:101CD000C5ED048A93ED000AB4EEE80AF1EE10FABD
:101CE00030FE289A30EE490A24F006F8B0EE408A19
:101CF00038EEC90A24F000F878EE006AF5EEC06A02
:101D0000F1EE10FAD3BFF6EE007AC8EE267A80EE36
:101D1000267AB0EE677AB4EEE77AF1EE10FAACBF4D
:101D200001230023C5ED057A85ED067A6B70E1E6A7
:101D300088480093D0E90223D0E900011DF082F821
:101D4000504600F055FB4FF080401CF09FFD95F889
:101D500000A0BAF1000F00F0DD806B78002B00F0DE
:101D6000D4807D481CF08AFD1CF0A0FD6B78C188F2
:101D7000002B00F0CD80794BAA680020069295EDEB
:101D8000057AB7EEC77A8DED047B95ED067AB7EE4E
:101D9000C77A00938DED027B0122714B00F0C4FBEA
:101DA0004FF0FF301CF06AFD1CF080FD94ED037ACB
:101DB000B7EEC77A1123C1888DED027B0122019312
:101DC0002369914000200093664B00F0ADFB1CF0AE
:101DD0006DFD94ED027AB7EEC77AC1888DED047B74
:101DE00094ED017AB7EEC77A8DED027B94F901305C
:101DF0000122019394F9003001EB4101002000938E
:101E0000594B00F091FB1CF051FD236AC1880393EC
:101E1000E36901220293A3698900019363690020A9
:101E20000093524B00F080FB1CF040FDC188142051
:101E3000099B41430122002000934D4B00F074FBAD
:101E40004FF0FF301CF01AFD4A4C4B481CF026FDA9
:101E500000201CF01BFD236813B906F0E7F8206092
:101E600006F0E4F82368C01AB0F57A6F2CD26B2321
:101E70006421424A4FF496700093C8231CF01EFD63
:101E80004FF080401CF002FD1CF010FDC1880122C3
:101E90003B4B0901002000F047FB1CF007FDC18807
:101EA0000122384B01EB0111002000F03DFB1CF03A
:101EB000FDFCC188122001224143334B002000F079
:101EC00033FB00201CF0E2FCD9F800302F4A02FB63
:101ED0000377BFF34F8F45F6C05E4EF001E01C4B19
:101EE000C3F8687220370FF005C8BFF34F8FBFF3F8
:101EF0006F8F0122022126480BF032F8D8B14FF43F
:101F00002D71244B244AFFF713BB4FF0FF2029E724
:101F1000224B31E76FF0FF001CF0B0FC1CF0C6FC58
:101F20003C23C18801936B680122009350461C4BEF
:101F300000F0FAFA34E71B4A1368C3F10103136097
:101F400061E400BF79E602345C69063460690634F6
:101F500000ED00E0E04206340000FFFFC0E3023481
:101F60009AE60234DAE60234EDE6023407E7023498
:101F70001EE702345469063464670634741C033463
:101F80002EE702343EE7023471E7023400B80B005A
:101F900034AF06348CE602343E1B0334C5E302340E
:101FA000BDE60234B89F063408B5024821F030F887
:101FB000FEE700BF9CE7023410B5E4B04FF4C872EE
:101FC0000021684621F03EF900231022CDE90023CC
:101FD0004FF400134FF08051329303236846CDE94C
:101FE00022130CF083FB48B900230822CDE900231B
:101FF00028232490684625930CF078FB64B010BD2C
:102000000138012810B5144607D921F05FFB0923D8
:102010004FF0FF340360204610BD4FF0FF330448FB
:1020200092B209F0FDFC002818BF0024F3E700BFBE
:1020300064A0063407B54FF080424FF48060FEF78D
:10204000B3FF074BC3F8602AD3F8601201910199DE
:10205000C3F8202A03F58053C3F8202203B000BD43
:102060000080025600BEFEE70120704708B521F04F
:102070002DFB162303604FF0FF3008BD08B521F09B
:1020800025FB16230360FEE770B50D4614460E4689
:10209000731B9C4201DC204670BDAFF3008006F844
:1020A000010BF5E74FF0FF3070474FF4005300206D
:1020B0004B60704701207047002070471FB5144BDC
:1020C0007C2101AA02A8029311F0A0FE0346E0B908
:1020D000019A02F4C031B1F5C03F17D042F4C032CA
:1020E0007C2102A8019211F0ADFE68B97C2101AA01
:1020F00002A811F08BFE30B9019B03F4C033B3F595
:10210000C03F03D0FEE7FEE7FEE7FEE705B000BDF7
:102110000090005692ED007A2DE9F74F00260190CD
:1021200017EE100A3546F6EE006A9846D2E9013AF3
:1021300003FB00FE554502D103B0BDE8F08FB8F1B6
:10214000000F0CBF30462846019C01272056002472
:10215000A64514BFF146B94605EB0A0B0094B9F148
:1021600001092FD1009C06EE103AB4FBF3F703FBF4
:10217000174407EE904AF8EE677AF8EE465A77EE83
:10218000A67A87EEA56A07EE907AF8EE677AF8EEFF
:10219000475A77EEA67A81ED006A87EEA56A81ED4F
:1021A000016A92F9104092ED036A001B07EE900A53
:1021B000F8EEE77A67EE867A0135C1ED027A764469
:1021C0000C31B7E7B8F1000F07EB060C18BFDC467F
:1021D000019CD34414F90CC06045ACBF8446009701
:1021E00060460137BBE700000C23F0B58E6804465B
:1021F000024603FB06060020B24200D1F0BDD1ED3D
:10220000007A91ED017AB8EE676AF8EE475AD2ED9E
:10221000007A92ED017A66EE277A25EE877AFCEE57
:10222000E77ABCEEC77A2546124F131B9B087B4307
:1022300023F040430133013B01D10C32DCE7D5ED03
:10224000006A66EE266AFCEEE66A17EE907A16EEF3
:1022500090CA67450BD1D5ED016A65EEA66AFCEE22
:10226000E66A17EE107A16EE90CA674500D0013084
:102270000C35E0E7ABAAAA2A0A6C9169126A0968D0
:102280001288C16002744022C0E9002211228260DB
:1022900000F062B830B501291446E7B01A4605D0FF
:1022A0007421284B284A294820F014F90568284B46
:1022B000284623600B466946FFF72CFF002328467B
:1022C00033A9FFF727FF11466846FFF78DFF044645
:1022D00033A8FFF789FF89686B4601F1010E0022E0
:1022E000DFED1C7A4EF001E00C33BEF1010E1BD184
:1022F00002F1010E9FED177A4EF001E033AB0C3383
:10230000BEF1010E16D1844205D318D1B4EEE77A9E
:10231000F1EE10FA13DDCC220DEB02010C4821F096
:1023200018FA002067B030BD13ED017A013277EE64
:10233000877AD9E753ED016A37EE267ADFE7CC22B8
:102340006946EBE7B8E70234A4C30334C6E70234B6
:1023500010A10634000000000020704790ED027AC2
:10236000DFED197AB4EEE77AF1EE10FA7FB50246A6
:102370000D4626D4154BD2ED010A92ED000A1B68DA
:1023800003A902A89847029B114E023B0093039BAE
:1023900001A9023B0193684633689847029B0446B3
:1023A00002330093039B68460233019301A933680B
:1023B0009847044305D1DDE902012B4605221CF0B4
:1023C0008DFD04B070BD00BFCDCC4C3EE0A1063405
:1023D000E4A106340349086003490A60034A136014
:1023E000704700BFE4A10634E0A10634DCA1063446
:1023F0002DE9F04F2DED028B4FF0120B9FED458A2A
:1024000089B0454FDFF81491DFF814A103900C2335
:102410003E68039A03FB0626D6ED027AF4EEC87AEC
:10242000F1EE10FA5ED47D6803FB0523D3ED027A4A
:10243000F4EEC87AF1EE10FA029353D4D9F80030D2
:1024400005A904A8D6ED010A96ED000ABC689847D4
:10245000DAF8003005A904A89847002842D1029A6A
:10246000D9F8003007A906A8D2ED010A92ED000ABA
:102470009847DAF8003007A906A8984790BBDDE92D
:102480000401DDE9062300941CF0DEFB04A80FC85C
:10249000A3EB010EA2EB000CBEF1000FB8BFCEF112
:1024A000000EBCF1000FDFF87C80B8BFCCF1000C4F
:1024B000E645D8F8005000941EDD01320130A847EF
:1024C000DDE90623DDE904010094D8F80080013A33
:1024D0000138C04721463046FFF740FF21460298A9
:1024E000FFF73CFFBBF1010B07F10C078FD109B0DF
:1024F000BDEC028BBDE8F08F01330131A847DDE967
:102500000512079B0094D8F800800498013B01391C
:10251000DFE700BFCDCC4C3E9C1B0334E0A106346A
:10252000E4A10634DCA1063408B477B504460D46B0
:10253000164607AB53F8042B30210748019320F0CF
:10254000E1FD334629462046034A1CF037FB03B021
:10255000BDE8704001B07047E8A1063410B50446EC
:10256000FEF716F92146BDE8104082B241F28833E9
:10257000014809F055BA00BF64A006347047000056
:1025800008B50248FFF7EAFFFEE700BF13E8023490
:1025900008B50248FFF7E2FFFEE700BF2AE8023471
:1025A00008B50248FFF7DAFFFEE700BF41E8023452
:1025B00008B50248FFF7D2FFFEE700BF57E8023434
:1025C00008B50248FFF7CAFFFEE700BF6FE8023414
:1025D0007047FEE7FEE705F01DBD08B512F0DCF917
:1025E000BDE8084006F0CABA08B512F0D5F9BDE852
:1025F000084006F08CB9000010B5134C6369DB038A
:1026000021D50A1A002A1EDD00F01F031A44BFF369
:102610004F8F6FEA000E1B1A02440B449644203B76
:102620004FEA5E1E20330EF1010ED8BF4FF0010EAF
:102630004EF001E0C4F85C0220300FF005C8BFF393
:102640004F8FBFF36F8F10BD00ED00E010B5134C3E
:102650006369DB0321D50A1A002A1EDD00F01F037F
:102660001A44BFF34F8F6FEA000E1B1A02440B444B
:102670009644203B4FEA5E1E20330EF1010ED8BF78
:102680004FF0010E4EF001E0C4F8680220300FF068
:1026900005C8BFF34F8FBFF36F8F10BD00ED00E093
:1026A000074808B50268074B9A4202D003600AF057
:1026B000FFFD03480AF0C8FD0228FAD008BD00BF9C
:1026C00018A2063400FC0D5808B5FFF7B3FC08BD8E
:1026D00010B5AEB0B422002101A820F0B3FD4FF434
:1026E00088544FF488314022282311204FF0440CA5
:1026F000CDE90614CDE90222CDE90D2204244FF4E0
:1027000088624FF4882E8DF804300123CDE908C487
:10271000CDE91220114C124ACDE90403CDE90AE4B7
:10272000CDE90F0304F5E024219201A802F54472DB
:10273000CDE9143111918DF85C301C938DF88830FF
:1027400027932C928DF8B43016941FF027FC204666
:102750000449FFF77BFF2EB010BD00BF00002734F7
:102760003035627000102F34F0B5BBB0E422002188
:1027700001A820F067FD1023112104244FF48825BF
:102780008DF804304423402001224FF488374FF461
:102790008856DFF864C0CDE91C13CDE90A5CCDE9A9
:1027A0000834CDE91334CDE91E34159520930F4D2F
:1027B0000F4BCDE90200CDE90D000DEB0400CDE992
:1027C0000412CDE90F12CDE91A12CDE91822219396
:1027D000CDE90676CDE9117616951FF0D5F8284695
:1027E0000449FFF733FF3BB0F0BD00BF00002734C2
:1027F0000040323400402B3400002E3410B5AEB00F
:10280000B422002101A820F01DFD4FF488644FF48C
:10281000883140222A231120CDE90614CDE9022275
:10282000CDE90D228DF804300A9101231191442243
:102830004FF48851CDE90403CDE90803CDE90F0336
:10284000CDE9121204204FF48822CDE9140202F1DE
:10285000E2420E4CA2F52202A2F526620B942192CE
:10286000A4F5342402F5447201A88DF830301C938D
:1028700027932C928DF8B43016941FF02BFC204631
:102880000349FFF7E3FE2EB010BD00BF0040323415
:1028900000402B3430B5AFB0B422002101A820F0A5
:1028A000D1FC4FF4883040224FF48861CDE90222F8
:1028B000CDE90601CDE90D224FF4885144222A23A7
:1028C000CDE912120A9011904FF4882204201124AD
:1028D0008DF804300123CDE9140202F1E242A2F5A1
:1028E0002202CDE90443CDE90843CDE90F430D4D64
:1028F0000D4CA2F52E62219201A802F544728DF8CA
:1029000030301C938DF8883027932C928DF8B4309A
:102910000B9516941FF0DEFB29462046FFF796FE26
:102920002FB030BD0040323400002E3410B51F49A6
:10293000AEB01F48FFF760FEB422002101A820F0CE
:1029400081FC2A2311228DF8043001231949CDE995
:102950000423CDE90823CDE90F23CDE906220A920D
:102960000B91119204214422CDE91412CDE91222D7
:10297000114A124C0DEB0100219202F54472CDE98F
:102980000233CDE90D338DF830301C938DF888304B
:1029900027932C928DF8B43016941FF09BFB2046A1
:1029A0000249FFF753FE2EB010BD00BF6040323425
:1029B000404032345040323410356270004032347E
:1029C00000B52049AFB02048FFF716FEB422002121
:1029D00001A820F037FC282311228DF804300123B0
:1029E00044210420CDE90423CDE90F23CDE91323AD
:1029F000CDE9112206921592144ACDE909011692E9
:102A000002F17452A2F55002CDE90711A2F52A6233
:102A10000F492192684402F54472CDE90233CDE9B1
:102A20000D330B918DF85C301C9327932C928DF80D
:102A3000B4301FF0B3FA03490348FFF707FE2FB085
:102A400000BD00BF80403234404032345040323408
:102A50000040323410B51C4998B01C48FFF7CCFD3B
:102A600060220021684620F0EDFB3F238DF8003006
:102A700040234FF48830CDE901334FF488534FF4AD
:102A8000882CCDE905034423042001221121104C98
:102A9000CDE90730CDE909C4CDE9123004F534247D
:102AA0006846CDE90312CDE90E12CDE91013CDE948
:102AB0000C22149315941FF0BFF920460249FFF72A
:102AC000C5FD18B010BD00BF604032344040323404
:102AD0000000273408B5042104481CF09DFDBDE822
:102AE0000840052102481DF06DBC00BFD8E5043444
:102AF000C4E5043408B5022104481CF08DFDBDE88E
:102B00000840032102481DF05DBC00BF10E40434FE
:102B100004E4043408B50D2104481CF07DFDBDE833
:102B200008400B2102481DF04DBC00BF4CE20434AC
:102B300020E2043408B5052104481CF06DFDBDE811
:102B40000840062102481DF03DBC00BFFCDD0434F6
:102B5000E4DD043408B5042104481CF05DFDBDE843
:102B60000840052102481DF02DBC00BFB8DB04342D
:102B7000A4DB043408B5052104481CF04DFDBDE874
:102B80000840062102481DF01DBC00BFB4D9043422
:102B90009CD9043408B5042104481CF03DFDBDE86F
:102BA0000840052102481DF00DBC00BF70D7043459
:102BB0005CD7043408B5032104481CF02DFDBDE8A2
:102BC0000840042102481DF0FDBB00BF8CD5043431
:102BD0007CD5043408B5072104481CF01DFDBDE870
:102BE0000840072102481DF0EDBB00BFBCD30434F0
:102BF000A0D3043408B5042104481CF00DFDBDE841
:102C00000840052102481DF0DDBB00BF04D104349B
:102C1000F0D0043408B5032104481CF0FDFCBDE8E5
:102C20000840042102481DF0CDBB00BF20CF043472
:102C300010CF043408B50D2104481CF0EDFCBDE8AC
:102C400008400B2102481DF0BDBB00BFF0CC04348E
:102C5000C4CC043408B5042104481CF0DDFCBDE8F4
:102C60000840052102481DF0ADBB00BFB0C80434C8
:102C70009CC8043408B5032104481CF0CDFCBDE811
:102C80000840042102481DF09DBB00BFCCC604349F
:102C9000BCC6043408B50F2104481CF0BDFCBDE8D7
:102CA00008400D2102481DF08DBB00BF7CC40434D8
:102CB00048C4043408B5132104481CF0ADFCBDE839
:102CC0000840112102481DF07DBB00BF8CBE0434BA
:102CD00048BE043408B50F2104481CF09DFCBDE833
:102CE00008400D2102481DF06DBB00BF7CB70434C5
:102CF00048B7043408B5082104481CF08DFCBDE831
:102D00000840092102481DF05DBB00BF3CB20434FD
:102D100018B2043408B5132104481CF07DFCBDE84A
:102D20000840112102481DF04DBB00BFF8AD04342E
:102D3000B4AD043408B5112104481CF06DFCBDE8A5
:102D400008400F2102481DF03DBB00BFC8A6043457
:102D50008CA6043408B5082104481CF05DFCBDE8CD
:102D60000840092102481DF02DBB00BFD8A0043443
:102D7000B4A0043408B5132104481CF04DFCBDE890
:102D80000840112102481DF01DBB00BF949C043473
:102D9000509C043408B5112104481CF03DFCBDE8EA
:102DA00008400F2102481DF00DBB00BF649504349C
:102DB0002895043408B5082104481CF02DFCBDE812
:102DC0000840092102481DF0FDBA00BF748F043489
:102DD000508F043408B5132104481CF01DFCBDE8D5
:102DE0000840112102481DF0EDBA00BF308B0434B9
:102DF000EC8A043408B50C2104481CF00DFCBDE835
:102E000008400B2102481DF0DDBA00BF5084043495
:102E10002484043408B5082104481CF0FDFBBDE8F7
:102E20000840092102481DF0CDBA00BFD47F043408
:102E3000B07F043408B5112104481CF0EDFBBDE857
:102E400008400F2102481DF0BDBA00BFB07B04341A
:102E5000747B043408B50E2104481CF0DDFBBDE88A
:102E600008400D2102481DF0ADBA00BF7075043452
:102E70003C75043408B5082104481CF0CDFBBDE8BE
:102E80000840092102481DF09DBA00BF4470043477
:102E90002070043408B5112104481CF0BDFBBDE8C6
:102EA00008400F2102481DF08DBA00BF206C043489
:102EB000E46B043408B50E2104481CF0ADFBBDE8FA
:102EC00008400D2102481DF07DBA00BFE0650434C2
:102ED000AC65043408B5082104481CF09DFBBDE82E
:102EE0000840092102481DF06DBA00BFB4600434E7
:102EF0009060043408B5112104481CF08DFBBDE836
:102F000008400F2102481DF05DBA00BF905C0434F8
:102F1000545C043408B50A2104481CF07DFBBDE86C
:102F20000840092102481DF04DBA00BF90560434F4
:102F30006C56043408B5052104481CF06DFBBDE84F
:102F40000840062102481DF03DBA00BF0453043476
:102F5000EC52043408B5102104481CF05DFBBDE8B8
:102F600008400F2102481DF02DBA00BF0050043464
:102F7000C44F043408B50C2104481CF04DFBBDE8D7
:102F800008400A2102481DF01DBA00BFF049043470
:102F9000C849043408B50C2104481CF03DFBBDE8C9
:102FA00008400B2102481DF00DBA00BF80450434D3
:102FB0005445043408B5052104481CF02DFBBDE838
:102FC0000840062102481DF0FDB900BF4441043409
:102FD0002C41043408B50E2104481CF01DFBBDE84B
:102FE00008400C2102481DF0EDB900BF603E0434DA
:102FF000303E043408B50C2104481CF00DFBBDE83C
:1030000008400B2102481DF0DDB900BF50390434DF
:103010002439043408B5052104481CF0FDFABDE844
:103020000840062102481DF0CDB900BF1435043414
:10303000FC34043408B50E2104481CF0EDFABDE858
:1030400008400C2102481DF0BDB900BF30320434E5
:103050000032043408B50C2104481CF0DDFABDE848
:1030600008400B2102481DF0ADB900BF202D0434EB
:10307000F42C043408B5052104481CF0CDFABDE851
:103080000840062102481DF09DB900BFE428043421
:10309000CC28043408B50E2104481CF0BDFABDE864
:1030A00008400C2102481DF08DB900BF00260434F1
:1030B000D025043408B5072104481CF0ADFABDE85A
:1030C0000840072102481DF07DB900BF40210434AB
:1030D0002421043408B5052104481CF09DFABDE8FC
:1030E0000840062102481DF06DB900BF781E043467
:1030F000601E043408B50F2104481CF08DFABDE8A9
:1031000008400F2102481DF05DB900BF841B043444
:10311000481B043408B5092104481CF07DFABDE8B9
:103120000840092102481DF04DB900BFB415043410
:103130009015043408B5052104481CF06DFABDE86B
:103140000840062102481DF03DB900BF3C1204347E
:103150002412043408B5082104481CF05DFABDE8C7
:103160000840082102481DF02DB900BFB80F0434F3
:10317000980F043408B5092104481CF04DFABDE845
:103180000840092102481DF01DB900BF600C04343D
:103190003C0C043408B5052104481CF03DFABDE898
:1031A0000840062102481DF00DB900BFE8080434AC
:1031B000D008043408B5082104481CF02DFABDE8F5
:1031C0000840082102481DF0FDB800BF6406043421
:1031D0004406043408B5072104481CF01DFABDE874
:1031E0000840072102481DF0EDB800BF2C0304344D
:1031F0001003043408B5052104481CF00DFABDE89D
:103200000840062102481DF0DDB800BF6400043408
:103210004C00043408B5052104481CF0FDF9BDE854
:103220000840062102481DF0CDB800BF10FE03344F
:10323000F8FD033408B50D2104481CF0EDF9BDE894
:1032400008400D2102481DF0BDB800BF3CFB03340F
:1032500008FB033408B5052104481CF0DDF9BDE87E
:103260000840062102481DF0ADB800BF60F60334E7
:1032700048F6033408B5052104481CF0CDF9BDE833
:103280000840062102481DF09DB800BF0CF403342D
:10329000F4F3033408B50D2104481CF0BDF9BDE872
:1032A00008400B2102481DF08DB800BF38F10334EF
:1032B0000CF1033408B5052104481CF0ADF9BDE854
:1032C0000840062102481DF07DB800BFE8EC033439
:1032D000D0EC033408B5052104481CF09DF9BDE885
:1032E0000840062102481DF06DB800BF94EA03347F
:1032F0007CEA033408B5072104481CF08DF9BDE8C9
:103300000840072102481DF05DB800BF20E80334E3
:1033100004E8033408B5052104481CF07DF9BDE834
:103320000840062102481DF04DB800BF58E503349F
:1033300040E5033408B5052104481CF06DF9BDE8EB
:103340000840062102481DF03DB800BF04E30334E5
:10335000ECE2033408B5022104481CF05DF9BDE835
:103360000840032102481DF02DB800BFE0E00334FF
:10337000D4E0033408B5124903201CF04BFD114979
:1033800000201CF081FC01220F4900201CF08CF968
:1033900001220E4907201CF087F901220C49082060
:1033A0001CF082F904210B481CF022F90A490B4851
:1033B000FFF722F9BDE80840052109481CF092B842
:1033C0008CE504345CE5043414E50434CCE40434C2
:1033D00084E4043444E40434005033340040323490
:1033E00030E4043408B50E4903201CF013FD01221B
:1033F0000C4906201CF058F901220B4910461CF01C
:1034000053F90122094902201CF04EF90321084812
:103410001CF0EEF8BDE80840042106481CF062B834
:1034200044D50434FCD40434B4D404346CD404340B
:103430003CD404342CD4043408B50E4902201CF0CA
:10344000E9FC01220C4906201CF02EF901220B494F
:1034500010461CF029F90122094903201CF024F927
:10346000032108481CF0C4F8BDE8084004210648C0
:103470001CF038B8D8CE043490CE043448CE04348E
:1034800000CE0434D0CD0434C0CD043408B50E4988
:1034900000201CF0BFFC01220C4904201CF004F9A0
:1034A00001220B4902201CF0FFF8012209490620E5
:1034B0001CF0FAF8032108481CF09AF8BDE808400F
:1034C000042106481CF00EB884C604343CC60434FB
:1034D000F4C50434ACC504347CC504346CC5043470
:1034E00008B50C4900201CF095FC01220A49032074
:1034F0001CF0DAF80122094909201CF0D5F8022154
:1035000007481CF075F8BDE80840032105481BF08A
:10351000E9BF00BF9CE0033454E003340CE0033403
:10352000ECDF0334E0DF033408B50C4900201CF065
:103530005BFE01220A4900201CF0B6F8012209496D
:1035400008201CF0B1F8022107481CF051F8BDE832
:103550000840032105481BF0C5BF00BFD8E3043471
:1035600090E3043448E3043428E304341CE30434D3
:1035700008B51E4903201CF0FDF91D4900201CF070
:10358000F9F91C4901201CF0F5F91B4902201CF037
:10359000F1F91A4901201CF03DFC012218490020D4
:1035A0001CF082F80122174908201CF07DF8012246
:1035B000154906201CF078F80122144905201CF05A
:1035C00073F80122124910461CF06EF801221149CD
:1035D00003201CF069F80D210F481CF009F8BDE824
:1035E00008400B210D481BF07DBF00BFE4E104340F
:1035F000A8E104346CE1043430E10434F8E004342C
:10360000B0E0043468E0043420E00434D8DF04344B
:1036100090DF043448DF043478DE04344CDE0434B4
:1036200008B5124902201CF0A5F9114902201CF02E
:10363000F1FB104900201CF0EDFB01220E49032094
:103640001CF032F801220D4900201CF02DF8012257
:103650000B4909201CF028F805210A481BF0C8FF77
:10366000BDE80840062108481BF03CBFA8DD043433
:1036700070DD043438DD0434F0DC0434A8DC0434B8
:1036800060DC043410DC0434F8DB043408B5104981
:1036900001201CF06FF90F4903201CF0BBFB012235
:1036A0000D4900201CF000F801220C4903201BF0FA
:1036B000FBFF01220A4908201BF0F6FF04210948FC
:1036C0001BF096FFBDE80840052107481BF00ABF24
:1036D00068DB043430DB0434E8DA0434A0DA043480
:1036E00058DA043418DA043404DA043408B5124918
:1036F00000201CF03FF9114900201CF08BFB104901
:1037000001201CF087FB01220E4905201BF0CCFF95
:1037100001220D4904201BF0C7FF01220B4910466E
:103720001BF0C2FF05210A481BF062FFBDE80840FC
:10373000062108481BF0D6BE60D9043428D90434C9
:10374000F0D80434A8D8043460D8043418D8043429
:10375000C8D70434B0D7043408B5104903201CF08E
:1037600009F90F4902201CF055FB01220D490520E3
:103770001BF09AFF01220C4906201BF095FF012245
:103780000A4904201BF090FF042109481BF030FF78
:10379000BDE80840052107481BF0A4BE20D704342B
:1037A000E8D60434A0D6043458D6043410D60434F1
:1037B000D0D50434BCD5043408B5174901201CF019
:1037C000D9F8164902201CF0D5F8154901201CF043
:1037D00021FB0122134910461BF066FF012212490A
:1037E00005201BF061FF0122104900201BF05CFF47
:1037F00001220F4909201BF057FF07210D481BF03C
:10380000F7FE0D490D48FEF7F7FEBDE80840072119
:103810000B481BF067BE00BF64D3043428D30434C4
:10382000F0D20434A8D2043460D2043418D2043460
:10383000D0D1043460D1043400602E3400002E3422
:1038400044D1043408B5104900201CF093F80F4906
:1038500000201CF0DFFA01220D4905201BF024FF97
:1038600001220C4906201BF01FFF01220A490320F8
:103870001BF01AFF042109481BF0BAFEBDE80840FE
:10388000052107481BF02EBEB4D004347CD004348C
:1038900034D00434ECCF0434A4CF043464CF0434E3
:1038A00050CF043408B5204901201CF063F81F49AB
:1038B00002201CF05FF81E4903201CF05BF81D4934
:1038C00000201CF057F81C4903201CF0A3FA012229
:1038D0001A4904201BF0E8FE0122194907201BF0B9
:1038E000E3FE0122174902201BF0DEFE01221649E9
:1038F00009201BF0D9FE0122144903201BF0D4FE3D
:103900000122134905201BF0CFFE0D2111481BF0A9
:103910006FFE11491148FEF76FFEBDE808400B210C
:103920000F481BF0DFBD00BF88CC04344CCC0434FE
:1039300010CC0434D4CB04349CCB043454CB0434A6
:103940000CCB0434C4CA04347CCA043434CA0434EE
:10395000ECC904341CC9043400A03434008034346D
:10396000F0C8043408B5104900201CF003F80F49D2
:1039700001201CF04FFA01220D4905201BF094FE96
:1039800001220C4909201BF08FFE01220A49032065
:103990001BF08AFE042109481BF02AFEBDE80840FE
:1039A000052107481BF09EBD60C8043428C80434B4
:1039B000E0C7043498C7043450C7043410C7043433
:1039C000FCC6043408B5254900201BF0D3FF244968
:1039D00001201BF0CFFF234902201BF0CBFF22491F
:1039E00003201BF0C7FF214902201CF013FA01221B
:1039F0001F4900201BF058FE01221E4908201BF021
:103A000053FE01221C4910461BF04EFE01221B49A9
:103A100004201BF049FE0122194906201BF044FE38
:103A20000122184905201BF03FFE01221649022001
:103A30001BF03AFE0122154903201BF035FE0F2131
:103A400013481BF0D5FD13491348FEF7D5FDBDE81B
:103A500008400D2111481BF045BD00BF0CC40434C3
:103A6000D0C3043494C3043458C3043420C304348E
:103A7000D8C2043490C2043448C2043400C20434AE
:103A8000B8C1043470C1043428C10434E0C0043423
:103A9000F0BF04340050343400403434BCBF04342C
:103AA00008B52C4900201BF065FF2B4901201BF0B5
:103AB00061FF2A4902201BF05DFF294903201BF00A
:103AC00059FF284900201CF0A5F9274901201CF0C6
:103AD000A1F9264903201CF09DF901222449022066
:103AE0001BF0E2FD0122234905201BF0DDFD012230
:103AF000214903201BF0D8FD0122204904201BF09E
:103B0000D3FD01221E4910461BF0CEFD01221D49A6
:103B100000201BF0C9FD01221B4906201BF0C4FD3B
:103B200001221A4909201BF0BFFD01221849072074
:103B30001BF0BAFD0122174908201BF0B5FD132127
:103B400015481BF055FDBDE80840112113481BF036
:103B5000C9BC00BF0CBE0434D0BD043494BD0434D1
:103B600058BD043420BD0434E8BC0434B0BC043473
:103B700068BC043420BC0434D8BB043490BB043487
:103B800048BB043400BB0434B8BA043470BA0434FB
:103B900028BA0434E0B90434B0B804346CB804343E
:103BA00008B5234901201BF0E5FE224902201BF045
:103BB000E1FE214903201BF0DDFE204900201BF01F
:103BC000D9FE1F4902201CF025F901221D490420BD
:103BD0001BF06AFD01221C4910461BF065FD012205
:103BE0001A4909201BF060FD0122194900201BF031
:103BF0005BFD0122174906201BF056FD01221649E4
:103C000007201BF051FD0122144908201BF04CFD38
:103C10000122134905201BF047FD0F2111481BF01D
:103C2000E7FCBDE808400D210F481BF05BBC00BF5E
:103C30000CB70434D0B6043494B6043458B6043403
:103C400020B60434D8B5043490B5043448B50434EF
:103C500000B50434B8B4043470B4043428B4043463
:103C6000E0B30434F0B20434BCB2043408B51949EA
:103C700000201BF07FFE184903201CF0CBF81749E9
:103C800000201CF0C7F8164901201CF0C3F80122DF
:103C9000144906201BF008FD0122134905201BF0E2
:103CA00003FD0122114903201BF0FEFC01221049F3
:103CB00002201BF0F9FC01220E4907201BF0F4FC46
:103CC00008210D481BF094FCBDE8084009210B4871
:103CD0001BF008BCDCB10434A4B104346CB104346E
:103CE00034B10434ECB00434A4B004345CB0043413
:103CF00014B00434CCAF04344CAF043428AF0434D3
:103D000008B52C4900201BF035FE2B4901201BF083
:103D100031FE2A4902201BF02DFE294903201BF009
:103D200029FE284901201CF075F8274902201CF0C3
:103D300071F8264900201CF06DF801222449082062
:103D40001BF0B2FC0122234910461BF0ADFC0122FE
:103D5000214909201BF0A8FC0122204905201BF065
:103D6000A3FC01221E4906201BF09EFC01221D49D6
:103D700000201BF099FC01221B4902201BF094FC3F
:103D800001221A4903201BF08FFC0122184904204C
:103D90001BF08AFC0122174907201BF085FC132128
:103DA00015481BF025FCBDE80840112113481BF005
:103DB00099BB00BF78AD04343CAD043400AD04348D
:103DC000C4AC04348CAC043454AC04341CAC0434A3
:103DD000D4AB04348CAB043444AB0434FCAA0434B8
:103DE000B4AA04346CAA043424AA0434DCA904342C
:103DF00094A904344CA904341CA80434D8A704346E
:103E000008B5274901201BF0B5FD264902201BF00B
:103E1000B1FD254903201BF0ADFD244900201BF016
:103E2000A9FD234903201BF0F5FF224900201BF0C8
:103E3000F1FF0122204906201BF036FC01221F4918
:103E400007201BF031FC01221D4910461BF02CFC01
:103E500001221C4903201BF027FC01221A490420DF
:103E60001BF022FC0122194908201BF01DFC012235
:103E7000174909201BF018FC0122164900201BF0ED
:103E800013FC0122144902201BF00EFC11211348DF
:103E90001BF0AEFBBDE808400F2111481BF022BB10
:103EA00050A6043414A60434D8A504349CA50434C4
:103EB00064A504342CA50434E4A404349CA4043480
:103EC00054A404340CA40434C4A304347CA30434E4
:103ED00034A30434ECA20434A4A2043494A1043422
:103EE00058A1043408B5194900201BF043FD1849B6
:103EF00002201BF08FFF174900201BF08BFF164993
:103F000001201BF087FF0122144907201BF0CCFB86
:103F10000122134908201BF0C7FB0122114903208D
:103F20001BF0C2FB0122104900201BF0BDFB012247
:103F30000E4905201BF0B8FB08210D481BF058FB6B
:103F4000BDE8084009210B481BF0CCBA78A0043426
:103F500040A0043408A00434D09F0434889F043463
:103F6000409F0434F89E0434B09E0434689E0434A8
:103F7000E89D0434C49D043408B52C4900201BF08E
:103F8000F9FC2B4901201BF0F5FC2A4902201BF00B
:103F9000F1FC294903201BF0EDFC284901201BF00E
:103FA00039FF274903201BF035FF264900201BF06D
:103FB00031FF0122244900201BF076FB0122234916
:103FC00010461BF071FB0122214905201BF06CFB00
:103FD0000122204906201BF067FB01221E49082010
:103FE0001BF062FB01221D4907201BF05DFB012233
:103FF0001B4902201BF058FB01221A4904201BF028
:1040000053FB0122184909201BF04EFB01221749DE
:1040100003201BF049FB132115481BF0E9FABDE80A
:104020000840112113481BF05DBA00BF149C0434F2
:10403000D89B04349C9B0434609B0434289B043438
:10404000F09A0434B89A0434709A0434289A0434E8
:10405000E09904349899043450990434089904344C
:10406000C09804347898043430980434E8970434C1
:10407000B89604347496043408B5274901201BF01F
:1040800079FC264902201BF075FC254903201BF012
:1040900071FC244900201BF06DFC234902201BF019
:1040A000B9FE224900201BF0B5FE01222049022062
:1040B0001BF0FAFA01221F4907201BF0F5FA012232
:1040C0001D4904201BF0F0FA01221C4909201BF0B5
:1040D000EBFA01221A4906201BF0E6FA01221949DF
:1040E00010461BF0E1FA0122174900201BF0DCFA10
:1040F0000122164908201BF0D7FA01221449032097
:104100001BF0D2FA112113481BF072FABDE80840E7
:104110000F2111481BF0E6B9EC940434B094043438
:10412000749404343894043400940434C8930434EC
:104130008093043438930434F0920434A892043405
:104140006092043418920434D09104348891043479
:104150004091043430900434F48F043408B5194984
:1041600000201BF007FC184903201BF053FE1749E1
:1041700000201BF04FFE164901201BF04BFE0122D0
:10418000144909201BF090FA0122134906201BF064
:104190008BFA0122114903201BF086FA01221049F3
:1041A00004201BF081FA01220E4905201BF07CFA45
:1041B00008210D481BF01CFABDE8084009210B48F6
:1041C0001BF090B9148F0434DC8E0434A48E0434B4
:1041D0006C8E0434248E0434DC8D0434948D0434C9
:1041E0004C8D0434048D0434848C0434608C043489
:1041F00008B52C4900201BF0BDFB2B4901201BF00A
:10420000B9FB2A4902201BF0B5FB294903201BF00A
:10421000B1FB284900201BF0FDFD274901201BF0C0
:10422000F9FD264902201BF0F5FD0122244900205A
:104230001BF03AFA0122234908201BF035FA01222B
:10424000214910461BF030FA0122204904201BF0BE
:104250002BFA01221E4902201BF026FA01221D49D9
:1042600006201BF021FA01221B4909201BF01CFA31
:1042700001221A4907201BF017FA012218490520CC
:104280001BF012FA0122174903201BF00DFA13212B
:1042900015481BF0ADF9BDE80840112113481BF08B
:1042A00021B900BFB08A0434748A0434388A0434D3
:1042B000FC890434C48904348C890434548904345A
:1042C0000C890434C48804347C880434348804346D
:1042D000EC870434A48704345C87043414870434E2
:1042E000CC86043484860434548504341085043424
:1042F00008B51E4901201BF03DFB1D4902201BF0A3
:1043000039FB1C4903201BF035FB1B4903201BF024
:1043100081FD0122194906201BF0C6F90122184926
:1043200007201BF0C1F90122164905201BF0BCF93A
:104330000122154900201BF0B7F901221349022080
:104340001BF0B2F90122124903201BF0ADF9012242
:10435000104909201BF0A8F90C210F481BF048F95F
:10436000BDE808400B210D481BF0BCB8E8830434BD
:10437000AC8304347083043438830434F08204340E
:10438000A88204346082043418820434D081043456
:10439000888104344081043480800434548004349F
:1043A00008B5194900201BF0E5FA184902201BF056
:1043B00031FD174900201BF02DFD164901201BF08F
:1043C00029FD0122144905201BF06EF90122134931
:1043D00002201BF069F90122114904201BF064F945
:1043E0000122104900201BF05FF901220E491046FE
:1043F0001BF05AF908210D481BF0FAF8BDE80840F7
:1044000009210B481BF06EB8747F04343C7F0434E0
:10441000047F0434CC7E0434847E04343C7E043433
:10442000F47D0434AC7D0434647D0434E47C0434D1
:10443000C07C043408B5274900201BF09BFA2649AC
:1044400001201BF097FA254902201BF093FA24491A
:1044500003201BF08FFA234901201BF0DBFC2249CB
:1044600003201BF0D7FC214900201BF0D3FC0122C4
:104470001F4909201BF018F901221E4905201BF0D5
:1044800013F901221C4904201BF00EF901221B49DB
:1044900010461BF009F90122194900201BF004F90C
:1044A0000122184906201BF0FFF8012216490720B7
:1044B0001BF0FAF80122154902201BF0F5F8112132
:1044C00013481BF095F8BDE808400F2111481BF078
:1044D00009B800BF387B0434FC7A0434C07A043451
:1044E000847A04344C7A0434147A0434DC79043445
:1044F000947904344C79043404790434BC78043459
:10450000747804342C780434E47704349C770434CD
:104510008C7604345076043408B5234901201BF00E
:1045200029FA224902201BF025FA214903201BF019
:1045300021FA204902201BF06DFC1F4900201BF0CE
:1045400069FC01221D4904201BF0AEF801221C4920
:1045500006201BF0A9F801221A4908201BF0A4F834
:104560000122194903201BF09FF801221749072057
:104570001BF09AF80122164909201BF095F8012238
:10458000144900201BF090F80122134905201BF06C
:104590008BF80E2111481BF02BF8BDE808400D21C7
:1045A0000F481AF09FBF00BF00750434C474043470
:1045B000887404345074043418740434D07304348C
:1045C0008873043440730434F8720434B0720434D1
:1045D0006872043420720434D8710434F8700434DE
:1045E000C470043408B5194900201BF0C3F91849F8
:1045F00003201BF00FFC174900201BF00BFC164991
:1046000001201BF007FC0122144908201BF04CF884
:104610000122134905201BF047F801221149072008
:104620001BF042F80122104910461BF03DF8012210
:104630000E4904201BF038F808210D481AF0D8FF65
:10464000BDE8084009210B481AF04CBFE46F043460
:10465000AC6F0434746F04343C6F0434F46E04346F
:10466000AC6E0434646E04341C6E0434D46D0434B3
:10467000546D0434306D043408B5274900201BF014
:1046800079F9264901201BF075F9254902201BF014
:1046900071F9244903201BF06DF9234901201BF017
:1046A000B9FB224902201BF0B5FB214900201BF079
:1046B000B1FB01221F4905201AF0F6FF01221E4915
:1046C00002201AF0F1FF01221C4907201AF0ECFF2A
:1046D00001221B4906201AF0E7FF01221949082090
:1046E0001AF0E2FF0122184903201AF0DDFF01222F
:1046F000164904201AF0D8FF0122154910461AF075
:10470000D3FF112113481AF073FFBDE808400F21B1
:1047100011481AF0E7BE00BFA86B04346C6B043478
:10472000306B0434F46A0434BC6A0434846A04349C
:104730004C6A0434046A0434BC6904347469043473
:104740002C690434E46804349C68043454680434E8
:104750000C680434FC660434C066043408B523498C
:1047600001201BF007F9224902201BF003F921491F
:1047700003201BF0FFF8204903201BF04BFB1F49CF
:1047800000201BF047FB01221D4906201AF08CFF78
:1047900001221C4908201AF087FF01221A4905202E
:1047A0001AF082FF0122194910461AF07DFF0122FA
:1047B000174900201AF078FF0122164907201AF045
:1047C00073FF0122144904201AF06EFF01221349DD
:1047D00009201AF069FF0E2111481AF009FFBDE8FF
:1047E00008400D210F481AF07DBE00BF70650434EB
:1047F00034650434F8640434C064043488640434D4
:1048000040640434F8630434B063043468630434EB
:1048100020630434D862043490620434486204345F
:10482000686104343461043408B5194900201BF070
:10483000A1F8184901201BF0EDFA174900201BF0E0
:10484000E9FA164902201BF0E5FA01221449072073
:104850001AF02AFF0122134906201AF025FF01222F
:10486000114909201AF020FF0122104902201AF0F4
:104870001BFF01220E4900201AF016FF08210D48E7
:104880001AF0B6FEBDE8084009210B481AF02ABE0E
:10489000546004341C600434E45F0434AC5F0434BA
:1048A000645F04341C5F0434D45E04348C5E0434CE
:1048B000445E0434C45D0434A05D043408B5274963
:1048C00000201BF057F8264901201BF053F825491A
:1048D00002201BF04FF8244903201BF04BF823491A
:1048E00002201BF097FA224900201BF093FA21497D
:1048F00003201BF08FFA01221F4907201AF0D4FE73
:1049000001221E4904201AF0CFFE01221C49052075
:104910001AF0CAFE01221B4906201AF0C5FE012228
:10492000194900201AF0C0FE0122184910461AF059
:10493000BBFE0122164902201AF0B6FE01221549DB
:1049400008201AF0B1FE112113481AF051FEBDE8FB
:1049500008400F2111481AF0C5BD00BF185C04348F
:10496000DC5B0434A05B0434645B04342C5B0434EF
:10497000F45A0434BC5A0434745A04342C5A04349F
:10498000E45904349C590434545904340C59043403
:10499000C45804347C5804346C57043430570434FD
:1049A00008B5194901201AF0E5FF184902201AF04C
:1049B000E1FF174903201AF0DDFF164901201BF023
:1049C00029FA0122144900201AF06EFE012213492F
:1049D00006201AF069FE0122114902201AF064FE35
:1049E0000122104905201AF05FFE01220E4908201D
:1049F0001AF05AFE0A210D481AF0FAFDBDE80840E7
:104A000009210B481AF06EBD30560434F4550434B5
:104A1000B85504348055043438550434F054043403
:104A2000A8540434605404341854043478530434BF
:104A30005453043408B5124900201AF09BFF114961
:104A400003201BF0E7F9104900201BF0E3F90122D5
:104A50000E4907201AF028FE01220D4908201AF0FD
:104A600023FE01220B4904201AF01EFE05210A48EC
:104A70001AF0BEFDBDE80840062108481AF032BD14
:104A8000B05204347852043440520434F85104349F
:104A9000B0510434685104341851043400510434C2
:104AA00008B5274900201AF065FF264901201AF0B1
:104AB00061FF254902201AF05DFF244903201AF006
:104AC00059FF234901201BF0A5F9224902201BF0C0
:104AD000A1F9214900201BF09DF901221F4908205E
:104AE0001AF0E2FD01221E4900201AF0DDFD01222C
:104AF0001C4909201AF0D8FD01221B4903201AF095
:104B0000D3FD0122194906201AF0CEFD01221849D1
:104B100010461AF0C9FD0122164907201AF0C4FDFB
:104B20000122154905201AF0BFFD102113481AF083
:104B30005FFDBDE808400F2111481AF0D3BC00BF4B
:104B4000884F04344C4F0434104F0434D44E043492
:104B50009C4E0434644E04342C4E0434E44D04342E
:104B60009C4D0434544D04340C4D0434C44C043472
:104B70007C4C0434344C0434EC4B0434EC4A0434A0
:104B8000B04A043408B51C4900201AF0F3FE1B4952
:104B900001201AF0EFFE1A4902201AF0EBFE194923
:104BA00003201AF0E7FE0122174904201AF07CFDC9
:104BB0000122164903201AF077FD01221449002032
:104BC0001AF072FD0122134902201AF06DFD012234
:104BD000114910461AF068FD0122104906201AF00A
:104BE00063FD0C210E481AF003FDBDE808400A21C0
:104BF0000C481AF077BC00BF8C4904345049043487
:104C000014490434D84804349048043448480434DF
:104C100000480434B8470434704704342847043447
:104C2000684604344046043408B51E4901201AF091
:104C3000A1FE1D4902201AF09DFE1C4903201AF016
:104C400099FE1B4900201BF0E5F81A4903201BF0D0
:104C5000E1F80122184907201AF026FD0122174920
:104C600009201AF021FD0122154902201AF01CFD2D
:104C70000122144904201AF017FD012212490820CC
:104C80001AF012FD0122114905201AF00DFD0C2128
:104C90000F481AF0ADFCBDE808400B210D481AF092
:104CA00021BC00BF18450434DC440434A04404345F
:104CB0006844043430440434E8430434A0430434E6
:104CC0005843043410430434C8420434804204344A
:104CD000C04104349441043408B5124900201AF04C
:104CE00049FE114901201BF095F8104902201BF0E4
:104CF00091F801220E4905201AF0D6FC01220D4937
:104D000004201AF0D1FC01220B4902201AF0CCFC3D
:104D100005210A481AF06CFCBDE808400621084845
:104D20001AF0E0BBF0400434B8400434804004344E
:104D300038400434F03F0434A83F0434583F04346E
:104D4000403F043408B5204900201AF013FE1F49E3
:104D500001201AF00FFE1E4902201AF00BFE1D4919
:104D600003201AF007FE1C4900201BF053F81B49D2
:104D700003201BF04FF80122194902201AF094FC7D
:104D80000122184909201AF08FFC01221649082037
:104D90001AF08AFC0122154900201AF085FC012234
:104DA000134910461AF080FC0122124906201AF01D
:104DB0007BFC0E2110481AF01BFCBDE808400C21BA
:104DC0000E481AF08FBB00BFF43D0434B83D0434E4
:104DD0007C3D0434403D0434083D0434D03C04346C
:104DE000883C0434403C0434F83B0434B03B043485
:104DF000683B0434203B0434403A0434103A043411
:104E000008B51E4901201AF0B5FD1D4902201AF00F
:104E1000B1FD1C4903201AF0ADFD1B4901201AF019
:104E2000F9FF1A4902201AF0F5FF01221849032060
:104E30001AF03AFC0122174905201AF035FC01222C
:104E4000154902201AF030FC0122144908201AF0FA
:104E50002BFC0122124906201AF026FC01221149DE
:104E600009201AF021FC0C210F481AF0C1FBBDE803
:104E700008400B210D481AF035BB00BFE838043458
:104E8000AC3804347038043438380434003804340E
:104E9000B83704347037043428370434E036043427
:104EA0009836043450360434903504346435043470
:104EB00008B5124900201AF05DFD114900201AF0D2
:104EC000A9FF104903201AF0A5FF01220E4908206E
:104ED0001AF0EAFB01220D4904201AF0E5FB012239
:104EE0000B4902201AF0E0FB05210A481AF080FB6A
:104EF000BDE80840062108481AF0F4BAC03404346A
:104F0000883404345034043408340434C033043452
:104F100078330434283304341033043408B520497A
:104F200000201AF027FD1F4901201AF023FD1E4919
:104F300002201AF01FFD1D4903201AF01BFD1C4919
:104F400001201AF067FF1B4902201AF063FF0122BB
:104F5000194907201AF0A8FB0122184902201AF06B
:104F6000A3FB0122164909201AF09EFB01221549D4
:104F700000201AF099FB0122134908201AF094FB33
:104F80000122124904201AF08FFB0E2110481AF05A
:104F90002FFBBDE808400C210E481AF0A3BA00BF51
:104FA000C4310434883104344C31043410310434B5
:104FB000D8300434A0300434583004341030043471
:104FC000C82F0434802F0434382F0434F02E0434D6
:104FD000102E0434E02D043408B51E4901201AF0C7
:104FE000C9FC1D4902201AF0C5FC1C4903201AF017
:104FF000C1FC1B4900201AF00DFF1A4903201AF0CA
:1050000009FF0122184909201AF04EFB0122174915
:1050100007201AF049FB0122154900201AF044FB31
:105020000122144902201AF03FFB012212490820F4
:105030001AF03AFB0122114905201AF035FB0C2128
:105040000F481AF0D5FABDE808400B210D481AF0B8
:1050500049BA00BFB82C04347C2C0434402C0434EE
:10506000082C0434D02B0434882B0434402B043413
:10507000F82A0434B02A0434682A0434202A043478
:10508000602904343429043408B5124900201AF088
:1050900071FC114902201AF0BDFE104901201AF0DE
:1050A000B9FE01220E4906201AF0FEFA01220D492E
:1050B00004201AF0F9FA01220B4900201AF0F4FA40
:1050C00005210A481AF094FABDE80840062108486C
:1050D0001AF008BA902804345828043420280434DC
:1050E000D82704349027043448270434F82604349D
:1050F000E026043408B5204903201AF03BFC1F4980
:1051000000201AF037FC1E4901201AF033FC1D491B
:1051100002201AF02FFC1C4903201AF07BFE1B49C9
:1051200000201AF077FE0122194902201AF0BCFA79
:105130000122184903201AF0B7FA01221649104635
:105140001AF0B2FA0122154904201AF0ADFA012230
:10515000134900201AF0A8FA0122124905201AF07A
:10516000A3FA0E2110481AF043FABDE808400C21BA
:105170000E481AF0B7B900BF9425043458250434FA
:105180001C250434E0240434A8240434702404349A
:1051900028240434E02304349823043450230434B2
:1051A00008230434C0220434E0210434B021043440
:1051B00008B5154901201AF0DDFB144902201AF048
:1051C000D9FB134901201AF025FE012211490720BD
:1051D0001AF06AFA0122104905201AF065FA012234
:1051E0000E4903201AF060FA01220D4902201AF03C
:1051F0005BFA07210B481AF0FBF9BDE808400721CC
:1052000009481AF06FB900BFE8200434AC20043418
:10521000742004342C200434E41F04349C1F043410
:10522000541F0434E41E0434C81E043408B5124963
:1052300000201AF09FFB114902201AF0EBFD1049E3
:1052400000201AF0E7FD01220E4900201AF02CFA86
:1052500001220D4909201AF027FA01220B490620E4
:105260001AF022FA05210A481AF0C2F9BDE80840EE
:10527000062108481AF036B9241E0434EC1D043403
:10528000B41D04346C1D0434241D0434DC1C0434AB
:105290008C1C0434741C043408B5274902201AF00D
:1052A00069FB264900201AF065FB254901201AF008
:1052B00061FB244903201AF05DFB234901201AF009
:1052C000A9FD224903201AF0A5FD214900201AF06A
:1052D000A1FD01221F4906201AF0E6F901221E490C
:1052E00009201AF0E1F901221C4905201AF0DCF925
:1052F00001221B4903201AF0D7F90122194908207D
:105300001AF0D2F90122184900201AF0CDF9012231
:10531000164910461AF0C8F90122154904201AF05E
:10532000C3F90F2113481AF063F9BDE808400F21B3
:1053300011481AF0D7B800BF0C1B0434D01A04343B
:10534000941A0434581A0434201A0434E819043422
:10535000B01904346819043420190434D8180434FA
:10536000901804344818043400180434B81704346E
:1053700070170434801604344416043408B51949EF
:1053800003201AF0F7FA184901201AF0F3FA174926
:1053900000201AF03FFD164902201AF03BFD0122C1
:1053A000144905201AF080F90122134910461AF019
:1053B0007BF90122114903201AF076F901221049E4
:1053C00000201AF071F901220E4906201AF06CF93A
:1053D00009210D481AF00CF9BDE8084009210B48D5
:1053E0001AF080B85415043418150434E014043449
:1053F000A81404346014043418140434D01304348E
:105400008813043440130434B01204348C1204346E
:1054100008B5124900201AF0ADFA114901201AF01E
:10542000F9FC104903201AF0F5FC01220E4907206F
:105430001AF03AF901220D4902201AF035F9012239
:105440000B4904201AF030F905210A481AF0D0F867
:10545000BDE80840062108481AF044B8E8110434B1
:10546000B01104347811043430110434E8100434D9
:10547000A0100434501004343810043408B517490F
:1054800001201AF077FA164902201AF073FA15492A
:1054900000201AF0BFFC144902201AF0BBFC0122C4
:1054A000124904201AF000F90122114908201AF0CB
:1054B000FBF801220F4900201AF0F6F801220E49EC
:1054C00005201AF0F1F808210C481AF091F8BDE80F
:1054D000084008210A481AF005B800BF5C0F0434E0
:1054E000200F0434E80E0434B00E0434680E043483
:1054F000200E0434D80D0434900D0434100D0434FF
:10550000F00C043408B5194903201AF033FA18498D
:1055100000201AF02FFA174901201AF07BFC1649D7
:1055200003201AF077FC0122144908201AF0BCF875
:105530000122134909201AF0B7F80122114902206B
:105540001AF0B2F80122104903201AF0ADF8012236
:105550000E4906201AF0A8F809210D481AF048F85B
:10556000BDE8084009210B4819F0BCBF000C043409
:10557000C40B04348C0B0434540B04340C0B04346F
:10558000C40A04347C0A0434340A0434EC090434B4
:105590005C0904343809043408B5124902201AF0B1
:1055A000E9F9114902201AF035FC104900201AF0DF
:1055B00031FC01220E4900201AF076F801220D4933
:1055C00006201AF071F801220B4908201AF06CF835
:1055D00005210A481AF00CF8BDE8084006210848E1
:1055E00019F080BF940804345C080434240804349F
:1055F000DC070434940704344C070434FC060434F8
:10560000E406043408B5174901201AF0B3F9164925
:1056100000201AF0AFF9154903201AF0FBFB1449DA
:1056200001201AF0F7FB0122124905201AF03CF87C
:105630000122114904201AF037F801220F490920EC
:105640001AF032F801220E4903201AF02DF8082131
:105650000C4819F0CDFFBDE8084008210A4819F0B0
:1056600041BF00BF08060434CC050434940504345B
:105670005C05043414050434CC0404348404043478
:105680003C040434BC0304349C03043408B51549B9
:1056900002201AF06FF9144903201AF06BF913492C
:1056A00000201AF0B7FB01221149002019F0FCFF7D
:1056B00001221049082019F0F7FF01220E490620A7
:1056C00019F0F2FF01220D49032019F0EDFF072127
:1056D0000B4819F08DFFBDE808400721094819F073
:1056E00001BF00BFD40204349802043460020434C1
:1056F00018020434D0010434880104344001043415
:10570000D0000434B400043408B5124900201AF063
:1057100031F9114901201AF07DFB104902201AF0DD
:1057200079FB01220E49052019F0BEFF01220D4927
:10573000002019F0B9FF01220B49022019F0B4FF33
:1057400005210A4819F054FFBDE808400621084821
:1057500019F0C8BE10000434D8FF0334A0FF03348E
:1057600058FF033410FF0334C8FE033478FE0334BB
:1057700060FE033408B5124901201AF0FBF8114904
:1057800003201AF047FB104900201AF043FB0122C6
:105790000E49092019F088FF01220D49032019F054
:1057A00083FF01220B49022019F07EFF05210A48E0
:1057B00019F01EFFBDE808400621084819F092BE06
:1057C000BCFD033484FD03344CFD033404FD033479
:1057D000BCFC033474FC033424FC03340CFC03349D
:1057E00008B5224902201AF0C5F8214903201AF011
:1057F000C1F8204901201AF00DFB1F4902201AF0C0
:1058000009FB1E4900201AF0B5F81D4900201AF0C6
:1058100001FB01221B49002019F046FF01221A4911
:10582000092019F041FF01221849052019F03CFF19
:1058300001221749104619F037FF012215490220AD
:1058400019F032FF01221449032019F02DFF012223
:105850001249062019F028FF0D21114819F0C8FE41
:10586000BDE808400D210F4819F03CBECCFA0334C6
:1058700090FA033458FA033420FA0334E4F9033479
:10588000ACF9033464F903341CF90334D4F8033459
:105890008CF8033444F80334FCF70334B4F70334CE
:1058A000E4F60334B0F6033408B5124901201AF0C7
:1058B00061F8114903201AF0ADFA104900201AF0DE
:1058C000A9FA01220E49052019F0EEFE01220D4928
:1058D000062019F0E9FE01220B49002019F0E4FE30
:1058E00005210A4819F084FEBDE808400621084851
:1058F00019F0F8BD0CF60334D4F503349CF50334E9
:1059000054F503340CF50334C4F4033474F4033451
:105910005CF4033408B5124900201AF02BF8114941
:1059200002201AF077FA104901201AF073FA0122C6
:105930000E49032019F0B8FE01220D49092019F083
:10594000B3FE01220B49082019F0AEFE05210A48DA
:1059500019F04EFEBDE808400621084819F0C2BD06
:10596000B8F3033480F3033448F3033400F303340F
:10597000B8F2033470F2033420F2033408F2033433
:1059800008B51E49022019F0F5FF1D49032019F042
:10599000F1FF1C49002019F0EDFF1B49012019F00F
:1059A000E9FF1A4900201AF035FA012218490620A9
:1059B00019F07AFE01221749104619F075FE0122EE
:1059C0001549002019F070FE01221449072019F032
:1059D0006BFE01221249092019F066FE01221149CD
:1059E000022019F061FE0D210F4819F001FEBDE8FB
:1059F00008400B210D4819F075BD00BFD0F00334ED
:105A000094F0033458F003341CF00334E4EF03340F
:105A10009CEF033454EF03340CEF0334C4EE03342F
:105A20007CEE033434EE033464ED033438ED033498
:105A300008B51249012019F09DFF114903201AF001
:105A4000E9F9104901201AF0E5F901220E49062072
:105A500019F02AFE01220D49032019F025FE01222A
:105A60000B49002019F020FE05210A4819F0C0FD5D
:105A7000BDE808400621084819F034BD94EC033411
:105A80005CEC033424EC0334DCEB033494EB03349C
:105A90004CEB0334FCEA0334E4EA033408B512495E
:105AA000002019F067FF114902201AF0B3F91049DC
:105AB00000201AF0AFF901220E49104619F0F4FD4A
:105AC00001220D49002019F0EFFD01220B490720AA
:105AD00019F0EAFD05210A4819F08AFDBDE80840E1
:105AE0000621084819F0FEBC40EA033408EA0334F2
:105AF000D0E9033488E9033440E90334F8E8033497
:105B0000A8E8033490E8033408B51549022019F0D9
:105B100031FF1449032019F02DFF134901201AF019
:105B200079F901221149104619F0BEFD01221049F0
:105B3000042019F0B9FD01220E49082019F0B4FD26
:105B400001220D49062019F0AFFD07210B4819F07D
:105B50004FFDBDE808400721094819F0C3BC00BF4C
:105B6000C8E703348CE7033454E703340CE7033409
:105B7000C4E603347CE6033434E60334C4E503347A
:105B8000A8E5033408B51249012019F0F3FE1149C4
:105B900003201AF03FF9104900201AF03BF90122C6
:105BA0000E49082019F080FD01220D49042019F04A
:105BB0007BFD01220B49104619F076FD05210A48AC
:105BC00019F016FDBDE808400621084819F08ABC06
:105BD00004E50334CCE4033494E403344CE40334A8
:105BE00004E40334BCE303346CE3033454E30334CC
:105BF00008B51249002019F0BDFE114901201AF024
:105C000009F9104902201AF005F901220E49002075
:105C100019F04AFD01220D49062019F045FD012227
:105C20000B49072019F040FD05210A4819F0E0FC56
:105C3000BDE808400621084819F054BCB0E203341E
:105C400078E2033440E20334F8E10334B0E1033492
:105C500068E1033418E1033400E1033410B5E8B01F
:105C60004FF4D072002168461DF0ECFA4FF44074F6
:105C70004FF4C0402D23CDE9050409903248182285
:105C80000A9040208DF800300123CDE90C004FF43C
:105C9000C0644FF4C030CDE90323CDE90723CDE93B
:105CA0000E23CDE91223294A20212092A2F5407229
:105CB0002B9202F54472CDE9100414903692102014
