:0200000470107A
:1000000053544D32000000000000000000000000CA
:1000100000000000000000000000000000000000E0
:1000200000000000000000000000000000000000D0
:1000300000000000000000000000000000000000C0
:1000400000000000000000000000000000000000B0
:1000500000000000000000000000000000000000A0
:1000600000000000A8030B030003020000120800B8
:100070008516023400000000FFFFFFFF00000000B3
:100080000000000000000080A0010000000000004F
:100090000000000000000000000000000000000060
:1000A0005354FFFFA00100008E888BE71F60208360
:1000B00002F5FC95DD8DD0F3B6E3122BAAFD8A275D
:1000C00014AC7CFC327B31ACEA28174387D50CFB9F
:1000D000F21B6932539BB0717893D6279820696FD1
:1000E0003531C9AA5C281B0D85DD6CE15A6FDCF245
:1000F000E563B6E547737C0A3F060CB813AFD32916
:1001000049374227FF70175EA13B7FB555BD18B92F
:10011000A2831E6EBB8372DFE358168CA163460474
:10012000A1B10E7D0C2311C0B76169577D4C53C43A
:10013000B15F42D432BEECBF4F5FE880697EEFA66C
:10014000BF84A19EA20C60D931DD149EBF9F66BD05
:10015000CD0964D8C992936E3B26E5CBD3CF450732
:100160009053E0B73AE18E0238E8AC6071CFFA39CB
:10017000DE0C48A34E7E378AD4FA88782DE85E9F3D
:10018000A6356746F69D6962460C634A67BDAD1A9F
:100190000A886ED74EE03AB49F371443C3D0130693
:1001A0001D8A9A714AE9581052A420720EBCE621A9
:1001B000FA0EB19BC66E6BF9A5795E53DF4B5265A3
:1001C00043D470BF20AB75DF29B47E7B751DA66B51
:1001D00067FAD0E1E22634F685121133AD7D4CAEDC
:1001E00001B46F4D30465A6B95493F3EE34E160FB2
:1001F00071872E59F7EEFC73A54D9CA1B11B1339E5
:1002000057EB1CF5D8BE26A2DDE1894C778C1DF496
:100210006B404EED78ABE1B406E6CEB26E81EA807B
:10022000033107403822BE8FCD652399917CD45C81
:100230007C956A84FD060329621429D25D07402556
:1002400000000000000000000000000000000000AE
:10025000000000000000000000000000000000009E
:10026000000000000000000000000000000000008E
:10027000000000000000000000000000000000007E
:10028000000000000000000000000000000000006E
:10029000000000000000000000000000000000005E
:1002A000000000000000000000000000000000004E
:1002B000000000000000000000000000000000003E
:1002C000000000000000000000000000000000002E
:1002D000000000000000000000000000000000001E
:1002E000000000000000000000000000000000000E
:1002F00000000000000000000000000000000000FE
:1003000000000000000000000000000000000000ED
:1003100000000000000000000000000000000000DD
:1003200000000000000000000000000000000000CD
:1003300000000000000000000000000000000000BD
:1003400000000000000000000000000000000000AD
:10035000000000000000000000000000000000009D
:10036000000000000000000000000000000000008D
:10037000000000000000000000000000000000007D
:10038000000000000000000000000000000000006D
:10039000000000000000000000000000000000005D
:1003A000000000000000000000000000000000004D
:1003B000000000000000000000000000000000003D
:1003C000000000000000000000000000000000002D
:1003D000000000000000000000000000000000001D
:1003E000000000000000000000000000000000000D
:1003F00000000000000000000000000000000000FD
:100400000000103485160234192800341D280034E9
:100410002D2800343D2800344D2800345D28003458
:100420000000000000000000000000006D28003403
:100430006F28003400000000712800347328003455
:10044000E116023400000000E1160234E116023425
:10045000E1160234E1160234E1160234E1160234E8
:10046000E116023400000000E1160234E116023405
:10047000E116023411220034E116023400000000BB
:10048000E116023400000000E1160234E1160234E5
:10049000E1160234E1160234E1160234E1160234A8
:1004A000E1160234E1160234E1160234E116023498
:1004B000E1160234E1160234E1160234E116023488
:1004C000E1160234E1160234E1160234E116023478
:1004D000E1160234E1160234E1160234E116023468
:1004E000E116023400000000E1160234E116023485
:1004F000E1160234E1160234E116023477280034A2
:10050000852800340000000000000000000000000A
:10051000E11602341D0A0234E1160234E1160234F7
:10052000E1160234E1160234E1160234E116023417
:10053000E1160234E1160234E1160234E116023407
:10054000E1160234E1160234E1160234E1160234F7
:10055000E1160234E1160234E1160234E1160234E7
:1007400000000000E1160234E1160234000000004F
:1007500010B5054C237833B9044B13B10448AFF3FB
:1007600000800123237010BD4014083400000000F5
:10077000C499023408B5034B1BB103490348AFF3D6
:10078000008008BD0000000044140834C4990234FD
:10079000034613F8012B002AFBD1181A01387047C1
:1007A00081F0004102E000BF83F0004330B54FEA22
:1007B00041044FEA430594EA050F08BF90EA020F8F
:1007C0001FBF54EA000C55EA020C7FEA645C7FEA22
:1007D000655C00F0E2804FEA5454D4EB5555B8BF45
:1007E0006D420CDD2C4480EA020281EA030382EAB6
:1007F000000083EA010180EA020281EA0303362D48
:1008000088BF30BD11F0004F4FEA01314FF4801C1A
:100810004CEA113102D0404261EB410113F0004F2C
:100820004FEA03334CEA133302D0524263EB4303E3
:1008300094EA050F00F0A780A4F10104D5F1200E81
:100840000DDB02FA0EFC22FA05F2801841F10001DC
:1008500003FA0EF2801843FA05F359410EE0A5F1B0
:1008600020050EF1200E012A03FA0EFC28BF4CF0E1
:10087000020C43FA05F3C01851EBE37101F0004597
:1008800007D54FF0000EDCF1000C7EEB00006EEBA4
:100890000101B1F5801F1BD3B1F5001F0CD349082E
:1008A0005FEA30004FEA3C0C04F101044FEA445285
:1008B00012F5800F80F09A80BCF1004F08BF5FEA0C
:1008C000500C50F1000041EB045141EA050130BDEC
:1008D0005FEA4C0C404141EB0101013C28BFB1F5FE
:1008E000801FE9D291F0000F04BF01460020B1FA49
:1008F00081F308BF2033A3F10B03B3F120020CDA1C
:100900000C3208DD02F1140CC2F10C0201FA0CF0F9
:1009100021FA02F10CE002F11402D8BFC2F1200C5E
:1009200001FA02F120FA0CFCDCBF41EA0C01904014
:10093000E41AA2BF01EB0451294330BD6FEA04045D
:100940001F3C1CDA0C340EDC04F11404C4F1200248
:1009500020FA04F001FA02F340EA030021FA04F35A
:1009600045EA030130BDC4F10C04C4F1200220FAB1
:1009700002F001FA04F340EA0300294630BD21FAEF
:1009800004F0294630BD94F0000F83F4801306BFB5
:1009900081F480110134013D4EE77FEA645C18BFA9
:1009A0007FEA655C29D094EA050F08BF90EA020F40
:1009B00005D054EA000C04BF1946104630BD91EA38
:1009C000030F1EBF0021002030BD5FEA545C05D13B
:1009D0004000494128BF41F0004130BD14F580047A
:1009E0003CBF01F5801130BD01F0004545F0FE41EE
:1009F00041F470014FF0000030BD7FEA645C1ABF23
:100A0000194610467FEA655C1CBF0B46024650EA59
:100A1000013406BF52EA033591EA030F41F4002185
:100A200030BD00BF90F0000F04BF0021704730B50B
:100A30004FF4806404F132044FF000054FF00001E0
:100A400050E700BF90F0000F04BF0021704730B5A1
:100A50004FF4806404F1320410F0004548BF404276
:100A60004FF000013EE700BF42004FEAE2014FEACB
:100A700031014FEA02701FBF12F07F4393F07F4FA6
:100A800081F06051704732F07F4208BF704793F0A9
:100A90007F4F04BF41F40021704730B54FF46074BC
:100AA00001F0004521F000411CE700BF50EA0102BF
:100AB00008BF704730B54FF000050AE050EA010268
:100AC00008BF704730B511F0004502D5404261EBD8
:100AD00041014FF4806404F132045FEA915C3FF419
:100AE000D8AE4FF003025FEADC0C18BF03325FEAB6
:100AF000DC0C18BF033202EBDC02C2F1200300FA67
:100B000003FC20FA02F001FA03FE40EA0E0021FA8B
:100B100002F11444BDE600BF7BB972B90029BEBF23
:100B200000204FF0004106E008BF00281CBF6FF016
:100B300000414FF0FF3000F035BAADF1080C6DE91F
:100B400004CE002909DB002B1ADB00F085F8DDF864
:100B500004E0DDE9022304B07047404261EB41014B
:100B6000002B1BDB00F078F8DDF804E0DDE9022360
:100B700004B0404261EB4101524263EB43037047D2
:100B8000524263EB430300F067F8DDF804E0DDE96F
:100B9000022304B0404261EB41017047524263EBD3
:100BA000430300F059F8DDF804E0DDE9022304B066
:100BB000524263EB4303704753B94AB9002908BF57
:100BC00000281CBF4FF0FF314FF0FF3000F0EAB9B2
:100BD000ADF1080C6DE904CE00F03EF8DDF804E05C
:100BE000DDE9022304B07047024608B50B4643EC2A
:100BF000172BB5EEC07BF1EE10FA03D4BDE8084028
:100C000000F00AB8B1EE477B51EC170B00F004F886
:100C1000404261EB410108BD9FED0B6B41EC170BAE
:100C20009FED0B5B27EE066BBCEEC66BB8EE464B3A
:100C300016EE101AA4EE457BFCEEC77B17EE900A69
:100C4000704700BFAFF30080000000000000F03DDF
:100C5000000000000000F0412DE9F04F8C46099E95
:100C600004460F46002B48D18A4215465ED9B2FA97
:100C700082F33BB1C3F120029F409D409C4020FA8B
:100C800002F217434FEA154E1FFA85FC220CB7FB00
:100C9000FEF10EFB117701FB0CF042EA0742904295
:100CA00007D9AA1801F1FF3702D2904200F2588109
:100CB0003946121AA4B2B2FBFEF00EFB102200FB62
:100CC0000CFC44EA0244A4450BD92C1900F1FF3274
:100CD0002CBF01270027A44502D9002F00F0438133
:100CE000104640EA0140A4EB0C0400211EB1DC4098
:100CF0000023C6E90043BDE8F08F8B4206D90EB150
:100D0000C6E9000100210846BDE8F08FB3FA83F17F
:100D1000002951D16345C0F01681824240F213810F
:100D20000846002EE7D0C6E90047E4E7002A00F0B5
:100D3000AF80B2FA82F3002B40F0C2808A1A4FEAE9
:100D4000154EAFB20121200CB2FBFEFC0EFB1C22A3
:100D500040EA024207FB0CF090420ED9AA180CF1AF
:100D6000FF382CBF4FF001094FF00009904203D922
:100D7000B9F1000F00F0F080C446121AA4B2B2FB21
:100D8000FEF00EFB102200FB07F744EA0244A742E4
:100D90000ED92C1900F1FF322CBF4FF0010E4FF08D
:100DA000000EA74203D9BEF1000F00F0D28010461A
:100DB000E41B40EA0C4099E7C1F120058B400CFA96
:100DC00001F400FA01F922FA05F72CFA05FC8A4031
:100DD0001F4320FA05F3380C23431FFA87FE1C0C2F
:100DE000BCFBF0F800FB18CC44EA0C4408FB0EFCFA
:100DF000A4450ED93C1908F1FF3A2CBF4FF0010B66
:100E00004FF0000BA44503D9BBF1000F00F0B880F0
:100E1000D046A4EB0C041FFA83FCB4FBF0F300FBF8
:100E2000134403FB0EFE4CEA0444A6450ED93C19BC
:100E300003F1FF302CBF4FF0010C4FF0000CA64522
:100E400003D9BCF1000F00F09F80034643EA08403D
:100E5000A4EB0E04A0FB02EC64457346E04602D30B
:100E600007D1F14505D2BEEB02036CEB070C01384C
:100E7000E0465EB1B9EB030264EB080404FA05F541
:100E800022FA01F3CC401D43C6E90054002132E7A9
:100E900042082F464B08AC4642EAC172AE46C40730
:100EA000110C92B241EA034142EA0142B1FBF5F171
:100EB000B3FBF5F01F23A2EB0C0241EA004142E72D
:100EC0009D40C3F1200299409C402CFA02FC4FEA5D
:100ED000154E20FA02F2AFB2BCFBFEF80A430EFB3D
:100EE00018CC110C41EA0C4108FB07FC8C4550D989
:100EF000691808F1FF302CBF4FF001094FF00009CD
:100F00008C4502D9B9F1000F30D0A1EB0C01B1FB37
:100F1000FEF808FB07FC0EFB181192B242EA0142F0
:100F2000624534D2AA1808F1FF312CBF4FF00109F5
:100F30004FF000096245BED2B9F1000FBBD1A8F154
:100F400002012A44B7E7841A6CEB0302012017461A
:100F5000E7E62C4402382BE7ACF1020C2A440CE7FC
:100F600002392A44A5E62C440238BAE6A5EB0C0C5B
:100F7000A8F102006144B1FBFEF808FB07FCCAE7D8
:100F8000A8F102083C4444E7023B3C445EE741468A
:100F900091E7A1EB0C014046B1FBFEF808FB07FC12
:100FA000B9E700BF704700BF044B82B0C3F84C0ADA
:100FB000D3F84C320193019B02B070470080025677
:100FC000044B82B0C3F88C0AD3F88C320193019B96
:100FD00002B0704700800256044B82B0C3F8A00AEA
:100FE000D3F8A0320193019B02B0704700800256F3
:100FF000F0B5134C056822680E68AA42C8BF0260AB
:1010000063680F689F42A768B8BF0B603A440768DF
:10101000974224BF02F1FF320260E26813440A687B
:101020009A4224BF03F1FF330B600368AB4204D143
:101030000868801B18BF0120F0BD0120FCE700BF3D
:1010400050E207340A4BD3ED027AF8EE677A67EE86
:10105000807AFDEEE77AC0ED007AD3ED037AF8EE00
:10106000677A67EEA07AFDEEE77AC1ED007A704705
:1010700050E207340E4BD3ED027AB8EE677AD3ED27
:10108000007AF8EE677AE7EE007AFDEEE77AC0EDD7
:10109000007AD3ED037AB8EE677AD3ED017AF8EEF1
:1010A000677AE7EE207AFDEEE77AC1ED007A7047C5
:1010B00050E2073470B5ADF51A7D40220021684634
:1010C00021F0C8F99822002110A821F0C3F94FF4AB
:1010D000C872002136A821F0BDF9012012F088FE67
:1010E0000125002319227D210226CDE91D32CDE9FB
:1010F00025150822E121CDE91A63CDE92163CDE967
:101100002323CDE92932CDE92B31CDE92F63CDE978
:1011100031231093062310A8CDE91F55CDE927569A
:10112000CDE92D56CDE934331C9633910CF0D4FA29
:1011300000B1FEE74FF440337F22CDE900234FF0AA
:10114000407302934FF08053CDE90C354FF00053BC
:10115000CDE90E354FF48013CDE90805CDE90A0637
:10116000CDE90330CDE90500079068460CF0AEFEEE
:1011700000B1FEE7084B002261934FF44003CDE934
:101180003623064B36A862930DF01AFA00B1FEE73B
:101190000DF51A7D70BD00BF140000031404000398
:1011A0007FB5CDE9041004A905A8CDE90232FFF707
:1011B0001FFF02A903A8FFF71BFFDDE90410089B2E
:1011C0000093DDE902321DF0CBFB07B000BD00004B
:1011D0002DE9F04F2DED048B484AADF5197D1368CC
:1011E00043F400531360464B1A6A22F440321A62E9
:1011F0001A6A22F040721A6206F064FE414B5A6984
:1012000012F4003211D1BFF34F8FBFF36F8FC3F8C9
:101210005022BFF34F8FBFF36F8F5A6942F40032F1
:101220005A61BFF34F8FBFF36F8F344A136843F493
:1012300080531360A2F57342536913F4803328D1AD
:10124000C2F88430BFF34F8F43F6E074D2F8803099
:10125000C3F3C900C3F34E335B0100F1010E014635
:101260004EF001E003EA040646EA8175C2F86052D6
:1012700001390FF007C8203B13F1200FEDD1BFF368
:101280004F8F536943F480335361BFF34F8FBFF3E4
:101290006F8FFFF70FFF1023194C0227C4F86C3A29
:1012A000D4F86C124FF001081091109AC4F85C3A0F
:1012B000D4F85C2214480F920F9B6023609307239D
:1012C00060A96493CDE96178639709F0BDFC0F4A8A
:1012D0000F4B4FF00C0913604FF4E13353600023C0
:1012E000C2E90439C2E9023393614FF40043104666
:1012F000D3610AF0B7FB054660B1FEE700E001E00C
:101300000080025600ED00E000100256DC57083461
:10131000001000524FF000494FF4805BC4F8609A0F
:10132000D4F8602240461292B64A129BC4F8209A22
:10133000C2F82092FFF738FE3846FFF735FE04204A
:10134000FFF732FE0820FFF72FFEC4F854BAD4F896
:10135000541260A81191119BAB4BCDE9615560937C
:101360000BF09EFEA94B60A860930BF099FEA84B72
:1013700060A860930BF094FEA64B60A860930BF0FE
:101380008FFE00F0CFFF01F0D9FA284614F040FCA0
:10139000284614F061FD40F201134FF4007A032651
:1013A0002DA92846ADF8B43014F0EEFA284614F012
:1013B0005BFAC4F858AAD4F858124046139160A9B1
:1013C000139B619660970BF091FD082060A90BF0CC
:1013D0008DFD092060A90BF089FD0A2060A90BF0A2
:1013E00085FD0B2060A90BF081FD31468A480BF08A
:1013F000D3FD314689480BF0CFFD314688480BF0CC
:10140000CBFD314687480BF0C7FD314686480BF0CF
:10141000C3FD314685480BF0BFFD314684480BF0D3
:10142000BBFD4FF48063C4F8583AD4F85802754AAB
:10143000149014992020C4F8183AC2F81832FFF713
:10144000CBFD5846FFF7C8FD4846FFF7C5FD4FF0F6
:101450008040FFF7C1FDC4F8BC7AD4F8BC223846FE
:1014600017920422179BFFF7B7FDC4F8BC2AD4F8E3
:10147000BC1250461691169B4023C4F8BC3AD4F8CF
:10148000BC120DF134091591159BFFF799FD8020D1
:10149000FFF796FD4FF48070FFF792FD4046FFF78F
:1014A0008FFD3846FFF78CFD1046FFF789FD0820B9
:1014B000FFF786FD5F4820F0B3FE5F4A5F49604852
:1014C00020F046FE5F4A6049604820F041FE324607
:1014D00043460E215E4820F03BFE32462B464146F5
:1014E0005C4820F035FE2B462A4631465A4820F00B
:1014F0002FFE5A495A4820F02BFE5A495A4820F0EC
:1015000027FE0BAC4B480CAE20F08AFE2560356000
:10151000C9F800500E951FF034FB30B140F2D111E4
:10152000524B534A534820F0DDF8534804F076FFFD
:1015300020B14FF4EA714D4B4D4AF3E74E4860A994
:1015400004F0AEFF20B140F2D711484B484AE9E71A
:10155000BDF8B031012B04D04FF4EC71474B444A35
:10156000E0E733606F9B464943486CAA1F6804F06C
:1015700091FF20B14FF4EF713C4B3D4AD2E7324628
:1015800049463D4804F089FFB0B93568282105F186
:10159000010E4EF001E0709A0EABBEF1010E10D1BB
:1015A0000323384818932D9304F0F4FF80B14FF4CF
:1015B000F9712E4B344AB5E74FF4F1712B4B2C4A9D
:1015C000B0E701FB00F55559013043F8045BE4E74F
:1015D0002E4B01222B4860A9609306F04BFA20B1F4
:1015E0004FF4FC71214B284A9CE72949254818AA49
:1015F00006F0ECF900284DD040F2FB111B4B224ABB
:1016000090E700BF00900256003102528031025232
:1016100000320252803202520A00003005000030CF
:101620001C0000201D0000200600003007000030D4
:1016300008000030409C0234699C02346D9C0234E6
:10164000799C0234A89C0234B19C0234BD9C0234C3
:10165000D79C0234EF9C0234019D02341B9D02345E
:10166000509D02345E9D0234749D0234849D023488
:10167000C6CE0234989D023478570834A39D0234B4
:10168000D457083438570834B7CE023468140834B5
:101690000C2108349F49A0482DAA06F0C1F905463F
:1016A00020B14FF4FF719D4B9D4A3BE701464FF43B
:1016B00080729C4820F0CEFE294680229A4820F075
:1016C000C9FE29462422994820F0C4FE984818A94A
:1016D00004F0E6FE054620B140F205118F4B954A15
:1016E00020E718A9944800F0FBFE94481AF04EF940
:1016F00006F006FC924E934B224618603146301F8E
:101700001AF08AFA0121284613F0CCFFA6F10C0347
:1017100056F8081CDB688C4C0B44E360022356F837
:101720000C0C56F8042C894E02442060A1606260C3
:101730002946224628462361666113F0BFFF844B89
:10174000186859689A68DB6802440B44E360042314
:101750002361804B2060A1606260012122462846FF
:10176000636113F0ABFF7C481CF0BAFE01201CF053
:10177000EBFE28461DF02EFA78481CF01BFF4FF0B8
:10178000FF301CF007FF76497648774B774A00F028
:101790005FFF294630461AF09FFA0BAC1AF0C4FAE4
:1017A0002368B3F5407F63D00421714B18681AF0A9
:1017B000A7FA704B1A68002AFCD000221A6023682E
:1017C000B3F5407F79D06A4B1A6802F01F03BFF36C
:1017D0004F8F03F1030E1C3B4FEA5E1E20330EF1C8
:1017E000010ED8BF4FF0010E4EF001E06249C1F882
:1017F0005C2220320FF005C8BFF34F8FBFF36F8F0D
:101800004FF480730326CDE900365C4D58482268BA
:10181000296800681AF022F8002F1EDD2B6803F0FB
:101820001F023A44BFF34F8F6FEA030E98188644A5
:10183000203A4FEA5E1E20320EF1010ED8BF4FF063
:10184000010E4EF001E04C49C1F8703220330FF028
:1018500005C8BFF34F8FBFF36F8F06F051FB0890A1
:101860000221334804F0F2FD112845D120BFF7E7EB
:10187000002F42481EDD036803F01F023A44BFF305
:101880004F8F6FEA030E9D18AE44203A4FEA5E1E5A
:1018900020320EF1010ED8BF4FF0010E4EF001E0E4
:1018A0003549C1F85C3220330FF005C8BFF34F8FC4
:1018B000BFF36F8F0421006879E7002FCDDD2F4B38
:1018C0001B6803F01F023A44BFF34F8F6FEA030E09
:1018D00098188644203A4FEA5E1E20320EF1010E1F
:1018E000D8BF4FF0010E4EF001E02349C1F85C3241
:1018F00020330FF005C8ACE710380128B0D90C48E8
:1019000004F01EFE054600283CD04FF4DB71034B6B
:101910001B4A07E60021083438570834849D0234F6
:10192000B7CE023400200834801F0834E056083453
:1019300078570834D9CE0234745808341C2108343E
:101940005CE2073418210834BC5708340070179142
:1019500040E2073400000091ECB40634641208340D
:1019600045100034F10F0034A1110034751000341B
:10197000B8570834D857083400ED00E0D45708347D
:10198000A9CE023406F0BCFA099028460EAC0CAE83
:101990003168814271D8AF4BAF4A484600F0B6FD7E
:1019A0000023AE4C0021C4E9043323802377E38372
:1019B0004023C4E9083311233668D9F80020E062D7
:1019C0006160A160E160A3625EB352B30E9E002E1F
:1019D00027DD114611F9013B02EB060EAEEB010EBD
:1019E0000EF1010E1A464EF001E0BEF1010E6CD16F
:1019F0009849237091ED037A91F9101062705B1A87
:101A000007EE903AF8EEE77A67EE877A531AC4ED5C
:101A1000017A07EE903AF8EEE77A67EE877AC4ED3E
:101A2000027A8D4B1B68002B00F0B180002260A968
:101A30009C4688469646934692469FED897ADFED0E
:101A4000896A9FED896A1126DCED027AB4EEE77AA5
:101A5000F1EE10FAF4EEE67A44BFB0EE677A4FF09A
:101A6000010AF1EE10FAE8EC017A37DB4FF0010BD6
:101A700001354FF0010E013235E054F8041B002906
:101A800021DD0DAB53F8203003F01F020A44BFF3F1
:101A90004F8F6FEA030E03EB020CE644203A4FEA45
:101AA0005E1E20320EF1010ED8BF4FF0010E4EF037
:101AB00001E06E49C1F85C3220330FF005C8BFF376
:101AC0004F8FBFF36F8F013062E711F9016BB342A3
:101AD000A8BF3346B242B8BF324686E7F4EEC67AB4
:101AE000F1EE10FAC5DA013E0CF10C0CACD1BEF1EE
:101AF000000F01D0594E7261BBF1000F01D0574A5F
:101B00001561BAF1000F02D0544A82ED037A002227
:101B10008C4604310E460132C2F11105B6EC017A51
:101B2000DCED007AB4EEE77AF1EE10FAC4BF8CED8A
:101B3000007A46ED017A013DF0D1052AE8D1DDEDCC
:101B4000607A9FED4B7AF4EEC77AF1EE10FA4FDA35
:101B50009DED617A77EE877A9DED627A77EE877AEE
:101B60009DED637A77EE877A9DED647AF1EE046AF3
:101B700077EE877A87EEA67ADFED3B7AB4EEE77AE6
:101B8000F1EE10FAACBF0122002234490A77394A3B
:101B9000324E1168DFF8C0A00131116050BB53B361
:101BA0000123327FB37732B3B06170773369003B82
:101BB00018BF0123F377CB0772D5DDE90823DFF8DF
:101BC000DC80A3EB020B2C4DD8F800302B4901220E
:101BD00001FB03512A48DAF800A00BF053F9034641
:101BE000002800F07D8140F25231264B264A99E4CC
:101BF0000122CAE70023B269092A29D80132A2F1D9
:101C00000A00B26142424241727723B1D3B2002B43
:101C1000CCD00023F37700251C4B4FF4807229466B
:101C20001B48C3F8C055C3F8BC5520F013FC8022F4
:101C30002946184820F00EFC0022174BC3E9015535
:101C4000C3E907551D80DA601A615A619A61B4E7E9
:101C50000122D9E7745808347058083404570834FE
:101C600000000000CDCCCC3D0AD7A33D00ED00E044
:101C7000CDCC4C3E641408340000009100B80B0039
:101C800074670834269E023481CE02341C51083415
:101C900000200834801F0834E056083434570834D4
:101CA00006F02EF97B4ADFED7C7A1368C31A00EE4A
:101CB000103AB8EE400A20EE270AB5EEC00AF1EE5F
:101CC00010FA38D9F7EE007AB4EEE70AF1EE10FA1E
:101CD00031DC1060DAF80010704860AA19F05CFE80
:101CE0006F4B704DD3F8C0351D2B6B6026D9012387
:101CF0002B70DFF8E0814FF480726B49D8F8000058
:101D000020F02FFE80226949D8F8040020F029FE37
:101D1000D8F80810614819F06BFF06F0F1F80121BE
:101D20008046634805F072FB90B140F2C711614BE9
:101D3000614AFFF7F7BB9FED610ACAE700222A70EC
:101D4000002BD6D100226B70AA616A61AB6034E7C8
:101D500006F0D6F8A0EB0800DFF87C814FF4807223
:101D6000D8F80010A860504820F0FBFDD8F8081003
:101D700080224E4820F0F5FDD8F804301A68EA6059
:101D8000D3ED018AC5ED048A93ED000AB4EEE80AAA
:101D9000F1EE10FA30FE289A30EE490A23F094F85A
:101DA000B0EE408A38EEC90A23F08EF878EE006A69
:101DB000F5EEC06AF1EE10FAD3BFF6EE007AC8EE87
:101DC000267A80EE267AB0EE677A2B78C5ED057A12
:101DD00085ED067A002B32D0B4EEE77AF1EE10FAF8
:101DE000ACBF012300236B7048DA06F089F8DFF8F6
:101DF000ECB08046DBF800301BB1C31AB3F57A7F34
:101E00001ED36B78AA68002B3FD02D4B61692D48FB
:101E10000691112105912169049195ED057AB7EE9E
:101E2000C77A8DED027B95ED067AB7EEC77A264923
:101E30008DED007B20F08CF9CBF8008000E06B701A
:101E40006B7823B3E96901310129E9617FF6B5AE09
:101E50001E4820F07DF94FF480720021124820F0D6
:101E6000F9FA80220021114820F0F4FA0B4819F009
:101E70008DFD0023EB616B602B709EE606F040F851
:101E80002B782862002BDBD0AFE7114BBEE7EB616C
:101E900093E600BF182108346F12833A1C210834DE
:101EA0001C510834E056083400200834801F0834E0
:101EB00038570834849D023497CE02348988883D8F
:101EC000349C0234BA9D0234B69D0234F09D023433
:101ED000399C02340C210834002108346014083481
:101EE000B0480093D0E90223D0E900011CF036FE8F
:101EF000BAF1000F1BD0F37FCBB160A9AA4819F04B
:101F000077FE112141F001E060AB2DAA19680C3277
:101F100042F8081C59680C3342F80C1C53F8041C96
:101F200042F8041C0FF00FC02DA800F09FFB4FF0EB
:101F300080401CF037FB96F81EA0BAF1000F40F06D
:101F4000C7809A481CF026FB1CF03CFBF36AC18852
:101F5000012200935046964B00F034FC4FF0FF30C6
:101F60001CF018FB1CF02EFB94ED037AB7EEC77A39
:101F7000C1888DED047BA3690122039363699140BD
:101F8000029311230193236900200093894B00F0F1
:101F900019FC1CF017FB94ED027AB7EEC77AC188E2
:101FA0008DED047B94ED017AB7EEC77A8DED027B5F
:101FB00094F901300122019394F9003001EB4101C1
:101FC000002000937C4B00F0FDFB1CF0FBFAE36A61
:101FD000C1880393A36A01220293636A8900019373
:101FE000236A00200093754B00F0ECFB1CF0EAFA2A
:101FF000C1881420724B414301220020CDF800B06B
:1020000000F0E0FB4FF0FF301CF0C4FA6D4C6E485E
:102010001CF0D0FA00201CF0C5FA236813B905F0B3
:102020006FFF206005F06CFF2368C01AB0F57A6F6F
:102030002CD26B236421654A4FF496700093C82319
:102040001CF0C8FA4FF080401CF0ACFA1CF0BAFA51
:10205000C18801225E4B0901002000F0B3FB1CF097
:10206000B1FAC18801225B4B01EB0111002000F0A5
:10207000A9FB1CF0A7FAC188122001224143564B4C
:10208000002000F09FFB00201CF08CFAD8F80030F4
:10209000524A02FB0355BFF34F8F45F6C05E4EF028
:1020A00001E04F4BC3F8685220350FF005C8BFF36D
:1020B0004F8FBFF36F8F012202214A480AF0BAFE08
:1020C000002866D040F2AB31474B484AFFF72ABAA6
:1020D000737F5BB135481CF05DFA1CF073FA012286
:1020E000C188434B002000F06DFB37E7DFF81CA1EF
:1020F000DAF820301E4653B105F002FFDAF820303E
:10210000C61A40F6B7339E428CBF002601269AF8C5
:10211000003003B95EB39AF801301BBB16BB4FF019
:10212000FF2008931CF036FA1CF04CFA089BC1887B
:10213000DBB1304BDAF80820002007922E4A0692D5
:102140009AED057AB7EEC77A8DED047B9AED067AA3
:10215000B7EEC77A00938DED027B0122274B00F08A
:1021600031FBFBE601232648DBE7264BE2E76FF075
:10217000FF001CF00FFA1CF025FA1E23C188019302
:10218000DAF804300122009330461F4B00F01AFBAE
:10219000E4E6D8F80030C3F10103C8F80030FFF7D7
:1021A000FCBA00BF40E207341C210834808080FF65
:1021B000349E0234969E0234B39E0234CD9E023485
:1021C000E49E02345C14083464120834B8CF02343C
:1021D000F49E0234049F0234379F023400B80B008F
:1021E00000ED00E074670834269E023481CE02348C
:1021F0004D9E0234349C0234B69D0234579E023404
:102200000000FFFF399C0234799E0234E056083406
:1022100008B5024820F004F8FEE700BF629F0234D0
:1022200010B5E4B04FF4C8720021684620F012F9EE
:1022300000231022CDE900234FF400134FF080510A
:10224000329303236846CDE922130CF0B9F948B95B
:1022500000230822CDE900232823249068462593F3
:102260000CF0AEF964B010BD0138012810B5144669
:1022700007D920F033FB09234FF0FF3403602046D9
:1022800010BD4FF0FF33044892B209F033FB002831
:1022900018BF0024F3E700BFDC57083407B54FF040
:1022A00080424FF48060FEF77FFE074BC3F8602A40
:1022B000D3F8601201910199C3F8202A03F58053E5
:1022C000C3F8202203B000BD0080025600BEFEE726
:1022D0000120704708B520F001FB162303604FF082
:1022E000FF3008BD08B520F0F9FA16230360FEE7B9
:1022F00070B50D4614460E46731B9C4201DC204609
:1023000070BDAFF3008006F8010BF5E74FF0FF302A
:1023100070474FF4005300204B6070470120704716
:10232000002070471FB5144B7C2101AA02A802931C
:1023300011F0D6FC0346E0B9019A02F4C031B1F5C0
:10234000C03F17D042F4C0327C2102A8019211F0A4
:10235000E3FC68B97C2101AA02A811F0C1FC30B9E4
:10236000019B03F4C033B3F5C03F03D0FEE7FEE7A3
:10237000FEE7FEE705B000BD0090005692ED017A41
:102380002DE9F74F0026019017EE100A3546F6EEBC
:10239000006A98461368D2F808A000FB03FE554572
:1023A00002D103B0BDE8F08FB8F1000F0CBF30468A
:1023B0002846019C012720560024A64514BFF1465B
:1023C000B94605EB0A0B0094B9F101092FD1009C25
:1023D00006EE103AB4FBF3F703FB174407EE904AFE
:1023E000F8EE677AF8EE465A77EEA67A87EEA56A97
:1023F00007EE907AF8EE677AF8EE475A77EEA67A0B
:1024000081ED006A87EEA56A81ED016A92F91040BC
:1024100092ED036A001B07EE900AF8EEE77A67EE8A
:10242000867A0135C1ED027A76440C31B7E7B8F10E
:10243000000F07EB060C18BFDC46019CD34414F9CF
:102440000CC06045ACBF8446009760460137BBE7CF
:102450000C23F0B58E680446024603FB06060020F6
:10246000B24200D1F0BDD1ED007A91ED017AB8EE23
:10247000676AF8EE475AD2ED007A92ED017A66EE7D
:10248000277A25EE877AFCEEE77ABCEEC77A2546F6
:10249000124F131B9B087B4323F040430133013B46
:1024A00001D10C32DCE7D5ED006A66EE266AFCEE5F
:1024B000E66A17EE907A16EE90CA67450BD1D5ED15
:1024C000016A65EEA66AFCEEE66A17EE107A16EE71
:1024D00090CA674500D001300C35E0E7ABAAAA2AC4
:1024E00088B181B14A8E012A0DD10A6C9169126AB4
:1024F00009681288C16002744022C0E900221122DA
:10250000826000F067B84FF0FF30704730B51C466E
:10251000E7B00AB12D4B1360012904D118B1056849
:102520000DB102B144B9CC22002128481FF092FF1E
:102530004FF0FF3067B030BD22460B462846694653
:10254000FFF71CFF0023284633A9FFF717FF21469A
:102550006846FFF77DFF044633A8FFF779FF8968D7
:102560006B4601F1010E0022DFED197A4EF001E019
:102570000C33BEF1010E1AD102F1010E9FED147A57
:102580004EF001E033AB0C33BEF1010E15D18442A5
:1025900005D317D1B4EEE77AF1EE10FA12DDCC22B2
:1025A0000DEB0201094820F0DCF90020C2E713ED31
:1025B000017A013277EE877ADAE753ED016A37EE76
:1025C000267AE0E7CC226946ECE700BF8858083459
:1025D000000000000020704790ED027ADFED197ACC
:1025E000B4EEE77AF1EE10FA7FB502460D4626D436
:1025F000154BD2ED010A92ED000A1B6803A902A84F
:102600009847029B114E023B0093039B01A9023B9A
:102610000193684633689847029B0446023300934F
:10262000039B68460233019301A93368984704432A
:1026300005D1DDE902012B4605221CF0DBFA04B0CE
:1026400070BD00BFCDCCCC3D585908345C5908341E
:102650000349086003490A60034A1360704700BFDA
:102660005C59083458590834545908342DE9F04F4E
:102670002DED028B044689B0029000F1CC06204675
:102680004A490C34FFF7A8FFA642F8D100239FED7A
:10269000488ADFF82081DFF820A1DFF820B103931A
:1026A0000C23D8F80070029A03FB0727D7ED027AB3
:1026B000F4EEC87AF1EE10FA5ED4D8F8046003FBA9
:1026C0000626D6ED027AF4EEC87AF1EE10FA53D46B
:1026D000DAF8003005A904A8D7ED010A97ED000A41
:1026E000D8F808409847DBF8003005A904A89847B7
:1026F000002841D1DAF8003007A906A8D6ED010A72
:1027000096ED000A9847DBF8003007A906A898471D
:1027100090BBDDE90401DDE9062300941CF020F9FB
:1027200004A80FC8A3EB010EA2EB000CBEF1000F32
:10273000B8BFCEF1000EBCF1000FDFF88490B8BF37
:10274000CCF1000CE645D9F80050009420DD0132B0
:102750000130A847DDE90623DDE904010094D9F83A
:102760000090013A0138C84721463846FFF734FF48
:1027700021463046FFF730FF039B08F10C08013378
:10278000122B03938CD109B0BDEC028BBDE8F08F06
:1027900001330131A847DDE90512079B0094D9F800
:1027A00000900498013B0139DDE700BFDCA939FF47
:1027B000CDCCCC3DE0CE0234585908345C590834B5
:1027C0005459083408B477B504460D46164607AB8D
:1027D00053F8042B3021074801931FF09BFD33462B
:1027E00029462046034A1CF075F803B0BDE8704046
:1027F00001B070476059083410B50446FDF7C8FFB2
:102800002146BDE8104082B241F28833014809F008
:1028100071B800BFDC5708347047000008B50248A3
:10282000FFF7EAFFFEE700BF7E9F023408B50248CB
:10283000FFF7E2FFFEE700BF959F023408B50248AC
:10284000FFF7DAFFFEE700BFAC9F023408B502488D
:10285000FFF7D2FFFEE700BFC29F023408B502486F
:10286000FFF7CAFFFEE700BFDA9F02347047FEE7BA
:10287000FEE705F039BB08B511F0F8FFBDE80840E8
:1028800006F0E6B808B511F0F1FFBDE8084005F024
:10289000A8BF000010B5134C6369DB0321D50A1AE9
:1028A000002A1EDD00F01F031A44BFF34F8F6FEAAA
:1028B000000E1B1A02440B449644203B4FEA5E1E56
:1028C00020330EF1010ED8BF4FF0010E4EF001E0A3
:1028D000C4F85C0220300FF005C8BFF34F8FBFF380
:1028E0006F8F10BD00ED00E010B5134C6369DB0382
:1028F00021D50A1A002A1EDD00F01F031A44BFF377
:102900004F8F6FEA000E1B1A02440B449644203B83
:102910004FEA5E1E20330EF1010ED8BF4FF0010EBC
:102920004EF001E0C4F8680220300FF005C8BFF394
:102930004F8FBFF36F8F10BD00ED00E0074808B563
:102940000268074B9A4202D003600AF01BFC03485E
:102950000AF0E4FB0228FAD008BD00BF9059083401
:1029600000FC0D5808B5FFF799FC08BD10B5AEB0D6
:10297000B422002101A81FF06DFD4FF488544FF4DC
:1029800088314022282311204FF0440CCDE9061451
:10299000CDE90222CDE90D2204244FF488624FF4E0
:1029A000882E8DF804300123CDE908C4CDE912202A
:1029B000114C124ACDE90403CDE90AE4CDE90F0335
:1029C00004F5E024219201A802F54472CDE9143106
:1029D00011918DF85C301C938DF8883027932C92E0
:1029E0008DF8B43016941EF0E1FB20460449FFF741
:1029F0007BFF2EB010BD00BF000027343035627061
:102A000000102F34F0B5BBB0E422002101A81FF064
:102A100021FD1023112104244FF488258DF8043062
:102A20004423402001224FF488374FF48856DFF8C2
:102A300064C0CDE91C13CDE90A5CCDE90834CDE9C9
:102A40001334CDE91E34159520930F4D0F4BCDE96E
:102A50000200CDE90D000DEB0400CDE90412CDE933
:102A60000F12CDE91A12CDE918222193CDE906768D
:102A7000CDE9117616951EF03DF928460449FFF779
:102A800033FF3BB0F0BD00BF0000273400403234BC
:102A900000402B3400002E3410B5AEB0B42200211B
:102AA00001A81FF0D7FC4FF488644FF4883140220E
:102AB0002A231120CDE90614CDE90222CDE90D2209
:102AC0008DF804300A910123119144224FF488516A
:102AD000CDE90403CDE90803CDE90F03CDE91212D6
:102AE00004204FF48822CDE9140202F1E2420E4C98
:102AF000A2F52202A2F526620B942192A4F53424B9
:102B000002F5447201A88DF830301C9327932C9263
:102B10008DF8B43016941EF0E5FB20460349FFF70C
:102B2000E3FE2EB010BD00BF0040323400402B3415
:102B300030B5AFB0B422002101A81FF08BFC4FF4D8
:102B4000883040224FF48861CDE90222CDE90601A8
:102B5000CDE90D224FF4885144222A23CDE91212E7
:102B60000A9011904FF48822042011248DF804302B
:102B70000123CDE9140202F1E242A2F52202CDE9DD
:102B80000443CDE90843CDE90F430D4D0D4CA2F5AB
:102B90002E62219201A802F544728DF830301C9308
:102BA0008DF8883027932C928DF8B4300B951694BD
:102BB0001EF098FB29462046FFF796FE2FB030BD49
:102BC0000040323400002E3410B51F49AEB01F480B
:102BD000FFF760FEB422002101A81FF03BFC2A236E
:102BE00011228DF8043001231949CDE90423CDE9E0
:102BF0000823CDE90F23CDE906220A920B91119209
:102C000004214422CDE91412CDE91222114A124CBA
:102C10000DEB0100219202F54472CDE90233CDE9BA
:102C20000D338DF830301C938DF8883027932C921B
:102C30008DF8B43016941EF055FB20460249FFF77C
:102C400053FE2EB010BD00BF6040323440403234DD
:102C500050403234103562700040323400B52049A3
:102C6000AFB02048FFF716FEB422002101A81FF0E4
:102C7000F1FB282311228DF8043001234421042084
:102C8000CDE90423CDE90F23CDE91323CDE91122AA
:102C900006921592144ACDE90901169202F1745276
:102CA000A2F55002CDE90711A2F52A620F4921923F
:102CB000684402F54472CDE90233CDE90D330B913E
:102CC0008DF85C301C9327932C928DF8B4301EF055
:102CD0006DFA03490348FFF707FE2FB000BD00BFA0
:102CE000804032344040323450403234004032343C
:102CF00010B51C4998B01C48FFF7CCFD602200219C
:102D000068461FF0A7FB3F238DF8003040234FF4A7
:102D10008830CDE901334FF488534FF4882CCDE946
:102D200005034423042001221121104CCDE9073072
:102D3000CDE909C4CDE9123004F534246846CDE963
:102D40000312CDE90E12CDE91013CDE90C22149334
:102D500015941EF079F920460249FFF7C5FD18B019
:102D600010BD00BF60403234404032340000273490
:102D700008B5042104481CF0DBFABDE80840052131
:102D800002481DF0ABB900BF08990434F49804342C
:102D900008B5022104481CF0CBFABDE80840032125
:102DA00002481DF09BB900BF4097043434970434A7
:102DB00008B50D2104481CF0BBFABDE808400B2102
:102DC00002481DF08BB900BF7C9504345095043443
:102DD00008B5052104481CF0ABFABDE808400621FF
:102DE00002481DF07BB900BF2C91043414910434C7
:102DF00008B5042104481CF09BFABDE808400521F1
:102E000002481DF06BB900BFE88E0434D48E043440
:102E100008B5052104481CF08BFABDE808400621DE
:102E200002481DF05BB900BFE48C0434CC8C043440
:102E300008B5042104481CF07BFABDE808400521D0
:102E400002481DF04BB900BFA08A04348C8A0434B8
:102E500008B5032104481CF06BFABDE808400421C2
:102E600002481DF03BB900BFBC880434AC88043470
:102E700008B5072104481CF05BFABDE808400721AB
:102E800002481DF02BB900BFEC860434D086043410
:102E900008B5042104481CF04BFABDE808400521A0
:102EA00002481DF01BB900BF34840434208404346C
:102EB00008B5032104481CF03BFABDE80840042192
:102EC00002481DF00BB900BF508204344082043424
:102ED00008B50D2104481CF02BFABDE808400B2171
:102EE00002481DF0FBB800BF20800434F47F043496
:102EF00008B5042104481CF01BFABDE80840052170
:102F000002481DF0EBB800BFE07B0434CC7B0434F6
:102F100008B5032104481CF00BFABDE80840042161
:102F200002481DF0DBB800BFFC790434EC790434AE
:102F300008B50F2104481CF0FBF9BDE808400D213D
:102F400002481DF0CBB800BFAC7704347877043466
:102F500008B5132104481CF0EBF9BDE80840112125
:102F600002481DF0BBB800BFBC7104347871043452
:102F700008B50F2104481CF0DBF9BDE808400D211D
:102F800002481DF0ABB800BFAC6A0434786A043460
:102F900008B5082104481CF0CBF9BDE80840092118
:102FA00002481DF09BB800BF6C65043448650434CA
:102FB00008B5132104481CF0BBF9BDE808401121F5
:102FC00002481DF08BB800BF28610434E46004346B
:102FD00008B5112104481CF0ABF9BDE808400F21E9
:102FE00002481DF07BB800BFF8590434BC590434C2
:102FF00008B5082104481CF09BF9BDE808400921E8
:1030000002481DF06BB800BF08540434E453043484
:1030100008B5132104481CF08BF9BDE808401121C4
:1030200002481DF05BB800BFC44F0434804F043425
:1030300008B5112104481CF07BF9BDE808400F21B8
:1030400002481DF04BB800BF94480434584804347B
:1030500008B5082104481CF06BF9BDE808400921B7
:1030600002481DF03BB800BFA4420434804204343F
:1030700008B5132104481CF05BF9BDE80840112194
:1030800002481DF02BB800BF603E04341C3E0434DF
:1030900008B50C2104481CF04BF9BDE808400B2191
:1030A00002481DF01BB800BF803704345437043485
:1030B00008B5082104481CF03BF9BDE80840092187
:1030C00002481DF00BB800BF04330434E03204346E
:1030D00008B5112104481CF02BF9BDE808400F2168
:1030E00002481CF0FBBF00BFE02E0434A42E0434C1
:1030F00008B50E2104481CF01BF9BDE808400D215D
:1031000002481CF0EBBF00BFA02804346C28043434
:1031100008B5082104481CF00BF9BDE80840092156
:1031200002481CF0DBBF00BF742304345023043476
:1031300008B5112104481CF0FBF8BDE808400F2138
:1031400002481CF0CBBF00BF501F0434141F0434CE
:1031500008B50E2104481CF0EBF8BDE808400D212D
:1031600002481CF0BBBF00BF10190434DC18043443
:1031700008B5082104481CF0DBF8BDE80840092127
:1031800002481CF0ABBF00BFE4130434C013043486
:1031900008B5112104481CF0CBF8BDE808400F2108
:1031A00002481CF09BBF00BFC00F0434840F0434DE
:1031B00008B50A2104481CF0BBF8BDE80840092105
:1031C00002481CF08BBF00BFC00904349C090434C2
:1031D00008B5052104481CF0ABF8BDE808400621FD
:1031E00002481CF07BBF00BF340604341C060434C4
:1031F00008B5102104481CF09BF8BDE808400F21D9
:1032000002481CF06BBF00BF30030434F4020434E6
:1032100008B50C2104481CF08BF8BDE808400A21D1
:1032200002481CF05BBF00BF20FD0334F8FC0334F0
:1032300008B50C2104481CF07BF8BDE808400B21C0
:1032400002481CF04BBF00BFB0F8033484F80334CD
:1032500008B5052104481CF06BF8BDE808400621BC
:1032600002481CF03BBF00BF74F403345CF4033429
:1032700008B50E2104481CF05BF8BDE808400C219D
:1032800002481CF02BBF00BF90F1033460F10334FF
:1032900008B50C2104481CF04BF8BDE808400B2190
:1032A00002481CF01BBF00BF80EC033454EC033415
:1032B00008B5052104481CF03BF8BDE8084006218C
:1032C00002481CF00BBF00BF44E803342CE8033471
:1032D00008B50E2104481CF02BF8BDE808400C216D
:1032E00002481CF0FBBE00BF60E5033430E5033448
:1032F00008B50C2104481CF01BF8BDE808400B2160
:1033000002481CF0EBBE00BF50E0033424E003345D
:1033100008B5052104481CF00BF8BDE8084006215B
:1033200002481CF0DBBE00BF14DC0334FCDB0334BA
:1033300008B50E2104481BF0FBFFBDE808400C2136
:1033400002481CF0CBBE00BF30D9033400D903348F
:1033500008B5072104481BF0EBFFBDE80840072132
:1033600002481CF0BBBE00BF70D4033454D40334F5
:1033700008B5052104481BF0DBFFBDE80840062125
:1033800002481CF0ABBE00BFA8D1033490D1033477
:1033900008B50F2104481BF0CBFFBDE808400F2102
:1033A00002481CF09BBE00BFB4CE033478CE033479
:1033B00008B5092104481BF0BBFFBDE808400921FE
:1033C00002481CF08BBE00BFE4C80334C0C80334FD
:1033D00008B5052104481BF0ABFFBDE808400621F5
:1033E00002481CF07BBE00BF6CC5033454C50334D7
:1033F00008B5082104481BF09BFFBDE808400821E0
:1034000002481CF06BBE00BFE8C20334C8C20334DC
:1034100008B5092104481BF08BFFBDE808400921CD
:1034200002481CF05BBE00BF90BF03346CBF033486
:1034300008B5052104481BF07BFFBDE808400621C4
:1034400002481CF04BBE00BF18BC033400BC033460
:1034500008B5082104481BF06BFFBDE808400821AF
:1034600002481CF03BBE00BF94B9033474B9033466
:1034700008B5072104481BF05BFFBDE808400721A1
:1034800002481CF02BBE00BF5CB6033440B60334C8
:1034900008B5052104481BF04BFFBDE80840062194
:1034A00002481CF01BBE00BF94B303347CB303344A
:1034B00008B5052104481BF03BFFBDE80840062184
:1034C00002481CF00BBE00BF40B1033428B10334E6
:1034D00008B50D2104481BF02BFFBDE808400D2165
:1034E00002481CF0FBBD00BF6CAE033438AE0334A1
:1034F00008B5052104481BF01BFFBDE80840062164
:1035000002481CF0EBBD00BF90A9033478A9033436
:1035100008B5052104481BF00BFFBDE80840062153
:1035200002481CF0DBBD00BF3CA7033424A70334D2
:1035300008B50D2104481BF0FBFEBDE808400B2137
:1035400002481CF0CBBD00BF68A403343CA4033484
:1035500008B5052104481BF0EBFEBDE80840062134
:1035600002481CF0BBBD00BF18A0033400A0033408
:1035700008B5052104481BF0DBFEBDE80840062124
:1035800002481CF0ABBD00BFC49D0334AC9D0334A6
:1035900008B5072104481BF0CBFEBDE80840072111
:1035A00002481CF09BBD00BF509B0334349B033486
:1035B00008B5052104481BF0BBFEBDE80840062104
:1035C00002481CF08BBD00BF889803347098033408
:1035D00008B5052104481BF0ABFEBDE808400621F4
:1035E00002481CF07BBD00BF349603341C960334A4
:1035F00008B5022104481BF09BFEBDE808400321EA
:1036000002481CF06BBD00BF1094033404940334D3
:1036100008B5124903201CF089FA114900201CF05A
:10362000BFF901220F4900201BF0CAFE01220E49FA
:1036300007201BF0C5FE01220C4908201BF0C0FE2C
:1036400004210B481BF060FE0A490B48FFF722F9E2
:10365000BDE80840052109481BF0D0BDBC980434E2
:103660008C98043444980434FC970434B49704349C
:10367000749704340050333400403234609704347B
:1036800008B50E4903201CF051FA01220C4906200E
:103690001BF096FE01220B4910461BF091FE012201
:1036A000094902201BF08CFE032108481BF02CFE68
:1036B000BDE80840042106481BF0A0BD748804340E
:1036C0002C880434E48704349C8704346C870434E5
:1036D0005C87043408B50E4902201CF027FA012249
:1036E0000C4906201BF06CFE01220B4910461BF012
:1036F00067FE0122094903201BF062FE03210848EE
:103700001BF002FEBDE80840042106481BF076BD10
:1037100008820434C0810434788104343081043454
:1037200000810434F080043408B50E4900201CF0F8
:10373000FDF901220C4904201BF042FE01220B4935
:1037400002201BF03DFE0122094906201BF038FE35
:10375000032108481BF0D8FDBDE8084004210648B5
:103760001BF04CBDB47904346C79043424790434EE
:10377000DC780434AC7804349C78043408B50C4903
:1037800000201CF0D3F901220A4903201BF018FE87
:103790000122094909201BF013FE022107481BF0F2
:1037A000B3FDBDE80840032105481BF027BD00BF5D
:1037B000CC930334849303343C9303341C93033439
:1037C0001093033408B50C4900201CF099FB01222A
:1037D0000A4900201BF0F4FD0122094908201BF0D2
:1037E000EFFD022107481BF08FFDBDE808400321D3
:1037F00005481BF003BD00BF08970434C09604348D
:1038000078960434589604344C96043408B51E490E
:1038100003201BF03BFF1D4900201BF037FF1C4914
:1038200001201BF033FF1B4902201BF02FFF1A4918
:1038300001201CF07BF90122184900201BF0C0FD7B
:103840000122174908201BF0BBFD01221549062063
:103850001BF0B6FD0122144905201BF0B1FD012229
:10386000124910461BF0ACFD0122114903201BF048
:10387000A7FD0D210F481BF047FDBDE808400B21B7
:103880000D481BF0BBBC00BF14950434D89404341D
:103890009C9404346094043428940434E0930434F5
:1038A000989304345093043408930434C09204343D
:1038B00078920434A89104347C91043408B51249F8
:1038C00002201BF0E3FE114902201CF02FF91049E1
:1038D00000201CF02BF901220E4903201BF070FD83
:1038E00001220D4900201BF06BFD01220B4909202C
:1038F0001BF066FD05210A481BF006FDBDE80840E7
:10390000062108481BF07ABCD8900434A0900434F7
:103910006890043420900434D88F0434908F043499
:10392000408F0434288F043408B5104901201BF05F
:10393000ADFE0F4903201CF0F9F801220D490020CB
:103940001BF03EFD01220C4903201BF039FD012232
:103950000A4908201BF034FD042109481BF0D4FC5F
:10396000BDE80840052107481BF048BC988E043488
:10397000608E0434188E0434D08D0434888D043461
:10398000488D0434348D043408B5124900201BF0EE
:103990007DFE114900201CF0C9F8104901201CF0DF
:1039A000C5F801220E4905201BF00AFD01220D4930
:1039B00004201BF005FD01220B4910461BF000FD01
:1039C00005210A481BF0A0FCBDE808400621084874
:1039D0001BF014BC908C0434588C0434208C0434B8
:1039E000D88B0434908B0434488B0434F88A043424
:1039F000E08A043408B5104903201BF047FE0F4944
:103A000002201CF093F801220D4905201BF0D8FC80
:103A100001220C4906201BF0D3FC01220A49042094
:103A20001BF0CEFC042109481BF06EFCBDE80840E9
:103A3000052107481BF0E2BB508A0434188A04347D
:103A4000D0890434888904344089043400890434DA
:103A5000EC88043408B5174901201BF017FE1649FD
:103A600002201BF013FE154901201CF05FF8012213
:103A7000134910461BF0A4FC0122124905201BF03B
:103A80009FFC0122104900201BF09AFC01220F49E3
:103A900009201BF095FC07210D481BF035FC0D4952
:103AA0000D48FEF7F7FEBDE8084007210B481BF064
:103AB000A5BB00BF948604345886043420860434A1
:103AC000D885043490850434488504340085043452
:103AD0009084043400602E3400002E347484043446
:103AE00008B5104900201BF0D1FD0F4900201CF043
:103AF0001DF801220D4905201BF062FC01220C4932
:103B000006201BF05DFC01220A4903201BF058FC33
:103B1000042109481BF0F8FBBDE8084005210748CF
:103B20001BF06CBBE4830434AC830434648304343E
:103B30001C830434D4820434948204348082043498
:103B400008B5204901201BF0A1FD1F4902201BF0F0
:103B50009DFD1E4903201BF099FD1D4900201BF00F
:103B600095FD1C4903201BF0E1FF01221A490420A6
:103B70001BF026FC0122194907201BF021FC012221
:103B8000174902201BF01CFC0122164909201BF0DA
:103B900017FC0122144903201BF012FC01221349D7
:103BA00005201BF00DFC0D2111481BF0ADFB114948
:103BB0001148FEF76FFEBDE808400B210F481BF0CF
:103BC0001DBB00BFB87F04347C7F0434407F0434C5
:103BD000047F0434CC7E0434847E04343C7E04347C
:103BE000F47D0434AC7D0434647D04341C7D0434E1
:103BF0004C7C043400A0343400803434207C043401
:103C000008B5104900201BF041FD0F4901201BF0B1
:103C10008DFF01220D4905201BF0D2FB01220C492A
:103C200009201BF0CDFB01220A4903201BF0C8FB31
:103C3000042109481BF068FBBDE80840052107483E
:103C40001BF0DCBA907B0434587B0434107B0434C2
:103C5000C87A0434807A0434407A04342C7A0434E8
:103C600008B5254900201BF011FD244901201BF057
:103C70000DFD234902201BF009FD224903201BF002
:103C800005FD214902201BF051FF01221F490020A0
:103C90001BF096FB01221E4908201BF091FB01221C
:103CA0001C4910461BF08CFB01221B4904201BF011
:103CB00087FB0122194906201BF082FB01221849CB
:103CC00005201BF07DFB0122164902201BF078FB2A
:103CD0000122154903201BF073FB0F2113481BF031
:103CE00013FB13491348FEF7D5FDBDE808400D212D
:103CF00011481BF083BA00BF3C77043400770434CA
:103D0000C476043488760434507604340876043457
:103D1000C07504347875043430750434E8740434A0
:103D2000A0740434587404341074043420730434BC
:103D30000050343400403434EC72043408B52C495B
:103D400000201BF0A3FC2B4901201BF09FFC2A49FB
:103D500002201BF09BFC294903201BF097FC2849FB
:103D600000201BF0E3FE274901201BF0DFFE26495F
:103D700003201BF0DBFE0122244902201BF020FB64
:103D80000122234905201BF01BFB012221490320AE
:103D90001BF016FB0122204904201BF011FB01221D
:103DA0001E4910461BF00CFB01221D4900201BF090
:103DB00007FB01221B4906201BF002FB01221A49C6
:103DC00009201BF0FDFA0122184907201BF0F8FA20
:103DD0000122174908201BF0F3FA132115481BF0A4
:103DE00093FABDE80840112113481BF007BA00BF41
:103DF0003C71043400710434C47004348870043499
:103E00005070043418700434E06F0434986F043434
:103E1000506F0434086F0434C06E0434786E043478
:103E2000306E0434E86D0434A06D0434586D0434ED
:103E3000106D0434E06B04349C6B043408B52349E2
:103E400001201BF023FC224902201BF01FFC21490A
:103E500003201BF01BFC204900201BF017FC1F490E
:103E600002201BF063FE01221D4904201BF0A8FA6A
:103E700001221C4910461BF0A3FA01221A4909200D
:103E80001BF09EFA0122194900201BF099FA012229
:103E9000174906201BF094FA0122164907201BF04F
:103EA0008FFA0122144908201BF08AFA01221349D3
:103EB00005201BF085FA0F2111481BF025FABDE8FB
:103EC00008400D210F481BF099B900BF3C6A04342B
:103ED000006A0434C46904348869043450690434C1
:103EE00008690434C06804347868043430680434E1
:103EF000E8670434A0670434586704341067043456
:103F000020660434EC65043408B5194900201BF020
:103F1000BDFB184903201BF009FE174900201BF0C8
:103F200005FE164901201BF001FE0122144906205E
:103F30001BF046FA0122134905201BF041FA012229
:103F4000114903201BF03CFA0122104902201BF00A
:103F500037FA01220E4907201BF032FA08210D48DA
:103F60001BF0D2F9BDE8084009210B481BF046B907
:103F70000C650434D46404349C64043464640434F0
:103F80001C640434D46304348C6304344463043404
:103F9000FC6204347C6204345862043408B52C4951
:103FA00000201BF073FB2B4901201BF06FFB2A49FB
:103FB00002201BF06BFB294903201BF067FB2849FB
:103FC00001201BF0B3FD274902201BF0AFFD26495D
:103FD00000201BF0ABFD0122244908201BF0F0F962
:103FE0000122234910461BF0EBF901222149092047
:103FF0001BF0E6F90122204905201BF0E1F901221E
:104000001E4906201BF0DCF901221D4900201BF08F
:10401000D7F901221B4902201BF0D2F901221A49CB
:1040200003201BF0CDF90122184904201BF0C8F928
:104030000122174907201BF0C3F9132115481BF073
:1040400063F9BDE80840112113481BF0D7B800BF41
:10405000A86004346C60043430600434F45F0434C9
:10406000BC5F0434845F04344C5F0434045F043464
:10407000BC5E0434745E04342C5E0434E45D0434A9
:104080009C5D0434545D04340C5D0434C45C04341D
:104090007C5C04344C5B0434085B043408B5274969
:1040A00001201BF0F3FA264902201BF0EFFA254904
:1040B00003201BF0EBFA244900201BF0E7FA234908
:1040C00003201BF033FD224900201BF02FFD0122AD
:1040D000204906201BF074F901221F4907201BF01C
:1040E0006FF901221D4910461BF06AF901221C4993
:1040F00003201BF065F901221A4904201BF060F926
:104100000122194908201BF05BF9012217490920F7
:104110001BF056F90122164900201BF051F901222B
:10412000144902201BF04CF9112113481BF0ECF844
:10413000BDE808400F2111481BF060B880590434D5
:104140004459043408590434CC5804349458043481
:104150005C58043414580434CC5704348457043461
:104160003C570434F4560434AC56043464560434D6
:104170001C560434D4550434C454043488540434D0
:1041800008B5194900201BF081FA184902201BF0DC
:10419000CDFC174900201BF0C9FC164901201BF07B
:1041A000C5FC0122144907201BF00AF9012213491A
:1041B00008201BF005F90122114903201BF000F92A
:1041C0000122104900201BF0FBF801220E490520B6
:1041D0001BF0F6F808210D481BF096F8BDE80840E2
:1041E00009210B481BF00AB8A85304347053043457
:1041F0003853043400530434B85204347052043435
:1042000028520434E05104349851043418510434D1
:10421000F450043408B52C4900201BF037FA2B4920
:1042200001201BF033FA2A4902201BF02FFA2949FA
:1042300003201BF02BFA284901201BF077FC2749AB
:1042400003201BF073FC264900201BF06FFC0122A9
:10425000244900201BF0B4F80122234910461BF02A
:10426000AFF80122214905201BF0AAF801222049BC
:1042700006201BF0A5F801221E4908201BF0A0F81B
:1042800001221D4907201BF09BF801221B49022037
:104290001BF096F801221A4904201BF091F8012224
:1042A000184909201BF08CF80122174903201BF044
:1042B00087F8132115481BF027F8BDE808401121A5
:1042C00013481AF09BBF00BF444F0434084F043416
:1042D000CC4E0434904E0434584E0434204E0434F2
:1042E000E84D0434A04D0434584D0434104D0434CA
:1042F000C84C0434804C0434384C0434F04B04343F
:10430000A84B0434604B0434184B0434E84904349B
:10431000A449043408B5274901201BF0B7F9264900
:1043200002201BF0B3F9254903201BF0AFF9244903
:1043300000201BF0ABF9234902201BF0F7FB2249B8
:1043400000201BF0F3FB0122204902201BF038F86B
:1043500001221F4907201BF033F801221D490420C8
:104360001BF02EF801221C4909201BF029F801221C
:104370001A4906201BF024F80122194910461BF0A7
:104380001FF80122174900201BF01AF801221649D4
:1043900008201BF015F80122144903201BF010F827
:1043A000112113481AF0B0FFBDE808400F21114851
:1043B0001AF024BF1C480434E0470434A4470434F2
:1043C0006847043430470434F8460434B0460434B3
:1043D0006846043420460434D845043490450434F7
:1043E0004845043400450434B8440434704404346B
:1043F000604304342443043408B5194900201BF0F9
:1044000045F9184903201BF091FB174900201BF0C8
:104410008DFB164901201BF089FB0122144909205C
:104420001AF0CEFF0122134906201AF0C9FF01221B
:10443000114903201AF0C4FF0122104904201AF088
:10444000BFFF01220E4905201AF0BAFF08210D48CE
:104450001AF05AFFBDE8084009210B481AF0CEBEF9
:10446000444204340C420434D44104349C410434A6
:10447000544104340C410434C44004347C400434BA
:1044800034400434B43F0434903F043408B52C491C
:1044900000201BF0FBF82B4901201BF0F7F82A49FC
:1044A00002201BF0F3F8294903201BF0EFF82849FC
:1044B00000201BF03BFB274901201BF037FB26495E
:1044C00002201BF033FB0122244900201AF078FF60
:1044D0000122234908201AF073FF012221491046C6
:1044E0001AF06EFF0122204904201AF069FF012210
:1044F0001E4902201AF064FF01221D4906201AF00D
:104500005FFF01221B4909201AF05AFF01221A49B4
:1045100007201AF055FF0122184905201AF050FF14
:104520000122174903201AF04BFF132115481AF0F6
:10453000EBFEBDE80840112113481AF05FBE00BF32
:10454000E03D0434A43D0434683D04342C3D04347F
:10455000F43C0434BC3C0434843C04343C3C04341B
:10456000F43B0434AC3B0434643B04341C3B04345F
:10457000D43A04348C3A0434443A0434FC390434D4
:10458000B4390434843804344038043408B51E493E
:1045900001201BF07BF81D4902201BF077F81C4915
:1045A00003201BF073F81B4903201BF0BFFA012204
:1045B000194906201AF004FF0122184907201AF0B1
:1045C000FFFE0122164905201AF0FAFE01221549C4
:1045D00000201AF0F5FE0122134902201AF0F0FE25
:1045E0000122124903201AF0EBFE01221049092092
:1045F0001AF0E6FE0C210F481AF086FEBDE80840CE
:104600000B210D481AF0FABD18370434DC36043497
:10461000A03604346836043420360434D8350434E3
:10462000903504344835043400350434B834043447
:1046300070340434B03304348433043408B5194975
:1046400000201BF023F8184902201BF06FFA1749CD
:1046500000201BF06BFA164901201BF067FA0122BB
:10466000144905201AF0ACFE0122134902201AF069
:10467000A7FE0122114904201AF0A2FE01221049CE
:1046800000201AF09DFE01220E4910461AF098FEF5
:1046900008210D481AF038FEBDE8084009210B48F2
:1046A0001AF0ACBDA43204346C3204343432043415
:1046B000FC310434B43104346C3104342431043416
:1046C000DC3004349430043414300434F02F0434D7
:1046D00008B5274900201AF0D9FF264901201AF011
:1046E000D5FF254902201AF0D1FF244903201AF0F2
:1046F000CDFF234901201BF019FA224903201BF0AA
:1047000015FA214900201BF011FA01221F49092046
:104710001AF056FE01221E4905201AF051FE012210
:104720001C4904201AF04CFE01221B4910461AF0C5
:1047300047FE0122194900201AF042FE01221849C1
:1047400006201AF03DFE0122164907201AF038FE15
:104750000122154902201AF033FE112113481AF0E4
:10476000D3FDBDE808400F2111481AF047BD00BF36
:10477000682E04342C2E0434F02D0434B42D04346B
:104780007C2D0434442D04340C2D0434C42C043406
:104790007C2C0434342C0434EC2B0434A42B04344B
:1047A0005C2B0434142B0434CC2A0434BC29043488
:1047B0008029043408B5234901201AF067FF2249F3
:1047C00002201AF063FF214903201AF05FFF2049FD
:1047D00002201BF0ABF91F4900201BF0A7F90122B2
:1047E0001D4904201AF0ECFD01221C4906201AF094
:1047F000E7FD01221A4908201AF0E2FD01221949B9
:1048000003201AF0DDFD0122174907201AF0D8FD18
:104810000122164909201AF0D3FD01221449002073
:104820001AF0CEFD0122134905201AF0C9FD0E2110
:1048300011481AF069FDBDE808400D210F481AF033
:10484000DDBC00BF30280434F4270434B827043416
:10485000802704344827043400270434B82604345D
:104860007026043428260434E025043498250434C2
:10487000502504340825043428240434F423043453
:1048800008B5194900201AF001FF184903201BF050
:104890004DF9174900201BF049F9164901201BF07A
:1048A00045F90122144908201AF08AFD0122134912
:1048B00005201AF085FD0122114907201AF080FD1C
:1048C0000122104910461AF07BFD01220E490420F6
:1048D0001AF076FD08210D481AF016FDBDE80840D3
:1048E00009210B481AF08ABC14230434DC22043456
:1048F000A42204346C22043424220434DC21043441
:10490000942104344C2104340421043484200434DC
:104910006020043408B5274900201AF0B7FE264964
:1049200001201AF0B3FE254902201AF0AFFE2449F7
:1049300003201AF0ABFE234901201BF0F7F82249AF
:1049400002201BF0F3F8214900201BF0EFF80122B0
:104950001F4905201AF034FD01221E4902201AF0D9
:104960002FFD01221C4907201AF02AFD01221B49B4
:1049700006201AF025FD0122194908201AF020FD11
:104980000122184903201AF01BFD012216490420B8
:104990001AF016FD0122154910461AF011FD1121D9
:1049A00013481AF0B1FCBDE808400F2111481AF075
:1049B00025BC00BFD81E04349C1E0434601E043481
:1049C000241E0434EC1D0434B41D04347C1D043452
:1049D000341D0434EC1C0434A41C04345C1C043466
:1049E000141C0434CC1B0434841B04343C1B0434DA
:1049F0002C1A0434F019043408B5234901201AF0A4
:104A000045FE224902201AF041FE214903201AF0F6
:104A10003DFE204903201BF089F81F4900201BF0B0
:104A200085F801221D4906201AF0CAFC01221C4902
:104A300008201AF0C5FC01221A4905201AF0C0FC12
:104A40000122194910461AF0BBFC01221749002027
:104A50001AF0B6FC0122164907201AF0B1FC012217
:104A6000144904201AF0ACFC0122134909201AF061
:104A7000A7FC0E2111481AF047FCBDE808400D21A3
:104A80000F481AF0BBBB00BFA018043464180434EC
:104A900028180434F0170434B81704347017043499
:104AA00028170434E01604349816043450160434DD
:104AB00008160434C01504347815043498140434EA
:104AC0006414043408B5194900201AF0DFFD1849B0
:104AD00001201BF02BF8174900201BF027F816497E
:104AE00002201BF023F80122144907201AF068FC69
:104AF0000122134906201AF063FC01221149092002
:104B00001AF05EFC0122104902201AF059FC012221
:104B10000E4900201AF054FC08210D481AF0F4FB4D
:104B2000BDE8084009210B481AF068BB841304341F
:104B30004C13043414130434DC120434941204347B
:104B40004C12043404120434BC11043474110434BF
:104B5000F4100434D010043408B5274900201AF0AA
:104B600095FD264901201AF091FD254902201AF0F1
:104B70008DFD244903201AF089FD234902201AF0F3
:104B8000D5FF224900201AF0D1FF214903201AF055
:104B9000CDFF01221F4907201AF012FC01221E49F5
:104BA00004201AF00DFC01221C4905201AF008FC13
:104BB00001221B4906201AF003FC0122194900209A
:104BC0001AF0FEFB0122184910461AF0F9FB0122E7
:104BD000164902201AF0F4FB0122154908201AF0A8
:104BE000EFFB112113481AF08FFBBDE808400F219D
:104BF00011481AF003BB00BF480F04340C0F0434F3
:104C0000D00E0434940E04345C0E0434240E0434A8
:104C1000EC0D0434A40D04345C0D0434140D043480
:104C2000CC0C0434840C04343C0C0434F40B0434F5
:104C3000AC0B04349C0A0434600A043408B51949E6
:104C400001201AF023FD184902201AF01FFD174910
:104C500003201AF01BFD164901201AF067FF0122FC
:104C6000144900201AF0ACFB0122134906201AF067
:104C7000A7FB0122114902201AF0A2FB01221049D0
:104C800005201AF09DFB01220E4908201AF098FB1E
:104C90000A210D481AF038FBBDE8084009210B48ED
:104CA0001AF0ACBA6009043424090434E808043466
:104CB000B00804346808043420080434D8070434E5
:104CC0009007043448070434A806043484060434E6
:104CD00008B5124900201AF0D9FC114903201AF036
:104CE00025FF104900201AF021FF01220E4907205C
:104CF0001AF066FB01220D4908201AF061FB01221F
:104D00000B4904201AF05CFB05210A481AF0FCFA52
:104D1000BDE80840062108481AF070BAE0050434DE
:104D2000A80504347005043428050434E004043470
:104D300098040434480404343004043408B5274982
:104D400000201AF0A3FC264901201AF09FFC2549F7
:104D500002201AF09BFC244903201AF097FC2349F7
:104D600001201AF0E3FE224902201AF0DFFE214959
:104D700000201AF0DBFE01221F4908201AF020FB58
:104D800001221E4900201AF01BFB01221C490920A8
:104D90001AF016FB01221B4903201AF011FB012215
:104DA000194906201AF00CFB0122184910461AF086
:104DB00007FB0122164907201AF002FB01221549C0
:104DC00005201AF0FDFA102113481AF09DFABDE8EB
:104DD00008400F2111481AF011BA00BFB80204347C
:104DE0007C0204344002043404020434CC01043450
:104DF000940104345C01043414010434CC00043400
:104E0000840004343C000434F4FF0334ACFF033466
:104E100064FF03341CFF03341CFE0334E0FD033441
:104E200008B51C4900201AF031FC1B4901201AF07A
:104E30002DFC1A4902201AF029FC194903201AF006
:104E400025FC0122174904201AF0BAFA012216495A
:104E500003201AF0B5FA0122144900201AF0B0FA22
:104E60000122134902201AF0ABFA0122114910461F
:104E70001AF0A6FA0122104906201AF0A1FA0C2114
:104E80000E481AF041FABDE808400A210C481AF011
:104E9000B5B900BFBCFC033480FC033444FC0334CC
:104EA00008FC0334C0FB033478FB033430FB0334C9
:104EB000E8FA0334A0FA033458FA033498F90334B7
:104EC00070F9033408B51E4901201AF0DFFB1D49B3
:104ED00002201AF0DBFB1C4903201AF0D7FB1B4908
:104EE00000201AF023FE1A4903201AF01FFE0122A7
:104EF000184907201AF064FA0122174909201AF00C
:104F00005FFA0122154902201AF05AFA01221449C7
:104F100004201AF055FA0122124908201AF050FA1A
:104F20000122114905201AF04BFA0C210F481AF002
:104F3000EBF9BDE808400B210D481AF05FB900BF3E
:104F400048F803340CF80334D0F7033498F70334EB
:104F500060F7033418F70334D0F6033488F60334CB
:104F600040F60334F8F50334B0F50334F0F40334B9
:104F7000C4F4033408B5124900201AF087FB114924
:104F800001201AF0D3FD104902201AF0CFFD0122B2
:104F90000E4905201AF014FA01220D4904201AF0D6
:104FA0000FFA01220B4902201AF00AFA05210A48D9
:104FB0001AF0AAF9BDE80840062108481AF01EB9FF
:104FC00020F40334E8F30334B0F3033468F3033418
:104FD00020F30334D8F2033488F2033470F203343C
:104FE00008B5204900201AF051FB1F4901201AF092
:104FF0004DFB1E4902201AF049FB1D4903201AF0FF
:1050000045FB1C4900201AF091FD1B4903201AF0B2
:105010008DFD0122194902201AF0D2F90122184906
:1050200009201AF0CDF90122164908201AF0C8F912
:105030000122154900201AF0C3F901221349104634
:105040001AF0BEF90122124906201AF0B9F90E2110
:1050500010481AF059F9BDE808400C210E481AF022
:10506000CDB800BF24F10334E8F00334ACF00334CE
:1050700070F0033438F0033400F00334B8EF033435
:1050800070EF033428EF0334E0EE033498EE03347A
:1050900050EE033470ED033440ED033408B51E497F
:1050A00001201AF0F3FA1D4902201AF0EFFA1C4908
:1050B00003201AF0EBFA1B4901201AF037FD1A49B8
:1050C00002201AF033FD0122184903201AF078F962
:1050D0000122174905201AF073F90122154902200F
:1050E0001AF06EF90122144908201AF069F9012218
:1050F000124906201AF064F90122114909201AF018
:105100005FF90C210F481AF0FFF8BDE808400B21A9
:105110000D481AF073B800BF18EC0334DCEB03340D
:10512000A0EB033468EB033430EB0334E8EA0334D8
:10513000A0EA033458EA033410EA0334C8E903341C
:1051400080E90334C0E8033494E8033408B5124915
:1051500000201AF09BFA114900201AF0E7FC1049D0
:1051600003201AF0E3FC01220E4908201AF028F966
:1051700001220D4904201AF023F901220B490220D3
:105180001AF01EF905210A481AF0BEF8BDE80840D9
:10519000062108481AF032B8F0E70334B8E70334C0
:1051A00080E7033438E70334F0E60334A8E6033439
:1051B00058E6033440E6033408B5204900201AF0CD
:1051C00065FA1F4901201AF061FA1E4902201AF0FF
:1051D0005DFA1D4903201AF059FA1C4901201AF002
:1051E000A5FC1B4902201AF0A1FC01221949072045
:1051F0001AF0E6F80122184902201AF0E1F801221B
:10520000164909201AF0DCF80122154900201AF08D
:10521000D7F80122134908201AF0D2F801221249C6
:1052200004201AF0CDF80E2110481AF06DF8BDE8F0
:1052300008400C210E4819F0E1BF00BFF4E403342C
:10524000B8E403347CE4033440E4033408E4033476
:10525000D0E3033488E3033440E30334F8E2033457
:10526000B0E2033468E2033420E2033440E1033463
:1052700010E1033408B51E4901201AF007FA1D4950
:1052800002201AF003FA1C4903201AF0FFF91B4907
:1052900000201AF04BFC1A4903201AF047FC0122A7
:1052A000184909201AF08CF80122174907201AF032
:1052B00087F80122154900201AF082F801221449CA
:1052C00002201AF07DF80122124908201AF078F81D
:1052D0000122114905201AF073F80C210F481AF029
:1052E00013F8BDE808400B210D4819F087BF00BF37
:1052F000E8DF0334ACDF033470DF033438DF03341A
:1053000000DF0334B8DE033470DE033428DE0334F8
:10531000E0DD033498DD033450DD033490DC0334E6
:1053200064DC033408B5124900201AF0AFF91149C2
:1053300002201AF0FBFB104901201AF0F7FB0122B2
:105340000E4906201AF03CF801220D4904201AF0FB
:1053500037F801220B4900201AF032F805210A48DB
:1053600019F0D2FFBDE808400621084819F046BFF1
:10537000C0DB033488DB033450DB033408DB033445
:10538000C0DA033478DA033428DA033410DA033469
:1053900008B5204903201AF079F91F4900201AF0B6
:1053A00075F91E4901201AF071F91D4902201AF001
:1053B0006DF91C4903201AF0B9FB1B4900201AF0B3
:1053C000B5FB01221949022019F0FAFF0122184900
:1053D000032019F0F5FF01221649104619F0F0FFDD
:1053E00001221549042019F0EBFF01221349002086
:1053F00019F0E6FF01221249052019F0E1FF0E2104
:10540000104819F081FFBDE808400C210E4819F042
:10541000F5BE00BFC4D8033488D803344CD8033455
:1054200010D80334D8D70334A0D7033458D7033463
:1054300010D70334C8D6033480D6033438D60334A7
:10544000F0D5033410D50334E0D4033408B515493E
:1054500001201AF01BF9144902201AF017F9134918
:1054600001201AF063FB01221149072019F0A8FF5F
:1054700001221049052019F0A3FF01220E49032043
:1054800019F09EFF01220D49022019F099FF072112
:105490000B4819F039FFBDE808400721094819F009
:1054A000ADBE00BF18D40334DCD30334A4D303341B
:1054B0005CD3033414D30334CCD2033484D2033406
:1054C00014D20334F8D1033408B5124900201AF07D
:1054D000DDF8114902201AF029FB104900201AF0CA
:1054E00025FB01220E49002019F06AFF01220D4917
:1054F000092019F065FF01220B49062019F060FF11
:1055000005210A4819F000FFBDE8084006210848B7
:1055100019F074BE54D103341CD10334E4D00334E5
:105520009CD0033454D003340CD00334BCCF0334A8
:10553000A4CF033408B5274902201AF0A7F826495A
:1055400000201AF0A3F8254901201AF09FF82449F9
:1055500003201AF09BF8234901201AF0E7FA2249A8
:1055600003201AF0E3FA214900201AF0DFFA0122A1
:105570001F49062019F024FF01221E49092019F0B5
:105580001FFF01221C49052019F01AFF01221B49A7
:10559000032019F015FF01221949082019F010FF06
:1055A00001221849002019F00BFF0122164910466C
:1055B00019F006FF01221549042019F001FF0F21FF
:1055C000134819F0A1FEBDE808400F21114819F059
:1055D00015BE00BF3CCE033400CE0334C4CD03342B
:1055E00088CD033450CD033418CD0334E0CC0334DC
:1055F00098CC033450CC033408CC0334C0CB0334F0
:1056000078CB033430CB0334E8CA0334A0CA033464
:10561000B0C9033474C9033408B5194903201AF01A
:1056200035F8184901201AF031F8174900201AF00E
:105630007DFA164902201AF079FA01221449052050
:1056400019F0BEFE01221349104619F0B9FE0122DD
:105650001149032019F0B4FE01221049002019F06D
:10566000AFFE01220E49062019F0AAFE09210D48BD
:1056700019F04AFEBDE8084009210B4819F0BEBDEB
:1056800084C8033448C8033410C80334D8C703346B
:1056900090C7033448C7033400C70334B8C6033483
:1056A00070C60334E0C50334BCC5033408B51249E1
:1056B000002019F0EBFF114901201AF037FA1049C8
:1056C00003201AF033FA01220E49072019F078FE60
:1056D00001220D49022019F073FE01220B4904201A
:1056E00019F06EFE05210A4819F00EFEBDE80840CB
:1056F0000621084819F082BD18C50334E0C40334FC
:10570000A8C4033460C4033418C40334D0C30334BE
:1057100080C3033468C3033408B51749012019F066
:10572000B5FF1649022019F0B1FF154900201AF003
:10573000FDF9144902201AF0F9F901221249042056
:1057400019F03EFE01221149082019F039FE01220C
:105750000F49002019F034FE01220E49052019F0EE
:105760002FFE08210C4819F0CFFDBDE808400821A4
:105770000A4819F043BD00BF8CC2033450C2033441
:1057800018C20334E0C1033498C1033450C1033458
:1057900008C10334C0C0033440C0033420C0033404
:1057A00008B51949032019F071FF1849002019F0B4
:1057B0006DFF174901201AF0B9F9164903201AF0B4
:1057C000B5F901221449082019F0FAFD0122134904
:1057D000092019F0F5FD01221149022019F0F0FD10
:1057E00001221049032019F0EBFD01220E49062089
:1057F00019F0E6FD09210D4819F086FDBDE80840C5
:1058000009210B4819F0FABC30BF0334F4BE03344D
:10581000BCBE033484BE03343CBE0334F4BD033445
:10582000ACBD033464BD03341CBD03348CBC0334F1
:1058300068BC033408B51249022019F027FF11494A
:1058400002201AF073F9104900201AF06FF90122B2
:105850000E49002019F0B4FD01220D49062019F06F
:10586000AFFD01220B49082019F0AAFD05210A48C5
:1058700019F04AFDBDE808400621084819F0BEBCF1
:10588000C4BB03348CBB033454BB03340CBB0334A0
:10589000C4BA03347CBA03342CBA033414BA0334C4
:1058A00008B51749012019F0F1FE1649002019F03A
:1058B000EDFE154903201AF039F9144901201AF0B8
:1058C00035F901221249052019F07AFD012211490A
:1058D000042019F075FD01220F49092019F070FD0F
:1058E00001220E49032019F06BFD08210C4819F024
:1058F0000BFDBDE8084008210A4819F07FBC00BF35
:1059000038B90334FCB80334C4B803348CB8033456
:1059100044B80334FCB70334B4B703346CB703346E
:10592000ECB60334CCB6033408B51549022019F09F
:10593000ADFE1449032019F0A9FE134900201AF006
:10594000F5F801221149002019F03AFD0122104911
:10595000082019F035FD01220E49062019F030FD0E
:1059600001220D49032019F02BFD07210B4819F0E6
:10597000CBFCBDE808400721094819F03FBC00BF37
:1059800004B60334C8B5033490B5033448B50334C2
:1059900000B50334B8B4033470B4033400B4033432
:1059A000E4B3033408B51249002019F06FFE114921
:1059B00001201AF0BBF8104902201AF0B7F80122B2
:1059C0000E49052019F0FCFC01220D49002019F0B8
:1059D000F7FC01220B49022019F0F2FC05210A48CC
:1059E00019F092FCBDE808400621084819F006BCF1
:1059F00040B3033408B30334D0B2033488B2033461
:105A000040B20334F8B10334A8B1033490B1033485
:105A100008B51249012019F039FE114903201AF086
:105A200085F8104900201AF081F801220E4909205A
:105A300019F0C6FC01220D49032019F0C1FC012216
:105A40000B49022019F0BCFC05210A4819F05CFC46
:105A5000BDE808400621084819F0D0BBECB003347B
:105A6000B4B003347CB0033434B00334ECAF03344B
:105A7000A4AF033454AF03343CAF033408B5224918
:105A8000022019F003FE2149032019F0FFFD2049EF
:105A900001201AF04BF81F4902201AF047F81E495E
:105AA000002019F0F3FD1D4900201AF03FF80122F3
:105AB0001B49002019F084FC01221A49092019F021
:105AC0007FFC01221849052019F07AFC01221749B0
:105AD000104619F075FC01221549022019F070FCDE
:105AE00001221449032019F06BFC012212490620FF
:105AF00019F066FC0D21114819F006FCBDE80840BC
:105B00000D210F4819F07ABBFCAD0334C0AD03344E
:105B100088AD033450AD033414AD0334DCAC03342E
:105B200094AC03344CAC033404AC0334BCAB03344A
:105B300074AB03342CAB0334E4AA033414AA033447
:105B4000E0A9033408B51249012019F09FFD11495D
:105B5000032019F0EBFF1049002019F0E7FF0122A4
:105B60000E49052019F02CFC01220D49062019F0E0
:105B700027FC01220B49002019F022FC05210A48CC
:105B800019F0C2FBBDE808400621084819F036BBF1
:105B90003CA9033404A90334CCA8033484A80334F7
:105BA0003CA80334F4A70334A4A703348CA703341C
:105BB00008B51249002019F069FD1149022019F0B9
:105BC000B5FF1049012019F0B1FF01220E49032051
:105BD00019F0F6FB01220D49092019F0F1FB012211
:105BE0000B49082019F0ECFB05210A4819F08CFB41
:105BF000BDE808400621084819F000BBE8A60334B8
:105C0000B0A6033478A6033430A60334E8A50334E1
:105C1000A0A5033450A5033438A5033408B51E49A4
:105C2000022019F033FD1D49032019F02FFD1C49F6
:105C3000002019F02BFD1B49012019F027FD1A49FE
:105C4000002019F073FF01221849062019F0B8FB53
:105C500001221749104619F0B3FB01221549002013
:105C600019F0AEFB01221449072019F0A9FB01220B
:105C70001249092019F0A4FB01221149022019F050
:105C80009FFB0D210F4819F03FFBBDE808400B2199
:105C90000D4819F0B3BA00BF00A40334C4A3033401
:105CA00088A303344CA3033414A30334CCA20334D9
:105CB00084A203343CA20334F4A10334ACA1033422
