:02000004706822
:10000000BF8FFE3AB5040CBD949626BC4ED417BEE5
:1000100065C2BCBD7DE8B4BD3C6B0DBE4EF20BBEEF
:100020001228053ECE5FEABDC7D5C63D635DFD3CE7
:10003000236B953D32638BBC2B308F3DB27E44BE2B
:100040000A55DE3CB972FDBDFBC39CBD7E9A793D6D
:100050008776453DB69513BDF50EF43D74A08B3DF6
:100060001278DBBD705C663DCA8206BDB81CA13D3E
:1000700089809F3D59508E3C5E11EEBCF82E97BD95
:10008000CAC3EA3D7CD900BE46FA763D4DA964BCA0
:10009000F9EE23BE907E34BE5C35EA3BC63329BD03
:1000A00077547F3D64B4493D5A8F45BCED0091BD06
:1000B00042E1AABDAE10FBBDED3E613DDF0725BEAE
:1000C0009E7139BC856083BD187FB8BD9566C5BD7E
:1000D000356AB6BD15AC53BD23334CBD6599703D33
:1000E000FA4534BD41DB413DE524C6BB8F8A913CD6
:1000F0007B8D07BE83F3533CA818E93C1ACDA13D84
:100100004197513D743F413B020E803B47F4CA3D4D
:1001100014E3A03C4520203DF67797BD4B70993CF9
:100120005E493B3D5ABD73BD034C22BDD45DCC3D01
:10013000256C93BCE52B9CBD6E9400BE505000BD59
:10014000E356CE3D774425BEE8E2B6BD4717BCBCBA
:1001500023E05ABD133AA93C8FB635BD4D9E91BDE3
:10016000A9D6E1BD9D708F3B54183EBDF77602BE07
:10017000E9345EBD19A819BEC9B737BDE15703BE42
:10018000A4189DBD40E78FBDA8810ABCB9478D3D2D
:1001900093BA9E3D87FF0D3BCFA60ABD9493ECBD5D
:1001A000DC370CBC223593BD4A9891BC753FE0BC4E
:1001B000784C733D0D8D223D1C26BABDA263C13D16
:1001C000DB03853D2E61843C16911F3DD15406BD55
:1001D000C4D1C13D6AD1A93DA3B90B3C45D428BDCA
:1001E000DBCF5BBD6C0AE1BCB396233D8E0222BD22
:1001F000EF83173D937FD7BCE1CBEFBDB09519BE20
:10020000476021BCF990A9BD5ED3B1BD94E9B0BCF3
:100210006A300CBD88D5EBBDB048963C86A930BE8F
:10022000C7CED9BCBD8EABBDBF7FF2BD45993A3DAF
:10023000742D6D3D1491413D0BCC853D2FC94CBDB6
:1002400069C36EBD2879023D065A08BE8FA0DF3C07
:100250008D9C1C3D753D1A3EEAF3ECBD98E7793D57
:1002600040C1B0BD29CB8C3DF6CFE1BBFC59EDBD03
:1002700059DBB7BC83DE403E2EC5B0BC1E56B03C39
:1002800041A31E3E19EBAF3D84F5003E7F9F163E15
:100290005EDAACBC15A5693D8196873D57EF103EEF
:1002A000A67AECBD94C574BC7E3E47BD828FBFBDAF
:1002B00043CB72BC7307AB3DF17EB0BD5607D7BDD3
:1002C000A48B333DAB8DBEBC51A8C9BC7F0A0F3C8B
:1002D00038FA3ABE608D7EBD89B635BEA9D95F3C7D
:1002E0005616A2BD82A8E6BDBAE093B7DB7C513CAE
:1002F00089D749BD582EA83C599D3F3D8E33EFBD4F
:1003000099E3E63D59DC3F3D1B1DB63D0174213D9F
:10031000715AA0BDD9FF5ABE2605863DF80D7E3C18
:10032000DA68CA3C433ECC3D600218BBC8BEC3B8C5
:10033000A6D4ED3C4AD8113DF6080E3D7E73413DF2
:100340003C9AAB3D693EE8BD9CBACD3D6A12013D89
:10035000C312F33DAE4616BE3927113D7F729CBDD8
:100360001A81F6BD88DB743D41B68A3D2D7FC9BC3C
:10037000413E75BC57B780BCB1374EBE04A709BD1E
:100380003CD0C4BD9BF798B8C571863DA9B8AEBD39
:1003900077C5D33D2B4F03BD8D01883CD384123DDF
:1003A000BCA6B83D63B4B53C237C17BD92D234BD26
:1003B000BBE860BDC8200F3928B2193EAB120CBE95
:1003C000FA39C6BCEE900FBD96B9033E9AC7133DED
:1003D0000F44AABD0A51B23C9674393DF7E8F23D8C
:1003E000861B3E3D2CF4DBBD87B0D83DB673A1BD66
:1003F00007D82EBDBB44B03AB62ED13D8DC116BE36
:100400009C0018BD28EE433E6D7776BB42D384BE78
:1004100068CC82BCE6E722BDF7A59EBED9921F3EFE
:1004200085B9B53CDE8C0C3D8C21903E503D753B32
:10043000876A25BE9515B3BD4FA9C03D77B9093E62
:10044000969D9B3DD9F385BB4DB9D23D846D2C3B28
:1004500065CE7D3DA38C263D94D029BC1065073E1A
:1004600026AFCDB90256953B8A390E3EF2A40A3D1D
:1004700090CAE3BD4D8A323D9703493DF84F0EBE09
:10048000CCC9E6BBC5611B3D2A853A3E13FB9EBC29
:10049000A12F0C3E85270EBDA083DD3D73A48C3DAE
:1004A000BCF719BEC2FC09BECC77563D945DF43C46
:1004B00076F384BD5C39F8BB8800383E4073043D58
:1004C00009638ABEC9E450BD8484E2BD7B05AEBE2B
:1004D0000B60C2BC144D823CD3ECF33D3BDCB93E17
:1004E000434B863C99EDA1BD136BB0BDFD38DB3DA0
:1004F0000FED923DB4D432BC8FCCF23D43DC1C3EB8
:100500005B4F39BDE783063EB3016D3D5F2AFCBDFD
:100510006E14313DBC724C3CC49D0C3DEFFE16BDCB
:1005200012711E3E9C48913CD26FFB3D21D7303D5D
:10053000CB6AA7BDB859DA3D311D50BDA6DC7D3D63
:10054000BA2B00BC39B9033EB37334BC31CDE63DA0
:10055000905CBA3D8485B4BDD446B4BD512D13BD65
:1005600028FD0D3D70573EBD4F2B06BEBFDE313E10
:10057000D0BC1BBEE8DC32BEE7A7B6BC67B2603BAE
:10058000AFED8CBE7976F73D91F3C73D7606723DAF
:10059000CE80053F6A8914BE837D5BBD9F23A8BDC5
:1005A000E25A3A3EC164213CBEE63ABE108C8F3D11
:1005B000AE0F2D3EF5220EBDB0D90C3EE144723D8A
:1005C0003171F03B2689EC3D72F2A93B6DF4D43ACF
:1005D000605519BDCB61283E66854ABE6E1B4ABD7B
:1005E00076402CBDE8EE1DBEED356CBDF6C4293D50
:1005F00099B3D73D6DD80C3E0258E73DDF5BBC3B5D
:10060000DBA2B23DB49F333E571CD0BD7F09D53924
:1006100086F13DBD5459B03D6294903CC24B8EBDB5
:10062000CBC44E3EC85D00BDB4E858BE792A6EBD4D
:100630001BA19FBD068283BEFF9BA33D9A1E35BDB5
:10064000F34030BD5A80143F14701ABE33C4F43BDB
:1006500009DA9FBC7DE8FB3D03EC803D36A318BE64
:10066000F8FBC3BC1423E23D59FAE7BA8A3F2D3E9A
:100670000ED7E93D99D384BD7A49CB3D3BB7AD3C1C
:100680007B3A9EBD3B1587BC052A033DC4F915BEC8
:10069000785C753D2BBEA53DE400A3BDC6550B3D62
:1006A0000D44FEBDCC07ECBD6321D73D27620E3E55
:1006B0004A7C253D160A67BD3FD35B3ED96644BEE2
:1006C0000063253CE8F3A2BD8278083DE22D81BDA0
:1006D000A067A8BD7FBF923E24D12EBE468111BE29
:1006E00009BF4E3CA8E88BBD662046BE24BB9ABD20
:1006F0002F7540BC6E3AC13DCE81493FC718D0BB73
:100700003BABFFBDCA9E48BEBDE5933D1F574F3D65
:100710008B2151BDF8B7B9BCC89690BBAC4A14BD8B
:1007200029410C3D95508D3BF9B03BBD63EB17BCA7
:10073000C7D0D5BC564AB13DFB49003A5DDF9DBDEF
:10074000511A81BD836394BDBC0A413BA10577BDAD
:1007500070C1CE3DB3DE07BCD220153D53CE31BCB7
:100760005324C83D22EC92BDCB0B98BD57D6923C8A
:1007700093F3293D1E76A7BDD145AD3D2E438A3D5D
:10078000F8F0FDBDADBD49BC2B0C97BD2F80A93D38
:10079000B4C2C3BD556AA13D7E1CB53D585C87BD42
:1007A0006BA74FBCCB823DBDE814273DE2A9133DAA
:1007B00070CDF7BDADE2C5BD67B0423C63FFA7BDDC
:1007C000DDCEBABB75D1823D34E47A3D0C63A1BD68
:1007D0006243493D2FE90ABD4E691D3B57A017BC36
:1007E0008BFF5A3DF332093C66E07E3D1CC63B3D23
:1007F000587E30BD43EDDABC47AF6BBD00E1D1BDE3
:10080000C7EECCBCD9E9B53C8D3689BDC2DDA4BCF0
:10081000D7040DBD89FEFA3C77D8843D2AF3343CD9
:100820008F3B9A3DF1ED8A3D96DE1B3D36CE88BD6D
:10083000F6C39BBD313175BD2A509EBBCC24073C0D
:100840000619E43DC26A1B3DA2A989BBB5FEEABCFC
:10085000D97D713D620A8CBDA686CF3CDEEA483D5B
:1008600049D97B3D9E1A633D8EBD443DAAECD5BD62
:10087000946E8A3DC24329BBBA7013BDDFD4A7BDB5
:100880008DF2FF3C1D47163DD461133DF5051D3D1E
:1008900031F50CBDFAD4A3BD0B9D343C865A573AB2
:1008A000328D61BD8D240DBEFCD1873DDB88C8BC77
:1008B00056F3C8BDEEE09F3CED67C13C276207BE22
:1008C000022DBCBC2D6DD0BC014BA4BD205E553C9F
:1008D00074E496BD628CECBD7B6B8A3D91EFC4BC29
:1008E00021EDC8BDF1DD4FBBA59B48BD50ADD4BDCA
:1008F000E078B3BD798FBCBA2D320D3D094975BC86
:10090000D455C53DBDDB5ABC8F08763D8D9082BD68
:1009100096DD03BE142B6ABD8D3A13BEE8E8883D10
:100920009B64293D57535E3CAA6A643C95D7AE3D13
:1009300051F7E1BDAA56293B94A4983C4D3103BE22
:100940009FE2E73C8E2D563DCAB1A63BC48062BDF6
:100950002A519F3D7635B3BC007F20BC003BCE3C86
:10096000AF43933C713D8D3D5B684C3D4A897D3D75
:1009700004FC0B3D3BCDBA3D019716BE379DB03B05
:10098000D4B3B43D56FC8DBCDE4332BDB50BB0BD17
:100990006C008ABC268EB7BD5FBB283CED8BBA3C91
:1009A0000FDEE8BC662B00BE4934BDBDF55EDFBD81
:1009B0001DAEEA3D6A51A8BD879C0B3D23A7C5BB70
:1009C000F24B93BC685650BDA2A43D3DB875E2BC45
:1009D000022AC13C680A8FBC24D083BD3174C5BDD6
:1009E000D609EC3CD88FF7BDB6895E3DC5F61A3DF9
:1009F0001ABFFE3C41AF89BCC117773DDBB6E7BCEF
:100A0000308AA5BD7A92A93D05C4A7BDD5C0CDBD8C
:100A1000CBFA883CB6590DBE9295053DEF5A83BC82
:100A20009012B5BD8E55D9BD96B7C8BD169F0EBEE6
:100A3000E6D7D43B7121B33C6DA3CEBDC8F420BD35
:100A400091A8AF3CCB0D0DBE0306763C0B5FCA3BB5
:100A50005EBA0BBEEB33FBBD359F02BD9B66543DBA
:100A6000A698643C402D6E3D019EAC3D68CE3C3D59
:100A7000BE389DBCD0EBD2BDC16082BB263FAF3D2E
:100A80007145C1BDDBE0AE3CDA7EDEBCDE0DCA3DA9
:100A90009EAC95BCFC187F3D5A1339BDC4E933BDEB
:100AA000F6B7EDBC4414A0BD9881B03C5F8A2C3DE4
:100AB00012E2FF3D6A5801BE21BC9DBD75E5AC3D0B
:100AC000361CBEBD05144DBB104E3F3D4EF9413D99
:100AD000D6DF95BD7A7BA03D211502BEEC35DA3D0F
:100AE000A3C1B2BDEC0058BDE8EC0B3EE00A00BE6D
:100AF000C7BF0C3D89518D3D4C9E4ABD2226BD3D50
:100B0000BA45913D7C4B1ABD80898A3D77C8CF3C60
:100B10006A810CBD49D3643CFB23F3BC0A25423BEC
:100B20008FF3D6BD6F76AABD368A5ABDD959AC3D72
:100B3000EB35853EE7BF913D07C2433D9123BE3D66
:100B4000C59B3A3D700290BDBF0E3C3C2B51443CCE
:100B5000B188A7BDE6978EBD0478F7BD0D81383DFD
:100B6000AFE2A33D4E09B23D7642893D48A3283D00
:100B70000DF11ABDB7D44FBD8BF4DCBCB0EA843D97
:100B80002A60A6BDE82F10BBD10F86BDCE1B89BD44
:100B9000F5788EBA7770863C878CEEBD8125A63DB0
:100BA0002C21B5BA90C0B1BD4040343E97D2A4BD0F
:100BB000E893C1BD3108503D00BB53BC6F5E123D90
:100BC00099AA183D39808CBD30658CBD8F00EDBD74
:100BD000354DEF3D1FDAE5BD07E181BD5176E43DBE
:100BE0003165E0BDD5CDB43E990855BD3D7BE9BC2E
:100BF0004E7E863D58C2D33D86D296BD985F8D3CD1
:100C0000BF9DDFBD7789C2BD4C51893D84F2B4BD23
:100C1000B088C9BC319E5ABDA181ABBC28B00BBD08
:100C2000CC8485BDCF11AEBD741C2F3D87ECD0BCEC
:100C30005C13CD3C9F4B373D2D4576BDB8C38E3CF4
:100C400062EF0ABD5805453DF4FD94BD937E4A3DD3
:100C500014C45DBD02363BBE0F62E3BD7B2B3D3D40
:100C6000F66D873D0670CDBC36E6213DA21483BDEE
:100C70006DBEC8BDFE9AAEBDE6167D3D197C373D02
:100C80003C2BC0BD0ACA2B3E5C9495BD64ECD1BD23
:100C9000836C6C3DA5FED4BD9107283E130A2FBD81
:100CA000AEB9E0BD24CAAABC070C85BD3BCD6E3DE4
:100CB000BD6C953D9B03C33C17C1853D1648C6BD21
:100CC000136BFC3CB01A9DBD5DAF343D888E89BD71
:100CD000421575BD60D100BDE84C893D4D3017BD52
:100CE0005EBD80BD4B401BBEC239AFBC62528ABDE7
:100CF000AA0FCB3CFBA02EBD181B613D0C6628BE85
:100D0000EF29D93CE190AE3D638D5CBDBC65C43B31
:100D1000AAD7BD3C6BD305BEA8F0C13D7318883C73
:100D200017EDB2BDF27FACBD0089B73D9FE47CBD3D
:100D30004096993DCEFDDBBC340E003D85BD173D90
:100D40005C74CD3BA47360BDA2F3AA3D2D48893EDF
:100D5000E0C2E2BD69B81EBE543DA43D78B7993DDE
:100D600079363DBCA6CC1F3EA259A7BDE2C56D3D5C
:100D70004D8FB9BDC72CDEBDCC8A3F3D8250C1BD71
:100D800070AED2BDD45172BD762D93BD3653ABBD7E
:100D9000E5C0BE3CC6E75C3C459A09BE60BCD9BD17
:100DA0005AB21E3D15167FBCA294CEBD115CB8BCD4
:100DB000016AE1BDA8A2C63BDE5C933DED2363BEA4
:100DC0006229AABBCAC5BF3D1CBA8BBD3B7589BD94
:100DD0004C2490BCF45892BCE4CF2F3BF309993AD1
:100DE0002A9A033E98045C3DED58863DF9821E3EEA
:100DF000268360BD8AF52DBDE1D009BEF42088BDF3
:100E00005CDF9E3C7EC2C4BD909F31BE1583653CB5
:100E100008068B3DD8B10F3C70C23CBD9E71BA3CF8
:100E2000CA15C2BD29EAD1BC0506E2BCF18558BE8F
:100E3000AA97CBBDEE21E83DA121BFBEA71C3BBDBB
:100E40007F4AE93DC26BA53DFBE0C33C849EE13A8D
:100E50005F9256BD326DB83E1E78203E073279BD96
:100E6000D1CB453EC26A78BD01D0B63D12EF87BDF9
:100E70002479C63DF8C3033D6831B3BEECB31F3ED1
:100E8000A3B6ABBD973AE63CB5B8E83C88C4A73DED
:100E9000543346BE632A4F3D34C1E6BC5701BABD48
:100EA00071928F3B64385C3E923A69BED6FC823CBC
:100EB000E99932BEF35C8DBED88196BDEC4F893C7A
:100EC000DEF5383ED2584C3DE52D513DDD975D3C79
:100ED000A90F0A3C662FA7BD1E9956BDE30B673DBF
:100EE0004B1A0BBE43766EBCCCA28B3D0D65C0BECB
:100EF00036E8FD3B5DFD79BD03DF85BD7CD710BDC8
:100F0000FC4EBD3D2136C1BC67DA4E3EC40A723E7E
:100F1000E12794BD72407D3E183007BD244152BD8B
:100F20005B29603C79E113BC15AC5B3DBCAC83BE76
:100F3000535FC63D8A862BBE7E69F5BC4954903C02
:100F40003038873D72C418BEEB572EBCFB4955BEE6
:100F50002252DDBDEAEFACBD0616933EE71A4EBE47
:100F60000216D5BC0E2403BE091DC9BE3BECC63D0E
:100F7000B46E433D00529F3D8585933D97E0A93D6A
:100F800022347CBC9DFCF2BD2381F9BDE4FF32BE5E
:100F9000D35A9BBD7B629DBE54F7C8BD147C9E3C5A
:100FA000050978BEDCB4D7BD5DC32ABDED2F99BC61
:100FB0007CED96BDCF509CBDBE81803D15D49E3E3C
:100FC0005E44513E3A9075BD3BE6E43D1A08033C51
:100FD000A82974BD4F7AFBBD4C572CBD665774BC15
:100FE000AFEB93BE861F053EBAB2A2BC51B9E7BDB6
:100FF000B51AEA3DE88BFA3D12B6DCBD15C0963D48
:101000001CC5EFBDAEF890BEE7649BBBCD5A163E43
:101010004E724FBE0DE108BE16D198BE98099BBE18
:10102000B301903C3DC593BDBD06B53D55729E3D97
:10103000FC955F3D30D1973C4541823C00549CBEBD
:10104000527786BCBBF201BEC56E67BEC22B9C3C0C
:101050001F18A1BD11EFBBBE24C652BD8CD622BD48
:10106000183C10BD5CD09E3D09D8983B85E0D93C2A
:10107000198DA93EC9C5453E188F6DBDA38F643E2D
:10108000E8B656BDFF88013E8D84F2BD13E2E33C15
:10109000AA1229BB50B43CBED44BD73D5EE445BC3C
:1010A000D419863C46FE2BBD59604E3E231E8D3D15
:1010B00010F2BE3DB65124BE0C62AEBD54E4EB3B13
:1010C000A0344E3E2AC99BBD39A414BE705A19BE25
:1010D0006003F1BD5C4D3A3EA2F3943C19E5DC3D62
:1010E000928D6FBDE8288E3D1B5C863D0D2BDBBDD0
:1010F0005103ABBDF5A823BE1DA41C3D8639A8BE77
:101100003B0F38BD8E9B0FBDD90C18BD1D5CC23D79
:101110004C6EDABD746F00BE587F193DD52897BD5F
:1011200015FC8ABD7A76613EEEFD933DEF0500BE6B
:10113000C4238D3E6F5F9F3B533EFC3D2119843D90
:10114000D6DE82BDE010103D131528BE3A69373E49
:101150005245ADBD21632B3D09E8113E550990BCB8
:10116000079E1D3D97AE0DBD854723BE27EFB4BD3D
:101170006A0FF33CFEC2543EE0A2A9BD9E530CBED2
:1011800010FE49BD8614973C1317843E3836B3BD14
:10119000EB43423E020C0FBE54FDE83D8698E0BD95
:1011A000B517E83D7A2A5D3EB7D2383C47710CBE90
:1011B000AC068DBCFEAEE2BCEC9E973DA357323E22
:1011C000A1D5B1BA0CABE23D631C8EBD2D8118BE1A
:1011D000E68CBABD6AEFD6BDD816D6BD28A66BBDC3
:1011E0007985D6BCD2894BBE2232313E8B97D2BD97
:1011F00013E682BC97ED53BC86ED0BBE16E9F0BC3E
:10120000E8D9D03DF9C99E3C55B380BDDDAE3C3E2A
:10121000A2982CBD60857CBD05925CBDB4771C3E58
:101220000C8D1B3C42E278BDE21151BCD5CD373C60
:10123000C035AFBD3E352A3D3C5CF33DF90C1D3E4B
:10124000D0E2833D7D283D3E036D8EBD1547CDBC6C
:101250006EB103BE5B8C713D45E5113E2223313CEE
:10126000DA9B09BE2B6928BEE9C038BE4DD3863D46
:101270007A6D013DF918F73C217C093E6915D7BD0F
:101280007FA735BADCA4E2BD0DECDEBDBF65D7BDDE
:10129000EAC33DBEBAEA083EEB3062BC0B51443EA5
:1012A000497718BDD5A5CDBC27C0323D89F181BE97
:1012B00066BD373C324B553E7986923DC8D665BDFA
:1012C0008770673D8D4341BCB7D06FBD792E16BE88
:1012D0009A608DBD9D8F143E3606CEBD5DCB10BE8F
:1012E000602D81BC84F825BE10DBAFBC4BC1033E32
:1012F000CB32BA3D7697403E3140663D50924EBE6D
:101300009D462DBC1517863DD7A2513C9C6A553E83
:101310000652103D6D542BBD9FB793BDEBF0843D3D
:10132000CAA4053D9239D43B376B76BC522BD4BA54
:1013300052840EBEE27A2EBE8297C9BD65FE84BD80
:10134000A7EBA5BD49BD1CBE37840F3CB82966BDBF
:101350009CC8D93D36E4F1BCF364883C2FE2C43D1F
:10136000E5A18CBE095BA83D312E6E3E5EBC25BE5C
:101370005F4A833D2D912F3E4D8ACCBD23EB0CBCA3
:10138000608D2FBC03FBF83CBAF8D63D856927BEBB
:10139000ADD634BE9CF59F3D412317BD1F5E0D3E6B
:1013A000EA58183E6BC6B53D53648A3DDD88B43DAE
:1013B000358A16BE56B9D73D7A03F83ADB7C3B3EF8
:1013C000BFF9543EFA6D003DF6ABBEBD16F44A3D82
:1013D000972580BDCB62803BDDCAF13DD75260BE10
:1013E000D15E9E3D9B7840BDD3F0A83BC313ED3C3E
:1013F000244BA1BC3697CB3CFD3D24BD019320BDC1
:101400009B2AC9BCA1998B3E3E890DBCB006CC3C41
:101410001231633EDEBEFDBDFA18BB3D55760E3E71
:10142000EDCDE6BD984DC63DCE03933DFC30C8BD25
:1014300030A76A3D9A6B1CBEB17EAABDE519413E3C
:1014400061F485BD38A287BD1FD3263EC66BC9BDDA
:101450008FF1A73CDFF0813EF260503E3D0CDF3C57
:1014600088E3613DEED62CBD441FDA3DAB6077BC0E
:101470008CD7633EBD61393E5C28283DB1483E3D76
:101480002A6238BD88F90ABCB733683EFF82013D45
:10149000FE572CBEEC51193EFB7E8ABC36C9F5BD09
:1014A000A7944E3D771705BD3C39C1BDCB5803BC51
:1014B000AB86BBBD622E043DA11F443E3892363D33
:1014C0006D2215BDAC15453DF0EF81BE346FC13DB9
:1014D00048EF053E858C8FBD7B1D463ECD9C16BDDD
:1014E0009EB968BE538FDC3C2742C6BD75783C3C34
:1014F00052F6AA3DDB1E14BEDAB9F1BDAD49F83D86
:101500000C0ADBBC9216EB3C1A8B893EA5DBF63D40
:10151000BDB420BDE091C7BD35A1C7BDE76E583D44
:10152000F63DFFBD53C6F3BCC6A22FBC971AE4BD5F
:101530006CFA733D268D063DCBC214BD762549BDA0
:10154000D7758CBCF41A89BD422083BD8C0CDF3C5E
:10155000A146533CF58F3D3D43D67B3D5FF3AA3C0E
:101560001524D1BDF91D08BD90636BBDFC9D5ABC0F
:1015700007AD88BD27B297BD465BCABD4FB3C53D19
:101580000752E8BCE114153DEB9CAEBDBC2CB3BDCD
:10159000DE6E60BCBDFFE3BD1AF42F3D0CAC7B3B9F
:1015A000134F04BDC859883D621E06BEF237E6BB24
:1015B0001CB0A9B96D1DF6BDF3E6893B93575BBB23
:1015C000423BB5BDB93E5C3D818594BD18A6C9BD01
:1015D000BF12973DC49C16BE95195ABD5DA195BC1E
:1015E0005EC7463D186DF73C5852BC3D486F043D00
:1015F000B23C803DCBDB223D572DB2BD0E8980BD74
:101600006488A5BD365CFCBCEF89D7BD3BBA823C83
:101610004D50D13C3CE7D3BD39B89B3DA86AD2BD03
:101620004912D8BD9BE8A5BD4B3BF83AE5B4BFBD18
:10163000F960B139D0007D3DEE91BA3C3854E6BC3A
:101640005D8360BD349582BB702050BD4356923D92
:101650002FE7093C72EA1ABD02974D3DB98F24BDB0
:101660004ABEAA3DD416EFBD0445C33CA76AA13DBE
:10167000A660A8BDBBA3A13B2A7F6D3BDFF48A3CDB
:10168000990489BCF9A5CABD067F71BC4314BBBDD2
:101690003C4F833D011DBEBDABA698BD6606D83A42
:1016A000C69437BDB060793CC5F4E2BBE40BD1BD54
:1016B000732F9CBDEF9C1A3D72B6F3BCC761873D8A
:1016C000DD51A53D679898BD00E6D7BD4738CCBD34
:1016D000CBA809BE531C84BD4B5E94BAD80BCDBCBD
:1016E0001FA7D9BC0017ADBD46180ABD6901DABDF8
:1016F000017A0C3DD464B73DA645C5BD7CBF613DB4
:101700009F8A8CBDC97FDFBDE828853D3B40073DF2
:101710004C6A8B3DD7F7973D4A61CF3CDDB1C2BDE6
:10172000CB72DFBD1DA48E3C7AFDB6BD1B9533BDCB
:101730009DB06ABD2F414DBE9242DABDD92EB93C53
:10174000E4EE10BE798F0CBE41FF1DBE87C2EBBD1B
:10175000EAD7C93B1A8909BE7ED7E6BAF16F843D44
:101760008C1E53BDA46ADDBDCFD7AF3CAC671BBE9A
:10177000AD0C85BDC6A46A3D459C0EBE7173B8BC58
:10178000D241F8BC36B86BBD1B351ABE589D2BBD77
:10179000F51111BE72EA4ABE3ECD04BE0DECC83C46
:1017A000FC0581BD477809BE6B0CCEBDACA966BDFA
:1017B000DB93BDBD2FBC8ABD7BC9C5BD262ADEBD5E
:1017C00090D9E5BC5EB32CBE7A40ED3BE013ACBDD6
:1017D000464A9CBDE5BBDBBD2B2D01BD6B6FB93A05
:1017E000DF8A4BBCBB1A12BE4F40883D2AE7873DBB
:1017F0000DA1FEBDF0E28ABC69D700BDF7F58FBD33
:1018000006D194BD3DC5E73CD19F183DF7291C3E4C
:10181000ED3274BEEC9857BE677F623DF568D8BC68
:1018200093553DBE75B8A7BD30518FBDEC83D5BD76
:101830000208B23D514D9B3DA3918FBE517F0A3EA0
:10184000EE9718BEAC51BE3CD5D8FF3DE25ECDBD93
:1018500011EAD2BDC583593DE60125BEA97F05BE6B
:101860008FEC853D7A7C85BE485DB9BE87195C3EAC
:10187000EBAFD43CEB45443E432B543E7DBF023E90
:101880005CE349BE514610BDC527DB3B32C5BDBD3B
:101890006D4446BEC794493EDD54023E598F4FBD4C
:1018A000D27741BE8C8E8B3D1CA4F53CB4135FBD3A
:1018B0001D3CAEBC1E1384BD13D901BD6C58563DF2
:1018C000E1E53CBDCD07023D949FE1BD6F68BFBC23
:1018D00050F306BDF980F23D5702353E9AEDDA3CF1
:1018E000FDF8323DC2B8823D0B7A52BEE7E2153EAA
:1018F000658BB83C23D0053DBFCDCABDD84EABBD2E
:10190000A68A69BD865A51BCEDB7D1BCE7F7DCBDEC
:101910004A5934BD9BC56E3D1FB042BEF1132DBE6A
:10192000D473233E28B5C2BD2ED1B93DCCF1FF3DC5
:101930004FF945BDA6042E3C87183CBE24E73ABCAF
:10194000E73246BE86426BBD00BA963D72382A3EEB
:1019500093A3FEBDA159CCBDC3D0EA3D697619BEA3
:10196000F47A01BEEB07AEBDB94E34BE264698BD33
:101970009EC30D3EC412F03CC75C44BC66155CBD02
:10198000967551BDBC5C94BD437E343D1043193DFA
:101990003D20D33C1FBB32BE68F4AE3DDD21C8BD47
:1019A000BF86333D9C13BC3B047BAB3C091D4DBE45
:1019B0004DEB86BD9354E7BDBFB336BE4ECBAC3CBA
:1019C00006923FBD563B27BE31F6423DCF3883BD20
:1019D0005F1237BEA4B33C3D601E1FBED43B263D04
:1019E00040A43ABC09F5AABD4218DABB92BA38BE87
:1019F0008DB4A1BDC015A3BD03E9DCBD7E98DA3D61
:101A00004271013D785453BED1A9C13DA2E2A43D2B
:101A1000BF5B6CBE1F407D3C408B8CBD589460BE4C
:101A20001D48F63DFEFC2D3D3A6C05BEA02CF53D53
:101A30009C22CBBCF53DE6BB88C0B33D0473183E89
:101A400082FE5E3DC8FE99BB8D1ABABBEE0B3E3DD1
:101A5000DC4A2ABE56F3003D2BA0C3BAF56E0F3DFB
:101A6000F43D4CBE8ECC0DBEFFCE26BE07092BBD6D
:101A7000967CA4BC818974BCCF63473A3BD85DBDDA
:101A8000E506B6BDE5E34F3BF81F113E6F1293BD6F
:101A9000C049AE3BD16B053EEF9F84BD2F31F93D70
:101AA000018957BE8B679ABC453D78BE669235BCAE
:101AB0000D2F3ABBB9C6C33DB0E05DBE411F23BD8B
:101AC00014C8DD3D5E4610BE2A6008BD4683B93DA0
:101AD000CA6DB5BE70692E3DB682433A64C23C3BC6
:101AE00077EEB93D2FAE743CDB6033BE0F0A90BD7C
:101AF000FEF277BD6768653E22D7DCBD1B6ACD3D2F
:101B00001B5A2D3DAC45F1BDAC2B183CF21185BDE7
:101B100037E36F3D41B1F63DA1913ABE33ACD3BD41
:101B200050FCAC3CAB62C03D272480BD38866BBC0A
:101B3000610C1B3E720DC03DBB4CDF3B0124F83DE8
:101B4000ADD97B3DBBFC4FBE3990483EA8D497BD74
:101B500080626FBECE3826BE6EA722BE92269FBE82
:101B6000A6D960BC2FCE503E40CC063E4D327CBE46
:101B7000B6AD2FBE7149143E4A1834BD12D038BDDF
:101B8000F0C4A43EF4842EBE4F32A23D1F34953DD6
:101B90001BFE4DBD75D178BDBAFABD3D87F126BE9D
:101BA0000C9C83BDE46614BEA75B4C3E624D24BD15
:101BB000103B693E15FFCE3D4FB5A7BCA8712CBEAA
:101BC00037EDF0BDC653CF3CA611133EB611CBBCCA
:101BD00010E3AE3DD611E53D537AF23D182FF9BC26
:101BE0000DEB2CBECF581B3E376E923DAEAF8CBD79
:101BF0002EF10E3E99A7F0BD73D255BE589F353DCC
:101C0000407A92BCB94110BE30CA9EBE2D1603BEAA
:101C100097EA37BE83A2E23B7133D9BB466F9EBCC5
:101C2000CBE4B4BD026DD03C6C6F2C3EACDEC4BCCA
:101C3000B7BF8ABDB01E24BDC083333CDF21D4BCF6
:101C40002114CABD470FB6BD2EA1ED3D398013BD8D
:101C50008F6235BD017ACF3C422B09BD53A8543D5C
:101C60003AAC8B3DADBC113E2C58A8BB4EE9763D3D
:101C7000F104E1BDCF0643BD213CB0BC39814ABD72
:101C80005DBB843A0902F33D783CBFBB9BEEDFBAF3
:101C90004468413CC85EE53D18443C3DB21874BD03
:101CA000AEC4F3BCABC8C73D947C503D29533E3E07
:101CB000E34907BD350435BEF86C4D3E2EBB25BE4D
:101CC0004513D3BD85D843BFFA375A3D7694F63CC9
:101CD000302014BEC66C27BE9FA28B3B89B1E43D69
:101CE000574593BD346CDD3D9B29BE3D9437723D15
:101CF000CCA7C03B64DC06BD881DDBBD49DA893D4D
:101D0000E5C87E3D107FA3BD2C7D5DBD7182283D61
:101D1000B816353C37BE0C3D46CFE83D0DFE85BDBF
:101D2000717C4E3DCE54B9BD330F923D648F6D39F9
:101D3000D3AC84BD3649483E26C9953D54449C3CAD
:101D4000D9E1B83BAE1E3E3D5AF3A83DEC13073E29
:101D500031937EBCE36A83BB03DE1A3D52829EBD93
:101D60009537113E6DA11B3D4BFBE83CF91B103E26
:101D7000F078F7BDA5B102BEE8012CBF42060FBE48
:101D80004220A4BCFC2B84BEA82C27BD3E14EA3CF8
:101D9000CDE5F33CD7A712BED0DE68BD4B192A3D76
:101DA00034525C3D5C9F3BBD23CC0ABEB33999BD28
:101DB0008CB50B3E5124B1BD24BC9E3CE104C3BC98
:101DC000EBCB2BBCCE51A63DE0936D3CEFAA22BDE0
:101DD000F4A4B2BD3862493CE08B06BEB370323E1B
:101DE0000630913D024BC9BD768E213E4E4EA43D3C
:101DF000E030243DA886013EC4B9153C51CDF3BA6C
:101E0000D67C503EAFF2903D8A63C63C7706BE3D1D
:101E1000F0313D3CD765153EBD548BBDB6AAD23DD1
:101E20001E192F3EAAD924BE0DA03ABE1F76B1BE00
:101E3000673105BEDFF580BE177ABABEA00698BC32
:101E400094E7BABD1BEC28BDFD0FA4BD2FAA99BD18
:101E500027310DBD4A63063E3C0EFB3CCE0A8ABDCF
:101E6000C45F053E9CAFC43CD69CD1BCF412D53DAA
:101E700072D39D3DA98F2ABD0E004E3E7FF352BD09
:101E8000231EB9BCC8619B3D552BE1BCE89145BD03
:101E9000C4F6A83E06CDD73B71F338BD3753AC3EF0
:101EA000C65C3E3EC79BAC3D6B32B73DA7DA06BE73
:101EB0009657CA3D9F4A623EA5B9E73DDB38CE3D05
:101EC000B20E5B3D9479CBBCB53B2F3DA69A263C28
:101ED000C9602F3CBE1DB73DE7AB93BDDEB4213DCD
:101EE000D3FF92BE1EA0F3BD686758BE1236D2BEA5
:101EF000700F88BD8BFA9F3DF31BBFBC7633063E47
:101F0000376D91BD8F576B3D2CDE223D5223A3BD13
:101F10004F10AEBD919B893DB3FC903D23D0E4BDF5
:101F2000F2AE013EDC3E29BD38168A3D18C4653E3E
:101F3000CBD6383DE7CB83BC1C98A8BC1DC39C3DC9
:101F4000BF3987BDBAEC723EC161D83BA52F52BEE6
:101F5000DC2A963E27E4A7BC20D829BEE630AC3D5B
:101F6000633930BDD256F53D67F95F3EDA632ABD6D
:101F70008826CEBC158EAEBDDA463E3C0039DD3D2E
:101F8000A5F702BE9125473ED42DDF3DA36BA43DAE
:101F900094C6223C8545C9BD87BB8DBD6138A9BEAD
:101FA0008DDB82BE85695EBC2158BFBDBFD930BE06
:101FB000A41C10BED3700F3D2846ECBBA4B052BD8C
:101FC000D75F85BD6C9621BE5C1BD7BD8F6112BEED
:101FD0006E2C48BE0FD38CBD0386BFBC28DFB03A41
:101FE000B34E14BE3F44F6BD6CB32CBEF2613CBE92
:101FF0004F58CBBD26AD90BB044D2EBDA69E39BE1D
:10200000BC60E7BDA333A4BDDFF019BE0E5B19BCF5
:102010005967F0BD834F7CBC6200163D3D8436BEDF
:102020001A8309BD7CBC08BE0D94DCBD91DDA0BD4A
:10203000DB77A2BC0B0720BEBD55963A7ECE29BEEB
:102040004E37F8BC9534ADBDA1FC3DBDB1440ABCD2
:10205000479B0DBE1A638CBDFA9CD8BD56D6F6BD03
:10206000E6092D3EB9374C3DA77EFDBDDAA5733D8F
:10207000FE2B09BE93C5CABC32EA733DBFFB933D3C
:10208000209C94BD904DBB3DA53568BD253CCB3D06
:10209000779C243B94454A3E29693EBE0DA7E33D0B
:1020A0003B2CAB3DD950033E05A983BDC4C2033DC3
:1020B0002C7DEBBD145437BC764A083D8D519ABD3A
:1020C000637EF63DA55883BDDFF309BE3F25043D81
:1020D0005D943B3DCF74C53CD37C1A3E0DEF9DBD56
:1020E00038E619BE99FF293DB96508BEDA948C3CE3
:1020F00047E2F23C591107BEE47EA8BD0ADAB7BD3B
:102100005B68B8BEF06F843DA80D0EBE7A78B9BD8D
:10211000D786B53D00D4D03DA1F4C5BD9F701BBD91
:102120000A186D3D32628DBD2B51333E48E6993D14
:1021300089588B3E1E640EBE83D6AF3D8454C43D89
:102140005075E23C182BFC3D98216A3E81468D3D3E
:10215000F04D033ED22A7DBCD7963A3E835FCFBD79
:102160008E063ABDCD52B3BC717364BDE3267F3D8C
:102170004BC8363D60EB1A3EA6DB0DBE91A7CBBA2D
:10218000D9C9C7BDF9AAC83D981F043EDB0DA93DBA
:1021900022A99ABD4BAAFEBD209CADBD7E60B43C79
:1021A0003E6D483D6349193D5F8CBABCD77E17BC74
:1021B00067F60ABDEBF504BF16783C3E0FFEC8BDBE
:1021C000F3FBC8BD30B3D3BD7C03963D43C6A1BD70
:1021D000EB34B6BD42D52A3EDFBA23BE316B223E78
:1021E00039BAB73D473F153E76D1A8BBBB8C903D71
:1021F000C3F0A9BD73AE3B3E57BA213ED1E1853E47
:10220000745BC5BC5A50A3BDD1676F3D6113DB3D04
:10221000CFD0DABD99EEB13D72C423BE8AE8D43C7A
:10222000142B5B3D8332453DC991ECBC05DEA4BD5A
:10223000F8F7A8BDC3541F3DF60CFB3DDA51103E24
:102240000606383E3E3EABBD260D50BD155FDBBDDC
:10225000C97EAD3DF3D2473C7535F03D817F27BE49
:10226000A4A1FABD2C2E9EBBBC92C9BE8BE0623CE1
:1022700062A982BD80AAEBBDE797783DD0E90E3D0B
:10228000FA3AC2BD0B0D15BEADE3573EAF5EA23CA0
:1022900000240C3EA2B2E63DB629C33D81A00BBE90
:1022A000A4E1163E1DCDC63C86690F3EA9C0A6BC62
:1022B00022AE613EE168A6BD7E9650BEB61FAD3D22
:1022C000C530E23D31962FBE7806433DE60CC0BADC
:1022D00015C4E5BDA3ED213ED61740BCFF90013EDD
:1022E00008E493BDB43FA33C758ACCBD51E3833D64
:1022F000BE3D273DFF9EB83D0F0EA1BDBF19713DEC
:10230000D94F84BBD655A53DCD3CE8BD0400C8BC23
:10231000A2BFB5BCC1549CBC19886B3C2A41A2BE6B
:102320005BF1B4BD3F6440BEF2D87DBDEA3C303EB7
:10233000E109A83D5587EA3D72D8E5BCFE936E3DA4
:1023400015BA50BDFD42E9BBCC7E2B3CE1DDB2BCF1
:1023500072FC6C3D31D3613D8EAA0DBE207574BCFC
:10236000DA4E773EDB1A3F3DC523F13BEE9853BC76
:10237000326D94BE186086BD3EDF2F3D4CF24C3D61
:102380007AC148BE651B81BC8E9E5BBDA3E061BD6A
:10239000F988EB3C071E25BE59CEC4BD637E1BBD2C
:1023A0000D369EBC5A47DF3DF829963C60FD2ABE9B
:1023B00047F2E1BC753B9D3D2F7E56BEEB23BFBB74
:1023C000B16C7DBDCD6502BDD812303C30CB3EBE78
:1023D00023B7273E85A7603E7EAE5F3E851526BDAE
:1023E00094645D3DFB0D4CBC18A2703D49D271BD9B
:1023F000F90A06BDAA01EDBDD86EF9BC0137913CC2
:10240000FE6EC93D203D35BD6693713D28CF76BE39
:10241000534782BA59AAE63D27BAEE3D9682F53B6C
:102420001190C4BD22D841BE16BFA23D491901BDBD
:10243000C5DDADBB6EE8D2BDEDEABD3D405706BD82
:102440009866943DB24F07BE02B898BE5129E13C50
:10245000BFDDD0BD9739EEBDE02BA43D3E0A1E3D49
:10246000571C83BE5B3B2C3D8D5D6EBBA603D4BD6C
:102470001E9EEB3D767E9D3D12E5C83D17730ABD5D
:1024800061D3AFBD14D6393E1ACB563E57B8123E73
:1024900032AAB1BD33222A3ED56DC23D20A82E3BC3
:1024A0005DD708BD4FD603BE854AECBD895B46BBF0
:1024B000F3933ABD2CD6053CAE2B0CBEC1EB353E9A
:1024C00013C266BE6570CCBC8CDC063D317BA93D79
:1024D000F75E14BE1DCFA63C9C70BABE4CAE63BC6A
:1024E000B8908A3BF7A3F83C7E8B7CBDF6DDA23C1E
:1024F000ADB99CBD42D9E8BD783BCEBD51073FBECA
:102500007D50513D969E57BC065C99BD9C793B3DE4
:10251000C367B43D293A1BBE56880D3D6861B6BD00
:10252000C88133BE04D43BBA3616C83D9EC8A0BD90
:10253000EFD8CE3D130A36BE622E0D3EDA31423E52
:1025400046A5073EAD31A43D3143BD3D748F98BDD6
:10255000A59B843D43F2B1BDAFAACC3D9258AD3DA1
:10256000DC24D3BCA2F663BDEA5F3B3E7B084EBED3
:10257000C962E83D969B33BEF813553ED764563E7C
:10258000FB30533E2AB021BE4F44DB3D89FF86BD60
:1025900055B27B3D6120AF3C479C0DBCDEB69EBD75
:1025A000D55789BBC24B87BDB8BC053C9DDE98BDE5
:1025B00064F829BEDA2889BD44AA03BC7AFB0FBEA1
:1025C00034FB5B3D63F58EBD801FCEBDF5195DBD4F
:1025D000A845703C77183ABE6612F9BC67C9113E2F
:1025E0004737F73CACBA343CB3FB493DF1030B3DF4
:1025F000D26AB53E2988233EBC55ADBD1E70F73D5D
:102600007554DDBC22FD78BBB6ACE3BD93180A3E21
:10261000C66041BD1E2E663C09396F3DAE350A3E8F
:10262000BA00ACBE85BB063EC95D7DBDF1161F3E3E
:102630003C142C3DD2D1343E96DD22BED7B91C3E8F
:102640007785893DBFC37EBCA70E553E22F90E3E5D
:102650007F68F9BDBD978DBDA22EC83D0D93FF3D8E
:102660007ED096BDD8C06DBE99A1D6BDB2CDD6BD27
:10267000E26090BE0514D83D74F3043CD85D14BEEE
:102680003F5FD1BBD14728BE9539EFBD9B060FBB3D
:10269000F57FB1BC8192973DA228963D6FA83A3D47
:1026A000779316BE75A3BE3EF77A603E72EB883D07
:1026B0005010CF3DC6A0A7BDCC0A343DB05650BD8A
:1026C00070F19DBD1970113D366B863D2342363D3C
:1026D000D81F2D3D0EABB73DEF938FBCC11A033D04
:1026E000DB755E3DB64FE1BD7730CABD4083433DEB
:1026F00079DAC3BD34FFC93DB514B7BD7FAD8DBD1B
:102700000FF43CBD447B72BDCB158D3C95EA7BBB81
:10271000EE04D6BD1001D0BDB9F852BD0AD4A8BD93
:102720004754B8BC76478DBDF2C5A2BD4426A43D32
:1027300093EF84BC8BA5983D6F94E3BDB82FE43C28
:10274000B169C7BDC3036D3DD7D343BDF78ED6BCBA
:102750008C52B03D694EC9BDFE641A3D398DE1BC55
:102760005917B63D25008EBCD5A8C0BCEF2C7C3DCA
:102770007B07423D4D84D1BCDBB31E3D6A8E2ABD32
:10278000CC3E423DD113B4BDD1A2B6BD502AEEBC61
:102790000846223DB3140FBDD2A4B53DFDDCA73DD4
:1027A000BA1024BD76EB823D6CD77BBD060AA6BD70
:1027B000F590C83D2478A33D93400BBCF09AADBC86
:1027C0009B839CBDE96E84BD941D33BD696866BD65
:1027D00085A87E3D66E5533CB4FC89BDA98165BDF5
:1027E000D36B9DBD2E9D20BD37176FBB7922843DD5
:1027F000BDB891BDC66AB6BDE5E2853DED65B5BD26
:102800004C15BEBD21E28F3D9763D73CDBA797BC3B
:1028100083BB9DBD4703FA3B39DE633C27552D3D05
:10282000E08E1BBDAAA5A2BD4CB4B73DFCE5AB3CF8
:10283000CDF375BDED0F26BD76A0A5BC4E94683DC9
:10284000542FAF3DA658D13BFA2D303DE9C4AF3DE2
:1028500099FF87BD39E9B2BC889155BDF395B7BDE5
:1028600038FF693C4F54643D852EA23D6E207EBCEE
:1028700054252EBD03F39CBD7F83243D3FF5473D8A
:1028800096211D3D767412BDA160D9BD7E429BBDCF
:10289000F47262BDD507A73DE5C2BCBD3A50013C0C
:1028A00048910D3DF74BA53CC8BF403D5915CABDE9
:1028B000C9ECB43DEFF6AFBC1C2F55BDC2B199BDFC
:1028C0006D61BC3D693037BD9AE9DDBD946890BD4E
:1028D000718B92BDC76D8A3D0B277E3D7E61D7BD52
:1028E00008FCDFBD5485D8BDA1E4A13D832DBFBD4B
:1028F000C4CDD1BD2845AC3D46B09D3D2C99A5BD6C
:10290000F87A9A3DB09A783D27599DBD716827BDE8
:10291000EA3D4F3DB1C440BC8C8CB03D532989BDCC
:10292000066039BDDB9AAE3D66D4B5BD13A4433D08
:102930002CBB8D3CBD67E03BACB6593DBBA518BD7B
:10294000A080523D4A7D883CC3013CBB2CF191BD27
:102950002539AD3D1A844EBDCA168EBD6C3341BDBE
:10296000482145BDA361AFBDE1E9D3BB5FA0503DA8
:10297000E7D628BD03F1A43CE716B43DD9AA6B3DC8
:10298000C0E4B33C283CBD3D6CD5C1BDAACAB73D2F
:1029900099B7D7BBFDBDD8BC02593BBC3D0A423DEF
:1029A00003EB71BD7FB1913D31855B3DC029B2BD67
:1029B00054510B3AEB9B22BDC2B408BD59BFBC3C7D
:1029C0000364E8BDAE2196BCC63BA9BDD4DF403D43
:1029D000A50FE4BBCBF28CBD81E0643D40F1D8BDD6
:1029E000C465C43D37CDB0BDE1D3B83D11E1A7BB4F
:1029F000AB9BD33B7C8B1BBD14654DBD9F0D60BD58
:102A00005C0209BD99589DBDE1F063BD972FFDBCE7
:102A1000C158C33C6B42393D8551C93C57E88EBC17
:102A20009A09BD3DC2DF0A3D4155363CF8E1D0BDB3
:102A3000503C5D3D3841A3BEE4019EBB6103983D1F
:102A4000EE3756BE47D2563E9FA8383E3C924EBE09
:102A5000A902BFBD2B5EC83B83F10BBED8B55B3D61
:102A600074BB5338F24A093DA7DF80BD7C1D9A3DF7
:102A7000CB57BDBE6D94903D360D22BD7210FABE8F
:102A8000B7515BBDB9D1D6BDFAE606BD5B1EA13D0F
:102A9000B51F06BED28B1B3EC7443ABCFACFB9BDA8
:102AA000901EB73C3722AC3DDE842ABEAA5D10BD25
:102AB000A8B033BE32A9C73C4FAE283E286968BED5
:102AC000ED11ABBCED3417BEE94E303ED857293D71
:102AD000B4918FBE1477A23E6A0D10BC0E76A1BDD4
:102AE000B02F90BD4A6A0E3E2183F1BD9338853CDC
:102AF000780BB0BA379E3ABE6F845F3EBB29073E63
:102B0000A28C91BEA5D2C6BD7D1B4F3D3AF18DBDB5
:102B1000D3DE94BD68128EBD048AA23B88E693BDC5
:102B2000AC631D3ED7E18BBE648CBF3CE08F3E3E64
:102B300037BAE1BE05A0E93D78A819BE8CE1E0BD39
:102B40008454263E524F19BE28CA123EC5A255BD16
:102B5000455C3EBE1D33043D335F593DA331F3BD9B
:102B6000E4FF833D706E17BCAC6C0FBC37F9B83E08
:102B70003684C03C4BAA77BC0AB9173AC8957A3E4E
:102B8000DE33183E6CCF65BE1CD7B43E29EF4FBE76
:102B9000A7A7B4BCEB1B95BD4D83053EE570463C35
:102BA000A42FE03DB78706BD136F3ABE9A83F53D6B
:102BB0009F424F3ECE4F89BE92053BBEE1BDCE3D0A
:102BC00000AE213CA483D03D1246FB3DCDFE9EBC11
:102BD0001C7E5D3CF129073E62B8C23C0A8297BD6B
:102BE0007AEFAE3C081518BE1667373EED923ABE36
:102BF0007A91E2BDE4C8433DFF8C80BD06F589BDF6
:102C000018AE8F3D075F96BDE23FBE3B3A159EBBB7
:102C1000D82A93BCEF56003EB5AE63BDABE34F3B45
:102C2000ACA4713EC21C8DBDB2EA933AE7E3D13D3C
:102C30006721EE3D19128C3DBA2B04BE8F775A3EA8
:102C4000358863BE819D893C44131ABEEA43ED3D3D
:102C500042CDCDBDF1C9B93C3CA441BD8A1C28BEC2
:102C6000F3C65C3D0EAE4F3DDC0F5BBED83B82BE73
:102C7000B213813D17E1E8BBD0A885BCE7F4093E5B
:102C8000CC1776BD6556533DCC67813E800011BDA3
:102C9000507205BE6FFF433E0D7A96BCEA7E173D2B
:102CA00035A0FDBD67EF75BE6A3291BDD3C9CBBCFF
:102CB0001D7978BD538DA3BD6D3C5BBE90658A3D8B
:102CC0006E7E04BE5548D23D0F6EF83DF97B68BD5F
:102CD000B04D17BDA5B37A3E0F5DCD3D66FCAF3C50
:102CE000169E1D3D9F4A0DBDCD0A413E56BBCB3CB5
:102CF00037C8A53E533AABBEFD04E9BC424071BEA5
:102D00007AF90B3E471591BD3A0C9E3DD15C0BBC48
:102D1000B14542BD94253FBC66F8B23D95E830BE52
:102D20000C2150BEEC8D3E3E757F293DA212F53D33
:102D3000598E913CA561B13DF13B783D3917983DE5
:102D4000F436143E360B7ABD19BD583E424A953DC5
:102D500016846D3E75B8D03B1030D23B01728EBDEB
:102D6000D10C88BD7BA07B3DE047A6BDF018A5BB7C
:102D70009029FB3C535504BEBEFEDE3D0739C63DDF
:102D80002C67763BBBECA5BC801BC53D7FE6653C54
:102D90005DD23C3DB0C68CBD7EB1A03DBB857B3DC8
:102DA00043B7E4BD0EE2633E4CFBD2BE515FE83D4B
:102DB00069A240BEC2D4A2BC6692033D4A5B71BD0B
:102DC000EEE56CBDAB5EBABC101B8D3DCBBFA1BCAC
:102DD000E221033EA822963D2B49A5BC9361953B79
:102DE000A577EFBD439B3C3D2E59013E417C213EE2
:102DF000828B4A3D7ECBA03CD35AA3BD95CC9E3D51
:102E0000BD1B2F3E8E2678BD3AB19ABD37791B3E49
:102E100053D452BCDD802C3EBC0EC33D53194CBE76
:102E2000A0244DBD342505BE516AE0BD224CB3BD82
:102E30008C50023E84F13ABE2F80003DEA251CBD35
:102E400087ABC53C47D3CFBCAB33A1BCAC8D8ABEEE
:102E50003CA7BABD850F483DA3C7ADBD028933BDB0
:102E6000C1E9EDBC6AF69FBDA56D08BE7EE4D03D0C
:102E700066EE4BBD4F74C33DE9760ABD39990ABD74
:102E80007EF0BE3DDEBAA23DB234D3BCF8E725BD2C
:102E9000888B6FBDBD2772BD67E3B03D186CCA3D1E
:102EA0001DF6403E79A5553C7CB9D33DA1B492BEF8
:102EB000D9810A3ECFECDA3C900C15BEF0E8C63D55
:102EC000BB42263E925C0D3CD46E073E194A163E2C
:102ED00091FC49BCF2C476BD4B87353B3B6F4EBE7F
:102EE00055C78ABD028D343EFB253BBE3E7119BDE0
:102EF000B8EA37BD34A0B13B75C641BE87A71BBE3B
:102F00006A6985BD66CBF0BC0F59B1BD781988BD23
:102F100048C6C33DD1262CBE069CAEBD29C080BD8F
:102F2000C2199FBC5F1C0BBE5E9068BDAFAE233C58
:102F30002D70F63DB415103C8467CD3DA32664BECC
:102F4000D6DB563D570BE33D88BBD8BD45754E3D9E
:102F500041DAA53DB6B9F03D68B4E13C4A81863D11
:102F60004606C7BE827C6B3D75493B3EF72E1DBEB3
:102F7000D4BB6C3D5F532E3E8D9096BC7160133D6B
:102F8000A555D13DBE8FA5BD73733BBD15AD80BCAE
:102F9000719F2FBE27989C3DF3E83B3EAC36B93C71
:102FA000989D1EBE66138D3CD15386BB575F90BD66
:102FB0006FE9E23C49B74BBE568AACBD01477FBDC5
:102FC000519DC7BDFA55F03BA31F713CDC51183D24
:102FD0005E1534BEE819593BA62EABBD23CFF73C96
:102FE000703D873D49B77EBCFD4AD13D9F5F0E3E97
:102FF0001DDC5DBE39C0383C8F869F3DFDA8E2B91F
:1030000050A5873D5566223E3B3DBDBD87D1BD3DA8
:1030100092F489BD2602BABE8125F23CAFD6813D2D
:10302000FAC81CBE79A3703D92B3363EC4DA0EBD19
:103030000853393DF508193E7D02F1BD55C2DFBC8C
:10304000BC7D6F3DB33D7BBD3E3D673D339B863DC3
:103050007375DDBD3DECD5BDEA13FABD3C0CD33D27
:10306000A46E26BDAD4819BE16E308BEB910413A9C
:103070005E87A6BDC3C2B9BDB3D7DBBD5411C83C82
:10308000FE94FEBD38B87EBD036DEC3BDE3173BEF1
:10309000C95AAF3D29CE11BD5FB24ABE2FB9B13D6D
:1030A000C0F8573E80B7C5BD3497BBBD7159E33DED
:1030B0008E46DEBDB1B7CABB42FBD03DB958BC3C61
:1030C00018AE793DCE5504BCADBCA4BE958F943DE1
:1030D00049EAD63DF8A17DBE5C3B43BD0276D23DB8
:1030E0004257C83D24E1083D83CC203E009049BEB4
:1030F000DD86A13B582F45BD8D41B1BD4E21FD3C24
:103100007166CF3C36789F3D79137DBDEE5C5EBD28
:10311000CF7D653E27FB4ABE8763AFBD904352BE5D
:10312000D85824BE31A788BD3FA6B53D2F7BEABC49
:1031300081E3213D6F50B5BDE7FFE2BC6D7DBA3D37
:1031400045D3703C69B312BEA2C5AF3D5493A93CB0
:1031500067F2903D7097CFBDFE838CBDF30BEABD47
:10316000EF84B63D68A60ABE12BAAFBC05CEB33D29
:10317000450DCA3B03D788BD932C173DE3BA75BDF7
:1031800045A0C9BD254142BC0F97203CE8C06B3C1F
:10319000C9E2643C3B5498BDC5E2C0BDF2DF88BDC6
:1031A000F50884BDF5C2423D64C9DBBD0480933B94
:1031B00033614C3DDE208EBDA230D0BD9E2B03BDC1
:1031C000194828BCFDEC153CF05007BE0BDB57BD81
:1031D000CE75A0BC301F68BC727B57BDD65F4DBD9D
:1031E0009E343D3D44E1973DFC7CF1BD4EF7D6BB9E
:1031F0009FA0643DF0346DBCA2B50BBDA379EA3D40
:10320000217E5BBCDC3538BC5DA38F3D1F3773BCB2
:103210006FF5DE3D17538B3CBE1999BD03B9793C60
:1032200055E9AD3D99F20FBEAF3AADBDF454D43D72
:1032300084DEB9BDB1482A3DD5FB69BD08273FBE34
:103240000B36B33C9491B4BD69EDCCBDFD86923C88
:10325000B0590ABDEB458E3DEFD6AABD7B20DEBC42
:103260009817063E20CE7C3C4C80BBBD4D63D8BD3C
:10327000DF04B93B0B1FC5BD5B5C75BDB1D26ABD38
:10328000805DE4BD54E791BDEF783C3DCFD1083D72
:10329000F619693DD35497BDC515AFBC1334D3BDE2
:1032A000133C7C3C642F5CBD78D506BE099192BB73
:1032B00054F96F3D65824BBC79D5983D1FCDBA3C22
:1032C00085D37A3C15FC203DF7E669BD2EB1ADBD36
:1032D000DAFFD93CC5158E3D6440C7BD295C0A3D67
:1032E00096186F3D2F7D0DBE17EC9CBDA39F9DBD15
:1032F000C3780DBEDD519B3D5CAEA83C3FC8C13CD0
:1033000021166C3DA5CD27BE9D18CDBD900A01BEEE
:103310007AF3E8BBDBBF34BCEBFB0ABCDEECC2BD1E
:10332000171A1ABEB3B933BDC055E0BC355086BDBF
:103330004CAC4D3D496AE7BC4A35F2BDCCAC503C83
:10334000A01335BD48DB5F3CD2EE60BE1BC4D4BDCC
:1033500034A527BEDAF3C0BDAB9802BE13C60CBEBF
:103360009D0FC03C97439D3D1B699B3DF36FE4BDA2
:103370006EE744BB90D1B7BB5211B43C34B4B5BC7A
:10338000C4A718BD505BE63D4C54803DF35E48BD7C
:10339000487B2BBD4FD8B3BC835B4EBEC47188BC89
:1033A000549C9ABDE99505BE468E883C2924DDBD16
:1033B000DE24D9BDAE329FBD1342DEBD7B555B3DE1
:1033C000A9EE01BEC7BAA7BD7B8D893D98FC25BD7E
:1033D0004122AF3D700275BEDDFD1D3DC83A7BBD8B
:1033E00019FCA6BDDB689DBC056698BD4D09EABD0C
:1033F000E528BDBDF75BB3BCABF26EBDF02869BE7E
:103400000A09963C6D9F92BDAB83203DD34820BCFA
:10341000AF6D2EBD0543693D4B15C53D8A920EBD6E
:1034200034B2D43D1171A83CA6FD2BBBED32FD3D5D
:10343000F810B1BD9A9F113D4880563E54ED303D85
:10344000BB6885BECEFAF63D38C6D2BDA5EAEB3CD8
:10345000EC3AEB3CBB52E43C608F7FBE881D02BD62
:103460003A49E0BD0BEF23BD67EF0B3C8139B1BC9E
:10347000A796E03CD8C50CBED6DB883DE915023ED8
:10348000D83F62BD92D4BD3D28D983BE5D48E93C9A
:1034900034B51BBD2334053EDD734B3C7988D2BD6A
:1034A0008FD483BE40DCD83D8AFEFD3C31EDD63D55
:1034B000981F9EBE4757353E07AC8D3B84B3073EF1
:1034C000C876B43D0C13843DAE3AFD3D7294BEBD4A
:1034D0001FF460BE56C9413D7DA20BBEABD939BBBE
:1034E00013A3F53BB36830BD75448ABDD16123BDDC
:1034F000285A48BE6B762B3D4818833B7DB64E3D1F
:10350000CF2BC8BDFDFEFA3D2ED52EBEA08CB03D02
:10351000636E89BCE19C863CFA805FBD8E4ED03DD7
:10352000834774BDE1AAA13D3F54FD3C029B453950
:10353000A3FC8B3D858ACE3C4AD5123DB39C2BBE65
:10354000635D1DBED5DCA33E99D820BD2DDAA9B997
:1035500004B3893E51FA56BC02D6B4BD474C64BD93
:10356000AB23CE3EE99A9C3CE8ED13BDF9D27CBD7D
:10357000F2CBCE3D49084A3CE6BC4F3D641A143EAE
:103580002FDF2DBEBC5B30BED24E023ED5AC81BD1E
:103590000F40553DE2FB473DF8E74EBE6B7E8DBDCB
:1035A000DDEEC1BDD6921BBEB72BAC3C820FBF3D3A
:1035B0002E486CBDFE8254BE2C3A9438287150BD02
:1035C000534B633DE0A255BD8F9E063C139EB9BC94
:1035D000C8A42F3C6B894ABDE1F4663C2212BB3D76
:1035E000E8FD373B267B643D3038DABCFEE9503ECF
:1035F0003F8CDDBD6E3BF13C5B15EB3E497E4B3DA8
:103600002B5823BD1E95743E036FE03D007197BD9E
:10361000C38525BE5C209A3E55341FBEB71024BE1C
:10362000AC67B0BD12FD79BDCCA9B7393E50563D4F
:10363000E473713DD508BDBD23C6C6BCEC8B223DED
:103640007D8635BEC061E33CCE04913D196849BE1C
:1036500079A6953C64BD5ABDCCBBE1BD602ED63D7C
:1036600038A114BD3D70CEBD452D113CF476543DBE
:1036700068AA1ABEEFC61DBCB9B3163EB2E761BB5D
:10368000AA3EDF3C4278F03D0B5D853D29D0C6BBAC
:1036900032AB8CBD5471A33B4B117E3DB278993D4A
:1036A0000C65383EA0D993BDF254FCBD092B923E67
:1036B000CCF4263D3F725DBC2A94633E6583A83DF1
:1036C000CEF5B93D7311CBBD3D31713EDD6E15BEFA
:1036D000B93700BE92F535BE66B1943C24ECEC3DA2
:1036E000E6B5523D91F6A63BF9A23CBEF67FA4BDDD
:1036F000D73D9B3B3EA821BEECD91ABC500930BD3A
:10370000A12056BEA47215BEC99F54BDA7752ABE7E
:10371000FA1A71BD6CCB43BD253A95BD02540EBE5D
:10372000B3BD15BC79AA0EBE31CBABBDABC8913DC4
:1037300068F3B1BD0669BEBCBB90393EB1B8A8BC48
:103740009FCC7D3D8A0A7D3DBB6B9F3D00B9F03C1F
:103750003C2C0E3DBF12583E430B1EBEEC241F3DB9
:103760003ABBE13ED8349F3D3DE1EDBDF9ED8C3EE5
:10377000B216693EF708B93D4B98CCBD7B3F163E6B
:10378000D55D44BDBA5CD9BD704721BEE999A13D64
:103790007367E73C4BA86CBD63AA2FBAC2BA88BE58
:1037A000BE3835BE6F3A3A3DD5D761BE674792BD48
:1037B000868D613CA2FAB3BE72B406BDF0961ABE05
:1037C000B1C293BD735BAFBD5F7397BD11BD18BE32
:1037D0000ACD66BE062CA53D43D3DCBD6CF13DBDD4
:1037E0001DA5443E2FFB4CBBCD708C3DCE8A643E64
:1037F00060A5173CE92FA63CA801D4BC2EF8083ED2
:1038000082B6DC3D5C4C483DC062673E775FF7BDE9
:103810000000DBBC32D0EB3E6633913D93CB14BE4F
:10382000E042A53EB71C2B3EFE58A03C1C2B0FBE11
:10383000C552A33D81EB2FBD8CC8DA3C4C808BBDBB
:10384000BD7ADBBB3BE0483D52FF7E3E8A0A0C3E20
:103850005D3578BDA43D11BC8BE6353E85B36B3D2F
:103860001E41463DF412C9BD8554883CA8F48A3DEA
:1038700008C4A9BDC120CB3DFFD0DD3D168AC6BD21
:1038800034F092BC3EB33EBE0F8005BDBEB0F1BB6E
:103890008613003E99E0F83D43A137BD60AB933DF0
:1038A000D0F0993D2182EB3D2ADAE73C2000843DAF
:1038B000559C903C3349813D815A0A3D72FE933DAF
:1038C000A3E48B3D9885E0BDA1C1D03CA7B83DBE27
:1038D000B4F720BEB86CE2BC53DF93BD230DCCBA65
:1038E000B8DAE43C25611F3CA8E3913D1B08073E84
:1038F000E6C46A3DDF0548BEC79B073D8388E03DBF
:10390000D8E6833DA919BBBCB76DC83D835A233D9A
:103910000BA188BCD873D93DE8ABDEBD7F3677BD3F
:10392000FFC79E3B5EE4BDBD83AA71BDC8035C3D7D
:10393000431AF3BD4D52013EA86E54BD10F314BEA0
:10394000320F00BEE43AD13C0DCC543EE15AAF3DBB
:103950008591793D31A80D3EFCDCA5BC7B8E333DC5
:1039600045D529BD5EFF21BE84D17DBC22156A3CB0
:10397000A9F483BDB1C0653D13CBBDBD0A44EB3B8B
:1039800047B91CBE353CADBC73539ABD6BCA02BE71
:10399000C8ED733C5D2309BDDD138F3D0B9CB33A2D
:1039A0006D56D03D405EF4BD93B89ABDF2F6CEBDE3
:1039B0004D09E13CC64E093EB640F7BCCFC6B13B0F
:1039C0005607C23DB5B2D13C5E680D3E244915BED6
:1039D000FED1ECBD6C4D8ABCDF35E8BC6BA72A3A42
:1039E000AAEDBE3DD0E71DBED645C2BD903F91BDFC
:1039F0002065E1BDCEDC053D1F67153D6778883E3B
:103A0000400FCBBDFFE4DBBC1ACE473ED76D7B3DFC
:103A10006F0B3ABC24B59B3BBE4390BC664BA03DAC
:103A2000CBC0D23B2D06D2B94D8351BD4ABF8ABD12
:103A30008F486ABDA27E3ABEDD04F2BD3174E7BD97
:103A40005B9D12BE5939E83DA8D5D3B99BFD063E12
:103A50003409253C4225A13C2C7CA2BDE94476BD1D
:103A60002D5655BC13BE263EA882843EF184BABDB5
:103A7000E5B6E53D4E776D3EA80F043EC558CE3DF8
:103A8000894FF93B55662EBE318A803C2D430B3D54
:103A9000FE56E73DC81BCCBC81C11E3B7A7A533D24
:103AA0000B4C18BDF96D54BE31C5293D60990BBD55
:103AB00059BAA23E03B0B7BCC4B2BE3D85E7883E4A
:103AC000C81704BCEEF6B43DBE91AABD7F31A6BDB9
:103AD0003D52E93CD768A83CF771B8BDD86459BDE0
:103AE0004BE8DABC0DC410BED86884BC4DAE25BE10
:103AF0006CC2483DD7A2AFBD7E43FD3D17AF0EBDA2
:103B00001139833DC9AEFCBB05B468BD5F3A7ABECE
:103B1000BB9B9FBD9E71F33DC1978B3DCEA9063ED9
:103B2000CAEF77BD4B8B943DA309AD3E21BDEB3D64
:103B300046E9213EF026513E9F4C18BEAE06983C09
:103B400087F9F33C2DDF8B3DD2F38FBD4A22033E34
:103B5000E3811DBDDAEB293D9D7F49BD14C5ECBD58
:103B6000363C143CBBE7AA3E9CE8BDBAFF4BE33DA4
:103B70007BE4743E28322ABDD18B433E088A15BDB2
:103B8000928FEEBD15298FBB4D01AD3D4F7B02BE1F
:103B90000B570BBE77FB93BD9636D2BD98E324BE80
:103BA0004733B7BD9921A23BF16314BEC1F7523E22
:103BB00024D8173E01F3873EB4A0883D55A342BDEB
:103BC000C80621BE6C1FBEBCFEFDDDBDF48D953D5B
:103BD000C0600FBE4E210F3DF6A887BC38F3333DC1
:103BE0003580D5BD81E2AEBCE47C10BE394BAFBDA3
:103BF000DC7EC13CBBAC5A3D3CA3ABBD82927EBDDA
:103C0000044B44BC0EDA363D75CA7BBCC6511BBCA6
:103C1000449055BD8C2BB93D65E737BD3352B9BDD6
:103C200085233B3DF00ACABD82E4EDBD628A03BD37
:103C30000556C6BD31B5A3BC9D22373C325B973DCE
:103C400061732A3C83CA843D6494273D65EC47BC7C
:103C5000452FD9BB968154BDADE8ABBB9D8BD73DFD
:103C6000231515BD1B5108BD17C338BD62A03EBD4D
:103C700006A721BDE2B2C8BD36D9B7BDF7337F3D37
:103C80006FDC21BD907184BD2AA0003D8B2A63BDED
:103C90006332B0BD47F7FEBDE4B9B6BDBB1497BDF6
:103CA0003246F9BD9C6E993DF29A4E3C3A46D53C5F
:103CB000759BDD3BDD86513DF6E28BBB710C923C82
:103CC00065B796BDF65BA23CD8BCB63CC32C7EBBA8
:103CD0005BF0863DC915B4BD80EE58BD65588ABD00
:103CE0002F9605BE94D90CBEB244DABDCAD1F13CC0
:103CF0007A00A3BDD2BDD5BDB80700BDD896D0BD52
:103D00001CEFD3BD45C3AEBB88D24FBCD1F3793DC8
:103D1000606D303DACB80ABD7CFD62BD82CAE9BDB4
:103D2000FB770BBE6B56A5BDDE811C3D218994BD82
:103D3000B17D1EBEC28224BD2E388EBCE45C31BE75
:103D4000AA16F5BDC4B943BDB8FB12BE096E92BD3B
:103D50005A748C3C1D8B03BDAB47E2BD277F4BBC27
:103D6000D5C5BCBDEC5A90BCF12BDFBC5BC2F5BD28
:103D7000AE7B853C7207B5BCB797E6BCF206E4BDE6
:103D80006C8932BD2087EFBD32630ABED54030BE9C
:103D9000F54B1CBE013EC4BD4B021EBEEC34D3BD70
:103DA0007E8004BD026F4FBE919A0FBE1DED2ABEEC
:103DB000599964BE0FC55FBEADFC4FBE9939D1BCE9
:103DC000C17115BD278D27BEE8F2A9BC795471BD1C
:103DD000C6F007BC8F3A35BEC9B419BEB20509BEDC
:103DE0004DCFE0BB5E9FB73D81ED1C3CD1A314BE1F
:103DF000CF89763EC2A4993B8CE722BEE5C6BB3D87
:103E00008DE2193C4ABE383C06C9753EC252C13DDE
:103E1000EC82EBBDEA7535BD2EFD9C3D4E5B613DF0
:103E2000E1034B3E4455533D6F3170BE5D189BBD61
:103E3000BF9DD13B50CE20BE163F253E2616093EE3
:103E4000B952AF3B2024C2BD031D133E5D7E03BEAD
:103E5000D26FA83D1AA66A3D89495EBD5B8E43BEFE
:103E6000FABBCA3EC92CE8BDB15404BE051C5B3E7A
:103E70006EB61B3D217473BE2519973E6E1316BE98
:103E80005736B73D049B1FBDA0C15BBE2437C1BDE3
:103E9000485EF3BD08D07F3D1C9C133E393F49BEB0
:103EA000350972BE47FE9C3EC3A84CBDF1EC12BE64
:103EB00064AB163E86788BBE928AFA3C3CAEDA3D05
:103EC000D0633CBDEB62A7BDA7F130BDE86C8EBDF1
:103ED0001C80A53CDE3F203E5067CB3C3E09B0BC79
:103EE0001F8AA13C06E16FBDDDB8C6BD4EE3703E42
:103EF00053D1CCBD645F4FBB1EDA95BDF405B13D17
:103F0000B754D4BD4982143ECE106BBC538AB73D22
:103F1000150438BE802C3B3E3EFD27BD9A5BB1BDEB
:103F20004706673C7B62933D1BE88CBE0F686C3E86
:103F30003BDDA93C3D10183E52EA843E1409C1BE47
:103F40000ACF263EFE2AE03C53AF473D7FE1EA3CE4
:103F500061E336BCED7430BE787DAE3DA9DBBE3B7F
:103F6000352210BC379F89BEBACC91BD31DA16BE5E
:103F70008014323E46A63D3D3873A4BCB5C7F3BE9F
:103F80002AA8CA3D3D787DBCB115B33D3C79863E3B
:103F9000F5D4103EA486D0BE8CB087BCC2638DBD64
:103FA000876320BDFAE5973D70EE0DBED11E2C3D16
:103FB00056F0573CFE0F07BE2E0F9BBCE9A4533DA5
:103FC0002136B2BDBD69AEBC4FEB1FBEB4DFDBBD59
:103FD0001C0D313C4298063E2E99343D36BA053EC2
:103FE0008CE5093EF2D957BB3C1479BE836C813D08
:103FF000AD45B73D6952AA3CD33D9ABDDC4B28BDC7
:1040000050E1EC3C13D21DBD23F136BE27793E3C76
:1040100009C99B3DC4EF09BEBE95DDBE6D6FC83BAF
:10402000F89873BCCE1100BD58A7423CFE04693C11
:104030005CB6E7BE4A47943DE43242BC2EA8E33B5F
:10404000028F453E1531843E44A1BDBD0913EEBD2E
:10405000CE15B8BDAFD78C3DDF45E93C6311033DBC
:10406000DD7088BDDA64CA3C9D1C4C3D283720BEFB
:104070008C47B93D5E5A3EBD63CBB23D66F383BD0E
:104080008924AC3AA8D65A3DF4BC5E3E5F6DF63C3E
:1040900066226A3EE9CACD3D7A7EBF3CB7D221BED8
:1040A000D8D2EFBC167CC63C1FCEAABDBF4FEABD1E
:1040B000E13EF53D331336BDD14B5FBC3076DDBDFF
:1040C000E5609EBD4349983D35114C3D16D2F4BE86
:1040D0008543D03C7C1625BE738842BEB8C330BE33
:1040E0008EF2C03D7E21A9BE11F2FEBDA0BC1BBB5D
:1040F0001D67E6BD12F2153E3FEE7F3E1DD70FBD98
:10410000AAFFD4BDD9BE253DBBFA17BE0A1764BDB0
:10411000E3A536BD8289B2BD54590A3E62FA3E3DDE
:10412000706989BDE5FF883DEF64823CA0A5823DB2
:10413000B38BEBBB6045203A8CCC0E3EA3DE373E02
:10414000274123BCC8048A3E49DD683D162A27BEA4
:104150004A1F82BE21A219BDBDCB13B930FDA1BD3E
:104160007165073CE1D1533DA9838F3C383105BDD2
:10417000AE80CDBD77E615BD53A5243DAE6BE83BC3
:104180001FDC90BEEAFC493C9637EB3C2BE91ABE9B
:10419000456058BD6F50E63D040DAABEE43231BE05
:1041A0002839243D98FA0FBEBFD2183DB815A13E5C
:1041B0005C6F5F3D5F620CBDCC410D3DF4E6CBBD55
:1041C0006B016CBD88C5D43BCBAE9ABD78D3113D95
:1041D000A995A3BD39B54B3E310FBD3D7371003D6F
:1041E000113F0FBB02963BBB8BBC5A3D2B32303E7E
:1041F000782A473DA9A60F3DFBF59D3E80D9563E46
:1042000028F42DBEA318C3BD6D010BBE82290DBEBF
:104210000033D4BD178DDDBC0791FCBDB99F373D80
:10422000DDE39DBC499D0DBE249568BE1B1BC83DAA
:10423000F4B89ABDE35105BE9CC0623D501A83BDDF
:10424000B0E098BE503664BE492C1C3EC92386BDE2
:10425000AE1CF3BB4259553EF6947CBD1EA6DD3B19
:104260007CDAC63EDD76003D0520EABD6BDFC03D51
:10427000162A65BE5139673DAE2B023E561FBCBDA6
:10428000C60CB53DEC57CBBD67C20D3D5445DF3C78
:10429000DD8013BED7FA0A3EB9C025BDCD98A73D33
:1042A000D541433EC1ECA03D68CBC63D29CE823E00
:1042B0009E3E883EE0FEF1BC7BFF80BD7B43BABEE4
:1042C00023AB55BE45C1F3BC55619BBB1415253DC1
:1042D000E3C3ADBD7B0504BDD89701BB03D0C3BD0F
:1042E000C24AC23D637D8E3D2B7A8E3DF4D7BBBD65
:1042F000AB414CBDD7A89D3D23A1C8BB92A83D3C76
:1043000080AF143DBC6B4EBD0F5C5D3DBB757ABD8F
:1043100085EFB8BDE0C4A0BC5AC8A2BD46ECDCBD68
:104320003CEAB93B586FE0BDFAD5C6BC7012ADBDD2
:10433000FE748BBC3D8D35BD9A86AA3D2551F8BCD7
:10434000FD047FBD9F749D3C9B2EC0BD2C285EBD8F
:10435000973ACFBD3BAC963DD25B7F3DDF80CCBD75
:104360001C88B23C09EA62BD51103EBD92A4543D86
:10437000825EC3BC10D3643D1B46AE3DCC85A13DDF
:1043800053E3BA3DD86E9BBD608980BDFE063B3DC0
:104390005262513D7A701FBD70DD753D56B5843D4A
:1043A0005B8C9ABD8B080C3D74765A3D2CE8B13D70
:1043B000909A3C3DE3052D3D086AC33D8A3CFE3C96
:1043C000C93013BDB443803D4A5B233B85604BBC81
:1043D000D933D5BD90F684BDB98E633D9A3D3BBDC2
:1043E00006D49ABDEB85A73DE03F0BBB21C3D8BDEA
:1043F000C40C64BD36BAA2BC975FB73C84CA513DB9
:10440000B77DA4BC85A653BD0546993D972417BC2E
:10441000E6DD77BD0284813D887F7DBDAEE355BD7D
:1044200070F871BDADF368BD0A38E5BB9AFBE3BD1A
:104430006D08AD3DF07BA03C244E60BD9FFD923DDC
:10444000414A9CBDB939133D3719083D64723CBCE3
:104450003B16D3BC3379833C2D8ABFBDE2E2883D55
:10446000EC987BBC9C8535BD90C621BD7EE69FBD8A
:1044700002559FBC3DF3C3BD24376F395D0FD7BDD7
:10448000889C98BC4277A53CF0C3A4BD27EDB3BA85
:10449000440F9EBCCED8C03CD45E1C3DD150C4BDA0
:1044A0006BF6B03D8738A4BD631C0C3CE83FABBD48
:1044B0004DACFA3CCED2CCBDD27BF43C9BCAAE3DD7
:1044C000C8FE86BCF315C2BD12CCAA3DABC0FFBB73
:1044D000DB7C76BDB11024BD5BE2893D6A12C53D2F
:1044E00061991FBD0571EABC821423BC4A1F963C2A
:1044F0004D57E3BD23A74BBDE7AA9DBD00259F3DBA
:10450000C23080BD1821503A262BBABDEC84CA3D7A
:10451000690DC3BD227CB3BD8A3C9BBD9326FBBC09
:10452000DC39D6BD950810BD14DDABBD5D16AE3DC2
:104530003E3CD8BDDD0AA13D9273F5BCCC7D483D23
:10454000049A583D3B85473C66EC85BD0443EEBC70
:10455000D9F0973C6F24033DBDF341BD7C3EA7BD20
:10456000AB41E1BCB8D8A2BDD1B8B2BCD7A6D6BDCC
:10457000F4F81DBD9882B83D0996A03D1AF3F33CAE
:10458000EFBC2C3DCA4BB43C8D7CC13D54444E3DE8
:1045900076B92D3DBD561D3C727DA5BD5ACD1DBDC4
:1045A000E1EF61BD38D500BD93AF933BE5D0C1BD10
:1045B000AEC27E3C9518CE3C502567BDAD8FB13C58
:1045C000891546BDDB7DB43DD2679BBD87E6E43CE3
:1045D0003D70273B45AB0EBC2925DABDF23D16BC2C
:1045E000E29A06BDFDC8A73D849952BD8CAAD43B72
:1045F0004E0EDCBDC11085BC823314BD2F9AB93D6F
:10460000B25E4D3B7A42B03CF4F7633BAB04AA3D4B
:104610009E0F9CBDCAA45DBD04D2393D7FEB043C16
:10462000534121BDD63DE4BDD69AA1BB570487BDF9
:1046300037A4BBBCC8D4EDBD5E9F1F3DDC368A3DB0
:1046400098A3AABD7EDEE73CBCED433CE83D9F3D20
:10465000B5A54C3EBD2C30BDB16454BC5009443EA0
:10466000AD450E3D4645023E5E786D3C2C9309BE3D
:104670009E87DABC51C0C33D8FB03DBC428035BE81
:104680003E68B13DF6EAE83CF496B13DE1E23BBD5F
:1046900023A28A3CE8491F3E039936BEFC5DB73D24
:1046A0002C4F933CF73725BBFA2958BE42FEF4BD88
:1046B000C41508BE9403DCBC1895BABC970A2CBE7E
:1046C000A52B0CBDF9CE083EEBC486BD3DF81B3EC4
:1046D0003B142FBDA606A93D8D2882BDDE18B33D33
:1046E0002C35303E1AB5693E1690CB3DA6576C3E30
:1046F0009C7C333D0F9E07BF4D1721BEA6F1CEBD5A
:10470000DCE8E9BD2730503E2694123E73810CBD93
:104710008CE1233E8A3E03BDA670013E6BDA263E45
:10472000548DA6BD09ADA2BDBE581F3E127755BD22
:10473000B5C620BEF63B923C814C2E3C7872FF3DC4
:1047400011B3CCBD63E2B13DD319A2BB40D5D4BDFA
:10475000CCFB7EBD7FF2263E91C7E1BD4D5ED2BD52
:10476000BDFF1FBD803B963C596AC03CD39C073EB1
:10477000B4BF26BE09F18B3D99053C3E9152973C52
:104780009962863D09EB8E3D734DA93D198D943D8F
:10479000466C803C070ADD3DE7A0EB3D2D70E13D16
:1047A000F8FD773EF1E48ABD9DC9E4BEB654313CC4
:1047B0002EA3E3BD93DCD9BDD9B5E43D6D6DF3BB4C
:1047C0009C5239BD160A693DC06904BE2889153D51
:1047D000C6C89C3D466FC6BC630819BDF23B623D2E
:1047E000ED50FBBD37B71DBE5BC5BDBDFDAFA2BD66
:1047F0001010E8BCBA88C8BDBA60263D54AEF33D7F
:10480000983167BD5FF59E3D525F863DE8BB5DBD5B
:1048100035A251BEBC26E2BD87260EBDEC02C9BD45
:10482000ABC7093D8247AFBD77806DBD94B3263ECF
:1048300026E3CFBDD4C5983D2F80A73DDF85903DB1
:104840006F10CB3DFE84B53D6BC7283EF6EB163EA0
:1048500057346F3DF103AD3D3DECA93D15650CBFEF
:1048600087D029BE24E5CF3B9CD8C2BDE487443E17
:1048700058B1113E738EBCBDE641053EE6A722BE8F
:10488000C7E6FB3DA4F9C2BD3F89353D720D23BE8D
:10489000A2D3BC3DC1FC4EBEBD4FA6BD471FD33CFD
:1048A000C11ECC3D7F494EBD8BC703BE416C163C3B
:1048B000A1E261BC787856BEBDE57A3D97CBB63DA6
:1048C000DA8FDDBD56FDEFBD4ECEF93C749036BE9D
:1048D000FFB4C9BD472B82BD32DD61BD45A20ABD13
:1048E00008571A3EC3F29EBDE598E53D32E66D3DA0
:1048F000472A4A3E8E146ABDEB4B5C3E894C0E3E05
:104900009352003E63706B3EDCDDC43DB1F3A4BD49
:104910008E58E9BE460E0EBD45BEECBDC04F24BE4E
:10492000527C163C2B88E73D9F4EE83C76D8AC3C49
:10493000030BA7BD759D493EE3448DBD410D42BCAF
:10494000D77CCCBDC8F03DBD5B4DCFBD2F49BABDB6
:10495000397AF2BB46598A3DD70374BD3FC490BE35
:10496000ADA8F0BD02DFE43D62343FBE532CD83D1C
:104970007D47203E938F3FBE9EE64CBEB26C2D3DE0
:104980008CDA32BE8D6A00BE8C43B53D56BDB3BDD8
:10499000042B18BD9863573EF134FFBD02281DBC9F
:1049A000090BA33DC932573EA5C0E93D25838E3E84
:1049B000D641303E2C834B3E2DC6843E91049C3B19
:1049C00099DFE3BB7802ECBE6E0C9ABD3C3BF2BDB6
:1049D000579FD9BD96C07B3C7B28403CDEA18ABD59
:1049E0003F6E033E2A2E18BDBBDFF03DEF23613E34
:1049F000639250BDCF6452BD9F2ED9BD2544243D46
:104A00002CCC883D2A0D563D8A29F2BCA9B537BD6C
:104A1000003005BE791F45BD423017BE950145BC2B
:104A2000EC7D8ABD5AED95BD3563643D5F295C3DE3
:104A3000BCB5873D502D903D263D76BC524E113D74
:104A400051CFC7BDCF9D95BDC7FB683DC75810BEB0
:104A5000EF3C86BD4E470EBEDF1E15BEF4FEA63DE2
:104A6000190089BC87EF3FBE46D4363D8F1CA0BDE0
:104A70005338483CA23D583CE033013D7A3C0B3E64
:104A80009AEF673E42EB793E94521A3D0CB9773D5E
:104A900069C2E8BD4C3D0D3E6CE440BDB3A64D3C43
:104AA0004B9C623E62770DBD33952F3D7CD77D3D9B
:104AB0007285033D9175ACBD63C1AF3D150473BDF7
:104AC0006398CA3C6556ECBDD3E786BD8241813D03
:104AD000B28D35BDE54B243BE2055ABDA05CB83D27
:104AE000AFA9AA3CD497653DA880203E12E974BDC9
:104AF00084B34DBC79400FBE73AA83BD182D0DBC85
:104B0000036560BDC9EF8B3C3812A5BDE360EBBD0A
:104B1000FC37623D950754BC1F82B1BDD8BE3B3EF9
:104B2000B4DC90BD0D0AC03DB2EB9CBD3B98B4BD5A
:104B30008023E6BB44EA0C3E7C4AE63D905500BE2D
:104B4000F22FDFBC791C5FBC02B2F93D103D9CBD69
:104B5000C2D70C3EB4CD2A3E7DF6D93C091BE7BD39
:104B600022F8F63D2C7FD83DEA16893DC60E8F3DD2
:104B7000DC4BF0BC9B1C3B3CBA0B913ABC41CB3D9F
:104B8000D8980CBD71B3A73D243DBE3DF94325BD6A
:104B90002B68083E50F8403CEDB28A3C534C8A3DAD
:104BA000724409BDC395DFBCC72D3DBE7E6888BD7C
:104BB0001A4A193D71964FBE66D213BD681C543D0A
:104BC0008D9B17BED33F5E3E410E613DCC1780BD2D
:104BD000E7975C3E6FF1873DFA0A7B3D497CBBBCA1
:104BE0000A5D06BE17C1FA3D3E8D443E55B6563E9F
:104BF00064E0F53C264895BDFFD433BDB3853D3D0B
:104C0000A805BABD69F8CDBC0494573EA526223D3F
:104C100011333ABD962B7F3D876BA23D8A772CBD21
:104C2000A28B603DB978233DB0839EBC90313BBEE2
:104C3000A59A2FBC068D65BDB77DC2BDFD8D863D95
:104C4000B4702EBB871B963DD75FA2BCAA79C63C29
:104C500086221BB9D1BD92BDB588E53CFF967BBECF
:104C60009D35A6BC404FF8BBDE502EBE54A535BCCA
:104C70009EF28BBD7ED035BEBCEF743ED14020BDD0
:104C80000C878EBED1176D3D6168063D981660BDDC
:104C9000286502BE3CE73CBD60A9B73D1759923E6E
:104CA0000F299B3EACCF02BE7206D9BD5079203D84
:104CB000E02BAA3D73BD663D85000F3D951C843DEC
:104CC0007320D73BD974B93C6DA033BD1633CBBC30
:104CD000A70794BD2ED89B3DA74666BCABA695BD45
:104CE0001506ECBDC69EA5BDE9DF01BEEDC38A3B3E
:104CF0001EDF14BEA19CBDBCF50CE63D3A70BFBDE5
:104D0000750D243D43DEACBC159EF5BD792BD3BC9F
:104D1000C58D5ABECF8025BD242A8DBD96BC8CBEC4
:104D2000CD75923C74D0453CB74340BE2EF4453E11
:104D3000D41AE7BD648134BE2E3E8B3D42E890BD5F
:104D40001F1B813CB368C4BD75BE5EBEF2E7363E34
:104D5000EACAB93E0AFE763E86BCDBBDB9A0BABD42
:104D6000132C493D8BFF86BD381A25BE61A704BDB3
:104D7000CE3B143E13D6283D83B56ABE661C7BBD70
:104D8000F85BA2BE1D9C23BEB6C100BE298E6D3E3F
:104D9000CA9497BD7F975DBED893BBBEAAD65FBEAF
:104DA0007D0A1ABEDB102B3D9BAAB7BD67F1AE3C56
:104DB000A872CF394B6C84BA16A912BD0EBC013E45
:104DC00080722E3D3C1845BDD114E13B107D933BD4
:104DD000E8022BBD1E53B2BD69DD463EBE2CD43B5E
:104DE00049AB1CBE3D9BF9BD027B313D4459823D20
:104DF000F14B8FBD80DCB8BD4021A3BD413C373DA8
:104E0000FDDF0CBD3BFFF43D8D8CBF3D4A3AC7BC76
:104E1000D7F2C9BC5EB291BDD492D93D091E67BD1F
:104E20001BCCEB3D3D461C3E2A96613EDD15E73C22
:104E300049FB17BDC2F1AEBE8EA705BE580F223D7D
:104E4000897B493D7D3A153ED9124CBEF776B9BEF5
:104E50003C23C1BC12B120BE041B2E3C562E94BC78
:104E6000FD9C64BC79A74E3D2A863F3D2FC5D03DB1
:104E7000673F213E368B54BDAEF7E2BC8BED003C64
:104E80000ADD533C9362053D15E05ABC0A90803E12
:104E90003FF9DF3D592833BC16DDAB3D7E13873D1E
:104EA00072C1BE3B7B03DABBAF9E28BDB71010BDFD
:104EB000CCED463DB3C60E3C9183DF3D5506463CE6
:104EC0006A52813DF97356BEA44FBB3D5A9BB93D12
:104ED000909EA8BDD30012BDEF37233E4474D23D4F
:104EE000C4A62E3CCDAE6A3DBB5E30BE61E3073D3D
:104EF000AC1C973D4B439B3B0ABEF93D43CD39BDAE
:104F00007E7116BE9894943D19B300BE296439BED3
:104F1000E0BEAB3D022B9D3D189FD9BCBF9BDA3D47
:104F20006807113E04A4493E8ED8BCBDABD47ABDFF
:104F3000D91073BD5F688BBD2ABCA93DF4420D3DFD
:104F4000129A183EB107BA3D023FAD3CBF7EEF3D1D
:104F500077F39C3D7FC8A3BD3EC8B63D9439273E3C
:104F600013521CBDCF8DC9BCB474C13DF06F323E2D
:104F70000143203E1BF9A33DC68A69BE44C7AEBCAF
:104F8000BD214F3DE02F0BBD74DDC3BBD3A9443E13
:104F9000FB3C873D2B4E653DF996BD3DA36D94BE10
:104FA00014CD243D04D918BD284BB6BCBD3C1F3ED2
:104FB0001894A7BDA843A4BE4B596FBD210C15BEC4
:104FC00040A255BEA24EA13CBB10FDBA91F40C3ECE
:104FD000F6761A3E9F8B53BD30CB7D3E165B61BD8E
:104FE00068A2E9BD1DD4D4BD95F80B3D9622153DB0
:104FF0007C74B73CC55ED23D24189ABD7FF7A2BB36
:105000009C40283E4F5D90BD7EB1ADBCD666DE3C77
:10501000C4878D3D879306BEA7FE60BD9E992C3D3B
:10502000876C253ED258623DFE0FE33C8AE4A0BD6A
:10503000542A3FBD071A9D3C7E0D59BE29C161BC53
:1050400012D8523EFD1CD03D9761C53DA58D193D3E
:10505000E5D672BE3ED180BD648A32BDCF7294BDAA
:105060002091243EE664B0BB90E18CBE13730BBE6E
:10507000D85484BEFC6FCDBDBFB661BDDD4D08BD4B
:105080003336D33D5797853D36896CBD67CE3D3E5F
:1050900055E95FBC3D20B6BDB63F0E3D8DFCA1BDC0
:1050A00017D8143CDC1E213BE3DFCB3DDDEEB4BD65
:1050B0006F7009BED43C203E7435C2BD65C3CDBD02
:1050C0007A1117BD8065773D6D0B8ABD47FBB5BC76
:1050D0007A8E443E295F5ABCE2A7333CEC3EDCBEEC
:1050E00094C4173E291109BE49721CBECFE29CBC74
:1050F0000898A8BD8F0CF4BDF85B873D4C74BBBE0F
:105100002D5BCBBE972C2CBD5FF48B3D97EEB9BDCC
:10511000EE62413D30627FBEE4B0A13DD88F25BE36
:105120003267153E5C76363E890A11BD86B0C0BD39
:105130009D3881BE660E233DA6A3453ED04370BE7A
:1051400043FE2B3C0B6B0A3E78B2DEBD6E97D93D19
:10515000FDB48D3D66735DBDCB836F3CBD1EDF3DF1
:10516000C0598DBCE71FE33CADE18B3DF2D2AABC38
:10517000553D8FBD1CB0A83DC4D754BE9E1A673B99
:1051800049CAE1BEFF1E943D5A0FE1BDD0E06E3C1E
:1051900041B49EBE3768163DAF3240BE90DD8FBE33
:1051A000F054EDBD7D20E8BC126071BE4A3FE03D89
:1051B000D9565DBEA453C9BE3133C23C499B98BD8C
:1051C000D302F0BD0BB2CB3DD5AD88BEF59E073CFA
:1051D00021133D3DDBD8343EC16E2B3EAE2681BD52
:1051E0004BF455BE83EC8ABEE6163BBDA98A5D3EF4
:1051F000A79831BEF0F727BD392F5B3E26A9893B22
:105200007678983D76CE6D3D92B1D43C91490E3D75
:10521000BF18413E6250153C77C8053EA51233BD0C
:10522000F7860F3DCD4FB53DA1F1E93C051CC7BD4B
:105230004D976BBD9A88DEBEFC15D33D7AA6F9BDAD
:10524000EB23903C810E70BEFCA4F53CCCC978BE2B
:1052500055D23EBE0B86903D9B262F3E102B8CBE1A
:1052600010BE303E6FC31BBEE4C6CDBE312BBBBDEE
:105270005119E7BD83A596BDC9732A3E6D3A84BE18
:105280000A6B96BD8ED5AD3DA1C32F3D199CE53D62
:10529000A467C13D5830B7BD77636ABE3D9DFE3BF4
:1052A0006C113D3E46B532BE912F233ECBB64F3EEC
:1052B000CC7C023CE806673BCABEDA3DC7D1E2BB04
:1052C000ABEE843D10E59C3D38B68C3DAF90C23DC1
:1052D000B79209BE574CA53DD775053E5C8993BD75
:1052E000D8A081BEC672913DE178D5BE7BFD10BDD0
:1052F0006E0805BE4884C6BD29920CBE7C1C383E93
:10530000191648BE2045D8BCD44DF23DD2F8143E03
:105310007A41B1BEB2CB033E4C2800BE4C83A8BE3E
:105320006E719F3D297882BD7E24E2BDEBBD683E53
:1053300079EA9DBE0843BB3D09C6FB3DF7B243BEBB
:10534000E9326F3DBA04A3BB43D16CBEC9FE65BE52
:10535000EB99803DA99E58BDB07BF6BD5258BE3D2D
:105360004727AB3D8DC8A03DD60B6BBD097AF73DF5
:105370009390D03D9F57AD3D6D6EEE3D61129DBC4B
:105380000A1EEC3DE2CFB4B9D7C2363D80298C3D30
:10539000706228BE70CF67BDAC881C3E49EDC8BDA9
:1053A0001064503EF23ED13C498B4EBDA44776BEC0
:1053B0002591BE3D4014E8BCC7E113BDC96A05BED6
:1053C000EC6B403E49E694BE7D05D73D8883F0BD39
:1053D0007EB173BEF884213DB11FB9BDBE7F57BCFD
:1053E0008608363E44B6C4BE5A33113E2D831F3B59
:1053F000F0FB02BEB4950EBD028E373DC4C223BE83
:105400006B385BBEF142833CE69399BD546947BE5D
:10541000DF0FDD3DAA2432BDA1C7773D6AA4CBBD15
:105420005534DF3D98AD20BD0D1838BCC879023E1B
:10543000174CF5BCDEA0703D025725BD97E8F13C46
:105440001029EB3D6A1166BEA63350BEDEC941BDD0
:1054500038813A3E2C9B343E7A8E0EBDD19A95BD52
:105460005857083DCDC1563C2D4CD7BC3A801EBD87
:1054700047D642BD1E424EBD2AF8A9BD32A96E3D97
:105480003FF6773DBACC98BCD398ED3AE63F533D12
:10549000B1E55DBDF1D7953C04086A3D4E49B93B85
:1054A000DBD6103D314FACBDBD411FBDBF23C6BDD6
:1054B000EDCCB23DAE5D36BD4FCB023D455CA83D67
:1054C000AE859EBC10A4253BE024B9BDDDE592BDB0
:1054D00002882F3DF54285BD09C6B039DF87B8BDCA
:1054E0006A8F44BD293E86BD65CFABBCD1D533BDE7
:1054F0005D64913DF415C0BD6FC1D7BC47BBA6BD6F
:105500005D6C5FBD49FD073DD0872D3C3CC36C3CC5
:10551000C15FAC3C21FF5D3C970DE3BDD4F88C3DF1
:105520003331353C2FA6923D1971F4BC987793BD69
:10553000991387BDEDDCBA3DF72864BD47CA943C9A
:105540000A88A23D749A32BDC9542ABD6E77C3BC85
:1055500045C01DBDEB31A13D686CA53D49B0473D3F
:10556000D1FBC7BDFAD3DEBDF06AF4BD8E0373BDB7
:10557000A54CD0BD744F963D955F33BD62F67FBD9F
:105580001A95BDBD5F70683D529EF5BD14990EBC65
:10559000E0AA8F3D50C0EFBD15B9433D860E2ABD30
:1055A000075888BD897710BD6DE84B3DC3B6E33C15
:1055B0009B253BBDCF26F7BDE79F66BB43F6F1BDFC
:1055C0006728C73C61698F3CE29DB53C2A2606BE30
:1055D00059BA8A3BD792633D3AAD40BC8F6F97BCB6
:1055E000CCBA853DF8C7943DAE8D4FBD67E849BB49
:1055F0004C59F7BD291BAE3B53D486BD512E7DBD02
:105600006938453DBA5CFF3C23DD7FBD2ED6A7BC83
:105610004D3E0FBD0E4BD2BC1B43DBBCD282CA3CFD
:1056200095B18C3D98E49F3D608704BC23FAB4BDDE
:10563000D6B3C9BD7E9DE3BD5E34CE3C1B91AFBCED
:1056400010507E3DD60001BE3063CBBD3E212BBD48
:105650004E445F3DB312973DA0F3933D2280263D1B
:10566000D79E52BC881118BDDD4EA13C0D2E0A3DBF
:1056700092B83D3D6E88933D626F233BAADE923C1B
:10568000672DF1BC85267E3DD28C443C5892363D38
:105690000E076FBD780DCEBD7D0CCB3B8177D7BD9E
:1056A000933DE0BDDECAEC3B90E771BD0329AEBD82
:1056B0001EFC71BCC5D2DF3BB95BF2BDC883A5BD82
:1056C0000FF5E2BDFAD68EBC356BB53CBC509B3DA8
:1056D000278E743DCEBE00BEE0E287BAC36BC5BD67
:1056E0005137C3BDDABABD3C9508933DDB568ABC41
:1056F00071A9B0BD5B91733D06B58EBCBF2C0ABDD0
:10570000A086FCBDC5C08F3DC9378E3D1FA9D0BB4B
:105710000CE7A53CDED2893D5225A8BD6471333D1E
:1057200036A4FF3C362530BD2E1F44BD35B6E5BD41
:1057300040B797BDAC6FD5BD6A3CA2BDD02206BDB7
:105740008444B2BD995E443DFDDD00BEA0D723BEBA
:105750004E62B93BCE8FDABCB7BE37BD895B513DD7
:10576000A673B53DB877A0BD538EB2BDBB764D3C98
:105770008C247BBD43750C3E45279B3D4D5964BD34
:10578000A3300C3D6B7D263D4960F83A48EA90BD58
:105790004DF81ABD26F80BBEA9BB11BE6BBF723DFA
:1057A000412A0ABEDBEACEBD671C503DBF06163C4F
:1057B000800CBCBD60AF973B2B58E4BDC742BFBD5A
:1057C000A169C0BB1C5916BD11D4083DC83CA5BD7C
:1057D0007B75BBBDB57B94BCF5E937BDD371D4BD3A
:1057E000BD43BA3DAFEA0BBBF6AE1ABDD2792B3C36
:1057F000248D0BBDDE18763AE16BE2BDB73A453D2C
:105800008B61C23C7938853D8575DCBD8E8D193D37
:105810008C259EBD3A6F14BDCBF53CBCFCF3C33C5C
:1058200027EC793C11785E3D50407B3999B99E3D1B
:1058300063B4353D055A3FBBF9F5B43DC526583C28
:10584000973ED53CE474B3BA01B4993D219C80BC29
:105850002CB50EBDAB7BC6BD6452933DB94497BD1C
:105860006B8C54BC334E4B3D0E40DABDD726673DA2
:1058700087EF3D3DB0020CBC633D533DAAE102BD44
:10588000B508BA3D8550983DFF24A63DA1B0CFBBD9
:1058900030EDC3BD92DC843B4CF5ACBDA639663D12
:1058A00055CE973CBF39253DC790DCBD721F97BDD3
:1058B000D76AC83B1543633C5E39C7BDC2BCAF3B2A
:1058C000BA3F9ABDB34809BD9B43C83B838DC6BD53
:1058D00076BC99BDACAD853DB581993DBA7B133D94
:1058E000087C27BD2C819EBD64EFB7BDDC1ECBBDFF
:1058F000FBB7A53D277211BC2B95533D6B8B3B3DF0
:105900006980823D64F9D6BDCF9EA23D45F1B63C8B
:10591000D10F7E3CC440D9BDDAB72ABD9D65C6BC57
:105920005FFE8B3D0AB3913D2BC9C5BCDDA33BBDDA
:10593000ECD972BAB562763D44D162BCEDFC41BD92
:10594000F1BD333C8F7E0DBD82A3E53B2409A8BD8C
:10595000FA97B6BC0F7EE83B928386BD6226843DF3
:10596000E27C56BD1F03523D12A035BD75FEC2BD7F
:10597000B00E7E3DF27C52BBA1E9713D9DBEBFBD24
:10598000049B0C3D4D6957BDE54973BD1E6CDFBDE1
:1059900061CA83BDD488E5BD3DD9A13BCAE4BB3D06
:1059A000872CE23B96E08BBD5355AB3DD109DEBD64
:1059B000280B8F3DB151E9BD3D98B43DF8828B3D38
:1059C000713AE2BA657A5ABD885CB2BDC6D2C6BD2C
:1059D00022BF673D2322DEBC99A7E9BDB0968E3D6C
:1059E000B72F763DDA5515BD13984E3D8EB036BDB6
:1059F00028EC32BCE0E0BEBD18D6BC3D8D6C513DFC
:105A0000EB915A3DE36986BD13E5D8BDD92B52BD54
:105A10003312843DF5204C3D0C999B3DEE0B8BBA27
:105A2000A91F08BD8CB6093DCE4E90BD02B3F93C0E
:105A3000DEFBA8BDBFF092BD79553FBDC1B4FD3BB3
:105A400098C05D3C156FD1BD8EBB35BC58E0CEBD56
:105A50003BEC95BD1216AC3D0093D13C84B1803D2A
:105A6000F5EAD0BDF8688BBD7435A7BD114D633C18
:105A7000374DFE3BFF94003D49C16E3D4BFD2C3D33
:105A80000FBDCDBD3C90283D0521CDBD608F3FBDF4
:105A900046EE8D3DA4308CBDC41DDFBC1D675B3C54
:105AA0004B9F663CEF9735BDE54E3EBDF1456BBC67
:105AB000662D82BD61B434BD2FB0B6BC20C2D4BD4A
:105AC00000C7953D772FD4BD02198E3D29ED99BDB4
:105AD0001B616BBCC843AABCB0368D3D29BEDEBB82
