:02000004706822
:10000000C2CA2B3E7CBC903D39F2E8BD44AAD4BDA7
:100010000C46FBBC6CAE663D5C4A94BDBC852A3D7B
:10002000A00810BD3CAE02BDC93B84BD81A3083E03
:1000300038BE98BB5DDCA6BD5D1A433C72CAE33C8A
:1000400068E9C938D879413E53EC223E6A4D82BDF9
:1000500018DE653D9019DEBD54B523BC9DF423BC6C
:100060002D1340BD6945F6BC1BE3AA3D8ACF4B3D2D
:1000700030091E3E47D6F63D71F1C13DDC4D2CBD29
:10008000465DC2BB80201B3E86C8EC3DEF69C1BC0B
:1000900077341E3E02A0173E86EFA9BC4A1A73BDF4
:1000A00081FA19BCA53C0C3EA107B2BD14119E3AC1
:1000B0006E7A35BDAE1E62BDE583393DEF8DF93CEC
:1000C000DA8ED7BC8167CCBDF522943D91C5363C14
:1000D00047D88EBDD7C9853D4B194CBD029CB33D59
:1000E000281940BCFA394B3C00D559BD0DBB703BBB
:1000F00077931C3E3B40C1BD9A2709BDD25B09BE28
:1001000010D79DBA5FB20CBDD57AB83D965613BED6
:10011000F317C3BC8EE5D0BD5B4CCF3C8FEFA5BDC4
:1001200089520F3EDA67B13DB264B63C5849C53CCE
:10013000771CB2BD52D3EDBDD196ED3C234BF3BC41
:10014000793117BEECCFA7BC647F70BD90216B3DA9
:100150000BD22F3C3280A13D58F25CBCEB63EABD70
:100160006B35713D0774573D63F4ABBD3323EB3CF6
:1001700033DDFA3DD6140DBEE67EF93C218E6EBE0F
:10018000EB0788BD0B547B3D0A702EBD2D5705BE75
:100190007BD6EC3D575BEC3D0A6FB73D3C0ACE3D4C
:1001A00073FBAB3D7EC105BD9C760EBDB211283EF2
:1001B000A22AA53D43FA83BD7943FB3D01E1F43D0D
:1001C000FEDFD4BD45868EBD9C36B8BD50E6223ECE
:1001D000342CBABC2E9E28BD647A533DA2FBB53D9B
:1001E000C6D4493DF68601BD145C773D359167BCA8
:1001F0006F49083E7897BE3CA7BCA93D66E010BE9B
:100200005AE6DFBC37C0903C39B5D4BD1678433DC3
:10021000EFBCADBD9DB749BDAF68043C226F86BD44
:10022000B674FE3DFE23C2BDAD0B47BD0ECDDBBD9A
:10023000618F63BD30FD353B4F0EE43DAFBD40BD2A
:10024000475E3BBD2FA5E6BB36F8B33B1295B63DE6
:100250008F5D953DA426B0BD26468EBDE4744FBE8D
:10026000CCB6F93D8AC704BC554065BE28C4DBBC8A
:10027000F72045BD79D1EDBD3C13B73D73D2803D2C
:1002800081ABA2BD587A15BE4C46FA3B819C633DBA
:10029000A8BE903DFEDCCD3D89442D3EEA6B02BEFA
:1002A000B90B0FBD826B82BE898DBDBC0B7DB33D8A
:1002B00031A30BBEFAB930BEE784FF3D9630BE3C99
:1002C0000DE18BBC3C94823D2663B8BC2803CBBDBA
:1002D000130C843C72366D3E6AAE433CCA71F8BD65
:1002E000C765103E5E3C1E3C30BF3CBDCE3A4DBDA6
:1002F0002A70393D5720093D3D499A3B5187D5BD6C
:10030000317EBB3D7A53E43DD7BF183EA3D9A83B0D
:10031000BFB3A83C955DEF3C4A381C3E3E6095BC9F
:100320008F7000BD10251CBD1C8C68BC52A36DBC19
:10033000C2188CBD3EF4C6BC83DF883DBFFD91BDB5
:100340003693D53DD38CD4BD7242033E8799A4BD6C
:100350009A26D23CBE720A3D815196BB8275DEBBA5
:10036000EBAEBB3DA23BF1BC2972F8BC9BD4D4BB25
:10037000D90EA33DD871B43DD556393E0A4F703DD4
:10038000306121BDB51510BE645CD93CA25B993DBE
:10039000BF8394BE50EC1ABD7C19263DF79865BE0C
:1003A000F3D68FBB71C7A7BCB52814BE25C05FBDEF
:1003B000123D1D3C2AE607BEF15841BCEC9E303D83
:1003C00045FD123D9627C3BC27B0F3BC14CAB9BE85
:1003D000ED9BD93D43D0683C6CB158BECF8C22BD5B
:1003E000AF21123E97215B3D4E2E8E3C8A7AEF3D27
:1003F000B89AB23CC114CF3CA58CE9BC2C79553ECF
:100400000F6C9DBB17AAF9BDED8A633E830DD43CEA
:1004100047C237BE4DAF84BDBE00C4BD0634B3BBBA
:1004200091EEFF3D31618DBD9DBF923DD7A51D3D34
:100430006D19A53D80B653BC68B109BD97948C3D3C
:1004400028946ABC5D5DC93CED35893B6BC79A3D1C
:100450001E22DF3DC04DBD3DF86E10BD53169B3DC5
:10046000EEC66A3D7C9AF5BD57E2333E47339ABDEE
:1004700016B58A3DCF9ED23CF1EA99BCE2DA8F3DB7
:10048000983BD6BC96FBBA3D1B18563D8FE333BC58
:100490001CC3AD3DB3DF493DDC30FD395A52F83D58
:1004A00030AD133B6FEEB5BD05321E3C160343BEA7
:1004B0007DB5603D12DA243D70AF68BE6C0608BEA3
:1004C00008C924BDF8BE82BE6CC3283E49ED803DFC
:1004D00052E111BE0B82813C2B7820BD9D725ABE29
:1004E00090787D3CEAB1B43D10778BBDB1A16EBD73
:1004F000F01B80BC26A5ACBE942AAF3C8A72C0BC5F
:1005000077CC92BE91C70EBCCD05CF3C55FA54BCFA
:10051000BDF960BC6CA017BC1093983DBA4D7EBD70
:100520009B02EDBD75D9283E8F6EF93DD081A4BDEB
:100530004835A43E7915E13D85F338BD48E374BDE7
:10054000DC4D813C727FD4BED70F173E27213BBEC6
:100550003238063E8E0FFD3D0A7CCA3D29D58D3CC2
:1005600004C06CBCC5B1F53B53DA9D3D60DDF7BC02
:100570008070ECBC4F59D43D7FB4C13DC28DDEBC10
:10058000A6C5BE3DAA97163E5272F8BCA1E3D1BDE6
:10059000B769653D8435183BC359FE3D3462B53DAE
:1005A000FFCA403E1617853CFB362C3DA1BA3C3CA9
:1005B000B0DC633D4169AF3C71C6D03DE826BB3D30
:1005C0002169E7BC78FD2F3E081AC23DE7FFF4BA67
:1005D0009476533D4C1B83BB9971F1BC1E1AE9BB49
:1005E00092FAE2BDAC739DBDEC04D1BD6F3544BD44
:1005F000079186BD56BC2ABCFD09DDBD4D8F213D4E
:10060000B63DD1BC3E8D043E326B29BC2AF5603B21
:1006100020BFDC3D9BDDB2BD7486A6BCA2DDEF3BF6
:1006200069F3183DC88381BDA192C8BAE9E0E1BB76
:100630008C48E9BA4063C3BB77C6CD3D54B259BDBF
:100640009409183D31FEFAB965C27D3B3EFFF63D87
:10065000EB8FA63DB120953D9846203E00B806BAE6
:100660003F02E83CAC177D3CCAEF5FBD10E1523E53
:100670003817BFBD21B5A7BDE4E6C2BA5D841A3DF7
:10068000FD0C833C477C473D35C0183CBBDCC5BDF9
:10069000EF6E9B3DF6BBC7BC66A09B3D8991813D3B
:1006A000293B18BD6F9B7FBD7D1EBB3CC961C9BD89
:1006B000D03A7C3D796CB0BDA01A093D03DB6D3B9F
:1006C000AA8D283DFB6F983C566A7FBD84D4733D4C
:1006D000215F633C7C6901BD63939FBDA82E05BD6E
:1006E0008993083D45CE923C1C9BF2BCA1592EBD7E
:1006F000D6AD143DC569B63C351CF1BCB069853C2E
:100700007D59443C936347BD38D50ABE0447D83C65
:10071000A2D22E3DECB49BBC446FCC3D695044BD8D
:100720005E303B3DA171B9BDBC5C203D7F45C43D01
:10073000F6848A3D3610A8BD4DA7903D5BD2B6BB6E
:10074000C0E27E3D09AA07BDBFEB0D3D0F6381BD31
:10075000DEB7F2BCF93692BD21A26ABCB2AF84BD4D
:100760000F56663D24743FBDC1AD67BD317B1C3D56
:10077000BE2E0B3C4016FABB4B9C33BDC6544CBD41
:1007800001E0023EA01EB63D2B06183D34ADDC3C18
:1007900047229D3DFE6FF03DD466803BA1D2803D57
:1007A00071F54B3D2108903DE58283BC9C49BABD63
:1007B000F10376BC782B21BDB2F79E3D51595F3CC9
:1007C0005637443CBC6E5A3CE0C9643DABF2D0BDE8
:1007D0009F7954BD74C7203D709F963C158E6EBDA9
:1007E000ABCA2CBD8AC6C8BD9EC9A73DCA050BBDF4
:1007F0008ED6BB3C091A86BD283D563D792C86BA5B
:100800002AA49C3DF92199BDB64E37BD837E21BAFD
:10081000734ABBBDB776AB3D59E0053D45E5803D2C
:10082000B75758BD80A70EBEA5F55DBD1C559A3AB9
:10083000E0A9A0BDCC8041BD5566A73CE610DFBD58
:100840003FFE1D3DDAEE943D72ADF2BD70CFB8BDF6
:10085000AA84703C9AF61BBD36259BBDB7D2CBBC93
:10086000FE1DD93DB64A95BD2636E13C96191EBE01
:1008700068E56E3CA00EB03CC11FDCBD9C6A9DBD0E
:100880005F99ABBDFC7CCCBCFE65923D4CE6B8BD2F
:10089000A73CD2BD038260BD51559BBD187006BDFB
:1008A00040DAAD3DA1FDB7BD5138B43C8C6FC3BD3E
:1008B0005F1C1ABCF378B1BD9DB0923D6E74853E4D
:1008C000B0242DBD3B05313D5BA88BBD83F506BD36
:1008D0007F01A6BD1FCF7ABD8E28D4BC32EAAFBD42
:1008E000D62A07BDC5E1243C8DFCA2BCD0D0273D53
:1008F000C456A8BD16BDCBBCE352ADBDB9838CBCFC
:100900002DE58DBD8CBEE43C9B2F30BCB65C2B3DF1
:10091000C8B73E3D3187A53C96D96539D991133D7D
:1009200093017BBC09EFC8BD88FDBDBD5ADD1A3DF2
:100930003D3A3CBC8F1EC5BDA44A97BD5C0415BCA6
:10094000A407A1BD437A7ABD7C711EBE13B20CBE52
:1009500056CA553D3A31F6BD898DC3BD03CB92BD14
:10096000AC7611BE027AB0BDD06558BDB25112BD91
:1009700034981DBB2D9D4F3D901D6BBDDA28C5BD24
:10098000E5DD703D230342BD83547A3D28AAF1BDC5
:10099000EB2261BD6A22D5BD752BE43DDE160DBD8F
:1009A0007423D9BD0D86A4BD724EC9BCD2E7FE3CEE
:1009B00059D3213B4C95C9BDDBA7E1BB4798FF3C10
:1009C0003E1D97BD2B4F223D7DD2BF3C31CC8E3D8D
:1009D000C2CB133D2C43B03CE8FAAEBDFEE4983CDC
:1009E000C101933B7D9D223E5A7679BC1FE2E7BB55
:1009F0003D23333C99A82ABD2F0A3A3DB0DA3CBDCD
:100A0000AB2649BD0D2C543DD682EDBD76CD38BD0B
:100A10004A71C4BD7D26F0BD3264E4BD11A6CCBDD3
:100A20005BF201BED1E408BEB0ABFABD48D2863C51
:100A3000B5ECD4BCEA5756BD00EA75BD531E9FBD48
:100A40003F9073BDA779F0BD534693BD60A2FBBC38
:100A500098C8F5BDB316CB3CF920A4BD2D2B2CBCFA
:100A6000A5FFEE3C737B66BD7BD01CBED4E0DEBE32
:100A7000D5C16EBD7F2FB2BDCF81A7BE86A9E83D8F
:100A8000E6FEDDBD93DF1FBEF3E733BD34B026BE07
:100A9000909466BE6ABB5F3DAB134ABB1B3E06BE6D
:100AA00098DBDEBD04B7243DB1931CBD2CE1DD3DD8
:100AB000D61DDD3D0535BCBE6961E2BDEA68E1BD1C
:100AC0008EAB2BBE4706FC3D2E1E32BE74AC64BE00
:100AD00056EFEF3D195715BBE52FC3BC6BEF963EA4
:100AE0006750BC3D96E945BE044E333EFB52153E71
:100AF000A60B8DBE82BFE63D536E943DF7C580BE0A
:100B00005982BE3EE56D9ABBCCCE70BE9265D2BE18
:100B10002859393E69F2D2BDB30CEA3DBEF20E3D12
:100B20000F19023E7D16023E3519AC3DC051453DC0
:100B3000B6F39DBCC1A69ABC38ABDD3D8078CB3DF9
:100B4000A4DDB83D29DA17BD47C9E63D3CD50EBD49
:100B50005446743DA9BE033C5A56433DAE0F9BBD5F
:100B6000370E9DBCD47091BDFC5D313E7B32FD3CA7
:100B700066A3A03D5FD0CBBC14E0203E644E8FBD89
:100B80007B72903D2760D83C98BEB43DAFEC66BD0B
:100B900093A838BE64FCD43CBA643A3E9FC8D9BD21
:100BA00078F8FFBC145436BE53871DBED0655C3C3C
:100BB000D68FB33C22A79EBCBD0280BC8140D43DF1
:100BC000308D45BCCE0430BD6253893DBFC5903CDD
:100BD000860177BD673F01BED695DDBCE269D23B99
:100BE000EB3A8FBCC087FF3DDA734E3AAF041FBEAD
:100BF000CEE1403ECCA414BCEA940ABEE134763E79
:100C0000019EC83A61EBE3BD482A083E12C1233C6D
:100C10001A9B6ABD028E0F3E7657E53C232E4F3C51
:100C20007AB20F3E2A92C8BAA7DD47BD8CC244BE35
:100C3000156A803DB0CF9DBCC99D743D563FB33D04
:100C4000B786163D1B81043D87F336BCCF6E183D39
:100C5000D6C6A13D9979A8BB594781BDD91D743D20
:100C6000466755BA8AD576BC0D6207BD5B4CEB3B37
:100C700060431FBDBC48B1BCA802783CAEA2D53CC5
:100C8000E721BABBB6CCC43D12BB403BC3121F3CEC
:100C90000822303D926B7B3D5125513D379B37BD3E
:100CA00007F098BD66C0803DC36B4ABDAA559C3D08
:100CB000F5B78FBD87A7A3BC1A328EBEDB6257BDC6
:100CC000C32DFE3DF95E48BEF7F5353DA40402BED6
:100CD000B2FD7CBE204DED3C1CBBC03A8D673E3D55
:100CE0007E6FF93D8910B73C5CCC30BE3DC719BC66
:100CF000DA49CD3CC4D2983C0F8C013E5F61423C46
:100D0000D0496ABD18DFD43CF2A9D3BDBFC86A3E42
:100D10005D90703D483B85BD14FC833D9D124D3D6B
:100D20009598033CCE6A6A3EEE7158BDCE77BA3CC8
:100D30008101873E6ECC02BD79FD19BE0159763E18
:100D40007F971E3DE46599BABB15033E5E114CBD0D
:100D500065978DBD5F9899BEEEF937BDD9B55EBE7A
:100D6000A966283C4F3EF1BD47BE5FBCEC043BBBCF
:100D70008D32A4BD9000543DB3BDDFBDAADD843DDE
:100D80002B19973D52498ABDA8D30EBDC5E9623DD6
:100D9000F68AADBD7C5BDFBB24A3C63DE9A284BD62
:100DA000F67D85BD014A3FBD71F3C23AFB40F13C7F
:100DB0006CA503BD7B6B8E3DEB5D3FBD40B67BBD3F
:100DC000A864943C5FC63D3C29C51EBCA3DE403DE3
:100DD0008A7BEF3C2E9E6BBD07F569BD7AAB373D34
:100DE000AA8876BEC08BFEBC4F89083E5709E6BD77
:100DF000E71007BDE1FC2ABC0A6A96BEFB1649BD96
:100E000060765CBD6D8D893D5B7A043E15D493BCE4
:100E100025640FBE9F4F4C3D917D7BBD6539DE3D06
:100E20005EB975BC528596BD9A6A613D7441C03DFC
:100E30004619FCBD2C22613E83DC70BD9DF19EBD38
:100E400034E13D3EDA58523D8FAF9CBDDE02893E13
:100E500050E983BDD513B7BD0CAA6A3E82346EB982
:100E60005EA88CBDA220383E608291BDF5E407BC2F
:100E70001CB8123EA4C8EB3AF2B1D6BDC7B890BEBA
:100E800046A99E3D056CE8BEBC8ECA3D8B4502BEA0
:100E90002D9892BD37EDFCBC0CD4A7BC8ED11DBDE6
:100EA00008B5DEBD95E91EBD9246553DD23A04BD5A
:100EB000148F903DB993A23CFD0700BDFC9208BD84
:100EC00068B535BD48CCE23C809429BD736080BDD7
:100ED000763E5FBD72E087BD014A05BE615A8FBD97
:100EE000AFA4333D063AD63CF6FCA1BC8D148F3D31
:100EF00054EC2FBD87926F3D070F8D3C12BCE23B37
:100F0000B3F103BEF0D909BD35676ABEB1B8A1BD62
:100F1000CA51113C71EE07BEA339103D9387453D80
:100F2000DA9E7BBE4ED60ABC7020B23C06371E3D10
:100F30000FF8D93CB8C091BDC32B8DBC975184BD6F
:100F40003D050F3D950A333ED67306BD1E6484BD34
:100F50004D231F3D2357BD3D6DE98DBB5595453E46
:100F6000F09277BB9B88D1BDF8BB123E2C0B8FBD96
:100F70000A1262BDBB0CAC3E97ECAEBD2D717BBDC1
:100F8000E18B733EC8E31FBE4CA294BD9307863E1F
:100F9000455BCABDBF5919BE5A7E863E712DB53C10
:100FA000F5F8F7BD291B48BE0798EEBCD01501BF68
:100FB00019F9CB3D968058BE6B87893DC2233EBC54
:100FC0000543263DBD9E303D49E4E53C93E1F4BC3C
:100FD000CD1277BDD9474DBD3C5A7ABD0E49983DDB
:100FE0000506643D31DC033D02DF903DF720B53D51
:100FF00040022F3D24FF12BD81142E3DA87BDFBC93
:10100000CEAF95BC3C40CB3AEE8ABDBD132B91BC14
:1010100048955F3D611D393DA160C5BD82B3993DD5
:101020005C4520BB7007433CADC7A9BDBEDCDDBD40
:10103000FE9897BEE262823D67366C3DAB74EFBDB1
:101040002D4D82BD7B6138BDABC9A8BE1A7E57BC91
:10105000987EE43C6FB0473DF8365C3D1C3C1E3C3E
:1010600025DFD1BD2F49E33C5B3D2C3D7FA0163EE3
:10107000FEBBE13D4C4E09BEABE7283CE46EF13DC2
:101080007610333CF089863EDC6684BD650738BD4A
:10109000C649423E3D65263D6BA79DBDBFD0A93EDA
:1010A00074C6B9BCC966EFBDE2F8703E19E649BE28
:1010B000CF3086BD163AAB3ECC43A1BCDF8F19BD05
:1010C000BDD9733E222BB63D37442FBDE18158BEBA
:1010D0000E69A03D79EF32BF60045F3EE0A191BE92
:1010E0006EF2333DF9DF32BBB3F1773C942ED03D45
:1010F000E9C810BC25B61D3D601C613D3403C0BC71
:10110000E0CF2BBD50D1313BB97E563DC70D163DCA
:10111000577C95BC7C6AC13C75AF783B1D92D1BDB4
:101120000A4A193DA7712BBD47C948BD5378C63B34
:10113000DD8C5CBD8DD4EBBDB7566B3CF0FBA73CA2
:1011400046E2B7BD6706BCBCE2ECC3B9F9539FBD2C
:10115000C2C8413C4E7AEBBDD250FF3983433A3D81
:101160006DA3423CF9428FBCDFE5613DA30EB1BDEA
:101170000026053CA5618BBDA2E092BD08C88E3D4E
:10118000A9E900BCF732B1BD8D7EA9BD684E0F3D07
:10119000B1FDA1BD14C5983C722E9FBC3FBE81BC61
:1011A000C23A1ABD1BC70D3C5E967DBD4B18B23DC1
:1011B000C607993C3C0BCFBA58807D3CC60B393CE6
:1011C000B178673D793EAB3D394D64BCC3E63EBD69
:1011D000E21FBABD628CE53C66CB38BD7F60D0BCF7
:1011E0008081A03BA596D63C7181A7BC5391BBBD25
:1011F000561BB9BB0AB273BD00BFB7BD646A88BCD9
:101200006C4C41BDEE2976BC57BB80BDE662B13D5A
:10121000B00203BD76D2AEBD1EE7433D7230803CC6
:101220004FE0D43BB58B3E3C37BD9E3DD01AA4BDAC
:1012300072A96B3DAA679D3A75D6BCBDBB61A13D45
:101240008F3A8C3DB241C2BC4C745FBBAFD405BD7C
:10125000A30B16BC90782A3A7B448B3C5F828E3D70
:101260009E64BCBD6C6103BC71849C3D21E5CBBD1B
:1012700023F08E3D0F52ECBC2EBA69BDFC29D53C43
:10128000E4101ABD36AE143D4E80AA3D1C33C03A60
:10129000CC7A69BD8024AE3D4CD41BBDA98F30BD36
:1012A000AC55A2BD4204CABB36B5B7BD6F77C4BD4D
:1012B000B34FAE3DA263683D7DE669BD16AB403DD0
:1012C0004141B3BC67B4783DB5CC25BDA61194BCF3
:1012D000FB1D173A931E99BD3241423C1A1E8B3BAF
:1012E0007C5B8CBDDFD990BD6F340D3D0C182D3D5E
:1012F000E31A87BCAE46D3BCEA988FBD5E4A87BB73
:101300002EEC173DB1B681BDDF1400BC0E6140BDAF
:10131000DDBD873DC89E853D2050CE3B2AF121BCD6
:101320007C624C3DBA3D113DE30C213BF9FEA83DEA
:101330008C382BBAB743363DD6438E3DF88515BC65
:10134000EC5DB3BC997F25BD4CC95DBDB04ADA3CAC
:101350006838B4BCF8F1263D2922D5BCC1FF0CBDCC
:10136000BA7AA6BD4552863DF0774C3DE48D15BC5A
:101370003D45913D3C0D393D58478B3D7C3195BDF8
:101380006560073D86D0A4BC576183BD98A5043D28
:10139000801FBBBBE7D667BD3309ABBD0CB950BDE1
:1013A00052C9683D735D98BC5439613D3FED273D9E
:1013B00093215A3DF9C0283D0B0075BC9F6B07BDBA
:1013C00053E5913DF7E2D23CDB5CAD3CC0BFF73C5E
:1013D0009CF4AF3C4B60C2BD5001733D28161A3DD2
:1013E00043DB08BD698EA5BC782798BD66169BBCFB
:1013F000541E693CF82A2C3D369CB8BDC82CCB3C09
:1014000072C586BD6060B4BC153F8FBDA489893D9F
:10141000F020833C3AD0AB3DA459873C8CBF0ABD39
:101420006944BDBB88C5633B4F7414BD4744413C10
:10143000128C813D592FA13D6B891F3D1FC692BD66
:10144000663E29BD54FC87BCCC523C3DCD469CBC7D
:10145000F0E8823DB6FC39BDB2C5B7BD0FC49EBD34
:10146000D436583D837ED03B51DC993D0310A8BB58
:10147000A431BB3C377FB93C4F6541BDA42DDBBCDB
:1014800092A96E3D04EC293DD2296C3CCF948C3B53
:1014900087C09D3D72A3A6BDC00781BA66F89CBDFA
:1014A000AC41193DA2B810BCDC1582BD0367363DC6
:1014B0005EBE99BD7E60B8BC6072CE3C68CF38BC61
:1014C000E9CEC6BD62FD933C1E0EC6BC888431BD0C
:1014D000FC7093BD83072F3D3828D2BC04E62A3D1B
:1014E00040EBB03DCF7E87BD475B0DBDFCB697BDE1
:1014F000ACC09EBD048188BD8BC3A4BDA74BF23C8C
:101500002538AE3DF56B943D3F5F8E3C9C3640BD2B
:10151000C50955BC881A50BDA674553C64F5BA3D42
:10152000D42633BDFEAAA1BD5B3621BDCE2F95BC0E
:101530007CB3FABC6458603D5A85B03C7CE6ABBDD8
:10154000AD66983B2DD525BD63DBE4B92EC2B5BD94
:10155000075A253D9794AB3DC1AAC3BDA4D8ABBDE6
:101560008C4C46BD188F8FBD241C783DAB1E8BBDA7
:10157000851EA83DE4399EBD66C0563AFABA533D71
:101580006A42483D210E1DBDD5D72CBCC8B28CBDCA
:1015900045A0F03B463DB8BC94C188BC3CF57B3CC3
:1015A0009D149FBD91F2653DB6D7593DC567C0BD3D
:1015B000239DFD3BE7448EBCA8108ABD205FB2BDD1
:1015C00078D40A3D04EB333D810384BD2D7A8BBD75
:1015D000F692FBBAA0891D3C07C134BD6BDE963C78
:1015E0004A3DBABCCAA2A63D95E65F3DB610E5BC31
:1015F000108588BDB9C8873D72F7953DF6C7B23DE5
:101600009E564DBD1BDB97BDAA3F8C3D59F5D3BC03
:101610000CBD393DEDA9313D79505B3C41C2E33C05
:10162000D72366BD45E4E63C23CD113D8A57A4BDD2
:101630009259803D0135623943E78D3D24158D3D3A
:10164000C217B13DF79DA8BB6735863D8DFFBC3BFA
:10165000554EA0BD2B1818BDC264B1BD3138633DD5
:101660006D84AFBDC38910BC0B9E003C1B5004BCF5
:101670007D974ABCF0D4573D94683E3D5BB1B7BC02
:1016800051F0BDBDE01347BDA0A78EBD6E7C913D5E
:10169000E2EDECBBCEEAB0BD1CEBA13D9CF3983D66
:1016A000C9F580BD85D7ED3C09C6943DE5BC81BD3B
:1016B0007A974D3C6A26DE3C7CA4223DCC4D2C3DE5
:1016C00008FBA2BDCB43A73DF7BFD2BCFAC36EBD9A
:1016D000C62FBBBD3480DC3ADBCFFE3BB1FFAB3C59
:1016E000597B14BB89C6AABDAC123DBDDDBABEBDD7
:1016F000AD4DA6BDD0D4F0BB247CA5BD44E113BD47
:101700002A19263DB5B586BC4EBD1FBBE2C1C5BD7D
:1017100090B8AE3D4CEF38BD1E54F0396479C1BD70
:10172000EFE5A93D1E9854BD6DFFA2BC58B583BC22
:10173000B1F4743DC6377CBCEC5FF23C1A03F53C57
:101740005804A5BCC811F13C3F9A22BD464DA0BD2E
:101750005B5C0B3D03E984BC46E18D3D75AFDFBCAE
:101760002616183AA2039DBD8BB72E3D7C0B643C18
:1017700002ACA5BDFDB1B0BD0EDF9DBD4FA9963D2C
:101780008A7549BDFB638D3CEAC57B3D1FB1B03B0B
:101790004B408FBDB0AB773D9D56E23C30D7DABDB4
:1017A000C873B23C18324DBD956C1E3DE756EC3CFB
:1017B0005CE5113BF5EB7ABDB7B5B63CA1BC45BDC8
:1017C000B94093BD938954BDD50940BDD1DC383CA7
:1017D00019E493BD9A9F433D6618C4BD7D10153D25
:1017E00071653DBD033D00BC45F0BDBD95EBF93CC9
:1017F000E6CEABBB93F8663D8EF2BA3CCC861ABC03
:1018000055345E3D02A8A6BDBE9D8E3C0B908A3D20
:101810007F77DABD014A973D4D10AA3C459DA8BD92
:101820002717F63A4DFD173D42304F3DDCBE343AA6
:10183000381F183D0E07493D788712BD671298BCC6
:10184000A2CD36BD502C0E3DF6CF7B3DBE590ABA17
:101850007E32893DEAA6C83C6BCF96BD1E62A3BD11
:101860004F98F93A785A093D07ABE6BCF2C0AC3D57
:101870002F328E3D7FC8A13CAB07183D588D883D67
:101880003D75B1BDC554913DEB87E9BD1B44A23DFB
:1018900070985BBD5A4080BD91E11F3D2A91ADBD5E
:1018A000D4E3F73C056166BD824120BC7B226ABC63
:1018B000BF8930BC24050EBC4E79DDBB080A26BCAE
:1018C000893339BC32BC4B3DBA1E47BDB39B28BDE2
:1018D000A6E8603DFCA934BD392F8C3DE05DF8BB26
:1018E0007091E0BD4F91B5BDB1FC5D3D658A51BDC4
:1018F000BFBEC33CA1FBD4BD595B803D8A20D93C0F
:10190000FE55BBBD2B3390BC11253DBB14C7263DF6
:1019100079F6283DA74D0B3D385E473D70FDA2BDD1
:10192000B16F3F3D43EFD4BC5D9BBEBD37E7833D08
:101930003FFA843D155D5D3CF29ED0BD49A8C1BD16
:101940007C2CB0BCFB85B1BDF420EEBC6D8BDABD48
:101950008780323DF17089BDCD3A6CBDF43AF2BC5E
:10196000A50997BDB56F743D1935283DB27B10BDF3
:10197000C28D853DD30585BD49087EBCDD05A1BD71
:10198000C6FE2C3D1F3763BDBA5188BDBCEAC8BD39
:10199000D179503C224C33BD09D89EBCEBCCBDBDA7
:1019A00080A55DBC13B2DDBC0CF00F3DBF4256BD3F
:1019B000A2E53E3BB4E7183D22E8D2BD619A7EBC69
:1019C000947CD3BD65F8D3BC9529CB3CC9F7D6BD73
:1019D00013E7393DB78444BC16AF5D3D1588C53B60
:1019E00043F2333D51DB873D932E753D11188EBD7B
:1019F000E59D5CBDCC30983CAE02CFBD5875123B26
:101A00001F24653D7DE68FBDC1983D3D9278CD3C5C
:101A1000923990BB4D56CABD93615DBD000C593DD6
:101A2000EEE1B4BDCC97043DC739673D6D17813BEE
:101A30007063C43CEDAC4FBDF07933BCACA9B1BD13
:101A40006652C0BD4A296CBDA8B23EBDEB8DC63CF6
:101A5000ADA2083DD492DFBD5A8216BC166E7DBD84
:101A6000F92B91BDBC57663C35C3123D42E54D3D57
:101A700007B26FBD46C8283C2CC3BABD1490B3BD95
:101A800036B5033DBC1F86BDD88EC9BDB1DE62BD73
:101A9000494D24BDDC9D943DDE6BD8BD8E0B343C9E
:101AA000741530BC77A4DFBD7CC0C2BD908E08BD6C
:101AB000C549843A9F81D5BD4550CC3C8E62E1BD7D
:101AC000449F09BD7ED2443C7FBFCFBC3C1FFBBDC1
:101AD0008D3706BDDD0DB5BC4531F0BDDAEAD5BDAB
:101AE000C72D01BEFB326FBDFE7EFDBD5F82F5BC22
:101AF000424A07BD927EEF3CD052F2BDF49D403D7C
:101B0000897E9CBB08D62BBD3812F9BD55ADC1BC32
:101B1000A57F9ABC39DBC83CA94498BCA48A09BEFD
:101B20003E098EBB8EE0CDBBB34BDCBD154B87BDF4
:101B3000AE8F443D4C1FB7BDECF7CC3C9C4DA6BDD1
:101B40001C0166BCEDB153BD90285FBDD2E31F3DC3
:101B5000202467BD7A9C563C731EFA3C2E9EFF3CA7
:101B6000E96C79BACF14E9BD1B1B63BD8835BCBDD8
:101B7000C0A096BC468137BD7590EFBD3857593C23
:101B8000C2C6ADBD174C9ABDFB6166BCA4E57BBD6A
:101B9000DE1A97BD55FD38BDD60FDEBC0A75B6BC42
:101BA000902BBCBD1DEC56BDD0669DBD269F47BC8D
:101BB000DFD02E3DB5C628BCD391A7BD3C162CBCAA
:101BC00060708DBDE1A714BD04D447BCCE7981BC43
:101BD00048ECD13DE23EBF3C76BDD5BD6232FB3D17
:101BE0004B2130BE26C1A53DC5EBC33D9C750C3DC8
:101BF000A7014F3D5895B93D234606BC629073BA84
:101C000068F269BAB986423D63F3A8BDBC7073BA85
:101C10006DC124BE4CA30ABCD7877A3D57979BBBA6
:101C200086B4A83D24CC6C3D0906B43D1F4448BA97
:101C30007BD0713D67FD9FBD332D733C09BC913D49
:101C40001029993D1625B23B9925D2BDF889263C2D
:101C50005880CFBB98E5A73C8C95043DF1EB93BD34
:101C6000C35A72BCC92C683DEC9802BE6103843D26
:101C7000FD1323BD57086BBCFAC5A3BD7931BDBDAB
:101C8000A6A010BE34308EBD4793A5BDED7CE9BD46
:101C90006024F2BDB08D26BE119DF3BD11BA2EBEDB
:101CA0009336ACBD1B44B9BC22EEEFBD0C6333BE12
:101CB000B6284D3C338AFEBD18F7A03C65A817BE78
:101CC000D563DFBD9D97ACBD71B788BDDE4412BE44
:101CD00051D1C53CAC841FBE77D01B3CCC3DD0BDA0
:101CE00093D5363D42FE80BCF3EEC73DAD8B9FBD24
:101CF000EAF42D3D1EF937BC2B93203DDF1ED9BCE5
:101D0000EE99533DF346F8BD272440BD8183BABB0D
:101D100072934CBDDA941E3A3F41F2BB02208DBC57
:101D20007AC08DBCC49CE93C2800B83C42309DBDC3
:101D30009341AC3DEC52EEBAF6550BBDEDC92DBD4D
:101D40002D9BED3C723C6D3C6F433B3DC5D2F7BDD6
:101D50006914ACBD6DB60F3D6AE2773C5D2998BD54
:101D6000CE56953DED27D6BD7E24E63BF735A5BD85
:101D7000C4EFD2BD08276EBD1BFDB7BA5608863D1D
:101D80000D3499BDC681D53D6BEF02BB6DDD4BBDFA
:101D9000FEA21B3D1EB803BD68D3C83C3D83133D66
:101DA000E27B483D7A78C0BD110C57BDB0FB3D3D8C
:101DB0000B38373DFB35CFBD3BBEA13BF00650BDD8
:101DC0004CCE163CA8B39E3B6248603D15608DBD6D
:101DD000D255833BA754C8BC717D38BD769C93BB5C
:101DE0006916B8BD25139B3CA7177CBDF112293D90
:101DF0004807CF3CDCF5EABD9E7EE5BD5933CEBD3C
:101E0000915BA8BCDE44EFBC8FD6B4BCBC418BBD9B
:101E100087498ABD8F80153D5F0FDFBD863DD53D6B
:101E2000FF883A3DB6473D3C9781BD3D20829BBD32
:101E300026D19E3CA41661BD2050B8BD1982353C08
:101E4000FCE6B33D005E63BD02B0343D7A7403BC72
:101E50009890C5BBBBC03ABD6C7F023DBE580B3CE1
:101E60007FB8AC3C2DB8C1BD72A2343DBB0B1A3D4E
:101E70004A67603D9D782A3DC17BC8BD63A7E23BB0
:101E8000F3B4C33CE1988DBD79F1743CEA06EBBD37
:101E90002EA909BD90FC8CBD7EA10FBD204BE3BDDA
:101EA00067B21D3D886D2ABD3713083D379BE33D62
:101EB000A52F66BD6D478F3D4B15EFBDC2D91F3CA9
:101EC000681D4E3DE39DCE3C9A292B3DBB80BD3C19
:101ED000DE413EBD50EFD1BD674A75BDC59C5FBDBB
:101EE000FF9289BD7837CBBBC06DBABC0801A3BDDA
:101EF000D5C8B4BC600A633D2E978A3DF226313CBA
:101F000082FDD7BC329336BD600AAEBD927EDCBD89
:101F100013D9363CD9679ABD889CA9BD8251273D0B
:101F2000516474BD4EAA89BD035E52BDDBBD613CE8
:101F30003F7D9FBD98E9AEBDC4C1E13DAD1718BD61
:101F400007EB363DAD375CBD3AD792BD1BA7473D89
:101F5000837086BDD1C7BDBD11CB04BD5F4F6E3D43
:101F6000C09DFABC05EB743D53F6A9BCFCECBBBCB0
:101F7000FA46D0BD43017CBD78BF923B6EBF4B3C5F
:101F8000CE1E903DD3C10ABB54167ABD3C0F9FBAFA
:101F90003B3F07BD47B3AABD70A7933CC62701BE10
:101FA000A20AEFBD2B3A413D10BFD7BC0105A3BD2E
:101FB0005553AABD2826D4BD3DA705BE4938723D5C
:101FC0008DFEB93C7DFD53BDA8CBB03B698411BCEF
:101FD00086B289BC3F8ECC3D21E99CBD00E68B3D9D
:101FE000A9D1E7B9C1AAC7BD17BD08BEF8FFFBBD9F
:101FF000003BEFBDFEBF1CBDF2F504BE41CE23BDCC
:102000002462FFBD697EBBBC4ACA00BEBA61CDBDB9
:10201000F105833C86E9A1BD3804093CA045463D55
:1020200040290ABDFF38363D487F56BBBCBB323D18
:102030003D14A0BD74EA97BDF96E013D48C700BECE
:10204000A968ACBD9350D2BDEC8B03BEE4603D3DAE
:1020500014128FBDE5829DBD20DECBBB03B6F8BD5B
:10206000290A4DBDF25F9EBD1581E4BC11AF19BDBB
:10207000C364023D0C1BD1BD5E125EBCDE8C253DEF
:102080002B5ADEBD4CEF4A3D28681CBC301604BDFF
:102090002E02E93DF63AB6BC1427FEBCAF82A9BCBD
:1020A0008AC14CBC419D923C707E3C3B0631CBBC0E
:1020B000197887BD6503743DF97C263CFBCFFDBDD7
:1020C00089E584BD3830323D6696ABBD9DBF8E3DFF
:1020D00012BE203D86A1F0BC3408A73DE206773D44
:1020E000C9003DBD770A22BD248634BAE964093BA4
:1020F000CA669B3D2EC09EBDBC22CDBD1914EB3CD3
:10210000C311243DBEC5433E1286F4BD6A4C97BD43
:102110007A26E6BD8FF0E9BDF8FF34BD31ED06BB90
:10212000BD0FD2BDE02E003C0DEE223D2EA346BCDD
:102130008AEF9ABDC95AE1BCEBB631BB4DF5043DFF
:1021400009869DBDC9D4CB3CFB624B3D830C28BDA9
:1021500047C074BD3E62BCBD8B17A6BDAF259E3C7B
:10216000C3AC15BD0BB2013D7423323DF37E8FBD70
:102170006D6B5D3D36010C3C25A932BD996C0ABCE6
:102180008CC1D7BB87B6B5BDDD8B113D33EE5E3D4F
:10219000E18611BEC7E87ABDD642FFBD7CA61DBD53
:1021A000CB169D3D8391A33CB5B0C23DC8F5033E1F
:1021B0008E7E1BBECD49103D18E7503E852028BEBF
:1021C000E34FCBBC2577833EDE4C123EA83B903DCF
:1021D0006340933E1E6169BDDA98393E3B50D83C5E
:1021E00078EFC53DD7CEB93C5ECF313E1938633D5F
:1021F000E6FD033E664817BD74A96F3C05211F3EEE
:10220000EA78E53D67B6F83CCF0E203E05E6B4BC63
:102210003EAB26BD2DA2693C563E5A3D1B2A963D3B
:102220001D0D833D50D87F3D7856F8BD82B2B13E3A
:10223000833DC7BE5C45913E57ADCCBC1A2807BE56
:102240005667E63B2D493ABE9DADFD3AD25C18BDBE
:102250000842933BFBA8F4BDFA7A093DEBDE16BEBB
:102260009AA801BEC8FF09BE5603023D0F6F80BD8C
:102270009D12513DAB3047BD50637B3D336D07BE72
:102280001DA0083DCFBA44BD6CF0FFBB7352F33CB8
:10229000270361BDB831273E5C09CFBC74BD0C3E3D
:1022A0009D97BABCD0B404BECEE8B2BD42FC803922
:1022B000CD10953DE50E863D4278A1BCB044A7BD4A
:1022C0003748BB38B87150BCDCB169BDBF12753D31
:1022D0003855FEBC1C990FBD70ED223D90236DBB9F
:1022E00005C41BBC4C24953C87C29C3D0340C4BD27
:1022F0008C298C3D708BD4BD99A613BDAF6789BD69
:102300008FFB303A5773E93C1D9939BC5B50353D22
:102310007C49903C0A64313D5539C93C6934BCBDA7
:10232000C356853C21F1873DA978193C546B183D73
:10233000C248C13B3F88D13C4B17A6BD71D6E13C9A
:102340009C89333D7811E1BB6C040FBCA65F89BD4D
:10235000DAE1A53C6AF9413DD1A0853D45F187BD53
:10236000F9F892BD433F8B3D41FC1EBD7988B5BD58
:10237000AD9AA23DCCC686BC558BA53DD01AA93DD1
:10238000DB1717BDBCE7953D8643CF3CFF28A63D34
:10239000E3A01A3D3EBA08BD70828D3DB401B9BDBF
:1023A0003DE1153DC0057D3CC70DC5BA59233A3DF9
:1023B000683FCEBD40F9173B135BCFBDC61392BD3E
:1023C000EABF173D5EE512BC8085C53BD15A633C30
:1023D000EB8A88BDFF91AFBB9EC7A8BCF7C52E3D59
:1023E00057BCC3BD39607CBC0392163DC72A833CF1
:1023F000FC050CBD68C8E03C49E6C2BDD545C2BD80
:10240000DF1BD53CEB53F1BC84D9A3BC414198BC44
:10241000C43B56BDCA11E7BCD539B6BD583472BDF0
:10242000F010423D15B63E3D37F4D3BDDDC5083D45
:102430001D0EC2BC572E8F3D6236A03DF907CDBDA3
:1024400061C599BD8569113D8CCEA83D54A80DBCD0
:10245000A59A803DC752703D279EA7BDE82899BD2B
:1024600095D57CBD11214BBD305A9A3CF68EC3BD2B
:10247000B55D97BD9CD588BDEFF9583CC9C2883B76
:102480009E8112BD230E62BDA3B98F3DE5D5C23C2E
:10249000694387BDB0C5983DDF88973D6AC6353D25
:1024A000594C853D9B8B7B3C674F98BDDB1E753D32
:1024B00050868C3D069182BC0170A63DA3772D3DD0
:1024C00055CB1D3B926C30BD62264EBC3E0CC4BD4C
:1024D0000F0AB3BD1DF9A73D7A3B4ABD80FA9EBDE8
:1024E000332A773D1955FFBC593D06BD289819BDC3
:1024F000991A6D3D695F95BDFDDE943D4D84AB3D00
:1025000050193A3DFAEE8C3D390039BD9D59C9BD8F
:102510007D8DA9BDF78359BDDA0E753C7DDE823D08
:10252000E202A9BB9D7E68BDFF66893DB8659A3D04
:10253000B3E3A43D551796BD7B739FBC69DDE4BC36
:102540001C2CCB3C47A1143C125AD7BCF96EE43C7E
:102550002F92A2BD5DD0B4BD00CE9CBDC31615BDEB
:10256000A9DD9FBD86AA80BD7B4551BD94D773BCB4
:1025700049CB453DC9F8753D5E7756BDAE59CEBDD8
:102580000A55F9BC6EBA99BC9B3B42BCC67E4DBD98
:10259000AC404B3DE8EACFBD4AAFE7BC5854243DC0
:1025A000D07CB3BC2F03423D6D1DDBBC2BE5683DE9
:1025B0004A4F563D872675BD7936033D01AE38BD7D
:1025C00016F387BDAB4FA6BDAA829EBDF3E23F3D89
:1025D000C2858D3D95EFE0BC1C5816BA0DED43BD8C
:1025E00091D83A3D5B9E8FBD83679DBD1152513C92
:1025F00028FA9A3D1F8081BDCD1079BC7D946E3D37
:102600009EA9783DE7C72DBD0E81F6BC45DE8A3D0B
:10261000830433BD5E580E3DE8A480BD3C07043CF6
:10262000EF07A83D3C537F3D040B683DEE66473DF8
:10263000188AA03DBE8D4EBDEEADAC3DF1DB953CA4
:10264000CBDE95BDBFFFC83BB247BBBDCC085F3DED
:10265000493ABB3C850B9C3C142181BDA59861BDCA
:102660001BCD533DA33E9FBD9885E3BB85BAA7BD57
:10267000454E8C3BE55279BC39939FBD2CBE683CDE
:10268000EF0D373CD2FB6FBC1E43BCBDE3D593BA04
:102690002FC8F63C2EFF5D3DAEA52D3D8E27233D78
:1026A000129960BC079B5ABD46CF8B3DDBD49E3D43
:1026B0009D7CA8BD981FCD398AA1783B47CA083DAB
:1026C0004A15233DB3B0A43D1B2BC4BC65B1883C67
:1026D000F0D4EDBCC9D4A6BD5D1BAB3D543577BB72
:1026E000EDAF293D9CE017BCDCFE97BDF97165BCE0
:1026F000AFAF99BD0C76D0BB7F4B843D75D1E53C27
:10270000BA7682BCB6ED22BD847B433DCB054EBD7F
:102710001DEF70BD2BA462BD2BBE813DC38E6B3CF3
:10272000030463BDCBE982BCE7DF913D5E3160BD50
:1027300082489F3C14E80C3D5944BABC70D044BD5B
:10274000C0D10ABDB11DCE3C713B293C06EA82BD19
:102750009877993C1463A33D55D0A83D774784BD35
:102760006CCEA53CFC608DBB9A6FB7BD2968A1BD3E
:1027700001E3A0BD04D3803C640F493D669437BC9F
:10278000029F1F3DC40E2B3D5A3221BDD2E1BDBD7B
:102790006FE5BDBD689AB8BC3751723D3E73733D5D
:1027A000FDA06EBDF2D854BD95DE803DB1F49CBD58
:1027B000989FADBCFAB4A03D792B963DB1BC47BC07
:1027C000304C8ABC1A79B73C800EC4BD61C11BBDB8
:1027D000220D233BB44EF2BC3E8B51BDE741B43CCD
:1027E0001B5F043DC101DDBC74E49C3D5655783C43
:1027F0004425AABD378C9E3D805B123D478D59BD57
:102800003BF0063DA53CB7BD771DB9BC7012FD3A43
:10281000C0E3BCBD0F7E43BC88E6213DF48F6ABD9A
:102820005C10213C80CC38BDA0C2BDBDC7D860BD06
:102830005810A03DF84943BD45333CBD06DE1BBDE5
:10284000394C873C78FE87BDCCC9C83C66F1A8BD31
:1028500086AC59BDCEB6BDBDA936773D35F48BBD2E
:10286000A574923D18902E3DDF6CB63CB95D8DBCD1
:10287000B314A33C4439BEBC6731603D51FF5BBD1E
:1028800035E0B53CE2EA74BDF5DE573D39A0A93D1F
:10289000C13DBCBCDAB22ABD6F6C003C9AD6313D5A
:1028A00047369C3D1E8F283DD01D713D48E898BAA3
:1028B000D3E538BD156380BC15A80BBD9F7484BDDE
:1028C000272036BDD9DC973C7302AA3DF27F89BD33
:1028D000B25BB4BD077ED3BB37ADB7BDC9688A3D17
:1028E0000E03A53CBE03193DAA1E813D49B2AABDF7
:1028F000CF7E5F3DC2409FBD06088F3DF99C3CBD29
:102900008B7E753DB2E4883A0795F9BCF674B43D08
:10291000605C47B986CC69BD49280E3D6FF9193D09
:10292000A0FD02BD80A57A3D6AE7B8BDF9593DBD5D
:1029300084AD7BBD0DCE94BC4021B43DB1D6843D69
:10294000668568BDECB14F3D859F183DCF0F563A67
:1029500049BF5D3D2CD91FBC28AB26BB1899D0BC04
:102960002695AABD60313BBD201FA5BD4B327DBD64
:10297000A53B8D3DDC6DD7BCD86395BA38E053BD1F
:10298000719373BD28F24A3D6FE25FBD444B48BD71
:102990006F60573D60B8B7BD2D3927BD7BBABFBC4E
:1029A000409142BBA1237EBD53D70E3CE7C8C0BDBA
:1029B0008788A43C221FFBBB9E7E20BD51E3933D34
:1029C000786D8B3D5B02563DA97690BD2568273D0D
:1029D0001F11343CEB89563DC583DABA7B6BC0BD11
:1029E0004C1C6CBD4A53ED3C28E2DA3C72BA313DD6
:1029F000FC38203D0970693CB6EFA5BC5C60683DC1
:102A00001BF9EA3C43EAD03CD3E5733D1C1643BDB9
:102A10006379ABBDBD68C8BDE69D823D78DA6B3D8C
:102A20005D30A43D7D7A36BD4F8179BDF01DB23D4C
:102A300081FC11BDDCD9B1BD63D459BC53E8B5BD2F
:102A40008DCB5CBDECAA2CBD981A763DE4D316BDA7
:102A50003FB936BC105E23BD1423823DEFAA62BD90
:102A60008D60853D593910BD607B9D3DAD13C2BB66
:102A7000A6A53DBDF0264E3D569289BDC6BD97BD6B
:102A800073F484BCA30F2BBC04A8893A0BA9823D24
:102A90006EC525BDB2D56D3A997FA63CFB9DF73C2E
:102AA0004ECEA03D1BD3C0BD81491A3C9F045DBDE5
:102AB0000E8B8CBD0C220EBC48531DBD21AD92BDAA
:102AC00008E79FBDF043C2BD25D18D3D42EB8D3C53
:102AD00026C671BDC705A7BCFDE03EBAE8EEDE3CE8
:102AE0006ADD413DA1958CBB37706E3DD2025FBC63
:102AF000AD258F3CEC0C57BDD1C0643CBCB0AF39A8
:102B0000FBCDD0BC211D27BCB1589CBD888ED33CC9
:102B10002EBF7E3BDA048B3CA6EE083D1B77DCBC67
:102B2000F1ACBB3C278B58BC36862D3DC2C58DBD54
:102B300055F024BDE506B3BCF47C4BBDD38859BC2D
:102B4000AA730F3C5FEFFA3CFF7783BD149CD23C25
:102B50000CCAA53D3397B0BDBF07C7BDA427973D9D
:102B600023C7703D9275A1BD035514BD43316B3C25
:102B7000C6D2BDBDFB9382BD0A10F9BC2989CC3CED
:102B80009D925BBD2AA1853D345F113D737F3ABDA7
:102B9000C27C6FBD7B0EC2BD8C8546BD027FF53CFD
:102BA00015FF87BD4A345EBD99AAB8BD21B73B3D2C
:102BB000409ACCBD09ADA7BDDA52093D347FDEBADB
:102BC0003E6F0A3D34B8043D077C59BD4C3B75BD92
:102BD000C9F99BBDAD7AA53D0BB597BC724A26BC21
:102BE00028364D3D069FC1BD845ACFBDF3397FBD08
:102BF000CDA0A0BDB28A88BC2CD8AEBC8F1A863DB1
:102C000094700DBD77BC1D3B22D17B3DFB711EBD79
:102C100032252C3DE18E163DE2CDA83D70E8BABDCF
:102C2000400D91BD856DAB3C07AD0F3DFA169C3D47
:102C30002AC8873C173DABBD789E00BD54B8783D8F
:102C40009156833CB710BDBC2100B6BD718410BD48
:102C500073FC8B3CE728CDBDF37DA0BD2E4B973D8B
:102C6000CDAFC6BD4F403C3DA8CA77BD10F7853DEE
:102C700076627BBD070685BD17EFAD3D338BFD3A10
:102C800078949ABCE821103C5149213D39A1A93CD6
:102C9000F8AA86BD6838E93BE211923BA8DB08BD83
:102CA0005C8357BDB8592BBD8964253B37C55A3D58
:102CB000C8603C3D9977A33D628970BD9C6E283CFD
:102CC00036E6A03B4EAD403D0E8169BCF10F70BDB4
:102CD000FB4BCCBD08E8C83C2C7405BD9B694D3D41
:102CE00003652A3D7F976E3CF6FFA43B40F081BD13
:102CF00097F265BD7DCBAABCB641A9BD254BB03DC1
:102D0000CF13383D3549003D30645C3B64A55FBD61
:102D1000E74FB03D0ECD4CBA203CAA3DAC76BE3C50
:102D2000A9EFA1BDD2E85ABD737505BD95A3883D35
:102D3000266E27BDB00047BDB3BC903C9E7DA4BDB0
:102D4000EFB2AD3CBC912ABD1ABAAC3D71EA82BC6F
:102D50008CEF89BD17F74BBB6A75023D0D57413D9E
:102D6000096BBCBDDA53F43B282E88BDA57864BB43
:102D7000525B8FBD8746DF3C613C123C82D7A6BDCB
:102D8000DB024DBD26695BBDE49D20BD5B7C053D3E
:102D90001F129BBDA88B03BD11E23A3A562B89BD89
:102DA0004DD2693C9BCBF0BCAADF393D2A26ACBC96
:102DB00077B2A6BDE126E73A63978A3C38F4ADBD09
:102DC00062F16BBC30BEEB3C0A17A13DACAA29BD39
:102DD000A1E9163D78B74BBD5FE766BC5E40073D95
:102DE000C8331DBB9F0A613DFBEF753CD01CA23C64
:102DF000C9EF813CD108A0BD755EBCBD049BA43D5C
:102E00007C382FBD9551BEBDD110873D744CE1BBC0
:102E1000653284BD152CB6BDF16F8BBC1AE09C3DAC
:102E200034A894BD9D3F10BDD7062EBCFEDABDBDB3
:102E300038B73F3DD3F187BD0B44133D0ADD52BD8A
:102E4000507997BD9D83B7BD9C67E8BCCD995D3D2A
:102E5000087124BDCC2B70BDCFEFCA3CEEABD2BC09
:102E600043F45DBD20CF76BD92D47CBCFA9B08BDF7
:102E70003993FC3CD6C0853DD34E7E3D517425BD73
:102E8000EF07383DD61590BC961782BD0AC2AABD81
:102E9000B0701FBDC5C81E3D890D01BDA8583E3D7F
:102EA000977797BCB19A853C88CCA2BB2FB1AE3B3B
:102EB0001F88B2BD26CFB53C6CBCB8BDA86F56BD4F
:102EC000D4718FBD585E64BDDF866C3B6D4F0F3D86
:102ED000054E8BBC2A4A2FBD5E896ABDA15C65BDCB
:102EE000B7672DBD77FDA2BDDA32A23DAC6F403B86
:102EF000792548BD9D2F383D2446A23DEC0D813DEE
:102F0000BC0C31BB76D080BC9689803B90E2A0BDE2
:102F100057F7BC3CC3FCD73CBED9B9BD505D3B3D67
:102F2000DA4FC9BD92E8B1BD61BBB3BD02FDBCBD06
:102F30001CD208BD5EF5E23CFA3D7B3D8C903F3DE6
:102F40006D2D19BC8B501B3DA68A34BD79CAEFBCD0
:102F5000F35443BCD0CDA93DB3A3A03D0A7AAB3D09
:102F6000162B3C3CACA0963D335658BCA00918BD6E
:102F700059BDE2BB22548BBD11B3343DDE6D5C3DC7
:102F800048C9A9BDA0846A3D06C4BCBD4B20813D93
:102F90000E34CC3C2E7D07BD50162B3CDF27323D36
:102FA0007788D5BD529C23BD848FAFBD8F0B273D45
:102FB0006903893DDD65113CA8EE673D05418FBC85
:102FC0004EE85DBDFF92963CA2221A3C1F519BBD6C
:102FD000669DA53C3DC6673DDE79E93A9600353CE5
:102FE00090DCC2BD1923633D08518C3DFEF69CBDAB
:102FF000866EBE3CB8669BBD4CA28ABDF15C5F3D4F
:10300000C37C9FBD0E78BF3CD6B2893D852A5ABD90
:103010002DE61FBD9484B9BC045BB9BDBA3A33BD7B
:10302000EECA4FBD5FDA5DBD88339E3D63F38B3DD5
:103030004CD455BDE9B0DCBC3185183DFDA9673CD9
:1030400077EEEB3CEF1772BC305F99BD2614553D0F
:103050008FE7A2BA57CA1A3DDC9DA9BB837A9E3D71
:10306000D5C2A6BDCC36903D177209BD32E2CCBDAB
:10307000F13836BDB12A8D3D6498933C3CA7A2BD82
:10308000615D92BD80E913BDA3BA583D5DCBCBBD58
:1030900094AF91BD97A4B4BDBED5993D43D29C3D9C
:1030A0008DB99D3BB58C303DE89641BD9479B1BC5E
:1030B00000BA02BC4D30273D50ED6B3DE3CC98BDCE
:1030C000CB52413DA354F93C2E4F2C3DE347063DE6
:1030D0004B816E3ACB502DBCB3FA903B010B383D7F
:1030E00025FE16BDF3509B3C97C7A13D90B0EA3C2E
:1030F0001FE5073D67BF9D3BA65D5D3D5DD7133C6A
:10310000C76495BDBBECC43CAE32473D4B68ADBD1A
:103110000EA1C8BDAED0EB3C4676043D7AC22FBDB1
:1031200034F5A33D02D499BD4BB03C3C6CFCA93DA9
:10313000FA56B43D7800D83CFCFC663B440F893D10
:10314000F8EE88BD175AED3C4D2E243DC34D3F3A55
:103150001152C1BD1582BEBD8A82833D020B88BD5E
:10316000EB9FFFBCC0D1EB3C3BBB3ABDC36F94BDF2
:10317000111E683DAF76D43C3DD883BD06908A3D94
:10318000F121893DE002823C0967B1BC91F58BBD1C
:10319000C6CC2B3D24DEA9BD7F05143D698943BD06
:1031A00088A254BDA04586BD185236BDC81336BB93
:1031B000BEF19C3C3C83C63C13DE86BDDCF19B3DEE
:1031C000E22CF0BCD080D3BC6A8E8FBDDD7A883D06
:1031D000952097BC230FA63DB928B9BA33A7893DDE
:1031E000A2B2EF3C5FD0AFBD55EFA6BDBAFA58BD55
:1031F0006AD29CBC826312BC6A97BEBDD316663D80
:1032000074179F3D83E4273DBEE3A3BDB78007BD90
:10321000BC50B53D9EF3E1BD54EAC73CFB61173C91
:1032200066EA39BCD9E61DBDDB189D3D7DEE7EBD4D
:10323000C72F583D43CB66BCD63A0E3C58DD85BD02
:103240000333373DF80387BDC18DD43C4F7144BC77
:10325000EC8F5FBD1C356ABC5B992ABD14FACABCF1
:10326000B15E303DBE5A39BC5269A33D914092BD1A
:10327000F1247D3C0CF5CB3BD50864BC30C2443D09
:1032800075F78A3DEB9FCC3C342C2A3B3EB8A2BD5F
:10329000EE6802BD70CC943DA45BCDBD4DF5BDBDC7
:1032A00006D1A7BD8291C3BDFA43923DA2F9E6BC07
:1032B000095C2CBDCCB3293D6AEB083D05193DBD29
:1032C0000A25003CAB8A7B3D782CE2BCEA63EDBC6E
:1032D00088B36FBD906849BD63348EBD85BE9E3C8A
:1032E0002C445A3CA9896F3C22012DBD5FFD33BDA2
:1032F000C94E913DEC9E2DBD8E0B9BBDC0A4A53A41
:1033000045154DBD02683CBDE79882BD5634903DE1
:103310003E2D0EBDA1B3813D60038BBD97FA693D83
:103320001B6CB1BB876877BDCCE6863DB00A473DD4
:10333000DA8702BC4A9D003DB7369EBD4B76DDBDA7
:103340006C43DE3CC8CF7BBA24CFAFBD595FB2BD62
:103350004FAD21BCDC140E3DBE62953D3CD9BDBCD9
:10336000FCC912BD3E1B9CBDFFF00FBDA155843CA6
:103370001B9EC6BDEAAD983D93291C3D81FD5BBCFB
:10338000B993F7BCAB81C03DC9BEE1BBFBB39C3D6B
:10339000598CD4BD3A1BB5BDF2491C3DB3F325BCD5
:1033A0001BDC6FBDF1AC3FBA31FE66BDB5B69D3DCD
:1033B00023A848BDD5DC773D909F0D3DADB403BC3F
:1033C0009490063DE394953DB467AD3CCD85933D27
:1033D000E05B54BD4CC40DBC807189BDBB1A53BDAC
:1033E000FAFDB1BD2D6FA23CBAF477BDA35C443D9C
:1033F000842E65BC3F23283D421A8BBDF381963D48
:10340000539272BD51AAC63C1512303D3E4D943DBB
:10341000DE9E5EBD7303673DE17EB5BD826EC4B8BE
:10342000C9615C3CF3B79F3DAEC328BDDD03A8BDB9
:10343000BF12B83CCBC6233C782C573DA23A213D65
:103440004C3EBDBD6A0B80BD807384BDE9ED9ABD65
:103450007AC53E3DDCF75BBAAC2477BDC72F243D6F
:10346000100EA0BD745339BDE795B4BCF42E9ABDBF
:10347000A9B650BDAED4DDBC75D508BC439A213D7C
:1034800068C8893C5F46A5BB545E453B8C43AE3D56
:10349000B04FA2BD87EAA63D3E44973CB98D4DBDD5
:1034A000112FBC3B9FAA88BDB59C883CC19521BD0E
:1034B000AB095ABD09068F3D0FF086BDD25CAC3D0D
:1034C000D0EC963C7752DBBCD704A2BCB4E992BDE9
:1034D000247D42BCF38DA9BDCF7EFDBC4B71C33BA7
:1034E0006DB902BDD7BB9F3DBE33C0BD96379BBDF6
:1034F000569F8C3D4ED52FBC06B767BD2A27553D3C
:1035000086D1863DA9AFE0BBE40EDCBC4432A5BD4C
:10351000BD78ACBD9D2412BC4BAB4ABD3C17A13D50
:10352000903AC13C01B9CFBC7CEF17BDFBB3BC3CAA
:1035300010FC82BC561F9DBC58D0753D75335C3C59
:103540002078693D258A68BD58AB26BD5CF49CBDDA
:10355000A043F93CE60E2EBDB2A1D7BCB4C0AB3C33
:10356000797A66BDCEAA833DB9415ABDF7A4653DBF
:1035700044AE6FBDCACF163C012F19BD6E7C20BD75
:1035800003AE953CCD4F1ABD0CCE423DBD29983DB2
:10359000634A1F3D4652443D9A731F3DCC893ABD54
:1035A0006C35D3BC7BFB73BDE580BABD7612C9BD5B
:1035B000C9C5DAB85106ED3C413F423D24E8BC3C68
:1035C000C8A2AF3D38FB27BDC450683D353827BD84
:1035D000EB92C9BB72CF593D08F7C6BC8D493CBCC4
:1035E000586D743D8A9E1ABDCE969F3DD2D6AE3D93
:1035F0002D5F933DBD98323B456AE93C48218CBD27
:10360000CF13A8BC7E6687BD089B2CBB0F73893D7A
:1036100044074B3D3CE477BCB98DB2BDD748AC3DC7
:1036200004E3ED3C0FDF11BDE75DBFBAC2DE75BD3F
:10363000863C09BDFCF05CBD13EC06BCA1F94A3D1B
:10364000ED46B0BD547997BCF2234DBD716BDB3BA9
:103650009C58573BCA66973D7ACBCABDAEAB9CBD62
:1036600093645EBCB8693FBDBAFA9CBD03870F3D49
:1036700031EDCEBC265499BD897D18BD0233B5BD50
:10368000EB74B83DCA76DDBBEEBD5FBD51FA3F3D80
:10369000E7F84EBD99BD5E3C03FAA9BD092ED0BD29
:1036A000D30549BD76BFB8BD90B4123D91A990BD78
:1036B0004B03983C2DEF1DBD9A46F73CB278D6BB24
:1036C000D4FDE5BDFEA7C73C470D3BBD55E4CB3C53
:1036D000D702A33CBCDC943D6B3F3F3D60DF333DF4
:1036E000023AC6BCCB025C3D50CCB1BD69574EBD61
:1036F0007F70C1BCD62E6A3C2B29AE3D4DC47C3DAB
:1037000078DA60BAAA63D9BD278801BDA11ED4BDED
:1037100046C65CBD50A371BDD99F0D3BB6A7163DF3
:1037200016F198BD77C0703D0EECAFBD263CE8BCED
:10373000477D823D01BDB2BD4AB24A3DC8C4993DF4
:10374000E98003BC48F0E3BC220B923D339C99BD59
:10375000430BB9BD845302BDAF553D3BFB9592BDB4
:1037600047319F3D05DFAABD6BC1933D45A8F4BC21
:10377000841F95BDFC3198BD3EEE92BD1E3BBFBC83
:103780000C1DE93CE990D93CC10BD6BD31A7F1BC79
:10379000C67D253D2F8BFDBCE81F65BD709577BDAF
:1037A0000470FE3B122AB23DA8DE75BD293ACFBD9A
:1037B0002654BCBD4C361238BE82B4BDF7844EBC14
:1037C00085A478BC2A3804BDB3DD953B50FA123D80
:1037D00039B2F2BD84199CBCF4E9A4BCCF42E7BD68
:1037E00028A96C3D0DDCC1BC49AEBABC52F610BD77
:1037F0000B60A73C3B56E8BD065D58BC29A39CBDA9
:10380000320327BE1D48AFBDBD0E013CD3D2F6BD6D
:10381000FEA6133DF1BCCDBDCE5005BD6D303F3D84
:103820001FA4423DB5C3933D03C0113CBA3D9C3A31
:1038300030D25A3D2AF6D0BDF8C0D1BBE345CABD4F
:10384000F297BFBC6D5D81BCACDBBD3BD226363D83
:10385000B8B483BD4C05223DA4BF8DBCDF8B55BDE4
:10386000E24B68BD946AE5BDC89CA63C3487CC3C5D
:10387000C03F8DBBEB61C03CEC473EBCD715463D1D
:10388000E79942BD6E342BBC9A35CCBD25B7473D78
:1038900024D4BD3CF8B200BE51F4DCBC94BB95BD51
:1038A000E8E495BDC6FF94BDAD109A3DC048C23C4A
:1038B0000AE39DBC96B2E33C4233653D7D5B96BD19
:1038C0009799D03D46CDEEBD77A0D8BD5EC89FBDCF
:1038D000EE0E9ABD7B7AC5BD7FF32A3D40D64D3DA5
:1038E000094D8CBD9F0BD4BB6199D2BC54F6EABD87
:1038F000E8238B3DC7B1463DBA9E433CE1C4933DAE
:103900006243223DAED8CDBDAD2FD5B978B26CBDE6
:10391000D14D253C86A9533D1EBC32BD9CE6AEBDB3
:103920008328D4BDEC11AB3C2A8C18BDBE65983DF4
:10393000043236BCC70E8EBD4AFB47BDA651003DC2
:10394000E0B7C0BDB6CCC1BBCADBBFBC503F893DF0
:10395000D2A5EEBC7FC61D3D094C383D60829BBCA4
:1039600050C98B3DCE72B7BDBF5C97BCC8BC94BD7F
:103970009B9CB4BDB4C8F13A6E8278BDF803B8BC64
:10398000BCC2BF3C61B2063C0A395F3DA38F9BBC01
:10399000942898BD98380EBDE463693C51782D3D5C
:1039A000E35924BC4FD92A3D661A5B3D6496E4BDB9
:1039B000C373BDBD6FCF6CBD32F5C4BC6ED074BDDA
:1039C0008084D2BD16DE2D3D5CDFE6BB70303DBC91
:1039D00059F3A4BDE18C4FBD42ED74BDBF0A69BD72
:1039E0002EF8823CD9BD4E3DB5E9E93D39FB04BC1A
:1039F0008A0D4F3D95A738BEC0FA633C1D2A3ABDDB
:103A00001E498C3D1E8802BD698B863D485AAABD61
:103A10008AD0CA3B227F2A3EEEC2343D99DAE8BD05
:103A200083DC8A3DD2288BBAE0B5903CD738AF3DD5
:103A300062568BBDEFC959BDBA8F8E3C921B15BA29
:103A40003A5321BE2433E23D2C8D3F3D7195E1BDBB
:103A50008BCBB33D6DE339BAE1B466BDCD646C3E4A
:103A6000F226CBBDFF0399BCD9F4873D8774AEBD68
:103A70005AEA44BDF37815BF4CBC473E1458C3BC4A
:103A8000E8E7DCBDED52333C2F1600BD7DF747BCA7
:103A9000D57D27BEF0DFC53D59FA453D7105C6BD50
:103AA0000C2ED0BD547231BCABF32EBD82F1ADBD36
:103AB0008FB7A2BDF9406DBC0D93C23D6153F63D79
:103AC00030FA96BDB124D33CDFDF47BCC3CEA73D5F
:103AD0000CA7103A5824803D0DB7803D2A7F7A3CD0
:103AE000A09E11BDA67CD1B9A691B0BC62D52CBC5C
:103AF0001079A2BDB5334DBD6EF3EEBDC762EA3B92
:103B0000787A6ABC16983A3D7015AC3D2406C83DDB
:103B1000DF7F2C3E607EE1BDD98BBEBCFF0087BD40
:103B2000A22C9C3D876A27BA5A44033D2AF789BCD8
:103B30005D3E9DBC3D49F63C1649AB3D3088543D49
:103B4000B4AE70BC1603CEBD9B304E3C03163B3B5F
:103B500002861FBD089D81BCFA73333E3D57BF3DB1
:103B60007114A53D367CC83D4D9D61BDD67BD33DCE
:103B70009CEFB13DFF324DBDB9F2DC3C8966EDBD35
:103B8000863AECBCF94A0A3E87F876BD64265FBCEB
:103B9000D490CD3DA3F8F0BDAAEA2B3CB260F3BEB1
:103BA0006F9CE63D8CDF1ABA765BFFBBBD726C3D45
:103BB000A4D400BE7B1BEC3B762CB2BD35B8853D52
:103BC000A358FFBD9541783DB2E74A3D40190FBD6E
:103BD00033C9A73A3E77F63C89C59ABDB4E4C2BD65
:103BE0006D9E95BDC170273E1DDEEFBDA145A13D77
:103BF000E1D983BC9C5706BBA68B133D2619BABCE2
:103C00003F73B3BD73CD3D3DE30973BD3B157A3DB5
:103C1000B994D6BC416F25BDEAD72CBDAFE550BDE8
:103C2000CFA614BECA89E13D2EC0C8BCE77BCE3CFE
:103C3000200899BD095D253D99051B3E3DA98F3D95
:103C4000D8BA843D88A317BC2C4BD3BAA52E1CBC74
:103C500043D03C3D3E1CA83D160052BDBDF8BF3DC3
:103C60006484BA3DFC95223E9A7A97BC6CFCC73AB4
:103C7000875147BDAD53533E2F2B6C3D20094E3D20
:103C800054658D3EECC5C03D328F213E56AAF93DAC
:103C90008FEB033CDFCDB83D8AC39C3E0338223D09
:103CA0006D4DBA3D9A52E4BDF0C28FBD5EE0083D55
:103CB000D36733BE05E679BCD776043EF47D5BBBA3
:103CC0008402BC3DFD3704BF1CBEC6BB8FB295BD90
:103CD000862DBEBB3028CABD6432C9BC3CE6943CCC
:103CE000906813BE5DC77F3D7AA390BD077CE53C1D
:103CF000F147023D0EBEA33C622302BD111C48BD2C
:103D000069CB713D28487DBD4775D7BD7508523DCB
:103D1000CDFEFCBC710BFE3DD3B5DFBDEC4E9BBDB3
:103D200040488CBD7E1CB7BC373B1C3D3C1F87BD4B
:103D3000924432BD1F2378BDF939343DB7A6C43D46
:103D4000B96D60BD63851DBDD41AFCBDEC10F23C9D
:103D5000F02E89BD5C63AE3D7FEBD0BDCF1724BD97
:103D6000B5116F3E2681C13D2B691E3CCDF1173E3A
:103D7000EDDEA9BCE4E426BD684E143E60081B3E9F
:103D8000A84C0CBD436F873D797E8FBD0AED7E3C0C
:103D9000C723A03D62AB6BBB8E6E8FBDE3CAAF3E47
:103DA000A9E5D83B3F5A81BDCC08D53ED9129EBC6F
:103DB0001FC7BC3D50AB7C3EBF53F63BA5B3493E4D
:103DC0000BA4203E4456903DC2A2D83D2543C1BD20
:103DD000B9A940BDD011AC3D187444BDC82D363EC4
:103DE0001406B83DDE696DBDADFF413D5B2BA0BE45
:103DF0003BCD8F3DC251B7BD07071DBE9700B5BD76
:103E0000EBFD32BDFDCC7CBD281313BE072256BD91
:103E10004F57AEBD0BD71B3D0DAD12BDA1C61BBD8F
:103E2000C0915BBD3D2C443CBDA822BD443028BEA2
:103E3000A42658BDAB8E76BC2F3CA0BD0E48473D96
:103E40000C3F31BE31B088BD6A5FEBBDF58328BE43
:103E500071B8BEBDC82609BE822CABBDB79F29BDB7
:103E6000DFD829BB63C2C9BA8724C7BB192029BEC2
:103E7000C09E88BD7FE078BD0AAB81BD07106F3E54
:103E80008938D2BD66D932BDFEC05D3E27DB3BBD61
:103E9000D27D36BDFBD0923E931E71BD490C30BD24
:103EA000DA6F873E0B0A013974CDA83AAFDD243EA4
:103EB000E880AE3D7209663D0C173E3ECABCB13D7E
:103EC0004FF6253DD26A023F3D4E723D986246BC98
:103ED000FC000B3FB22A123E9E4E9CBDE022F03DFC
:103EE00065559D3DC9F7953D5CBA873E15335C3EEF
:103EF000909D263D9780743C2CF833BCA5A4C53D0D
:103F00009C68EEBDC95FDA3D88A4343ECAF76FBC39
:103F1000ABA4C7BC17AF0ABDE7AE473D5538D53C8B
:103F2000F12933BE0480B5BD055A17BE78CF84BCD5
:103F3000B6E0BABBB99BE1BD7233E4BBA157D5BDB6
:103F400055430C3CE54A01BE93E306BEB2CF903A1E
:103F50002D2BE23B6A7046BD853DE7BDB7D0723D73
:103F6000614412BE9B2F4E3D0873B4BD45111ABE6D
:103F70004C0F9EBDDEE9D9BDB406D9BD0183F9BDA4
:103F8000E53A5C3D80777ABE69169ABB46442ABE04
:103F900073EE2DBC2C0914BEEFB1F13B6318D0BDFC
:103FA0002F74C5BDEB9EA9BCFD47A5BDD199C0BD71
:103FB0001B3069BD540B7D3D267A313D1FC1FD3B51
:103FC000A5B8D33BFBA489BD2F65C2BCFF1289BD38
:103FD0006DEBB7BD2A65F8BCA5A80EBD2935A43D7B
:103FE0008EE7CDBB8A83C9BD92AB9F3D7D4CA63D7C
:103FF0004343373DBDAA5A3D180840BB430585BB26
:104000005E3DA13C5C9C463D2E5B0C3D626506BD61
:104010000394A53D44383EBD120B9B3DDD2523BCDA
:104020005F7EDABC22BDB5BC1EF831BDEFD08D3D40
:10403000C2E1CCBC8FCC96BDA51E9B3D433A80BC53
:104040001F8D0ABDE8D08FBD1DB2C1BD23700F3DCD
:1040500059B76C3C0833D5BC30B0883D1FC6973D7E
:10406000513F9ABD008D98BDB9DE8F3DB5CA843DE4
:10407000B76783BCFBA47E3D2820BD3C71F657BDCD
:1040800076CF833DE6B48F3D4A5F9ABD7643313C9F
:10409000E2E8823B1B0B313D35D5EEBBCBFD853DC8
:1040A000A8588E3DB6FCCCBCB79EA5BD9F12A2BD44
:1040B00032AEEABC049994BDF735A83BA5F591BD95
:1040C0006DBB043C9D69C5BABDF3603D483759BC22
:1040D000DA23B3BD8A5269BDD1188F3DE4BC8BB9D8
:1040E00064652C3CD62440BBB4A9FFBBB84DB23CA0
:1040F0003AE73E3D45648A3DF215A73DF0231CBDDD
:104100001C1BEBBC8FD3B33C17197B3D819D9ABD23
:1041100031D79ABD89C9E73C895F5F3C17F011BD73
:104120005D83103D0FED46BD1D6E833D3AA5123DEA
:104130006FC0193D8B7D80BD231A7EBD8C0DA2BD45
:10414000123B4B3C823E1B3CB2A1C03B93B5823D2F
:10415000B845C5BDFC0990BDFE2ED33BEFEDF5BCC7
:10416000D73731BBC7AEE339179CB5BD9937343D5E
:10417000AEF928BD3E64463D239BD2BC4B318EBC7C
:10418000B3AD0A3D9B1D79BD016D193D826E273C83
:1041900045FD7A3DBE438EBD1E1C81BDC9CBC2BD4F
:1041A000BE0B143D316B11BDDF3C293D7D039E3DAF
:1041B0002F0153BDEE106ABDB1B4053D5EF36CBC7A
:1041C000961EA6BC12D69DBA3D7B133D921902BC29
:1041D000EED3133D3F6A84BD1569903C01984ABDFA
:1041E000358A08BD8CE4CCBC61647A3D1EF991BB74
:1041F000E48F3D3D8DDBEB3BDF05B4BD01E3E23CED
:10420000259FB8BD2AA615BDC05B063CCA01AABC45
:10421000F233D7BCC972643B05CCBD3C5798853C92
:104220009AE264BC8282523DAB19F7BC7000E83A56
:1042300073D6873B2BB87ABDB3CC22BD1F7FD1BCD0
:10424000FEB292BD2EA2CABDD1D2BBBDE152C9BD44
:104250002A18C33C77F21E3B36E1B2BDED594C3C07
:1042600069638A3C44B3A93DF608A83C3A202D3D39
:10427000E78B09BD1A2F2C3DEFCAA53D277CAFBDAA
:1042800057A0A03D4D816B3DBFC0C0BD63DD493D22
:1042900016B100BC2ED55FBDCF0AA43D7A7692BD83
:1042A000865166BD1ECA1C3DAA69C93C008885BDF1
:1042B000CB42983D3736A73DBD6A423DB8A59F3DEC
:1042C000ACDF26BD1BB9BBBB9B79A93D17CD0E3D0D
:1042D000B522403C87B5F5BB28950FBDE291863CE1
:1042E000CB7771BD536817BC9248A13D15949B3B99
:1042F0004E2DFF3C057FA0BD0AFEA3BD2E95083DB7
:104300003EDD613D18375E3D10076ABC6ACCA2BC39
:10431000A6ACC7BD6F34123DB296123DB97D3FBD0C
:10432000092401BDF78775BDAA4E81BDAFAA523DD4
:10433000956D29BDEE4B913DFFDA2BBDBF7152BD8E
:104340007CF691BD3681993D0E7F3ABDE311C8BD23
:10435000B40893BD83F6CD3B566C8BBBC64A713D0A
:1043600001E9B2BDAB584CBD1101C7BD2C8E0CBDCF
:10437000DF53BCBD558896BDECAE0C3C92EA283D9F
:10438000271E183DE32ABABDD32D74BD1EEFB9BD5B
:10439000EDAF0D3D65ABA8BD9242443D66C3A7BDE0
:1043A000208C5FBC42238EBDECF088BCC7BB88BDAF
:1043B0003FBF34BD431B723C519F55BDD495473D13
:1043C0001B539D3D540AC1BDCEB66CBD0D255CBCD2
:1043D000DA4B483DF846D23B09AF343C5686513D56
:1043E000DBE4523CFE44043A9DA079BD9C06A53D09
:1043F000E341533DCA9474BD95E7AABDB55CC8BC02
:10440000033A4B3C6E64883C5A0276BD5552B63C2A
:10441000ACB87BBC500A10BDA98245BD22370A3C0E
:10442000EE76A33A4445BD3CE1999FBDAB077E3D86
:1044300088A740BDBC861A3DBDF59E3DA8DD62BC87
:10444000BAF9943DA77E42BC6D1291BD09CB0D3DDA
:104450003AFFEBB860B1B1BD181C14BDA88AB3BD5A
:104460000D7793BDD988973D51285EBC99EE40BD2C
:104470005AE0B7BD7247283D943B92BD8374363DE8
:1044800099BE76BD2E2A06BD57829F3DCCAA3FBD60
:10449000DC6925BDFA4D23BD0CDCD63C944749BDF3
:1044A00089981E3D7DAB243D665260BD81817E3D75
:1044B000706E98BD9AEF7B3D4A0746BDA07BACBDB0
:1044C000927E26BD32644D3D3E5765BC7FB7C4BC6D
:1044D000C1FB3D3D91A340BDC2BC41BC15E0913D37
:1044E000D17DCABB8D7E5B3DD9B5883DD019F0BC6E
:1044F0000F54493C7230333DF946083D247A8F3DD4
:10450000014BF03C116E6E3B4FF9BCBC6411D4BD45
:104510005AB39C3C4EE357BDAD5369BB99306DBD5A
:10452000D2367EBD27E407BC3599273DF579A63CF8
:10453000E9E624BDF4444A3C4E2B603D72FA4EBC81
:1045400016EDBCBD1DA55EBDA15675BD8406893D99
:104550000437B0BCA900D4BD14A8373D25E56B3D98
:1045600024D2B4BD3A7C4C3DA3666DBD39F392BDF7
:10457000D28591BD709496BAD90B9D3DA5488ABD50
:10458000CEB18A3D44E81D3D6DC4793D2DC7AEBD19
:10459000393FBEBDC09A143C422B2A3D1A5080BD03
:1045A000F267B9BD48B6E13C813C87BD296E323D1A
:1045B000C95FA5BD49206E3D2EB526BD2B31A73C58
:1045C0004885AB3C6E9A4EBDB5EDABBD656B4DBD40
:1045D000496FD6BBAEEEE9BC7E3ABEBCDC73CA3CCA
:1045E000577A26BDFF86C6BA7421AB3DCA875A3DAD
:1045F000DBAB9FBDC3717D3CA246953A763785BD46
:10460000DE7BADBD303FACBD40C0933DB8FA693CE8
:1046100007539E3D4604223D006E7FBD4687633DA5
:1046200059A6EFBCCB60533D5B5BED3C711F483D31
:104630005EF8A03D4E6061BDE80727BCA1BC0EBD81
:104640000A3F51BD24A50CBD6DCE81BD819D6FBDBE
:10465000D50E083D58F287BB5221FE3CE9F534BD2A
:104660007BD4E6BC9A08C7BD0F2FC1BDB0865C3DA8
:1046700014FC43BDECE0833D5485613CDFC96A3DD9
:104680006237BDBC1975183D7AABC03C81B0C1BD65
:10469000577D923D8325813D959988BD2428B1BBE6
:1046A000F3CCA33C35314D3D1C10EBBB1DABC4BD61
:1046B000617B083D6FA9A43D4EEDB7BDF81E6DBCF2
:1046C0008BE6FD3CE2C49D3C300C6D3C2C3AA83D91
:1046D000942BB0BDA004D03C0CE8533CE3A4943D23
:1046E000E149AB3CE4984EBD86006ABDDC65A23D65
:1046F0005AA594BD887D513C888FA63C0A57C1BC01
:10470000998C9B3D506D5B3D4C3EE53CF7158EBD55
:1047100042637F3D87CA54BD9848243DA5BF9E3D56
:10472000FB9589BD6DA9ABBD2CC97B3D17DDA33CB5
:10473000B351DE3C9CC04CBD5C4FC2BDD04C5CBC98
:10474000D6DB813D609F38BCD19A663DDA2597BDA6
:104750003F64273D2977283D28277ABD0466B4BAEF
:10476000C04D973A2A1DDD3CD3150FBDC55CA5BDD4
:104770003DBDC8BB117CBEBC1022A33D7C246DBBDB
:10478000A6D11C3DE2160BBD1FE0393CA8964E3D5C
:10479000D136A5BD78AD703D529D8ABDA082E83C62
:1047A000A424B03D90112ABC37CA903CA5500C3DC2
:1047B000561DA03D00975A3CD4B2E43C2CB6E73BD2
:1047C00020F3DEBCCFA36EBD551C4E3CAEFB1A3CA5
:1047D0005CE829BDD80CA9BC0F4230BC539AABBDD4
:1047E0005AF7443DC51CA9BD6AA7BEBD3FC290BDD6
:1047F000271C61BC3C0DB6BD5DDA303D588AB8BDA2
:104800006B8D9E3D383CBD3C52E1303AEECD8DBDC6
:10481000A308643D9574BBBD944FC6BD7E0675BAB2
:10482000301B4ABDCD3E7ABDA8249E3D44DB193DD8
:10483000B7C0FC3CC3028B3DDB4BB83C7795B9BDA0
:104840000845BCBDBD528EBDA10B313D799846BB1C
:10485000592EC0BD7F46BCBD9D1C613DB417AE3D09
:10486000E754A83CAF5AD43B050D9F3DBF1A8FBDFE
:10487000FC72DEBC266AC1BDEC0709BCB49AE73CF9
:10488000E258573CC460AC3C328874BB9A2EC4BD1D
:10489000D2772C3D702497BD45758DBDD1DE8BBD83
:1048A000747A7EBC8852A03DD216A13D2C3A9B3D25
:1048B000E13C373D52059DBCF59B883C93E514BD1A
:1048C000DC335B3DC1D72FBD58BE703D4454203D05
:1048D000B8E3E63B66BBBC3C4DE2D9BCB1FBE23C75
:1048E00058B0443DCEB1B8BD772A95BDB9E75B3D20
:1048F000A1B9B4BDC3F33FBCFB5A413C0B9F14BDEF
:104900000FB10E3CCFC9BC3B955C813DE23FF43B0F
:1049100028A5153D20D71D3D6724AA3CC9D42D3CB0
:10492000CCC945BDB6F7DF3C8D0C8CBDB62DC3BCE4
:104930008D3CC1BCC9EC20BDE94A3EBD61F45C3C84
:10494000C4709BBC9BE524BC0F4765BD220A933D08
:10495000114285BCB154073D7A5521BD1EAB3ABD0D
:10496000838E913C6BC3E5BCAC8172BD3703F0BB59
:10497000F7A13ABD80CCA43CE4C0603D59A3963D6C
:1049800013B0ED3C135C81BD0E2495BDDB4AAA3DFE
:10499000124C68BD3C0B8CBDDF093E3BAB6D77BD57
:1049A0009244C33C8852F43CAA74C8BC77C7143DF7
:1049B000FB68C9BD0783A5BD40E9A23D6117843DE1
:1049C00048772FBBE3A4C4BC8DA9A7BD098805BD4A
:1049D0005C81613D2AAAA43D757B63BC3A2A173DE0
:1049E000F9B31ABD6736B3BDF04E513C7B80623DD2
:1049F0009A0F7E3AB496C6BCBAA06FBD9991543D49
:104A00006B0124BD6A8744BCD5B7BA3CF6EFC9BD7B
:104A10007CBBF4BA26C3C9BD713D9EBDEFD458BD61
:104A200055F64C3D9A5B433D1FA2283DBD54A13D28
:104A300057B534BD434EC5BD8A68C3BD91321DBC58
:104A40004142C5BC3E0F98BD9689803CB43DAEBD89
:104A5000ACBBA73BB8985A3DDAFF433D5D9AC1BD58
:104A600051A9813D0695BBBDF40F583CF71B94BD81
:104A70008A7E943B9DD927BD83BEA23DE6EDC7BD8E
:104A800093BED73CEA000C3DE22121BD910F13BD3E
:104A9000AD84A1BB204763BDAA030CBC773CB2BD6B
:104AA000203B183DC4FF49BC81DFB13D15C7033D24
:104AB00030A79E3D35CCA33C6669BA3CF30419BCD3
:104AC0002C8648BCAEF895BD3CFF1C3D9C405F3831
:104AD000D051873D1B7D4C3DF370C2BD9566703D46
:104AE000B31E97BD486AB2BD7732B6BCB90380BD6C
:104AF00055F57CBD4959C9BC62FF9FBC0372C93CD6
:104B00007F222ABC460019BD6AB2553D52688CBB53
:104B1000D19552BDF3A385BD548B903DAB6637BD97
:104B20003FD7B73C845E9EBC74B25EBD69BC5EBDBF
:104B3000107C6C3D7CCF613D74BD2D3DCCFF86BCAF
:104B4000013141BD9EF192BD2866753D82D096BD72
:104B50002809463D68C2B43DAF6796BD9AE18D3DD8
:104B60006BD7A2BDA0B75A3DD433B43D9423F33CD8
:104B7000C41C6A3D884B963D86B3A33D2C06D2BC2F
:104B8000EAFDA93DE03B963BA06F5A3C201D7DBD50
:104B9000784ADD3C64B994BDD48096BDC08D483C54
:104BA00000D7043BDCB7873D60F868BB6C50BBBCEA
:104BB00085D292BDD005D53C58E7113D00BF3FBB23
:104BC000B0C7693C80ACB63D77A86CBD6A6C0BBDC4
:104BD000C874B73D18EFE4BC65572BBDF01BF8BC9B
:104BE000AFA3ACBD927127BD481E4D3CF8B1293D25
:104BF000A2ED34BDA2077DBD7C9C5B3DF03A9F3B9E
:104C00003E4B71BDB35826BD6C59A7BCF087A9BCFB
:104C1000DFBFA5BD8025B7BC8E146ABDA6907BBD45
:104C2000398230BD42A3B23DA07ED4BB22DF8E3D8F
:104C300018C22C3D207E02BDBCF47ABD4C7FD43C12
:104C40003E7121BDF00F8CBB3CC7A73D820F7EBDDE
:104C50002BEE01BDF44AAF3D14BC70BD0450973D2E
:104C600094F0323D0ADBFCBC84DB473D8077C83BD7
:104C7000D4135B3D347CA2BC12B89E3D364341BD8B
:104C8000140BA23C6AB670BD000259BD28F12ABCC3
:104C9000AE009C3DC283A3BD1E5A49BD78D22F3DB4
:104CA00048C9CC3CB241BBBDF243913DE01E98BB2C
:104CB00088BD743D0416ADBC2495FCBC9887F33CBC
:104CC00030FD6D3DF8D4BABCA0254C3B5C182F3D9F
:104CD000425E863D00709239DE248BBD94F3FDBCAC
:104CE0007DDB9CBD0041DB39205DCF3C681D8FBD65
:104CF000F09AAF3BE03FA63B940AA0BDF81D0E3CE6
:104D0000064C9E3D9C38DBBC203AFC3C2FBBB4BD1E
:104D1000E0499C3BC8034F3D499D5EBD601602BB08
:104D20007CA19A3D7868E13C20DA453D3CC96A3D6A
:104D3000CC8328BDCCC9393D10683BBC001BFEBBF1
:104D4000C04BFA3A8FF2A7BDC863C73C0031163D8D
:104D5000371DBDBDE28E9CBD08325F3CC8E9173DE2
:104D60005094BBBCE634843D7833B3BC090D5CBDC4
:104D70003EB974BD17719CBDF435D63CC070E4BB20
:104D800082DA9F3D1023203D746E0F3DA0BBB8BB5F
:104D90001022BB3D8001B9BDF6E58ABD82EEA8BDFB
:104DA00000FEEB3C20B3BD3C5433B7BD8F41B7BDD3
:104DB0002817873CC492EB3C803A913DE083C8BC05
:104DC0008423873C9F4681BDA03F9DBC2EFFA5BD8F
:104DD00004B78BBD11188CBD85F303BDD09A4D3D32
:104DE000B880D53C70A9E43B50EF9DBD66BFA4BD23
:104DF000FCAED6BCA8ECF0BC300DBDBDF834693DAE
:104E0000E8DD423D4F741EBDF81E8CBDDD9B04BD28
:104E100070E2833B6608943D7A2E96BDAA2655BD66
:104E2000983DFFBC10A9723CA8633F3CFA2BB13DF2
:104E30005021083D1065A7BD10898FBD5432943DA7
:104E4000889B8CBC6C2C16BD402B4C3B8872E53C7F
:104E5000846C833DE872AD3D76FF9E3DF819A53C1C
:104E60002E079FBD48ADB23C78BD12BD5C489DBDCC
:104E7000180DB33CFB3A74BD78874DBC03B44EBDEE
:104E8000187A0EBC549438BDB850CA3CACE1D13C41
:104E90005401D7BC4404BEBD98EE2E3D40E7EEBBA6
:104EA00036DB4C3D21FBA83D5DB09BBDC4969BBD50
:104EB00050390FBDA5302EBD5D2DB43D9A1CE33C8D
:104EC000AB42183DDFF0903D249A5EBDBCB5B8BD45
:104ED000BEFD84BC565CA7BD9DC39CBD9B26213BEB
:104EE0008CDFA7BDFFABE0BC9FAE2D3D89075CBD4D
:104EF00007F80EBBB9F7A6BD6E7FC63BBFD0A9BDF4
:104F0000AA5994BDBA9FE6BBBF9D53BDFD61B33C9A
:104F1000AD4008BD5BD70DBC6C8E983D2B2F563D28
:104F2000CF497DBD615B6FBD9C7528BD2EFC743D76
:104F3000041D433D06A123BD4762BEBD6BB2873C45
:104F40008CD5623D73E3A1BDA786A7BCF0AB65BD60
:104F50007EC1AC3D02370DBD6E00663D169FA43D7F
:104F6000A632FCBC29F582BD78D38DBD9EE8633D99
:104F70005859A7BCD385023B1221983DC55589BD20
:104F800095FD1CBDC4D01F3DAB57D9B952D0A33D30
:104F900085D5EABCD880993D1250163DA62DB9BDE5
:104FA00005EE85BD43A4A7BD17781D3D8384AABC2B
:104FB000FE4628BC5390AA3D941CC93B4C8B94BD23
:104FC000DB0217BDCB89A9BD093D84BDF7F9A73D1B
:104FD0005FEDC2BC17FAB8BDCC28FE3C771B2DBDD7
:104FE0008A6B1E3D4EC98FBCB5BEDFBC4B1A4B3C15
:104FF0006CD9363C4D19BCBCF91C20BDDDCBB2BB15
:10500000031D04BD489A963D2B3C24BDEDC690BDC2
:105010006913113C5DDBEE3C70BD303D5DE545BD87
:105020005E03723DD1DE9DBC2675813DFF47EEBB20
:10503000D5BF8CBD685749BDD0E1E0BC31B85D3B00
:10504000AB6DB23C9373DDBCA77191BD258AB5BD34
:10505000B55EF63C0B3E93BD057E423D862777BD8F
:1050600057E7BB3DACE2B53D1A68AA3D002D543C64
:10507000810477BD508693BD2803ABBD40D92F3D39
:105080000B58A8BD9F3158BDEB53B33C6A0A943D01
:1050900084B29CBCC8F480BDB6B934BCD7E5B03D81
:1050A000C4E5B3BDFF2B4EBDDC642F3BFE9D1CBD94
:1050B0005BC996BD506181BAD1A60A3DF42C8F3DE3
:1050C000671B28BDD9BB8F3D154087BB9665B0BD1A
:1050D00019200ABD4874C53B8F958ABDCB87183D02
:1050E000950F46BDE516953DEC55A0BDD80048BAD4
:1050F0009E8901BE88F5593C1D2FFCBCA1EF09BE5D
:105100002157973D8588E5BC899D31BE5986003A77
:10511000735528BC90D5CA3D88EB5BBC158F73BD19
:105120008FDF9ABD1078C73D7CDD2D3D0EA5A6BD55
:10513000A4FA863B64E92EBDC56E853D90C1CD3C89
:10514000C4D1333D3EEBFFBD6BD508BDC900D2BD18
:10515000A49E97BDAED8CEBCF7CAD7BD430A14BD36
:10516000D32103BEF43FCABCCB639CBC043CCDBC82
:10517000DE99863D085A1F3D6845933C137B823E6D
:1051800015A02A3E6EC5B1BCB6A6AE3C383636BEBA
:10519000FA3083BDE5FB213D57E2BA3D3AACB63D5E
:1051A000F3D63C3D40EFC43CA600013EF0A141BA1D
:1051B0005C46F13DFBF6053D284561BBB3D0F83CAC
:1051C000A3C53EBCDFA7ACBC1FB45B3D6AF53E3D4A
:1051D0003C4F083EB99740BC23E9243C4FCB58BD17
:1051E000FD04F13D88C35ABDF1AE423D72B4B0BC7E
:1051F000DEA3A13D76BCDF3C14C7923DB3679E3D64
:10520000F5209D3DA989EC3DEE0F973DBCECA23DFC
:10521000EFEB063DD25A013E9FAB14BEFE0D80BDA2
:10522000B930823D9D5250BE3355893D383818BD46
:1052300036547CBE105F26BDBEF34C3CED37B9BD85
:10524000DE6C44BD76C4E1BC54DA31BEA0A9DBBC3F
:105250005525E93DF39CCDBD985CB13D4FBA2F3C3F
:105260000EC7A83D0B4D35BDDFF4E03C68717CBE38
:105270001B5777BD9CD7DCBC02DF6EBE3DDCD2BDC8
:10528000B983F6BD5E4509BDFFEAFABC2752053D6C
:10529000F699D2BD7DAC1DBE105290BDE864283E8B
:1052A000E4890EBC14F1753ECFD7303E373676BD5B
:1052B000FB554EBD201107BE9C590BBD8A07093C0A
:1052C00003AEDEBC7EF08D3DCF5DBD3DDC86B4BB64
:1052D000D5C3923CDA6EB43D761C0F3EBFBAE13DB9
:1052E0007756ED3C39A6D839341D033E39526ABD94
:1052F000217A0A3E328A9F3DFFD949BDEA9A18BDFC
:1053000013D9AF3D388F50BD37FBABBCB90CF33C64
:105310005943FF3D7E971BBC2B22F1BCA8023D3DAB
:105320005B1B95BCFA58683C1823AF3CFF3CBF3D63
:1053300003A7F33C625CA83DAB6D1A3E21070E3D0E
:10534000A70AE6BDA3CC92BD8FE3A6BDF7E88ABE4F
:10535000273C0B3CEB865FBD08926ABE00B9DC3C83
:10536000D81CA93DD5552BBD8B59EDBCFF6C763DA6
:10537000F97A06BE03FD713D173927BB4F73CBBCCD
:1053800041EB5DBCAABCDEBCC5CE073E393391BD46
:10539000DE5009BD512E91BE9615B03DFF671ABE75
:1053A0007B87EDBDF0D4F73AE14A82BDBE5818BE06
:1053B00060D009BEB182F43D327BD1BC5B2800BE17
:1053C0007D41E53C70C5063E884506BDB5D1903DA2
:1053D000B7C1623E66AFFFBC9291CC3D135D81BE0A
:1053E0001BDDCCBC359A093E4A766FBBFD03983D68
:1053F0007ACBCB3BED58A73D691A933A614997BCEC
:10540000B0E4523C31D0B9BC037C1A3DB386613C58
:105410001FAA9E3B4572713DD3CC19BBEC270E3CB5
:10542000CD1C983C4300953DE6F616BD619E26BC1A
:105430007A2A813D9061AB3CCA8BA33D395B2CBD80
:105440004A2EB13D32715ABD011654BC4C76A83C6F
:10545000D54B383A9CE6F93DE8CFB43DDE84A0BD9B
:10546000958C953D7ED19B3DB82ACBBDA569ABBD42
:1054700067B1603C8A808EBE956A003D6A83373D85
:10548000CC5344BE4493C23C9BB8C43D405814BE68
:10549000F018CDBD6EB9143EDA64D3BD973B67BD3D
:1054A00078B5BD3C9F12B7BD43B1CDBD2FD40B3DE8
:1054B00049C82C3DAF35583DD95B1BBD1DA483BEEB
:1054C000EC0F5FBDCF2205BEE91F0FBE73D4093BB1
:1054D000EB2DCBBD2D0233BE454A73BD6C185D3C30
:1054E0008C4984BDA2FFEFBDC35BFABC6DB4CD3D5A
:1054F0008E2C01BEB1DE633C76A0143E5FCE08BEAA
:10550000583E743D3E1E59BEA4BE5ABD894A463E11
:10551000DE67E6BD2BDF8F3B40F1803D4FBEBABC5E
:105520009EEC4EBDABEE3A3DE55285BDFACAABBD31
:10553000F5EB0A3D217415BC1634B13D1C66BBBDAC
:10554000193285BD041E01BD864BC13CD30A63BB25
:10555000FD40843D48B2CB3CEBE20F3E5BBB37BC29
:105560000C81F4BC64E70D3D47A6B53D2AA8993DE2
:10557000D0C9E93D9094353D7D34CB3D3C81F13D32
:1055800012CA243D2DBB8CBD7DC40A3DA04E8FBCEC
:10559000B3C867BE31B6D63B8CF0C2BD781FB7BE6C
:1055A00025B391BC345D0FBC0832C4BED4BAAD3C47
:1055B0008B45B03D9087F8BDF24A833CB3CF113E96
:1055C000F34721BE5ADB1FBC760CB73D7B0403BEFC
:1055D000183912BE5AB70CBD9284A4BD048FE0BD29
:1055E000E545023D52397DBE966E7B3D7989F7BD1A
:1055F000054080BE02948ABD9A015CBC031817BEA8
:10560000AC97A33C5DCF083D043A18BE83A1E7BC2C
:10561000F84FA93CDF9B433DDC2F1BBE85B1193EF3
:1056200078A6EB3DF64BB6BD3EECBD3D20E34ABE51
:1056300077B9E93BBD18303E921ECBBD8F7C19BDBA
:1056400084A8A9BC8F9AA23D3B5CACBC06CED0BD61
:10565000E5CBA53CB2373D3C57B48D3D811FC63BE1
:1056600090F22C3D9A01E9BD74340E3A583B53BD7B
:10567000203EC2BDC1D1D7BDA0116B3D679481BD95
:105680007BA3B63D59560F3D65525ABC0B850EBBE8
:105690003B83CC3DB860F43DCD6AF83CB9C7243EAD
:1056A000F58D40BDB8B1093BCB2CDBBCD136013DFB
:1056B0008A180E3D49D1BC3D31D9543E8E7C1C3CEC
:1056C0006A28B5BBA04EA93DB58454BC11D973BDA1
:1056D000ADDD1F3E0382003B5DC992BD404E1C3CC8
:1056E000A4FBB7BDE5F292BEB12732BDBC7E453DFD
:1056F000140632BE5CC826BE7137A8BDB61CD13CAC
:105700009A499C3D987CE73DE300973D1E209EBD55
:10571000F136C1BDB51EA93BA2FB36BD792807BD38
:105720003B51D43C60D740BE1A021DBDBE073A3E75
:10573000707058BEC583563D53565E3D2C11A93D31
:10574000B60DD8BDB6F2563D5F0B883E36D1523EFF
:10575000BB9D853D8B89743E4794FB3CB575A0BECF
:10576000540250BDEECD4BBD62E8B8BD198186BC78
:1057700066EEAE3D124DCDBDBEA4013DFC1656BD3C
:10578000E11EA53D13BB3A3C7BBC2FBDF576013C29
:105790005C5A343C1046AEBD150D2CBD9596CCBB65
:1057A00081E7213DBB064FBD5AA7E4BC8F181ABD47
:1057B00099E007BD9C0761BCD0EE1B3DA58B97BD52
:1057C000044509BD7D629EBDF9CAAABC8F76B93D6C
:1057D000AE6B9C3C1D4CA5BD8922013E1CA0843DA6
:1057E000B442283EE8A83EBDFADA513C89E5473E7E
:1057F000DFAC073CC28A433D2D278C3DE79ED73D59
:105800000A9A873D9950F13D0ED367BD2CB808BE6A
:10581000E8EC8D3DCDF9D43C0139043DAE0CA6BD7C
:105820001F609BBD5F03013E1F8C0C3E06ACEB3D31
:10583000D8A3F63D690848BEC62765BECDE89CBD25
:10584000BBE9F7BD1045C4BDE6E0843DD44ED2BDF2
:10585000DB05933D1419A83D4BCC97BD1467223E40
:105860003134F53CAAAD273DC19BD9BC3A44173E23
:10587000A9AB693E61F6E03D5672D73D435E4E3EB0
:1058800084ABA7BD5445FFBD79EFF7BC329054BD42
:1058900019348DBDE0D5ABBDF17DC53DE5B02C3CE7
:1058A000BBEF1FBD41F3FFBC3FFF583D53A89FBD59
:1058B00087642BBDAD9C00BD89CA89BDD5EF67BD8E
:1058C0006CB679BD5A99143D87B6A43CC7A708BEEB
:1058D000444D573D9CCD48BD9D9EBB3D36C72ABC1F
:1058E0009A2E9E3DCB112B3B174E223DA25C0DBC48
:1058F000B84BCC3D3041EC3DE3BA363D8C13A5BDF1
:105900000C3B9B3DB9283FBDA6FE903ED586BDBD54
:10591000D425B6BDAD42F93D813BF0BD15789C3D27
:10592000A9603B3ECA81C6BC9753FE3D8FEB6DBD5F
:10593000199BDFBC22C6E5BDAA7A913C9AF9233EA9
:10594000447E91BCA7BC08BEA528DA3CFA321A3EB8
:1059500048B6D83C5342B13BA8A5423DDCAC58BE4A
:10596000F7A35EBD4E6E563D9E6A90BD12D758BDE0
:105970003E64E73D8C6CF2BD5B76B4BCD3AA1F3E9F
:10598000AC4339BEE312043ED914C33D706CEA3D0A
:10599000D122DEBD8DB69E3DD3D8473E2A3A4A3D40
:1059A0001A87F63CEF2D003E8D3B3C3D5F113DBE1E
:1059B0009834A6BDF7EEE43C894C6CBDF2EA71BDAB
:1059C0006CFB98BCF559EDBD53EA433D4C4437BCE4
:1059D0005E9688BC448D9ABD60F6883DED1779BD12
:1059E00042A70D3DDFF3B43BC585C9BAC704283DC6
:1059F000E98F5D3D01D78FBD6D6F7FBC1CD5133A1C
:105A0000CAEAE73DB1A981BCA4A4CE3D4CE4C33DA4
:105A10001476973D44E1E13D1909853DE976903DD5
:105A200099AEBFBD9D3A48BC72551BBD8E0F17BDC8
:105A3000443A493E710680BDB3FF12BE81DB61BDB1
:105A40002CBA293C077817BDE49F0D3E33AADE3DF2
:105A500088744CBD570E4C3CB56320BE05AF32BDBB
:105A6000819234BDD25DE73DE77632BC093582BE16
:105A70007CF308BCAFFC5CBC66E0433D4551DB3DBC
:105A8000E1D72D3D295451BEE867C0BDE2657D3D9B
:105A9000D3F66FBEF589D3BD04E8063C2C3684BE30
:105AA000120F0F3CEABF0E3E4A2EA9BDFD95113ED6
:105AB000A32A543EEBF6053ED327A1BDD089573E1D
:105AC000FF57A93E8F7690BCFE7D4B3E856F4E3DC5
:105AD00001247ABDE2701FBE1FA604BEB9376FBD98
