:02000004706822
:10000000643F8B3D9FB425BDF335E8BD99C5E7BC82
:1000100036419A3D2B5D37BD038F06BC6A098C3C87
:10002000C602C23DB9BDD83D0F56B93D9D4F7BBEFE
:1000300012B6AFBDF01178BC877517BE5E2E18BD25
:10004000B08E973D0827A2BDBCDDFC3D7A3C22BCAA
:10005000846DDABE35EA36BD97E97FBC865360BE53
:100060003D778ABCFAE40E3E29145DBEC854A53D16
:100070000E30873D2158E6BC3A0760BB0EB6FB3D0B
:10008000515F6E3B80B70C3E2D3A313D70C3833ECD
:10009000C63ED53C2D36A1BD38C3DA3D9DB6A1BCC8
:1000A000CF8611BC527292BEC077E33D74CDE83D5D
:1000B00065100B3E966E58BC720F393D686FD0BC10
:1000C000D2FE2A3D24B16FBC9894C7BD2049243D7F
:1000D00007CE683D353AB6BDD6C8313C5CE64ABC71
:1000E000D43770BEB8573C3BC811993D267837BE0F
:1000F0006AE51A3E6A40D23C12837BBE79EE4A3DE5
:100100004D4C033EAD6BC2BE2A82B13C7094193E89
:1001100091F08CBED422253D23E6913D2F6E2BBE5F
:10012000FFB45EBD65F3B43D055897BAA1FBB03D81
:10013000EA588A3BA0F243BB1C2B253D6015083EC4
:100140007822D43D0661D33DD37C113D5B66343EBD
:10015000A95FD5BD9F120ABC77E727BEA0EA1A3E69
:10016000368F523EB469993DBAA8D3BD13A9B5BC28
:100170007592C43DEB861A3CD4596EBC0D6A85BDA0
:10018000173F403D7A04CF3CCC3FB83B0E29EE3CB4
:100190008193FA3D2D849BBC10E6F2BDFEF505BDB2
:1001A000DB0C01BE751BFA3DA3B492BC5AA904BE78
:1001B0001110783CBD93A53D117F5EBE1898793C27
:1001C0007BE90CBD159769BE4F6781BDFD297E3D5A
:1001D000AC2A7ABED3E405BE33D3A43DB9D4D73C10
:1001E000C9FA9BBD9819CA3DCEF605BEA1035B3D79
:1001F0001F17063E56A0013E8E551139B784B1BD7A
:100200009C793B3DC27733BDA565C7BD210910BEB2
:10021000211F1F3EADC5F13DABEC233EFFA781BDC5
:10022000C73D2D3DE18CA73D2675283E6D13183D39
:100230000BBA51BD15A2D93D22FF3F3DAFB03CBE28
:1002400082B6933BB5E8413D7D226BBD6EC4C8BD0F
:100250000ACE453D9F931ABE3B7B703DCAF768BDF1
:10026000435052BE9B7D8CBD0172E7BD9A5A67BE5A
:10027000430B98BDC1DBA13DA568C1BEAD6C0EBDF1
:1002800065C8913DE95159BEAE14D3BD0DE09E3D08
:100290001B801EBC5CB8983CDC2F533D7FEF663D55
:1002A000B9CABA3DC6E7A13D1DBBD33DEB48133DDE
:1002B000D9050ABE4BF6973DEB69473CAE8397BD27
:1002C0000E52A03D4E18983DEA5E793E233CC23D59
:1002D000211047BBBE7F1FBEEC94A0BC3650AF3D83
:1002E0009ECAC5BBE94362BE22B6383EA175ECBDCD
:1002F000CA5251BEC1D8CF3D2CF883BD18A4AABDA7
:1003000052B9D33D1856DF3C5BEEE6BDFE0DEB3C2B
:1003100033A6C93C068C47BE1DE4C7BD0EB5E9BD7A
:10032000B3779ABE5536123C52A382BD6C22BDBE35
:100330003ECAE53C49B70ABEF81DC5BE0F5BFD3C91
:10034000D9E40BBD2E529DBDFEC7ABBD432EC2BC32
:10035000C2B8A0BD8177CB3B3D4DBC3DF5E5B0BCFF
:10036000A482B93DAB590DBED92C9DBDACD1C83DC1
:10037000962875BDE08E373E4A7CAB3DF298AB3D8A
:100380009C67823E1475803E598B32BB65B30ABDB3
:10039000D729C33D352C5FBC855416BEC9B4493E30
:1003A000BC2F12BED9E113BD4F8F473BE5B147BE0D
:1003B0009E0D0EBE745221BE2CDCC4BD8DDBD9BD9A
:1003C00054105DBD334291BE353E183EB74E5F3E80
:1003D000D8B959BE70ED68BDF2E621BEDD3058BE19
:1003E00034A20CBDE660643E46EAA2BEB71165BE0B
:1003F000947946BCC4330F3E0D9DDBBD3DBBF7BCBD
:100400008807903E7BFEE7BDC4D58BBDDC59DD3D42
:100410001445143C71494CBD3E15193E9FFEE2BC8B
:1004200065393F3EAF7B3BBCA103EC3EDEBA673D86
:10043000B9211B3E43A789BCD661183E584F053EE3
:10044000FE86BFBDA4E250BD3190C1BC30E69ABE6D
:10045000B14FB43DC4FB863CA28EA4BE869A43BE77
:100460004AE959BD177937BE73F41ABE1CF434BE7D
:10047000FDE0D1BE4CA8BABD714390BEC3808FBD14
:100480006FA8483EFC108BBEED6056BEC07409BE1E
:10049000D997B5BE91B084BEED49F43DB8CBBFBE8F
:1004A0009A29BCBE7E2DC63DEF0A98BCB5B44DBEA0
:1004B000BDE0A63C34B82C3E8132D0BDCC67DCBC5C
:1004C0006DCF213D34765DBDE9A5C9BDA59C7A3EC1
:1004D000DAB4AEBDDA5D703D76AA753CA8E1AF3EF8
:1004E000079A0F3ED4BA863BABABE0BCA179C03CC7
:1004F000BAD6163E124002BD5C633EBD57DD7D3D5F
:100500003197ACBD93FA5EBDBECA9C3DE265093C25
:10051000023402BE7435CB3D7A4A03BEF5355DBE6A
:10052000CD142B3C02260ABEBB505CBEF477123DB4
:10053000E982D13DE15214BE6069B1BD9D65F2BD55
:1005400031D0DCBC6F463EBD0386B2BD7D29DEBD29
:1005500073D15CBDD4A125BEA11EF2BCCBC1C1BD6F
:100560001BA517BE737C103E899FC23DC58B2DBD58
:10057000E4D4D23DEC57843E0D618BBD4A17CEBD0D
:1005800013F7933E2D52D8BD8C2B3EBC4D45F83D04
:100590008E4701BECD42A03EBA3977BEFA78C3BDC0
:1005A00077703DBD241DD9BB9781B1BD25D78B3D4B
:1005B000CD0F923D3BBDB5BDBB0D213E95622CBD1F
:1005C000C5262EBD879A2EBE04D0E33C88D3A0BC9E
:1005D00084D141BD1EE49E3DB5D2C3BD858748BED2
:1005E000FF2622BD7207B5BDE64321BE6CD7D8BD3C
:1005F000AF5AF2BD83862BB9CB713ABEE25CCB3DDC
:10060000190EA1BD183215BDB05045BE1C173F3C98
:1006100067D0823DE80A14BD7F04613DB444893D42
:10062000B04E40BC1A2CD83C3859B43D7E49C1BDAF
:100630000C2BC5BC6968D33DFE0510BEFFA0CB3DA9
:10064000272FDE3D2A0957BE3182F13E7C7608BE57
:1006500093A146BC6993973DF10894BD561D87BD93
:100660000419823D4BD9B83D102711BEB184663EB6
:100670000448ECBB307907BD2E6B3DBE66331A3E95
:10068000FBC483BD08FE6C3CDFABD6BCBF1FDEBD28
:10069000F34BA3BC88FF05BE0B58CDBC0825923B8D
:1006A000BC43B0BC1E768EBB5872CC3D7A6EADBDDD
:1006B00043CC86BB33B3043C779753BD7FCF5DBE3D
:1006C0004AAD4D3D0E56D43C8D1FDE3C74622E3D2E
:1006D00026079F3D1191463D8A55D63DCC3A6E3E48
:1006E000348D9FBCE68E17BD2C3DD23CCC42F83CED
:1006F0000575453EAE6793BDED952BBDDF0DD53E2F
:10070000B46480BDF980D73D28B71ABD6441243D4B
:10071000868A70BD71D44ABCDB45BCBC4F49553D8F
:1007200000F1C53D8D4884BDB614ACBDBB5D1BBD9D
:1007300072D235BD30A9ADBC5089853D1041B0BBEA
:10074000F3E667BDABDE013D016BB6BDC7C3283D17
:100750004A68463D08E5F0BD6ADD793D62DBB5BD1E
:10076000D4CBD2BDD8A4C73D5E56A03D3AD3F5BC8C
:10077000ABD8A3BDD95EA2BD63AEAABD70E9AB3D47
:10078000E7809D3BB9FC89BC005F483C6AFB9ABD91
:100790004AF4A83DC2F492BD9420E6BD047EF33C29
:1007A0004FC9B03DAB9F8D3D10C78E3DC2A743BB27
:1007B000D9D6A63C015DA5BCD7D4F0BD4911773D83
:1007C0002C438A3D4FE99FBC59A119BDD7CE903D1E
:1007D000F16D963D0D8E13BD9DAF62BD6F4F8ABD0D
:1007E000721F3B3DAAB0D13D497649BC9D738EBD79
:1007F000D59EBEBD3129903D814A8E3D890A6ABC95
:10080000D144B93D653B9FBD8640B0BDE9008BBC7E
:10081000751C283DD6E3E53C378D873D0E64ABBDA6
:10082000489D273D77A5C53D66E6C0BD6439D1BC6E
:1008300015E9A23D6AEA963C15AAFE3C53D665BD71
:100840009083ACBB0FB3BA3D958DE3BC93B0F7BCBE
:100850001843103D3F18E1BB58EAF038228F523C54
:1008600017058F3D815098BDFD985E3D05F6323DE0
:100870001CCB1EBCB8C4BEBC483F973CF43FFABD7D
:1008800031CBA9BD9B20CDBD3A86953D4FF9F5BD35
:100890001C27683D3E80B2BC67EEA6BC801599BDA2
:1008A0001C85E0BD308C0DBEB204AB3CF823013B8F
:1008B00034D63D3C9594613CC207CEBDD512DB3D9C
:1008C0003BDB1BBD018412BD59013F3DE262AABD65
:1008D000EE64B4BD78B10D3D5146EA3CA22F683DAF
:1008E0003AE3B5BDD04FFCBCB7845ABC0FF484BD0D
:1008F00076376DBC7675BE3DD5DDF7BDF0FF9FBC8C
:10090000DDE68DBDE7842DBD663602BCFFFC003DF3
:1009100063CDC6BD2F3C9DBDD118A43CF74F193DFA
:100920008C75933D8A917B3B255C0A3D20BF4CBD75
:10093000ADD6DC3CFC4CB03C212141BDE16AA3BDFD
:10094000FF01463DFB4ACF395EA2E3BDC528E8BDA5
:10095000545B26BECD20013CD45C16BA2E5302BE99
:10096000438575BD0801AABBF3B909BED99A993D63
:10097000FE51803CECD2DABC9F6F963D6C330FBECB
:10098000CCD307BE6C47A3BD1CEF92BDF8FAB13CB7
:10099000C2F4D4BDE1C911BD512099BDDF10D7BD4E
:1009A000E565AABC440A6F3D8E0D853D430D00BE32
:1009B000864E08BEBA6BC93D688F56BA089104BE10
:1009C0009F21783D69D193BD6056F43C8F785BBA26
:1009D00092E4ADBC8F694EBDB239FBBCCF6400BEA2
:1009E0007AFBC638A61508BE1A34A4BD0DF204BEA3
:1009F000D84E07BD433612BD61F0AB3C30A4773C06
:100A0000D9229EBD701EF5BB428FA4BDEE51503D54
:100A10007C20ABBDD88272BD42BC19BE67250ABE20
:100A2000B4E61D3D0B9FB13D155968BD5415A73C5B
:100A300041CFE4BD3EFE403D85F859BDB154123C66
:100A4000F9AACDBD6AFE7EBD5EA4B1BDF6A3B9BD57
:100A50001A98673D0208C7BD377889BDC135553D35
:100A600026C516BE7EF2543C679D9CBDB6575D3DC3
:100A7000D62FA7BCD568203C05E15ABD853E513D27
:100A80001A83AEBD777587BD94DCB83D17D91BBD01
:100A9000B015C6BC4C0525BD7CDDC03DB5903ABD4A
:100AA0004228CBBC34DD86BD26FFE93CB0E690BDD4
:100AB000E35B86BDD66CA83D7E56B9BDEEBB90BC4F
:100AC0007AD99FBD4EBB9BBD24CAA13D811CC63DAA
:100AD00054E5C2BD28A7953D82B447BCABC074BDE8
:100AE0006DC0B83C7E05BF3DB191A33DBE81D1BD77
:100AF000D993A33DCA7D803DF900A33C852284BDE6
:100B0000F2F9853D4F62F83CCE03973C37A3A5BD73
:100B1000467829BDA1542B3B06CF27BDDFF6BDBDCE
:100B2000418E803D900DFEBC4800943C9095543D14
:100B300047F5B93C493CAC3DA067823DB5E889BD6D
:100B4000300C8F3B48D5D7BDE302DFBD98FC653D37
:100B5000F43926BCF68B82BCBC824BBD5C6B5ABBA5
:100B600083BA983DC63E26BD36A170BD81A26BBC3E
:100B700039E786BD4C00DCBCA4012F3A7B3412BDA2
:100B8000D682303C374B45BD42D09DBD19C186BD94
:100B9000ED0FE0BD12F2793DA106603DBAC8C03D3F
:100BA0006EB1BC3DCBA78B3D1FD4DB3BF24AA13DD0
:100BB000B47B903DF7065B3D2132DDBDA427A33D0C
:100BC000E025B2BCF802A5BD7A1177BD282CD6BDB0
:100BD0008E8D3FBD9E687D3BC6DBF6BC792E04BD85
:100BE000EC35C5BDA3AB653B35AA22BD774A87BDB1
:100BF0003C4401BDD1F4B33D380FA6BD0F93513D28
:100C0000D67F303DEE30213DA3F5AE3D45C980BDD8
:100C1000877D993BBD94F4BC43A378BD04D8EFBC59
:100C2000086BB93CEC720EBD7388503DD334983BD1
:100C30007D64E4B9CD70C93C89EB44BD5A2FACBD8D
:100C40003B3EDEBD0ED4BDBDDB605CBDD78E2BBD93
:100C5000FB1A963DEC28AD3DCF2FEF3B804C3ABDC3
:100C6000AC07C33D9068CC3C776B03BD9C24523CE1
:100C7000B5A0CB3BD914AC3D3D8AB33D361994BDEC
:100C8000D20C96BD5D7B323D9E1AA6BD897C61BCAF
:100C9000E0FD28BD0547A73D4A7E7EBD400E8CBDC8
:100CA000794D903A694591BBAE36D83BAD65AEBD46
:100CB00095A520BC6A98C5BD6C1B8FBDBCA06DBD41
:100CC000415498BDE248B9BB0D7442BDF833D4BC61
:100CD000DB24083DE8F1373D18E3273906F0D0BDA5
:100CE000DE1B253D750790BC12A0AEB9CCC3CCBDB0
:100CF000182D583D32AC16BDF828D6BDB71229BC08
:100D0000CCE4573DCBF5A2BDC9AE15BD9290C73D11
:100D1000B1DEA93DC879E2BD744E8C3D367C49BD3B
:100D2000451D4EBDF42391BB41941ABD5AC4AA3D42
:100D30006649273D5DB902BDFEE5523CED98893D0F
:100D4000EA6582BD5F4123BCB42398BC7E0198BD97
:100D5000094F1F3D50E0663DF24C2DBDE165623DFF
:100D6000319797BCAEEA89BD3616AFBD10C6DBBD64
:100D70006D4EBA39E5EC043DF41668BBBD5FCCBDE1
:100D8000DBEABB3DE594BDBC537FC4BD86C8953D41
:100D90007E262DBCD8D4113D526BAE3DCAC33ABDA0
:100DA0000C6094BDD9CDA6BC0C6EAEBD84C3B63C60
:100DB000DFB0DDBD5FAB0A3DDCD3533D6C16093DB2
:100DC000F11B273DCA48B33A98CBACBD1180753CA6
:100DD00085A78DBDE419C2BD5355F1BB1671023B09
:100DE00013DF53BD0D55BB3C7DADDBBDB987B0BD39
:100DF0004E50AE3DCC209F3C3E94EABC34FEA13D1B
:100E0000E7EF9FBDF4F100BDBEF450BC398BB0BD1F
:100E1000A8FB58BD68B2A0BDDACC24BEBF56803C4A
:100E20008C6B7BBDD44F38BE38ED13BB813C25BDE8
:100E30009DDBD6BD5BE67EBC0651CFBDA367FDBB87
:100E400024E99BBDAF9219BD2E5286BD0710D5BDBA
:100E5000BFCE32BEBE942CBEED9B533C48A494BD85
:100E600074A53BBD5813F3BC07170ABE3B8EE3BD08
:100E7000D3764ABD1E0607BECF05B8BD868CCDBD54
:100E80000B4C02BE469DC53BACDDA1BC3EDB1FBC8E
:100E90005D55C9BDBA868F3D25A698BD24771BBE7A
:100EA000694380BDE9333CBE79722FBEA7E8B33CED
:100EB00037C322BEF0D012BD50341ABE436B47BEBA
:100EC000FE9F1DBD2F4195BD24FE93BDA504CABD47
:100ED0001BCB0CBDC5D0E1BDB3A85D3D426CFFBDD1
:100EE000C9850FBE5FC718BCDD282ABEA8968BBD7A
:100EF0005C2C98BD475AEB3CD89897BDB3EBB43BFC
:100F0000D1D0E9BDC09708BE111EFDBDEE27B7BC0C
:100F1000FC2011BE638C39BE820C0DBEA67328BDA9
:100F20009ACB23BDD1BE6BBDBB9869BDD8C1C33BB5
:100F30008F21D5BD03E473BD79FE8DBD432069BD0E
:100F4000B8A90DBD888C7F3D2C02F2BD130055BDA4
:100F5000CC83F3BC2FD101BEE6BA9ABD6DF721BD9B
:100F600081EBFABCB246E8BD42E06DB91AA17DBC86
:100F7000790676BCD2AD1CBD8043E9BD524D493CDB
:100F8000CC5D0CBC264AC8BD3522363D4BFD16BE95
:100F9000C6C181BD13C126BDE6D8FBBD475929BED8
:100FA0004BED2BBDE1C684BD53F313BE1B39E23DAF
:100FB0006B80CDBDBC2E03BE1377EABCEF16013E9D
:100FC000D7E93FBD6B43C0BC7A27343CF73538BE08
:100FD000524E793D90B9193DDBC030BE3E7F10BD09
:100FE000B641CABD637C04BE3EFA003E0469B4BD8E
:100FF0001C9060BED523FD3D908C81BDAC3D27BECD
:10100000D09B09BD638D8BBD92F748BE9DA6F83B72
:10101000ACABBC3DA52213BE8D34B03D8442FCBDBB
:101020001EFC29BD44078F3D58ACBEBDE23825BD2E
:10103000159F4C3E47DF503E4EB27CBDC909EE3D88
:101040002F2D5C3E6E7A9B3CC998083D5496F13D2D
:101050009CF813BD572ECF3D29B1143EA9508FBB2C
:10106000C175EF3DC6CAC3BDC730E8BDEC85833D41
:1010700023AE1A3EE1FC62BD92C52A3E2053493E92
:10108000D7A408BE74F4803DAEEA0B3E27E032BE22
:10109000DC389CBCAC1A423D4117FEBDEA8B103EC9
:1010A000BEC8C73D7113D2BDB2BAC83D9620E03C60
:1010B0001A8A81BE557539BD8F17203E8E3E86BE79
:1010C000563C2A3D3B6497BCD6FFB0BDFC06DC3DD8
:1010D000C01111BED674A3BD07BC8A3DB047A7BCE2
:1010E000005A2D3D12A5153EFAB5F73D25F118BD64
:1010F000666A163EFEDBD73D38FEE5BDA7AF823DF2
:10110000F079103E3D00F5BDF75A0ABB8B0BA93DA7
:10111000899EC43DC8C25BBC17A7923C970F31BEE5
:1011200084A83ABCBC2E1E3EA45E95BD5E85003EE2
:10113000909C103E5686E7BD3AEDCC3D9E92FD3D1B
:101140002B3620BEC1FAB23DB81237BD15CBA4BEB6
:101150004EF8CFBC44939E3D6D4F92BE9681AB3D01
:10116000C3CF5CBEE101AFBE0198E5BBE999873D05
:101170002384A2BE136CADBD28DF11BEF68BE9BD82
:101180007983A63DC9CCBEBD29B790BDCD04023E32
:10119000DA0BF83B31924F3BD432ABBD879990BD0F
:1011A0003F99DABCBCA07C3DE6E64ABDE243A3BB66
:1011B0009B2739BE4B83CA3D4014013D48C8203CA3
:1011C00087E2AE3D110BE43D3F2D38BE81719CBDE1
:1011D000F4443BBC4EB91ABD5933AF3D77BA383CE5
:1011E00065D71E3D813E9C3D105F6ABDEB8E03BE00
:1011F0007CDBC6BDFDF7223D9B1D4FBEDA046CBEF5
:101200009A8645BDDC62B53CE16538BB1D4C693C46
:10121000A95385BD664C2CBE7F0ABC3DB9CA943D1E
:101220007F8D8DBE353BCA3DF8CA8ABC786DA2BEA3
:10123000CF8ED1BDCCAEF0BC775FADBE0BF20CBD96
:1012400026D3193EC94D4B3D26D7B4BD44CCE3BC93
:10125000E2FE753C65D669BDA5FD26BE3469A7BD15
:1012600029AAF23D30A8C9BD2CE718BDAAA10B3EA2
:1012700091B321BE1EEA3E3C90AA73BD25E114BD88
:101280005B3E8FBCD96C023EEAE90EBEA8377F3EBA
:10129000CCD7E93CB001083E4F9A1E3D03D8673DCC
:1012A0000EF85BBEC4DC13BD587B0A3E5EA0C4BD15
:1012B0004D6C63BE42D7CF3D26C4043EF8E3CEBD9D
:1012C000EECC133EF7F253BE58DC1CBD05D55B3D9A
:1012D000AF94953DACF918BD5171D4BC76AA8F3D41
:1012E000C1E867BEF2D7D23B943FC3BD98399EBEDA
:1012F00027D2373D69D2C03D9827F83D72C59FBDC2
:101300002805713D564FB2BD4010533DEC7A20BECA
:10131000A4BA183C6B511B3DA06E53BE12E39ABD9C
:101320000AE8083C53CC33BEC3802A3E8A35DE3DF2
:101330005A0A51BD55AC9FBDCE1A243E4C8D13BEEA
:10134000BE281B3E6CE34C3ED4F5563EC7DFBC3D89
:1013500003B89FBD5533CABD5C19C3BD2B7E82BC8B
:10136000890530BD3B99D0BD1EEF973D9C96CD3C85
:101370001A28E7BD7247163D473331BEF0CE4EBC4A
:10138000AE3D3EBCA68E383D4103CBBBDDD6983D7D
:101390007AD25C3D4C96D7BD40E1D23C5EDD14BEB6
:1013A000F6A3E4BD8C80BD3D067CD73DBAF0123E6D
:1013B0003610B13D8C324ABD490CF6BCE7C2AD3C9B
:1013C00015402DBDE89714BD6B494B3DB1A3F0BD51
:1013D00008DB053E1B6E163E552580BE4ECEDD3D1C
:1013E00074DCB8BDF46A95BDCB62F93DD9C64D3DFC
:1013F00008DACDBD72A99E3E6027973D8E5A143EF5
:1014000041B80D3EFE38FFBCBFFA8ABE865E05BEFF
:1014100055B4F23D822723BE037D91BD9524C63B82
:101420004EDCDFBD070B1FBE70010C3DEF3F02BD60
:101430005E462A3D11B3F33DE1F0033E3639D8BC98
:10144000A198A7BDFCF7AC3C74C84EBE5BD398BD59
:1014500084F07ABDA741DDBC23FB9B3D2751E43DD1
:10146000889F623E6236833D77AC9E3C8AD087BDC2
:10147000B01AAEBC2EE21DBC3D156CBD0149B1BD1C
:101480009F587BBD3C279C3DC8529B3DFB4747BEB8
:10149000872C833D2CF6DDBDF822ABBB24CC6BBD85
:1014A0005796EABCA49C5CBE409BC23EBFEE013E88
:1014B000C43EE43D8A37E33D5E9CA73D996181BE11
:1014C000B1C618BE427AF03DDC7D83BD041E46BE27
:1014D00006F879BD90ADDCBDE9A993BD10C500BC8F
:1014E000DF8930BE823D0FBDD7B7B03DDDAAA8BCB5
:1014F000A01434BE9264C33DAF1FC63DE3BD31BDF1
:10150000057DD33DC9F295BD8E14D73D0A11D83D56
:101510003889113E5CA2143E1332E9BB819C9B3C8E
:101520004E24923DB84831BE8242CC3B6D1771BD0E
:10153000D59555BD0EB010BD8E2B04BED903363DDA
:10154000A578B4BD4EDEDE3D89F0323C926F733D2E
:10155000FC42253CD66435BD1DC725BE4D5AEF3D26
:1015600031A6C53C9690C43D8F8F743D4D58493D82
:10157000F0D676BC92D067BD471A683D182E9A3DCA
:1015800007C0B23D7A22073D360FEE3D1C904CBCA1
:101590004C404C3D68BEE93D2B6AB23D532AC3BD69
:1015A00099E8743E955BA5BB61D1F13C4922553E5B
:1015B0008073823E7E5B083CA66F65BCA97C953E2D
:1015C000EADBCC3D082FD6BB0E9607BE971DC2BCEA
:1015D0009F3849BC1B99813D56021BBE7D7CA238B9
:1015E0009E228DBD5B4D14BE4E2812BDC41C48BE4C
:1015F000DF409EBD94A3F7BD459C9C3DD726D4BD3E
:101600005D69473DB5FF34BDC2A9E63CFB846ABEB7
:10161000D238003E0430D3BD0298953CBE09363D19
:10162000570659BD557BB3BD0F9AEABD76A0013E62
:1016300009664D3B8906163EAE99A33D919FD63D66
:10164000EDC4F8BD9590A93A1275DD382481AF3DFF
:10165000BA35873B35DC503E3762A83D349BA13D0F
:101660003D64273E8FC04C3EE7696A3DBCEA2C3D95
:101670003E5A803EBB65903D347E09BD0E85ABBDB4
:101680001FD1753D0FB3963BB7C592BDEB0D1BBE89
:101690004BB16ABD948232BE7445AABDA844D33C06
:1016A000ABC216BEC9FEC6BC9B9DC1BD53812D3DBC
:1016B0007F889C3C215537BD6EA2543DEF4DE3BC65
:1016C00006DF2ABE9C144EBD3E133E3DFAE8263D81
:1016D000C32C2E3E8288D03D192DF3BD829E7F3DC6
:1016E0007A46B23D1409BFBD2373D0BCE4E969BD9D
:1016F000EC15473B4407ABBD6FE299BC82A3273E84
:10170000435B32BD295341BCE7C23E3EEA1A3CBDB1
:10171000F8AF4B3CE68F6B3EF0E9833E846FC33DF0
:10172000C8CA92BDC4406D3E08F5ED3B2BA716BE5E
:10173000417A993CA2C6FC3D1D9502BE654DFABD9D
:10174000554204BE81A796BCA8662FBEB065D9BD20
:101750005E1582BC74C92FBE86ED113D44359BBE1B
:101760003E5DB83D0CA9CA3CDBC905BE16B2713D51
:10177000A0A5723DD83B5FBE7CB083BD9BAB37BD9F
:1017800007BB243D7A2AF53BAD761D3ED6881FBDAA
:10179000C7872FBCFB3B03BD4B840DBEF9119D3D9C
:1017A000242CEBBC6C49A23D16AF253D86506F3D05
:1017B0009485C53DB3B949BD9ACD74BD08A91B3EFA
:1017C0009E6695BCD2D3B3BC0800E83D491E9C3E42
:1017D000D067193D328929BEE7FC2C3EE3270F3D37
:1017E000444617BC0BC51CBD7ED3093E2A94123C4F
:1017F000AB939ABD038DF0BD99744DBDC65DF7BD29
:10180000CEA70BBEDBB042BE41C189BE50E8A53DAC
:10181000EABCA7BEFC08AD3D8DA0E0BD6CB620BE05
:101820002B2C01BED6E563BD6B9599BECBE30ABDFB
:10183000D9538EBC6C39443DCA4C193D489AF83D89
:101840007D7168BE860AFB3DBA28893DFAC7BEBBDA
:101850007D76153D4522D73DAB67273D3B9F45BD76
:10186000A1BE633D8AD0B73B914091BDD584BBBD3D
:10187000A3EF483D60BDC33DF4DB0C3C48FD4C3E4E
:10188000C49B4F3E69DA7DBBAE7817BEDFCD8C3E80
:10189000CDA6843DB342813D8CE9F5BC909DA6BDAB
:1018A000D535A4BC0AE680BCDF3B6BBD489DB2BD0C
:1018B00027319DBCC15D533B0A41C7BC3DCDA8BC8F
:1018C0000800BCBD3DDE7E3D3CE0163CF10CBCBDDD
:1018D000F231153DD730923CB3F4E6BC52C9303DED
:1018E0009BE653BC5EBD723BC30AC5BD6FF8B3BD7A
:1018F000CA1F00BD6D0A9DBD71B8DDBD3FA0B5BD5D
:10190000E9BCCFBCA32CDD3C1A0CB4BD77DD32BDE5
:1019100022BBF03B72B2AA3CEA20593D4CF0883D14
:10192000CB7B81BD967078BDA86BAFBDFF9DC8BD58
:10193000AEA025BD1ADBBEBDCBDB2A3DFCF6763D55
:10194000A7971C3CEB26A2BC01A8263D60B82D3D04
:10195000757983BDAC09B03CC250953D3AB142BDEA
:1019600049980D3D42E617BC3A387A3D86C1B9BD6B
:1019700035E1293DBF8C49BD0153A1BDFD3FB73BBA
:101980006CB9933D05FE543D54FDAFBDA391B83DE8
:10199000006B4EBDB1C7013DEEB8AD3DC24DFC3C44
:1019A00085308EBD7ADF93BDBD9AB0BD5693E6BC3F
:1019B0009AC9003D04AB5C3D952996BDC3F9273D0E
:1019C000EE83113C2CF46A3D3CA530BC689D823D01
:1019D0005EE0CBBD8123D6BD81E5673D47F0943DF8
:1019E000E869663DF0C2D9BCD9E99D3DBFD116BDBD
:1019F000EE0F7F3DA06C1A3D77F6D1BD72168ABD01
:101A0000F117A33C4251D63D42D3823C02EC763DD5
:101A1000FDF6B2BD66101B3D9FA965BD0DBDC83D5D
:101A20001621CDBD165065BDFAA3E6BBBE1E513CC6
:101A3000ED63873CE0612BBDF4EDAEBC908D38BD0D
:101A40006169213DC4E8503D3AAAA63D14B1FC3C71
:101A50008480463DBA83C73C633441BBAD358E3D7F
:101A6000FAFA283B14EBDCBACE4B8EBD16F94A3C91
:101A7000AB54B03D312951BDB768483D19410C3DCB
:101A8000C8BC3FBD8AEC803DEE3B863D56ECE5BDD3
:101A9000E71FD1BD3DF63DBDB1D0B93DD52AEDBD65
:101AA000ACD29A3AB606633C776E85BD2282923DEF
:101AB000D68078BD19CFB4BD42587FBC1D6B88BDA0
:101AC0001D3FB13DD9DCC83C16A2A23D34B47A3DDD
:101AD0006E531C3DC285E1BC5D82AEBDF730BFBC1C
:101AE00002AC933C8CCDA23A85B8C3BD882993BD86
:101AF0009F9A713DE54B18BD5C7C46BD5178A73C73
:101B000066B6B93D7913ACBD361DDCBAD358C5BB3A
:101B10000D61F73C62D5A43D2CC7E23CDE86BCBD1E
:101B2000A9FD673C22CA93BD4500D2BDE94EA3BDC5
:101B3000C8B381BC2C831E3D8446ADBD3626D83C3F
:101B4000D3695FBD5425983DD0A7CCBC9CC33CBB9A
:101B5000B6F3BF3B6D679CBBE7658CBCFE31BABC7E
:101B60000754A2BDEC8583BDFE7EABBDF95AB6BD60
:101B7000CA890EBEEB02D9BD41C9CDBC62383B3D1E
:101B8000678CFDBB1795D3BD3CAA6C3CAAF6A5BCDF
:101B90000C9C763D3A49983CAAEBCEBCD6F0633C0F
:101BA000E65E7A3D6FDF483D0F94AABB4662B3BD47
:101BB0006A4ECCBD3D569E3D7E50EFBD38DC45BDE6
:101BC000212D3C3D035087BB12B62F3CDCD5623D36
:101BD00080C6EEBD37E3D53C81DA8B3D08FFFE3B86
:101BE000130D17BD5B61A5BD50AD293D7A87A9BD19
:101BF0000716CDBD2D4AD23CA4F209BDEC9DC9BC4F
:101C00007E7B4FBC95A37E3DA8B31ABDAE63E83C76
:101C1000B6BEB8BD2B8070BBCA2F4DBD297D693DB6
:101C20007058C2BD6237973C514DF9BDC466EEBDD8
:101C3000E680F8BD799F6C3D61824FBD7767243D9A
:101C4000EEA83C3C6FFABBBB2662D3BDDD76E9BD96
:101C5000EDD91B3D32BFFABD00BC11BE04E1D8BBBB
:101C6000672E5CBCFEB3203D178EE83C158F86BC0A
:101C7000B7E393BD761C32BD80B602BD6781833C5D
:101C800000FE513A1B7942BC086F45BDFBA7B7BAAD
:101C90000BC5E9BD9314EBBC25652DBD903125BD69
:101CA0004DF47EBD2CCD03BE961B09BD8C6C25BDAD
:101CB0005A0FE6BD360DAABCAD31683BE3249ABD90
:101CC000272ABEBD622BC1BD9C1146BCD4F3FABD10
:101CD000213A00BEC41202BCFC598E3D7BD6D0BD59
:101CE000880D6CBDA5FCDB3BEEA10DBEEA2A693C6C
:101CF0006F3C203D0B718BBDAF11213DA7DE833CB6
:101D000036C342BC6BFB503D6CADF1BDA3C6FE3C7F
:101D1000F345503DECA185BD20CE5FBD49A99BBDDB
:101D2000B9E7D4BA2D0B66BD01611B3D6018C7BD74
:101D300079AC813DB1E9953D5ACB333D100ECEBD16
:101D4000E494803D664F62BD830DAABD5215B8BDB7
:101D5000CF72213BAA5C753D7EFBD2BBE91005BE6C
:101D60005AEBB13B037698BDB6D693BD86325EBDC5
:101D7000ACF09DBCB1F9DCBDBDDB90BCB09BAFBD90
:101D800001114C3CBBFE92BD870191BDB1BA1CBE96
:101D90006D7F08BE76D0F1BD2DACD7BD74830C3DF0
:101DA000D5BD41BC4E8118BE8B4D9DBDD0C147BD38
:101DB0002763BABDE08455BCF3A1FABDA0D0573D5E
:101DC0006DBCC03CE7051FBE18ED473D193F93BDF4
:101DD00063D200BE929E76BC383D13BDFD55EE3CED
:101DE000D64D18BE8F99803C5A8218BEA4A6B13C2D
:101DF000D24AB6BD0832ADBD6673C1BD1A5B1FBD08
:101E0000F2E5DCBD9973A3BDA3E3CC3AF7A3DEBB37
:101E10004FC443BCE124743C530DBE3CE927CABB0C
:101E2000C9C09FBD9E350FBE3825BFBDD1BB0ABD01
:101E3000055A60BD647BE4BDBE7102BECCCA2D3EB6
:101E4000B249E1BC25B1B9BC93F6BDBC9501D5BC86
:101E5000364BE5BD25C35CBDA6743ABBF2F11BBE93
:101E600053EBA83C90C2FFBD55C3853C92E7703E42
:101E7000D6CD49BCBF4771BDC66D043EB7D2C8BC04
:101E8000871350BE7974F63DE3DFFABD3D013F3C58
:101E90008107DCBDED3109BD76DE49BD9809973D6E
:101EA000D435BD3DE78ECEBDF7B718BE039D193EB4
:101EB000F06CC1BD1DD0273C79C69EBCD3D3A93DD3
:101EC000493AA3BDC17C1ABD151461BD70A1313D55
:101ED000F3D0C0BD9A63893D92AD55BD880FA53D35
:101EE0004C33AB3D6E9BC1BEEB85923EE89AD73D2D
:101EF000F92525BDB0BB0C3EFA05E23DFFE8E7BC85
:101F0000FC6ACC3BF8CC08BD708196BDAC40AA3DC4
:101F10005FE92DBEB15AA43D89D9D7BC756111BE08
:101F200083827C3E00B5883D6E098CBEEE8E743C8B
:101F30003CCDE93D2F3F8BBD5E77133ECEB401BE55
:101F40001019DBBDF82BC8B809D8B33D124F56BEE7
:101F50007D8CEC3C2C5ECE3A9E06E4BD38641FBE00
:101F60001B2B3F3EA5D6E4BD51A9C6BD8A58033EF2
:101F7000D377983B11C4C1BBABCD24BE7E2D2CBE04
:101F8000C4BE0A3E5A1D3FBE7F3E2A3E687D6DBCE0
:101F90008D16F83D8D7C333E6FD2D6BE796E793E7C
:101FA00047EC983D1AD767BC66395FBC8DCE8B3D38
:101FB00048936A3D7090D3BD2AD7E9BD1CC0B2BD1D
:101FC0003D95CF3DFDBAB5BCECE30EBE5CA5373DFB
:101FD0000727603D4E6D26BD4967463D643E253C62
:101FE0009E3785BE60E8A7BD6E256DBDAC4A04BEB8
:101FF0006850523DBDFC7BBD8ACE1C3D346138BD6E
:10200000069188BD2A0D093E71F849BC6AB4E73DC6
:10201000AEC128BDFFE7943D400DF1BCD071AEBD0F
:10202000AEF1E23DB751C33DFD281DBD7A0605BDA9
:10203000758BB4BD768DBABDBA4197BD11FD0E3E0C
:10204000645312BEC641DB3CBEA8813E3AB3093E92
:10205000A71F373E9BE4D83DA99704BEFB209A3CBE
:102060005D39D8BDD98CA63C70854EBDF24903BE02
:102070000D9D203D594E8FBDBCDAF33D56BEC3BD0C
:1020800065DE343D3EA7DBBCC44AB5BC94CAA5BDE1
:10209000255BAF3D75BC48BED22D413D8509CCBD09
:1020A000AC6E2BBEF788A43D62FE113BAE4A0F3EDC
:1020B000DAB26A3D4D856E3CCFAF11BCCDBD7DBD62
:1020C0007AF18D3D6619AFBD67800A3DDB5FC93C83
:1020D0009C721EBDE540AC3CFAE3EC3B26DC0ABE3C
:1020E000593F483DF62399BD6C6420BE26FBCEBC0B
:1020F000042C4DBB8FA035BC1A926DBC712DA33C36
:1021000076BFE83C2D57013E43B8513DC45ED6BD75
:10211000D763BDBC0877A0BD664A52BD7F6D78BD50
:10212000C4BF323DAB5E51BDD79A253CB74F36BBDD
:1021300026B825BD9FD786BD964C5ABDE08DA6BD5D
:10214000A537A2BD196640BC551C3FBE96DAA4BD9A
:102150006EA1BFBDF891E8BD2E6FAEBD9821483C81
:10216000586D57BD01999DBD6863083D291B7E3C94
:102170005B6F1F3C9430A83D4D326DBDC6CCADBCED
:10218000AFB678BCDC89743B3F32933D0E7A263E75
:10219000123327BE2DBE0BBC700D613D635B44BD89
:1021A0008AD343BDBC9CA9BC6137B53CE8E3C6BD3E
:1021B0003CD3313ED5F0113A736C823D664D693C9B
:1021C0005EEA393DEED3933DBDAB943C4CBFC23D7E
:1021D000E920833C119E7F3C11D6DC3D09E898BD87
:1021E000D79640BD7D24F6BCCD8BB13CA21F9CBDD3
:1021F0002CA45A3D87F6DFBD3D06B5BDBA729EBD23
:10220000124621BE9E938BBDEB78923BFD54DFBB03
:102210007B0BBCBB72D5373D781D11BEA14A2BBDCF
:10222000082F2B3E40C2103C130F02BD27B539BD0D
:102230000D120F3C2AD6A3BDBB1ACABD6CAA903D95
:102240003FC8EB3DF2646CBC5E938DBD8A0BFE3CD7
:10225000DEFCF4BD05FF843D4B0EF73D6A960FBCD6
:102260000FFEDBBD2357E63D39C1253EDB7F1C3E1B
:10227000E0B876BCC1148E3DB10F963CD54638BD52
:10228000CFDBCF3DA5F811BE6956933DB27187BC37
:10229000F2B2BFBD6D7BFC3D46FF453DFC051BBE5C
:1022A0001C206E3D163759BD244DD93CB867433DBF
:1022B000B9FA51BE1FEE973CE2B5CDBD29001ABE5A
:1022C00067FDB93B3154F7BAC057B33D14CD01BED9
:1022D0004BD27B3D9C472B3DCC33AFBDC6BCB63DFE
:1022E000C14FB6BD86F17E3DA7CA36BEBBEEA03D4E
:1022F0004888D83CF4F66F3D494EF2BD3CCCA4BDB5
:10230000B47FDF3D5EBD92BDDFDCBA3DA7EE933DFD
:10231000E716FBBC4207423DA999EF3D12AA883D52
:102320008490843DC52E31BBC23E893DFC6E913BFD
:10233000FEAF4A3D2671A73D40CEA23D7EFF07BDC0
:10234000630D893D969C5DBD8E96C33D4AB28E3D20
:10235000CAFF8E3D41AC22BD867ED8BBFEB1B73DE3
:10236000B4B69FBBB042C33D04D1FEBC66D68EBBA3
:10237000C50D4ABDB3A7303D90CF11BC46F2223DFA
:102380002BEFF9BCF5F7473D104D16BC36B6BB3DFB
:10239000CBB98DBDA923D13D87C1923D409AB7BD30
:1023A000A87DC6BDE25DC7BCF87D08BE899010BDA2
:1023B000EF880EBB015AA0BB51BE00BCBAE69FBC61
:1023C000C2161BBEBD76833DCBB56C3D1C025DBD08
:1023D000C5C2833D0DA0ABBD85F94ABDBC60D53DEE
:1023E00040BA3A3B40E5CDBDD6F963BB6F2B4A3CC2
:1023F000C379A43C5E7AB5BD8293AF3CE135293CFC
:10240000F8AD0D3C66D29BBC4B75FF3D9D3F373D03
:1024100022A1ACBD7C63683DC63F9C3DBD9A6BBCB0
:10242000941196BDD942FE3D8CE6813C8F6B80BCF9
:10243000FAD2AA3CB5FC943DF71CC5BD7FE208BDAD
:102440006AC2B5BCC2179EBDD374EF3C46F49E3C35
:10245000717E5B3D706F62BD970D483DACC6533DCC
:1024600054C71E3DEC4C00BD6BF85ABD44DC993D91
:102470005B856FBD231DE4BBCAC4B73D5B1C813DBA
:10248000708AC8BCC5CC28BDFB1481BD6BC0A33D00
:102490000F9F9E3D303180BCF1C8DFBD3B2EEEBDAD
:1024A000FD6E3CBD1F03B63C0333653A4478C13C26
:1024B000769E8D3B1578A53D478EB83DCEC83B3BFB
:1024C000CB0FDC3CBA481FBDC235D23DB22EBFBDDA
:1024D000D8A292BD569185BDEC984ABD79170FBC24
:1024E00054E0C8BD45394BBB4F66E2BB934073BD5A
:1024F000D5C7653CFFB6C93D8AEC343DF96F0F3D49
:102500003572823DC99E9FBD9C5B95BD529AB1BDFF
:1025100068299FBD065688BD8DB79BBDB7D0683C66
:102520007D61183C4DFADFBDAFD56D3A612A96BD8D
:1025300061AF0B3D6477733C48C3253DA032A43C9A
:10254000F112513DC4FA9DBD0C72DCBCBF56533C28
:10255000144BBC3CB81F02BCE657C5BD773A98BDCA
:10256000B5709C3DC9BE183D97A9C2BDB39FB9BD0A
:102570008428DC3D357EA43A5158F3BD8DA3013C3F
:10258000C03B023D77C1CABD1BC257BDC5AFD9BC58
:1025900056C6A6BC60E344BD84E228BE5AED483B63
:1025A00047902E3D1F3EA5BD9291D13DA4DAF23C4D
:1025B000BAF4D3BDACB6C9BDF984A33D48731EBD02
:1025C000A3424D3CF62D093DB4DFDBBD025B113D5E
:1025D0007CC4023E85F0BB3B233F353D06B4943DB1
:1025E000D7B172BDA91CC0BD8E059ABC34CB01BE4B
:1025F0000F76BD3C5A1BB73DD33AA3BD268716BE06
:102600004E2D34BD4ACFB7BD293F7EBC782FC83A86
:10261000388913BE946BA3BD2B9AB73DB70F90BCFE
:10262000C6558E3D78DB713D8D38C5BCC9F06BBD9C
:10263000FBD285BA1E8530BD65B6FEBC23710ABDCE
:10264000803CF2BCD4F2983DAEAE4C3D7C9A83BD4A
:10265000903028BDAA6D0C3C793FB8BD45C46ABB1B
:102660009847DABC285730BD0AB4AABD1439C73C14
:10267000EC95E8BD73A6D4BDEB2294BD0D07B6BCA6
:10268000D5FDAEBD996A0B3E5D3FE63B27B1E8BD87
:102690000422713DB5337C3CB4260CBEF7571BBBFE
:1026A000886F49BDA20EDE3CA6F1B1BD6405C43CF5
:1026B0006B0E26BC6B3C033D2B8BE53BE7FCB4BDAE
:1026C000F0FBF83CCB7C39BD0639DBBCC4A1423CF5
:1026D0002468C0BD1A85C43D5C8C3EBDA6EAAB3DF6
:1026E000D914053D3D86A03D2F7B52BDEB81EABC50
:1026F000CB777DBC181B96BD4598F5BCAF97D7BD71
:1027000048F5AABD4B434C3B9943643DF00F29BDAE
:10271000F00B1ABDE504A93D0EEDD4BC0028E33C46
:102720009D0F693DA08CB9BC6889673D092E9A3D13
:102730001A6E913DB0AE2F3D10F13C3D9A8C80BD9C
:102740007AF92A3DD88E86BD0C34BB3D5045BCBDC0
:10275000383690BDA7CDA8BD1C7F83BDD451E7BB43
:1027600094F6F93C475C8A3D5BCA32BD0243CABD60
:102770006110DFBDD08DD6BD3C41C53D0B84BCBCD6
:1027800066A3A83D91FE943D50CAB9BD179BE1BD1B
:10279000795458397F37B63C25658D3D7F0C9CBDFB
:1027A0004197BBBD623E62BD20C68E3D6BF9913D37
:1027B000AE68B4BDD9538E3C9169CEBB5839FF3C4D
:1027C0002221863DE010BB3BC82D70BD2F0B21BDE3
:1027D000EC8F9CBD84AFF53B7BF6953C38956D3D09
:1027E0002301B33DDBD953BAC62F95BD3FDE8F3DE4
:1027F0009952B5BDD88CA23DB786BABD09994DBDD9
:1028000033D695BC97E7DCBC67DE923C325CF9BC02
:10281000A34EB0BD755A273BD0D5E1BDF70A343D74
:10282000630C633DC2212BBCB974533D7427F6BDC4
:10283000D5BEC23B8BA4923DF22DC4BD199A3FBCBC
:1028400093D167BD8EF1B4BD666B463D72BCB0BD21
:1028500084408B3D351B9C3D9EB85FBD624324BDCB
:10286000FF06DF3B766BBBBD0BB1F4BCA003C43BE2
:10287000D1E94BBD6BF36CBD67151A3DAD6B95BCD3
:1028800081BFB6BC7EBE63BDC5DFB6BD8091CFBD86
:102890002BA5AABD51D304BECCDB1EBD2339E1BD9F
:1028A000C24C973D0D2F9ABD980C9F3D261A9F3C18
:1028B0001C226BBD868C22BCFCB48F3DCE223BBD5E
:1028C000D060EEBD0E34C5BDD1FD923CE21EAFBD61
:1028D00025FD5B3D9D8137BD44B2B83A9E6E453DB6
:1028E000FF5568BC54289CBD911534BC5938A03D97
:1028F000BD5396BD47B9C0BD1DBA923D98568C3D9B
:1029000049B4373DF56997BBC986A53D704403BE00
:10291000527A09BBEEB8AE3D6D92A4BC009CF7BDE7
:1029200071A434BDCA40713D96B52C3DC4E0043D50
:10293000D4FAB5BD658668BC90D51A3DECC403BE1B
:102940003C3DA43C5D14CCBDB4CAF2BD526BAD3C61
:102950003C037B3DE2BFA8BC318F553D8286B23C33
:10296000BE175EBCA5762A3D11E0ACBD6309753D7E
:1029700009C1DFBC97D81C3DD66FE8BDD946B83D2C
:10298000C4C4023D109115BD675C47BD134F8ABD9D
:102990008B07F2BD21FC973C628F333A4F2CED3B05
:1029A00020B4CCBD6C777CBDE67B013D133DDEBD24
:1029B000188EC2BDA8D90A3BA65C413D6A1EE43A06
:1029C0008F1600BE3D0CF939B23CA1BD3DDD19BCEE
:1029D0000600C3BD3694BC3CD5A6E73B6BF07EBD7C
:1029E000925D82BD2845EBBD310D7F3DA7D454BD1E
:1029F00009C7A2BCF1B1783CFD90CA3CDB1BF9BD14
:102A00005C0B1DBD559DC53DDC8F96BBF354563DFB
:102A10008348CABDD77C9BBDB261BF3BF31F4ABD93
:102A2000995836BD4B270CBEDC59B83C78C68C3A59
:102A3000C7220C3A9D01263DE408A4BB0C49FDBB0E
:102A400062C931BDB8C1A0BCE49500BE1DE044BD63
:102A50002DE10DBC65ECD73D9A6B51BDFA23CABD83
:102A600091EA52BD4080A93D6E1380BC9B83613EBC
:102A7000CC6ACDBC1B0F0EBD8625BDBD408C003E73
:102A80002FA982BDBD847ABD34891DBE2676713DD5
:102A9000B325913BED2A8F3C9EEBB13D6DFF95BD7B
:102AA000367562BD3BCA413EFB723DBDFBDA07BDD8
:102AB000D33AE3BBFF9CEE3C71D131BEC93FE73D49
:102AC0004418AB3D24D98B3D818DA7BC71F498BBD4
:102AD0000DAA923DFDCBAA3E1171303E13D3043DA9
:102AE000DBFA303EA00AF836E2548E3D95183CBD24
:102AF0001EDDE3BC4665D8BD831CA83D2A1FA3BDCF
:102B00004DAF713D2EA8EA3D7933CC3DB09116BE54
:102B100032E47BBE5CD3D8BC78D6E4BBCA2640BDC9
:102B20006D9ADA3C62EEC93D55F880BC11A111BE28
:102B300095CFACBC93190F3D10DB84BD6E6B28BDE7
:102B40002F9B383D6CCF27BE83E635BDB5ACCFBDDE
:102B5000FB408ABD26918CBC16524D3E2863E1BCD9
:102B6000D21CE2BDA8D240BC2B683F3E347926BDC2
:102B7000692D1A3E9DE8873D539E6D3D8C1F0C3E8E
:102B8000354DEBBB5F3889BDE3F7B03E4C44223E88
:102B90009505223EFA891A3EB140C3BBBF04153DDC
:102BA000BE16ADBC710F31BE8500163C7E307BBDBC
:102BB00094D3F2BD3534B7BD23B5CF3D2524E8BB52
:102BC000A86A92BCB23E87BCD52343BE4B2FE1BD61
:102BD000FD0BBE3D27899E3C2DC5D03DDEA9C1BD64
:102BE000726A9CBDDDCE053D4552E43BF70634BD1F
:102BF00018B01ABE677A873D78181DBE62AAAEBDAE
:102C00009F00683B83EBE2BC00F823BE410D0B3D07
:102C1000967AAC3D8DFB49BD3E5F6C3A8356EB3DE9
:102C200046937ABD37D6B6BCA466033E20A8A7BBA0
:102C30002D51F53CDECB0ABE552A8FBCB0B19C3E6F
:102C40007051B83D4FA3723D2658E03CE622D2BDFC
:102C5000A0DB24BDDDD683BD1CB314BC2412A6BDED
:102C60003318C63D6875B4BD7A4CA5BC7BAEAFBC0D
:102C7000D4BEA93D8EAC243D065C69BD2CAE6BBEB6
:102C8000C1F17FBDD670B33C4247D53DB89478BB07
:102C900061F408BE49F211BD9C2CFE3C19EDB7BA97
:102CA000D379E9BD39AE38BE237C69BDB5753DBE6B
:102CB000E8D17D3C964C6EBD2D1FC93C0EAA18BDB7
:102CC0004EFC183C14CB9CBD05A58EBDB3E4D43D91
:102CD000C7B10A3D82464EBDCE6774BC0A3C3A3E3F
:102CE000A7F7853CF9264F3D4BB19CBD350CFDBD8A
:102CF0002216823E280DFFBC9F5C9F3D8510143E2E
:102D0000E9D6CFBCAA6B2DBD05F4EB3DD10827BE9B
:102D1000D12AF2BD71CA0E3DB19D6CBE1B78FEBDBD
:102D200086454FBD9E0F02BEE907DC3C6050D83C93
:102D3000D04D15BEE1EEA0BD33FCF63D81E6523D1F
:102D4000DB73A93DB601FFBDF12483BD1586CB3BE6
:102D500036A3B23C6EA311BEED72B2BD5D9A053EC4
:102D6000083A2EBEA03EC0BD30F5963C07DE1BBD26
:102D7000EEB0043D21BF323D01BD9FBDDDB75CBD5E
:102D8000BA6039BC50C4123E04E904BE869FD83DE7
:102D900043A0323E682DBBBD20E1103C81233BBEE9
:102DA000B98541BD453DA53E4E48D7BCD7D38A3CE9
:102DB000F5A0EE3D972AE0BDC7B0A23C50941DBCE3
:102DC0005219CD3B03E381BB940663BDD9C436BD24
:102DD0003D404CBDBDB3613DFD60A4BD5659B9BA7F
:102DE00091F4953C8D692CBDDECCC9BD8F90BCBDE6
:102DF000BC2178BDB237003D8500FF3CCCAF203D03
:102E00008EB84C3DBE3BC9BD94E734BD446B5BBC42
:102E1000C7E6A23D5504AEBC8C9A763D5B3F53BCE1
:102E2000F4D217BC6DBEB83D26D7A7BD3C5FAB3C06
:102E30000C96D1BDBBB9A4BD16D1C8BD5986FCBC8A
:102E400064AAC9BD42F19D3D1801B23DA183CFBD29
:102E5000DA63A1BDC0739F3C7F798ABCB7BA8FBCCF
:102E60001B3CC3BDE9C48B3D294343BDCAD214BD3D
:102E70007DD3B1BCD6C0973D0B60763DDCCB963C94
:102E8000C4BD14BD532F81BBC4691A3DB1CCBABCBB
:102E90006876CCBA92FD70BD3DD7B33BBDEEEEBCBB
:102EA000DBA15EBCE303B5BD2034D93A8651A9BD90
:102EB000E8121ABC9A06663D2EA1AFBDAD0AE8BD68
:102EC000FE4F65BD4CFE2E3DFCA7A2BD252DBB3C93
:102ED0004803C8BD634A81BA958AE0BCE57D6C3D74
:102EE000DF3DAC3D0FE8D7BDF063DBBDE291D9BD5E
:102EF0009D45093DA8A9E23B1705AE3DEC2E5FBDFF
:102F00006C746E3D147C2C3D060198BD346FACBDD5
:102F1000C80FF23BC0DEB83DCE4CAA3D4E4DA4BD1D
:102F20008C4DE63C92F7393D5712EA3C0B16FD3CBE
:102F300078EB6D3D0BD7DABD37E55F3DD093F93CBB
:102F4000B4CE29BD11FD44BCD1A7BBBA3B3AC13CAC
:102F5000E6D1293D322218BD8DD86E3DEB468FBD9E
:102F600070D6CE3DCC41E7BCB8ACDFBB2A0FC2BBAC
:102F70008B85F0BC8BF6733D5FC19DBDB7F5D23C30
:102F8000215A713D6D668EBCB62C07BEEFB47D3DF7
:102F9000DC7F943B023108BEB0DE1CBD1BD29F3CDF
:102FA0008FA45EBD89BB19BD6014A8BDE82518BDFE
:102FB0006379043C6D98A8BDA58B97BDC299A6BD49
:102FC0000FB7AC3D548E683D87C79C3DB3699EBD2D
:102FD0008D7A2A3DE03EAE3DF68792BDFCFA873DF4
:102FE000AE39723DE911BD3CADD9CD3C86CAEC3954
:102FF000C01764BCFFB691BDDB19033D3E26443DBE
:10300000B537D3BD6B3C1BBDB4E4493D8D6881BD74
:10301000DB127A3D3F184ABDFDCCDEBD4E7811BCB7
:10302000A90DD9BC920CCCBB6021CDBDB7B4A73DD6
:10303000D370E0BDD063A93C85DAE1BA7C0890BDCD
:10304000A62CC63D178B0FBD8C63C6BD0B44B9BD06
:103050004F4052BDE0F7883AA5CBA2BD9BC36BBDE4
:103060000AC80CBD9CC8BB3DB8E5833D12B63FBD48
:103070005F398C3DB767973D628FDA3DF42E77BD9F
:10308000422264BD32F3A1BD5A79D5BD8CCA9F3DA1
:1030900006B4A7BDF281113CB4C0AFBD6A5CB6BD39
:1030A000791593BD6845D1BCE7B3013D397988BA3C
:1030B000174EB0BD3C936B3CEE61DABD16B2D1BD8C
:1030C00061FB71BD1A7F24BCCA32063D619C87BD7D
:1030D0009680323D389FC13C0E698D3C8C7F8EBD01
:1030E00076902A3D886D093C24C9A2BDD8E0AB3D4D
:1030F000B2FA9CBDF530E5BCD0E284BD9B1C3CBD62
:10310000158C0D3CE3E4583D1D914FBD4AF2283D1E
:1031100029C1EF3CFE7DA4BDD93C873BFDD8A0BDB5
:10312000B69E3F3D28B981BD6E18823D30C5AC3D8D
:10313000765C22BC680C8BBDFEC79BBD88BA9EBD69
:10314000BC1BF4BD1D7C17BE33C8DA3D583D80BBA7
:1031500065789FBDEC7326BC5C0774BD431EEEBD55
:10316000B559D2BDB59414BE563AC6BDF3C4713D2F
:103170001D7E62BD658E16BD8BF3FABDA083973DA3
:103180007DD667BD9B65AFBD5C2F703DD7A33EBEAE
:103190007501993D9E2AEBBD2769CFBA81D7ABBD9A
:1031A000BD4206BC8DB70FBE805D96BB3A41C5BD22
:1031B000BBBA5DBEF228F33CD2B2F03A87C532BD4D
:1031C000EBA6CF3C016EF8BDCD43C9BDF6BB95BBA8
:1031D000B3F6B3BD43B32ABDDB9F3BBDA73C63BD84
:1031E000CD82DEBCED501ABEEF4A46BEA8B556BC35
:1031F00001AD2B3E11C13ABDFE14BDBD859AE3BAA7
:10320000A45AC9BD7DC526BD0506FABCD96AF7BD5D
:10321000FAA76F3DA9DF87BDA40D03BEE6AD00BED2
:103220005549553D67A429BE88B8833D6DE5013EEB
:103230000158FDBDCBF5DBBC38C1933DCC98B53C06
:103240008D3D833DAB44433ECB668CBC7699C0BC80
:10325000AA17A6BDA3C6F0BD317678BBCB7523BC3B
:10326000CB69343DB261D13C6E2F8ABDA5DB00BE77
:1032700047F6BABDED51F83C5DB40EBDC61E78BD33
:103280006323AC3C9A3D773D36C5B93D3549863D13
:103290001B21E3BDC0B77EBDDC5FBE3DCCDEC63CBE
:1032A0002D2A93BDE15615BD14CC5EBEC9B8763D3E
:1032B00063E98DBD6942AEBDA9FCC9BD027F31BEC7
:1032C000EB2ABBBE2C28BEBC5AA241BEFE2D1FBE9F
:1032D000EE48503D112D2B3EA209B4BDD9B611BD0B
:1032E0003255FB3C59112EBEBFDBAE3DB56DAC3C3B
:1032F0001C2A4BBE36D1623C5A1B353D25167DBE7D
:10330000DA7648BD51319ABCA42A8CBEE5EF5D3D0A
:103310004D54B7BD0C6A60BE1E24C43D81FBB9BBD1
:10332000EB22A7BE0130863D0C4514BEED93B6BE20
:103330007177313E2D0D7A3DDDCA8CBDD64BF9BD7E
:103340003F2F1D3E79C22DBE085F863CACCF04BE28
:103350003A1CEF3C220895BDD9D37D3C9AB2DFBD23
:103360006419BC3D7E7E3E3D5BA0383DA68793BC84
:10337000FD1E8EBD042FC9BD6F95063D7057D6BD8D
:103380001656683E2788853D16E5073C9F563FBE8A
:103390002487E33D78EA1FBE6BC23CBDDF17F63CD5
:1033A000259395BB2B0DD13D242FC83D3FBD123E2B
:1033B00061FD12BDB5AEC0BC41F48B3DD100A1BDD5
:1033C0002BB4673EEF5DF4BC511B08BE74B53C3EA8
:1033D0003C1D8ABE703461BEEF74F93DB85F64BEB7
:1033E0004C56D6BE19B4083EEC45A6BEFFF4F63CDA
:1033F000DB03F33D84C1B2BB0E1AB8BD00593F3E9A
:103400000ED24EBEDFC2EABCED7F86BDF1D2E5BC76
:10341000BD0454BE2DCF1E3D7BD5803DD91695BD34
:10342000292755BD9C72ECBD675484BE7682DF3C73
:103430008720863DAF96383E5ECCA9BD10EF313E69
:10344000F25641BDA7B3E43DAB8A1FBE170B61BD69
:1034500087DA033EE94191BDA242813EF0A4A43C3B
:103460003BF9A23ED704D0BD95FB993DF7240D3E14
:103470004DAA24BE8059A53DAABD3CBE675421BDBE
:10348000D0B8993D97F085BE84D177BECF30033E4A
:10349000FA8CA3BEB5E2D0BEDF5B56BD404568BE28
:1034A0009C6DB6BD12BFF83D404D353EDAF622BEEA
:1034B000A8919E3D4492D73C359B6EBD1BD490BDD8
:1034C000BF5F56BDCF86C0BD5B9E94BD5EE295BD1D
:1034D000BA090E3C0CAD9ABD7818483D5716D3BDBD
:1034E000AE59623D0CC356BD5FC0903DCA5CC6BBC1
:1034F0005156B5BCAC7B19BD48FCCBBD331F5B3C02
:1035000056F2E5BD1F366F3DAC03B7BDA65CAF3DBF
:10351000D757C3BDA45386BC5F60D3BA022366BC31
:1035200076EBD8BD7ED5543D272DD83C3338ACBD85
:103530008DF3E2BBC17E46BD7AA0C7BDB45178BD54
:10354000168800BBD60F143D94BC61BD4394EDBDFD
:103550000404B9BDC69F62BD300CA23D7D4D043B45
:10356000346F883C418A913D08E4773C7A97A63DC8
:10357000E3D8CDBD77B5A73DB31C9FBD802E8B3D55
:103580009DA4793D08601CBDAE3391BD02689A3D93
:10359000709ADDBCEAC6C23C56617CBDA3C0743DD6
:1035A0008276A83D0870183DA924953D9DAB403D0D
:1035B00067D08DBD96E3E4BD4DAC8A3D66BF51BD7D
:1035C0008F0162BDFEA946BD9A2E383D414EE8BD31
:1035D0009EFD1EBD7E671BBD532C883C8D35CDBD29
:1035E00091CA1EBD854958BBAF0B833D2D4252BCCD
:1035F000D30C1EBD5E34DE3C9D753C3CFA7CB33B77
:10360000CDD5FFBD9F26733D5934D8BD21C4613D42
:10361000764FDDBC28C06B3D4F5E81BD71ABDFBD19
:103620000E648CBC8E949CBD01AD473C1B4B06BC0C
:103630003EC5A93B22D13C3D9B78BC3CE541EC3CDE
:103640008423303DB5C8A6BD9B39D4BD0916D8BB6F
:10365000B48903BECE691EBD4A711D3CB41EDBBCDD
:103660001F95953D4E77E7BDDFD51CBA02745B3DD3
:10367000406C6CBDE21A00BDDDB786BDA8ACEFBDE5
:103680008AE44FBC23D9803C67609E3CFBAC36BDCE
:10369000F7CE0DBBAEFBF6BDB8C282BD793F9ABC7A
:1036A00081B9923D2AF3AE3D1D1B99BD27ABB0BD3C
:1036B000C658C0BDA1FB8A3DF60C413C03AE623D3D
:1036C0005856833D1DFB283DE5CFEFBD73C49FBD1C
:1036D000BBFFCFBCE90952BDE6847BBD50A0A5BCB1
:1036E0007504ABBC407E55BCF9CF9ABD52056C3B0E
:1036F0009911A5BD008095BD2FACCFBD7EA827BD7B
:10370000B688E1BD6EB7B03C4D8D06BE2FE1CCBD95
:103710004B30A3BB276DA4BDF0EA92BC1D218B3DAD
:1037200093FDF1BD703224BED967B6BC3C11D6BD45
:103730008C71FC3BB4F9DB3CFA58A6BC739363BABA
:103740004586D7BDC3CA09BEA6146B3D43CFA33C73
:1037500078C474BD24D5D73C9537D8BDBDC1B1BDA3
:103760002F6898BC1E46253DD66E73BDDB29EDBD86
:1037700009030CBDB8A8E3BD81ADC43C8D1ADB3D87
:10378000EAB212BE1030DCBD2B7495BCF8DF4B3EA4
:103790005DFA01BEB2692D3E23FF003E8043AABD03
:1037A0008C501ABEE927513EB1389FBDBF6CB43D65
:1037B000E5B52E3DA555773C95ADB73DE4A9823ED4
:1037C000B3ECADBD2FE7BD3DB467AFBD254FB53DF3
:1037D00084E80EBEF171C33D0339C9BDB526A73ECD
:1037E000E4FA4D3E81A7123E7D8F90BDF3C8653E41
:1037F0000F813C3D4EA162BD376C293BAD1601BB2C
:10380000E4CAAC3D3AF5E5BC4278543D859097BD9D
:103810006983E0BD03EBAFBD4025023E456B853DAE
:1038200047187E3D4325E63D861EB73D73D3D0BC89
:1038300022D0073ED84BC8BEEEDA4A3DA95970BE29
:1038400015DFBA3D4CD287BDEEF832BE54A6063E17
:1038500024EDB63C16C12ABDA050333E46CFD7BD9D
:1038600088F2A6BD3A0D9B3DD91B8ABD775BF9BD99
:103870000F89FF3D86A634BDFEB261BDB70F46BDC0
:1038800091DDF0BC5E322FBEDC0FC6BD156D04BBF2
:10389000A3DC0EBE25658F3D871502BED43DDBBD82
:1038A00077DF093DB06CB8BD507492BC64A88BBD85
:1038B000BFC8103D041A97BDE76032BED52F87BC44
:1038C0007C16B3BD5F2D5FBCBB26E93C3AF68BBDD1
:1038D000735F6FBD279CF23C328909BEFFD2F03D79
:1038E0000AB4343C5E40163EFEF162BB6F35253EA5
:1038F000F8998D3E12F0543D33E84EBD8B200BBD40
:10390000AD5FAE3DBE09C2BD1AC600BD9B7D493E3E
:103910001151BDBB3C05123C08C169BD3A25D23AE4
:103920007BD0EE3BFADA013ED1DE50BC1E3B823D3D
:1039300020E8A6BDB1B3443D880F5DBD65C90DBD8E
:103940001951DFBDA0067BBD0BFFB33DC95C7EBC3A
:103950006C597F3D5337B03D4618943C00A02CBDB8
:1039600056D1C7BD50888FBD17520EBDEDCF87BD54
:103970005CDD713D51910ABD7CEE33BCB48C3A3EA6
:10398000DF8EA3BD85A8E53C67F2153E2E32F2BC62
:10399000A466B53D6A5A193DA399A73ED6A8083E2C
:1039A000293A9B3E83306A3E13A440BDB20B6C3D66
:1039B0000AED29BD6A373B3B11BC0EBEAC7D303DE4
:1039C0002C77C2BB9BEE02BD2B00113D854F31BD54
:1039D0001F934F3D4B8EC039210EEEBA43BE5D3D65
:1039E00042FB343D28A7A3BD266F0EBEA9F601BE3B
:1039F00014251BBE3A82A3BB803D1FBD7C01003E47
:103A0000C9A14BBDC148713DE41CDB3CB8E36CBDB2
:103A1000FF80FCBD427C68BEC8331EBCE89780BDF9
:103A2000660A81BE0BD652BDB67B8BBDDD3260BD52
:103A3000F247E03D561A89BDFB5C0CBD44719C3CCD
:103A4000F4400BBDB895F93CF78283BD327BC53E8F
:103A50008063F23CCBE5953E65E42C3E2E5A1ABCC1
:103A600047519BBD58232E3D4E197CBC5E8F9CBB9D
:103A7000204C143D7F6E173E02B6763DACF374BD0C
:103A80002E0AA4BD195B00BEE3183BBEF9E1DB3C86
:103A900023E45D3D7B318BBD4CF73ABE74CE39BE1D
:103AA00033D939BC42514FBE86A0843D331D6B3D96
:103AB000107156BD3F4E7B3CD485CCBBDAF8D2BCEE
:103AC000C1C0D03C872E55BD9D6444BE62238A3C54
:103AD0000A6194BDE2C2A4BE1E88BF3DF0ED6F3DF9
:103AE00042643C3D4E3C573E2A62EDBD249239BDB6
:103AF000017CA93D4BA619BD11793B3D7EF88D3D5A
:103B0000AF7BA03EB163393D6A3FD73EAD0FAE3EBD
:103B100009CE1B3D3404E33CA0EB0ABDA02A223DA4
:103B20009FE431BC1C5393BCAE430ABDC0C5CC3A24
:103B3000C827D5BAEEAD91BC70FFE9BD01F0E3BC7A
:103B4000D06B32BD0B20B9BD3C1302BDFA071BBEC2
:103B50006A47BEBC96D7103C94803FBE642FAE3DF2
:103B6000561FAEBC7E889CBD8B202DBDC44C113E23
:103B7000A6FBC33CD24D983CE800D3BDE8A60FBEDF
:103B80002AC8033E4EA433BD35706DBE93CE643D4E
:103B900030EA67BD0AC50BBBAA5BFE3D24C754BD16
:103BA00035C932BE58A1EC3DF37ED1BC4E22DABD00
:103BB000212C0B3DADA7763EC137593D0A970E3FEC
:103BC0005F28D23E623DE13D6492B8BD4B4EDB3D85
:103BD0006E4EC8BD59091C3D5BE2DCBD1D0133BD05
:103BE00054AE143D5B07573D19CCA73D830A6C3D8D
:103BF0000F5AD03C7192703D4002A9BC1F9AA3BCE1
:103C00008DDA86BC29D1F1BDC59C853D9CCB3D3E5E
:103C1000EBB033BEE476333D69730FBE3248B23D3C
:103C20007948753D8E03A7BD4373C33C75F60A3EC4
:103C3000EF255DBE3EB7C1BA42880E3D8F7C3DBECA
:103C40003FD008BE4C0B3FBE2A3142BC4EA788BABB
:103C5000F6201D3D3CD7A13B30EDE4BDB9E20ABCE6
:103C6000F630493DEC61BEBC8B07043FD84E5ABDCF
:103C70008FCE343D35F5993D526D3C3D1B8E5ABD7E
:103C80003A23B63D349BAABDF951C13B929D11BE6A
:103C9000FAA724BD2732713D3015C2BC0BD6543D66
:103CA000BA03F43CD937B03D49D2083E3CB1D43CCC
:103CB0007C4530BD9EF6E7B997A1A1BD0EE3023E5B
:103CC000CC03713EAB071DBD664290BD303740BE90
:103CD000A550D73D36E7D23D92320EBD13B882BD16
:103CE0007A21A93D53B70DBEAFD956BDE6211FBD00
:103CF0004D6669BE0A5682BDB9446FBC0A172A3D9B
:103D0000519C1C3DE3C08F3DDAB7D13D6C27923BFF
:103D1000F681F33C4A9484BD1E86FB3D3DE6CB3ED6
:103D20008D99943D3C33013E54B34B3EA9F975BD8A
:103D30002DC41BBC3A8AEE3D74160EBECE1818BDBB
:103D4000578EB8BCF5F1673B0A1B013EF15D8C3D17
:103D50005C4BB53D2A9B3FBD25AE9E3BD0B88F3C0A
:103D6000937C2A3D388B11BD474762BC8CF821BE3D
:103D70002375BB3DF304873EDC05ECBD6FCB80BCF7
:103D800070A6D5BDF0B1DF3DCD66F33D535FDCBD20
:103D90000ED03E3DCF1D863DF78417BED12A3DBDD6
:103DA000079FFF3DAFE3A0BCE5B4DCBDA68F51BDCE
:103DB0001C9C563C4BA25B3DA472A93D0E87A93DBD
:103DC000760F48BDD7A13C3E3630D8BD9EC9EB3DED
:103DD0005EDD2D3EA879093E538DC03D3476383ED8
:103DE0009EDCC5BC0EDA153EC31FC73D5DC007BED5
:103DF000B7E9D03D8AFDB63CBFE59EBD9D3BF4BC16
:103E00009E2E98BD2FC1A8BDCEEE8D3D522F333DC5
:103E1000CD81D03D766AED3D6F11CEBDF52F2D3DA4
:103E2000F34EE43C38C3F73C25A6C63DBE11C53B66
:103E3000729679BDDD8A3CBE38BBBE3D20956DBD16
:103E4000EB3830BEDEF0043EA3AF66BDFBAC40BE37
:103E5000A33C923BC1EFD03CC8D46ABDB3C6B33DCE
:103E6000396ABFBD1C045F3D790C41BDD6D1003E0F
:103E7000BEC9463E5D4815BE358B633D81E9FEBD3A
:103E8000A3AD103EA101C6BC62EC463E6AFF92BCE7
:103E900022E7523EEEAC253D2FEB88BD0A9CC93D82
:103EA000AAC21ABD73EE363D2CB512BE53E62FBE24
:103EB0005C8A753DB36286BC85E71EBE26695A3DA5
:103EC00034B8A8BDEC299F3D31AE943C6F9FBDBD79
:103ED0004BF730BEB1FE1BBE9F52F63C4EFF0ABCF4
:103EE000BA9B9B3C0ED0EDBDB4EB82BE98D95CBCB6
:103EF00022F5173C5DB735BEC59AB13C88F868BC61
:103F00005A59E2BD527E5B3C8A3B3E3D2986DABD72
:103F10009369923DC236A2BD7C13033E17A0823D39
:103F20008E9B4E3EC354FB3C7CCFBBBD8E1D873D5C
:103F30003757DDBD36FB0FBDAFB383BDFF94483EA1
:103F4000F489B03C15862C3EB583A4BBBEAC79BBCE
:103F500048FFBE3D4C4B2D3E635B183C586258BD3C
:103F6000497C243EE0CDB03D7A88BC3D0F7FAA3D20
:103F7000FED60D3B555796BD5A0BABBCD712CCBCE9
:103F8000C1BA15BDBDE5033B239C6FBDED5B7BBD99
:103F90009E43CF3DACBBD5BCBEC889BD88DDFBBB55
:103FA0009EE518BDC11EA9BDF013C4BC5B25E33D51
:103FB00069A2693D67E11EBE778378BD8B3801BE7B
:103FC000F72DB2BDB6751FBDF1A8D9BC166AACBD40
:103FD0008F557E3D12AD853DB86BEBBC41C2133CA5
:103FE000C500033D21E7D23D036200BEAB9C2C3EE1
:103FF00070F6AB3C84AFC43DB6E3B93CA1DF853D70
:10400000634DE7BDF7B6433C2435F23D38A8E43CA8
:1040100064DD363DA9DC713DFFFD743DA3E503BDC4
:104020008457283E5CB0D9BC37A879BCF825083E37
:1040300030B90F3E56AD3B3DEE4D113E23B9A43D88
:10404000D446AF3C4280FC3D66CDF6BC58F1C93D3C
:1040500027A8C93D8AD280BD3F62A9BBF1CF673D89
:104060001B1E64BCBAB8803DEB3F8ABD5EEACCBD86
:104070006874BBBD55982DBE3235A73CB6FF283DB0
:10408000919838BEB970273DD3D2803DD99746BEAE
:10409000B31AA6BD599D8EBD99FE963D9589A0BDCA
:1040A0000184953EF33E853CD54F4E3E04691D3E4E
:1040B00036847ABD64DB98BDB63F8B3DEC7BA83A75
:1040C000693A8DBD8B18D4BC3FEF4D3E83EA0B3E61
:1040D0005691553D7EFF643DEDF865BC81DA503D5B
:1040E00057C7F53D4023BA3DFAB3AABD1F32C63DBE
:1040F000C6D41CBDC831123D2194093E7ECC0F3D73
:10410000E47CC93C4C0F2CBDAD40C43DB4ED01BEB8
:104110009094B6BDC0848D3D1F4698BD98EB10BEEF
:1041200066CF80BD9AB79FBDF74413BE6DC483BDF3
:10413000B514DE3DF004D1BDAA9720BDBB22B83C2A
:1041400024D75FBE23244F3C05D7C33D463B0F3EDB
:10415000EA5ACCBC6964733E606B963DF78B703E47
:10416000EF917C3C4598023D04966DBD3578B0BD1D
:10417000948AAE3D30CAD3BD45DB55BCF57CA83D25
:10418000DEF0063EABC6523DC069053E984F873D06
:104190008686BCBBFCFE803DA4263DBC4EEA183C96
:1041A000E0C2183E3D3A553CEC9092BD377FA53DAC
:1041B0006930073D8261B7BBFC31A33C6B0695BCFF
:1041C000AAB6A23C9AEDC8BD2C5D213EE8A4903B66
:1041D000F31EA3BDAF7BA53D06C72F3DA62E1BBE7C
:1041E00014E682BDC468F23CFE1279BED7E08BBDF6
:1041F0003006ECBD17C32CBE49F9D23B60F05EBD62
:1042000046B8C9BC9637FCBCC147913E3E9E75BDC1
:10421000C082983E23D27A3DF53F05BD21F03DBDD9
:1042200042F301BEE26A583D30C3973C7613CABCE4
:1042300009C5BF3CDB94B13D363F56BD53023C3E01
:104240002FBDA3BD9DA8B23DC07C72BD0686D1BB6B
:10425000BFCE2E3CEB995D3DB20B9DBD2A0A943D2D
:1042600080D3B33DE0389F3BFC00173EA142CDBD5B
:10427000CC251F3D9C06C13D2CC150BC4D70C93D95
:10428000821C86BC93373DBE95AA1ABD74D918BE50
:10429000E0798DBEB2FDAC3DB0278F3CA6450BBE8C
:1042A00024EBFC3C593B1D3D7B318BBEFDE889BDB9
:1042B000D25213BC2D44DF3D799B9F3DDC12523E10
:1042C0004F5CD33D97D6B43EF6F0CF3DE29AAEBCFC
:1042D0006ED2ADBDDC52D9BD86FF81BA08C2973D12
:1042E000E680383BF409BEBC904E93BD495917BDDA
:1042F0009D658FBD783505BD612F98BDB3A796BD6F
:10430000122A753CF03A1FBD7AE310BE3753793C50
:104310007F6319BDB262C73C0352F9BB3193873C3E
:10432000BAF38A3DB35A45BD879E343D1BDB7C3DC5
:1043300015F0383D1010E0BA542FEBBD21C06A3D96
:104340001D6E8BBDD135EBBD9BFAC6BDC7A87D3DAB
:104350004377DF3C580C12BC2BEDAE3CCA9020BE1C
:104360003556F43C053BAABD6CF7C93DE27CB0BDB7
:10437000957613BE2EFB9D3C4AC7B13DFE5F9D3D29
:10438000810300BE3E8F933D85A1A03D1B30F83CCC
:104390000E1189BCC6E88A3D5387D93B872530BDBD
:1043A0007508873BA16E5F3D9B7658BC0D0C0BBE1C
:1043B000B8FF133D3152983D01E6D3BD0CC204BE97
:1043C0006049073D4891D7BDD66BFABC37C90FBDD0
:1043D0003D26FABC61D41D3EE6DB063C228112BDBF
:1043E000F6F4C33B80E44D3DCCB0493D626F85BDE2
:1043F000664A4E3CA89A9C3DCB54B4BDB7E0223AE5
:104400001A2252BDD5BC8ABD5926C7BCAB69FEBCB9
:10441000EC03EBBDD683CA3D0C2AE7BDC63DA1BD6A
:10442000A9D23CBD3A05963CBE909BBC640BF8BA41
:104430006294603D0ABEB2BC6212AFBDC9D7403DB6
:10444000EC4DA43CE289483D9FB166BD4161A53D6C
:104450005F3AD9BDAA7A85BD7FBD053D4DDCF6BD6D
:10446000DF57E8BA61555FBD139E12BC9555BDBDBF
:1044700047A2593D09A1B0BCF22963BD57B2903C97
:1044800003A1F63C16A4A73D54E8DA3DE0EBFCBDE1
:104490004CE7493DA2A82D3E4BFE4FBC39A9593DE2
:1044A0002E5627BD505C44BBF7B8603CED2EBCBD1A
:1044B000C10F97BD0DBCB53C9E1C1BBE877D06BDC4
:1044C000553ECABC8DC3FFBCFA1341BD1D7FDCBD88
:1044D0001BDD423D91D6CC3C4027DFBDC142CC3DE7
:1044E000464DDFBC439CACBDE5C0CABD4F5D74BD4D
:1044F000F9D9BC3C32098E3DA214E0BA9AAE133D04
:104500005FAFFCBCA8F681BC375C613D7687B1BD6E
:104510000F50CABDAB4A08BD9A114C3D46BFBC3DC9
:1045200044D989BC633EAD3DC02D78BD73DAA43C4F
:1045300040265C3B3043523DD72CA1BC2F30D33DAD
:104540008FBA963D689DBB3C42CC773E459A80BD74
:10455000B53D47BD038F523DE9B619BDD816263D7E
:10456000943F423D91A6B9BD24DA08BEB4EE75BDB4
:1045700034AE12BC6B10013E5EA79BBDB014DE3D95
:10458000066392BD114D18BCAA14E43DA0F1713D23
:104590007FC4DC3D47CB273EFAC325BDAEC3C13C3B
:1045A000CD47EEBC5204053DCA739ABDCB55463D7E
:1045B0002178FCBBAEE9663DB25A8D3DCBF7FEBD1E
:1045C000F752793C01F4AEBCBB78E1BDAADE54BD24
:1045D000775BB33D6D2D00BE6BE8E63DDDE94BBD7D
:1045E000C20B50BDB5557DBD642B1EBDBD57D4BD9E
:1045F000E3D3823E453B96BD839613BE56B6473EF7
:104600002554B43DED4A283D54140C3DACFF9ABDF1
:10461000CA8A87BD78FD373DFF6CB2BC83DA8FBD97
:10462000A9BA5EBE82BC603D2C97ECBA53E7F4BDDC
:1046300021A632BA6669E8BDFC08A7BDF02F813D0E
:1046400037B804BE9739AABDDDC1AC3DEB381E3D7D
:10465000082BD1BC77E4CB3D38F9913D0693AB3DB7
:10466000F779033E331891BDF3891E3E2093733DC5
:104670008376323C19BD97BD9089473E45401A3C30
:10468000F004A83DE3CF39BDA031C4BCB83C553DD2
:1046900077AAC9BDF162FB3D285B1ABDBEDDD2BD64
:1046A000B98FF1BD8F51BA3D8C5FE0BDAC94F63C43
:1046B000CEA2FABB291D4DBEC61B913DD40C02BC37
:1046C0002FCF03BCEF03743B2106373E53B338BEF4
:1046D0006B84723D52181F3DADC5DD3D5C05BA3D92
:1046E000464256BDE9E72DBDFDD7D3BC7AA716BD1E
:1046F000BD79D3BC224B39BDD89BFBBD3641C2BD71
:10470000629431BEC16FA4BDEA63803D02FBEEBC82
:1047100077433E3DD7A34F3D47FACCBD2D8AFC3CA5
:10472000330CF8BD35239B3DC99EDFBDE4912A3D86
:10473000965DD8BC0E431A3E8CB43DBEB08977BDA1
:10474000D823C73CC04C88BDA07B9BBC72425ABCDE
:10475000895507BE4D58BEBD9F54183E8DE79ABD82
:10476000E9FB65BC2C17743D878699BE934F803C4E
:1047700033B13BBD19B6553DBC7DA3BD0059863C48
:10478000E58FBCBC20B08A3DC9C39ABBC7C75C3E9D
:10479000E167363E294E813DFD29D43CC3EF9A3C6A
:1047A00000AF01BD9639813DC83C0BBD97A7F63CD3
:1047B00065D29BBD487838BE3C3DFD3CFF386C3D22
:1047C0004EABDFBB4393913DB1950B3EDFA33FBDA5
:1047D000D879DF3B1A7801BCEF3FFFBDD8A02B3D55
:1047E000CA73CC3D9C57DCBC9EAE253E08BC19BEAE
:1047F00066F600BD67BF2A3D9DE991BD319D85BB31
:104800001E9BDFBB40A8383D60266CBDF4B2363D30
:10481000F5879CBE116428BD20A8A83C2E25A9BE02
:1048200090F122BD6AE8003E831642BD1C9881BD0E
:104830005363163E134335BD33FABF3D8DE51D3C32
:104840002D96BD3DC3740E3E27A4463DCB01D13D00
:104850009BD50F3CFDA9BA3D252B32BCC944F0BD08
:1048600058E0A0BD1EB00FBDAD4E49BE1DE178BDE4
:10487000D2B31CBCF2EAFBBCF0A62C3E35F0EC3CFB
:10488000BFCBE1BDEFDA923DF6B8C3BD2B2ABB3CEE
:104890006112CA3CAAE991BDAD8C40BE05A6333E6B
:1048A00055D928BE588EB3BDDE89D8BDFFD866BDA8
:1048B000ADFB5ABD2548023D96DD99BD3C4C943C6C
:1048C000F2D9003EF20F94BE516ADBBD15DF7A3D8E
:1048D0006BFEC2BEF9B8B53D50FEC13D1D70A0BD16
:1048E000F3328D3DD492763DD84952BE95754B3EFC
:1048F0002512BD3C5B086A3EC6BD293E8192D03C74
:10490000C619423DA29AE73DD05005BDC9BDE6BBE0
:10491000A3BCFF3DE99D203C3EEB1A3DFE6737BE40
:10492000F70A763DD542FBBCF23C77BC38C3173E54
:10493000E6289FBDB0FC21BDBB69323ECE3524BE0A
:1049400012DA103CE64D803DC76606BEDDA012BE01
:1049500081D27A3EDC3E19BE237CF2BDB1A7E4BC15
:10496000EDD6BBBD87B626BE530D2F3EE8A159BD7F
:10497000B5008C3DF41E203E2AAF38BE733A1FBDF1
:1049800097E1573E6822D1BE3253C13DA471023D2A
:104990006E92E2BB5B01983CD007103E1F1FC5BD65
:1049A0004969683E9A591F3D73AC213E0DB0853C64
:1049B000C94D7EBDBDAE553D70E61F3E4740433CF0
:1049C000A8B08ABC17B3C53D45778FBD7956753DF4
:1049D0009AC6F5BDADBEF53C3DD27E3D31346A3D53
:1049E0001C1F8F3D4E4A3B3D8AB9E23C340EBDBD93
:1049F000EE4D2A3A938B8DBB14009CBDDAD22BBCB2
:104A000006CEDD3B136F94BCE63DA4BC64431B3E65
:104A100066D73B3E7FAA70BD53C62EBEF2A72B3D84
:104A20001A5ED63CA850D8BD6D70E33B556B1FBDD8
:104A30002BA0EBBDD277833D37B3BABCEB5083BC20
:104A4000554AA0BAE9DF9DBD9448E7398B861EBD63
:104A5000C9DE60BCE322CCBD1B81CF3DED9BE2BD36
:104A60006A98A73D4024953D25FE053EDDE223BD25
:104A700070ABA53CAF1CCBBD3807013EE1E48DBD5A
:104A8000309083BDF6BE26BC7FBD16BD2C4D8FBCBD
:104A900051815D3DC78EF0BD7B463FBC2FDE003EA1
:104AA000FE502DBE107A713D0BA4603D99C10EBD24
:104AB000EB1C15BD075219BECA33453CE33517BD83
:104AC00087B0FC3CDB34653E3E87B33D99C62FBEC4
:104AD000ACC5103D157B88BD0DECDBBBB2B44A3CC8
:104AE000BCC654BDF6D9F7BDC103B8BDB39E8BBDDE
:104AF00084BFF43DEB1BD13DB171BFBDD8B52FBD17
:104B00008B97E23D289C6E3DE7E7D8BCE769F63B12
:104B10007717A9BA034A5BBC053E3E3EEABE5EBDBE
:104B2000548CF6BCB2300FBDD0AD853D52C304BB32
:104B3000A19466BDE27125BD44D40DBE75ECA63BC3
:104B4000A3C6813DB8A29DBD8DF525BEA49209BD29
:104B50003523013E9D203BBEBD509C3DDBDA80BD30
:104B600002A0543D86DCC4BDBC43C8BD6370B5BC67
:104B7000C714AD3DAFE9933C28706B3DBBD443BC3B
:104B80004CEFAABCB3A4B1BC785685BD08CC59BCC7
:104B9000D07A4B3D7C261CBD62257C3DFDD3E4BD17
:104BA000182CA93D4CF449BD5DF3A23DD21410BDB3
:104BB0005148583C2C341C3D660F043E93F6D23DC0
:104BC0001D4B003EBCAFDD3C7F14153EF1238C3DF8
:104BD000103A043CAE2D6CBACDA307BE362C513D25
:104BE000EE94C3BCF5C6D539EFC8DABD670515BE6E
:104BF0000FC165BCC7EEC4BD68FFC33DE42EE9BD6F
:104C0000FEC31DBD08E3E53C3806DCBD5431FCBCE9
:104C100002933B3CF040D1BD2DAE2EBE711752BC6D
:104C2000790BD3BDCAE7BE3DD26B9A3CACBC303EDB
:104C30003D623A3D8B89A7BCD7A5823C50C886BD52
:104C40009856823DB66C35BD059018BED44248BD1D
:104C5000CA53DBBDE76EB53D6CD4F83D721351BC51
:104C6000862A2A3D417A0E3E16433F3D562E023E8D
:104C70000B9A913C6CBB023E5E8C033D571DD73DA9
:104C80008A2F6E3EDC3747BD98933B3E085398BC55
:104C90008B22C9BD47566DBD4E8C36BD341C43BEFC
:104CA0005BFFE2BD3311E0BD3339C5BDA36DB33D3C
:104CB0004922D2BC5186AFBD901BFBBC574614BEE7
:104CC000304191BD670A433DFD7B25BE3C72A4BDCA
:104CD000C32508BE223BE7BDDFDB97BCFC45E7BD33
:104CE0005111EE3DA422D93D0C4A27BE65DF7B3D24
:104CF00060F47B3DA547CB3DB940B1BD3B6102BEF1
:104D000027E7A7BD82427ABC66A605BEA806F93D84
:104D10001C1E053D728B8ABB2A57303E7A5E2A3DA7
:104D2000CB56F73DF30E9A3D7F7B523E1F38EEBDCA
:104D30008539013E5B72993ECC75A03DFF85473EAB
:104D4000EB558CBD4516253CFD901DBE27C7C0BD4B
:104D5000BC4D19BEBEFFBDBCEA05053EB20D8F3D80
:104D600026ADC6BD1EE40B3E5A17AFBD8CA3AD3DAC
:104D70002CB3633E1DF8743D010D84BD0515EABCDE
:104D8000CB1DEABD673E0ABE43CA853BF66A11BC2D
:104D9000933045BDB9A7B3BD5611AB3CE26F063E9B
:104DA0008538E3BC162CF73DFBE860BCF15D78BDAF
:104DB00051B2D8BDE263E9BD76D001BB8CFE83BCA5
:104DC0002B81D63C2FE25ABE86B702BE4B832A3EC9
:104DD000292149BE46FBAE3D857E643E358A9DBD98
:104DE000351F82BD12F0203EDADCAF3D5064633DDA
:104DF000A38E9E3D8CB7723DD14E68BDB3B4293DA4
:104E000028E7F9BD0F902B3DBCF8053EC7AC5D3ED1
:104E1000631D933CCFDD46BD03C9283E775EFDBDD3
:104E20001DF0153E00BCB23DCCD5C73C32C73F3D5E
:104E300025645B3D235806BE183516BE51B89BBD90
:104E4000DE5F333EB58918BD00EBD8BD9083F3BD5E
:104E50003A29BABDDB3BA7BD9620B1BC2933FB3D47
:104E60008DEC0A3D063B95BDB87ADFBD54AD85BDDE
:104E70002FECCF3C43846EBD095F63BE99FA91BDB0
:104E8000291F273E954FA7BD7051093D90F49FBB48
:104E9000912C993D0F956BBDBD19B93DC1C39BBC0C
:104EA000F412C13D5BF4F13D1A4E833D2A80803DF2
:104EB000DB1123BCB7A7DCBD9DECDB3D3033F93CF7
:104EC0004446273E7F7C43BD65DB27BE73D9283E21
:104ED000551C4A3D8BE7643D6469503E9596A63D5E
:104EE0002827C6B96EB5963DCE1116BE0C372E3B9F
:104EF000AAEC5EBB413BB63DE01CE33DA55B64BE56
:104F000058D729BE95C811BC85E9D93C92E5E13D49
:104F10009CDECA3CD4AD4ABD1D02C4BCD7C74D3DC2
:104F20003070EEBD8FB8193EB669853DAC5870BE85
:104F3000A79013BE3F6A0F3EA92466BE025986BDE4
:104F4000E5E6243C3CA7B03D9BC772BD8E5CDE3DD0
:104F5000E42BB6BDBD790DBC4AFACC3D6ADB5D3EA3
:104F600046FA3F3DFB3DDCBDA7F34E3DF941333EE4
:104F7000DC959F3DE76B143E6A43F6BC8DB704BEDB
:104F80000143ED3D45BA6EBDC16CBC3DAFCA103E9C
:104F9000579E2D3DFEF9A03D690175BD530835BEF4
:104FA0007816FFBDA428863D15721C3EA529F1BCCC
:104FB000B3CB40BEB367DABD3DEDF3BC83814FBDDB
:104FC00061E5C0BC33AEE73DCEEB42BEC492B3BC9C
:104FD0000086813D068B16BE20A11C3EEEE9363DC3
:104FE000E3823ABE880D823CFFD13C3EFEE952BED0
:104FF0003587653D9C02113E526122BCE906FDBC2D
:105000008D5F963DB9E92EBDAEFA3DBCEC74213EF4
:1050100003B2FF3D92B95CBA333588BDB509FCBB1C
:10502000CBBA393EA274823DD64C803C1E50F3BCB4
:10503000836708BE656DDF3D65AF93BD7304143DA6
:10504000468B703D860E083D2EC9053E170CECBC04
:10505000F7623DBE025400BE52E6CEBC3D0D123E8C
:105060005066EF3B6CD49ABEA1FF36BEB3F7B8BD15
:1050700003B78FBD231BE53D89F3ED3C0AC363BE37
:1050800019C583BDE8432B3DC98A62BE5735283E0A
:105090002795443B79D530BE45070FBDBBE90A3E95
:1050A00034E475BE67301BBDD9CD303E0342353C7C
:1050B0007F5D433CC7D31E3E7053103E63550EBE0A
:1050C0007DBB493EEC2F253BB3565E3DA7B733BCB5
:1050D000D8AD1EBD45EE493D040A163E2F21D8BD70
:1050E0009DC1833D3C1DB43B6E29453D6364193D24
:1050F0001AE5E5BCFC5C703C6FD3163D31A9C93D97
:1051000049AC07BD164785BC4019733C6C5A92BD2B
:105110002BE8573B2A284E3C66BCBA3D2401ADBD66
:105120003FD709BBC752CE3D150E8B3B5FF472BC17
:105130001730AC3C00ED7D3C7270053D5032CC3DEB
:105140004A2DBBBD4D4D2D3DE5C2DE3BD7DC98BDA4
:10515000E65ABA3D6989ABBD628BD9BC1EF8833D66
:10516000E2927CBD67C80DBD2A3E093C221C35BDBC
:105170004BDD813DE7E4053D57DFD03DCF9081BD5C
:1051800029F12A3CE523AA3D6667C93DDD2B8FBD89
:105190006E19973C9E8747BD752683BD1737DABCCD
:1051A000CE213BBD64C544BDB4A93FBD924F673D10
:1051B000CA8BC0BDFFB79C3D1996453DED76E83CD6
:1051C000ADFB21BCF8E295BD7E0BDABCFD8226BDAD
:1051D00037E4683D3DDD81BCCF43B0BC406E6FBD60
:1051E000A2338CBCFDC1733BF20CC9BDACC30ABD7C
:1051F000C9BE36BB6C47A2BC4F654EBD014C2EBD2F
:105200004C4FA9BDB956913D6D999F3DFFB596BCD8
:105210007C54B53DE62325BCA29AD3BD09DD013DF2
:105220005CE92A3DA504BCBD4D06983CECA142BDFD
:1052300065C1C93D5C31E43C8C0449BDC55BD1BD51
:10524000708D2ABD8D4BE93B8AE02CBDE60DC33D38
:10525000283039BB24B4C8BC0C8447BD6C52A53D72
:1052600013E5B1BC1BE3463D96708DBD4475803C93
:105270005C2744BDA010C7BBDEA23FBD0403C2BD76
:10528000A7E2F53C58969E3C3D7B94BC90E5D3BD8F
:1052900014980CBD78EBD73CF95263BD5969BEBD7B
:1052A0003F443D3D62AA7EBA0B16543D9E722A3D94
:1052B000071755BCC9D9A7BD04FF8DBD1DB6073D55
:1052C000C1E6403DE1348BBD275E013B1AF1D1BD03
:1052D00033E458BDB9C1133D3451B1BDC979423D24
:1052E000404D853D1F949BBD547A9C3C2CD6893DF6
:1052F000090ACD3D1695023D8DB2733DA243ADBD69
:10530000E8E4BB3B00BCD3BD267AB93D34DED6BD54
:105310007B8AC6BC7917BB3D63C60D3D8B24DABCC6
:10532000FF4974BC5930CCBC65BD9BBD4E3B983D1C
:10533000D2AED5BD3BB0B3BD189FC63D6C4468BD71
:105340001FC45ABD4D6A813DE36A353DE0A7C6BC26
:105350009DAB74BD652886BD376BB53C41C0CD3D66
:10536000512AD5BD3D81903D5B1C9FBD9A06D4BDA1
:105370002E3288BD9D9AEABC036846BDB3A40ABC20
:105380004C51D1BD97F1333D6481F1BC6CCB0E3DE6
:1053900052EACD3D4E0168BD6FAF0B3DAC01CF3D34
:1053A00078C6923CB3BE9FBD419E0BBC2076FD3CAF
:1053B000784F0BBD3C5FCBBCEEE0463D2B3B1F3D29
:1053C0001601CF3DC002AFBC48B33F3DCFB1E1BCF9
:1053D000D7663E3D7BA855BC24D6373D4EB3ED3B4A
:1053E0001365A63D6F35783D87F7B7BD3494A7BDEB
:1053F0002F10EF3CD81512BD75CB9BBD26BB2FBC23
:10540000BE5C91BDD6E3523D8FCCEB3C3BDC1FBC78
:10541000D814C9BD24C2043B19F9703DE4EDC13D67
:105420009B9A61BD31F674BD0DF549BD86F69EBDF2
:1054300038372B3D363A86BCA6F3B1BD1F6C55BD3F
:10544000824797BD29BB2EBD9438C6BD0E6C8E3DDC
:10545000F9F4613D9CCEA5BD1FCBAEBD722444BC0A
:10546000B0728F3D4DC0CABD2A5A533CB8E8C33D07
:10547000D9B1933DB61A1BBE8F48F13C978AA03D27
:105480002730F43CBFB81B3E3D3E3D3D818BBA3DCD
:105490009B5F76BD591793BB0520DCBD3002393DBB
:1054A0004D55E73B1BBB743C9ADF723D7556953DED
:1054B000BBCD7A3D88A689BD0D581F3E0225DABDB9
:1054C00008A422BCFF5D253DEE5956BD06DA0D3E0F
:1054D00096139A3D992BB63B4954773D7E3C8EBD41
:1054E0000B85B23D04A25B3D8617E3BC3BCFEC3B92
:1054F0005AEFAE3DF618BBBDC4E1C339F7F4EC3C3E
:10550000D719A4BDE31343BC882495BD23EBC2BDCA
:10551000E08B69B87D5E4B3E6E5A06BEF90F0B3BC1
:105520002438A63D225B2B3D14D726BE0D56F5BB75
:10553000E9AB853DD759373E05684F3E54DA7DBC0F
:10554000AC603F3E9C2D2BBB5873D5BD5690973D0C
:10555000BEB597BDE1058FBD8AF634BB7BBC913DDE
:10556000811C1ABE5501CCBB6E3946BD720BA73DDE
:10557000749866BDF03D003C9EE1A8B866E9BDBDEB
:105580005F35EA3BCD61E03D1F9AF83C1018B7BD8E
:10559000029B2EBE853BF33DFC7D2B3E41145DBD41
:1055A0001F3A003E9BDD043E39F2863B8ADAB83D65
:1055B0006B6F103EC8DA01BE892E4D3DA573DD3CF0
:1055C000A1510D3D84BCAE3C9D8B5E3D8CD131BE66
:1055D0006A085B3DCEB8B8BC7A87E33D3BA2563B38
:1055E00025AC843D3FE0AFBB2E86D93D29B5263E94
:1055F0001563DE3D4BDBBE3D4C3CC0BD3DC0CBBD6D
:10560000E4B1F6BB8953DABD70697FBD94CD4C3DE2
:1056100012351A3D6CA8873B864B8DBC7BBA74BD96
:10562000057AB43DE07CC2BD28DF743CABF07CBCA5
:1056300019D912BE46DF153DD671173D8F921B3D1D
:1056400017FDD2BA6D45EF3BBF6F7CBD50E0E13D29
:10565000F45BB93DFC75093E5366FCBC2F2F93BD2E
:1056600042AA0C3D9A09F83DED1109BEC5229EBD26
:10567000E2DBB63CCEE3EABCEC4C0E3E61C12E3E12
:10568000DEEB25BE9F6163BD36BD1C3DD3EACB3D3D
:10569000596005BEE97F27BEA392B3BD05007B3DDF
:1056A000DD7D993D6AC02D3D909AEF3D0EF5B3BC6E
:1056B000C749D9BD8ED1323DB5E8A1BDAE3CC9BC0C
:1056C000B309B33D0B04BDBC096EA4BDF23F36BDAA
:1056D000CE986DBE71151B3EA350D0BC5D8157BEE8
:1056E000F19210BBC1A29C3C845D423C2210363D2D
:1056F00041561F3DA45CE0BD25F117BEC2639EBDAF
:105700008DD3BB3D0114B33DD4EC783D4ADF093E57
:1057100033439FBD58E9F23C5E548A3D4D6A58BD03
:10572000C90A0BBE7208D83DD178CD3C9834DB3D18
:105730001253BA3D28DD11BEF1FEB3BD608B0BBE26
:10574000F61FCE3D65DB9B3CADB149BEE8428ABD4C
:105750006AB2B4BD0C5179BDFE5C09BBFD3B2B3E6A
:10576000B4194CBE31D809BD43B22B3C3D5149BEA2
:10577000CF130BBED29D513EABCC24BDD3FC3BBE60
:10578000017C06BE19D923BE4B6E143E248DBEBCCF
:1057900040BA2DBE8A14893DA297ACBCC2F2293D05
:1057A00077A19E3CAAE24A3CF1B4E5BD44FD11BE9E
:1057B000B30DA7BD2792ECBB0DEBF5BC2227BF3D77
:1057C00025651F3E1D3873BDD811C5BDB3231A3DD5
:1057D000E38A1CBD135299BDB51081BD2590B1BDA2
:1057E0000B03343E6A22BEBDEE76ADBDDF48A3BDDD
:1057F0008051A2BD041E7C3B033372BE92D281BD98
:10580000E8A813BB0351803CABB2513E45B0E23D2A
:105810004040D33D1D88393E7E4C1E3DDDF5223E85
:10582000166B083E09AE903D6453B1BD48FC353D52
:10583000A20E273E9BB14EBD36E7373D7CBE283ECB
:10584000E865E8BD3643F23DF2FC703E408055BD50
:105850001B66FA3C00D75E3CDD2C91BED8348E3DF1
:10586000E77921BD8A21BFBDC11C07BD5F8856BE37
:10587000DBEAD0BD83704F3D5F79D0BC9722D23D2B
:10588000C95BA1BC444AA6BD6F82C53D7B9BACBD34
:10589000AABA85BD28760EBE5ECA44BD932D12BC41
:1058A0009938C5BC019BCCBC24C3423D922621BD86
:1058B000DE79CDBD8982433E570E70BEB1FD993D64
:1058C00089956F3DCBB0C53D821DC2BCDFAFEB3CBF
:1058D000DE22D8BDE063183DDDA4073E2F7AA3BBCE
:1058E0000C486C3D42A46ABC84132EBCB95C343EA7
:1058F000FDED473EFA43A1BD3C10323E7C5A633D6C
:10590000F46A12BC9E03183CF77E9ABD5F0ADA3C2B
:1059100073286D3D9F42D93DCE602ABCE88D96BD6F
:1059200027204ABE428BB3BD665DFEBBDBB02EBDF9
:105930000F4D623DAFAB93BD5FEF6BBDE8E7BD3D83
:105940006D3F86BE8B589ABDB3569C3BE8EC3BBE80
:105950008E7DD6BC06D008BE6BBF37BD226E63BA43
:105960003933C83C4A8DEEBDC27D443DDDA591BEB4
:10597000201D4BB9ABC0E63DBD43113E4AB77CBCD0
:10598000844959BB8C2312BEF7536F3D7A337D3D5A
:10599000F74610BED9541BBD9CDAAE3DA692073E19
:1059A000330F61BD7664443E19DDDFBD8C44F3BC2A
:1059B0004CF45E3EA189F53DFBAB73BC4C178BBD2F
:1059C00044DFA73C772FE9BD1E091CBD9B7E08BDA7
:1059D000A59AA8BD4809BEBD2662E33DE3EC483D5B
:1059E000613C7C3D51C85A3D5CB32D3B0A52D73DCA
:1059F000E6C2C03D3E9A83BEC95D47BDDB5105BED0
:105A0000E4DC54BEAA7CD03D3CFC0BBE0C2127BE7E
:105A1000D04DE23DE2350ABEDC14B2BC96C8543E1D
:105A20006F8987BE8BD41ABDBB7A373D0910C4BCC1
:105A3000AF3A07BDA9C0513D676EA0BE9A83DB3D5A
:105A40004EC2813C4D5AC6BD1B0C7FBC2FBBA23D34
:105A5000684BF83C1AC0ACBD7080423E3CC44F3B22
:105A60006095AE3C2AC8903D4B87073EE49071BDDF
:105A70008AF27C3DCCA2A33DAF8412BEA890263D05
:105A8000C64EC23C816342BD556B1CBE016B933D4B
:105A90006C26523D6A0E2C3DB1CABD3CFBB539BEE9
:105AA000A346893D29B1263E90E1DDBD35B63CBE19
:105AB000CC1507BE553748BE5329E23D62B3D2BD6F
:105AC000A89081BDE7970CBD641DA8BD474C3ABDA9
:105AD00073608C3E1532A6BEF9B19C3D12F2033EB6
